:020000040000fa
:080000000001040000000000f3
:020000040000fa
:04000c00c801000027
:020000040000fa
:04001000d801000013
:020000040000fa
:04001400d001000017
:020000040000fa
:04001800e001000003
:020000040000fa
:04002400f0010000e7
:020000040000fa
:040028001e050000b1
:020000040000fa
:040034004205000081
:020000040000fa
:040040005403000065
:020000040000fa
:04004c00e0040000cc
:020000040000fa
:040050004602000064
:020000040000fa
:040054004c07000055
:020000040000fa
:04006800fc04000094
:020000040000fa
:04007c00b2020000cc
:020000040000fa
:0400800092020000e8
:020000040000fa
:04008800c4040000ac
:020000040000fa
:04008c00f601000079
:020000040000fa
:0400d400e80100003f
:020000040000fa
:10020000cfaf20000ebf20000e01880000000000cc
:10021000000020000000e000020032000001200089
:100220002002880014000700d70307000000e00048
:1002300003003a0080b523000100200002003700cf
:100240000000200001002000810f7000010032003a
:1002500014000700000020000000e000020032004f
:100260000000020000000000f03a02000000000060
:100270000040da000000fe004440a900a07d2000fc
:100280000000e0000300320000002000a001880010
:100290004440a800000006008a1f78008b1f7800e9
:1002a0000000060091018800800478000000eb0047
:1002b0001a003700e284440032a0b4009905ba0065
:1002c000e284440032a0b4009906ba00e2844400fb
:1002d00032a0b4000006eb00476fde00fd07b2005d
:1002e000636ce10003003a00ebff07000000eb0045
:1002f0000a003700606ce10004003a00005deb008a
:100300008b05e900fdff3e00040037006168e10055
:10031000010032000086eb000b00070019c7ba008d
:100320001905ba000e04e00003003a000a00e000dc
:10033000e0ff3a0000000600fe07b2009e018800c0
:100340008a047800f5ff3700395dba008b05e900b3
:100350000c003200295dba008b05e900080032006c
:100360000c00e00003003a00e284440032a0b40034
:10037000f5ff370019ddba008b05e900faff3a00f6
:100380008904e800e184440032a0b40000000600c3
:10039000700aa8008020a9000000fe0000400600ae
:1003a000702aa8008040a9000000fe00004006005e
:1003b000704aa8008060a9000000fe00004006000e
:1003c000706aa8008080a9000000fe0000400600be
:1003d000708aa8008960a9000000fe0000400600a5
:1003e00070aaa8000000fe00004006003600f800d9
:1003f000809fbe00829fbe00849fbe00869fbe007d
:1004000019c2bf000018a30017003a000143800082
:10041000c00320000100400012a7200062407800c5
:100420000004e000100032008548e2000e003200b7
:10043000d2aa2000028140000000fb00d0108800fa
:100440008100e80019c2bf000018a30005003a00af
:10045000524078000004e000f7ff3a0001438800b2
:100460000100370001438800100020001e0c070027
:100470008720a9004f03be004f02be004f01be00ff
:100480004f00be003600f900004006003600f800bc
:10049000809fbe00829fbe00849fbe00869fbe00dc
:1004a0000fc2bf000018a30015003a00f1428000ff
:1004b00010a7200060c078000004e00010003200a7
:1004c0008448e2000e00320012a7200002814000a2
:1004d0000000fb00801088008100e8000fc2bf0010
:1004e0000018a30005003a00524078000004e00024
:1004f000f7ff3a00f142880001003700f14288001e
:100500000000eb00f80b07008540a9004f03be0078
:100510004f02be004f01be004f00be003600f90082
:10052000004006003600f800809fbe00829fbe009b
:10053000849fbe00869fbe000000eb0039120700ba
:10054000100020003712070086c0a9004f03be002c
:100550004f02be004f01be004f00be003600f90042
:10056000004006003600f800809fbe00829fbe005b
:10057000849fbe00869fbe0044c8bf00e24f50006b
:100580000e0034006fcabf000048a3000400320010
:100590003e68ef0030c1b300f5eab7001200370043
:1005a000e194200091407800e08320000148780029
:1005b000b0c3b300f5eab7000b003700f54ae2001c
:1005c00008003c00b0c3b300f5eab7003e48e200c3
:1005d00002003c006e2aa800030037003e68ed00d0
:1005e00001003700f56aed00304680008170200080
:1005f000810f50000b003a004184200091407800a8
:10060000e1cf50000700340096100700e10f5000c2
:1006100002003a0010c0b30044e8b700c628ef005b
:10062000060037004184200091407800e1cf50005f
:10063000020034000000e8003046880044c8bf00d3
:10064000e34f50001100320044c8bf00e14f50009a
:100650000e003400c608e2000c003200b3100700a0
:100660000000e000090032007415070040468000d9
:10067000e40f50000300340010c0b30044e8b7009a
:10068000020037000000e8004046880086a0a9006c
:100690004f03be004f02be004f01be004f00be0020
:1006a0003600f900004006003600f800809fbe00ca
:1006b000829fbe00849fbe00869fbe00889fbe00b2
:1006c0008a1f78005268ec006ccabf000008a300c3
:1006d0000400320039c8bf00e14f500001003c0067
:1006e0003968ec00c8518000d95180006011b80011
:1006f0000800be00a70207000000e000160034005a
:100700006ccabf000008a300130032002051800013
:1007100031518000c70a07000001be000800be007a
:100720009a0207000000e0000b003d005008ab00fb
:100730000900320038c8bf00e84f500005003400ff
:100740006c0aa900f0022000a30f07006ecaa800df
:10075000010037003868ec000004eb00a99e20007f
:100760004a0020004241dd002202b0000281440024
:100770001200780092009000a2488000b3488000e8
:10078000820207000000e00006003d005008ab00b8
:10079000040032006c0aa9000a0078008e0f0700de
:1007a0006ecaa8000804e800e40f5400edff3a0008
:1007b00080518000915180000250800013508000d1
:1007c00099040700e0508800f15088003ac8bf0043
:1007d000e74f500010003c00e2408000f3408000f2
:1007e0002051800031518000cb020700e04088009a
:1007f000f14088000241800013418000a04f80003a
:10080000b14f8000c40207000041880011418800f8
:100810003a68ec001d003700e0408000f1408000a5
:100820000200200003e023007f040700e04088006e
:10083000f1408800e0408000f14080008051880055
:100840009151880000418000114180000200200089
:1008500003e0230074040700004188001141880070
:100860000041800011418000005088001150880034
:100870006000b8000041880011418800e040880015
:10088000f14088003a68ef00a01507008051800011
:1008900091518000025080001350800062040700d4
:1008a000640a07000004be00e04f8000f14f8000a2
:1008b0000801be00350207000000e00002003d0014
:1008c000e84f8800f94f8800285180003951800096
:1008d0000800be00570a0700f226210033b02300ab
:1008e0002c0207000000e0001100340012052a006d
:1008f000138123000800be004b0407000004be0063
:10090000104e8000214e80000801be0082020700c8
:10091000104e8800214e8800324e8000434e8000e9
:100920000800be007c020700304e8800414e88005f
:10093000f3cabf0000404000f3eab700f3cabf00ab
:10094000e84f50000700340010c0b300f3eab700ce
:100950006c4ae20002003d006ceaa9000100370089
:100960006ceaa80084c0a9004f0578004f04be00bf
:100970004f03be004f02be004f01be004f00be003d
:100980003600f900004006003600f800809fbe00e7
:10099000829fbe00849fbe00869fbe001000200084
:1009a000f51507008700a9004f03be004f02be00e7
:1009b0004f01be004f00be003600f90000400600a7
:1009c0003600f800809fbe00829fbe00849fbe005c
:1009d000869fbe000000eb00e71507008520a900f8
:1009e0004f03be004f02be004f01be004f00be00cd
:1009f0003600f900004006003600f800809fbe0077
:100a0000829fbe00849fbe00869fbe00b112070079
:100a10006ecaa80090032000ef0e0700d70d070054
:100a20008600a9004f03be004f02be004f01be006a
:100a30004f00be003600f900004006003600f80006
:100a4000809fbe00829fbe00849fbe00869fbe0026
:100a5000a01207006ecaa800a0032000de0e070047
:100a60005028a800c50d07008400a9004f03be0050
:100a70004f02be004f01be004f00be003600f9001d
:100a8000004006003600f800809fbe00829fbe0036
:100a9000849fbe00869fbe00889fbe008a9fbe00c6
:100aa0008c9fbe00a1e2a80088518000995180006f
:100ab00000498000114980002249800033498000ac
:100ac000d90307000200200003f42300d603070027
:100ad0000001be000800be00ae0107000000e000fb
:100ae000020034006caaa800010037006caaa8001c
:100af00068488000794880001c0020008005eb00d9
:100b0000ad9e2000010037000c06e8000c05e9004e
:100b10004251dd002202b00002814600120078003e
:100b2000920090000801be009a0107000000e0005a
:100b300013003500e10f55000b00320003003c00ac
:100b40000a00e000060032000d003700e20f5500f9
:100b500007003200e30f550009003a000600370095
:100b60000b00a000e8ff37000b10a000e6ff3700e5
:100b70000b20a000e4ff37000b30a000020037007c
:100b8000e30f5600e0ff34008b40780040852000e2
:100b9000014878000ec2bf000018a3000a0032000e
:100ba000d00220008c0e07000ec2bf000008a30078
:100bb00004003200901080000ec2bf000008a300a5
:100bc000fcff3a000e22a90018c2bf000018a300c3
:100bd0000a003200e00220007f0e070018c2bf00aa
:100be0000008a30004003200e010800018c2bf001b
:100bf0000008a300fcff3a001822a900891407008e
:100c0000791707001319070044c8bf00e24f5000ce
:100c100003003c0010002000704688006ecaa90046
:100c2000104e8000214e8000820907000004be00a3
:100c3000704d8800814d88006ccabf000038a30049
:100c40004c00320043c8bf00e34f500049003a0057
:100c50000006eb000a0020008b2c2400cda320000e
:100c60004260dd00008046001000be000a01be00a8
:100c7000460107000000e00003003d004260dd0087
:100c8000008046001005be000c06e800e40f560088
:100c9000f3ff3a0002002000632c24000a00be008b
:100ca0003c0107000000e0000c003400f4cabf0063
:100cb000e24f500009003200504d8000614d80002d
:100cc000304e8800414e880020c0b300f4eab700df
:100cd000c229ef00c429ef001300370002002000f2
:100ce00003f823000a00be00280107000000e0000e
:100cf0000d003d00f4cabf00e24f50000a003a0068
:100d0000584d8800694d88006000b800304e88005a
:100d1000414e880014c0b30043af200084497800de
:100d2000104e8800214e8800304e8000414e8000d9
:100d30006011b800150107000000e00002003d004e
:100d4000c629ef00c829ef00584d8000694d80008a
:100d5000304e8000414e80000801be000d010700aa
:100d60000000e00002003400384e8800494e880040
:100d70006c6aa9005a4d80006b4d8000304e800097
:100d8000414e80000a01be00480207000200200018
:100d9000832c240024030700804f8800914f880093
:100da0008851800099518000f2282c0053c72300fd
:100db0000800be00f70007000000e0002b00340030
:100dc0006ccabf000018a300280032005c4e8000ef
:100dd0006d4e800002002000135624000800be0063
:100de000320207000001be000c00be004a010700ed
:100df0000001be00504e8800614e88000a00be000f
:100e0000e20007000000e00018003c00ca29ef00e3
:100e1000cc29ef00704e8000e10f4000020032004c
:100e20000000e800704e8800904980006500b9001d
:100e3000cf80de00150107000001be000000200089
:100e400001f82300190207000001be000000200085
:100e500001f82300270107000001be000a00be00c0
:100e6000f1020700504d8800614d8800ab0d07006e
:100e70008460a9004f06be004f05be004f04be00af
:100e80004f03be004f02be004f01be004f00be0028
:100e90003600f900004006003600f800809fbe00d2
:100ea000829fbe00849fbe00869fbe00889fbe00ba
:100eb0003bc8bf00e74f500071003c006ecabf0046
:100ec0000038a30059003200001480004840800020
:100ed000594080008000eb00ef0007000801be00d1
:100ee0000d01070040408800514088001014800028
:100ef00068408000794080008000eb00e600070039
:100f00000801be00040107006040880071408800ad
:100f100020148000a8408000b94080008000eb00d1
:100f2000dd0007000801be00fb000700a0408800ac
:100f3000b140880030148000c8408000d940800053
:100f40008000eb00d40007000801be00f20007009b
:100f5000c0408800d1408800a8528000b95280006b
:100f6000401480008000eb00cb0007000001be00b1
:100f70000800be00e8000700a0528800b1528800b7
:100f8000c8528000d9528000501480008000eb00cd
:100f9000c10007000001be000800be00de0007001f
:100fa000c0528800d1528800e8528000f952800077
:100fb000601480008000eb00b70007000001be0055
:100fc0000800be00d4000700e0528800f1528800fb
:100fd0000853800019538000701480008000eb00db
:100fe000ad0007000001be000800be00ca000700f7
:100ff00000538800115388008014800088408000ce
:10100000994080008000eb00a30007000801be00ab
:10101000c100070080408800914088005008ab0064
:10102000150032008b120700130037006000b80073
:10103000404088005140880060408800714088002e
:10104000a0408800b1408800c0408800d14088009e
:10105000a0528800b1528800c0528800d152880046
:10106000e0528800f1528800005388001153880034
:1010700080408800914088003b68ec001f003700ea
:101080006ecabf000038a300010032004d110700f6
:101090006ecabf000038a30001003200bc08070080
:1010a0003b68ef005008ab00070032006ecabf007b
:1010b0000038a300040032006ecabf000068a3001d
:1010c00001003a00dd1507005008ab0001003200b6
:1010d0001819070044c8bf00e24f500006003c004a
:1010e0006ecabf000038a30003003200a1e2a900cd
:1010f0006e6aa900010037006e6aa80044c8bf00ec
:10110000e34f5000050034005008ab0003003200ec
:1011100010c0b300f70a0700130037005008ab00f7
:1011200006003a006ccabf000068a30003003a0042
:1011300040c0b300ef0a07000b00370044c8bf00ef
:10114000e14f50000600320044c8bf00e34f50009a
:101150000300320020c0b300e60a07000200370097
:101160000040eb00e30a07008560a9004f04be00c1
:101170004f03be004f02be004f01be004f00be0035
:101180003600f900004006000000050014002000b1
:10119000ad033700f4ff2f00ab0337000001be00a2
:1011a0003f0007000470a70003f0a1006509b1002b
:1011b000160032000d0035006828e10006003500f9
:1011c000f0ff2f00f1ff27000300e00013003b00b9
:1011d0000100280000000500000040008180480058
:1011e0008502e900fcff3a0008003700f88f420052
:1011f00002003c008000eb00000005008100d100ef
:101200000080d3008502e800fcff3a000300e00004
:1012100002003b0060001000e080180000000600a3
:101220000001be001e0007000470a70003f0a1002b
:1012300003f8a30013003a006509b1001000320062
:10124000090035006928e10002003500010028008e
:101250000000050000004000818048008502e90090
:10126000fcff3a0000000600f88f42000500350040
:101270008100d1000080d3008502e800fcff3a0025
:10128000000006008000eb00000005004f89de0032
:1012900082017800870337006011b800950337009a
:1012a000c70ade00f107b200f50fb20008003200f5
:1012b000e1cf4200020032000170a00024000500ce
:1012c000810f700001003200040805004400050091
:1012d000810f700002003a00140005008502e90049
:1012e0000000400081c04800fcff3b000170a000ee
:1012f0002400050007f82700078361000638e10095
:1013000004003a00f707200087836100870371001b
:1013100001003a0003f0a200889fbe008a9fbe0031
:101320008c9fbe00470ade000480a100c71ade00c1
:101330000580a100070028000785600087856100ff
:10134000f70f20000720e1009e0032000728e1008f
:101350009c003200010678000400e000b400320076
:10136000f7072000878060000170a0000500e00002
:10137000c0003200f7072000878161000370a000e1
:10138000050652000f003a000b50e1000b0032003e
:101390000308e10002003a000200e1007e00320092
:1013a0000204500083845800040031000001fd0055
:1013b0008101fd008402fd008a05fd006044b80043
:1013c000210037000520e10005003d000001fd007f
:1013d0008101fd008402fd008a05fd000506520022
:1013e0007a60e100050035000170a1004722dd00b0
:1013f000848070008a807000630037006044b80009
:10140000ef02660007ff2f00070666000500e000f8
:1014100006003400f08312008714dd000511de00a1
:10142000071bdd00060171008519de007060e10018
:101430000500350009047800820478000301780073
:101440008001eb00700656000b50e10003003a00eb
:10145000020040008380480004003700600414004c
:10146000e0841c0002005800838058000188a3001b
:10147000060032008100d1000080d3008984d300af
:101480000884d3000402e800270037000178a30095
:1014900025003a000100e000030032008186cf0001
:1014a000698656000a0037008c0020000000e0002a
:1014b00004003a0009007800880478000004eb007a
:1014c000700252008086cf000d0646000c06e9002f
:1014d0007060e100060035008000780009007800a7
:1014e000880478000004eb00700656007002520079
:1014f0000c00e0000c0034008c08dd00f003160046
:101500000703de00868070000c00dd00074bde0064
:10151000060070008c4cdd000743de0086847400fa
:101520000c44dd000c0252006120e1002000350077
:10153000610160000700280087816400f7ff270031
:1015400087836400070374000300e0000600320094
:1015500082037300040032000000e800e0804800cd
:101560000188a3000e003a00f70f20000720e100d9
:101570004a003d000170a1004722dd008100720099
:101580008a8070000000be004f06be004f05be00fe
:101590004f04be00000006006000b800faff3700ec
:1015a0008100d1000080d3000402e800eeff370084
:1015b0000401780089017400a10107008a8070008d
:1015c000f1ff3700f7010700070278000001fd0076
:1015d0008101fd00f3010700870278008503720096
:1015e0000778a300040032000001fd008101fd0026
:1015f00006020700e4ff3700850362000768a300c6
:10160000080032000b50e10003003200f0ff2f0011
:10161000f1ff2700dcff37000001fd008101fd0024
:10162000d9ff37000468a300d7ff3200faff370064
:10163000f8ff2700888360000b003a000000e000fc
:1016400009003a00830364008283730002003200c1
:101650000200be00ccff37000b50e100ceff3a0085
:101660000200be00c8ff37001400200081006400a3
:101670003eff3700f8ff27008883610004003a002e
:101680000200e00002003a008c007800beff370044
:10169000150020008301640039ff370001f827009e
:1016a0000000200081007500b7ff3700889fbe0052
:1016b0008a9fbe008c9fbe001b0020000202be005d
:1016c0000586680006002800060666004709de0059
:1016d000f20fb200820032000243e80080003200c4
:1016e000c729de00f30fb2007d0032000343e8009b
:1016f0007b003200f107b2000170a000f507b200d4
:101700000570a000c708dd004903de008680700078
:101710004700dd00c72add004923de008682720013
:101720004722dd0003055100040350008583580063
:101730000300310000004000818048000a05e900f4
:101740008c1f78008a9fbe000400500085805800de
:101750000402420085824a00000040008180480067
:101760000005eb000004be006033b8000406be00b4
:101770000d48e10056003100110009004dccd800a1
:101780000c01b8000d02b8008481410060824a005b
:101790008283530003045c0084845c0060055d0068
:1017a0000a00e00025003a00800578000d40e100c5
:1017b0004900310088007800070078001100090016
:1017c0004d88d8000c01b8000d02b800848141009a
:1017d00060824a006003110083835b0004045c00a4
:1017e000e0845c000900e00021003a004f01be00e7
:1017f0000300e0002b003200e301600007067300e5
:101800008c81710001003200640070004200de0033
:101810004e5edd000c007000c258de0001e0a0004a
:1018200083010700cf017800818071004f06be0060
:101830004f05be004f04be00000006008c8343002d
:101840000d044c00e0844c0060054d000000e900f0
:101850000a00e000d4ff32008c8343000d044c00ea
:10186000e0844c0060054d000000e900ceff370029
:101870000c0343008d834b0060044c00e0844c005b
:101880000000e9000900e000d8ff32000c0343002b
:101890008d834b0060044c00e0844c000000e900a4
:1018a000d2ff37004200de004e5edd000c0070000b
:1018b000c258de0001e0a000cf0178000300e00084
:1018c000daff320060001000e0801800d7ff370018
:1018d000f0ff2f00aaff3700f0ff2f00b9ff3700fd
:1018e0000404be002f010700870678000004fd00f5
:1018f0008104fd002b010700078366000678a30022
:10190000030032000960a7000800be002c00370069
:101910000d78a300020032000800be002800370046
:101920000778a30026003a0001f0a10009f0a10009
:101930000668a30003003200f1ff2700f0ff2f002c
:10194000baff37000d68a300030032000800be0094
:101950008c807000b5ff37000768a30007003a00cd
:101960000648a30003003200f1ff2700f0ff2f001c
:10197000aeff37000d48a300030032006000b8003e
:101980008c807000a9ff37000748a30004003200d4
:1019900001f82700000020008c807000a3ff3700b2
:1019a000760107000004fd008104fd0002057800b7
:1019b000720107000802be008a01780059ff370053
:1019c0000160a00012022000d257880097ff370064
:1019d0000100e000120032000500e00010003200bb
:1019e000889fbe008a9fbe008c9fbe000006eb0051
:1019f00001f8a3000300320060001000e08018002e
:101a00000cf0a00005f8a3000300320060021200f1
:101a1000e0821a000cf0a2008005eb0041ff3700c5
:101a20006000b8000200050003836800070028007a
:101a300007036300470ade000480a100c71ade0026
:101a40000580a100f70f20000720e10042003200ce
:101a50000728e10040003200889fbe008a9fbe0038
:101a60008c1f7800f107b200f307b2000400e00019
:101a7000640032000170a0000500e0006800320040
:101a80000370a00085054200eb07b1000204b80016
:101a90000302b8008484440060854a00020ab8004a
:101aa000848444000a854a00030ab80004054500fe
:101ab000040033000804d0008984d2000a85d200d3
:101ac0008b05e9006158e1003d003500021020005f
:101ad000090161000308200089816100f7072000e7
:101ae0008783640008867300c84cde00c853dd009d
:101af000878474004855de000300e00006003200d1
:101b000082037600040032008904e80060054d007d
:101b10000a88a3000c003a00f70f20000758e100e4
:101b200044003d000a70a100c75ddd000a85750014
:101b30008a007300090078004f0678004f05be0048
:101b40004f04be00000006000a05d1008984d300be
:101b50008b05e800f0ff3700881f78000604780046
:101b600090000700070278000001fd008101fd00e0
:101b70008c00070087027800850372000778a300b5
:101b8000050032000001fd008101fd009f000700fb
:101b90004f04780000000600850372000748a30088
:101ba00003003200f0ff2f00f1ff2700f8ff37009d
:101bb0000000200001f8270088807000f4ff370043
:101bc000880178004848dd00808171004848de00c7
:101bd000c850dd0001007000c850de000604780027
:101be0000b0178001600070088807000d2ff3700d4
:101bf0000500e00005003200170020003a00070051
:101c00009dff370081037000f9ff3a0086007800dd
:101c10004f0678004f05be004f04be0000000500cf
:101c200083037100f9ff3200270020002e00070017
:101c300094ff370001f8270086807000f4ff37001a
:101c40000100e00026003200610111007810e1007f
:101c500023003c006022b8007010e1000400350051
:101c600080027800010078008000eb0070015100d4
:101c70000200e0000900340070031100062add00b4
:101c8000822ade008603dd00878272000200de0009
:101c9000860bdd00070070008208de008481710081
:101ca000f4ff270004826200848171000400280090
:101cb000848262006102600005f0a6000000060058
:101cc00004827100070032000000e800e080480054
:101cd000000006000002be006000b800efff370001
:101ce0006000b80000000600889fbe000004eb0002
:101cf0006138e10016003a000100e00008003a00f7
:101d0000c800de004800dd00880020000100e0007f
:101d100003003a00c800de004800dd00680444000b
:101d20008184cf00e9845400060034008908dd0076
:101d3000f08314008703de00878070000900dd0057
:101d400009044400610214004f04be0000000600b4
:101d50000300e00008003a00c811de004811dd0071
:101d6000880020000300e00003003a00c811de00f4
:101d70004811dd00680444008384cf00e9845400e6
:101d8000060034008919dd00f08314008713de009b
:101d9000878171000911dd0009044400e10214008b
:101da000e9ff37002700200001f0a70017002000fe
:101db000470bde00f60fb200040032000643e800d5
:101dc0000a0032004702b300000006000103780059
:101dd000f607b2000603700002003a000703b300e2
:101de000000006008702b30000000600010378002f
:101df000f607b20006037000020032000770a00070
:101e0000000006000760a000000006000478a300a0
:101e1000040032000578a300030032000168a3002b
:101e200001003a000200be000160a00000000600b0
:101e300081017000270032008002eb0001f8a3004e
:101e40000300320060001000e08018001500200040
:101e5000f40720000202420020003400f7032000b3
:101e600087036000060420000003630002082000ce
:101e7000000161004700de00c909dd00008071003b
:101e8000c708de000600e00008003200870371008a
:101e9000060032001000b0000180b0000188a300ed
:101ea00002003200c108de000402e800f107b200bf
:101eb000f30f20000320e10003003d004722dd0076
:101ec000810072002900370001f827000000eb00b4
:101ed000260037006000b80000000600680212000b
:101ee0007f20e100020034006000b8001f003700ce
:101ef0006011b8007020e100040035008001780016
:101f0000010078008000eb00700252000400e00045
:101f100009003400f00312000719dd008419de0007
:101f20000703dd00868171000400de00070bdd0081
:101f3000060070008408de00f7ff2700838363003b
:101f400087037100060028000303630007003200c6
:101f50000700e00003003a006101600002817300a5
:101f6000020032001000b0000180b0000500a600a1
:101f70000000060001f0a000000006004f0ade008d
:101f80004709de00f107b200f20fb2000b00320089
:101f9000f207b1000170a000c708dd00c901de0032
:101fa000838070004700dd000400a60000000600ea
:101fb00060001000e080180000000600810f700033
:101fc00001003a00000006008182cf000500e00019
:101fd00010003e008082cf00ee8242007028e100b7
:101fe0000400390007003e00800078000000eb008c
:101ff0000e003700708312008600de000500dd0051
:102000000a003700708352008600dd000000eb00fc
:1020100006003700e28252008508dd00708312005e
:102020000603de00868070000500dd007507b00045
:102030000501ea000400a600000006006000100090
:10204000e080180000000600889fbe008a9fbe0046
:10205000841f78007c0007004f00780011003300d7
:10206000f0ff2f00838f6c0006003b000405650025
:102070000a00a7000800370009f0a60010002000a1
:1020800008003700820f5400838f5c000300390082
:102090001000200001003e000000200009f0a70011
:1020a0000000ea004f05be004f04be000000e00043
:1020b00000000600881f7800030478000300e00099
:1020c00007003d0060001000e0801800600119006a
:1020d000e081190002003b0001f02d0003003700f1
:1020e0000400070008f0a70001f0a0004f047800ea
:1020f00000000600889fbe008a9fbe00008270001c
:102100000402710004827100260032000004be0047
:102110000200be006011b8006b092000950220008b
:102120000182cf000a0039000541b1000082cf00d2
:10213000070039000541b1000982cf0004003900d1
:102140000541b1000882cf00010039000541b1000e
:1021500005425200120032000a003b0082817100e9
:10216000610164008100d1000080d3008984d30024
:102170000884d3008b05e8000442e800f7ff3a002a
:10218000070037000804440089844c000000480020
:10219000818048008b05e9000442e900f9ff3a001c
:1021a000030007004f05be004f04be0000000600fc
:1021b00081002000618055000b003d000b002000d5
:1021c00061fe2f000100e1001d00340082817100da
:1021d000610164008904d1000884d3000000e80094
:1021e000faff3a00710020006100640003007000f3
:1021f000020060000900320061044400e0844c00e9
:102200000988a500050032008b05e8006808e10098
:1022100002003a008904d1000884d300f20f2000a4
:102220000258e10005003d00c75ddd00f907b2007e
:102230008980750008007800000006000bf8270070
:102240008b007800000005000004be0014fc0700ad
:102250000003be000405be000200be0010fc070023
:08226000844f75000000060028
:020000040000fa
:10226800556e0000616200006c6500003a200000b5
:102278005365000074740000696e00006773000005
:10228800204c00006f6300006b650000642e0000a6
:102298000a0d0000000a00000d00000020000000e8
:1022a80020200000005300007973000074650000ce
:1022b8006d2000005365000074740000696e000012
:1022c800677300003a3a00000a0d00000031000070
:1022d8003a2000007c520000317c000020200000e1
:1022e80020200000202000007c520000327c0000ea
:1022f8002020000020200000207c00005331000036
:10230800437c000020200000202000007c530000b7
:10231800324300007c200000202000002020000024
:102328007c530000334300007c2000002020000084
:10233800207c000053340000437c00000a0d00009c
:10234800003200003a2000007c500000437c00006e
:102358002020000020200000202000007c4d0000ec
:10236800425600007c20000020200000207c000055
:1023780042520000567c000020200000202000006f
:102388007c440000567c0000202000002020000033
:10239800202000007c4c0000565300007c200000e8
:1023a80020200000207c000044430000527c0000f4
:1023b8000a0d0000003300003a2000007c4c0000a9
:1023c800437c000020200000202000002020000086
:1023d8007c430000435200007c20000020200000c5
:1023e800207c000041480000527c000020200000b2
:1023f800202000007c4f0000435300007c20000098
:1024080020200000207c0000414d0000437c00009b
:102418000a0d0000003400003a2000007c43000050
:1024280054380000307c00002020000020200000ec
:10243800202000007c4300006d5400007c20000038
:1024480020200000207c0000435200004c7c00004b
:1024580020200000202000007c4300004d58000090
:10246800547c000020200000202000007c43000055
:10247800524800007c20000020200000207c000042
:1024880043540000547c00000a0d00000035000091
:102498003a2000007c4400006d5400007c200000bd
:1024a80020200000207c0000445200004c7c0000ea
:1024b80020200000202000007c4400004d5800002f
:1024c800547c000020200000202000007c440000f4
:1024d800524800007c20000020200000207c0000e2
:1024e80044540000547c00000a0d0000003600002f
:1024f8003a2000007c420000535400007c20000079
:1025080020200000207c000043530000547c000081
:1025180020200000202000007c4d000048540000ce
:102528007c20000020200000207c0000504f00008c
:10253800417c00000a0d0000000a00000d2a00007e
:102548002a2a00002a2a00002a2a00002a2a000033
:102558002a2a00000a0d00000044000069730000e8
:10256800706c0000617900003a3a00000a0d000022
:10257800003100003a2000007c420000257c000069
:102588002020000020200000202000007c500000b7
:10259800567c00002020000020200000207c000045
:1025a800545600007c20000020200000207c000001
:1025b800505700007c200000202000002020000050
:1025c8007c410000567c00000a0d0000003200002b
:1025d8003a2000007c430000567c000020200000c8
:1025e80020200000202000007c430000417c0000e7
:1025f8002020000020200000207c00005331000033
:102608007c20000020200000207c000053320000c5
:102618007c20000020200000202000007c530000c7
:10262800337c000020200000202000007c530000a4
:10263800347c00000a0d0000003300003a2000003e
:102648007c5700007c200000202000002020000093
:10265800207c0000435700007c2000002020000060
:10266800202000007c4100007c2000002020000089
:10267800207c0000434200007c0a00000d0000009e
:10268800343a0000207c0000434d00007c2000000c
:102698002020000020200000207c00004141000094
:1026a8007c20000020200000202000007c4f00003b
:1026b800435600007c20000020200000207c000001
:1026c8004d4300007c0a00000d0000000a0d0000c8
:1026d8002041000068200000526100007469000079
:1026e8006e6700003a200000000a00000d2000007c
:1026f80043610000706100006369000074790000a4
:102708003a200000000a00000d2000005265000079
:102718006d610000696e0000696e0000673a000094
:10272800200000000a0d000020430000686100003e
:10273800726700006520000043790000636c0000a8
:10274800657300003a200000000a00000d520000e6
:1027580065610000646900006e67000020460000a3
:10276800617500006c740000732e00000a0d0000f3
:1027780000460000617500006c740000204c0000e9
:102788006f67000020460000756c00006c2e00008a
:102798000a0d0000004e00006f2000006661000076
:1027a800756c000074200000636f00006465000011
:1027b800732e00000a0d0000004300006f64000043
:1027c800653a000020000000202d00003e20000097
:1027d800004600006c610000677300003a3a000090
:1027e8007c53000065740000732000004c4b00000f
:1027f8007c7c00004261000074740000204f0000df
:10280800567c00007c4200006174000074200000c7
:10281800485600007c0000007c4200006174000003
:1028280074200000555600007c7c000042610000c6
:1028380074740000204f0000547c00007c5300009a
:1028480079730000204f0000547c00000a0d00003e
:102858000020000020200000202000002020000090
:1028680020000000534500005420000020200000f4
:102878002020000020000000436c0000656100007b
:1028880072200000202000002000000053310000ca
:102898003a20000000530000323a000020000000f7
:1028a800533300003a20000000530000343a00007f
:1028b80020000000434800003a2000000076000095
:1028c8006f6c0000746100006765000020690000fb
:1028d8006e70000075740000287300002920000045
:1028e800636100006c2e00000a0d0000004e00001d
:1028f8006f740000686900006e67000020630000c4
:10290800616c000021200000566f00006c7400000c
:102918006167000065730000206f00007574000097
:10292800206f000066200000726100006e670000e2
:10293800652e00000a0d0000004000000020000085
:102948004346000021000000202d00003e43000007
:1029580072450000213c00002d0000000a0d000017
:1029680050520000473a00000a0d0000537400005e
:102978006f720000656400003a0000000a0d000054
:10298800436100006c6300003a2000002000000052
:102998004d6500006d20000042750000737900004d
:1029a800000a00000d4e0000564d00003a0a0000d3
:1029b8000d530000746f000072650000643a000057
:1029c800000a00000d530000657400007320000029
:1029d800616e000064200000566100007273000000
:1029e8002053000061760000656400002e0a000094
:1029f8000d000000502000004f6e00000a0d00007e
:102a080000500000204f0000666600000a0d00001c
:102a1800000a00000d48000055440000204f000047
:102a28006e0a00000d0000000a0d00004855000065
:102a3800442000004f660000660a00000d000000f8
:102a48000a0d000046610000756c000074730000f8
:102a5800204300006c65000061720000656400009e
:102a68002e0a00000d0000000a0d0000563100007b
:102a78002e3000005f320000532d00003453000058
:102a88000a0d000000530000657400007320000068
:102a9800556e00004c4b0000442e00000a0d00004b
:102aa8000057000061690000742e00002e2e0000ff
:102ab8000053000065740000732000004c4b0000b8
:102ac800442e00000a0d0000005000006f7700003f
:102ad80065720000204f000075740000204f000050
:102ae8006e2e00000a0d000000430000686100001f
:102af8007267000065200000476f00002e0a000082
:102b08000d000000524c0000200000000a0d0000db
:102b18004348000020000000556e00006b6e000066
:102b28006f7700006e200000436f00006d6d00009d
:102b3800616e0000642e00000a0d000000490000cc
:102b48006e690000742e0000200a00000d000000cd
:102b58002000000025000000560000005456000028
:102b680000500000570000004156000000430000dc
:102b78005600000043410000003a000053310000b5
:102b8800003a000053320000003a000053330000be
:102b9800003a0000533400000057000000430000d2
:102ba80057000000410000004342000000430000bd
:102bb8004d00000041410000004f00004356000056
:102bc800004d0000430000000a0d00000000000056
:102bd800ac950000ae950000b0950000b2950000dd
:102be800b5950000b8950000bb950000be950000a3
:102bf800c1950000c5950000c9950000cd9500005d
:102c0800d1950000d3950000d6950000d895000016
:102c1800db950000de950000e1950000e5950000d9
:102c2800e8950000486500006174000065720000c6
:102c3800207400006f6f0000207300006d610000b9
:102c48006c6c0000004e00006f20000068650000fa
:102c58006174000065720000206400006574000063
:102c680065630000746500006400000048650000aa
:102c78006174000065720000207400006f6f00002e
:102c8800206c00006172000067650000004c0000c5
:102c98006f7700002042000061740000742000007b
:102ca800560000004261000074740000204f0000cc
:102cb800430000004368000072670000204f0000d6
:102cc800430000004261000074740000204f0000bf
:102cd800560000004261000074740000204f00009c
:102ce80054000000422d0000466c0000616700009f
:102cf80028730000292000005365000074000000bc
:102d0800536500006c660000204f0000540000006e
:102d180053790000732000005368000075740000a8
:102d2800646f0000776e000000500000574d0000ef
:102d3800206500007863000065700000004f000007
:102d48007363000020650000786300006570000070
:102d580000410000646400007220000065780000f3
:102d68006365000070000000535400004b20000011
:102d78006578000063650000700000004d54000095
:102d880048200000657800006365000070000000be
:102d9800526500007337000020650000786300006a
:102da80065700000006200006c6100006e6b00003e
:102db80000420000726e00004f75000074000000b1
:102dc8005744000054200000727300007400000093
:102dd800756e00002d680000616e0000646c0000d4
:102de80065640000206500007863000065700000dd
:102df800746900006f6e0000207200007374000098
:102e0800004f0000706300006f6400006520000040
:102e180072730000740000004d4300004c52000023
:102e28002072000073740000004900006c6c000000
:102e380065670000616c0000204900006e730000a7
:102e480074000000537900007320000052730000e2
:102e580074000000496e0000766100006c200000dc
:102e680070720000740000005553000042200000fa
:102e780043680000204600006c7400000050000009
:102e880043680000672000003e2000003130000049
:102e9800302500000056000048200000436800006c
:102ea80056000000564c0000204300006856000001
:102eb800005600004820000043680000430000005e
:102ec800564c0000204300006843000000560000f4
:102ed80048200000425400006d70000000560000b9
:102ee8004c200000425400006d70000000560000a5
:102ef8004820000042430000005600004c2000001b
:102f0800424300000056000048200000534d0000d6
:102f1800005600004c200000534d000000500000f7
:102f28004f52000054310000204200005359000065
:102f38002065000072720000005000004f5200002f
:102f48005432000020420000535900002065000060
:102f58007272000000500000676d000020430000fe
:102f6800686b00002045000072720000004e0000ef
:102f7800564d000020430000686b0000204500000b
:102f88007272000000530000657400007320000096
:102f9800436800006b2000004572000072000000ca
:102fa8004e56000053200000436800006b200000cc
:102fb8004572000072000000504f0000525400009b
:102fc800312000004552000052000000504f000020
:102fd8005254000032200000455200005200000008
:102fe800536f000066740000204f0000430000008b
:102ff800564800002053000031000000564c0000e5
:103008002053000031000000564800002053000003
:1030180032000000564c000020530000320000002f
:10302800564800002053000033000000564c0000b2
:1030380020530000330000005648000020530000d1
:1030480034000000564c00002053000034000000fb
:103058004368000072670000206900006e200000cd
:103068004f5600000045000058540000204f000053
:10307800433a0000205000006c65000061730000b6
:1030880065200000526500007365000074000000b0
:1030980045580000542000004f5600003a20000018
:1030a800426100007474000020460000757300003f
:1030b800652000005472000069700000706500000f
:1030c8006400000042610000747400002055000094
:1030d80056000000434800002063000079630000a8
:1030e8002d6c0000696d0000697400000053000039
:1030f800797300002053000061660000652000001d
:103108004d6f000064650000005500006e6b000004
:103118006e6f0000776e0000000000001696000039
:10312800279600003a9600004b960000569600003d
:103138005e960000669600006e9600007696000087
:10314800849600008c96000099960000a3960000d3
:10315800ad960000b8960000c2960000cc9600001c
:10316800d7960000dd960000e4960000ec9600007b
:103178000597000010970000199700002697000097
:103188002e97000038970000439700004f970000e3
:10319800569700005d970000649700006b97000049
:1031a800739700007b9700008197000087970000c5
:1031b8008d97000093970000a1970000af9700003b
:1031c800bb970000c7970000d4970000e097000065
:1031d800ea970000f4970000fc97000002980000ae
:1031e800089800000e980000149800001a98000033
:1031f80020980000269800002c98000037980000be
:103208004c980000669800006e9800007b980000bb
:043218008998000091
:020000040000fa
:10321c008448e200030032000140fe008448e200d2
:10322c00fdff3a0000000600889fbe000004be00af
:10323c006011b800d2f707000000e00001003d006b
:10324c0009f0a2000800be004f04be0000000600fa
:10325c00889fbe000004be000001be00eff907000d
:10326c000801be00edf907004f04be000000060087
:10327c00889fbe008a9fbe008c1f78000005eb0063
:10328c0008002000892c24000a067800cba320001b
:10329c004250dd00008045001000be000801be0059
:1032ac00b7f707000000e00004003d004250dd00cd
:1032bc00008045001004be000a0678000a05e800ec
:1032cc00e40f5500f2ff3a004260dd00c1a320007c
:1032dc00008040001000be0002002000832c24005f
:1032ec00a9f707000000e000070034004260dd0091
:1032fc00c1a320000080400002002000832c240089
:10330c000288be000d0037004260dd00c1a3200022
:10331c00008040001000be006011b80098f7070054
:10332c000000e00005003d004260dd00c1a320006c
:10333c00008040006011b8000288be004266dd00cb
:10334c00c0a320000c0640001c00be00584d80009d
:10335c00694d800002002000832c2400d0f8070067
:10336c000001be000800be00acf90700304e88001a
:10337c00414e88004f0678004f05be004f04be003a
:10338c0000000600ea874700889fbe008a9fbe00a7
:10339c008c9fbe008e1f7800205180003151800020
:1033ac00a1ff0700d2cc2c00c3d4230074f7070074
:1033bc000000e00043003d006ecabf000038a300cf
:1033cc0040003200a04f8000b14f8000a051880017
:1033dc00b151880080488000f0b79f00924880006f
:1033ec0082bf9f0060488000714880007fb19700c9
:1033fc008fb99700bcf70700d0b79f00e1b79f00cb
:10340c000007eb000a0020000bf023004271dd00e6
:10341c002202b000a39e200002814100120078001d
:10342c00920090007fb197008fb99700aef707001c
:10343c000004be006011b80051f707000000e00066
:10344c0001003d006044b8005fb19700efb19700f8
:10345c000800be0092f807000a01be00a2f70700a0
:10346c000004be007aff07000001be00a7f70700aa
:10347c000006be000a01be000800be0067f9070086
:10348c000001be000c00be00a0f707000a01be0040
:10349c009ef7070002002000832c24005ff9070030
:1034ac000001be00c270dd00c0a3200081004000fe
:1034bc008288be000e07e800e40f5700d3ff3a00e5
:1034cc006c6aa8004f0778004f06be004f05be007f
:1034dc004f04be00af00b1000000060011a7200091
:1034ec00f0428000614078000004e00002003a00e5
:1034fc005e28ef008468ef0000000600b003200097
:10350c005e08e300010036005e28ef0000000600b4
:10351c006f006000e90f500002003c000043b00057
:10352c00010037007043b000000006000000eb0003
:10353c00f2ff07008448e20008003a0010c0b30014
:10354c0084e8b7000041eb0011a72000f042800096
:10355c00827078005e28ef008540a800000006000d
:10356c000000eb00e5ff0700f042800023872000fd
:10357c003243800011a72000e3417900837078006a
:10358c00a1032000810f500002003e000000e80063
:10359c00f042880000000600889fbe000004be00b8
:1035ac000200be0002402200439724001bf90700d2
:1035bc000801be003af807000200200003d82300df
:1035cc0016f907000200200003f8230046f7070055
:1035dc0010f707004f04be0000000600889fbe00d5
:1035ec006e4aa9006000b800e04f8800f14f8800d7
:1035fc0040518800515188006051880071518800f9
:10360c00a04f8800b14f8800e0518800f15188002c
:10361c0000528800115288002052880031528800d4
:10362c004052880051528800205188003151880046
:10363c0043c7bf0088cfb300084060000004a0005f
:10364c0043e7b7004207a8004227a900c020ef00bb
:10365c00c220ef00c420ef00c620ef00f0ff2100d5
:10366c0060168800d022ef00ce22ef00e0f82f0089
:10367c00f0168800e222ef00e022ef00a0ff2f00fe
:10368c00c0168800dc22ef00da22ef00c021ef0028
:10369c00c221ef0020062000200e8800c621ef007a
:1036ac0009072000490e8800ca21ef00cc21ef0049
:1036bc00d021ef0000a02200a00e8800d621ef0040
:1036cc00d821ef00da21ef000e22ef000fe2a90063
:1036dc000c22ef000d42a800a2702d00b31624009e
:1036ec000000200061612400abff0700a0108800df
:1036fc001822ef0019e2a9001622ef00f010880042
:10370c00a30e2e00130888000021ef000421ef0007
:10371c0001c3b300014078000461b700a283230009
:10372c00620888000621ef001021ef000411200030
:10373c0014427800f7ccb300074262000454a00096
:10374c000443780005112000864a7800d3088800cd
:10375c001421ef001e21ef001e61b700e208880063
:10376c001821ef002021ef000212200012417800f6
:10377c00074061000054a00020e1b700c02a2100de
:10378c0060418800008c230070418800402e20008e
:10379c00001588004042200010158800f0f0200031
:1037ac0020158800a622ef0000e02f0040158800ad
:1037bc00f01f200050158800094078009960b70070
:1037cc0097c0bf00084060006040b30097e0b700ae
:1037dc009cc0bf00084060005040b3009ce0b700a4
:1037ec0094c0bf00084060005040b30094e0b700a4
:1037fc005209200012417800f0c8b300004161006a
:10380c000264a00002427800530920008449780029
:10381c00f209200012417800084161000224a00046
:10382c0002437800f5092000864a780092092000ae
:10383c0012417800084161003240b3000242780026
:10384c009309200084497800020a20001241780074
:10385c00004161008140710001437800050a20009d
:10386c00864a7800810920009140780080c0600071
:10387c000154a0008141780082092000034978009e
:10388c00010a20009140780008c460000814a000d0
:10389c0088427800040a2000054a7800710920004b
:1038ac009140780080c060000154a0000141780074
:1038bc0076092000024b7800e10920009140780045
:1038cc0080c060000144a00001427800e3092000a0
:1038dc0084497800f10920009140780000c0600014
:1038ec000044a0009fe0b7004f04be00000006009b
:1038fc00889fbe00d0bf2000000188006847800070
:10390c007947800040478000514780000801be0085
:10391c007ef607000001be000800be0060f707003d
:10392c002040880031408800d0a3200080418800ce
:10393c0070fd230090418800e00e2600a041880015
:10394c0080812400b04188006e0aa90081e0a900a2
:10395c008420ef008620ef008820ef00ff3ffc0062
:10396c008c20ef008e20ef009020ef008c60a800e0
:10397c008d20a8008d40a8008f00a8008f20a800e3
:10398c008c00a8008e00a8008ee0a9008cc0a800b6
:10399c008ce0a9008ea0a9008ec0a8008d60a800a4
:1039ac008200a9008240a9005220ef00a1e2a800e9
:1039bc00c1e1a80011e1a80005e1a80021e1a800df
:1039cc000de2a8000f42a80017e2a8001942a800b7
:1039dc006eaaa8004f04be0000000600fffe070000
:1039ec00ff3ffc008420ef008620ef008820ef00d2
:1039fc008c20ef008e20ef009020ef008d20a8008f
:103a0c008d40a8008f00a8008f20a8008ea0a800d1
:103a1c005220ef00c1e1a90011e1a90005e1a900c4
:103a2c0013e1a9001fe1a90021e1a9000de2a80002
:103a3c000f42a80017e2a8001942a80000000600d7
:103a4c0050448000e30f5000010036008a28ef003c
:103a5c0000000600b1ff2f00c1168800d2a2ef00b3
:103a6c00dc42a90061416000c12d2000914078002a
:103a7c000104a10082c0700081417800c22d200099
:103a8c00034978000000fb008000d100e1c0600019
:103a9c0001c14000612d2000914078000114a1006b
:103aac0082c0700081417800622d200003497800ab
:103abc004201de00614161004211dd00612d2000f8
:103acc00914078000124a10082c0700081417800ef
:103adc00622d200003497800c300de00e1c06000c5
:103aec00c308dd00d6c2bf000034a1000140700045
:103afc00d6e2b700a0ff2f00c016880010ff2f00e1
:103b0c009016880000000600b1ff2f00c116880037
:103b1c00d2a2ef00dc42a8000000fb0061016000b3
:103b2c000204a200c12d2000914078000104a100e4
:103b3c008140710081417800c22d2000034978003a
:103b4c00e20060008100e900cf08de0001c1400006
:103b5c00612d2000914078000114a10082c07000fa
:103b6c0081417800622d20000349780064016000d7
:103b7c000201e9004f11de004211dd00612d200031
:103b8c00914078000124a10082c07000814178002e
:103b9c00622d200003497800e80060008100e900f4
:103bac00cf08de00c308dd00d6c2bf000034a10080
:103bbc0001407000d6e2b700a0ff2f00c0168800ad
:103bcc0010ff2f009016880000000600889fbe0092
:103bdc000004be0002002000432b24006af50700fd
:103bec000000e000030034006ccabf000018a30002
:103bfc000900320002002000832c24000800be00c3
:103c0c0061f507000000e000060034006ccabf003c
:103c1c000018a30003003200f0c0b300baff070085
:103c2c002f00370002002000632924000800be008a
:103c3c0055f507000000e0000300340070c0b3002d
:103c4c00b1ff070026003700020020008324240067
:103c5c000800be004cf507000000e0000300340033
:103c6c0030c0b300a8ff07001d0037000200200081
:103c7c00831c24000800be0043f507000000e00090
:103c8c000300350010c0b3009fff0700140037007d
:103c9c0002002000831c24000800be0038f5070039
:103cac000000e0000c003d006fcabf000038a3000c
:103cbc0009003a0052c8bf000028a30003003200dc
:103ccc0010c0b30090ff0700050037000040eb0068
:103cdc008dff0700020037000040eb008aff070051
:103cec004f04be00000006000004e0005400340045
:103cfc00e34f500003003a0060c0b30082ff07009e
:103d0c0051003700e44f500008003a006c4ae200c2
:103d1c0003003d00f3cabf004eff07004a00370006
:103d2c00f3cabf0078ff0700470037003185200039
:103d3c0091407800e9cf50003a003400e14f500038
:103d4c0038003a005368ef006fcabf000028a30088
:103d5c000900320052c8bf000048a3000300320023
:103d6c0020c0b30068ff0700370037000040eb00ad
:103d7c0065ff0700340037006ccabf000018a300b1
:103d8c002400320052c8bf000008a3000d0032000e
:103d9c00f2cabf00e74f5000030032006ccabf00ec
:103dac000058a30007003200804f8000914f800024
:103dbc0002002000831c240054f5070083ff070039
:103dcc002100370052c8bf000018a3000d003200bc
:103ddc00f2cabf00e74f50000a0032006ccabf00a5
:103dec000058a30007003a00804f8000914f8000dc
:103dfc0002002000831c240044f5070073ff070019
:103e0c0011003700804f8000914f80006fff07003a
:103e1c000d003700804f8000914f80006bff070032
:103e2c000900370053c8bf00e94f500001003c00a7
:103e3c005368ec0054c8bf0006ff070002003700af
:103e4c000040eb0003ff07000000060011002000fb
:103e5c00f21f2000820f50001a003c00ff3ffc00b4
:103e6c00811f78000000400001c02f0001004000bd
:103e7c00f1072000213b8800103b880041042400fe
:103e8c00013b880051052000313b8800a10a20002d
:103e9c00313b880061e7a800000000000000000032
:103eac00cf0078008000eb006147e20005003d0088
:103ebc0001007800900288006147e200fdff3500a8
:103ecc008000eb000100780000000600889fbe0017
:103edc000004be0008007800dcff07001000200082
:103eec00f11f2000810f54001f003c00ff3ffc001d
:103efc00801f7800811f7800821f7800080444001e
:103f0c0000c02f0000044400f0c7b30032e0b7003b
:103f1c0029008800080088000208bb00410024002a
:103f2c00013b880051052000313b8800a10a20008c
:103f3c00313b880061e7a800000000000000000091
:103f4c004f017800cf0078004f0078000000eb00a4
:103f5c006147e20004003d00900288006147e200e6
:103f6c00fdff35000000eb004f04be000000060012
:103f7c00b8e8b700d1458800ff3ffc00841f7800eb
:103f8c00801f7800818b2000914078002003200056
:103f9c0001487800d1458000010088001082ba00e9
:103fac0000000000000000004000800090458800e8
:103fbc00818b20009140780020032000014878007c
:103fcc00d1458000010088001002ba0000000000fa
:103fdc000000000040008000b04588004f007800d1
:103fec004f0278005220ef00b04580000000060020
:103ffc00800078000000eb00f21f2000828f500040
:10400c0005003c0000e027008080400081804000db
:10401c00f0c7b300d6ff070000000600889fbe0063
:10402c008a9fbe00bc28ef000004eb00fa0f2000b2
:10403c00ebff2300880078000040eb00ccff07006a
:10404c0080047800880078000040eb00c8ff07006f
:10405c00800078008a846400e04580000080440081
:10406c00c808de00b208b40081004000e1458800b9
:10407c000884e8008b0f5400eeff3a00890f2000f3
:10408c00fb0f2000130037008800780009407800ef
:10409c00b7ff070000057800880078000940780019
:1040ac00b3ff07000b056500e145800001054500e5
:1040bc004800de0000054500ea4588000884e80059
:1040cc00e20f4400f0ff3a008904e8008b8f5400a3
:1040dc00020032000004eb00ebff37007a1ab0004c
:1040ec00ea4588004f05be004f04be0000000600e4
:1040fc00caff0700e0458000804a880000000600e7
:10410c00889fbe008a1f7800be28ef000004eb00d9
:10411c00fa0f200008007800b5ff07008004780033
:10412c0008007800b2ff07008a846400f145800023
:10413c00818444004800de0080844400f9458800f6
:10414c000804e800e01f2000800f5400f1ff3a0043
:10415c004f0578004f04be0000000600e8ff070082
:10416c00f1458000f01f200058ff070000000600fa
:10417c00881f78004048e2000d0034000004eb007a
:10418c003fc8bf0088004400429a2000e2807800bb
:10419c000000fb00000044004cff07000804e8008e
:1041ac0040c8bf000000fb00880f5000f4ff3c002b
:1041bc003fc8bf000000fb004165270043ff07001c
:1041cc00814280003fc8bf00028420001241780069
:1041dc000201fb000000fb00000041003bff070058
:1041ec00deff07006c8aa9004f047800000006006f
:1041fc000040eb00bcfe0700e0518000f151800054
:10420c00904d8800a14d8800005280001152800012
:10421c00b04d8800c14d8800205280003152800082
:10422c00d04d8800e14d88004052800051528000f2
:10423c00f04d8800014e8800cdff0700e202a90076
:10424c0000000600881f78003f48e2000b00340095
:10425c000004eb0008004400218e2000e1007800ef
:10426c000800780019ff07000804e8003fc8bf00e9
:10427c000000fb00880f5000f6ff3c007156240034
:10428c000000eb0011ff0700b4ff07004f0478009b
:10429c0000000600889fbe008a1f7800c028ef002f
:1042ac003f48e200120034000004eb00fa0f20003b
:1042bc00080078004eff07008004780008007800a2
:1042cc004bff07008a84640001468000818444000f
:1042dc004800de0080844400094688000804e80099
:1042ec003fc8bf000000fb00880f5000f0ff3c00ef
:1042fc004f0578004f04be0000000600c228ef00f6
:10430c003f48e200110034008000eb00010078000f
:10431c00f40f200000014000238e2000630179007f
:10432c0084016100818041004811de0082804000e0
:10433c000000e800f2832000124178000201fb002b
:10434c00800f5100f3ff3c0011468800000006006e
:10435c00eaff070010468000204688000000060097
:10436c00e828ef00001224005047880000002000cd
:10437c0001f82300604788007147880062662600b8
:10438c002248880062f6230032488800335c2f00f4
:10439c00434888008308240053488800626626003e
:1043ac00624888006208240072488800d3cc2c0034
:1043bc0083488800c304240093488800a2992900ec
:1043cc00a248880092012400b24888001829ef0006
:1043dc0003002400d3488800e0488800f148880096
:1043ec002029ef0000f023001049880062662600a7
:1043fc002249880062022400324988002829ef00f3
:10440c0003102400534988002c29ef00801024004d
:10441c0070498800007d200090498800a000200091
:10442c00a0498800f1002000b149880082022000d8
:10443c00c249880032022000d24988009201200033
:10444c00e24988003e29ef00004a880072032000f0
:10445c00124a880022032000224a8800314a880030
:10446c00c1032000414a880001052000514a880000
:10447c00604a880081072000714a88005269ef0069
:10448c005369ef0063c4b300929e20000349780087
:10449c0053c0b300829e2000034978008000eb00db
:1044ac0021538800315388004153880051538800b0
:1044bc0013c0b300c29620000349780083c0b30038
:1044cc00d29620000349780093c0b300e2962000f6
:1044dc00034978006fe9b700b0c0b30070e9b700ca
:1044ec00c0c0b30071e9b70040c1b30072e9b700b6
:1044fc007369ef009c69ef0040c0b3009de9b70001
:10450c009e69ef009f69ef0091ff07000000060015
:10451c004348e20008003a005008ab0006003200a5
:10452c0030c0b30044e8b70010c0b3003ce8b7009b
:10453c0043e8b7001d0037003cc8bf00e34f5000f4
:10454c0005003a0043c8bf00e14f500002003c0098
:10455c004368ec001500370043c8bf00e24f500021
:10456c0012003a006ccabf000038a3000f003200e2
:10457c003fc8bf000000fb000000e8009cfe0700e5
:10458c0041652700810f50000100320038fb070005
:10459c0030c0b30043e8b700e8c9bf00e54f500096
:1045ac0002003a0020c0b30044e8b7000000060047
:1045bc004027a9004087a90041e7a90041c7a900ed
:1045cc0040e7a90040c7a900000006006f4aa800f8
:1045dc00254f8000e98f520003003600e429ef00dc
:1045ec008002eb00120037000500e00010003200e2
:1045fc00050278008000eb000043eb0017c0b3000d
:10460c007681400002014100439a20006301790049
:10461c00820f500001003a00074378008100e80047
:10462c00848f5000f6ff3a000604e00009003a00bf
:10463c00c1072000810f500006003e00f6804200aa
:10464c0081804000429a200000b178008502e80089
:10465c00254f88000000060070cabf000008a300a8
:10466c0002003200d0002000d8ff070070cabf0043
:10467c000018a30002003200f0002000d3ff070056
:10468c0070cabf000028a30002003200e000200026
:10469c00ceff070070cabf000038a3000200320032
:1046ac0000012000c9ff070070cabf000048a3002a
:1046bc0002003200c0002000c4ff070070cabf0017
:1046cc000058a3000200320010012000bfff0700b9
:1046dc00f80ae2000200320010c0b30044e8b70050
:1046ec00f82aef000000060040c7bf000018a30026
:1046fc000200320030012000b4ff070040c7bf00a9
:10470c000048a3000200320040012000afff070068
:10471c004147e20002003d0050012000abff0700c2
:10472c0041c7bf000068a3000200320060012000f6
:10473c00a6ff07004047e20002003d007001200088
:10474c00a2ff070040c7bf000068a30002003200b0
:10475c00900120009dff070095ff07000000060058
:10476c0050a52a00f60ae30001003a00deff07001c
:10477c0050a52a00b0578800f82aef008cff0700dc
:10478c00000006005efe0700f01f200018fe070068
:10479c00800078000000eb00f2458000810f510092
:1047ac0004003200a002200088ff07006ecaa80097
:1047bc001000200000000600889fbe00f1ff0700db
:1047cc00800078000000eb000100e00018003a00c7
:1047dc004048e2000d00340000047800499a2000a3
:1047ec003fc8bf000000fb000000440000fe0700b3
:1047fc008800440080b478000804e80040c8bf007a
:10480c000000fb00880f5000f5ff3c0040c8bf00c3
:10481c00f1832000914078008100fb000000fb0038
:10482c0000804000f2fd070080428800100020004c
:10483c004f04be00000006003fc8bf000000fb0094
:10484c00ebfd070041652700810f500001003a0085
:10485c00d9ff070000000600f0fd07000000eb0088
:10486c00e1458000824a8000810f51000400320033
:10487c009002200055ff07006ecaa800100020000f
:10488c00000006009dfe070082fe07000000eb0002
:10489c000146800012468000810f51000400320056
:1048ac00c002200049ff07006ecaa80010002000bb
:1048bc0000000600889fbe00b2ff07008000780051
:1048cc000000eb000100e00013003a003f48e2005a
:1048dc000b00340000047800298e200008007800ba
:1048ec00c3fd07008800440080b478000804e80089
:1048fc003fc8bf000000fb00880f5000f7ff3c00d2
:10490c0093fe0700dfff070000f0a7000000ea009d
:10491c000000e9004f00de004f04be00000006005e
:10492c0076fe07000000eb00214680001246800056
:10493c00810f510003003200b002200023ff07005a
:10494c0010002000000006008448e2000200320043
:10495c00700220001dff070000000600e6874700dc
:10496c00889fbe008a9fbe008c9fbe008e1f780061
:10497c000005be006628ef008268ef0000c2b3009d
:10498c0072e8b7006011b8000a00be00fcf1070025
:10499c000000e00003003d000bf0a200d0c2b30009
:1049ac0072e8b700f2ff2300c36124000a00be00c6
:1049bc00f5f107000000e00005003400f0c3b3007f
:1049cc0072e8b700faff2300cb6124000a0037001d
:1049dc00f226210033a823000a00be00e8f10700ec
:1049ec000000e00004003d00c0c3b30072e8b70053
:1049fc00fa2621003ba8230002002000a347240034
:104a0c000a00be0026f30700b0428800c1428800ad
:104a1c003e4380000e07e800e80f570028003e00d8
:104a2c00b8428000c94280008ebf9f000c0020005d
:104a3c000d122400010037008ebf9f00e50f5700b8
:104a4c0004003a00e0c2b30077e8b7006000200031
:104a5c0080bf9f000800be00cdf107000041780028
:104a6c00e2ef9f00824078000143b00020872000d5
:104a7c000fb99700017079000207e8006fe9970001
:104a8c000200fb00cf80de00fdf107000001be003c
:104a9c000800be0014f207000c01be00dff3070093
:104aac000004be00e80f5700e3ff3600b042880058
:104abc00c1428800efe89700208820000148780068
:104acc006628ef000000eb009fff070010c0b3004a
:104adc0086e8b70009c3b300250037000804e800d6
:104aec0050467800894f5600020032003843880047
:104afc0003003700e20f5400f8ff360038438800fb
:104b0c008848e2000b00320000c2b300804f560010
:104b1c0005003200d0c2b300804f560003003a00ab
:104b2c000000eb008efa07006628ec008868ef00a6
:104b3c00030037000000eb0089fa07006628ec0040
:104b4c00218720003043800061407800894f50005d
:104b5c0007003200d1c2b300814f50000400320074
:104b6c0001c2b300814f5000010032008068ef0099
:104b7c0038438000e80f540011003e0020872000cd
:104b8c0060467c00894f5600ddff3a008048e20009
:104b9c00dbff3a00e20f5400d9ff3e000200200078
:104bac00a34724000a00be0075f107000000e000d6
:104bbc00d3ff3d002087200000004400c7ff3700d2
:104bcc008068ef008668ef004f0778004f06be0044
:104bdc004f05be004f04be006f00b1000000060080
:104bec00881f7800000478000000eb0043fa0700ef
:104bfc000000eb0054ff070010c0b30086e8b700bc
:104c0c006228ef00184078000004e0001400320025
:104c1c00f142800012a7200000f17800a0032000d0
:104c2c00808f50000e003e008000eb0000027800e8
:104c3c000400370013a7200082717800840f500005
:104c4c0007003e005e08ec00f04288008100e8009e
:104c5c0011438800584178000204e000f5ff3a0047
:104c6c008668ef004f047800000006008000eb001f
:104c7c0040132900daff070000000600889fbe00e1
:104c8c00ac28ef00a428ef008000eb006604b9000c
:104c9c00c95e290081004400a108b000208e2000cc
:104cac0060c078000080fb0040458800eb0f50008e
:104cbc0003003e0013c0b300828820000349780033
:104ccc00ec0f500004003a0013c0b300028820001f
:104cdc0003497800260037000000e000480032004d
:104cec00b10f2000810f500021003600d10f2000a1
:104cfc00810f50001000320004003e00c10f200054
:104d0c00810f500017003a0007003700e10f200018
:104d1c00810f50000c003200f10f2000810f500069
:104d2c0010003a000c0037008000eb00409520008a
:104d3c00abff07000b0037008000eb00a0952000b4
:104d4c00a7ff0700070037008000eb00009620004b
:104d5c00a3ff0700030037008000eb0060962000e3
:104d6c009fff070010002000604588001f003700df
:104d7c00f40f500006003a008000eb00f0142900fc
:104d8c0097ff0700100020006045880017003700cf
:104d9c00f40f500015003e004200dd00c19e2000c3
:104dac00010140001200780092009000a2702d00ca
:104dbc0033c2230055f107000001eb00e7fe0700aa
:104dcc005ea8ed00404580000000400069007800be
:104ddc008000eb0082ff07008000eb00201529000b
:104dec007fff0700100020006045880021458000ef
:104dfc008100e80021458800e58f5000a5ff3600b2
:104e0c00ac08e200020032000000eb00c7f907001a
:104e1c004f04be00000006005249e200250032009b
:104e2c008448e20023003a0044c8bf00e54f50001c
:104e3c0020003a00b0c8bf001c003a008000eb0014
:104e4c00004580008dff070000458000a10b20006d
:104e5c0080804000228e2000e2c078008140e90072
:104e6c00028b2000014978000104e00001003d00a4
:104e7c00b068ef00e30f50000a003e006601b90075
:104e8c00a108200082804000228e2000e2c0780021
:104e9c000104e000030032000000e8000045880037
:104eac0004003700a028ef00020037000040e900a2
:104ebc00b0e8b700000006008000eb0048ff0700d8
:104ecc000000eb0099f907000000eb00d0f8070098
:104edc0000000600889fbe008a9fbe008c1f7800d1
:104eec000004780001057800020678008000eb00d1
:104efc0040152900f0ff07008c0f55000e003c00f8
:104f0c008a05e900c25ddd008b0544000004eb005e
:104f1c0049152900080178005b00be008ffe0700d0
:104f2c0088007800090078002dff07000a05e800ca
:104f3c008a0f5600f7ff3d008000eb00f0142900ab
:104f4c00ddff07004f0678004f05be004f04be0082
:104f5c0000000600889fbe008a9fbe008c1f780050
:104f6c000005780001047800820578008000eb00d1
:104f7c0040152900d0ff07008b0f540010003c0097
:104f8c008804e90089844400890445000005eb008d
:104f9c004c15290059007800cf80de00b8f00700ce
:104fac000a0178006dfe07008a0078000c0078007a
:104fbc000bff07000804e800888f5500f5ff3d0043
:104fcc008000eb00f0142900bbff07004f067800af
:104fdc004f05be004f04be00000006008000eb0031
:104fec00f0142900b4ff07008000eb0070152900b5
:104ffc00b1ff07008000eb00b0162900aeff0700e0
:10500c008001eb006200200011002000408e200087
:10501c00b0ff07008000eb00f0142900a6ff07008a
:10502c008000eb00501a2900a3ff07008001eb0061
:10503c00c200200071002000408e2000a5ff070058
:10504c008000eb00f01429009bff07008000eb00b0
:10505c00f01d290098ff07008001eb0012012000d1
:10506c00d1002000408e20009aff07008000eb004a
:10507c00f014290090ff07008000eb00f0202900bd
:10508c008dff07008001eb00620020001100200062
:10509c0000932000afff07008000eb00f014290004
:1050ac0085ff07008000eb00b024290082ff070079
:1050bc008001eb00b2002000710020000093200062
:1050cc00a4ff07008000eb00f01429007aff070012
:1050dc008000eb00b027290077ff07008001eb0070
:1050ec00f2002000c10020000093200099ff07006f
:1050fc008000eb00102a29006fff07008000eb00f6
:10510c00102b29006cff07008000eb00d02b29002e
:10511c0069ff07008001eb00520020001100200005
:10512c00c09e20006bff07008000eb00f0142900ec
:10513c0061ff07008000eb00b02e29005eff070026
:10514c008001eb00b200200061002000c09e200016
:10515c0060ff07008000eb00f014290056ff0700e9
:10516c008000eb001032290053ff07008001eb0098
:10517c00f2002000c1002000c09e200055ff070057
:10518c008000eb00f01429004bff07008000eb00bf
:10519c004034290048ff07008001eb003201200059
:1051ac0001012000c09e20004aff07008000eb0098
:1051bc00a036290040ff07002049800031498000bb
:1051cc000001eb00e5fd07008000eb0090372900a3
:1051dc0039ff0700504d8000614d80000001eb004d
:1051ec00defd07008000eb007038290032ff07005d
:1051fc00304e8000414e80000001eb00d7fd0700cf
:10520c008000eb00603929002bff0700704e8000f6
:10521c008000eb001df007000001eb00cffd070044
:10522c008000eb00f014290023ff070000000600ab
:10523c00889fbe008a9fbe00000478000000eb002f
:10524c00aef807000000eb00bffd07004c40de008d
:10525c006ae8b70000f02000000064004880de001f
:10526c006be8b70008007800000fb2004480de0045
:10527c006ce8b7006f44640088407800d08620004a
:10528c0001487800f042800002c3b30011a720004f
:10529c0082707800a1032000810f500002003e00b4
:1052ac000000e800f0428800f042800082c7b300a2
:1052bc0011a7200082707800a1032000810f5000fc
:1052cc0002003e000000e800f0428800f842800036
:1052dc00a9862000ea862000ab0320003900fb00e1
:1052ec008bf8070011a7200080707c008b0f5400f6
:1052fc0001003e000804e8008a8f5400f7ff3a00d2
:10530c00f84288008668ef004f05be004f04be00cf
:10531c0000000600889fbe008a9fbe008000eb0044
:10532c00903a2900e4fe0700204f8000ea0f50005d
:10533c00030036008000eb00d03b2900defe0700a6
:10534c00e409e20004003a008000eb00f03c290084
:10535c00d9fe0700280037009c28ef00b907200071
:10536c002a8929000000eb00a9f707008000eb0058
:10537c00103e29001afe0700e04480007600400031
:10538c0000004000489a2000680078008000eb0084
:10539c00a7ff07008000eb00803e290010fe0700ed
:1053ac00e044800076004000000040006800780077
:1053bc00890f500006003e000000e900000040008c
:1053cc006a0078008000eb0005fe07000300370040
:1053dc008000eb009088290001fe07008000eb00a4
:1053ec00f0142900b4fe07009c08ec00e04488008f
:1053fc00e409e300dbff3e000000eb0084f707004c
:10540c008000eb00f0142900abfe07008000eb00dd
:10541c00d03e2900a8fe07008000eb0000412900c7
:10542c00a5fe07008000eb00d0422900a2fe070079
:10543c008004eb0018c0b3000a4429006b43290018
:10544c000880fb005008b600040032008000eb001e
:10545c000b007800e2fd0700030037008000eb0032
:10546c000a007800defd07008904e800e68f54008e
:10547c000200320008444400f1ff37008000eb00ca
:10548c00f01429008cfe07004f05be004f04be002f
:10549c0000000600d621ef004a28ef00ca28ef00d2
:1054ac00819e200091407800e5cf5000030032002f
:1054bc0043c0b300829e20000349780044e8b70043
:1054cc00d1e2a90000000600da21ef00d821ef009c
:1054dc00d621ef00e2c2a900d1e2a9004a28ef00d0
:1054ec00f46aef0000000600f7ff07006ecaa80080
:1054fc00b000200035fc070000000600889fbe00ad
:10550c0028518000395180006011b8000800be009d
:10551c001bef07006011b8000000e00002003d0026
:10552c000801be0003f0a2004049800051498000f0
:10553c0013ef07000000e00009003d00604680000a
:10554c00e50f500004003400500020001ffc070041
:10555c00e5ff0700cc28ef00cc28ec000500370055
:10556c00604680000000e000020034000000e9000a
:10557c006046880028518000395180000049800025
:10558c0011498000224980003349800023f1070033
:10559c000001be000800be00fbee07000000e000aa
:1055ac00030034006000200008fc0700ceff070059
:1055bc004f04be0000000600f2874700889fbe0023
:1055cc008a9fbe008e1f7800604080007140800072
:1055dc000200200003e0230010f107006040880067
:1055ec007140880060408000714080000200200003
:1055fc00037024003cef0700604088007140880075
:10560c006040800071408000020020000380230075
:10561c0002f1070060408800714088006040800003
:10562c00714080008241800093418000fbf00700b4
:10563c0060408800714088006040800071408000ac
:10564c0068528000795280000200200083142400ec
:10565c00f2f007000801be002cef07002051880073
:10566c00315188006055b8006a4088007b40880042
:10567c0080408000914080000200200003e0230065
:10568c00e6f0070080408800914088008040800050
:10569c0091408000020020000370240012ef0700ec
:1056ac0080408800914088008040800091408000bc
:1056bc000200200003802300d8f0070080408800ff
:1056cc0091408800804080009140800082418000a1
:1056dc0093418000d1f00700804088009140880001
:1056ec008040800091408000885280009952800058
:1056fc000200200083142400c8f007000801be003b
:10570c0002ef070040508800515088008a40880002
:10571c009b4088005008ab000100320077ff070067
:10572c007a8757000004eb0049a520002b8e20003f
:10573c004245dd000a8544001a00be00a2418000eb
:10574c00b3418000d6ef0700008dbe006ccabf00cd
:10575c000068a300080032004240dd0000804400d5
:10576c001000be002240800033408000ccef0700c8
:10577c00008fbe000c0037004245dd000a8044005b
:10578c001000be002240800033408000c4ef0700b0
:10579c006e0545000a8545001a0178009a019000b3
:1057ac00daee0700008fbe000804e800640747002b
:1057bc00e40f5400deff3a006ccabf000068a3007f
:1057cc00110032003fb09700cfb0970060508800b6
:1057dc00715088005fb09700efb097008050880040
:1057ec00915088007fb097008fb89700a050880028
:1057fc00b15088001fb89700afb89700c050880010
:10580c00d1508800250037003fb49700cfb49700e3
:10581c00d2cc2c00c3d423000800be00bbee070082
:10582c0060508800715088005fb59700efb5970005
:10583c000801be000a00be00abee0700d2cc2c0063
:10584c00c3d42300b1ee070080508800915088002b
:10585c007fb497008fbc97000a01be000800be0001
:10586c00a1ee0700d2cc2c00c3d42300a7ee070076
:10587c00a0508800b15088000801be001fb89700e6
:10588c00afb8970098ee0700d2cc2c00c3d42300fd
:10589c009eee0700c0508800d15088006011b800ff
:1058ac00a2528800b3528800c2528800d35288009a
:1058bc00e2528800f3528800025388001353880088
:1058cc00605080007150800090ee07008250800084
:1058dc00935080008dee0700a2508000b3508000e2
:1058ec008aee07000001be00c0508000d15080003d
:1058fc0086ee0700a04f8800b14f88004040800022
:10590c0051408000a2418000b341800064ef070049
:10591c0040408800514088006ccabf000068a3005a
:10592c00080032004040800051408000224080003e
:10593c00334080005aef0700205088003150880017
:10594c000a00370040408000514080002240800017
:10595c003340800052ef070002488000134880005b
:10596c006aee070020508800315088006044b8006f
:10597c004840880059408800a0408000b140800019
:10598c00a2418000b341800045ef0700a040880091
:10599c00b1408800a0408000b1408000f2282c006b
:1059ac0053ef230050ee0700a0408800b140880060
:1059bc00a0408000b140800042722900f3c7230050
:1059cc0037ef07004051880051518800a8408800eb
:1059dc00b9408800c0408000d1408000a2418000c6
:1059ec00b34180002eef0700c0408800d1408800f2
:1059fc00c0408000d1408000f2282c0053ef2300df
:105a0c0039ee0700c0408800d1408800c0408000bb
:105a1c00d140800042722900f3c7230020ef070019
:105a2c006051880071518800c8408800d9408800b6
:105a3c006e8aa8004f0778004f05be004f04be00c9
:105a4c002f01b1000000060000148000e30f40009d
:105a5c0003003600d0012000dcfa0700a2fe07008c
:105a6c0000148000e10f500003003e00e001200014
:105a7c00d6fa07009cfe070080148000e30f40005c
:105a8c0003003600f0012000d0fa070096fe070054
:105a9c0080148000e10f500003003e000002200043
:105aac00cafa070090fe070040148000e30f400084
:105abc000300360000032000c4fa07008afe07002a
:105acc0040148000e10f500003003e001003200042
:105adc00befa070084fe070050148000e30f40005c
:105aec000300360020032000b8fa07007efe0700f2
:105afc0050148000e10f500003003e0030032000e2
:105b0c00b2fa070078fe070060148000e30f400033
:105b1c000300360040032000acfa070072fe0700b9
:105b2c0060148000e10f500003003e005003200081
:105b3c00a6fa07006cfe070070148000e30f40000b
:105b4c000300360060032000a0fa070066fe070081
:105b5c0070148000e10f500003003e007003200021
:105b6c009afa070060fe070010148000e30f400053
:105b7c00030036003002200094fa07005afe07009a
:105b8c0010148000e10f500003003e004002200082
:105b9c008efa070054fe070020148000e30f40002b
:105bac00050036001002200088fa07004efe0700a0
:105bbc0050c0b300e8e9b70020148000e10f50009a
:105bcc0005003e002002200080fa070046fe070078
