:020000040000fa
:080000000001040000000000f3
:020000040000fa
:04000c00c801000027
:020000040000fa
:04001000d801000013
:020000040000fa
:04001400d001000017
:020000040000fa
:04001800e001000003
:020000040000fa
:04002400f0010000e7
:020000040000fa
:040028005605000079
:020000040000fa
:040034007e05000045
:020000040000fa
:040040006803000051
:020000040000fa
:04004c0006050000a5
:020000040000fa
:040050004c0200005e
:020000040000fa
:04005400be070000e3
:020000040000fa
:04006800300500005f
:020000040000fa
:04007c00c2020000bc
:020000040000fa
:040080009e020000dc
:020000040000fa
:04008800dc04000094
:020000040000fa
:04008c00f601000079
:020000040000fa
:0400d400e80100003f
:020000040000fa
:10020000afaf20000ebf20000e01880000000000ec
:10021000000020000000e000020032000001200089
:100220002002880014000700180407000000e00006
:1002300003003a0020cd2300010020000200370017
:100240000000200001002000810f7000010032003a
:1002500014000700000020000000e000020032004f
:100260000000020000000000503c020000000000fe
:100270000040da000000fe004440a9008058200041
:100280000000e0000300320000002000a001880010
:100290004440a800000006008a1f78008b1f7800e9
:1002a0000000060091018800800478000000eb0047
:1002b0001a003700e284440032a0b4009905ba0065
:1002c000e284440032a0b4009906ba00e2844400fb
:1002d00032a0b4000006eb00476fde00fd07b2005d
:1002e000636ce10003003a00ebff07000000eb0045
:1002f0000a003700606ce10004003a00005deb008a
:100300008b05e900fdff3e00040037006168e10055
:10031000010032000086eb000b00070019c7ba008d
:100320001905ba000e04e00003003a000a00e000dc
:10033000e0ff3a0000000600fe07b2009e018800c0
:100340008a047800f5ff3700395dba008b05e900b3
:100350000c003200295dba008b05e900080032006c
:100360000c00e00003003a00e284440032a0b40034
:10037000f5ff370019ddba008b05e900faff3a00f6
:100380008904e800e184440032a0b40000000600c3
:100390006e0aa8008020a9000000fe0000400600b0
:1003a0006e2aa8008040a9000000fe000040060060
:1003b0006e4aa8008060a9000000fe000040060010
:1003c0006e6aa8008080a9000000fe0000400600c0
:1003d0006e8aa8008960a9000000fe0000400600a7
:1003e0006eaaa8000000fe00004006003600f800db
:1003f000809fbe00829fbe00849fbe00869fbe007d
:10040000100020006d0b07006b4aa80019c2bf0046
:100410000018a30017003a00f1428000c00320003a
:1004200001004000f2a62000624078000004e000d5
:10043000100032008348e2000e003200b2aa200011
:10044000028140000000fb00d01088008100e8001d
:1004500019c2bf000018a30005003a0052407800fe
:100460000004e000f7ff3a00f14288000100370085
:10047000f142880010002000010c07008720a9002d
:100480004f03be004f02be004f01be004f00be0032
:100490003600f900004006003600f800809fbe00dc
:1004a000829fbe00849fbe00869fbe001000200079
:1004b000420b07006b4aa8000fc2bf000018a30040
:1004c00015003a00e1428000f0a6200060c07800ec
:1004d0000004e000100032008248e2000e0032000a
:1004e000f2a62000028140000000fb00801088007e
:1004f0008100e8000fc2bf000018a30005003a0009
:10050000524078000004e000f7ff3a00e142880022
:1005100001003700e14288000000eb00d80b070023
:100520008540a9004f03be004f02be004f01be0030
:100530004f00be003600f900004006003600f8000b
:10054000809fbe00829fbe00849fbe00869fbe002b
:1005500010002000190b07000000eb00ed1207004f
:1005600010002000eb12070086c0a9004f03be0058
:100570004f02be004f01be004f00be003600f90022
:10058000004006003600f800809fbe00829fbe003b
:10059000849fbe00869fbe0010002000070b07004e
:1005a00040c8bf00e24f50000e0034006dcabf00cb
:1005b0000048a300040032003a68ef0030c1b300e5
:1005c000f3eab70012003700c19420009140780090
:1005d000a083200001487800b0c3b300f3eab7005d
:1005e0000b003700f34ae20008003c00b0c3b30040
:1005f000f3eab7003a48e20002003c006c2aa80087
:10060000030037003a68ed0001003700f36aed009f
:100610002046800081702000810f50000b003a00be
:100620000184200091407800e1cf500007003400a1
:10063000b4100700e10f500002003a0010c0b300f0
:1006400040e8b700c428ef0006003700018420000e
:1006500091407800e1cf5000020034000000e80033
:100660002046880040c8bf00e34f50001100320010
:1006700040c8bf00e14f50000e003400c408e20043
:100680000c003200d11007000000e0000900320029
:10069000e915070030468000e40f500003003400e5
:1006a00010c0b30040e8b700020037000000e800c7
:1006b0003046880086a0a9004f03be004f02be004e
:1006c0004f01be004f00be003600f900004006009a
:1006d0003600f800809fbe00829fbe00849fbe004f
:1006e000869fbe00889fbe008a1f780010002000f1
:1006f000b20a07005068ec006acabf000008a300f5
:100700000400320035c8bf00e14f500001003c003a
:100710003568ec00b8518000c95180006011b80004
:100720000800be00dc0207000000e00016003400f4
:100730006acabf000008a3001300320010518000f5
:1007400021518000cf0907000001be000800be0053
:10075000cf0207000000e0000b003d004e08ab0098
:100760000900320034c8bf00e84f500005003400d3
:100770006a0aa900f0022000ad0f07006ccaa800a9
:10078000010037003468ec000004eb00899e200073
:100790004a0020004241dd002202b00002814400f4
:1007a000120078009200900092488000a3488000d8
:1007b000b70207000000e00006003d004e08ab0055
:1007c000040032006a0aa9000a007800980f0700a6
:1007d0006ccaa8000804e800e40f5400edff3a00da
:1007e0007051800081518000f24f800003508000e2
:1007f000d0040700d0508800e150880036c8bf0000
:10080000e74f500010003c00e2408000f3408000c1
:10081000105180002151800002030700e040880051
:10082000f14088000241800013418000904f800019
:10083000a14f8000fb0207000041880011418800a1
:100840003668ec001d003700e0408000f140800079
:100850000200200003e02300b6040700e040880007
:10086000f1408800e0408000f14080007051880035
:100870008151880000418000114180000200200069
:1008800003e02300ab040700004188001141880009
:100890000041800011418000f04f88000150880025
:1008a0006000b8000041880011418800e0408800e5
:1008b000f14088003668ef00131607007051800081
:1008c00081518000f24f800003508000990407009e
:1008d0006c0907000004be00d04f8000e14f80008b
:1008e0000801be006a0207000000e00002003d00af
:1008f000d84f8800e94f88001851800029518000a6
:100900000800be005f090700f226210033b0230073
:10091000610207000000e0001100340012052a0007
:10092000138123000800be00820407000004be00fb
:10093000004e8000114e80000801be00b902070081
:10094000004e8800114e8800224e8000334e8000f9
:100950000800be00b3020700204e8800314e880018
:10096000f1cabf0000404000f1eab700f1cabf0081
:10097000e84f50000700340010c0b300f1eab700a0
:100980006a4ae20002003d006aeaa900010037005d
:100990006aeaa80084c0a9004f0578004f04be0091
:1009a0004f03be004f02be004f01be004f00be000d
:1009b0003600f900004006003600f800809fbe00b7
:1009c000829fbe00849fbe00869fbe0018c2bf00eb
:1009d0000008a30002003200100020006516070086
:1009e00010002000f5090700a0c0b30042e8b700de
:1009f0008700a9004f03be004f02be004f01be009a
:100a00004f00be003600f900004006003600f80036
:100a1000809fbe00829fbe00849fbe00869fbe0056
:100a20000ec2bf000008a300020032000000eb006d
:100a30005016070010002000e0090700a0c0b30016
:100a400042e8b7008520a9004f03be004f02be0058
:100a50004f01be004f00be003600f9000040060006
:100a60003600f800809fbe00829fbe00849fbe00bb
:100a7000869fbe0010002000d00907001413070055
:100a80006ccaa80090032000e90e0700d20d0700f1
:100a90008600a9004f03be004f02be004f01be00fa
:100aa0004f00be003600f900004006003600f80096
:100ab000809fbe00829fbe00849fbe00869fbe00b6
:100ac00010002000bd090700011307006ccaa80030
:100ad000a0032000d60e07004e28a800be0d070078
:100ae0008400a9004f03be004f02be004f01be00ac
:100af0004f00be003600f900004006003600f80046
:100b0000809fbe00829fbe00849fbe00869fbe0065
:100b1000889fbe008a9fbe008c9fbe0010002000f0
:100b2000a6090700a1e2a800785180008951800041
:100b3000f04880000149800012498000234980006c
:100b4000fc0307000200200003f42300f903070060
:100b50000001be000800be00cf0107000000e00059
:100b6000020034006aaaa800010037006aaaa8009f
:100b700058488000694880001c0020008005eb0078
:100b80008d9e2000010037000c06e8000c05e900ee
:100b90004251dd002202b0000281460012007800be
:100ba000920090000801be00bb0107000000e000b9
:100bb00013003500e10f55000b00320003003c002c
:100bc0000a00e000060032000d003700e20f550079
:100bd00007003200e30f550009003a000600370015
:100be0000b00a000e8ff37000b10a000e6ff370065
:100bf0000b20a000e4ff37000b30a00002003700fc
:100c0000e30f5600e0ff34008b4078002085200081
:100c1000014878000ec2bf000018a3000a0032008d
:100c2000d0022000820e07000ec2bf000008a30001
:100c300004003200901080000ec2bf000008a30024
:100c4000fcff3a000e22a90018c2bf000018a30042
:100c50000a003200e0022000750e070018c2bf0033
:100c60000008a30004003200e010800018c2bf009a
:100c70000008a300fcff3a001822a900e8140700ae
:100c800003180700a319070040c8bf00e24f500037
:100c900003003c0010002000604688006ccaa900d8
:100ca000004e8000114e8000760807000004be0050
:100cb000604d8800714d88006acabf000038a300eb
:100cc0004c0032003fc8bf00e34f500049003a00db
:100cd0000006eb000a0020008b2c2400ada32000ae
:100ce0004260dd00008046001000be000a01be0028
:100cf000670107000000e00003003d004260dd00e6
:100d0000008046001005be000c06e800e40f560007
:100d1000f3ff3a0002002000632c24000a00be000a
:100d20005d0107000000e0000c003400f2cabf00c3
:100d3000e24f500009003200404d8000514d8000cc
:100d4000204e8800314e880020c0b300f2eab70080
:100d5000c029ef00c229ef00130037000200200075
:100d600003f823000a00be00490107000000e0006c
:100d70000d003d00f2cabf00e24f50000a003a00e9
:100d8000484d8800594d88006000b800204e88000a
:100d9000314e880014c0b30023af2000844978008e
:100da000004e8800114e8800204e8000314e800099
:100db0006011b800360107000000e00002003d00ad
:100dc000c429ef00c629ef00484d8000594d80002e
:100dd000204e8000314e80000801be002e01070029
:100de0000000e00002003400284e8800394e8800e0
:100df0006a6aa900404d8000514d80006011b80022
:100e0000230107000000e00003003a00a829ef00da
:100e100000f82300504d88004a4d80005b4d800053
:100e2000204e8000314e80000a01be0062020700a1
:100e300002002000832c24003e030700704f88002e
:100e4000814f88007851800089518000f2282c0061
:100e500053c723000800be000f0107000000e00098
:100e6000320034006acabf000018a3002f0032000d
:100e70004c4e80005d4e800002002000135624007e
:100e80000800be004c0207000001be000c00be00be
:100e9000640107000001be00404e8800514e8800ea
:100ea0000a00be00fa0007000000e0001f003c003e
:100eb000c829ef00ca29ef00604e8000e10f400012
:100ec000020032000000e800604e88008049800087
:100ed0006500b900cf80de002d0107000004be00d0
:100ee0006011b800ea0007000000e00002003a00cc
:100ef0000800200009f823000801be0000002000bf
:100f000001f823002c0207000001be0000002000b1
:100f100001f823003a0107000001be000a00be00ec
:100f200004030700404d8800514d8800910d0700d3
:100f3000890807000000e000060032004248e20095
:100f4000040034006acabf000018a30001003a0080
:100f50004268ed008460a9004f06be004f05be0048
:100f60004f04be004f03be004f02be004f01be0043
:100f70004f00be003600f900004006003600f800c1
:100f8000809fbe00829fbe00849fbe00869fbe00e1
:100f9000889fbe00100020008808070037c8bf00e7
:100fa000e74f500071003c006ccabf000038a3003e
:100fb00059003200001480004840800059408000f1
:100fc0008000eb00f50007000801be0015010700d6
:100fd0004040880051408800101480006840800024
:100fe000794080008000eb00ec0007000801be00a3
:100ff0000c010700604088007140880020148000c8
:10100000a8408000b94080008000eb00e3000700aa
:101010000801be0003010700a0408800b14088001d
:1010200030148000c8408000d94080008000eb0070
:10103000da0007000801be00fa000700c04088007f
:10104000d140880098528000a9528000401480004e
:101050008000eb00d10007000001be000800be00c8
:10106000f000070090528800a1528800b85280001a
:10107000c9528000501480008000eb00c7000700b8
:101080000001be000800be00e6000700b052880064
:10109000c1528800d8528000e9528000601480005c
:1010a0008000eb00bd0007000001be000800be008c
:1010b000dc000700d0528800e1528800f85280001e
:1010c00009538000701480008000eb00b30007001b
:1010d0000001be000800be00d2000700f0528800e8
:1010e000015388008014800088408000994080006f
:1010f0008000eb00a90007000801be00c90007003e
:1011000080408800914088004e08ab0015003200f6
:10111000cf120700130037006000b800404088007d
:10112000514088006040880071408800a0408800dd
:10113000b1408800c0408800d140880090528800ab
:10114000a1528800b0528800c1528800d052880055
:10115000e1528800f05288000153880080408800e6
:10116000914088003768ec00250037006ccabf004a
:101170000038a300070032008041800091418000c8
:101180006011b800870007000000e0000100320095
:101190008b1107006ccabf000038a30001003200a9
:1011a0008f0707003768ef004e08ab0007003200da
:1011b0006ccabf000038a300040032006ccabf0034
:1011c0000068a30001003a00461607004e08ab0075
:1011d000010032008719070040c8bf00e24f5000ed
:1011e00006003c006ccabf000038a30003003200b8
:1011f000a1e2a9006c6aa900010037006c6aa8008e
:1012000040c8bf00e34f5000050034004e08ab005b
:101210000300320010c0b300c70a070013003700f4
:101220004e08ab0006003a006acabf000068a3007f
:1012300003003a0040c0b300bf0a07000b003700ac
:1012400040c8bf00e14f50000600320040c8bf0058
:10125000e34f50000300320020c0b300b60a07007d
:10126000020037000040eb00b30a07008560a900c8
:101270004f04be004f03be004f02be004f01be0030
:101280004f00be003600f9000040060000000500d7
:1012900014002000af033700f4ff2f00ad03370028
:1012a0000001be00410007000470a70003f0a10088
:1012b0006509b100160032000d0035006828e10014
:1012c00006003500f0ff2f00f1ff27000300e000cb
:1012d00013003b0001002800000005000000400052
:1012e000818048008502e900fcff3a0008003700d1
:1012f000f88f420002003c008000eb000000050077
:101300008100d1000080d3008502e800fcff3a0094
:101310000300e00002003b0060001000e0801800c5
:10132000000006000001be00200007000470a700b6
:1013300003f0a10003f8a30013003a006509b1000f
:1013400010003200090035006928e1000200350074
:1013500001002800000005000000400081804800d6
:101360008502e900fcff3a0000000600f88f420009
:10137000050035008100d1000080d3008502e8001f
:10138000fcff3a00000006008000eb0000000500b2
:101390004f89de0082017800890337006011b800b0
:1013a00097033700040020006a033700c70ade00f5
:1013b000f107b200f50fb20008003200e1cf4200a1
:1013c000020032000170a00024000500810f7000af
:1013d000010032000408050044000500810f700080
:1013e00002003a00140005008502e90000004000f8
:1013f00081c04800fcff3b000170a00024000500f4
:1014000007f82700078361000638e10004003a006e
:10141000f7072000878361008703710001003a000d
:1014200003f0a200889fbe008a9fbe008c9fbe0072
:10143000470ade000480a100c71ade000580a10073
:10144000070028000785600087856100f70f2000ee
:101450000720e1009e0032000728e1009c003200d6
:10146000010678000400e000b4003200f707200015
:10147000878060000170a0000500e000c00032001d
:10148000f7072000878161000370a0000506520065
:101490000f003a000b50e1000b0032000308e1009e
:1014a00002003a000200e1007e0032000204500017
:1014b00083845800040031000001fd008101fd001b
:1014c0008402fd008a05fd006044b8002100370059
:1014d0000520e10005003d000001fd008101fd0047
:1014e0008402fd008a05fd00050652007a60e100d5
:1014f000050035000170a1004722dd0084807000e6
:101500008a807000630037006044b800ef02660014
:1015100007ff2f00070666000500e0000600340004
:10152000f08312008714dd000511de00071bdd00cb
:10153000060171008519de007060e10005003500cc
:101540000904780082047800030178008001eb0030
:10155000700656000b50e10003003a000200400004
:10156000838048000400370060041400e0841c00fd
:1015700002005800838058000188a3000600320052
:101580008100d1000080d3008984d3000884d30077
:101590000402e800270037000178a30025003a0084
:1015a0000100e000030032008186cf00698656000a
:1015b0000a0037008c0020000000e00004003a0020
:1015c00009007800880478000004eb0070025200e3
:1015d0008086cf000d0646000c06e9007060e10031
:1015e0000600350080007800090078008804780043
:1015f0000004eb0070065600700252000c00e00080
:101600000c0034008c08dd00f00316000703de0038
:10161000868070000c00dd00074bde0006007000c5
:101620008c4cdd000743de00868474000c44dd0032
:101630000c0252006120e1002000350061016000d1
:101640000700280087816400f7ff27008783640074
:10165000070374000300e0000600320082037300f9
:10166000040032000000e800e08048000188a30088
:101670000e003a00f70f20000720e1004a003d006d
:101680000170a1004722dd00810072008a80700095
:101690000000be004f06be004f05be004f04be0056
:1016a000000006006000b800faff37008100d1009a
:1016b0000080d3000402e800eeff37000401780048
:1016c00089017400a10107008a807000f1ff3700d2
:1016d000f7010700070278000001fd008101fd000d
:1016e000f301070087027800850372000778a300e2
:1016f000040032000001fd008101fd000602070028
:10170000e4ff3700850362000768a3000800320089
:101710000b50e10003003200f0ff2f00f1ff270023
:10172000dcff37000001fd008101fd00d9ff37001b
:101730000468a300d7ff3200faff3700f8ff270044
:10174000888360000b003a000000e00009003a00c6
:101750008303640082837300020032000200be0033
:10176000ccff37000b50e100ceff3a000200be0074
:10177000c8ff370014002000810064003eff3700de
:10178000f8ff27008883610004003a000200e000af
:1017900002003a008c007800beff370015002000e0
:1017a0008301640039ff370001f8270000002000a2
:1017b00081007500b7ff3700889fbe008a9fbe007a
:1017c0008c9fbe001b0020000202be000586680040
:1017d00006002800060666004709de00f20fb20088
:1017e000820032000243e80080003200c729de0098
:1017f000f30fb2007d0032000343e8007b003200ab
:10180000f107b2000170a000f507b2000570a0005a
:10181000c708dd004903de00868070004700dd0058
:10182000c72add004923de00868272004722dd00e0
:101830000305510004035000858358000300310064
:1018400000004000818048000a05e9008c1f7800f4
:101850008a9fbe00040050008580580004024200a8
:1018600085824a0000004000818048000005eb00ae
:101870000004be006033b8000406be000d48e1005d
:1018800056003100110009004dccd8000c01b80001
:101890000d02b8008481410060824a0082835300b7
:1018a00003045c0084845c0060055d000a00e000c5
:1018b00025003a00800578000d40e1004900310024
:1018c0008800780007007800110009004d88d800d2
:1018d0000c01b8000d02b8008481410060824a000a
:1018e0006003110083835b0004045c00e0845c00ff
:1018f0000900e00021003a004f01be000300e000b3
:101900002b003200e3016000070673008c81710038
:1019100001003200640070004200de004e5edd0017
:101920000c007000c258de0001e0a0008301070037
:10193000cf017800818071004f06be004f05be00c8
:101940004f04be00000006008c8343000d044c00d1
:10195000e0844c0060054d000000e9000a00e00052
:10196000d4ff32008c8343000d044c00e0844c0013
:1019700060054d000000e900ceff37000c03430076
:101980008d834b0060044c00e0844c000000e900b3
:101990000900e000d8ff32000c0343008d834b00a8
:1019a00060044c00e0844c000000e900d2ff3700e6
:1019b0004200de004e5edd000c007000c258de000a
:1019c00001e0a000cf0178000300e000daff320060
:1019d00060001000e0801800d7ff3700f0ff2f00f4
:1019e000aaff3700f0ff2f00b9ff37000404be0044
:1019f0002f010700870678000004fd008104fd0028
:101a00002b010700078366000678a300030032005d
:101a10000960a7000800be002c0037000d78a30065
:101a2000020032000800be00280037000778a3003b
:101a300026003a0001f0a10009f0a1000668a30009
:101a400003003200f1ff2700f0ff2f00baff37003c
:101a50000d68a300030032000800be008c807000f7
:101a6000b5ff37000768a30007003a000648a30047
:101a700003003200f1ff2700f0ff2f00aeff370018
:101a80000d48a300030032006000b8008c80700095
:101a9000a9ff37000748a3000400320001f827001f
:101aa000000020008c807000a3ff37007601070043
:101ab0000004fd008104fd000205780072010700aa
:101ac0000802be008a01780059ff37000160a000bb
:101ad00012022000c257880097ff37000100e00083
:101ae000120032000500e00010003200889fbe00a6
:101af0008a9fbe008c9fbe000006eb0001f8a30089
:101b00000300320060001000e08018000cf0a0001c
:101b100005f8a3000300320060021200e0821a0000
:101b20000cf0a2008005eb0041ff37006000b80018
:101b30000200050003836800070028000703630014
:101b4000470ade000480a100c71ade000580a1005c
:101b5000f70f20000720e100420032000728e100d3
:101b600040003200889fbe008a9fbe008c1f780014
:101b7000f107b200f307b2000400e0006400320095
:101b80000170a0000500e000680032000370a000b2
:101b900085054200eb07b1000204b8000302b8005b
:101ba0008484440060854a00020ab80084844400aa
:101bb0000a854a00030ab800040545000400330002
:101bc0000804d0008984d2000a85d2008b05e90080
:101bd0006158e1003d00350002102000090161005c
:101be0000308200089816100f707200087836400d3
:101bf00008867300c84cde00c853dd00878474007b
:101c00004855de000300e000060032008203760043
:101c1000040032008904e80060054d000a88a30032
:101c20000c003a00f70f20000758e10044003d0087
:101c30000a70a100c75ddd000a8575008a00730087
:101c4000090078004f0678004f05be004f04be0023
:101c5000000006000a05d1008984d3008b05e80046
:101c6000f0ff3700881f7800060478009000070016
:101c7000070278000001fd008101fd008c000700d3
:101c800087027800850372000778a3000500320000
:101c90000001fd008101fd009f0007004f04780056
:101ca00000000600850372000748a300030032000d
:101cb000f0ff2f00f1ff2700f8ff370000002000a1
:101cc00001f8270088807000f4ff37008801780051
:101cd0004848dd00808171004848de00c850dd00c2
:101ce00001007000c850de00060478000b01780087
:101cf0001600070088807000d2ff37000500e00062
:101d000005003200170020003a0007009dff370051
:101d100081037000f9ff3a00860078004f067800d2
:101d20004f05be004f04be00000005008303710094
:101d3000f9ff3200270020002e00070094ff370033
:101d400001f8270086807000f4ff37000100e000f2
:101d500026003200610111007810e10023003c00f0
:101d60006022b8007010e1000400350080027800a5
:101d7000010078008000eb00700151000200e000db
:101d80000900340070031100062add00822ade00fb
:101d90008603dd00878272000200de00860bdd0014
:101da000070070008208de0084817100f4ff2700c4
:101db0000482620084817100040028008482620031
:101dc0006102600005f0a6000000060004827100b8
:101dd000070032000000e800e08048000000060034
:101de0000002be006000b800efff37006000b800de
:101df00000000600889fbe000004eb006138e1008f
:101e000016003a000100e00008003a00c800de00b9
:101e10004800dd00880020000100e00003003a00d7
:101e2000c800de004800dd00680444008184cf0063
:101e3000e9845400060034008908dd00f0831400b2
:101e40008703de00878070000900dd00090444007c
:101e5000610214004f04be00000006000300e00011
:101e600008003a00c811de004811dd00880020009b
:101e70000300e00003003a00c811de004811dd0055
:101e8000680444008384cf00e984540006003400d1
:101e90008919dd00f08314008713de00878171004b
:101ea0000911dd0009044400e1021400e9ff3700d4
:101eb0002700200001f0a70017002000470bde00dc
:101ec000f60fb200040032000643e8000a003200b8
:101ed0004702b3000000060001037800f607b200d5
:101ee0000603700002003a000703b300000006007a
:101ef0008702b3000000060001037800f607b20075
:101f000006037000020032000770a0000000060007
:101f10000760a000000006000478a300040032005f
:101f20000578a300030032000168a30001003a0015
:101f30000200be000160a0000000060081017000e8
:101f4000270032008002eb0001f8a30003003200fa
:101f500060001000e080180015002000f407200049
:101f60000202420020003400f703200087036000d3
:101f70000604200000036300020820000001610045
:101f80004700de00c909dd0000807100c708de00df
:101f90000600e000080032008703710006003200ee
:101fa0001000b0000180b0000188a30002003200e0
:101fb000c108de000402e800f107b200f30f2000c0
:101fc0000320e10003003d004722dd008100720094
:101fd0002900370001f827000000eb002600370039
:101fe0006000b80000000600680212007f20e100d7
:101ff000020034006000b8001f0037006011b80014
:102000007020e100040035008001780001007800b4
:102010008000eb00700252000400e0000900340070
:10202000f00312000719dd008419de000703dd004c
:10203000868171000400de00070bdd0006007000e1
:102040008408de00f7ff27008383630087037100a5
:102050000600280003036300070032000700e000c9
:1020600003003a0061016000028173000200320047
:102070001000b0000180b0000500a60000000600be
:1020800001f0a000000006004f0ade004709de0054
:10209000f107b200f20fb2000b003200f207b100fc
:1020a0000170a000c708dd00c901de008380700058
:1020b0004700dd000400a6000000060060001000dc
:1020c000e080180000000600810f700001003a0057
:1020d000000006008182cf000500e00010003e00f5
:1020e0008082cf00ee8242007028e10004003900b7
:1020f00007003e00800078000000eb000e00370073
:10210000708312008600de000500dd000a00370043
:10211000708352008600dd000000eb0006003700ef
:10212000e28252008508dd00708312000603de00a3
:10213000868070000500dd007507b0000501ea002b
:102140000400a6000000060060001000e0801800f7
:1021500000000600889fbe008a9fbe00841f780092
:102160007c0007004f00780011003300f0ff2f00c3
:10217000838f6c0006003b00040565000a00a70081
:102180000800370009f0a600100020000800370002
:10219000820f5400838f5c00030039001000200080
:1021a00001003e000000200009f0a7000000ea0046
:1021b0004f05be004f04be000000e0000000060016
:1021c000881f7800030478000300e00007003d004a
:1021d00060001000e080180060011900e081190023
:1021e00002003b0001f02d0003003700040007004f
:1021f00008f0a70001f0a0004f04780000000600de
:10220000889fbe008a9fbe00008270000402710099
:1022100004827100260032000004be000200be00ed
:102220006011b8006b092000950220000182cf00e8
:102230000a0039000541b1000082cf0007003900d3
:102240000541b1000982cf00040039000541b10009
:102250000882cf00010039000541b100054252005b
:10226000120032000a003b008281710061016400ab
:102270008100d1000080d3008984d3000884d3007a
:102280008b05e8000442e800f7ff3a00070037003a
:102290000804440089844c00000048008180480004
:1022a0008b05e9000442e900f9ff3a00030007004a
:1022b0004f05be004f04be00000006008100200054
:1022c000618055000b003d000b00200061fe2f00d7
:1022d0000100e1001d003400828171006101640091
:1022e0008904d1000884d3000000e800faff3a0016
:1022f00071002000610064000300700002006000b3
:102300000900320061044400e0844c000988a50003
:10231000050032008b05e8006808e10002003a0081
:102320008904d1000884d300f20f20000258e10094
:1023300005003d00c75ddd00f907b200898075002a
:1023400008007800000006000bf827008b007800da
:10235000000005000004be0014fc07000003be00de
:102360000405be000200be0010fc0700844f75008b
:042370000000060063
:020000040000fa
:10237400556e0000616200006c6500003a200000a8
:102384005365000074740000696e000067730000f8
:10239400204c00006f6300006b650000642e000099
:1023a4000a0d0000000a00000d00000020000000db
:1023b40020200000000a00000d52000065610000aa
:1023c400646900006e67000020460000617500002b
:1023d4006c740000732e00000a0d0000004600001b
:1023e400617500006c740000204c00006f670000f1
:1023f40020460000756c00006c2e00000a0d0000e1
:10240400004e00006f20000066610000756c000043
:1024140074200000636f000064650000732e0000e8
:102424000a0d0000004300006f640000653a0000dc
:1024340020000000202d00003e2000000046000087
:102444006c610000677300003a3a00007c5300009e
:1024540065740000732000004c4b00007c7c00007d
:102464004261000074740000204f0000567c00009c
:102474007c42000061740000742000004856000093
:102484007c0000007c4200006174000074200000a5
:10249400555600007c7c000042610000747400000a
:1024a400204f0000547c00007c530000797300002e
:1024b400204f0000547c00000a0d000000200000a2
:1024c4002020000020200000202000002000000028
:1024d400534500005420000020200000202000006c
:1024e40020000000436c00006561000072200000c1
:1024f4002020000020000000533100003a2000009a
:1025040000530000323a0000200000005333000062
:102514003a20000000530000343a0000200000007c
:10252400434800003a200000007600006f6c000071
:102534007461000067650000206900006e7000008f
:1025440075740000287300002920000063610000f6
:102554006c2e00000a0d0000004e00006f74000095
:10256400686900006e67000020630000616c000071
:1025740021200000566f00006c74000061670000a9
:1025840065730000206f000075740000206f000068
:1025940066200000726100006e670000652e000076
:1025a4000a0d000000400000002000004346000027
:1025b40021000000202d00003e4300007245000071
:1025c400213c00002d0000000a0d000050520000c4
:1025d400473a00000a0d0000537400006f720000b7
:1025e400656400003a0000000a0d00004361000029
:1025f4006c6300003a200000200000004d650000dc
:102604006d2000004275000073790000000a00008c
:102614000d4e0000564d00003a0a00000d53000014
:10262400746f000072650000643a0000000a000044
:102634000d5300006574000073200000616e0000fb
:1026440064200000566100007273000020530000f3
:1026540061760000656400002e0a00000d00000091
:10266400502000004f6e00000a0d000000500000d2
:10267400204f0000666600000a0d0000000a0000fa
:102684000d48000055440000204f00006e0a000071
:102694000d0000000a0d0000485500004420000011
:1026a4004f660000660a00000d0000000a0d0000dd
:1026b40046610000756c0000747300002043000044
:1026c4006c65000061720000656400002e0a000061
:1026d4000d0000000a0d0000563100002e300000ed
:1026e4005f320000532d0000345300000a0d000037
:1026f400005300006574000073200000556e000054
:102704004c4b0000442e00000a0d0000005700004e
:1027140061690000742e00002e2e0000005300009a
:1027240065740000732000004c4b0000442e000030
:102734000a0d0000005000006f7700006572000071
:10274400204f000075740000204f00006e2e000022
:102754000a0d000000430000686100007267000079
:1027640065200000476f00002e0a00000d000000e5
:10277400524c0000200000000a0d000043480000f5
:1027840020000000556e00006b6e00006f770000a3
:102794006e200000436f00006d6d0000616e00004c
:1027a400642e00000a0d0000004900006e6900005c
:1027b400742e0000200a00000d000000200000001c
:1027c4002500000056000000545600000050000090
:1027d400570000004156000000430000560000006e
:1027e40043410000003a000053310000003a000069
:1027f40053320000003a000053330000003a000056
:10280400533400000057000000430000570000004c
:102814004100000043420000004300004d0000005e
:1028240041410000004f000043560000004d0000ed
:10283400430000000a0d000000000000e0930000c7
:10284400e2930000e4930000e6930000e9930000a3
:10285400ec930000ef930000f2930000f593000066
:10286400f9930000fd93000001940000059400001a
:10287400079400000a9400000c9400000f940000d8
:102884001294000015940000199400001c94000098
:102894004865000061740000657200002074000047
:1028a4006f6f0000207300006d6100006c6c00000d
:1028b400004e00006f200000686500006174000095
:1028c4006572000020640000657400006563000008
:1028d4007465000064000000486500006174000035
:1028e40065720000207400006f6f0000206c00000f
:1028f4006172000067650000004c00006f77000003
:1029040020420000617400007420000056000000a2
:102914004261000074740000204f00004300000076
:102924004368000072670000204f0000430000006d
:102934004261000074740000204f00005600000043
:102944004261000074740000204f00005400000035
:10295400422d0000466c00006167000028730000ef
:102964002920000053650000740000005365000036
:102974006c660000204f00005400000053790000f2
:10298400732000005368000075740000646f000039
:10299400776e000000500000574d000020650000d5
:1029a4007863000065700000004f0000736300004e
:1029b400206500007863000065700000004100009d
:1029c4006464000072200000657800006365000004
:1029d40070000000535400004b2000006578000094
:1029e40063650000700000004d54000048200000a2
:1029f4006578000063650000700000005265000007
:102a040073370000206500007863000065700000e3
:102a1400006200006c6100006e6b00000042000068
:102a2400726e00004f7500007400000057440000ef
:102a3400542000007273000074000000756e0000e2
:102a44002d680000616e0000646c00006564000085
:102a54002065000078630000657000007469000060
:102a64006f6e00002072000073740000004f0000bd
:102a7400706300006f640000652000007273000042
:102a8400740000004d4300004c520000207200000e
:102a940073740000004900006c6c0000656700005e
:102aa400616c0000204900006e7300007400000097
:102ab400537900007320000052730000740000007a
:102ac400496e0000766100006c2000007072000006
:102ad40074000000555300004220000043680000c9
:102ae400204600006c7400000050000043680000a1
:102af400672000003e200000313000003025000037
:102b04000056000048200000436800005600000002
:102b1400564c000020430000685600000056000098
:102b2400482000004368000043000000564c0000a9
:102b340020430000684300000056000048200000c5
:102b4400425400006d700000005600004c2000004c
:102b5400425400006d700000005600004820000040
:102b640042430000005600004c2000004243000095
:102b74000056000048200000534d0000005600009d
:102b84004c200000534d0000005000004f52000044
:102b94005431000020420000535900002065000019
:102ba40072720000005000004f52000054320000c6
:102bb400204200005359000020650000727200009a
:102bc40000500000676d000020430000686b0000a7
:102bd4002045000072720000004e0000564d0000b7
:102be40020430000686b0000204500007272000062
:102bf4000053000065740000732000004368000067
:102c04006b20000045720000720000004e56000068
:102c140053200000436800006b2000004572000050
:102c240072000000504f0000525400003120000098
:102c34004552000052000000504f00005254000062
:102c4400322000004552000052000000536f000083
:102c540066740000204f0000430000005648000046
:102c64002053000031000000564c000020530000a7
:102c740031000000564800002053000032000000dc
:102c8400564c00002053000032000000564800005b
:102c94002053000033000000564c00002053000075
:102ca40033000000564800002053000034000000a8
:102cb400564c00002053000034000000436800001c
:102cc40072670000206900006e2000004f5600006b
:102cd4000045000058540000204f0000433a000013
:102ce400205000006c650000617300006520000046
:102cf4005265000073650000740000004558000030
:102d0400542000004f5600003a20000042610000a9
:102d140074740000204600007573000065200000f4
:102d240054720000697000007065000064000000c7
:102d34004261000074740000205500005600000039
:102d44004348000020630000796300002d6c0000fc
:102d5400696d00006974000000530000797300007d
:102d64002053000061660000652000004d6f0000e4
:102d740064650000005500006e6b00006e6f00007b
:102d8400776e0000000000004a9400005b9400008d
:102d94006e9400007f9400008a94000092940000d6
:102da4009a940000a2940000aa940000b894000031
:102db400c0940000cd940000d7940000e19400007a
:102dc400ec940000f6940000009500000b950000c0
:102dd4001195000018950000209500003995000019
:102de400449500004d9500005a950000629500003e
:102df4006c95000077950000839500008a9500008b
:102e040091950000989500009f950000a7950000fb
:102e1400af950000b5950000bb950000c19500007a
:102e2400c7950000d5950000e3950000ef950000dc
:102e3400fb95000008960000149600001e96000002
:102e44002896000030960000369600003c9600005c
:102e540042960000489600004e96000054960000ea
:102e64005a960000609600006b9600008096000061
:102e74009a960000a2960000af960000bd9600004e
:020000040000fa
:102e8400889fbe000004be006011b800fff8070070
:102e94000000e00001003d0009f0a2000800be00af
:102ea4004f04be0000000600889fbe000004be0060
:102eb4000001be001efb07000801be001cfb07004a
:102ec4004f04be0000000600889fbe008a9fbe001b
:102ed4008c1f78000005eb0008002000892c2400da
:102ee4000a067800aba320004250dd0000804500b4
:102ef4001000be000801be00e4f807000000e00076
:102f040004003d004250dd00008045001004be0076
:102f14000a0678000a05e800e40f5500f2ff3a00bb
:102f24004260dd00a1a32000008040001000be002c
:102f340002002000832c2400d6f807000000e000e3
:102f4400070034004260dd00a1a32000008040009f
:102f540002002000832c24000288be000d003700ec
:102f64004260dd00a1a32000008040001000be00ec
:102f74006011b800c5f807000000e00005003d003e
:102f84004260dd00a1a32000008040006011b80071
:102f94000288be004266dd00a0a320000c064000ab
:102fa4001c00be00484d8000594d800002002000e6
:102fb400832c2400fff907000001be000800be00b6
:102fc400dbfa0700204e8800314e88004f06780057
:102fd4004f05be004f04be0000000600ea8747000c
:102fe400889fbe008a9fbe008c9fbe008e1f780003
:102ff4001051800021518000a1ff0700d2cc2c0089
:10300400c3d42300a1f807000000e0004b003d00fa
:103014006ccabf000038a30048003200904f800003
:10302400a14f800090518800a15188007048800011
:10303400f0b79f008148800081bf9f005048800006
:10304400614880007fb197008fb99700ebf80700c3
:10305400d0b79f00e1b79f006011b8008bf807005c
:103064000000e00004003a000000200001f8230002
:10307400d0b79f00e1b79f000007eb000a002000d3
:103084000bf023004271dd002202b000819e20007b
:103094000281400012007800920090007fb19700f6
:1030a4008fb99700d5f807000004be006011b8007e
:1030b40076f807000000e00001003d006044b8001d
:1030c4005fb19700efb197000800be00b9f907009f
:1030d4000a01be00c9f807000004be0072ff070021
:1030e4000001be00cef807000006be000a01be00c3
:1030f4000800be008efa07000001be000c00be00ee
:10310400c7f807000a01be00c5f807000200200046
:10311400832c240086fa07000001be00c270dd0083
:10312400a0a32000810040008288be000e07e800b2
:10313400e40f5700d3ff3a006a6aa8004f077800eb
:103144004f06be004f05be004f04be00af00b100e5
:103154000000060081212000914078000000eb006f
:103164000148a30013003200e120200091407800c0
:103174000148a3000f003200912120009140780003
:103184000108a3000b003200f120200091407800d8
:103194000108a3000700320081212000914078003b
:1031a4000108a30003003a000ec2bf0061006000e2
:1031b4000000a20000000600b1a6200091407800a3
:1031c4000128a30055003a004248e20053003a00a7
:1031d400a1a62000914078000118a3004f003a00f6
:1031e4000000e0004d003a00b1a6200091407800b4
:1031f4000118a30049003200d6ff07000000e000d8
:103204008e003200ff3ffc0080072000a10920004f
:1032140032742000004978000149780000497800a0
:10322400327420000049780001497800014978008f
:1032340072002000337420008049780081497800ae
:103244008249780060042000710520002274200067
:103254000049780001497800004978002274200070
:1032640000497800014978000149780012082000db
:1032740023742000804978008149780082497800cd
:103284006b2aa9004110200091407800f0ccb300d3
:1032940080c060000154a0008141780042102000e9
:1032a40003497800a2832300120888000021ef005c
:1032b400011120009140780080c060000144a0000a
:1032c4008142780004112000054a78004107270054
:1032d400610888000621ef00e31120009341780083
:1032e40080c161000354a00083427800e4112000ef
:1032f400054a78001421ef00d20888000212200049
:1033040012417800004061000044a00020e1b700b1
:10331400e10888001821ef003c003700e10f50005d
:1033240046003a006bcabf000018a30043003a00ed
:103334006b2aa800ff3ffc0003c3b30003407800de
:103344000461b700a20e2e001208880010c1bf004d
:10335400f1ccb300014060000054a00010e1b700bc
:10336400a483230064088800034078001e61b7002a
:10337400d2088800021220001241780081406100c6
:103384000154a00081417800021220000349780012
:10339400e408880080072000a1092000327420007e
:1033a400004978000149780000497800327420000f
:1033b4000049780001497800014978007200200032
:1033c400337420008049780081497800824978006c
:1033d4006004200071052000227420000049780058
:1033e40001497800004978002274200000497800df
:1033f400014978000149780012002000237420005c
:1034040080497800814978008249780042c7bf002a
:103414000008a300050032000000000000000000c6
:1034240042c7bf000008a300fbff3a006bcabf00fd
:103434000008a300010032005220ef000000060043
:10344400e10f5000010036000000eb000000060010
:10345400fbff070021882000e14078000104e00020
:10346400050032000140fe0021882000e140780080
:103474000104e000fbff3a0000000600f0ff070033
:10348400c20320000281b90080004000c4852000ee
:103494008100420091004100f2a62000e2c07800c1
:1034a4000104e00007003a0080004000c2852000cb
:1034b400010141008000eb0001097800228820000e
:1034c400017178005c08e20003003a005e08e20043
:1034d40001003a006b4aa90000000600d8ff07006b
:1034e40080004000c285200062817800b103200082
:1034f400810f51000400360000004000c185200007
:10350400008040000008eb00000006006f0060002f
:10351400e90f500002003c000043b00001003700f6
:103524007043b00000000600881f7800c4ff070045
:103534000004780008007800e8ff070020882000d5
:1035440060407c000004e00012003a0011c0b300a7
:103554002088200001707c0008004400c185200000
:1035640000804000c203200002c1b9009000410065
:10357400f2a62000810041008048eb000008eb0027
:103584000800e000020032008720a8000100370094
:103594008540a8004f04780000000600881f7800ca
:1035a400a7ff07000004780008007800cbff07009d
:1035b40088004400c085200060807800c203200099
:1035c40002c1b900020140006742b90043862000ed
:1035d400818041009101420004872000f1a620006f
:1035e40064c2790084707900a1032000810f500027
:1035f40004003e0008044400c18520000884400003
:10360400000ce8004f04780000000600889fbe000c
:103614008a9fbe000005be000204be006bcabf0044
:103624000018a30005003a000200200003d823007c
:103634000800be003ef907000004be006011b80097
:103644000a00be0011f707000000e00002003a0083
:103654000a0020006b6124000240220043972400ea
:103664000800be0032f907000a01be0051f8070045
:103674000200200003d823002df9070002002000d7
:1036840003f823005df7070025f707004f05be0088
:103694004f04be0000000600881f78006c4aa90091
:1036a4006000b800d04f8800e14f88003051880096
:1036b400415188005051880061518800904f880022
:1036c400a14f8800d0518800e1518800f051880052
:1036d400015288001052880021528800305288001c
:1036e400415288001051880021518800c020ef0009
:1036f400c220ef00c420ef00c620ef00f0ff21003d
:1037040060168800d022ef00ce22ef00e0fb2f00ed
:10371400f0168800e222ef00e022ef00a0ff2f0065
:10372400c0168800dc22ef00da22ef00c021ef008f
:10373400c221ef00800c2000200e8800c621ef007b
:1037440008072000480e8800ca21ef00cc21ef00b2
:10375400d021ef0000a02200a00e8800d621ef00a7
:10376400d821ef00da21ef000e22ef000fe2a900ca
:103774000c22ef000d42a8000ce2a800a2702d005c
:10378400b316240000002000616124009fff07009d
:10379400a01088001822ef0019e2a9001622ef00f9
:1037a40016e2a800a2702d00b31624000000200029
:1037b4006161240095ff0700f0108800402e20006e
:1037c4000015880040422000101588000098200051
:1037d40020158800a622ef0000e02f004015880085
:1037e400f01f200050158800084078009960b70049
:1037f40097c0bf0081cfb300014060006040b300b8
:1038040097e0b7009cc0bf00014060005040b30087
:103814009ce0b70094c0bf00014060005040b3007a
:1038240094e0b7005209200012417800f0c8b300b8
:10383400004161000264a0000242780053092000a4
:1038440084497800f20920001241780001416100a6
:103854000224a00002427800f30920008449780081
:103864009209200012417800014161003240b30006
:10387400024278009309200084497800020a20005b
:1038840012417800004161000243b3000242780013
:10389400030a20008449780082092000124178003c
:1038a400004161000254a000024278008309200014
:1038b40084497800020a20001241780081406100a6
:1038c4000114a00081417800020a20000349780015
:1038d400710920009140780080c060000154a0006c
:1038e4000141780074092000024a7800e1092000af
:1038f4009140780080c060000144a000014278003b
:10390400e309200084497800f109200091407800ff
:1039140000c060000044a0009fe0b7004f0478009e
:1039240000000600889fbe00d0bf20000001880070
:103934005847800069478000304780004147800035
:103944000801be00b6f607000001be000800be0074
:1039540098f707002040880031408800d0a3200059
:103964006041880070fd230070418800e00e26004d
:103974008041880080812400904188006c0aa9005d
:1039840081e0a9008420ef008620ef008820ef006a
:10399400ff3ffc008c20ef008e20ef009020ef0012
:1039a4008c60a8008d20a8008d40a8008f00a8007e
:1039b4008f20a8008c00a8008e00a8008ee0a9002b
:1039c4008cc0a8008ce0a9008ea0a9008ec0a8001d
:1039d4008d60a8008200a9008240a9005220ef0057
:1039e400a1e2a800c1e1a80011e1a80005e1a80036
:1039f40021e1a80017e2a8001942a8006caaa800b7
:103a04004f04be000000060023ff0700ff3ffc0038
:103a14008420ef008620ef008820ef008c20ef0048
:103a24008e20ef009020ef008d20a8008d40a8008c
:103a34008f00a8008f20a8008ea0a8005220ef00bd
:103a44006b0aa800c1e1a90011e1a90005e1a900e0
:103a540013e1a9001fe1a90021e1a9000de2a800da
:103a64000f42a80017e2a8001942a80000000600af
:103a740073fe07008000400082882000e280780006
:103a8400e38f5000040036000000400081882000cd
:103a9400008040000008eb00000006000000060063
:103aa400b1ff2f00c1168800d2a2ef00dc42a900aa
:103ab40061416000c12d2000914078000104a10003
:103ac40082c0700081417800c22d20000349780033
:103ad4000000fb008000d100e1c0600001c1400093
:103ae400612d2000914078000114a10082c0700073
:103af40081417800622d2000034978004201de00f4
:103b0400614161004211dd00612d20009140780087
:103b14000124a10082c0700081417800622d200040
:103b240003497800c300de00e1c06000c308dd0083
:103b3400d6c2bf000034a10001407000d6e2b70035
:103b4400a0ff2f00c016880010ff2f0090168800d9
:103b540000000600b1ff2f00c1168800d2a2ef00ba
:103b6400dc42a8000000fb00610160000204a20026
:103b7400c12d2000914078000104a1008140710012
:103b840081417800c22d200003497800e2006000e2
:103b94008100e900cf08de0001c14000612d200052
:103ba400914078000114a10082c070008141780026
:103bb400622d200003497800640160000201e900dd
:103bc4004f11de004211dd00612d2000914078008c
:103bd4000124a10082c0700081417800622d200080
:103be40003497800e80060008100e900cf08de00a6
:103bf400c308dd00d6c2bf000034a100014070003c
:103c0400d6e2b700a0ff2f00c016880010ff2f00d7
:103c14009016880000000600889fbe000004be00c5
:103c240002002000432b24009af507000000e00066
:103c3400030034006acabf000018a3000900320060
:103c440002002000832c24000800be0091f5070028
:103c54000000e000060034006acabf000018a30098
:103c640003003200f0c0b300baff07002f00370092
:103c740002002000632924000800be0085f5070027
:103c84000000e0000300340070c0b300b1ff07007f
:103c94002600370002002000832424000800be0010
:103ca4007cf507000000e0000300340030c0b300de
:103cb400a8ff07001d00370002002000831c240019
:103cc4000800be0073f507000000e00003003500a3
:103cd40010c0b3009fff070014003700020020004b
:103ce400831c24000800be0068f507000000e00003
:103cf4000c003d006dcabf000038a30009003a0063
:103d040050c8bf000028a3000300320010c0b30055
:103d140090ff0700050037000040eb008dff07000f
:103d2400020037000040eb008aff07004f04be008a
:103d3400000006000004e00054003400e34f50008b
:103d440003003a0060c0b30082ff0700510037004f
:103d5400e44f500008003a006a4ae20003003d00c4
:103d6400f1cabf004eff07004a003700f1cabf0086
:103d740078ff070047003700118520009140780044
:103d8400e9cf50003a003400e14f500038003a00c7
:103d94005168ef006dcabf000028a300090032007b
:103da40050c8bf000048a3000300320020c0b30085
:103db40068ff0700370037000040eb0065ff07008d
:103dc400340037006acabf000018a3002400320080
:103dd40050c8bf000008a3000d003200f0cabf00a5
:103de400e74f5000030032006acabf000058a30026
:103df40007003200704f8000814f800002002000d5
:103e0400831c240086f5070083ff07002100370088
:103e140050c8bf000018a3000d003200f0cabf0054
:103e2400e74f50000a0032006acabf000058a300de
:103e340007003a00704f8000814f8000020020008c
:103e4400831c240076f5070073ff07001100370078
:103e5400704f8000814f80006fff07000d00370016
:103e6400704f8000814f80006bff0700090037000e
:103e740051c8bf00e94f500001003c005168ec00fc
:103e840052c8bf0006ff0700020037000040eb00e5
:103e940003ff07000000060011002000f21f2000ad
:103ea400820f50001b003c00ff3ffc00811f780084
:103eb4000000400001c02f0001004000f107200075
:103ec400213b8800103b880041042400013b88000a
:103ed40051052000313b8800a10a2000313b8800b5
:103ee40061e7a8000000000000000000cf00780097
:103ef4008000eb00040037006bcabf000008a30079
:103f040001003200910288006147e200faff3500a7
:103f14008000eb000100780000000600889fbe00ce
:103f24000004be0008007800dbff0700100020003a
:103f3400f11f2000810f540021003c00ff3ffc00d2
:103f4400801f7800811f7800821f780008044400d5
:103f540000c02f0000044400f0c7b30032e0b700f3
:103f640029008800080088000208bb0041002400e2
:103f7400013b880051052000313b8800a10a200044
:103f8400313b880061e7a800000000000000000049
:103f94004f017800cf0078004f0078008000eb00dc
:103fa400040037006bcabf000008a3000100320000
:103fb400910288006147e200faff35000000eb003f
:103fc4004f04be0000000600b6e8b700c1458800f3
:103fd400ff3ffc00841f7800801f7800618b200065
:103fe400914078002003200001487800c1458000fa
:103ff400010088001082ba000000000000000000e8
:104004004000800080458800618b2000914078004a
:104014002003200001487800c14580000100880089
:104024001002ba0000000000000000004000800000
:10403400a04588004f0078004f0278006bcabf008b
:104044000008a300010032005220ef00a0458000c8
:1040540000000600800078000000eb00f21f200042
:10406400828f500005003c0000e027008080400063
:1040740081804000f0c7b300d3ff070000000600b2
:10408400889fbe008a9fbe00ba28ef000004eb00a0
:10409400fa0f2000ebff2300880078000040eb00bb
:1040a400c9ff070080047800880078000040eb0016
:1040b400c5ff0700800078008a846400d045800032
:1040c40000804400c808de00b008b400810040004d
:1040d400d14588000884e8008b0f5400eeff3a00b5
:1040e400890f2000fb0f20001300370088007800a0
:1040f40009407800b4ff07000005780088007800c4
:1041040009407800b0ff07000b056500d145800029
:10411400010545004800de0000054500da45880039
:104124000884e800e20f4400f0ff3a008904e80044
:104134008b8f5400020032000004eb00ebff3700c9
:104144007a1ab000da4588004f05be004f04be005d
:1041540000000600caff0700d0458000704a8800ae
:1041640000000600889fbe008a1f7800bc28ef006c
:104174000004eb00fa0f200008007800b5ff0700e8
:104184008004780008007800b2ff07008a84640085
:10419400e1458000818444004800de0080844400be
:1041a400e94588000804e800e01f2000800f54005f
:1041b400f1ff3a004f0578004f04be0000000600ee
:1041c400e8ff0700e1458000f01f200053ff0700cf
:1041d40000000600881f78003c48e2000d0034000f
:1041e4000004eb003bc8bf0088004400229a200072
:1041f400e28078000000fb000000440047ff070055
:104204000804e8003cc8bf000000fb00880f500011
:10421400f4ff3c003bc8bf000000fb0041652700e1
:104224003eff0700714280003bc8bf00c2832000ec
:10423400124178000201fb000000fb000000410075
:1042440036ff0700deff07006a8aa9004f047800e2
:10425400000006000040eb00b6fe0700d0518000cd
:10426400e1518000804d8800914d8800f05180001c
:1042740001528000a04d8800b14d8800105280008a
:1042840021528000c04d8800d14d880030528000fa
:1042940041528000e04d8800f14d8800cdff0700b9
:1042a400e202a90000000600881f78003b48e200f3
:1042b4000b0034000004eb0008004400018e2000d1
:1042c400e10078000800780014ff07000804e80003
:1042d4003bc8bf000000fb00880f5000f6ff3c0005
:1042e400715624000000eb000cff0700b4ff070028
:1042f4004f04780000000600889fbe008a1f7800e3
:10430400be28ef003b48e200120034000004eb003a
:10431400fa0f2000080078004eff070080047800a0
:10432400080078004bff07008a846400f145800090
:10433400818444004800de0080844400f9458800fc
:104344000804e8003bc8bf000000fb00880f5000d1
:10435400f0ff3c004f0578004f04be00000006004b
:10436400c028ef003b48e200110034008000eb005d
:1043740001007800f40f200000014000038e2000ab
:104384006301790084016100818041004811de00ed
:10439400828040000000e800b283200012417800cf
:1043a4000201fb00800f5100f3ff3c00014688002e
:1043b40000000600eaff070000468000104688005f
:1043c40000000600e628ef000012240040478800a1
:1043d4000000200001f8230050478800614788004e
:1043e400626626001248880062f62300224888008c
:1043f400335c2f0033488800830824004348880036
:1044040062662600524888006208240062488800d8
:104414000e29ef000304240083488800a299290090
:104424009248880092012400a24888001629ef00cf
:1044340003002400c3488800d0488800e14888006d
:104444001e29ef0000f02300004988006266260060
:104454001249880062022400224988002629ef00bc
:1044640003102400434988002a29ef008010240007
:1044740060498800007d200080498800a000200059
:1044840090498800f1002000a149880082022000a0
:10449400b249880032022000c249880092012000fb
:1044a400d24988003c29ef00f049880072032000bb
:1044b400024a880022032000124a8800214a880008
:1044c400c1032000314a880001052000414a8800c8
:1044d400504a880081072000614a88005069ef0033
:1044e4005169ef0063c4b300729e20000349780051
:1044f40053c0b300629e2000034978008000eb00a3
:104504001153880021538800315388004153880097
:1045140013c0b300a29620000349780083c0b300ff
:10452400b29620000349780093c0b300c2962000dd
:10453400034978006de9b700b0c0b3006ee9b70075
:10454400c0c0b3006fe9b70040c1b30070e9b70061
:104554007169ef009a69ef0040c0b3009be9b700ae
:104564009c69ef009d69ef0092ff070000000600c0
:104574003f48e20008003a004e08ab000600320053
:1045840030c0b30040e8b70010c0b30038e8b7004b
:104594003fe8b7001d00370038c8bf00e34f5000a4
:1045a40005003a003fc8bf00e14f500002003c0044
:1045b4003f68ec00150037003fc8bf00e24f5000d1
:1045c40012003a006acabf000038a3000f0032008c
:1045d4003bc8bf000000fb000000e8009dfe070090
:1045e40041652700810f50000100320036fa0700b0
:1045f40030c0b3003fe8b700e6c9bf00e54f500044
:1046040002003a0020c0b30040e8b70000000600f2
:104614004027a9004087a90041e7a90041c7a90094
:1046240040e7a90040c7a900000006006d4aa800a1
:10463400154f8000e98f520003003600e229ef0095
:104644008002eb00120037000500e0001000320089
:10465400050278008000eb000043eb0017c0b300b4
:104664007681400002014100239a20006301790011
:10467400820f500001003a00074378008100e800ef
:10468400848f5000f6ff3a000604e00009003a0067
:10469400c1072000810f500006003e00f680420052
:1046a40081804000229a200000b178008502e80051
:1046b400154f8800000006006ecabf000008a30062
:1046c40003003a0080c0bf000018a30002003200bb
:1046d400d0002000d5ff07006ecabf000018a30059
:1046e40003003a0080c0bf000028a300020032008b
:1046f400f0002000cdff07006ecabf000028a30011
:1047040003003a0080c0bf000038a300020032005a
:10471400e0002000c5ff07006ecabf000038a300f8
:1047240003003a0080c0bf000048a300020032002a
:1047340000012000bdff07006ecabf000048a300af
:1047440003003a0089c0bf000038a3000200320011
:10475400c0002000b5ff07006ecabf000058a300c8
:104764000200320010012000b0ff0700f60ae20048
:104774000200320010c0b30040e8b700f62aef0090
:1047840000f02f008020b6008960a9000000060018
:1047940040c7bf000018a30002003200300120000f
:1047a400a2ff070040c7bf000048a3000200320078
:1047b400400120009dff07004147e20002003d0048
:1047c4005001200099ff070041c7bf000068a30003
:1047d400020032006001200094ff07004047e2001d
:1047e40002003d007001200090ff070040c7bf0099
:1047f4000068a30002003200900120008bff070034
:1048040083ff07000000060050a52a00f40ae30015
:1048140001003a00deff070050a52a00a0578800d7
:10482400f62aef007aff0700000006004dfe07009d
:10483400f01f200007fe0700800078000000eb0056
:10484400e2458000810f510004003200a0022000e4
:1048540076ff07006ccaa8001000200000000600c4
:10486400889fbe00f1ff0700800078000000eb0085
:104874000100e00018003a003c48e2000d0034005a
:1048840000047800299a20003bc8bf000000fb0008
:1048940000004400effd07008800440080b4780065
:1048a4000804e8003cc8bf000000fb00880f50006b
:1048b400f5ff3c003cc8bf00b18320009140780064
:1048c4008100fb000000fb0000804000e1fd0700c8
:1048d40070428800100020004f04be000000060053
:1048e4003bc8bf000000fb00dafd0700416527005c
:1048f400810f500001003a00d9ff070000000600b4
:10490400dffd07000000eb00d1458000724a800003
:10491400810f5100040032009002200043ff070081
:104924006ccaa80010002000000006008cfe0700de
:1049340071fe07000000eb00f14580000246800094
:10494400810f510004003200c002200037ff07002d
:104954006ccaa8001000200000000600889fbe005a
:10496400b2ff0700800078000000eb000100e000c7
:1049740013003a003b48e2000b00340000047800c6
:10498400098e200008007800b2fd0700880044006a
:1049940080b478000804e8003bc8bf000000fb00b6
:1049a400880f5000f7ff3c0082fe0700dfff07007e
:1049b40000f0a7000000ea000000e9004f00de005c
:1049c4004f04be000000060065fe07000000eb0077
:1049d4001146800002468000810f5100030032001e
:1049e400b002200011ff07001000200000000600a4
:1049f400881f780092fa070000047800e10f540041
:104a040006003400a001200008ff07000804440049
:104a14004086200008044000000ceb004f0478009e
:104a2400000006000e00fa00889fbe008a9fbe00a8
:104a34008c9fbe000005be000200780080fa0700cb
:104a4400000f78008000780001804000418620003b
:104a5400808040000000eb00800878001e01780090
:104a6400c210dd0042852000810041006011b800c1
:104a74008288be00018820001e02780080707a00bf
:104a84006720b90005c2b3000487200005727800ce
:104a94000a00be00fdf107000000e00006003d0032
:104aa4000bf0a2001e0178006710b900d3c2b30056
:104ab4000287200003717800f2ff2300c361240001
:104ac4000a00be00f3f107000000e0000800340013
:104ad4001e0278006720b900f3c3b30002872000e8
:104ae40003717800faff2300cb6124000d00370026
:104af400f226210033a823000a00be00e3f10700d8
:104b04000000e00007003d001e0178006710b900b6
:104b1400c3c3b3000287200003717800fa26210082
:104b24003ba823001e0278004220dd0048852000b7
:104b34000004440002002000a34724000a00be0031
:104b44001cf30700008cbe009e007800018040002a
:104b540041862000008040001001e80042079800d0
:104b640002087800e80f51003d003e001e02780064
:104b74004220dd0041852000008040001004be007a
:104b840002007800100798006720b900000178003f
:104b94005207980050872000000041003007980019
:104ba4000c0020000d1224001e00900060079800e5
:104bb4001a0798002b0798004e0590000100370053
:104bc4006a079800e50f550005003a00e4c2b300f7
:104bd4003e019000044978006000200060079800be
:104be4000800be00adf1070080457800de009000ab
:104bf4006e01900002804000048720000000420003
:104c040001c3b30001c845000205e8000b00fb0026
:104c1400cf80de00ddf107000001be000800be0009
:104c2400f6f107000c01be00c1f307000004be004a
:104c3400e80f5500e2ff36001e0178000b467800ad
:104c44001e059000ae0590004210dd004185200055
:104c5400008040000888be00008820000c707900a5
:104c64001e027800040042004186200000804000bb
:104c74000008eb00040078005dff070011c0b300da
:104c8400408820001e017800017079000200410074
:104c94004d862000808646006710b9000002780027
:104ca4005407980009c3b3002f0037000804e80034
:104cb40050467800894f560002003200880e780072
:104cc40003003700e20f5400f8ff3600880e780026
:104cd400608820009e00780060c078000004e00036
:104ce4000e00320000c2b300804f560005003200af
:104cf400d0c2b300804f560003003a000100780090
:104d040026fa07009d0ee8008040eb006088200032
:104d14001e01780001707900030037001e0078003e
:104d24001efa07009d0ee8005e0290001d0042007e
:104d34000187200061407800894f50000a0032004a
:104d4400d1c2b300814f50000700320001c2b3004a
:104d5400814f5000040032008040eb00e0872000c7
:104d64001e017800017079001d047800e80f5400da
:104d740019003e005e0290000800420001872000f6
:104d840061467800894f5600d1ff3a00e087200041
:104d94009e00780060c078000004e000ccff3a0078
:104da400e20f5400caff3e0002002000a347240083
:104db4000a00be0035f107000000e000c4ff3d001a
:104dc4008800e8005e01900081004100f086200028
:104dd40000804000b5ff37001e0278000040eb0061
:104de400e187200080707a004188200080707a007a
:104df4004f06be004f05be004f04be000080fa00ff
:104e040000000600889fbe008a1f78008004780096
:104e1400010078008af9070000047800080078008f
:104e2400aef9070008007800f1fe070011c0b300d6
:104e34004088200001707c000800440001862000a6
:104e4400008040000008eb00194078000004e000f6
:104e54002200320088004400c2852000e2807800ed
:104e6400c203200002c1b90002814000f3a6200061
:104e740080717900a0032000808f500017003e004d
:104e84008000eb0008004400c385200080814100bd
:104e94000586200080824200faa62000c703200075
:104ea40007c3b90086037800a60320000400370076
:104eb4000082430002757a00860f500007003e000e
:104ec4001300e800800978008100e800810a780076
:104ed400594178000204e000f5ff3a008040eb00fd
:104ee4004088200001707c004f0578004f04be000c
:104ef4000000060052f9070080007800a01b29007a
:104f0400c0ff070000000600889fbe008a9fbe0005
:104f14008c1f7800800578000100780048f90700ac
:104f24000004780088004400a28a200001014100a6
:104f34000000eb0000097800228a20008100410073
:104f4400800878006659b9007842b90082054200a9
:104f5400880444006a8a200009054500cc852000a5
:104f64000906460000804500a008b000018e20001c
:104f7400614078000080fb00000d7800eb0f5000ca
:104f840003003e0012c0b3006188200082707c00e0
:104f9400ec0f500004003a0012c0b300e187200077
:104fa40082707c00270037000000e0004d003200d2
:104fb400b10f2000810f500022003600d10f2000d5
:104fc400810f50001000320004003e00c10f200089
:104fd400810f500017003a0007003700e10f20004e
:104fe400810f50000c003200f10f2000810f50009f
:104ff40010003a000c00370088007800209520004b
:1050040080ff07000b00370088007800809520009f
:105014007cff07000700370088007800e095200037
:1050240078ff0700030037008800780040962000ce
:1050340074ff070011002000a08a200001b07c004a
:1050440022003700f40f500007003a00880078006f
:10505400501d29006bff070011002000a08a2000ca
:1050640001b07c0019003700f40f500017003e0017
:105074004200dd00a19e20000101400012007800e2
:1050840092009000a2702d0033c22300e4f00700c8
:105094000801780063fe07001c8ee9001a007800fe
:1050a4000000400001422900610078008800780077
:1050b40054ff070088007800801d290051ff070075
:1050c40011002000a08a200001b07c00218a200069
:1050d400898040001100e80080087800e50f500046
:1050e400a0ff360008004400a18a20006100780077
:1050f4000000e00002003200080078000af907000e
:105104004f0678004f05be004f04be0000000600a5
:10511400889fbe00caf807008004780000072000ba
:1051240009004000018e2000614078000004e00086
:10513400350032002088200060c07c000004e000bc
:1051440031003a0040c8bf00e54f50002e003a003d
:10515400e08a200060c07c000004e00027003a00e0
:1051640009804400e8892000000444008900780094
:105174001800780064ff070018007800c248dd00ba
:1051840080804000a10bb000028e2000e2c07800b5
:105194008140e900e28a200001f17c0003003b0029
:1051a4000041eb00e18a200082f07c00e30f500014
:1051b4000d003e006601b900784ab9008200420041
:1051c400a108b000028e2000e2c078000104e000d3
:1051d4000500320089844400e18920008980400070
:1051e4008008e8000800370089844400e089200032
:1051f400090040000008eb00030037000040e9000c
:10520400e18a200080f07c004f04be00000006000c
:10521400889fbe00800478000100780088f80700a9
:10522400000478008800780009007800f5fe070083
:1052340008007800bcf807000800780084f807002c
:105244004f04be0000000600889fbe008a9fbe0077
:105254008c1f78008004780001047800020678002e
:105264000300780076f80700000578008a007800cb
:10527400a01d2900e6ff07008c0f54000d003c0020
:105284008805e900c25ddd008b854400a91d290065
:105294000a0178005b00be00e2fd07008a00780086
:1052a40009007800d7fe07000804e800880f5600bc
:1052b400f7ff3d008a007800501d2900d4ff070045
:1052c4004f0678004f05be004f04be0000000600e4
:1052d400889fbe008a9fbe008c1f7800000678005d
:1052e40001047800820578000300780054f8070070
:1052f4008004780089007800a01d2900c4ff0700fd
:105304008b0f54000f003c000805e9000a05450016
:105314000a054600ac1d29005a007800cf80de0043
:105324001af0070009017800befd07008900780023
:105334000c007800b3fe07000804e800888f5500cd
:10534400f5ff3d0089007800501d2900b0ff0700db
:105354004f0678004f05be004f04be000000060053
:10536400889fbe008a9fbe008c9fbe008e1f78005f
:10537400800478000100780031f807000004780008
:105384000800780055f807000800780098fd070029
:105394004240dd004c49de008186200082707800a6
:1053a400918620000100400001f02000818064000b
:1053b400c888de00014878004240dd00a186200054
:1053c4000080400089007800010fb200c488de002c
:1053d40001487800c240dd00b08620000080400013
:1053e4006fc8640011c0b3004088200001707c00c5
:1053f40008004400c185200061007800c203200039
:1054040002c1b9008200400003c3b300f2a6200029
:1054140003f17800a1032000810f500004003e0036
:1054240088004400c2852000810041008008e80013
:1054340008004400c185200061007800c2032000f8
:1054440002c1b9008200400083c7b300f2a6200065
:1054540003f17800a1032000810f500004003e00f6
:1054640088004400c2852000810041008008e800d3
:105474004240dd007a8620000a054000bc862000f8
:105484000006460008004400cb85200080854500c6
:10549400fda62000c003200000c0b900000778006a
:1054a4009b0478005a00fb0018f8070089004700a5
:1054b40080f67800a0032000808f540001003e0095
:1054c400890de8008c0f5500f5ff3a008040eb0091
:1054d4004088200001707c004f0778004f06be0012
:1054e4004f05be004f04be0000000600889fbe00aa
:1054f4008a9fbe008c9fbe00d1f70700000478008d
:1055040088007800d01d290041ff0700104f80005b
:10551400ea0f50000300360088007800101f2900ad
:105524003bff0700e209e20004003a00880078002b
:105534003020290036ff07002f0037000800440000
:10554400a1892000008040000008eb005b212900b5
:1055540008004400a989200080844400bc0720007e
:105564006d6c290008007800b9f7070088007800fe
:105574000b00780023fe0700990078007680400035
:10558400000040002a9a20006a0078008800780011
:1055940073ff070088007800c021290019fe070066
:1055a4009900780076804000000040006a0078008e
:1055b4008c0f500006003e000000e900000040008f
:1055c4006d007800880078000efe070003003700a5
:1055d40088007800d06b29000afe07008800780054
:1055e400501d29000aff07001900e800800c78000c
:1055f400e209e300dbff3e000800780094f70700af
:1056040088007800501d290001ff070088007800f9
:1056140010222900fefe070088007800402429009b
:10562400fbfe07008800780010262900f8fe07001a
:105634000005eb0019c0b3004b272900ac26290054
:105644000980fb004e08b600040032008800780090
:105654000c007800ebfd0700030037008800780099
:105664000b007800e7fd07000a05e800e60f550087
:105674000200320089c44400f1ff3700880078003a
:10568400501d2900e2fe07004f06be004f05be0074
:105694004f04be0000000600d621ef004828ef00aa
:1056a400c828ef00619e200091407800e5cf5000ab
:1056b4000300320043c0b300629e20000349780017
:1056c40040e8b700d1e2a90000000600da21ef00ab
:1056d400d821ef00d621ef00e2c2a900d1e2a9004f
:1056e4004828ef00f26aef0000000600f7ff070009
:1056f4006ccaa800b0002000ccfb07000000060024
:10570400889fbe0018518000295180006011b800a4
:105714000800be00ddee07006011b8000000e000e4
:1057240002003d000801be0003f0a20030498000e1
:1057340041498000d5ee07000000e00009003d006b
:1057440050468000e50f5000040034005000200053
:10575400b6fb0700e5ff0700ca28ef00ca28ec00e3
:1057640005003700504680000000e00002003400cd
:105774000000e9005046880018518000295180003b
:10578400f0488000014980001249800023498000cc
:10579400e7f007000001be000800be00bdee0700f0
:1057a4000000e00003003400600020009ffb0700bd
:1057b400ceff07004f04be0000000600f28747003a
:1057c400889fbe008a9fbe008e1f780060408000c4
:1057d400714080000200200003e02300d4f00700a1
:1057e4006040880071408800604080007140800003
:1057f400020020000370240000ef070060408800ce
:1058040071408800604080007140800002002000e8
:1058140003802300c6f007006040880071408800c0
:1058240060408000714080006241800073418000cc
:10583400bff007006040880071408800604080002d
:10584400714080005852800069528000020020009c
:1058540083142400b6f007000801be00f0ee070030
:1058640010518800215188006055b8006a408800b2
:105874007b4088008040800091408000020020002e
:1058840003e02300aaf007008040880091408800cc
:1058940080408000914080000200200003702400ba
:1058a400d6ee070080408800914088008040800048
:1058b4009140800002002000038023009cf0070038
:1058c40080408800914088008040800091408000a2
:1058d400624180007341800095f007008040880099
:1058e4009140880080408000914080007852800080
:1058f4008952800002002000831424008cf00700e9
:105904000801be00c6ee07003050880041508800f0
:105914008a4088009b4088004e08ab00010032009a
:1059240077ff07007a8757000004eb0029a52000c1
:105934000b8e20004245dd000a8544001a00be009b
:1059440082418000934180009aef0700008dbe00e1
:105954006acabf000068a300080032004240dd00ac
:10596400008044001000be002240800033408000cc
:1059740090ef0700008fbe000c0037004245dd00a9
:105984000a8044001000be002240800033408000a2
:1059940088ef07006e0545000a8545001a01780066
:1059a4009a0190009eee0700008fbe000804e800f4
:1059b40064074700e40f5400deff3a006acabf00e0
:1059c4000068a300110032003fb09700cfb09700e9
:1059d40050508800615088005fb09700efb0970086
:1059e40070508800815088007fb097008fb897006e
:1059f40090508800a15088001fb89700afb8970056
:105a0400b0508800c1508800250037003fb497008b
:105a1400cfb49700d2cc2c00c3d423000800be001e
:105a24007fee070050508800615088005fb59700f2
:105a3400efb597000801be000a00be006fee070034
:105a4400d2cc2c00c3d4230075ee0700705088001c
:105a5400815088007fb497008fbc97000a01be0074
:105a64000800be0065ee0700d2cc2c00c3d423008e
:105a74006bee070090508800a15088000801be001a
:105a84001fb89700afb897005cee0700d2cc2c008b
:105a9400c3d4230062ee0700b0508800c1508800d0
:105aa4006011b80092528800a3528800b252880054
:105ab400c3528800d2528800e3528800f252880010
:105ac40003538800505080006150800054ee07005a
:105ad400725080008350800051ee07009250800085
:105ae400a35080004eee07000001be00b0508000bd
:105af400c15080004aee0700904f8800a14f8800f3
:105b040040408000514080008241800093418000e9
:105b140028ef070040408800514088006acabf004f
:105b24000068a3000800320040408000514080001b
:105b340022408000334080001eef07001050880090
:105b4400215088000a003700404080005140800006
:105b5400224080003340800016ef0700f2478000a7
:105b6400034880002eee0700105088002150880062
:105b74006044b8004840880059408800a040800034
:105b8400b1408000824180009341800009ef07000a
:105b9400a0408800b1408800a0408000b14080004f
:105ba400f2282c0053ef230014ee0700a0408800d5
:105bb400b1408800a0408000b140800042722900ba
:105bc400f3c72300fbee07003051880041518800e1
:105bd400a8408800b9408800c0408000d1408000bf
