:020000040000fa
:080000000001040000000000f3
:020000040000fa
:04000c00cc01000023
:020000040000fa
:04001000dc0100000f
:020000040000fa
:04001400d401000013
:020000040000fa
:04001800e4010000ff
:020000040000fa
:04002400f4010000e3
:020000040000fa
:0400280010090000bb
:020000040000fa
:04003400ce0a0000f0
:020000040000fa
:04004000f8050000bf
:020000040000fa
:04004c008e0d000015
:020000040000fa
:04005000500200005a
:020000040000fa
:040054003a09000065
:020000040000fa
:04005c00c8010000d7
:020000040000fa
:04006000c6020000d4
:020000040000fa
:04006800e8080000a4
:020000040000fa
:04007c007a04000002
:020000040000fa
:04008000a2020000d8
:020000040000fa
:04008800620d000005
:020000040000fa
:04008c00fa01000075
:020000040000fa
:0400d400ec0100003b
:020000040000fa
:100200002fc120000eff20000e018800000000001a
:10021000000020000000e000020032000001200089
:100220002002880014000700520607000000e000ca
:1002300003003a00201825000100200002003700ca
:100240000000200001002000810f7000010032003a
:1002500014000700000020000000e000020032004f
:100260000000020000000000f85002000000000042
:100270000040da000000fe004440a90040bc20001d
:100280000000e0000300320000002000a001880010
:100290004440a800000006008a1f78008b1f7800e9
:1002a0000000060091018800800478000000eb0047
:1002b0001a003700e284440032a0b4009905ba0065
:1002c000e284440032a0b4009906ba00e2844400fb
:1002d00032a0b4000006eb00476fde00fd07b2005d
:1002e000636ce10003003a00ebff07000000eb0045
:1002f0000a003700606ce10004003a00005deb008a
:100300008b05e900fdff3e00040037006168e10055
:10031000010032000086eb000b00070019c7ba008d
:100320001905ba000e04e00003003a000a00e000dc
:10033000e0ff3a0000000600fe07b2009e018800c0
:100340008a047800f5ff3700395dba008b05e900b3
:100350000c003200295dba008b05e900080032006c
:100360000c00e00003003a00e284440032a0b40034
:10037000f5ff370019ddba008b05e900faff3a00f6
:100380008904e800e184440032a0b40000000600c3
:1003900085a0a90000400600f80aa8008020a90056
:1003a0000000fe0000400600f82aa8008040a900d6
:1003b0000000fe0000400600f84aa8008060a90086
:1003c0000000fe0000400600f86aa8008080a90036
:1003d0000000fe0000400600f88aa8008960a9001d
:1003e0000000fe0000400600f8aaa8000000fe0081
:1003f000004006003600f800809fbe00829fbe00cd
:10040000849fbe00869fbe008720a90010002000a8
:100410003e110700f58aa80019c2bf000018a3000a
:1004200017003a0091438000400620000100400080
:1004300092af2000624078000004e000100032001b
:100440009948e2000e003200d2b52000028140003f
:100450000000fb00d01088008100e80019c2bf0036
:100460000018a30005003a00524078000004e000a4
:10047000f7ff3a009143880001003700914388005c
:10048000100020000b1807004f03be004f02be00f3
:100490004f01be004f00be003600f90000400600cc
:1004a0003600f800809fbe00829fbe00849fbe0081
:1004b000869fbe008540a900100020001311070090
:1004c000f58aa8000fc2bf000018a30015003a006b
:1004d0008143800090af200060c078000004e000fd
:1004e000100032009848e2000e00320092af200067
:1004f000028140000000fb00801088008100e800bd
:100500000fc2bf000018a30005003a005240780057
:100510000004e000f7ff3a00814388000100370043
:10052000814388000000eb00e21707004f03be0084
:100530004f02be004f01be004f00be003600f90062
:10054000004006003600f800809fbe00829fbe007b
:10055000849fbe00869fbe0086c0a90010002000b8
:10056000ea1007000000eb00ee1907001000200061
:10057000ec1907004f03be004f02be004f01be0042
:100580004f00be003600f900004006003600f800bb
:10059000809fbe00829fbe00849fbe00869fbe00db
:1005a00085c0a900a00020000140fe000000e90075
:1005b000fdff3a000842e20009003d00418a2000a8
:1005c000914078008180fb00100420005516070040
:1005d00008e2a900a468ef000642a800bf003700a7
:1005e000a4c8bf000080fb008000eb006200500048
:1005f000e0805800ea0f5000e08f5800b4003e0041
:10060000006001000a0037001f0037002700370094
:10061000300037003c003700450037004900370004
:100620005a0037006b0037009d003700a6003700e6
:1006300006c2bf000008a30006003a000602a80098
:1006400030c0b300a4e8b70000012000406088007b
:10065000a200370008c2bf000038a3000500320026
:10066000110f2000f00320002e160700a468ef00f1
:100670009a00370021002000f0032000291607000f
:10068000a468ef00950037009ec8bf000080fb0003
:10069000000040001010880040c0b300a4e8b7007c
:1006a00000012000406088008c0037000942e20011
:1006b00006003d004100200030042000191607000c
:1006c000a468ef0008acef008400370050c0b3000e
:1006d000a4e8b7009fc8bf000080fb00101088008e
:1006e0000001200040608800f5cabf000058a30048
:1006f00003003a0090c0b300a4e8b70077003700c9
:10070000a468ec00750037000942e20006003d00d5
:10071000610020003004200002160700a468ef00ea
:1007200008acef006d00370070c0b300a4e8b7005c
:100730000622a800a468ec000001200040608800a8
:1007400066003700f5cabf000058a30005003a0054
:100750009ec8bf000080fb00000040001010880011
:10076000050037009ec8bf000080fb00000040006d
:100770000000a0001010880090c0b300a4e8b700eb
:100780000001200040608800540037000942e20068
:1007900006003d009100200030042000e115070014
:1007a000a468ef0008acef004c003700a0c0b30015
:1007b000a4e8b7000001200040608800f5cabf002f
:1007c0000058a300030032000662a800f5caa80082
:1007d00042003700f5cabf000058a3001c003200d9
:1007e0000045800011458000810f50001800310045
:1007f000fd0f500016003e0052af2000124178005d
:100800000268a3000f0032000310800012bc200019
:10081000037178008100e900810f500004003a0064
:1008200006a2a800c0c0b300a4e8b70001003700ca
:1008300006a2a9000682a800f5caa900a028ec001b
:1008400026003700f5caa8000662a800230037007a
:10085000f5cabf000058a3000e003a000145800011
:1008600010458000810f50000a003600fd8f5000b7
:1008700008003e0010bc200060c078000080fb0033
:1008800010108800a468ed008100e8000145880090
:1008900012003700a468ec000001200040608800ce
:1008a0000942e20008003d00418a200091407800a2
:1008b0008180fb00300420009a150700a468ef0037
:1008c00008acef000500370006a2a9000642a80008
:1008d000a468ef0008acef0007e2a9004f03be00d8
:1008e0004f02be004f01be004f00be003600f900af
:1008f000004006003600f800809fbe00829fbe00c8
:10090000849fbe00869fbe00889fbe008a9fbe0057
:100910008c9fbe000800fa0086a0a90010002000ed
:10092000fa0f070054c8bf00e44f5000090034001c
:10093000f7cabf000048a300040032004d68ef0072
:1009400050c0b30005ecb7000f003700a50e07003c
:100950000d0037007e09e2000b003500054ce20077
:1009600008003c00b0c3b30005ecb7004d48e200fe
:1009700002003c00f62aa800030037004d68ed0095
:1009800001003700056ced00c8538000d95380008a
:100990006011b8000800be00790407000000e00004
:1009a00001003c006044b800a0548000e0bf9f00fc
:1009b000b1548000f1bf9f002c5380003d53800054
:1009c000a0538000c0bf9f00b1538000d1bf9f00e3
:1009d000f4cabf000008a30026003200da4a8000f3
:1009e000eb4a80000200200003f82b000a00be0042
:1009f000630407000000e0001e0034000c01be008c
:100a00006fb89700ffb89700840607000006be0085
:100a10000801be004fb89700dfb897007f060700b7
:100a20000001be000c00be00af0407000001be00c4
:100a300003f0a2000a00be00510407000000e0001d
:100a40000c003400064ce20008003c004e48e20076
:100a500003003c00f40aa900f44aa8000300370090
:100a60004e68ed00b0c3b30006ecb700066ced00b5
:100a7000040037008049ed004ee8b700b0c3b30072
:100a800006ecb7001047800081702000810f5000f5
:100a90000b003a004185200091407800e1cf5000e2
:100aa00007003400db150700e10f500002003a0098
:100ab00010c0b30054e8b700e228ef00060037008a
:100ac0004185200091407800e1cf500002003400c1
:100ad0000000e8001047880054c8bf00e34f5000f2
:100ae0001100320054c8bf00e14f50000e00340026
:100af000e208e2000c003200fa1507000000e000f6
:100b000009003200861c070020478000e40f5000d7
:100b10000300340010c0b30054e8b70002003700ef
:100b20000000e8002047880054c8bf00e34f500091
:100b300025003a00f04a8000e10f500022003c00fe
:100b4000f5cabf000008a3001f003a0049c8bf0053
:100b5000e44f50001c003400805680009156800005
:100b60000200200003f02300050407000000e0005d
:100b70000200340020002000f04a8800a0568000c7
:100b8000b15680000200200003f02300fc030700a0
:100b90000000e0000200340030002000f04a88002d
:100ba000c0568000d15680000200200003f02300d0
:100bb000f30307000000e0000200340040002000c2
:100bc000f04a8800f01307000080fa004f06be00cc
:100bd0004f05be004f04be004f03be004f02be00d3
:100be0004f01be004f00be003600f9000040060075
:100bf0003600f800809fbe00829fbe00849fbe002a
:100c0000869fbe00889fbe008a9fbe008c9fbe004c
:100c10008e1f780084c0a900100020003b0f070041
:100c20006468ec00406080000000e00003003400d5
:100c30000000e900406088000a0037000000e00082
:100c400008003a00418a2000914078008180fb0032
:100c500000042000b314070008acef00a468ef0004
:100c600007e2a900e0c2bf000018a30003003a0099
:100c7000400620000060880006003700000ce200fb
:100c80000400340054c8bf00e34f5000010032009c
:100c9000002ced0084c9bf00e14f50001f0032005e
:100ca00003003c000004e000060032005100370061
:100cb000e24f500024003200e34f50004d003a0054
:100cc00037003700e0c2bf000018a30011003a004f
:100cd00057c8bf00f04f500009003a00f4cabf00e7
:100ce0000008a30002003200f40aa9000100370046
:100cf000f40aa80010c1b30057e8b7003d00370060
:100d000057c8bf00ef4f50003a003c005768ec0056
:100d1000380037005768ef0036003700e0c2bf00e8
:100d20000018a30005003a00f4cabf000028a30081
:100d300002003a00f40aa8002e003700f40aa900c5
:100d4000f44aa9002b003700a8538000b953800053
:100d500002002000030824000800be0088030700ea
:100d60000000e00005003400f4cabf000028a30022
:100d700002003a00f40aa8001e003700020020001a
:100d800003f823000800be007b0307000000e0001a
:100d900018003d00f40aa900f44aa9001500370024
:100da000a8538000b95380000200200003f82300fc
:100db0000800be00700307000000e00005003d00d1
:100dc000f4cabf000028a30002003a00f40aa800f9
:100dd0000800370002002000030824000800be00bd
:100de000670307000000e00002003400f40aa900d5
:100df000f44aa900f4cabf000008a30004003200ae
:100e000047c8bf00e14f500001003c004768ec00bc
:100e100048558000595580006011b8000800be0098
:100e2000570307000000e00017003400f4cabf00b9
:100e30000008a30014003200a0548000b1548000c8
:100e4000d80d07000001be000800be004a030700dd
:100e50000000e0000c003d006208ab000a00320018
:100e600046c8bf00e84f500006003400f40aa9004d
:100e70008000eb00f00220002a140700f6caa80048
:100e8000010037004668ec005e09e20018003400fb
:100e90000004eb00aaa520004b0020004241dd0029
:100ea0002202b0000201450012007800920090007a
:100eb000f2498000034a80002f0307000000e00091
:100ec00007003d006208ab0005003200f40aa900eb
:100ed0008800e8000b00780012140700f6caa8008a
:100ee0000804e800f04a8000880f5000ebff3c0047
:100ef000005580001155800082538000935380007c
:100f000046050700605488007154880048c8bf0037
:100f10000005eb00e74f500026003c000a04780073
:100f2000cbab2000aca520004242dd00048545008b
:100f30001a00be002402b00004024600140178002a
:100f40009401900071030700008dbe000804e800c2
:100f5000e40f5400f4ff3a00024180001341800086
:100f6000c0538000d153800068030700004188000f
:100f7000114188006241800073418000a0548000cc
:100f8000b15480006103070060418800714188000e
:100f900082418000934180002053800031538000c3
:100fa0005a03070080418800914188004868ec009e
:100fb00046003700cdab20000800200009e02300e8
:100fc000ceac20004256dd008c8546001b00be00e2
:100fd0000801be0011050700808dbe000c06470009
:100fe0003b1e78002b1678000a05e800e40f550038
:100ff000f4ff3a000041800011418000020020000f
:1010000003e0230005050700004188001141880026
:101010000041800011418000e0408800f1408800dc
:1010200060418000714180000200200003e0230045
:10103000fa04070060418800714188006041800027
:101040007141800000558800115588008041800062
:10105000914180000200200003e02300ef0407001c
:10106000804188009141880080418000914180004a
:1010700080538800915388006000b800e0558800d4
:10108000f1558800005688001156880020568800c7
:10109000315688004056880051568800004188002b
:1010a000114188008041880091418800604188009a
:1010b000714188004868ef00da1b070049c8bf008b
:1010c000e44f500001003c004968ec0000558000ee
:1010d000115580008253800093538000cf04070095
:1010e000300d07000004be00605380007153800083
:1010f0000801be00a00207000000e00002003d0061
:101100006853880079538800a8548000b95480003f
:101110000800be00230d0700f226210033b0230093
:10112000970207000000e0001100340012052a00b9
:10113000138123000800be00b80407000004be00ad
:10114000b04f8000c14f80000801be00ef020700d1
:10115000b04f8800c14f8800d24f8000e34f80001d
:101160000800be00e9020700d04f8800e14f880068
:1011700003ccbf000040400003ecb70003ccbf002d
:10118000e84f50000800340010c0b30003ecb70073
:10119000f5cabf000018a30002003200f52aa9001a
:1011a00001003700f52aa8004f0778004f06be005f
:1011b0004f05be004f04be004f03be004f02be00ed
:1011c0004f01be004f00be003600f900004006008f
:1011d0003600f800809fbe00829fbe00849fbe0044
:1011e000869fbe0010002000c80d0700f018070001
:1011f000f6caa8008000eb00900320004913070006
:10120000f61107008600a9004f03be004f02be0082
:101210004f01be004f00be003600f900004006003e
:101220003600f800809fbe00829fbe00849fbe00f3
:10123000869fbe0010002000b40d0700dc180700d8
:10124000f6caa8008000eb00a003200035130700b9
:101250006228a800e11107008400a9004f03be0026
:101260004f02be004f01be004f00be003600f90025
:10127000004006003600f800809fbe00829fbe003e
:10128000849fbe00869fbe00889fbe008560a90027
:10129000dc82a800100020009c0d07008d1d0700b7
:1012a0004ac8bf00e74f50006c003c00f6cabf00c0
:1012b0000038a3005400320000148000a8408000d1
:1012c000b94080008000eb006e0207000801be00fc
:1012d0008e020700a0408800b140880010148000f2
:1012e000c8408000d94080008000eb006502070004
:1012f0000801be0085020700c0408800d140880078
:101300003014800048418000594180008000eb008b
:101310005c0207000801be007c0207004041880013
:1013200051418800404180005141800020418800a7
:1013300031418800e8568000f95680004014800052
:101340008000eb004f0207000001be000800be0055
:101350006e020700e0568800f156880008578000aa
:1013600019578000501480008000eb0045020700f0
:101370000001be000800be0064020700005788009c
:10138000115788002857800039578000601480006a
:101390008000eb003b0207000001be000800be0019
:1013a0005a020700205788003157880048578000ac
:1013b00059578000701480008000eb003102070054
:1013c0000001be000800be00500207004057880020
:1013d0005157880080148000e8408000f940800068
:1013e0008000eb00270207000801be00470207004b
:1013f000e0408800f14088006208ab001500320030
:10140000c1190700130037006000b800a040880031
:10141000b1408800c0408800d14088002041880049
:10142000314188004041880051418800e0568800e1
:10143000f15688000057880011578800205788000f
:10144000315788004057880051578800e040880095
:10145000f14088004a68ec0029003700f6cabf0056
:101460000038a300070032000042800011428000d3
:101470006011b800050207000000e0000100320022
:101480008c180700f6cabf000038a3000100320024
:101490009f0c07004a68ef006208ab0007003200ab
:1014a000f6cabf000038a30004003200f6cabf002d
:1014b0000068a30001003a00b21b07006208ab00fd
:1014c000010032001f1e070054c8bf00e24f500049
:1014d00009003c00f6cabf000038a3000600320035
:1014e000000ce20004003a00a1e2a900dc82a9009d
:1014f000f66aa90001003700f66aa800a50d0700ea
:1015000054c8bf00e34f500005003c00000ce2004f
:101510000800340054c8bf00e34f500005003200fb
:101520006208ab000300320010c0b30009100700ce
:10153000130037006208ab0006003a00f5cabf008e
:101540000008a30003003a0040c0b30001100700e8
:101550000b00370054c8bf00e14f500006003200b6
:1015600054c8bf00e34f50000300320020c0b30056
:10157000f80f0700020037000040eb00f50f0700ee
:101580004f04be004f03be004f02be004f01be001d
:101590004f00be003600f900004006003600f8009b
:1015a000809fbe00829fbe00849fbe00869fbe00bb
:1015b000889fbe008a9fbe008c9fbe008e1f780051
:1015c000e48747008460a90010002000cf0c0700ca
:1015d000a1e2a800b8498000c9498000fd4a800006
:1015e0006168b900a40107000001be000800be0048
:1015f0008a03070040408800514088000a55800057
:101600001b558000504a8000614a8000724a800069
:10161000834a8000810307000200200003f42300b6
:101620007e0307000001be000a00be00540107004f
:101630000000e00002003400f4eaa80001003700d6
:10164000f4eaa9000007eb000d00e00038003400c8
:101650000e067800fcbf9f000a0020008b2c24009f
:10166000ceac20004260dd00000047001000be004c
:101670000a01be00400107000000e00004003d0038
:101680004260dd00000047001005be00fcbf9f0067
:101690000c06e8008d0f5600f2ff3a000005eb0043
:1016a0000a077800ccac20004250dd000000460064
:1016b0001001be000800be002f0107000000e0007e
:1016c00018003c00f5cabf000008a30015003a004e
:1016d000ffb897008a8f500012003200e10f5500ca
:1016e0000b00320003003c000a00e000060032005c
:1016f0000c003700e20f550007003200e30f5500e1
:1017000008003a00060037000e00a0000500370070
:101710000e10a000030037000e20a00001003700cb
:101720000e30a0000a05e8008d0f5500deff3a00dc
:101730000e42780063862000844978000ec2bf0004
:101740000018a3000b0032008000eb00d002200044
:10175000f41107000ec2bf000008a300040032000d
:10176000901080000ec2bf000008a300fcff3a00ea
:101770000e22a90018c2bf000018a3000b003200ff
:101780008000eb00e0022000e611070018c2bf0055
:101790000008a30004003200e010800018c2bf005f
:1017a0000008a300fcff3a001822a900e319070073
:1017b000ee1e0700e61b070054c8bf00e24f5000b2
:1017c00003003c001000200050478800f6caa90022
:1017d000b04f8000c14f8000720b07000004be00b4
:1017e000104f8800214f8800f4cabf000058a300a2
:1017f0005100320053c8bf00e34f50004e003a0082
:10180000fe4a80000e00e000180034000006eb00e5
:101810000a0020008b2c2400cdaa20004260dd00ad
:10182000008046001000be000a01be00d200070082
:101830000000e00003003d004260dd000080460043
:101840001005be000c06e8008e0f5600f3ff3a00ac
:1018500002002000632c24000a00be00c80007001c
:101860000000e0000f003400020037000a002000f2
:101870008b2c240004ccbf00e24f50000900320042
:10188000f04e8000014f8000d04f8800e14f88006b
:1018900020c0b30004ecb700f629ef00f829ef00f0
:1018a000130037000200200003f823000a00be00e6
:1018b000b10007000000e0000d003d0004ccbf00b7
:1018c000e24f50000a003a00f84e8800094f8800a5
:1018d0006000b800d04f8800e14f880014c0b3000a
:1018e00043c0200084497800b04f8800c14f880071
:1018f000d04f8000e14f80006011b8009e000700cb
:101900000000e00002003d00fa29ef00fc29ef0092
:10191000f84e8000094f8000d04f8000e14f8000da
:101920000801be00960007000000e000020034003d
:10193000d84f8800e94f8800f04e8000014f8000aa
:101940006011b8008c0007000000e00003003a00be
:10195000de29ef0000f82300004f8800fa4e8000d7
:101960000b4f8000d04f8000e14f80000a01be0085
:10197000cb01070002002000832c2400a7020700ef
:1019800000538800115388000855800019558000c5
:10199000f2282c0053c723000800be00780007007f
:1019a0000000e00032003400f4cabf000038a30099
:1019b0002f003200fc4f80000d50800002002000fc
:1019c000135624000800be00b50107000001be0048
:1019d0000c00be00cd0007000001be00f04f8800e3
:1019e000015088000a00be00630007000000e0000c
:1019f0001f003c00fe29ef00002aef00105080007d
:101a0000e10f4000020032000000e80010508800a2
:101a1000104b80006500b900cf80de009600070003
:101a20000004be006011b800530007000000e00091
:101a300002003a000800200009f823000801be0057
:101a40000000200001f82300950107000001be00fe
:101a50000000200001f82300a30007000001be00e1
:101a60000a00be006d020700f04e8800014f88009a
:101a7000fd1007008c0b07000000e000060032009c
:101a80005648e20004003400f4cabf000038a30046
:101a900001003a005668ed004f00b1004f07780092
:101aa0004f06be004f05be004f04be004f03be00f0
:101ab0004f02be004f01be004f00be003600f900cd
:101ac000004006003600f800809fbe00829fbe00e6
:101ad000849fbe00869fbe008700a90018c2bf0079
:101ae0000008a3000200320010002000591f070068
:101af00010002000850b0700a0c0b30056e8b70017
:101b0000380a07004f03be004f02be004f01be005f
:101b10004f00be003600f900004006003600f80015
:101b2000809fbe00829fbe00849fbe00869fbe0035
:101b30008520a9000ec2bf000008a30002003200e9
:101b40000000eb00431f0700100020006f0b070090
:101b5000a0c0b30056e8b700220a07004f03be003a
:101b60004f02be004f01be004f00be003600f9001c
:101b7000004006000000050014002000af033700fd
:101b8000f4ff2f00ad0337000001be004100070045
:101b90000470a70003f0a1006509b100160032002f
:101ba0000d0035006828e10006003500f0ff2f0029
:101bb000f1ff27000300e00013003b0001002800b4
:101bc0000000050000004000818048008502e90017
:101bd000fcff3a0008003700f88f420002003c008a
:101be0008000eb00000005008100d1000080d300e0
:101bf0008502e800fcff3a000300e00002003b0021
:101c000060001000e0801800000006000001be0027
:101c1000200007000470a70003f0a10003f8a30050
:101c200013003a006509b1001000320009003500c8
:101c30006928e100020035000100280000000500cd
:101c400000004000818048008502e900fcff3a0066
:101c500000000600f88f4200050035008100d10029
:101c60000080d3008502e800fcff3a000000060077
:101c70008000eb00000005004f89de008201780043
:101c8000890337006011b800970337000400200073
:101c90006a033700c70ade00f107b200f50fb20091
:101ca00008003200e1cf4200020032000170a000c3
:101cb00024000500810f70000100320004080500b7
:101cc00044000500810f700002003a001400050076
:101cd0008502e9000000400081c04800fcff3b0095
:101ce0000170a0002400050007f8270007836100a9
:101cf0000638e10004003a00f707200087836100fe
:101d00008703710001003a0003f0a200889fbe0023
:101d10008a9fbe008c9fbe00470ade000480a1009f
:101d2000c71ade000580a1000700280007856000b3
:101d300087856100f70f20000720e1009e00320038
:101d40000728e1009c003200010678000400e00052
:101d5000b4003200f7072000878060000170a00007
:101d60000500e000c0003200f70720008781610015
:101d70000370a000050652000f003a000b50e1006e
:101d80000b0032000308e10002003a000200e1000b
:101d90007e003200020450008384580004003100a9
:101da0000001fd008101fd008402fd008a05fd00a7
:101db0006044b800210037000520e10005003d0027
:101dc0000001fd008101fd008402fd008a05fd0087
:101dd000050652007a60e100050035000170a1009f
:101de0004722dd00848070008a8070006300370025
:101df0006044b800ef02660007ff2f000706660088
:101e00000500e00006003400f08312008714dd00b6
:101e10000511de00071bdd00060171008519de00db
:101e20007060e10005003500090478008204780044
:101e3000030178008001eb00700656000b50e100b2
:101e400003003a000200400083804800040037008d
:101e500060041400e0841c000200580083805800d5
:101e60000188a300060032008100d1000080d30069
:101e70008984d3000884d3000402e80027003700d7
:101e80000178a30025003a000100e00003003200c1
:101e90008186cf00698656000a0037008c0020003a
:101ea0000000e00004003a0009007800880478008f
:101eb0000004eb00700252008086cf000d06460041
:101ec0000c06e9007060e100060035008000780033
:101ed00009007800880478000004eb0070065600c2
:101ee000700252000c00e0000c0034008c08dd0091
:101ef000f00316000703de00868070000c00dd0092
:101f0000074bde00060070008c4cdd000743de004e
:101f1000868474000c44dd000c0252006120e10054
:101f200020003500610160000700280087816400ff
:101f3000f7ff270087836400070374000300e000b5
:101f40000600320082037300040032000000e80043
:101f5000e08048000188a3000e003a00f70f20003f
:101f60000720e1004a003d000170a1004722dd008a
:101f7000810072008a8070000000be004f06be0023
:101f80004f05be004f04be00000006006000b80010
:101f9000faff37008100d1000080d3000402e8007e
:101fa000eeff37000401780089017400a1010700e9
:101fb0008a807000f1ff3700f70107000702780000
:101fc0000001fd008101fd00f30107008702780098
:101fd000850372000778a300040032000001fd00b1
:101fe0008101fd0006020700e4ff3700850362005f
:101ff0000768a300080032000b50e1000300320024
:10200000f0ff2f00f1ff2700dcff37000001fd008b
:102010008101fd00d9ff37000468a300d7ff32001b
:10202000faff3700f8ff2700888360000b003a00b2
:102030000000e00009003a0083036400828373001b
:10204000020032000200be00ccff37000b50e1005e
:10205000ceff3a000200be00c8ff37001400200087
:10206000810064003eff3700f8ff2700888361008d
:1020700004003a000200e00002003a008c00780000
:10208000beff3700150020008301640039ff3700d0
:1020900001f827000000200081007500b7ff37001d
:1020a000889fbe008a9fbe008c9fbe001b00200040
:1020b0000202be00058668000600280006066600cb
:1020c0004709de00f20fb200820032000243e8004e
:1020d00080003200c729de00f30fb2007d0032001d
:1020e0000343e8007b003200f107b2000170a0005a
:1020f000f507b2000570a000c708dd004903de0047
:10210000868070004700dd00c72add004923de001d
:10211000868272004722dd0003055100040350004f
:102120008583580003003100000040008180480092
:102130000a05e9008c1f78008a9fbe000400500049
:10214000858058000402420085824a000000400059
:10215000818048000005eb000004be006033b80039
:102160000406be000d48e1005600310011000900d0
:102170004dccd8000c01b8000d02b800848141009c
:1021800060824a008283530003045c0084845c0004
:1021900060055d000a00e00025003a008005780037
:1021a0000d40e10049003100880078000700780008
:1021b000110009004d88d8000c01b8000d02b800cc
:1021c0008481410060824a006003110083835b00c8
:1021d00004045c00e0845c000900e00021003a0097
:1021e0004f01be000300e0002b003200e30160005d
:1021f000070673008c8171000100320064007000da
:102200004200de004e5edd000c007000c258de00b1
:1022100001e0a00083010700cf01780081807100f8
:102220004f06be004f05be004f04be000000060072
:102230008c8343000d044c00e0844c0060054d008d
:102240000000e9000a00e000d4ff32008c83430064
:102250000d044c00e0844c0060054d000000e900d6
:10226000ceff37000c0343008d834b0060044c000d
:10227000e0844c000000e9000900e000d8ff3200d3
:102280000c0343008d834b0060044c00e0844c0041
:102290000000e900d2ff37004200de004e5edd00a4
:1022a0000c007000c258de0001e0a000cf017800f1
:1022b0000300e000daff320060001000e080180048
:1022c000d7ff3700f0ff2f00aaff3700f0ff2f00e5
:1022d000b9ff37000404be002f010700870678000d
:1022e0000004fd008104fd002b0107000783660048
:1022f0000678a300030032000960a7000800be00b2
:102300002c0037000d78a300020032000800be0048
:10231000280037000778a30026003a0001f0a1004a
:1023200009f0a1000668a30003003200f1ff2700b6
:10233000f0ff2f00baff37000d68a3000300320042
:102340000800be008c807000b5ff37000768a3004e
:1023500007003a000648a30003003200f1ff2700ff
:10236000f0ff2f00aeff37000d48a300030032003e
:102370006000b8008c807000a9ff37000748a300f8
:102380000400320001f82700000020008c8070005b
:10239000a3ff3700760107000004fd008104fd0063
:1023a00002057800720107000802be008a01780069
:1023b00059ff37000160a0001202200082608800ef
:1023c00097ff37000100e000120032000500e00036
:1023d00010003200889fbe008a9fbe008c9fbe0006
:1023e0000006eb0001f8a3000300320060001000bb
:1023f000e08018000cf0a00005f8a30003003200f4
:1024000060021200e0821a000cf0a2008005eb00ce
:1024100041ff37006000b800020005000383680038
:102420000700280007036300470ade000480a100bc
:10243000c71ade000580a100f70f20000720e10089
:10244000420032000728e10040003200889fbe00b1
:102450008a9fbe008c1f7800f107b200f307b2001c
:102460000400e000640032000170a0000500e000fc
:10247000680032000370a00085054200eb07b10040
:102480000204b8000302b8008484440060854a0056
:10249000020ab800848444000a854a00030ab8008e
:1024a00004054500040033000804d0008984d200ec
:1024b0000a85d2008b05e9006158e1003d00350036
:1024c00002102000090161000308200089816100d9
:1024d000f70720008783640008867300c84cde007d
:1024e000c853dd00878474004855de000300e00017
:1024f0000600320082037600040032008904e800fe
:1025000060054d000a88a3000c003a00f70f200078
:102510000758e10044003d000a70a100c75ddd00de
:102520000a8575008a007300090078004f0678005c
:102530004f05be004f04be00000006000a05d10092
:102540008984d3008b05e800f0ff3700881f7800ee
:102550000604780090000700070278000001fd00e3
:102560008101fd008c00070087027800850372005e
:102570000778a300050032000001fd008101fd0085
:102580009f0007004f0478000000060085037200da
:102590000748a30003003200f0ff2f00f1ff2700df
:1025a000f8ff37000000200001f827008880700045
:1025b000f4ff3700880178004848dd008081710011
:1025c0004848de00c850dd0001007000c850de0041
:1025d000060478000b017800160007008880700060
:1025e000d2ff37000500e000050032001700200090
:1025f0003a0007009dff370081037000f9ff3a00a1
:10260000860078004f0678004f05be004f04be00dc
:102610000000050083037100f9ff3200270020004d
:102620002e00070094ff370001f827008680700015
:10263000f4ff37000100e0002600320061011100c4
:102640007810e10023003c006022b8007010e10027
:102650000400350080027800010078008000eb0063
:10266000700151000200e000090034007003110005
:10267000062add00822ade008603dd0087827200e2
:102680000200de00860bdd00070070008208de001d
:1026900084817100f4ff270004826200848171004c
:1026a00004002800848262006102600005f0a60038
:1026b0000000060004827100070032000000e800fc
:1026c000e0804800000006000002be006000b80084
:1026d000efff37006000b80000000600889fbe00d2
:1026e0000004eb006138e10016003a000100e00050
:1026f00008003a00c800de004800dd008800200025
:102700000100e00003003a00c800de004800dd00e0
:10271000680444008184cf00e9845400060034003a
:102720008908dd00f08314008703de0087807000d5
:102730000900dd0009044400610214004f04be00da
:10274000000006000300e00008003a00c811de00a7
:102750004811dd00880020000300e00003003a007b
:10276000c811de004811dd00680444008384cf00f6
:10277000e9845400060034008919dd00f083140058
:102780008713de00878171000911dd000904440010
:10279000e1021400e9ff37002700200001f0a70044
:1027a00017002000470bde00f60fb20004003200d5
:1027b0000643e8000a0032004702b30000000600aa
:1027c00001037800f607b2000603700002003a0029
:1027d0000703b300000006008702b30000000600f4
:1027e00001037800f607b200060370000200320011
:1027f0000770a000000006000760a00000000600af
:102800000478a300040032000578a300030032001e
:102810000168a30001003a000200be000160a000b0
:102820000000060081017000270032008002eb00ea
:1028300001f8a3000300320060001000e0801800df
:1028400015002000f407200002024200200034009e
:10285000f7032000870360000604200000036300e4
:1028600002082000000161004700de00c909dd0008
:1028700000807100c708de000600e000080032009a
:1028800087037100060032001000b0000180b00024
:102890000188a30002003200c108de000402e80043
:1028a000f107b200f30f20000320e10003003d0018
:1028b0004722dd00810072002900370001f827005f
:1028c0000000eb00260037006000b80000000600a2
:1028d000680212007f20e100020034006000b800ae
:1028e0001f0037006011b8007020e10004003500bf
:1028f00080017800010078008000eb007002520037
:102900000400e00009003400f00312000719dd00a4
:102910008419de000703dd00868171000400de00fb
:10292000070bdd00060070008408de00f7ff2700bb
:10293000838363008703710006002800030363009c
:10294000070032000700e00003003a006101600068
:1029500002817300020032001000b0000180b0005c
:102960000500a6000000060001f0a000000006001f
:102970004f0ade004709de00f107b200f20fb20095
:102980000b003200f207b1000170a000c708dd00a3
:10299000c901de00838070004700dd000400a6004e
:1029a0000000060060001000e08018000000060033
:1029b000810f700001003a00000006008182cf0004
:1029c0000500e00010003e008082cf00ee82420051
:1029d0007028e1000400390007003e008000780004
:1029e0000000eb000e003700708312008600de004e
:1029f0000500dd000a003700708352008600dd000c
:102a00000000eb0006003700e28252008508dd007e
:102a1000708312000603de00868070000500dd0072
:102a20007507b0000501ea000400a60000000600da
:102a300060001000e080180000000600889fbe00c3
:102a40008a9fbe00841f78007c0007004f0078003a
:102a500011003300f0ff2f00838f6c0006003b0055
:102a6000040565000a00a7000800370009f0a60069
:102a70001000200008003700820f5400838f5c0094
:102a8000030039001000200001003e00000020007b
:102a900009f0a7000000ea004f05be004f04be0089
:102aa0000000e00000000600881f780003047800a2
:102ab0000300e00007003d0060001000e080180007
:102ac00060011900e081190002003b0001f02d00b7
:102ad000030037000400070008f0a70001f0a00081
:102ae0004f04780000000600889fbe008a9fbe0049
:102af000008270000402710004827100260032001e
:102b00000004be000200be006011b8006b09200086
:102b1000950220000182cf000a0039000541b10072
:102b20000082cf00070039000541b1000982cf00c3
:102b3000040039000541b1000882cf0001003900ce
:102b40000541b10005425200120032000a003b006c
:102b500082817100610164008100d1000080d30096
:102b60008984d3000884d3008b05e8000442e80080
:102b7000f7ff3a00070037000804440089844c003e
:102b800000004800818048008b05e9000442e9000c
:102b9000f9ff3a00030007004f05be004f04be00d6
:102ba0000000060081002000618055000b003d0000
:102bb0000b00200061fe2f000100e1001d00340029
:102bc00082817100610164008904d1000884d3000e
:102bd0000000e800faff3a00710020006100640084
:102be000030070000200600009003200610444002c
:102bf000e0844c000988a500050032008b05e80040
:102c00006808e10002003a008904d1000884d3007a
:102c1000f20f20000258e10005003d00c75ddd0015
:102c2000f907b200898075000800780000000600ee
:102c30000bf827008b007800000005000004be00a0
:102c400014fc07000003be000405be000200be0025
:0c2c500010fc0700844f75000000060017
:020000040000fa
:102c5c00556e0000616200006c6500003a200000b7
:102c6c005365000074740000696e00006773000007
:102c7c00204c00006f6300006b650000642e0000a8
:102c8c000a0d0000000a00000d00000020000000ea
:102c9c0020200000005300007973000074650000d0
:102cac006d2000005365000074740000696e000014
:102cbc00677300003a3a00000a0d00000031000072
:102ccc003a2000007c520000317c000020200000e3
:102cdc0020200000202000007c520000327c0000ec
:102cec002020000020200000207c00005331000038
:102cfc00437c000020200000202000007c530000ba
:102d0c00324300007c200000202000002020000026
:102d1c007c530000334300007c2000002020000086
:102d2c00207c000053340000437c00000a0d00009e
:102d3c00003200003a2000007c500000437c000070
:102d4c002020000020200000202000007c4d0000ee
:102d5c00425600007c20000020200000207c000057
:102d6c0042520000567c0000202000002020000071
:102d7c007c440000567c0000202000002020000035
:102d8c00202000007c4c0000565300007c200000ea
:102d9c0020200000207c000044430000527c0000f6
:102dac000a0d0000003300003a2000007c4c0000ab
:102dbc00437c000020200000202000002020000088
:102dcc007c430000435200007c20000020200000c7
:102ddc00207c000041480000527c000020200000b4
:102dec00202000007c4f0000435300007c2000009a
:102dfc0020200000207c0000414d0000437c00009e
:102e0c000a0d0000003400003a2000007c43000052
:102e1c0054380000307c00002020000020200000ee
:102e2c00202000007c4300006d5400007c2000003a
:102e3c0020200000207c0000435200004c7c00004d
:102e4c0020200000202000007c4300004d58000092
:102e5c00547c000020200000202000007c43000057
:102e6c00524800007c20000020200000207c000044
:102e7c0043540000547c00000a0d00000035000093
:102e8c003a2000007c4400006d5400007c200000bf
:102e9c0020200000207c0000445200004c7c0000ec
:102eac0020200000202000007c4400004d58000031
:102ebc00547c000020200000202000007c440000f6
:102ecc00524800007c20000020200000207c0000e4
:102edc0044540000547c00000a0d00000036000031
:102eec003a2000007c420000535400007c2000007b
:102efc0020200000207c000043530000547c000084
:102f0c0020200000202000007c4d000048540000d0
:102f1c007c20000020200000207c0000504f00008e
:102f2c00417c00000a0d0000000a00000d2a000080
:102f3c002a2a00002a2a00002a2a00002a2a000035
:102f4c002a2a00000a0d00000044000069730000ea
:102f5c00706c0000617900003a3a00000a0d000024
:102f6c00003100003a2000007c420000257c00006b
:102f7c002020000020200000202000007c500000b9
:102f8c00567c00002020000020200000207c000047
:102f9c00545600007c20000020200000207c000003
:102fac00505700007c200000202000002020000052
:102fbc007c410000567c00000a0d0000003200002d
:102fcc003a2000007c430000567c000020200000ca
:102fdc0020200000202000007c430000417c0000e9
:102fec000a0d0000003300003a2000007c53000062
:102ffc00317c000020200000202000007c530000c9
:10300c00327c00002020000020200000207c0000ea
:10301c00533300007c20000020200000207c0000a6
:10302c00533400007c0a00000d000000343a00000c
:10303c00207c0000577c0000202000002020000095
:10304c00202000007c430000577c00002020000062
:10305c0020200000207c0000417c0000202000008b
:10306c00202000007c430000427c00000a0d000080
:10307c00003500003a2000007c4300004d7c00002d
:10308c002020000020200000202000007c410000b7
:10309c00417c00002020000020200000207c00004b
:1030ac004f430000567c0000202000002020000030
:1030bc007c4d0000437c00000a0d0000000a00005b
:1030cc000d200000436500006c6c000020430000e4
:1030dc006f6e000066690000673a00002000000077
:1030ec000a0d000020410000682000005261000021
:1030fc00746900006e6700003a200000000a0000ae
:10310c000d20000043610000706100006369000045
:10311c00747900003a200000000a00000d20000025
:10312c00526500006d610000696e0000696e000060
:10313c00673a0000200000000a0d00002043000048
:10314c006861000072670000652000004379000090
:10315c00636c0000657300003a200000000a000058
:10316c000d52000065610000646900006e6700008c
:10317c0020460000617500006c740000732e000086
:10318c000a0d000000460000617500006c74000020
:10319c00204c00006f67000020460000756c00009a
:1031ac006c2e00000a0d0000004e00006f20000085
:1031bc0066610000756c000074200000636f0000f5
:1031cc0064650000732e00000a0d0000004300002f
:1031dc006f640000653a000020000000203a0000f7
:1031ec003a20000041740000747200006962000013
:1031fc0075740000653a000020000000202d0000ce
:10320c003e200000004600006c6100006773000067
:10321c003a3a00007c5300006574000073200000f3
:10322c004c4b00007c7c0000426100007474000078
:10323c00204f0000567c00007c42000061740000ae
:10324c0074200000485600007c0000007c42000006
:10325c006174000074200000555600007c7c000056
:10326c004261000074740000204f0000547c000088
:10327c007c53000079730000204f0000547c000048
:10328c000a0d00000020000020200000202000007b
:10329c0020200000200000005345000054200000b6
:1032ac00202000002020000020000000436c0000c3
:1032bc00656100007220000020200000200000004a
:1032cc0043680000656300006b6900006e670000d6
:1032dc003a20000000530000313a000020000000aa
:1032ec00533200003a20000000530000333a000033
:1032fc0020000000533400003a200000004300007e
:10330c00483a000020000000766f00006c7400004a
:10331c006167000065200000696e00007075000098
:10332c00742800007329000020630000616c000009
:10333c002e0a00000d0000004e6f000074680000a3
:10334c00696e000067200000636100006c210000c2
:10335c00205600006f6c000074610000676500006f
:10336c00206f000075740000206f000066200000c4
:10337c00726100006e670000652e00000a0d0000ef
:10338c0000560000203a00003a20000000410000e6
:10339c00000a00000d550000534200002d500000a3
:1033ac00442000006d6f0000646500007320000075
:1033bc0061760000616900006c610000626c0000c5
:1033cc00652000007769000074680000207400001c
:1033dc0068690000732000006368000061720000df
:1033ec0067650000723a0000200a00000d00000022
:1033fc000a0d00004e6f0000205000004420000019
:10340c00736f00007572000063650000732e00007e
:10341c00000a00000d50000044200000736f0000f3
:10342c007572000063650000206500007272000078
:10343c006f7200002e000000400000002100000010
:10344c00202d00003e43000072450000213c00008e
:10345c002d0000000a0d00002053000065740000d0
:10346c002068000069670000686500007374000044
:10347c002077000061740000746100006765000033
:10348c0020500000442000007375000063630000ae
:10349c0065730000732e00000a0d0000000a000086
:1034ac000d200000536500007420000068690000c6
:1034bc0067680000657300007420000077610000ed
:1034cc007474000061670000652000005044000027
:1034dc0020460000414900004c450000442e0000ed
:1034ec0020500000442d0000537400006174000053
:1034fc00757300003a200000000a00000d20000047
:10350c00436100006e27000074200000746100000d
:10351c006c6b0000207700006974000068200000cc
:10352c0050440000206300006f6e000074720000b5
:10353c006f6c00006c650000722e0000000a000029
:10354c000d20000053650000742000006c6f00001b
:10355c007765000073740000207600006f6c00002b
:10356c0074610000676500002050000044200000da
:10357c00737500006363000065730000732e000018
:10358c000a0d0000000a00000d2000005365000029
:10359c00742000006c6f00007765000073740000ed
:1035ac00207600006f6c00007461000067650000fd
:1035bc00205000004420000046410000494c00000f
:1035cc00454400002e200000504400002d53000004
:1035dc007461000074750000733a00002000000054
:1035ec000a0d000050520000473a00000a0d00007e
:1035fc00537400006f720000656400003a00000014
:10360c000a0d0000436100006c6300003a200000ca
:10361c00200000004d6500006d2000004275000088
:10362c0073790000000a00000d4e0000564d00009a
:10363c003a0a00000d530000746f00007265000020
:10364c00643a0000000a00000d530000657400008d
:10365c0073200000616e00006420000056610000c1
:10366c007273000020530000617600006564000056
:10367c002e0a00000d000000502000004f6e0000cc
:10368c000a0d000000500000204f0000666600008c
:10369c000a0d0000000a00000d480000554400000f
:1036ac00204f00006e0a00000d0000000a0d000003
:1036bc0048550000442000004f660000660a0000d8
:1036cc000d000000546900006d650000206c0000c6
:1036dc0065660000743a000020000000206d0000b8
:1036ec00696e0000757400006573000020610000b5
:1036fc006e64000020000000207300006563000071
:10370c006f6e0000647300002e0a00000d000000b4
:10371c000a0d000046610000756c00007473000017
:10372c00204300006c6500006172000065640000bd
:10373c002e0a00000d0000000a0d0000563100009a
:10374c002e3000005f320000532d00003453000077
:10375c000a0d000000530000657400007320000087
:10376c00556e00004c4b0000442e00000a0d00006a
:10377c000055000073610000676500003a200000ee
:10378c00276c00002059000027200000746f0000f7
:10379c00207500006e6c00006f6300006b2e000043
:1037ac000a0d00000057000061690000742e000033
:1037bc002e2e0000005300006574000073200000e2
:1037cc004c4b0000442e00000a0d0000000a0000c3
:1037dc000d5000006f77000065720000204f000054
:1037ec0075740000204f00006e2e0000000a0000cf
:1037fc000d43000068610000726700006520000046
:10380c00476f00002e0000000a0d0000524c000013
:10381c00200000000a0d00004348000020000000ba
:10382c00556e00006b6e00006f7700006e2000007c
:10383c00436f00006d6d0000616e0000642e00008f
:10384c000a0d0000004900006e690000742e000093
:10385c00200a00000d0000002000000025000000e0
:10386c0056000000545600000050000057000000a5
:10387c004156000000430000560000004341000088
:10388c00003a000053310000003a000053320000af
:10389c00003a000053330000003a0000533400009b
:1038ac0000570000004300005700000041000000da
:1038bc0043420000004300004d0000004141000065
:1038cc00004f000043560000004d00004300000074
:1038dc000a0d000000000000329c0000349c000027
:1038ec00369c0000389c00003b9c00003e9c000075
:1038fc00419c0000449c0000479c00004b9c000035
:10390c004f9c0000539c0000579c0000599c0000e9
:10391c005c9c00005e9c0000619c0000649c0000ac
:10392c00679c00006b9c00006e9c000048650000ca
:10393c006174000065720000207400006f6f00005d
:10394c00207300006d6100006c6c000020660000ac
:10395c006f72000020740000686500002077000082
:10396c006174000074730000207900006f75000012
:10397c0020770000616e0000742e0000004e0000e5
:10398c006f20000068650000617400006572000023
:10399c00206400006574000065630000746500001d
:1039ac00642e000000480000656100007465000092
:1039bc0072200000746f00006f2000006c6100002a
:1039cc0072670000652000006f7200002073000019
:1039dc00686f0000727400002063000069720000c0
:1039ec0063750000697400002064000065740000b9
:1039fc006563000074650000642e0000004c00003c
:103a0c006f770000204200006174000074200000f9
:103a1c00566f00006c7400006167000065000000c8
:103a2c004261000074740000204f000076650000b5
:103a3c00722000004375000072720000656e000079
:103a4c0074000000436800006172000067650000ac
:103a5c00204f0000766500007220000043750000c6
:103a6c0072720000656e000074000000536f00005d
:103a7c00667400007761000072650000204200004f
:103a8c0061740000742000004856000020440000bf
:103a9c006574000065630000740000004261000062
:103aac0074740000204f0000766500007220000046
:103abc00546500006d700000004200002d460000af
:103acc006c6100006728000073290000205300007f
:103adc00657400003a2000005379000073740000f4
:103aec00656d0000206c00006f6300006b650000ca
:103afc00642000006f750000742e0000005300005d
:103b0c00656c0000662000004f76000065720000b6
:103b1c0020540000656d0000700000005379000017
:103b2c00732000005368000075740000646f00007f
:103b3c00776e000000500000574d0000206500001b
:103b4c007863000065700000004f00007363000094
:103b5c0020650000786300006570000000410000e3
:103b6c00646400007220000065780000636500004a
:103b7c0070000000535400004b20000065780000da
:103b8c0063650000700000004d54000048200000e8
:103b9c00657800006365000070000000526500004d
:103bac00733700002065000078630000657000002a
:103bbc0000450000727200006f720000204300008c
:103bcc006f640000652000004e6f00007420000040
:103bdc0055730000656400002e0000004d4300008a
:103bec0055200000427200006f7700006e4f0000fd
:103bfc00757400000057000044540000207200004f
:103c0c0073740000007500006e2d000068610000e8
:103c1c006e6400006c650000642000006578000094
:103c2c006365000070740000696f00006e20000076
:103c3c0072730000740000004f700000636f00008e
:103c4c00646500002072000073740000004d0000d9
:103c5c00434c0000522000007273000074000000fe
:103c6c00496c00006c650000676100006c2000006e
:103c7c00496e00007374000000530000797300005b
:103c8c002052000073740000004900006e760000a2
:103c9c00616c000020730000657200006961000017
:103cac006c200000706f0000727400000055000062
:103cbc00534200002043000068720000672000009f
:103ccc0046610000756c0000740000005043000059
:103cdc00686700002073000065740000203e00003f
:103cec002031000030300000253a00002043000055
:103cfc006c6100006d700000696e0000672e0000a2
:103d0c000056000048200000436800007267000065
:103d1c00566c000074000000564c0000204300005c
:103d2c0068720000675600006c74000000560000ba
:103d3c0048200000436800007267000043720000d6
:103d4c006e740000005600004c2000004368000018
:103d5c0072670000437200006e7400000056000091
:103d6c00482000004274000072790000546d00007d
:103d7c0070000000564c00002042000074720000dd
:103d8c00795400006d7000000056000048200000bf
:103d9c004274000072790000437200006e740000df
:103dac00005600004c2000004274000072790000a4
:103dbc00437200006e7400000056000048200000a2
:103dcc0053790000735400006d7000000056000021
:103ddc004c20000053790000735400006d700000fb
:103dec00005000004f5200005431000020420000ef
:103dfc005359000020650000727200000050000052
:103e0c004f52000054320000204200005359000071
:103e1c00206500007272000000500000676d000009
:103e2c0020430000686b0000737500006d200000db
:103e3c0045720000720000004e5600004d2000003c
:103e4c00436800006b730000756d00002045000096
:103e5c0072720000005300006574000073200000b3
:103e6c00436800006b730000756d00002045000076
:103e7c0072720000004e00005653000020430000f8
:103e8c00686b0000737500006d2000004572000027
:103e9c0072000000504f000052540000312000000e
:103eac004552000052000000504f000052540000d8
:103ebc00322000004552000052000000536f0000f9
:103ecc0066740000204f0000766500007220000030
:103edc004375000072720000656e000074000000f3
:103eec005648000020530000315600006c7400004e
:103efc00005600004c20000053310000566c0000ae
:103f0c007400000056480000205300003256000098
:103f1c006c740000005600004c200000533200006e
:103f2c00566c00007400000056480000205300003e
:103f3c00335600006c740000005600004c2000004a
:103f4c0053330000566c000074000000564800000b
:103f5c0020530000345600006c7400000056000022
:103f6c004c20000053340000566c0000740000001c
:103f7c004368000061720000676500007220000059
:103f8c00696e000070750000742000004f76000010
:103f9c0065720000205600006f6c00007400000079
:103fac0048610000726400007761000072650000d7
:103fbc00204f00007665000072430000726e000016
:103fcc00742000005368000075740000646f0000da
:103fdc00776e00003a200000556e0000706c0000f7
:103fec0075670000207300006f750000726300009d
:103ffc00652c000020260000207400007572000063
:10400c006e200000706f00007765000072200000c9
:10401c006f66000066200000666f000072200000d2
:10402c003230000020730000656300006f6e0000ea
:10403c0064730000207400006f20000072650000a3
:10404c0073650000742e00000048000061720000cf
:10405c006477000061720000652000004f7600005c
:10406c0065720000566f00006c7400002053000055
:10407c0068750000746400006f7700006e3a0000f1
:10408c002042000061740000746500007279000029
:10409c002053000061660000657400007920000068
:1040ac004675000073650000205400007269000022
:1040bc0070700000656400002e200000556e00003a
:1040cc0069740000206d00007573000074200000fe
:1040dc0062650000207300006572000076690000c4
:1040ec0063650000642e0000004200006174000053
:1040fc007465000072790000205500006e640000a9
:10410c0065720000205600006f6c000074610000a6
:10411c0067650000204c00006f6300006b6f0000af
:10412c0075740000004300006861000072670000b5
:10413c0065720000207000006f770000657200004f
:10414c0020680000617300002063000079630000a8
:10415c006c65000064200000746f00006f2000008c
:10416c006d6100006e79000020740000696d000024
:10417c00657300002e200000416200006f72000089
:10418c00746900006e670000206600006f7200000a
:10419c00206e00006f7700002e00000053790000a5
:1041ac00732000005361000066650000204d000084
:1041bc006f640000652e0000204d0000696e000049
:1041cc00696d0000756d0000204400006562000000
:1041dc007567000020460000756e000063740000d7
:1041ec00696f00006e6100006c690000747900005a
:1041fc002e000000506f000072740000205300006d
:10420c00616e0000697400007920000045720000a6
:10421c00726f000072000000493200004320000061
:10422c005365000071750000656e00006365000049
:10423c0020450000727200006f72000000490000ff
:10424c003243000020540000696d0000656f0000cf
:10425c007574000000490000324300002062000029
:10426c0075730000206e00006f7400002069000060
:10427c00646c00006500000049320000432000001f
:10428c006275000073200000636f00006c6c00000e
:10429c0069730000696f00006e0000004932000075
:1042ac0043200000414300004b20000045720000f9
:1042bc00726f000072000000556e00006b6e000003
:1042cc006f7700006e0000009c9c0000c59c0000f5
:1042dc00d99c0000059d0000169d0000289d000043
:1042ec003c9d0000549d0000639d0000859d0000d6
:1042fc00949d0000a19d0000ab9d0000b59d0000a9
:10430c00c09d0000ca9d0000d49d0000df9d0000f0
:10431c00f49d0000019e0000099e0000229e0000fa
:10432c002d9e0000369e0000439e00004b9e000018
:10433c005d9e00006c9e0000879e0000929e000017
:10434c009d9e0000a99e0000b59e0000c09e00002e
:10435c00cb9e0000d79e0000e39e0000ed9e000067
:10436c00f79e0000059f0000139f0000229f000095
:10437c00319f0000419f0000509f00005a9f000099
:10438c00649f0000769f00007f9f0000889f0000c4
:10439c00919f00009a9f0000a39f0000ac9f00001b
:1043ac00b59f0000be9f0000d69f00002ba0000010
:1043bc007ba0000099a00000d4a0000000a1000088
:1043cc0012a1000025a1000031a1000042a10000b3
:0843dc0054a1000062a10000e1
:020000040000fa
:1043e4007e49ed004de8b700b0c3b30005ecb7005b
:1043f4000000060000bc2000e2bd20008040eb006d
:1044040001687800820f5000fdff3a0000000600aa
:10441400889fbe00a448e2002b003a0004108000ec
:104424000622ef000822ef00f41f20002410880069
:10443400f5aaa90026c0b300458a2000864a780060
:1044440007e2a800808040001145880000458800ec
:1044540082407800e0892000014878000343780016
:10446400f5892000864a7800000120004060880019
:1044740085c0a800a0538000b15380000200200032
:1044840003042400bbf507000000e00008003d0021
:104494000c003700a0538000b15380000801be0017
:1044a400b4f507000000e00003003d0005003700fc
:1044b40008002000090424000140fe00a448e20092
:1044c400f4ff3a00cbff07004f04be0000000600d3
:1044d400889fbe008a1f7800000478008144780019
:1044e40002457800a448e2002a003a000010800047
:1044f400c1ebb7000622ef000822ef00f01f2000f6
:1045040020108800bbff0700f5aaa80020c0b30054
:10451400a4e8b70007e2a80018458800a028ef0027
:1045240089407800e0892000014878008a407800ba
:10453400f0892000014878000001200040608800d4
:1045440085c0a800a0538000b15380000200200061
:104554000304240087f507000000e00008003d0084
:104564000c003700a0538000b15380000801be0046
:1045740080f507000000e00003003d00050037005f
:1045840008002000090424000140fe00a448e200c1
:10459400f4ff3a004f0578004f04be000000060007
:1045a400889fbe000004be006011b80071f50700ca
:1045b4000000e00001003d0009f0a2000800be0078
:1045c4004f04be0000000600889fbe000004be0029
:1045d4000001be0090f707000801be008ef7070037
:1045e4004f04be0000000600889fbe008a9fbe00e4
:1045f4008c9fbe00fd4a80008005eb000d00e000aa
:10460400130034000b05780008002000892c2400d6
:104614008a057800ccaa20004250dd000000460044
:104624001000be000801be0052f507000000e000c3
:1046340004003d004250dd00000046001004be00ae
:104644008a0578000a05e8008d0f5500f2ff3a004c
:104654004258dd00c1aa2000008040001000be00c6
:1046640002002000832c240044f507000000e00031
:10467400070034004258dd00c1aa20000080400039
:1046840002002000832c24000288be000d003700a5
:104694004258dd00c1aa2000008040001000be0086
:1046a4006011b80033f507000000e00005003d008c
:1046b4004258dd00c1aa2000008040006011b8000b
:1046c4000288be00c25ddd00c0aa20008b05400048
:1046d4001b00be00f84e8000094f8000020020003d
:1046e400832c24006df607000001be000800be0004
:1046f40049f70700d04f8800e14f88004f06be00fd
:104704004f05be004f04be0000000600ec874700c2
:10471400889fbe008a9fbe008c9fbe008e1f7800bb
:10472400a0548000b15480009dff0700d2cc2c001f
:10473400c3d423000ff507000000e00053003d0040
:10474400f6cabf000038a30050003200f4cabf000c
:104754000058a3004d003a002053800031538000dc
:104764002055880031558800d0498000f0b79f005b
:10477400e149800081bf9f00b0498000c1498000a9
:104784007fb197008fb9970056f50700d0b79f0007
:10479400e1b79f006011b800f6f407000000e000e4
:1047a40004003a000000200001f82300d0b79f0065
:1047b400e1b79f00f14a8000c1b79f000100e0000b
:1047c400310034000007eb000a0020000bf0230046
:1047d4004271dd002202b000a3a520000281410045
:1047e40012007800920090007fb197008fb9970073
:1047f4003cf507000004be006011b800ddf40700ba
:104804000000e00001003d006044b8005fb1970083
:10481400efb197000800be0020f607000a01be00b1
:1048240030f507000004be0067ff07000001be006a
:1048340035f507000006be000a01be000800be00f0
:10484400f5f607000001be000c00be002ef50700bf
:104854000a01be002cf5070002002000832c24006e
:10486400edf607000001be00c270dd00c0aa200002
:10487400810040008288be000e07e800cfb0970098
:10488400810f5700d2ff3a00f4aaa8004f0778001e
:104894004f06be004f05be004f04be00cf00b1005e
:1048a4000000060081212000914078000000eb0008
:1048b4000148a30013003200e12020009140780059
:1048c4000148a3000f00320091212000914078009c
:1048d4000108a3000b003200f12020009140780071
:1048e4000108a300070032008121200091407800d4
:1048f4000108a30003003a000ec2bf00610060007b
:104904000000a2000000060051af20009140780092
:104914000148a30055003a005648e20053003a000b
:1049240041af2000914078000138a3004f003a00c5
:104934000000e0004d003a0051af200091407800a3
:104944000138a30049003200d6ff07000000e00050
:104954008e003200ff3ffc0080072000a1092000e8
:104964003274200000497800014978000049780039
:104974003274200000497800014978000149780028
:104984007200200033742000804978008149780047
:104994008249780060042000710520002274200000
:1049a4000049780001497800004978002274200009
:1049b4000049780001497800014978001208200074
:1049c4002374200080497800814978008249780066
:1049d400f56aa9004110200091407800f0ccb300a2
:1049e40080c060000154a000814178004210200082
:1049f40003497800a2832300120888000021ef00f5
:104a0400011120009140780080c060000144a000a2
:104a14008142780004112000054a780041072700ec
:104a2400610888000621ef00e3112000934178001b
:104a340080c161000354a00083427800e411200087
:104a4400054a78001421ef00d208880002122000e1
:104a540012417800004061000044a00020e1b7004a
:104a6400e10888001821ef003c003700e10f5000f6
:104a740046003a00f5cabf000038a30043003a00dc
:104a8400f56aa800ff3ffc0003c3b30003407800ad
:104a94000461b700a20e2e001208880010c1bf00e6
:104aa400f1ccb300014060000054a00010e1b70055
:104ab400a483230064088800034078001e61b700c3
:104ac400d20888000212200012417800814061005f
:104ad4000154a000814178000212200003497800ab
:104ae400e408880080072000a10920003274200017
:104af40000497800014978000049780032742000a8
:104b040000497800014978000149780072002000ca
:104b14003374200080497800814978008249780004
:104b240060042000710520002274200000497800f0
:104b34000149780000497800227420000049780077
:104b440001497800014978001200200023742000f4
:104b540080497800814978008249780042c7bf00c3
:104b64000008a3000500320000000000000000005f
:104b740042c7bf000008a300fbff3a00f5cabf000c
:104b84000028a300010032005220ef0000000600bc
:104b9400a0538000b15380000200200003062400cb
:104ba400f6f307000000e000050034000de2a80061
:104bb4000f42a800e0fb2f00f01688000600370023
:104bc4000de2a9000f42a90007e2a90020fb2f0073
:104bd400f016880007e2a900000006006f006000dc
:104be400e90f500002003c000043b0000100370010
:104bf4007043b00000000600f2874700889fbe00a3
:104c04008a9fbe008c9fbe008e1f7800c0b79f0095
:104c14004408dd004fb1970002004000f2bd2000bf
:104c240062407800d0c2b2000080fb000000e900be
:104c34004f00de00e0b79f00cfb19700e98141004b
:104c4400d3b79f004fb09700830f500064003d001e
:104c5400ef0f500064003c00000778000001eb00f7
:104c6400a2b79f00dccc2c00cddc23006044b8004c
:104c74008001e80093b79f00c408dd00b1b79f002e
:104c84000a0020000b1224006fb097000000e0001f
:104c940004003200cfb09700810f570001003a00a2
:104ca4001fb797003fb197000e004100f1bd2000ef
:104cb400e1407800e1ef9f000104e0000f003200c2
:104cc40003c2b30083cf50000c003200eacf50007f
:104cd4000a003200f0c2b30080cf50000300340059
:104ce40092c3b30082cf500009003400efe997006b
:104cf400e0c2b30080cf51002d003200efb0970026
:104d04000100e0003d00320009f0a2003b00370042
:104d14006fe99700e3c2b300834f510027003200cc
:104d24002fb097000000e000130032000200fb00e7
:104d34000003b100cf80de00cef307000c01be00fb
:104d4400b5f50700f0b79f0081bf9f00d2cc2c00bf
:104d5400c3dc23000c00be00aff507000006be0054
:104d64007fb197008fb997000800be00e6f30700f3
:104d74000004be00130037000a01be000800be0094
:104d8400a5f507000004be00efe997000300fb004f
:104d94000003b100cf80de00b6f307000001be00bf
:104da4000800be00d8f307000004be000500370069
:104db40010002000a0b79f0002003700110020005f
:104dc400a1b79f000e07e8005fb19700820f57005c
:104dd40006003d00ef0f5700abff3400030037001f
:104de4006044b800010037006044b800efb1970098
:104df4000300e0000100320009f0a2000800be0038
:104e04004f0778004f06be004f05be004f04be009a
:104e14002f01b10000000600889fbe008a9fbe00db
:104e24000005be000204be00f5cabf000038a3009e
:104e340005003a000200200003d823000800be0049
:104e440075f507000004be006011b8000a00be003a
:104e540048f307000000e00002003a000a002000c6
:104e64006b61240002402200439724000800be0026
:104e740069f507000a01be0088f40700020020005b
:104e840003d8230064f507000200200003f8230080
:104e940094f307005cf307004f05be004f04be0007
:104ea40000000600881f7800f64aa9006000b800d8
:104eb4006053880071538800c0548800d15488001e
:104ec400e0548800f154880020538800315388004e
:104ed400f24a80000200e000090034000000eb0008
:104ee400c3aa20006022b800c200dd008180410016
:104ef4008488be000000e800820f5000faff3a00e8
:104f0400942aef00962aef00c020ef00c220ef00a1
:104f1400c420ef00c620ef00f0ff210060168800d7
:104f2400d022ef00ce22ef00e0fb2f00f016880025
:104f3400e222ef00e022ef00a0fe2f00c01688005e
:104f4400dc22ef00da22ef00c021ef00c221ef00e3
:104f540040062000200e8800c621ef00080720002c
:104f6400480e8800ca21ef00cc21ef00d021ef00c9
:104f740000a02200a00e8800d621ef00d821ef0067
:104f8400da21ef000e22ef000fe2a9000c22ef005d
:104f94000d42a800a2702d00b316240000002000ca
:104fa400616124009cff0700a01088001822ef0014
:104fb40019e2a9001622ef00a2702d00b3162400f6
:104fc400000020006161240093ff0700f0108800b6
:104fd4000622ef00f01f200020108800412e200040
:104fe4000115880041422000111588000198200015
:104ff40021158800a622ef0001e02f00411588004a
:1050040050158800084078009960b70041092000d5
:105014009140780080cfb30080c060006140b3004d
:10502400814178004209200003497800c109200029
:105034009140780080c060006140b3000141780075
:10504400c4092000024a78007109200091407800c8
:1050540080c060006140b300014278007309200001
:1050640084497800b10920009140780080c0600034
:105074005140b30081417800b2092000034978000f
:105084005209200012417800f1c8b30001416100c7
:105094000264a0008241780054092000034a780089
:1050a400a209200012417800014161000264a000bd
:1050b40082417800a4092000034a78009209200064
:1050c40012417800004161003240b300824178000f
:1050d40094092000034a7800020a20001241780053
:1050e400014161000243b30082417800040a2000b8
:1050f400034a7800820920001241780001416100ce
:105104000254a0008241780084092000034a7800f8
:10511400020a200012417800004161000214a0003c
:1051240082417800040a2000034a7800f209200032
:1051340012417800004061000014a0009fe0b70015
:105144009ec0bf00014060000044a0009ee0b70084
:105154009fc0bf00814060000144a000014078006e
:105164009fe0b7004f04780000000600889fbe004f
:10517400e0fe200000018800b8488000c948800093
:1051840090488000a14880000801be00def20700bc
:105194000001be000800be00c0f3070020408800e4
:1051a4003140880060662600e041880060fd2300ed
:1051b400f041880000562d000042880080812400c0
:1051c40010428800f60aa90081e0a9008420ef00bb
:1051d4008620ef008820ef00ff3ffc008c20ef00ca
:1051e4008e20ef009020ef008dc0a8008da0a800b5
:1051f4008c60a8008d20a8008d40a8008f00a80016
:105204008f20a8008c00a8008e00a8008ee0a900c2
:105214008cc0a8008ea0a8008ec0a8008d60a80035
:105224008200a9008240a9005220ef00a1e2a80058
:10523400c1e1a80011e1a80005e1a8001fe1a80050
:1052440021e1a80052fe070017e2a8001942a800b5
:10525400f6aaa8004f04be000000060011ff0700d4
:10526400ff3ffc008420ef008620ef008820ef0041
:105274008c20ef008e20ef009020ef008d20a800fe
:105284008d40a8008f00a8008f20a8008ea0a80041
:105294005220ef00f54aa800c1e1a90011e1a900dc
:1052a40005e1a90013e1a90021e1a90038fe0700e6
:1052b40017e2a8001942a80000000600b1fe2f0062
:1052c400c1168800d2a2ef00dc42a900614160004f
:1052d400c12d2000914078000104a10082c070001b
:1052e40081417800c22d2000034978000000fb00b2
:1052f4008000d100e1c0600001c14000612d2000a8
:10530400914078000114a10082c0700081417800ae
:10531400622d2000034978004201de0061416100f2
:105324004211dd00612d2000914078000124a1008c
:1053340082c0700081417800622d2000034978000a
:10534400c300de00e1c06000c308dd00d6c2bf00b8
:105354000034a10001407000d6e2b700a0fe2f0087
:10536400c016880010ff2f00901688000000060069
:10537400b1fe2f00c1168800d2a2ef00dc42a800c3
:105384000000fb00610160000204a200c12d2000a6
:10539400914078000104a1008140710081417800ae
:1053a400c22d200003497800e20060008100e9007a
:1053b400cf08de0001c14000612d2000914078003b
:1053c4000114a10082c0700081417800622d200088
:1053d40003497800640160000201e9004f11de0016
:1053e4004211dd00612d2000914078000124a100cc
:1053f40082c0700081417800622d2000034978004a
:10540400e80060008100e900cf08de00c308dd0089
:10541400d6c2bf000034a10001407000d6e2b7003c
:10542400a0fe2f00c016880010ff2f0090168800e1
:1054340000000600889fbe000004be000200200099
:10544400432b2400cdf107000000e00003003400ea
:10545400f4cabf000038a300090032000200200093
:10546400632c24000800be00c4f107000000e00023
:1054740006003400f4cabf000038a3000300320061
:10548400f0c0b300baff07002f003700020020006d
:10549400632924000800be00b8f107000000e00002
:1054a4000300340070c0b300b1ff070026003700ca
:1054b40002002000832424000800be00aff107008e
:1054c4000000e0000300340030c0b300a8ff070070
:1054d4001d00370002002000831c24000800be00c9
:1054e400a6f107000000e0000300350010c0b3007f
:1054f4009fff07001400370002002000831c2400d3
:105504000800be009bf107000000e0000c003d0015
:10551400f7cabf000038a30009003a0064c8bf00fe
:105524000028a3000300320010c0b30090ff07005e
:10553400050037000040eb008dff07000200370034
:105544000040eb008aff07004f04be000000060085
:105554000004e00053003400e34f500003003a001d
:1055640060c0b30082ff070050003700e44f5000d2
:1055740009003a00f5cabf000018a3000300320076
:1055840003ccbf004dff07004800370003ccbf0029
:1055940077ff0700450037005186200091407800ce
:1055a400e9cf500038003400e14f500036003a0093
:1055b4006568ef00f7cabf000028a30009003200a5
:1055c40064c8bf000048a3000300320020c0b30039
:1055d40067ff0700350037000040eb0064ff070059
:1055e40032003700f4cabf000038a30022003200a2
:1055f40064c8bf000008a3000c00320002ccbf0046
:10560400e64f500002003200f44ae20007003d0079
:10561400005380001153800002002000831c2400ea
:10562400b9f1070083ff07002000370064c8bf00fa
:105634000018a3000c00320002ccbf00e64f50005b
:1056440009003200f44ae2000700350000538000ec
:105654001153800002002000831c2400aaf10700db
:1056640074ff0700110037000053800011538000bd
:1056740070ff07000d0037000053800011538000b5
:105684006cff07000900370065c8bf00e94f5000f0
:1056940001003c006568ec0066c8bf0007ff070016
:1056a400020037000040eb0004ff07000000060082
:1056b40011002000f21f2000820f50001b003c004c
:1056c400ff3ffc00811f78000000400001c02f0054
:1056d40001004000f1072000213b8800103b8800b6
:1056e40041042400013b880051052000313b88001f
:1056f400a10a2000313b880061e7a80000000000f7
:1057040000000000cf0078008000eb0004003700a8
:10571400f5cabf000028a3000100320091028800ee
:105724006147e200faff35008000eb0001007800d9
:1057340000000600889fbe000004be000800780038
:10574400dbff070010002000f11f2000810f540030
:1057540021003c00ff3ffc00801f7800811f78007f
:10576400821f78000804440000c02f000004440095
:10577400f0c7b30032e0b7002900880008008800b1
:105784000208bb0041002400013b880051052000b1
:10579400313b8800a10a2000313b880061e7a80062
:1057a40000000000000000004f017800cf007800e6
:1057b4004f0078008000eb0004003700f5cabf00fa
:1057c4000028a30001003200910288006147e20032
:1057d400faff35000000eb004f04be000000060095
:1057e400d4e8b700b1468800841f7800801f780091
:1057f400418d20009140780020032000014878006a
:10580400b1468000010088001082ba000000000048
:10581400000000004000800070468800418d200098
:10582400914078002003200001487800b1468000b0
:10583400010088001002ba0000000000000000000f
:1058440040008000904688004f0078004f027800a6
:105854009046800000000600800078000000eb0005
:10586400f21f2000828f500005003c0000e027005a
:105874008080400081804000f0c7b300d8ff07005b
:1058840000000600889fbe008a9fbe00d828ef0053
:105894000004eb00fa0f2000ebff270088007800db
:1058a4000040eb00ceff07008004780088007800f9
:1058b4000040eb00caff0700800078008a8464007f
:1058c400c046800000804400c808de00ce08b40052
:1058d40081004000c14688000884e8008b0f540012
:1058e400eeff3a00890f2000fb0f20001300370061
:1058f4008800780009407800b9ff070000057800a7
:105904008800780009407800b5ff07000b056500a2
:10591400c1468000010545004800de000005450041
:10592400ca4688000884e800e20f4400f0ff3a0009
:105934008904e8008b8f5400020032000004eb005d
:10594400ebff37009a19b000ca4688004f05be0025
:105954004f04be0000000600caff0700c0468000d6
:10596400104c880000000600889fbe008a1f780043
:10597400da28ef000004eb00fa0f2000080078009a
:10598400b5ff07008004780008007800b2ff070024
:105994008a846400d1468000818444004800de008b
:1059a40080844400d94688000804e800e01f2000f1
:1059b400800f5400f1ff3a004f0578004f04be00f9
:1059c40000000600e8ff0700d1468000f01f200019
:1059d40058ff070000000600881f78005048e200c6
:1059e4000d0034000004eb004fc8bf0088004400e1
:1059f400829d2000e28078000000fb00000044004b
:105a04004cff07000804e80050c8bf000000fb007a
:105a1400880f5000f4ff3c004fc8bf000000fb009b
:105a24004165270043ff0700114380004fc8bf00b2
:105a340002852000124178000201fb000000fb00f7
:105a4400000041003bff0700deff0700f4caa90085
:105a54004f047800000006000040eb00bcfe070085
:105a64006055800071558000304f8800414f880098
:105a74008055800091558000504f8800614f880008
:105a8400a0558000b1558000704f8800814f880078
:105a9400c0558000d1558000904f8800a14f8800e8
:105aa400cdff0700742aef00762aef0038fc0700c8
:105ab400e202a90000000600889fbe008a1f780049
:105ac400dc28ef004f48e200120034000004eb0031
:105ad400fa0f2000080078005fff070080047800b8
:105ae400080078005cff07008a846400e1468000b7
:105af400818444004800de0080844400e946880034
:105b04000804e8004fc8bf000000fb00880f5000e5
:105b1400f0ff3c004f0578004f04be000000060073
:105b2400de28ef004f48e200110034008000eb0053
:105b340001007800f40f200000014000c390200011
:105b44006301790084016100818041004811de0015
:105b5400828040000000e800f284200012417800b6
:105b64000201fb00800f5100f3ff3c00f146880066
:105b740000000600eaff0700f046800000478800a6
:105b840000000600881f78004f48e2000b00340034
:105b94000004eb0008004400c1902000e1007800fc
:105ba40008007800e3fe07000804e8004fc8bf00bf
:105bb4000000fb00880f5000f6ff3c0071562400e3
