:020000040000fa
:080000000001040000000000f3
:020000040000fa
:04000c00d00100001f
:020000040000fa
:04001000e00100000b
:020000040000fa
:04001400d80100000f
:020000040000fa
:04001800e8010000fb
:020000040000fa
:04002400f8010000df
:020000040000fa
:040028004e0700007f
:020000040000fa
:040034007807000049
:020000040000fa
:04004000f8030000c1
:020000040000fa
:04004c00f4060000b6
:020000040000fa
:040050005402000056
:020000040000fa
:040054000c0a000092
:020000040000fa
:04005c00cc010000d3
:020000040000fa
:04006000c8010000d3
:020000040000fa
:040068002607000067
:020000040000fa
:04007c00ca020000b4
:020000040000fa
:04008000a6020000d4
:020000040000fa
:04008800c2060000ac
:020000040000fa
:04008c00fe01000071
:020000040000fa
:0400d400f001000037
:020000040000fa
:100200006fbd20000eff20000e01880000000000de
:10021000000020000000e000020032000001200089
:100220002002880014000700420507000000e000db
:1002300003003a004086240001002000020037003d
:100240000000200001002000810f7000010032003a
:1002500014000700000020000000e000020032004f
:100260000000020000000000d6470200000000006d
:100270000040da000000fe004440a900c09e2000bb
:100280000000e0000300320000002000a001880010
:100290004440a800000006008a1f78008b1f7800e9
:1002a0000000060091018800800478000000eb0047
:1002b0001a003700e284440032a0b4009905ba0065
:1002c000e284440032a0b4009906ba00e2844400fb
:1002d00032a0b4000006eb00476fde00fd07b2005d
:1002e000636ce10003003a00ebff07000000eb0045
:1002f0000a003700606ce10004003a00005deb008a
:100300008b05e900fdff3e00040037006168e10055
:10031000010032000086eb000b00070019c7ba008d
:100320001905ba000e04e00003003a000a00e000dc
:10033000e0ff3a0000000600fe07b2009e018800c0
:100340008a047800f5ff3700395dba008b05e900b3
:100350000c003200295dba008b05e900080032006c
:100360000c00e00003003a00e284440032a0b40034
:10037000f5ff370019ddba008b05e900faff3a00f6
:100380008904e800e184440032a0b40000000600c3
:1003900085c0a9000040060085a0a9000040060015
:1003a000de0aa8008020a9000000fe000040060030
:1003b000de2aa8008040a9000000fe0000400600e0
:1003c000de4aa8008060a9000000fe000040060090
:1003d000de6aa8008080a9000000fe000040060040
:1003e000de8aa8008960a9000000fe000040060027
:1003f000deaaa8000000fe00004006003600f8005b
:10040000809fbe00829fbe00849fbe00869fbe006c
:1004100010002000ca0e0700db6aa80019c2bf0046
:100420000018a30017003a00814380004006200016
:1004300001004000f2ad2000624078000004e000be
:10044000100032009748e2000e00320032b4200063
:10045000028140000000fb00d01088008100e8000d
:1004600019c2bf000018a30005003a0052407800ee
:100470000004e000f7ff3a008143880001003700e4
:100480008143880010002000901507008720a900f4
:100490004f03be004f02be004f01be004f00be0022
:1004a0003600f900004006003600f800809fbe00cc
:1004b000829fbe00849fbe00869fbe001000200069
:1004c0009f0e0700db6aa8000fc2bf000018a30040
:1004d00015003a0071438000f0ad200060c0780044
:1004e0000004e000100032009648e2000e003200e6
:1004f000f2ad2000028140000000fb008010880067
:100500008100e8000fc2bf000018a30005003a00f8
:10051000524078000004e000f7ff3a007143880081
:1005200001003700714388000000eb0067150700e9
:100530008540a9004f03be004f02be004f01be0020
:100540004f00be003600f900004006003600f800fb
:10055000809fbe00829fbe00849fbe00869fbe001b
:1005600010002000760e07000000eb007317070054
:10057000100020007117070086c0a9004f03be00bd
:100580004f02be004f01be004f00be003600f90012
:10059000004006003600f800809fbe00829fbe002b
:1005a000849fbe00869fbe00889fbe008a9fbe00bb
:1005b0008c9fbe000800fa0010002000600e0700ab
:1005c00052c8bf00e44f500009003400ddcabf002c
:1005d0000048a300040032004b68ef0050c0b30095
:1005e000cdebb7000f003700820d07000d0037007c
:1005f0006409e2000b003500cd4be20008003c002e
:10060000b0c3b300cdebb7004b48e20002003c00a2
:10061000dc2aa800030037004b68ed00010037001a
:10062000cd6bed00f8528000095380006011b800d6
:100630000800be00420407000000e00001003c008a
:100640006044b800d0538000e0bf9f00e1538000b9
:10065000f1bf9f005c5280006d528000d05280003c
:10066000c0bf9f00e1528000d1bf9f00dacabf0027
:100670000008a300260032001a4a80002b4a80009e
:100680000200200003f82b000a00be002c04070023
:100690000000e0001e0034000c01be006fb897009f
:1006a000ffb897004d0607000006be000801be0017
:1006b0004fb89700dfb89700480607000001be005a
:1006c0000c00be00780407000001be0003f0a20089
:1006d0000a00be001a0407000000e0000c0034000d
:1006e000ce4be20008003c004c48e20003003c0016
:1006f000da0aa900da2aa800030037004c68ed00e6
:10070000b0c3b300ceebb700ce6bed0004003700f2
:100710006649ed004ce8b700b0c3b300ceebb700bc
:10072000c046800081702000810f50000b003a000d
:100730002185200091407800e1cf5000070034006f
:100740003a140700e10f500002003a0010c0b30055
:1007500052e8b700d828ef000600370021852000b6
:1007600091407800e1cf5000020034000000e80022
:10077000c046880052c8bf00e34f5000110032004d
:1007800052c8bf00e14f50000e003400d808e2000c
:100790000c003200591407000000e000090032008c
:1007a000d91a0700d0468000e40f5000030034003f
:1007b00010c0b30052e8b700020037000000e800a4
:1007c000d046880086a0a9000080fa004f06be002f
:1007d0004f05be004f04be004f03be004f02be00d7
:1007e0004f01be004f00be003600f9000040060079
:1007f0003600f800809fbe00829fbe00849fbe002e
:10080000869fbe00889fbe008a9fbe008c9fbe0050
:100810008e1f780010002000c90d07006268ec00f0
:10082000e0c2bf000018a30003003a004006200009
:10083000405e880006003700c80be2000400340068
:1008400052c8bf00e34f500001003200c82bed003a
:100850006ac9bf00e14f50001f00320003003c0096
:100860000004e0000600320051003700e24f500063
:1008700024003200e34f50004d003a0037003700ab
:10088000e0c2bf000018a30011003a0055c8bf0025
:10089000f04f500009003a00dacabf000008a30078
:1008a00002003200da0aa90001003700da0aa800c3
:1008b00010c1b30055e8b7003d00370055c8bf0070
:1008c000ef4f50003a003c005568ec00380037000c
:1008d0005568ef0036003700e0c2bf000018a300e3
:1008e00005003a00dacabf000018a30002003a006f
:1008f000da0aa8002e003700da0aa900da2aa900cd
:100900002b003700d8528000e952800002002000fe
:10091000030824000800be00890307000000e0006f
:1009200005003400dacabf000018a30002003a0034
:10093000da0aa8001e0037000200200003f8230096
:100940000800be007c0307000000e00018003d0026
:10095000da0aa900da2aa90015003700d852800067
:10096000e95280000200200003f823000800be00c6
:10097000710307000000e00005003d00dacabf0077
:100980000018a30002003a00da0aa80008003700a5
:1009900002002000030824000800be0068030700ce
:1009a0000000e00002003400da0aa900da2aa900f7
:1009b000dacabf000008a3000400320045c8bf0027
:1009c000e14f500001003c004568ec007854800085
:1009d000895480006011b8000800be005803070069
:1009e0000000e00017003400dacabf000008a300ce
:1009f00014003200d0538000e1538000820c0700c5
:100a00000001be000800be004b0307000000e0002c
:100a10000c003d006008ab000a00320044c8bf0073
:100a2000e84f500006003400da0aa9008000eb000d
:100a3000f0022000c6120700dccaa800010037003f
:100a40004468ec000004eb000aa420004b002000e6
:100a50004241dd002202b000020145001200780090
:100a60009200900032498000434980003203070021
:100a70000000e00007003d006008ab000500320008
:100a8000da0aa9008800e8000b007800b01207001d
:100a9000dccaa8000804e800e40f5400ecff3a00a8
:100aa0003054800041548000b2528000c352800014
:100ab0004a05070090538800a153880046c8bf002c
:100ac0000005eb00e74f500026003c000a047800c8
:100ad0002baa20000ca420004242dd000485450022
:100ae0001a00be002402b00004024600140178007f
:100af0009401900075030700008dbe000804e80013
:100b0000e40f5400f4ff3a000241800013418000da
:100b1000f0528000015380006c0307000041880000
:100b2000114188006241800073418000d0538000f1
:100b3000e15380006503070060418800714188002f
:100b400082418000934180005052800061528000b9
:100b50005e03070080418800914188004668ec00f0
:100b6000460037002daa20000800200009e02300dd
:100b70002eab20004256dd008c8546001b00be00d7
:100b80000801be0015050700808dbe000c06470059
:100b90003b1e78002b1678000a05e800e40f55008c
:100ba000f4ff3a0000418000114180000200200063
:100bb00003e0230009050700004188001141880077
:100bc0000041800011418000e0408800f140880031
:100bd00060418000714180000200200003e023009a
:100be000fe04070060418800714188006041800078
:100bf0007141800030548800415488008041800059
:100c0000914180000200200003e02300f30407006c
:100c1000804188009141880080418000914180009e
:100c2000b0528800c15288006000b800105588009a
:100c3000215588003055880041558800505588005e
:100c400061558800705588008155880000418800f2
:100c500011418800804188009141880060418800ee
:100c6000714188004668ef00681a070047c8bf0056
:100c7000e44f500001003c004768ec003054800015
:100c800041548000b2528000c3528000d304070058
:100c9000dd0b07000004be0090528000a1528000ce
:100ca0000801be00a40207000000e00002003d00b1
:100cb00098528800a9528800d8538000e9538000d8
:100cc0000800be00d00b0700f226210033b023003d
:100cd0009b0207000000e0001100340012052a000a
:100ce000138123000800be00bc0407000004be00fe
:100cf000e04e8000f14e80000801be00f3020700c4
:100d0000e04e8800f14e8800024f8000134f8000b3
:100d10000800be00ed020700004f8800114f880058
:100d2000cbcbbf0000404000cbebb700cbcbbf002c
:100d3000e84f50000800340010c0b300cbebb70000
:100d4000dbcabf000008a30002003200db0aa900d2
:100d500001003700db0aa80084c0a9004f07780013
:100d60004f06be004f05be004f04be004f03be003d
:100d70004f02be004f01be004f00be003600f9001a
:100d8000004006003600f800809fbe00829fbe0033
:100d9000849fbe00869fbe0018c2bf000008a3004b
:100da0000200320010002000eb1a070010002000a3
:100db000630c0700a0c0b30054e8b70052c8bf00de
:100dc000e34f500001003a008a0b07008700a9009a
:100dd0004f03be004f02be004f01be004f00be00d9
:100de0003600f900004006003600f800809fbe0083
:100df000829fbe00849fbe00869fbe000ec2bf00c1
:100e00000008a300020032000000eb00d21a070025
:100e1000100020004a0c0700a0c0b30054e8b7003f
:100e200052c8bf00e34f500001003a00710b0700a9
:100e30008520a9004f03be004f02be004f01be0037
:100e40004f00be003600f900004006003600f800f2
:100e5000809fbe00829fbe00849fbe00869fbe0012
:100e600010002000360c07004f170700dccaa8004e
:100e70008000eb0090032000b5110700651007000b
:100e80008600a9004f03be004f02be004f01be0006
:100e90004f00be003600f900004006003600f800a2
:100ea000809fbe00829fbe00849fbe00869fbe00c2
:100eb00010002000220c07003b170700dccaa80026
:100ec0008000eb00a0032000a11107006028a8000b
:100ed000501007008400a9004f03be004f02be005f
:100ee0004f01be004f00be003600f9000040060072
:100ef0003600f800809fbe00829fbe00849fbe0027
:100f0000869fbe00889fbe008a9fbe008c9fbe0049
:100f10008e1f7800e487470010002000080c0700af
:100f2000a1e2a800f84880000949800002002000e2
:100f3000030824000800be00280407004040880081
:100f4000514088003a5480004b5480009049800002
:100f5000a1498000b2498000c34980001f040700f6
:100f60000200200003f423001c0407000001be005f
:100f70000a00be00f20107000000e0000200340099
:100f8000dacaa80001003700dacaa8000006eb00a0
:100f90000c0778000a0020008b2c24002dab2000c9
:100fa0004260dd00008046001000be000a01be0065
:100fb000e10107000000e00004003d004260dd00a8
:100fc000008046001005be000c0778000c06e80003
:100fd000e40f5600f2ff3a001c0020000005eb0071
:100fe000fabf9f002dab2000020037000a05e80081
:100ff0000c06e8004250dd00008046001001be00f3
:101000000800be00cc0107000000e0001f003c000b
:10101000da4ae2001d0035008e0f55001b00320039
:10102000e10f55000d00320003003c000a00e00013
:101030000600320015003700e20f55000b003200a9
:10104000e30f550011003a000c0037007fb89700fd
:101050000000a000f0bf9f00e4ff3700ffb897003a
:101060000110a000f1bf9f00e0ff3700ffb997001b
:101070000320a000f3bf9f00dcff37007fba97007a
:101080000430a000f4bf9f0002003700e30f5600b9
:10109000d6ff3400eff89700408620000148780022
:1010a0000ec2bf000018a3000b0032008000eb004e
:1010b000d0022000261107000ec2bf000008a300c6
:1010c00004003200901080000ec2bf000008a30090
:1010d000fcff3a000e22a90018c2bf000018a300ae
:1010e0000b0032008000eb00e00220001811070026
:1010f00018c2bf000008a30004003200e010800006
:1011000018c2bf000008a300fcff3a001822a90083
:10111000041907007c1c0700fc1d070052c8bf0013
:10112000e24f500003003c00100020000047880000
:10113000dccaa900e04e8000f14e8000b20a070030
:101140000004be00404e8800514e8800dacabf003d
:101150000048a3004c00320051c8bf00e34f5000cc
:1011600049003a000006eb000a0020008b2c240006
:101170002da920004260dd00008046001000be0066
:101180000a01be006c0107000000e00003003d0002
:101190004260dd00008046001005be000c06e8003d
:1011a000e40f5600f3ff3a0002002000632c2400f5
:1011b0000a00be00620107000000e0000c003400dd
:1011c000cccbbf00e24f500009003200204e80001f
:1011d000314e8000004f8800114f880020c0b300be
:1011e000ccebb700dc29ef00de29ef00130037005d
:1011f0000200200003f823000a00be004e01070091
:101200000000e0000d003d00cccbbf00e24f5000dd
:101210000a003a00284e8800394e88006000b80065
:10122000004f8800114f880014c0b300c3bc2000d9
:1012300084497800e04e8800f14e8800004f80001d
:10124000114f80006011b8003b0107000000e00072
:1012500002003d00e029ef00e229ef00284e800067
:10126000394e8000004f8000114f80000801be0001
:10127000330107000000e00002003400084f88003e
:10128000194f8800da8aa900204e8000314e800074
:101290006011b800280107000000e00003003a00d8
:1012a000c429ef0000f82300304e88002a4e800049
:1012b0003b4e8000004f8000114f80000a01be00ad
:1012c0006702070002002000832c2400430307006c
:1012d00030528800415288003854800049548000c0
:1012e000f2282c0053c723000800be001401070099
:1012f0000000e00032003400dacabf000028a3007a
:101300002f0032002c4f80003d4f80000200200053
:10131000135624000800be00510207000001be0061
:101320000c00be00690107000001be00204f8800cc
:10133000314f88000a00be00ff0007000000e000f7
:101340001f003c00e429ef00e629ef00404f800039
:10135000e10f4000020032000000e800404f88002a
:10136000404a80006500b900cf80de0032010700ee
:101370000004be006011b800ef0007000000e000ac
:1013800002003a000800200009f823000801be000e
:101390000000200001f82300310207000001be0018
:1013a0000000200001f823003f0107000001be00fb
:1013b0000a00be0009030700204e8800314e880055
:1013c00034100700c50a07000000e00006003200e4
:1013d0005448e20004003400dacabf000028a30029
:1013e00001003a005468ed008460a9004f00b1008c
:1013f0004f0778004f06be004f05be004f04be00e9
:101400004f03be004f02be004f01be004f00be00a2
:101410003600f900004006003600f800809fbe004c
:10142000829fbe00849fbe00869fbe00889fbe0034
:10143000dc82a80010002000c10a070048c8bf00d5
:10144000e74f50006c003c00dccabf000038a3002e
:101450005400320000148000a8408000b940800091
:101460008000eb00f70007000801be00170107002d
:10147000a0408800b140880010148000c84080005f
:10148000d94080008000eb00ee0007000801be009c
:101490000e010700c0408800d14088003014800051
:1014a00048418000594180008000eb00e5000700c2
:1014b0000801be0005010700404188005141880035
:1014c0004041800051418000204188003141880026
:1014d0001856800029568000401480008000eb00e0
:1014e000d80007000001be000800be00f70007009a
:1014f00010568800215688003856800049568000d2
:10150000501480008000eb00ce0007000001be00f8
:101510000800be00ed0007003056880041568800e4
:101520005856800069568000601480008000eb00ef
:10153000c40007000001be000800be00e300070071
:101540005056880061568800785680008956800081
:10155000701480008000eb00ba0007000001be009c
:101560000800be00d9000700705688008156880028
:1015700080148000e8408000f94080008000eb008b
:10158000b00007000801be00d0000700e04088005e
:10159000f14088006008ab0015003200d416070047
:1015a000130037006000b800a0408800b1408800f8
:1015b000c0408800d1408800204188003141880027
:1015c000404188005141880010568800215688000b
:1015d0003056880041568800505688006156880071
:1015e0007056880081568800e0408800f1408800ed
:1015f0004868ec0028003700dccabf000038a300b0
:101600000700320000428000114280006011b800e3
:101610008e0007000000e00001003200a315070063
:10162000dccabf000038a30001003200cd0907006a
:101630004868ef006008ab0007003200dccabf005a
:101640000038a30004003200dccabf000068a30019
:1016500001003a00ba1a07006008ab00010032002e
:10166000061e070052c8bf00e24f500009003c00b0
:10167000dccabf000038a30006003200c80be2003d
:1016800004003a00a1e2a900dc82a900dc6aa900fa
:1016900001003700dc6aa80052c8bf00e34f5000c9
:1016a00005003c00c80be2000800340052c8bf002f
:1016b000e34f5000050032006008ab000300320029
:1016c00010c0b3002a0d0700120037006008ab00fd
:1016d00005003a00da4ae2000300350040c0b300da
:1016e000230d07000b00370052c8bf00e14f500028
:1016f0000600320052c8bf00e34f50000300320022
:1017000020c0b3001a0d0700020037000040eb00b4
:10171000170d07008560a9004f04be004f03be00ef
:101720004f02be004f01be004f00be003600f90060
:10173000004006000000050014002000af03370041
:10174000f4ff2f00ad0337000001be004100070089
:101750000470a70003f0a1006509b1001600320073
:101760000d0035006828e10006003500f0ff2f006d
:10177000f1ff27000300e00013003b0001002800f8
:101780000000050000004000818048008502e9005b
:10179000fcff3a0008003700f88f420002003c00ce
:1017a0008000eb00000005008100d1000080d30024
:1017b0008502e800fcff3a000300e00002003b0065
:1017c00060001000e0801800000006000001be006c
:1017d000200007000470a70003f0a10003f8a30095
:1017e00013003a006509b10010003200090035000d
:1017f0006928e10002003500010028000000050012
:1018000000004000818048008502e900fcff3a00aa
:1018100000000600f88f4200050035008100d1006d
:101820000080d3008502e800fcff3a0000000600bb
:101830008000eb00000005004f89de008201780087
:10184000890337006011b8009703370004002000b7
:101850006a033700c70ade00f107b200f50fb200d5
:1018600008003200e1cf4200020032000170a00007
:1018700024000500810f70000100320004080500fb
:1018800044000500810f700002003a0014000500ba
:101890008502e9000000400081c04800fcff3b00d9
:1018a0000170a0002400050007f8270007836100ed
:1018b0000638e10004003a00f70720008783610042
:1018c0008703710001003a0003f0a200889fbe0068
:1018d0008a9fbe008c9fbe00470ade000480a100e4
:1018e000c71ade000580a1000700280007856000f8
:1018f00087856100f70f20000720e1009e0032007d
:101900000728e1009c003200010678000400e00096
:10191000b4003200f7072000878060000170a0004b
:101920000500e000c0003200f70720008781610059
:101930000370a000050652000f003a000b50e100b2
:101940000b0032000308e10002003a000200e1004f
:101950007e003200020450008384580004003100ed
:101960000001fd008101fd008402fd008a05fd00eb
:101970006044b800210037000520e10005003d006b
:101980000001fd008101fd008402fd008a05fd00cb
:10199000050652007a60e100050035000170a100e3
:1019a0004722dd00848070008a8070006300370069
:1019b0006044b800ef02660007ff2f0007066600cc
:1019c0000500e00006003400f08312008714dd00fb
:1019d0000511de00071bdd00060171008519de0020
:1019e0007060e10005003500090478008204780089
:1019f000030178008001eb00700656000b50e100f7
:101a000003003a00020040008380480004003700d1
:101a100060041400e0841c00020058008380580019
:101a20000188a300060032008100d1000080d300ad
:101a30008984d3000884d3000402e800270037001b
:101a40000178a30025003a000100e0000300320005
:101a50008186cf00698656000a0037008c0020007e
:101a60000000e00004003a000900780088047800d3
:101a70000004eb00700252008086cf000d06460085
:101a80000c06e9007060e100060035008000780077
:101a900009007800880478000004eb007006560006
:101aa000700252000c00e0000c0034008c08dd00d5
:101ab000f00316000703de00868070000c00dd00d6
:101ac000074bde00060070008c4cdd000743de0093
:101ad000868474000c44dd000c0252006120e10099
:101ae0002000350061016000070028008781640044
:101af000f7ff270087836400070374000300e000fa
:101b00000600320082037300040032000000e80087
:101b1000e08048000188a3000e003a00f70f200083
:101b20000720e1004a003d000170a1004722dd00ce
:101b3000810072008a8070000000be004f06be0067
:101b40004f05be004f04be00000006006000b80054
:101b5000faff37008100d1000080d3000402e800c2
:101b6000eeff37000401780089017400a10107002d
:101b70008a807000f1ff3700f70107000702780044
:101b80000001fd008101fd00f301070087027800dc
:101b9000850372000778a300040032000001fd00f5
:101ba0008101fd0006020700e4ff370085036200a3
:101bb0000768a300080032000b50e1000300320068
:101bc000f0ff2f00f1ff2700dcff37000001fd00d0
:101bd0008101fd00d9ff37000468a300d7ff320060
:101be000faff3700f8ff2700888360000b003a00f7
:101bf0000000e00009003a00830364008283730060
:101c0000020032000200be00ccff37000b50e100a2
:101c1000ceff3a000200be00c8ff370014002000cb
:101c2000810064003eff3700f8ff270088836100d1
:101c300004003a000200e00002003a008c00780044
:101c4000beff3700150020008301640039ff370014
:101c500001f827000000200081007500b7ff370061
:101c6000889fbe008a9fbe008c9fbe001b00200084
:101c70000202be000586680006002800060666000f
:101c80004709de00f20fb200820032000243e80092
:101c900080003200c729de00f30fb2007d00320061
:101ca0000343e8007b003200f107b2000170a0009e
:101cb000f507b2000570a000c708dd004903de008b
:101cc000868070004700dd00c72add004923de0062
:101cd000868272004722dd00030551000403500094
:101ce00085835800030031000000400081804800d7
:101cf0000a05e9008c1f78008a9fbe00040050008e
:101d0000858058000402420085824a00000040009d
:101d1000818048000005eb000004be006033b8007d
:101d20000406be000d48e100560031001100090014
:101d30004dccd8000c01b8000d02b80084814100e0
:101d400060824a008283530003045c0084845c0048
:101d500060055d000a00e00025003a00800578007b
:101d60000d40e1004900310088007800070078004c
:101d7000110009004d88d8000c01b8000d02b80010
:101d80008481410060824a006003110083835b000c
:101d900004045c00e0845c000900e00021003a00db
:101da0004f01be000300e0002b003200e3016000a1
:101db000070673008c81710001003200640070001e
:101dc0004200de004e5edd000c007000c258de00f6
:101dd00001e0a00083010700cf017800818071003d
:101de0004f06be004f05be004f04be0000000600b7
:101df0008c8343000d044c00e0844c0060054d00d2
:101e00000000e9000a00e000d4ff32008c834300a8
:101e10000d044c00e0844c0060054d000000e9001a
:101e2000ceff37000c0343008d834b0060044c0051
:101e3000e0844c000000e9000900e000d8ff320017
:101e40000c0343008d834b0060044c00e0844c0085
:101e50000000e900d2ff37004200de004e5edd00e8
:101e60000c007000c258de0001e0a000cf01780035
:101e70000300e000daff320060001000e08018008c
:101e8000d7ff3700f0ff2f00aaff3700f0ff2f0029
:101e9000b9ff37000404be002f0107008706780051
:101ea0000004fd008104fd002b010700078366008c
:101eb0000678a300030032000960a7000800be00f6
:101ec0002c0037000d78a300020032000800be008d
:101ed000280037000778a30026003a0001f0a1008f
:101ee00009f0a1000668a30003003200f1ff2700fb
:101ef000f0ff2f00baff37000d68a3000300320087
:101f00000800be008c807000b5ff37000768a30092
:101f100007003a000648a30003003200f1ff270043
:101f2000f0ff2f00aeff37000d48a3000300320082
:101f30006000b8008c807000a9ff37000748a3003c
:101f40000400320001f82700000020008c8070009f
:101f5000a3ff3700760107000004fd008104fd00a7
:101f600002057800720107000802be008a017800ad
:101f700059ff37000160a00012022000a25e880015
:101f800097ff37000100e000120032000500e0007a
:101f900010003200889fbe008a9fbe008c9fbe004a
:101fa0000006eb0001f8a3000300320060001000ff
:101fb000e08018000cf0a00005f8a3000300320038
:101fc00060021200e0821a000cf0a2008005eb0013
:101fd00041ff37006000b80002000500038368007d
:101fe0000700280007036300470ade000480a10001
:101ff000c71ade000580a100f70f20000720e100ce
:10200000420032000728e10040003200889fbe00f5
:102010008a9fbe008c1f7800f107b200f307b20060
:102020000400e000640032000170a0000500e00040
:10203000680032000370a00085054200eb07b10084
:102040000204b8000302b8008484440060854a009a
:10205000020ab800848444000a854a00030ab800d2
:1020600004054500040033000804d0008984d20030
:102070000a85d2008b05e9006158e1003d0035007a
:10208000021020000901610003082000898161001d
:10209000f70720008783640008867300c84cde00c1
:1020a000c853dd00878474004855de000300e0005b
:1020b0000600320082037600040032008904e80042
:1020c00060054d000a88a3000c003a00f70f2000bd
:1020d0000758e10044003d000a70a100c75ddd0023
:1020e0000a8575008a007300090078004f067800a1
:1020f0004f05be004f04be00000006000a05d100d7
:102100008984d3008b05e800f0ff3700881f780032
:102110000604780090000700070278000001fd0027
:102120008101fd008c0007008702780085037200a2
:102130000778a300050032000001fd008101fd00c9
:102140009f0007004f04780000000600850372001e
:102150000748a30003003200f0ff2f00f1ff270023
:10216000f8ff37000000200001f827008880700089
:10217000f4ff3700880178004848dd008081710055
:102180004848de00c850dd0001007000c850de0085
:10219000060478000b0178001600070088807000a4
:1021a000d2ff37000500e0000500320017002000d4
:1021b0003a0007009dff370081037000f9ff3a00e5
:1021c000860078004f0678004f05be004f04be0021
:1021d0000000050083037100f9ff32002700200092
:1021e0002e00070094ff370001f82700868070005a
:1021f000f4ff37000100e000260032006101110009
:102200007810e10023003c006022b8007010e1006b
:102210000400350080027800010078008000eb00a7
:10222000700151000200e000090034007003110049
:10223000062add00822ade008603dd008782720026
:102240000200de00860bdd00070070008208de0061
:1022500084817100f4ff2700048262008481710090
:1022600004002800848262006102600005f0a6007c
:102270000000060004827100070032000000e80040
:10228000e0804800000006000002be006000b800c8
:10229000efff37006000b80000000600889fbe0016
:1022a0000004eb006138e10016003a000100e00094
:1022b00008003a00c800de004800dd008800200069
:1022c0000100e00003003a00c800de004800dd0025
:1022d000680444008184cf00e9845400060034007f
:1022e0008908dd00f08314008703de00878070001a
:1022f0000900dd0009044400610214004f04be001f
:10230000000006000300e00008003a00c811de00eb
:102310004811dd00880020000300e00003003a00bf
:10232000c811de004811dd00680444008384cf003a
:10233000e9845400060034008919dd00f08314009c
:102340008713de00878171000911dd000904440054
:10235000e1021400e9ff37002700200001f0a70088
:1023600017002000470bde00f60fb2000400320019
:102370000643e8000a0032004702b30000000600ee
:1023800001037800f607b2000603700002003a006d
:102390000703b300000006008702b3000000060038
:1023a00001037800f607b200060370000200320055
:1023b0000770a000000006000760a00000000600f3
:1023c0000478a300040032000578a3000300320063
:1023d0000168a30001003a000200be000160a000f5
:1023e0000000060081017000270032008002eb002f
:1023f00001f8a3000300320060001000e080180024
:1024000015002000f40720000202420020003400e2
:10241000f703200087036000060420000003630028
:1024200002082000000161004700de00c909dd004c
:1024300000807100c708de000600e00008003200de
:1024400087037100060032001000b0000180b00068
:102450000188a30002003200c108de000402e80087
:10246000f107b200f30f20000320e10003003d005c
:102470004722dd00810072002900370001f82700a3
:102480000000eb00260037006000b80000000600e6
:10249000680212007f20e100020034006000b800f2
:1024a0001f0037006011b8007020e1000400350003
:1024b00080017800010078008000eb00700252007b
:1024c0000400e00009003400f00312000719dd00e9
:1024d0008419de000703dd00868171000400de0040
:1024e000070bdd00060070008408de00f7ff270000
:1024f00083836300870371000600280003036300e1
:10250000070032000700e00003003a0061016000ac
:1025100002817300020032001000b0000180b000a0
:102520000500a6000000060001f0a0000000060063
:102530004f0ade004709de00f107b200f20fb200d9
:102540000b003200f207b1000170a000c708dd00e7
:10255000c901de00838070004700dd000400a60092
:102560000000060060001000e08018000000060077
:10257000810f700001003a00000006008182cf0048
:102580000500e00010003e008082cf00ee82420095
:102590007028e1000400390007003e008000780048
:1025a0000000eb000e003700708312008600de0092
:1025b0000500dd000a003700708352008600dd0050
:1025c0000000eb0006003700e28252008508dd00c3
:1025d000708312000603de00868070000500dd00b7
:1025e0007507b0000501ea000400a600000006001f
:1025f00060001000e080180000000600889fbe0008
:102600008a9fbe00841f78007c0007004f0078007e
:1026100011003300f0ff2f00838f6c0006003b0099
:10262000040565000a00a7000800370009f0a600ad
:102630001000200008003700820f5400838f5c00d8
:10264000030039001000200001003e0000002000bf
:1026500009f0a7000000ea004f05be004f04be00cd
:102660000000e00000000600881f780003047800e6
:102670000300e00007003d0060001000e08018004b
:1026800060011900e081190002003b0001f02d00fb
:10269000030037000400070008f0a70001f0a000c5
:1026a0004f04780000000600889fbe008a9fbe008d
:1026b0000082700004027100048271002600320062
:1026c0000004be000200be006011b8006b092000cb
:1026d000950220000182cf000a0039000541b100b7
:1026e0000082cf00070039000541b1000982cf0008
:1026f000040039000541b1000882cf000100390013
:102700000541b10005425200120032000a003b00b0
:1027100082817100610164008100d1000080d300da
:102720008984d3000884d3008b05e8000442e800c4
:10273000f7ff3a00070037000804440089844c0082
:1027400000004800818048008b05e9000442e90050
:10275000f9ff3a00030007004f05be004f04be001a
:102760000000060081002000618055000b003d0044
:102770000b00200061fe2f000100e1001d0034006d
:1027800082817100610164008904d1000884d30052
:102790000000e800faff3a007100200061006400c8
:1027a0000300700002006000090032006104440070
:1027b000e0844c000988a500050032008b05e80084
:1027c0006808e10002003a008904d1000884d300bf
:1027d000f20f20000258e10005003d00c75ddd005a
:1027e000f907b20089807500080078000000060033
:1027f0000bf827008b007800000005000004be00e5
:1028000014fc07000003be000405be000200be0069
:0c28100010fc0700844f7500000006005b
:020000040000fa
:10281c00556e0000616200006c6500003a200000fb
:10282c005365000074740000696e0000677300004b
:10283c00204c00006f6300006b650000642e0000ec
:10284c000a0d0000000a00000d000000200000002e
:10285c002020000000530000797300007465000014
:10286c006d2000005365000074740000696e000058
:10287c00677300003a3a00000a0d000000310000b6
:10288c003a2000007c520000317c00002020000027
:10289c0020200000202000007c520000327c000030
:1028ac002020000020200000207c0000533100007c
:1028bc00437c000020200000202000007c530000fe
:1028cc00324300007c20000020200000202000006b
:1028dc007c530000334300007c20000020200000cb
:1028ec00207c000053340000437c00000a0d0000e3
:1028fc00003200003a2000007c500000437c0000b5
:10290c002020000020200000202000007c4d000032
:10291c00425600007c20000020200000207c00009b
:10292c0042520000567c00002020000020200000b5
:10293c007c440000567c0000202000002020000079
:10294c00202000007c4c0000565300007c2000002e
:10295c0020200000207c000044430000527c00003a
:10296c000a0d0000003300003a2000007c4c0000ef
:10297c00437c0000202000002020000020200000cc
:10298c007c430000435200007c200000202000000b
:10299c00207c000041480000527c000020200000f8
:1029ac00202000007c4f0000435300007c200000de
:1029bc0020200000207c0000414d0000437c0000e2
:1029cc000a0d0000003400003a2000007c43000097
:1029dc0054380000307c0000202000002020000033
:1029ec00202000007c4300006d5400007c2000007f
:1029fc0020200000207c0000435200004c7c000092
:102a0c0020200000202000007c4300004d580000d6
:102a1c00547c000020200000202000007c4300009b
:102a2c00524800007c20000020200000207c000088
:102a3c0043540000547c00000a0d000000350000d7
:102a4c003a2000007c4400006d5400007c20000003
:102a5c0020200000207c0000445200004c7c000030
:102a6c0020200000202000007c4400004d58000075
:102a7c00547c000020200000202000007c4400003a
:102a8c00524800007c20000020200000207c000028
:102a9c0044540000547c00000a0d00000036000075
:102aac003a2000007c420000535400007c200000bf
:102abc0020200000207c000043530000547c0000c8
:102acc0020200000202000007c4d00004854000015
:102adc007c20000020200000207c0000504f0000d3
:102aec00417c00000a0d0000000a00000d2a0000c5
:102afc002a2a00002a2a00002a2a00002a2a00007a
:102b0c002a2a00000a0d000000440000697300002e
:102b1c00706c0000617900003a3a00000a0d000068
:102b2c00003100003a2000007c420000257c0000af
:102b3c002020000020200000202000007c500000fd
:102b4c00567c00002020000020200000207c00008b
:102b5c00545600007c20000020200000207c000047
:102b6c00505700007c200000202000002020000096
:102b7c007c410000567c00000a0d00000032000071
:102b8c003a2000007c430000567c0000202000000e
:102b9c0020200000202000007c430000417c00002d
:102bac000a0d0000003300003a2000007c530000a6
:102bbc00317c000020200000202000007c5300000d
:102bcc00327c00002020000020200000207c00002f
:102bdc00533300007c20000020200000207c0000eb
:102bec00533400007c0a00000d000000343a000051
:102bfc00207c0000577c00002020000020200000da
:102c0c00202000007c430000577c000020200000a6
:102c1c0020200000207c0000417c000020200000cf
:102c2c00202000007c430000427c00000a0d0000c4
:102c3c00003500003a2000007c4300004d7c000071
:102c4c002020000020200000202000007c410000fb
:102c5c00417c00002020000020200000207c00008f
:102c6c004f430000567c0000202000002020000074
:102c7c007c4d0000437c00000a0d0000000a00009f
:102c8c000d2000004168000020520000617400001b
:102c9c00696e0000673a0000200000000a0d000079
:102cac002043000061700000616300006974000043
:102cbc00793a0000200000000a0d000020520000ac
:102ccc00656d0000616900006e6900006e670000b0
:102cdc003a200000000a00000d20000043680000ac
:102cec0061720000676500002043000079630000fa
:102cfc006c650000733a0000200000000a0d000013
:102d0c005265000061640000696e000067200000dd
:102d1c0046610000756c0000747300002e0a000000
:102d2c000d00000046610000756c0000742000006e
:102d3c004c6f000067200000467500006c6c0000b2
:102d4c002e0a00000d0000004e6f000020660000ef
:102d5c00617500006c740000206300006f6400005b
:102d6c00657300002e0a00000d000000436f000088
:102d7c00646500003a200000002000003a3a000090
:102d8c00204100007474000072690000627500003c
:102d9c00746500003a200000002000002d3e000069
:102dac0020000000466c000061670000733a0000d0
:102dbc003a7c00005365000074730000204c000046
:102dcc004b7c00007c420000617400007420000009
:102ddc004f5600007c7c00004261000074740000bf
:102dec0020480000567c0000007c0000426100007e
:102dfc007474000020550000567c00007c420000da
:102e0c0061740000742000004f5400007c7c0000b2
:102e1c0053790000732000004f5400007c0a00001e
:102e2c000d000000202000002020000020200000c9
:102e3c00202000000053000045540000202000001a
:102e4c002020000020200000004300006c650000e2
:102e5c0061720000202000002020000000430000d0
:102e6c0068650000636b0000696e0000673a000043
:102e7c0020000000533100003a20000000530000f5
:102e8c00323a000020000000533300003a200000ca
:102e9c0000530000343a00002000000043480000ba
:102eac003a200000007600006f6c00007461000096
:102ebc0067650000206900006e70000075740000ea
:102ecc002873000029200000636100006c2e0000b4
:102edc000a0d0000004e00006f74000068690000cd
:102eec006e67000020630000616c00002120000070
:102efc00566f00006c7400006167000065200000d4
:102f0c006f750000742000006f66000020720000d6
:102f1c00616e0000676500002e0a00000d000000c5
:102f2c004000000021000000202d00003e43000066
:102f3c0072450000213c00002d0000000a0d00002d
:102f4c0050520000473a00000a0d00005374000074
:102f5c006f720000656400003a0000000a0d00006a
:102f6c00436100006c6300003a2000002000000068
:102f7c004d6500006d200000427500007379000063
:102f8c00000a00000d4e0000564d00003a0a0000e9
:102f9c000d530000746f000072650000643a00006d
:102fac00000a00000d53000065740000732000003f
:102fbc00616e000064200000566100007273000016
:102fcc002053000061760000656400002e0a0000aa
:102fdc000d000000502000004f6e00000a0d000094
:102fec0000500000204f0000666600000a0d000033
:102ffc00000a00000d48000055440000204f00005e
:10300c006e0a00000d0000000a0d0000485500007b
:10301c00442000004f660000660a00000d0000000e
:10302c00546900006d650000206c000065660000ae
:10303c00743a000020000000206d0000696e000052
:10304c007574000065730000206100006e64000060
:10305c002000000020730000656300006f6e00000c
:10306c00647300002e0a00000d0000000a0d000021
:10307c0046610000756c0000747300002043000072
:10308c006c65000061720000656400002e0a00008f
:10309c000d0000000a0d0000563100002e3000001b
:1030ac005f320000532d0000345300000a0d000065
:1030bc00005300006574000073200000556e000082
:1030cc004c4b0000442e00000a0d0000005700007d
:1030dc0061690000742e00002e2e000000530000c9
:1030ec0065740000732000004c4b0000442e00005f
:1030fc000a0d0000000a00000d5000006f77000060
:10310c0065720000204f000075740000204f000015
:10311c006e2e0000000a00000d43000068610000e4
:10312c007267000065200000476f00002e00000051
:10313c000a0d0000524c0000200000000a0d000097
:10314c004348000020000000556e00006b6e00002c
:10315c006f7700006e200000436f00006d6d000063
:10316c00616e0000642e00000a0d00000049000092
:10317c006e690000742e0000200a00000d00000093
:10318c0020000000250000005600000054560000ee
:10319c0000500000570000004156000000430000a2
:1031ac005600000043410000003a0000533100007b
:1031bc00003a000053320000003a00005333000084
:1031cc00003a000053340000005700000043000098
:1031dc005700000041000000434200000043000083
:1031ec004d00000041410000004f0000435600001c
:1031fc00004d0000430000000a0d0000000000001c
:10320c00c6980000c8980000ca980000cc9800002e
:10321c00cf980000d2980000d5980000d8980000f4
:10322c00db980000df980000e3980000e7980000ae
:10323c00eb980000ed980000f0980000f298000068
:10324c00f5980000f8980000fb980000ff9800002b
:10325c00029900004865000061740000657200006e
:10326c00207400006f6f0000207300006d6100007f
:10327c006c6c0000206600006f720000207400006f
:10328c006865000020770000617400007473000012
:10329c00207900006f75000020770000616e00003f
:1032ac00742e0000004e00006f20000068650000c6
:1032bc0061740000657200002064000065740000f9
:1032cc006563000074650000642e00000048000077
:1032dc00656100007465000072200000746f0000ce
:1032ec006f2000006c610000726700006520000018
:1032fc006f72000020730000686f00007274000091
:10330c00206300006972000063750000697400009e
:10331c0020640000657400006563000074650000a3
:10332c00642e0000004c00006f770000204200006b
:10333c006174000074200000566f00006c74000073
:10334c0061670000650000004261000074740000b9
:10335c00204f0000766500007220000043750000cd
:10336c0072720000656e000074000000436800007b
:10337c006172000067650000204f00007665000058
:10338c00722000004375000072720000656e000030
:10339c0074000000536f0000667400007761000039
:1033ac00726500002042000061740000742000006f
:1033bc00485600002044000065740000656300005e
:1033cc00740000004261000074740000204f000083
:1033dc007665000072200000546500006d700000de
:1033ec00004200002d4600006c61000067280000c0
:1033fc007329000020530000657400003a2000007f
:10340c005379000073740000656d0000206c00009f
:10341c006f6300006b650000642000006f75000096
:10342c00742e000000530000656c00006620000044
:10343c004f7600006572000020540000656d00009e
:10344c0070000000537900007320000053680000e6
:10345c0075740000646f0000776e0000005000006f
:10346c00574d000020650000786300006570000077
:10347c00004f0000736300002065000078630000bb
:10348c0065700000004100006464000072200000c0
:10349c006578000063650000700000005354000064
:1034ac004b20000065780000636500007000000090
:1034bc004d54000048200000657800006365000052
:1034cc00700000005265000073370000206500009a
:1034dc007863000065700000004500007272000007
:1034ec006f720000204300006f6400006520000034
:1034fc004e6f0000742000005573000065640000de
:10350c002e0000004d4300005520000042720000c8
:10351c006f7700006e4f00007574000000570000bc
:10352c004454000020720000737400000075000009
:10353c006e2d0000686100006e6400006c65000078
:10354c006420000065780000636500007074000062
:10355c00696f00006e2000007273000074000000a0
:10356c004f700000636f0000646500002072000063
:10357c0073740000004d0000434c0000522000000a
:10358c007273000074000000496c00006c65000050
:10359c00676100006c200000496e0000737400002d
:1035ac000053000079730000205200007374000077
:1035bc00004900006e760000616c00002073000072
:1035cc0065720000696100006c200000706f0000e3
:1035dc0072740000005500005342000020430000ac
:1035ec00687200006720000046610000756c0000e6
:1035fc007400000050430000686700002073000056
:10360c0065740000203e00002031000030300000c6
:10361c00253a0000204300006c6100006d70000032
:10362c00696e0000672e0000005600004820000064
:10363c004368000056000000564c00002043000078
:10364c006856000000560000482000004368000047
:10365c0043000000564c000020430000684300006b
:10366c000056000048200000425400006d7000001d
:10367c00005600004c200000425400006d70000009
:10368c000056000048200000424300000056000095
:10369c004c2000004243000000560000482000006f
:1036ac00534d0000005600004c200000534d00000c
:1036bc00005000004f520000543100002042000026
:1036cc005359000020650000727200000050000089
:1036dc004f520000543200002042000053590000a9
:1036ec00206500007272000000500000676d000041
:1036fc0020430000686b0000737500006d20000013
:10370c0045720000720000004e5600004d20000073
:10371c00436800006b730000756d000020450000cd
:10372c0072720000005300006574000073200000ea
:10373c00436800006b730000756d000020450000ad
:10374c0072720000004e000056530000204300002f
:10375c00686b0000737500006d200000457200005e
:10376c0072000000504f0000525400003120000045
:10377c004552000052000000504f0000525400000f
:10378c00322000004552000052000000536f000030
:10379c0066740000204f0000766500007220000067
:1037ac004375000072720000656e0000740000002a
:1037bc00564800002053000031000000564c000019
:1037cc002053000031000000564800002053000038
:1037dc0032000000564c0000205300003200000064
:1037ec00564800002053000033000000564c0000e7
:1037fc002053000033000000564800002053000006
:10380c0034000000564c000020530000340000002f
:10381c0043680000617200006765000072200000c0
:10382c00696e000070750000742000004f76000077
:10383c0065720000205600006f6c000074000000e0
:10384c00486100007264000077610000726500003e
:10385c00204f0000766500007220000043750000c8
:10386c0072720000656e0000742000005368000046
:10387c0075740000646f0000776e00003a20000041
:10388c00556e0000706c000075670000206300002e
:10389c006861000072670000657200002073000010
:1038ac006f7500007263000065200000616e0000ff
:1038bc006420000074750000726e0000207000001f
:1038cc006f77000065720000206f000066660000d4
:1038dc00206600006f7200002032000030200000d3
:1038ec0073650000636f00006e64000073200000bd
:1038fc00746f000020720000657300006574000096
:10390c002e00000048610000726400007761000026
:10391c0072650000204f00007665000072200000e8
:10392c00566f00006c740000616700006520000099
:10393c005368000075740000646f0000776e00001f
:10394c003a200000426100007474000065720000af
:10395c007920000053610000666500007479000056
:10396c0020460000757300006520000054720000b2
:10397c006970000070650000642e00002055000086
:10398c006e690000742000006d75000073740000f7
:10399c002062000065200000736500007276000054
:1039ac0069630000656400002e00000042610000a5
:1039bc00747400006572000079200000556e0000e0
:1039cc006465000072200000566f00006c740000eb
:1039dc0061670000652000004c6f0000636b000005
:1039ec006f750000740000004368000061720000f5
:1039fc006765000072200000706f000077650000a2
:103a0c0072200000686100007320000063790000e0
:103a1c00636c000065640000207400006f6f000090
:103a2c00206d0000616e00007920000074690000b8
:103a3c006d650000732e000020410000626f0000d5
:103a4c0072740000696e000067200000666f000051
:103a5c00722000006e6f0000772e000000530000f3
:103a6c00797300002053000061660000652000009f
:103a7c004d6f0000646500002e2000004d690000b1
:103a8c006e6900006d7500006d200000446500003b
:103a9c006275000067200000467500006e63000030
:103aac00746900006f6e0000616c000069740000a6
:103abc00792e0000005000006f720000742000008e
:103acc00536100006e69000074790000204500000d
:103adc00727200006f720000005500006e6b0000e7
:103aec006e6f0000776e000000000000309900003f
:103afc00599900006d99000099990000aa9900004d
:103b0c00bc990000d0990000e8990000f7990000da
:103b1c00199a0000289a0000359a00003f9a00007c
:103b2c00499a0000549a00005e9a0000689a0000be
:103b3c00739a0000889a0000959a00009d9a0000e4
:103b4c00b69a0000c19a0000ca9a0000d79a0000e9
:103b5c00df9a0000f19a0000009b00001b9b000004
:103b6c00229b0000299b0000309b0000379b00002b
:103b7c003f9b0000479b00004d9b0000539b0000a7
:103b8c00599b00005f9b00006d9b00007b9b00001d
:103b9c008a9b0000999b0000a99b0000b89b000029
:103bac00c29b0000cc9b0000de9b0000e49b00004d
:103bbc00ea9b0000f09b0000f69b0000fc9b0000c1
:103bcc00029c0000089c00000e9c0000269c00003b
:103bdc00889c0000dc9c0000fa9c0000359d0000d5
:083bec00619d0000739d0000c3
:020000040000fa
:103bf4006449ed004be8b700b0c3b300cdebb700a8
:103c040000000600889fbe000004be006011b800da
:103c1400c8f607000000e00001003d0009f0a20022
:103c24000800be004f04be0000000600889fbe00ce
:103c34000004be000001be00e7f807000801be0052
:103c4400e5f807004f04be0000000600889fbe0090
:103c54008a9fbe008c1f78000005eb00080020003e
:103c6400892c24000a0678002ba920004250dd008c
:103c7400008045001000be000801be00adf607003c
:103c84000000e00004003d004250dd0000804500db
:103c94001004be000a0678000a05e800e40f550087
:103ca400f2ff3a004260dd0021a9200000804000bc
:103cb4001000be0002002000832c24009ff60700a1
:103cc4000000e000070034004260dd0021a920006c
:103cd4000080400002002000832c24000288be00e3
:103ce4000d0037004260dd0021a920000080400063
:103cf4001000be006011b8008ef607000000e0005e
:103d040005003d004260dd0021a920000080400044
:103d14006011b8000288be004266dd0020a92000c0
:103d24000c0640001c00be00284e8000394e800066
:103d340002002000832c2400c8f707000001be0005
:103d44000800be00a4f80700004f8800114f880047
:103d54004f0678004f05be004f04be000000060069
:103d6400ea874700889fbe008a9fbe008c9fbe00e2
:103d74008e1f7800d0538000e1538000a1ff07001c
:103d8400d2cc2c00c3d423006af607000000e00064
:103d94004b003d00dccabf000038a30048003200dd
:103da4005052800061528000505488006154880051
:103db40010498000f0b79f002149800081bf9f0017
:103dc400f0488000014980007fb197008fb99700c7
:103dd400b4f60700d0b79f00e1b79f006011b800a8
:103de40054f607000000e00004003a000000200040
:103df40001f82300d0b79f00e1b79f000007eb0054
:103e04000a0020000bf023004271dd002202b00002
:103e140001a420000281400012007800920090006a
:103e24007fb197008fb997009ef607000004be008b
:103e34006011b8003ff607000000e00001003d00fb
:103e44006044b8005fb19700efb197000800be006e
:103e540082f707000a01be0092f607000004be00c4
:103e640072ff07000001be0097f607000006be00bf
:103e74000a01be000800be0057f807000001be009a
:103e84000c00be0090f607000a01be008ef6070083
:103e940002002000832c24004ff807000001be001c
:103ea400c270dd0020a92000810040008288be008d
:103eb4000e07e800e40f5700d3ff3a00da8aa8009f
:103ec4004f0778004f06be004f05be004f04be00ea
:103ed400af00b1000000060081212000914078006d
:103ee4000000eb000148a30013003200e120200091
:103ef400914078000148a3000f0032009121200076
:103f0400914078000108a3000b003200f12020004a
:103f1400914078000108a3000700320081212000ad
:103f2400914078000108a30003003a000ec2bf00cc
:103f3400610060000000a20000000600b1ad200096
:103f4400914078000138a30055003a005448e2003b
:103f540053003a00a1ad2000914078000128a3004d
:103f64004f003a000000e0004d003a00b1ad2000df
:103f7400914078000128a30049003200d6ff0700d1
:103f84000000e0008e003200ff3ffc0080072000ac
:103f9400a10920003274200000497800014978000a
:103fa4000049780032742000004978000149780003
:103fb40001497800720020003374200080497800a1
:103fc400814978008249780060042000710520004e
:103fd40022742000004978000149780000497800e3
:103fe40022742000004978000149780001497800d2
:103ff4001208200023742000804978008149780049
:1040040082497800db4aa9004110200091407800e1
:10401400f0ccb30080c060000154a000814178005e
:104024004210200003497800a2832300120888006c
:104034000021ef00011120009140780080c0600051
:104044000144a0008142780004112000054a780050
:1040540041072700610888000621ef00e3112000d2
:104064009341780080c161000354a000834278002a
:10407400e4112000054a78001421ef00d2088800da
:104084000212200012417800004061000044a000a8
:1040940020e1b700e10888001821ef003c00370058
:1040a400e10f500046003a00dbcabf000028a3001d
:1040b40043003a00db4aa800ff3ffc0003c3b300ff
:1040c400034078000461b700a20e2e001208880095
:1040d40010c1bf00f1ccb300014060000054a00047
:1040e40010e1b700a483230064088800034078002b
:1040f4001e61b700d2088800021220001241780025
:10410400814061000154a000814178000212200026
:1041140003497800e408880080072000a1092000f2
:104124003274200000497800014978000049780081
:104134003274200000497800014978000149780070
:10414400720020003374200080497800814978008f
:104154008249780060042000710520002274200048
:104164000049780001497800004978002274200051
:1041740000497800014978000149780012002000c4
:1041840023742000804978008149780082497800ae
:1041940042c7bf000008a300050032000000000071
:1041a4000000000042c7bf000008a300fbff3a0064
:1041b400dbcabf000018a300010032005220ef0048
:1041c40000000600d0528000e1528000020020006e
:1041d4000306240059f507000000e0000400340041
:1041e4000de2a8000f42a80007e2a8000300370070
:1041f4000de2a9000f42a90007e2a9000000060091
:104204006f006000e90f500002003c000043b00062
:10421400010037007043b00000000600f287470039
:10422400889fbe008a9fbe008c9fbe008e1f7800b0
:10423400c0b79f004408dd004fb197000200400062
:1042440072ba200062407800d0c2b2000080fb0045
:104254000000e9004f00de00e0b79f00cfb19700f7
:10426400e9814100d3b79f004fb09700830f5000fe
:1042740064003d00ef0f500064003c00000778002c
:104284000001eb00a2b79f00dccc2c00cddc2300a6
:104294006044b8008001e80093b79f00c408dd00c3
:1042a400b1b79f000a0020000b1224006fb09700e2
:1042b4000000e00004003200cfb09700810f5700e7
:1042c40001003a001fb797003fb197000e0041006c
:1042d40071ba2000e1407800e1ef9f000104e000a2
:1042e4000f00320003c2b30083cf50000c00320031
:1042f400eacf50000a003200f0c2b30080cf500071
:104304000300340092c3b30082cf5000090034008c
:10431400efe99700e0c2b30080cf51002d003200d6
:10432400efb097000100e0003d00320009f0a20068
:104334003b0037006fe99700e3c2b300834f51009d
:10434400270032002fb097000000e0001300320075
:104354000200fb000003b100cf80de0035f507004a
:104364000c01be001cf70700f0b79f0081bf9f003f
:10437400d2cc2c00c3dc23000c00be0016f70700cf
:104384000006be007fb197008fb997000800be00f9
:104394004df507000004be00130037000a01be00fb
:1043a4000800be000cf707000004be00efe9970008
:1043b4000300fb000003b100cf80de001df5070001
:1043c4000001be000800be003ff507000004be0067
:1043d4000500370010002000a0b79f00020037003e
:1043e40011002000a1b79f000e07e8005fb19700fd
:1043f400820f570006003d00ef0f5700abff34005b
:10440400030037006044b800010037006044b8007e
:10441400efb197000300e0000100320009f0a200b0
:104424000800be004f0778004f06be004f05be00cf
:104434004f04be002f01b10000000600889fbe009b
:104444008a9fbe000005be000204be00dbcabf0096
:104454000028a30005003a000200200003d823002e
:104464000800be00dcf607000004be006011b800be
:104474000a00be00aff407000000e00002003a00aa
:104484000a0020006b6124000240220043972400ac
:104494000800be00d0f607000a01be00eff50700d1
:1044a4000200200003d82300cbf6070002002000fe
:1044b40003f82300fbf40700c3f407004f05be0014
:1044c4004f04be0000000600881f7800dc4aa900e3
:1044d4006000b80090528800a1528800f053880010
:1044e40001548800105488002154880050528800d8
:1044f4006152880090548800a1548800b054880008
:10450400c1548800d0548800e1548800f0548800d5
:1045140001558800d0538800e1538800c020ef0083
:10452400c220ef00c420ef00c620ef00f0ff2100fe
:1045340060168800d022ef00ce22ef0020fb2f006f
:10454400f0168800e222ef00e022ef00a0fe2f0028
:10455400c0168800dc22ef00da22ef00c021ef0051
:10456400c221ef0040062000200e8800c621ef0083
:1045740008072000480e8800ca21ef00cc21ef0074
:10458400d021ef0000a02200a00e8800d621ef0069
:10459400d821ef00da21ef000e22ef000fe2a9008c
:1045a4000c22ef000d42a800a2702d00b3162400c7
:1045b4000000200061612400a0ff0700a010880013
:1045c4001822ef0019e2a9001622ef00a2702d00b4
:1045d400b3162400000020006161240097ff070047
:1045e400f01088000622ef00500b200020108800f5
:1045f400402e20000015880040422000101588003d
:104604000098200020158800a622ef0000e02f006b
:1046140040158800f01f20005015880008407800dd
:104624009960b700410920009140780080cfb30021
:1046340080c060006140b3008141780042092000dd
:1046440003497800c10920009140780080c06000cf
:104654006140b30001417800c4092000024a780097
:10466400710920009140780080c060005140b3007f
:10467400014278007309200084497800520920001f
:1046840012417800f1c8b300014161000264a00046
:10469400024278005309200084497800b2092000be
:1046a40012417800004161000224a0000242780017
:1046b400b309200084497800a2092000124178003f
:1046c400014161000264a00002427800a3092000b5
:1046d4008449780092092000124178000041610069
:1046e4003240b300024278009309200084497800e4
:1046f400020a200012417800014161000243b30024
:1047040002427800030a20008449780082092000cc
:1047140012417800014161000254a0000242780075
:104724008309200084497800020a2000124178009d
:10473400004161000214a00002427800030a200034
:1047440084497800f2092000124178000040610099
:104754000014a0009fe0b7009ec0bf0001406000ad
:104764000044a0009ee0b7009fc0bf0081406000ed
:104774000144a00001417800f009200002487800bb
:104784004f04780000000600889fbe00e0fe200071
:1047940000018800f847800009488000d047800065
:1047a400e14780000801be0047f407000001be0095
:1047b4000800be0029f50700204088003140880029
:1047c40060662600e041880060fd2300f041880017
:1047d40000562d0000428800808124001042880089
:1047e400dc0aa90081e0a9008420ef008620ef0004
:1047f4008820ef00ff3ffc008c20ef008e20ef00ac
:104804009020ef008dc0a8008da0a8008c60a800a7
:104814008d20a8008d40a8008f00a8008f20a8003c
:104824008c00a8008e00a8008ee0a9008cc0a8000f
:104834008ea0a8008ec0a8008d60a8008200a900e8
:104844008240a9005220ef00a1e2a800c1e1a80023
:1048540011e1a80005e1a8001fe1a80021e1a800da
:1048640058fe070017e2a8001942a800dcaaa80015
:104874004f04be000000060013ff0700ff3ffc00ca
:104884008420ef008620ef008820ef008c20ef00ca
:104894008e20ef009020ef008d20a8008d40a8000e
:1048a4008f00a8008f20a8008ea0a8005220ef003f
:1048b400db2aa800c1e1a90011e1a90005e1a900d2
:1048c40013e1a90021e1a9003efe070017e2a800b8
:1048d4001942a80000000600b1fe2f00c11688008e
:1048e400d2a2ef00dc42a90061416000c12d20008a
:1048f400914078000104a10082c0700081417800d9
:10490400c22d2000034978000000fb008000d10084
:10491400e1c0600001c14000612d20009140780099
:104924000114a10082c0700081417800622d200032
:10493400034978004201de00614161004211dd005b
:10494400612d2000914078000124a10082c07000f4
:1049540081417800622d200003497800c300de0005
:10496400e1c06000c308dd00d6c2bf000034a1006e
:1049740001407000d6e2b700a0fe2f00c0168800e8
:1049840010ff2f009016880000000600b1fe2f00d3
:10499400c1168800d2a2ef00dc42a8000000fb0090
:1049a400610160000204a200c12d20009140780042
:1049b4000104a1008140710081417800c22d2000d2
:1049c40003497800e20060008100e900cf08de00be
:1049d40001c14000612d2000914078000114a10024
:1049e40082c0700081417800622d20000349780064
:1049f400640160000201e9004f11de004211dd0094
:104a0400612d2000914078000124a10082c0700033
:104a140081417800622d200003497800e80060009d
:104a24008100e900cf08de00c308dd00d6c2bf0064
:104a34000034a10001407000d6e2b700a0fe2f00b0
:104a4400c016880010ff2f00901688000000060092
:104a5400889fbe000004be0002002000432b2400f7
:104a640036f307000000e00003003400dacabf0098
:104a74000028a3000900320002002000832c240037
:104a84000800be002df307000000e000060034001b
:104a9400dacabf000028a30003003200f0c0b3004c
:104aa400baff07002f00370002002000632924000a
:104ab4000800be0021f307000000e00003003400fa
:104ac40070c0b300b1ff07002600370002002000c9
:104ad400832424000800be0018f307000000e0004f
:104ae4000300340030c0b300a8ff07001d003700e6
:104af40002002000831c24000800be000ff30700fe
:104b04000000e0000300350010c0b3009fff070061
:104b14001400370002002000831c24000800be009b
:104b240004f307000000e0000c003d00ddcabf00f4
:104b34000038a30009003a0062c8bf000028a3009f
:104b44000300320010c0b30090ff070005003700d7
:104b54000040eb008dff0700020037000040eb002f
:104b64008aff07004f04be00000006000004e000b6
:104b740055003400e34f500003003a0060c0b30016
:104b840082ff070052003700e44f500009003a004a
:104b9400dbcabf000008a30003003200cbcbbf0078
:104ba4004dff07004a003700cbcbbf0077ff07005b
:104bb400470037003186200091407800e9cf50004b
:104bc4003a003400e14f500038003a006368ef00c7
:104bd400ddcabf000028a3000900320062c8bf007c
:104be4000048a3000300320020c0b30067ff0700a1
:104bf400370037000040eb0064ff07003400370043
:104c0400dacabf000028a3002400320062c8bf0033
:104c14000008a3000d003200cacbbf00e74f5000cc
:104c240003003200dacabf000068a30007003200a4
:104c3400305280004152800002002000831c240076
:104c440021f3070082ff07002100370062c8bf007c
:104c54000018a3000d003200cacbbf00e74f50007c
:104c64000a003200dacabf000068a30007003a0055
:104c7400305280004152800002002000831c240036
:104c840011f3070072ff0700110037003052800053
:104c9400415280006eff07000d0037003052800043
:104ca400415280006aff07000900370063c8bf0053
:104cb400e94f500001003c006368ec0064c8bf0089
:104cc40005ff0700020037000040eb0002ff070069
:104cd4000000060011002000f21f2000820f500087
:104ce4001b003c00ff3ffc00811f780000004000d7
:104cf40001c02f0001004000f1072000213b880083
:104d0400103b880041042400013b88005105200029
:104d1400313b8800a10a2000313b880061e7a800ec
:104d24000000000000000000cf0078008000eb00cd
:104d340004003700dbcabf000018a30001003200e2
:104d4400910288006147e200faff35008000eb0021
:104d54000100780000000600889fbe000004be0029
:104d640008007800dbff070010002000f11f20007e
:104d7400810f540021003c00ff3ffc00801f78009d
:104d8400811f7800821f78000804440000c02f00af
:104d940000044400f0c7b30032e0b70029008800e3
:104da400080088000208bb0041002400013b880081
:104db40051052000313b8800a10a2000313b8800c6
:104dc40061e7a80000000000000000004f01780027
:104dd400cf0078004f0078008000eb00040037001b
:104de400dbcabf000018a300010032009102880052
:104df4006147e200faff35000000eb004f04be00fb
:104e040000000600cae8b70061468800ff3ffc00c6
:104e1400841f7800801f7800a18c200091407800c6
:104e240020032000014878006146800001008800ca
:104e34001082ba0000000000000000004000800062
:104e440020468800a18c2000914078002003200097
:104e54000148780061468000010088001002ba0011
:104e64000000000000000000400080004046880070
:104e74004f0078004f027800dbcabf000018a3007f
:104e8400010032005220ef0040468000000006007e
:104e9400800078000000eb00f21f2000828f500099
:104ea40005003c0000e02700808040008180400035
:104eb400f0c7b300d3ff070000000600889fbe00c0
:104ec4008a9fbe00ce28ef000004eb00fa0f2000fa
:104ed400ebff2700880078000040eb00c9ff0700c3
:104ee40080047800880078000040eb00c5ff0700cc
:104ef400800078008a84640070468000008044004a
:104f0400c808de00c408b40081004000714688006f
:104f14000884e8008b0f5400eeff3a00890f20004c
:104f2400fb0f200013003700880078000940780048
:104f3400b4ff070000057800880078000940780075
:104f4400b0ff07000b0565007146800001054500b0
:104f54004800de00000545007a4688000884e80021
:104f6400e20f4400f0ff3a008904e8008b8f5400fc
:104f7400020032000004eb00ebff37009a19b00086
:104f84007a4688004f05be004f04be0000000600ac
:104f9400caff070070468000404b880000000600ee
:104fa400889fbe008a1f7800d028ef000004eb0021
:104fb400fa0f200008007800b5ff0700800478008d
:104fc40008007800b2ff07008a84640081468000ec
:104fd400818444004800de008084440089468800bf
:104fe4000804e800e01f2000800f5400f1ff3a009d
:104ff4004f0578004f04be0000000600e8ff0700dc
:1050040081468000f01f200053ff070000000600c7
:10501400881f78004e48e2000d0034000004eb00c5
:105024004dc8bf0088004400e29b2000e280780065
:105034000000fb000000440047ff07000804e800ec
:105044004ec8bf000000fb00880f5000f4ff3c0076
:105054004dc8bf000000fb00416527003eff07006c
:10506400014380004dc8bf00e28420001241780053
:105074000201fb000000fb000000410036ff0700b6
:10508400deff0700daaaa9004f047800000006003a
:105094000040eb00b5fe070090548000a15480004e
:1050a400604e8800714e8800b0548000c154800066
:1050b400804e8800914e8800d0548000e1548000d6
:1050c400a04e8800b14e8800f05480000155800045
:1050d400c04e8800d14e8800cdff0700e202a9002f
:1050e40000000600881f78004d48e2000b003400e1
:1050f4000004eb0008004400418f2000e100780028
:105104000800780014ff07000804e8004dc8bf0039
:105114000000fb00880f5000f6ff3c00715624008d
:105124000000eb000cff0700b4ff07004f047800f9
:1051340000000600889fbe008a1f7800d228ef0076
:105144004d48e200120034000004eb00fa0f200086
:10515400080078004eff07008004780008007800fb
:105164004bff07008a8464009146800081844400d8
:105174004800de0080844400994688000804e80062
:105184004dc8bf000000fb00880f5000f0ff3c003a
:105194004f0578004f04be0000000600d428ef003d
:1051a4004d48e200110034008000eb00010078005b
:1051b400f40f200000014000438f200063017900b8
:1051c40084016100818041004811de00828040003a
:1051d4000000e800d2842000124178000201fb00a4
:1051e400800f5100f3ff3c00a14688000000060038
:1051f400eaff0700a0468000b046880000000600d1
:10520400889fbe00fa28ef0000122400e0478800bf
:105214000000200001f82300f047880001488800be
:1052240032dd24001248880022e623002248880048
:1052340053e3250033488800a3e323004348880050
:10524400a49b240054488800c4e0230064488800d8
:105254001783200077488800c7da2300874888002e
:1052640068ba29009848880048e42300a8488800c0
:1052740069662600b948880069f62300c948880091
:10528400325c2f00d248880082082400e24888005b
:1052940063662600f34888006308240003498800f5
:1052a400d4cc2c0014498800c40424002449880068
:1052b400a7992900374988009701240047498800a5
:1052c4002a29ef00080024006849880070498800f2
:1052d400814988000000200001f0230090498800e3
:1052e400a149880069662600b9498800690224003a
:1052f400c94988003a29ef0002102400e2498800d5
:105304003e29ef0083102400034a8800104a8800d5
:10531400214a8800007d2000404a8800a000200027
:10532400504a8800f1002000614a8800820220006f
:10533400724a880032022000824a880092012000ca
:10534400924a88005429ef00b04a88007203200072
:10535400c24a880022032000d24a8800e14a880019
:10536400c1032000f14a880001052000014b880098
:1053740031002000114b880011002000214b8800cf
:10538400314b88006a69ef006b69ef006c69ef00cc
:1053940067c4b300f4a32000074a780059c0b300df
:1053a400e8a32000094c78000001eb009256880025
:1053b400a2568800b2568800c2568800529820002f
:1053c4000149780087c0b30064982000074a780038
:1053d40096c0b30079982000864c780088e9b7001d
:1053e400b5c0b3009398200085497800c4c0b300c9
:1053f400a8982000044c780043c1b300b298200060
:10540400034978008c69ef00b569ef0042c0b3002e
:10541400699b2000824c7800b769ef00b869ef00ff
:1054240001447800d9992000884c7800874078009e
:10543400e9992000814c780006447800f79920000f
:10544400884b7800a0e9b70005407800a1e9b700cf
:1054540084437800219a20008748780083447800a8
:10546400389a2000094c7800a469ef00b969ef006c
:1054740082407800a09b200001487800bb69ef00bf
:10548400bc69ef005aff07004f04be00000006008d
:105494005148e20008003a006008ab000600320000
:1054a40030c0b30052e8b70010c0b30049e8b700f9
:1054b40051e8b7001d00370049c8bf00e34f500052
:1054c40005003a0051c8bf00e14f500002003c0003
:1054d4005168ec001500370051c8bf00e24f50007e
:1054e40012003a00dacabf000048a3000f003200dd
:1054f4004dc8bf000000fb000000e80064fe070088
:1055040041652700810f500001003200cff90700e8
:1055140030c0b30051e8b7003ecabf00e54f5000a9
:1055240002003a0020c0b30052e8b70000000600b1
:105534004027a9004087a90041e7a90041c7a90065
:1055440040e7a90040c7a90000000600881f7800b2
:10555400dd4aa800d8518000f30f54000300360040
:105564003a2aef000004eb00120037000800e000c4
:1055740010003200880278000001eb000043eb00c9
:1055840017c0b300f601410083814100e49b200071
:10559400e4817900830f500001003a00074378004a
:1055a4000201e800850f5100f6ff3a000604e0000e
:1055b4000d003a00e2072000820f50000a003e006e
:1055c400f6014400e29b20008381410000b1790090
:1055d400a0022000080040000000400001317800d3
:1055e4000804e800d85188004f0478000000060041
:1055f400decabf000008a30003003a0080c0bf0059
:105604000018a300030032008000eb00d00020004b
:10561400ceff0700decabf000018a30003003a0053
:1056240080c0bf000028a300030032008000eb000c
:10563400f0002000c5ff0700decabf000028a30059
:1056440003003a0080c0bf000038a300030032000a
:105654008000eb00e0002000bcff0700decabf00b2
:105664000038a30003003a0080c0bf000048a30034
:10567400030032008000eb0000012000b3ff0700ac
:10568400decabf000048a30003003a0089c0bf007f
:105694000038a300030032008000eb00c0002000ab
:1056a400aaff0700decabf000058a30003003200af
:1056b4008000eb0010012000a4ff0700d20be200e1
:1056c4000200320010c0b30052e8b700d22bef0042
:1056d40000f02f008020b6008960a90000000600b9
:1056e40040c7bf000048a300030032008000eb0065
:1056f4004001200095ff07004147e20003003d0000
:105704008000eb005001200090ff070041c7bf005c
:105714000068a300030032008000eb006001200059
:105724008aff070082ff07000000060050a52a0038
:10573400d00be30001003a00e9ff070050a52a005e
:10574400805e8800d22bef0079ff0700000006007e
:1057540013fe0700f01f2000cdfd07008000780035
:105764000000eb0082468000810f510005003200ea
:1057740080007800a002200074ff0700dccaa800a3
:105784001000200000000600889fbe00f0ff070004
:10579400800078000000eb000100e00018003a00ef
:1057a4004e48e2000d00340000047800e99b20001c
:1057b4004dc8bf000000fb0000004400b4fd07001a
:1057c4008800440080b478000804e8004ec8bf0094
:1057d4000000fb00880f5000f5ff3c004ec8bf00de
:1057e400d1842000914078008100fb000000fb0080
:1057f40000804000a6fd0700004388001000200040
:105804004f04be00000006004dc8bf000000fb00ae
:105814009ffd070041652700810f500001003a00f9
:10582400d9ff070000000600a4fd07000000eb00fc
:1058340071468000424b8000810f51000500320008
:10584400800078009002200040ff0700dccaa80016
:10585400100020000000060050fe070035fe07007f
:105864000000eb0091468000a2468000810f5100a9
:105874000500320080007800c002200033ff0700da
:10588400dccaa8001000200000000600889fbe00ab
:10589400afff0700800078000000eb000100e0008b
:1058a40013003a004d48e2000b0034000004780075
:1058b400498f20000800780075fd07008800440027
:1058c40080b478000804e8004dc8bf000000fb0065
:1058d400880f5000f7ff3c0045fe0700deff07007d
:1058e40000f0a7000000ea000000e9004f00de001d
:1058f4004f04be000000060028fe07000000eb0075
:10590400b1468000a2468000810f5100040032009d
:1059140080007800b00220000cff07001000200077
:1059240000000600e10f5000040036008000eb0088
:10593400e003200005ff070010002000000006001f
:10594400f8ff070080004000c2892000e280780050
:10595400ef8f50000400360000004000c189200091
:10596400008040000008eb0000000600edff070087
:1059740061892000e14078000104e0000500320064
:105984000140fe0061892000e14078000104e0004c
:10599400fbff3a0000000600e2ff07008000400021
:1059a400e2862000e28078000100e00005003d006e
:1059b40000004000e1862000008040000008eb0069
:1059c4000700370032062000828f500004003400a4
:1059d40000004000e1862000008040000008eb0049
:1059e40000000600881f7800ceff0700000478003e
:1059f40008007800e8ff070088004400e0862000e3
:105a0400608078004206200002c1b9000201400013
:105a1400c341dd0064872000810042009181410080
:105a240024882000f1ad200064c2790084707900dc
:105a340021062000810f500004003c0008044400ab
:105a4400e186200008844000000ce8004f04780040
:105a540000000600881f7800b2ff070000047800e9
:105a640008007800ccff07006089200060407c00bb
:105a74000004e00012003a0011c0b3006089200065
:105a840001707c0008004400e18620000080400092
:105a94004206200002c1b90090004100f2ad20008e
:105aa400810041008048eb000008eb000800e000a2
:105ab400020032008720a800010037008540a800ba
:105ac4004f0478000000060096ff070042062000fd
:105ad4000281b90080004000e48620008100420079
:105ae40091004100f2ad2000e2c078000104e00022
:105af40007003a0080004000e286200001014100d6
:105b04008000eb00010978006289200001717800af
:105b14006e08e20003003a007008e20001003a0057
:105b2400db6aa90000000600881f78007dff0700db
:105b340000047800e10f5400070034008000eb00fb
:105b4400a001200081fe07000804440060872000b3
:105b540008044000000ceb004f047800000006002d
:105b64000e00fa00889fbe008a9fbe008c9fbe0074
:105b74000005be00020078006aff0700000f7800ed
:105b84008000780001804000618720008080400010
:105b94000000eb00800878001e017800c210dd00d0
:105ba40062862000810041006011b8008288be0036
:105bb400418920001e02780080707a004320dd00b5
