:020000040000fa
:080000000001040000000000f3
:020000040000fa
:04000c00cc01000023
:020000040000fa
:04001000dc0100000f
:020000040000fa
:04001400d401000013
:020000040000fa
:04001800e4010000ff
:020000040000fa
:04002400f4010000e3
:020000040000fa
:040028001e060000b0
:020000040000fa
:04003400f40a0000ca
:020000040000fa
:04004000480600006e
:020000040000fa
:04004c003a0d000069
:020000040000fa
:04005000500200005a
:020000040000fa
:04005400800900001f
:020000040000fa
:04005c00c8010000d7
:020000040000fa
:04006000c6020000d4
:020000040000fa
:04006800f605000099
:020000040000fa
:04007c007a04000002
:020000040000fa
:04008000a2020000d8
:020000040000fa
:040088000e0d000059
:020000040000fa
:04008c00fa01000075
:020000040000fa
:0400d400ec0100003b
:020000040000fa
:100200008fc020000eff20000e01880000000000bb
:10021000000020000000e000020032000001200089
:100220002002880014000700280607000000e000f4
:1002300003003a008014250001002000020037006e
:100240000000200001002000810f7000010032003a
:1002500014000700000020000000e000020032004f
:100260000000020000000000b65002000000000084
:100270000040da000000fe004440a900e0c0200079
:100280000000e0000300320000002000a001880010
:100290004440a800000006008a1f78008b1f7800e9
:1002a0000000060091018800800478000000eb0047
:1002b0001a003700e284440032a0b4009905ba0065
:1002c000e284440032a0b4009906ba00e2844400fb
:1002d00032a0b4000006eb00476fde00fd07b2005d
:1002e000636ce10003003a00ebff07000000eb0045
:1002f0000a003700606ce10004003a00005deb008a
:100300008b05e900fdff3e00040037006168e10055
:10031000010032000086eb000b00070019c7ba008d
:100320001905ba000e04e00003003a000a00e000dc
:10033000e0ff3a0000000600fe07b2009e018800c0
:100340008a047800f5ff3700395dba008b05e900b3
:100350000c003200295dba008b05e900080032006c
:100360000c00e00003003a00e284440032a0b40034
:10037000f5ff370019ddba008b05e900faff3a00f6
:100380008904e800e184440032a0b40000000600c3
:1003900085a0a90000400600ee0aa8008020a90060
:1003a0000000fe0000400600ee2aa8008040a900e0
:1003b0000000fe0000400600ee4aa8008060a90090
:1003c0000000fe0000400600ee6aa8008080a90040
:1003d0000000fe0000400600ee8aa8008960a90027
:1003e0000000fe0000400600eeaaa8000000fe008b
:1003f000004006003600f800809fbe00829fbe00cd
:10040000849fbe00869fbe008720a90010002000a8
:1004100045120700eb8aa80019c2bf000018a3000c
:1004200017003a00c1438000400620000100400050
:10043000f2ae2000624078000004e00010003200bc
:100440009f48e2000e00320032b5200002814000d9
:100450000000fb00d01088008100e80019c2bf0036
:100460000018a30005003a00524078000004e000a4
:10047000f7ff3a00c143880001003700c1438800fc
:1004800010002000f31807004f03be004f02be000b
:100490004f01be004f00be003600f90000400600cc
:1004a0003600f800809fbe00829fbe00849fbe0081
:1004b000869fbe008540a900100020001a12070088
:1004c000eb8aa8000fc2bf000018a30015003a0075
:1004d000b1438000f0ae200060c078000004e0006e
:1004e000100032009e48e2000e003200f2ae200002
:1004f000028140000000fb00801088008100e800bd
:100500000fc2bf000018a30005003a005240780057
:100510000004e000f7ff3a00b14388000100370013
:10052000b14388000000eb00ca1807004f03be006b
:100530004f02be004f01be004f00be003600f90062
:10054000004006003600f800809fbe00829fbe007b
:10055000849fbe00869fbe0086c0a90010002000b8
:10056000f11107000000eb00d61a07001000200070
:10057000d41a07004f03be004f02be004f01be0059
:100580004f00be003600f900004006003600f800bb
:10059000809fbe00829fbe00849fbe00869fbe00db
:1005a00085c0a900a00020000140fe000000e90075
:1005b000fdff3a000842e20009003d00a18a200048
:1005c000914078008180fb00100420003b17070059
:1005d00008e2a900aa68ef000642a800bf003700a1
:1005e000aac8bf000080fb008000eb006200500042
:1005f000e0805800ea0f5000e08f5800b4003e0041
:10060000006001000a0037001f0037002700370094
:10061000300037003c003700450037004900370004
:100620005a0037006b0037009d003700a6003700e6
:1006300006c2bf000008a30006003a000602a80098
:1006400030c0b300aae8b70000012000f05f8800c6
:10065000a200370008c2bf000038a3000500320026
:10066000110f2000f003200014170700aa68ef0004
:100670009a00370021002000f00320000f17070028
:10068000aa68ef0095003700a4c8bf000080fb00f7
:10069000000040001010880040c0b300aae8b70076
:1006a00000012000f05f88008c0037000942e20062
:1006b00006003d004100200030042000ff16070026
:1006c000aa68ef00feabef008400370050c0b30013
:1006d000aae8b700a5c8bf000080fb001010880082
:1006e00000012000f05f8800ebcabf000058a300a3
:1006f00003003a0090c0b300aae8b70077003700c3
:10070000aa68ec00750037000942e20006003d00cf
:100710006100200030042000e8160700aa68ef00fe
:10072000feabef006d00370070c0b300aae8b70061
:100730000622a800aa68ec0000012000f05f8800f3
:1007400066003700ebcabf000058a30005003a005e
:10075000a4c8bf000080fb0000004000101088000b
:1007600005003700a4c8bf000080fb000000400067
:100770000000a0001010880090c0b300aae8b700e5
:1007800000012000f05f8800540037000942e200b9
:1007900006003d009100200030042000c71607002d
:1007a000aa68ef00feabef004c003700a0c0b3001a
:1007b000aae8b70000012000f05f8800ebcabf0084
:1007c0000058a300030032000662a800ebcaa8008c
:1007d00042003700ebcabf000058a3001c003200e3
:1007e0003045800041458000810f500018003100e5
:1007f000fd0f500016003e00b2ae200012417800fe
:100800000268a3000f0032000310800072bb2000ba
:10081000037178008100e900810f500004003a0064
:1008200006a2a800c0c0b300aae8b70001003700c4
:1008300006a2a9000682a800ebcaa900a628ec001f
:1008400026003700ebcaa8000662a8002300370084
:10085000ebcabf000058a3000e003a0031458000eb
:1008600040458000810f50000a003600fd8f500087
:1008700008003e0070bb200060c078000080fb00d4
:1008800010108800aa68ed008100e800314588005a
:1008900012003700aa68ec0000012000f05f880019
:1008a0000942e20008003d00a18a20009140780042
:1008b0008180fb003004200080160700aa68ef004a
:1008c000feabef000500370006a2a9000642a80013
:1008d000aa68ef00feabef0007e2a9004f03be00dd
:1008e0004f02be004f01be004f00be003600f900af
:1008f000004006003600f800809fbe00829fbe00c8
:10090000849fbe00869fbe00889fbe008a9fbe0057
:100910008c9fbe000800fa0086a0a90010002000ed
:100920000111070059c8bf00e44f5000090034000e
:10093000edcabf000048a300040032005268ef0077
:1009400050c0b300fbebb7000f003700a00e07004c
:100950000d0037008409e2000b003500fb4be2007c
:1009600008003c00b0c3b300fbebb7005248e20004
:1009700002003c00ec2aa800030037005268ed009a
:1009800001003700fb6bed00785380008953800035
:100990006011b8000800be004f0407000000e0002e
:1009a00001003c006044b80050548000e0bf9f004c
:1009b00061548000f1bf9f00dc528000ed52800046
:1009c00050538000c0bf9f0061538000d1bf9f0083
:1009d000eacabf000008a300260032000a4b8000cc
:1009e0001b4b80000200200003f82b000a00be0011
:1009f000390407000000e0001e0034000c01be00b6
:100a00006fb89700ffb897005a0607000006be00af
:100a10000801be004fb89700dfb8970055060700e1
:100a20000001be000c00be00850407000001be00ee
:100a300003f0a2000a00be00270407000000e00047
:100a40000c003400fc4be20008003c005348e2007c
:100a500003003c00ea0aa900ea4aa80003003700a4
:100a60005368ed00b0c3b300fcebb700fc6bed00c6
:100a7000040037008649ed0053e8b700b0c3b30067
:100a8000fcebb7004047800081702000810f5000d0
:100a90000b003a009185200091407800e1cf500092
:100aa00007003400c3160700e10f500002003a00af
:100ab00010c0b30059e8b700e828ef00060037007f
:100ac0009185200091407800e1cf50000200340071
:100ad0000000e8004047880059c8bf00e34f5000bd
:100ae0001100320059c8bf00e14f50000e00340021
:100af000e808e2000c003200e21607000000e00007
:100b0000090032005e1c070050478000e40f5000cf
:100b10000300340010c0b30059e8b70002003700ea
:100b20000000e8005047880059c8bf00e34f50005c
:100b300024003a00204b8000e10f500021003c00cf
:100b4000ebcabf000008a3001e003a004e48e200b6
:100b50001c00340030568000415680000200200006
:100b600003f02300dc0307000000e0000200340073
:100b700020002000204b88005056800061568000e5
:100b80000200200003f02300d30307000000e00070
:100b90000200340030002000204b88007056800096
:100ba000815680000200200003f02300ca030700e2
:100bb0000000e0000200340040002000204b8800cc
:100bc000d51407000080fa004f06be004f05be0096
:100bd0004f04be004f03be004f02be004f01be00d7
:100be0004f00be003600f900004006003600f80055
:100bf000809fbe00829fbe00849fbe00869fbe0075
:100c00001000200048100700521b0700eccaa80083
:100c10008000eb0090032000a81507006314070074
:100c20008600a9004f03be004f02be004f01be0068
:100c30004f00be003600f900004006003600f80004
:100c4000809fbe00829fbe00849fbe00869fbe0024
:100c500010002000341007003e1b0700eccaa8005b
:100c60008000eb00a0032000941507006828a8006e
:100c70004e1407008400a9004f03be004f02be00bf
:100c80004f01be004f00be003600f90000400600d4
:100c90003600f800809fbe00829fbe00849fbe0089
:100ca000869fbe00889fbe008a9fbe008c9fbe00ac
:100cb0008e1f780084c0a900100020001a100700c1
:100cc000a1e2a8006a68ec00f05f80000000e0008c
:100cd000030034000000e900f05f88000a003700dc
:100ce0000000e00008003a00a18a2000914078004e
:100cf0008180fb000004200070150700feabef00b0
:100d0000aa68ef0007e2a900e0c2bf000018a30034
:100d100003003a0040062000b05f8800060037005c
:100d2000f60be2000400340059c8bf00e34f500046
:100d300001003200f62bed008ac9bf00e14f5000e0
:100d40001f00320003003c000004e00006003200f7
:100d500051003700e24f500024003200e34f5000b2
:100d60004d003a0037003700e0c2bf000018a30072
:100d700011003a005cc8bf00f04f500009003a0073
:100d8000eacabf000008a30002003200ea0aa90074
:100d900001003700ea0aa80010c1b3005ce8b70000
:100da0003d0037005cc8bf00ef4f50003a003c00e8
:100db0005c68ec00380037005c68ef0036003700f4
:100dc000e0c2bf000018a30005003a00eacabf0055
:100dd0000028a30002003a00ea0aa8002e0037000b
:100de000ea0aa900ea4aa9002b00370058538000fc
:100df0006953800002002000030824000800be00a0
:100e0000350307000000e00005003400eacabf0017
:100e10000028a30002003a00ea0aa8001e003700da
:100e20000200200003f823000800be00280307008a
:100e30000000e00018003d00ea0aa900ea4aa90003
:100e400015003700585380006953800002002000cd
:100e500003f823000800be001d0307000000e000a7
:100e600005003d00eacabf000028a30002003a00c6
:100e7000ea0aa80008003700020020000308240046
:100e80000800be00140307000000e0000200340068
:100e9000ea0aa900ea4aa900eacabf000008a300ba
:100ea000040032004cc8bf00e14f500001003c007c
:100eb0004c68ec00f8548000095580006011b800bf
:100ec0000800be00040307000000e0001700340023
:100ed000eacabf000008a30014003200505480008a
:100ee00061548000c30e07000001be000800be0070
:100ef000f70207000000e0000c003d006808ab00ae
:100f00000a0032004bc8bf00e84f50000600340012
:100f1000ea0aa9008000eb00f0022000e7140700b5
:100f2000eccaa800010037004b68ec006409e2003d
:100f3000180034000004eb0009a520004a0020003e
:100f40004241dd002202b00002814400120078001c
:100f500092009000224a8000334a8000dc020700a1
:100f60000000e00007003d006808ab00050032000b
:100f7000ea0aa9008800e8000a007800cf140700f8
:100f8000eccaa8000804e800204b8000880f50003d
:100f9000ebff3c00b0548000c1548000325380000d
:100fa00043538000f3040700105488002154880044
:100fb000eccabf000048a300700032004dc8bf005b
:100fc0000005eb00e74f500026003c000a047800c3
:100fd0002aab20000ba520004242dd00840445001e
:100fe0001900be002402b0000482450014017800fc
:100ff000940190001b030700808cbe000804e800e9
:10100000e40f5400f4ff3a000241800013418000d5
:101010007053800081538000120307000041880054
:10102000114188006241800073418000505480006b
:10103000615480000b030700604188007141880003
:101040008241800093418000d0528000e1528000b4
:101050000403070080418800914188004d68ec003e
:10106000460037002dab20000800200009e02300d7
:101070002eac20004256dd008c8546001b00be00d1
:101080000801be00bb040700808dbe000c064700af
:101090003b1e78002b1678000a05e800e40f550087
:1010a000f4ff3a000041800011418000020020005e
:1010b00003e02300af0407000041880011418800cd
:1010c0000041800011418000e0408800f14088002c
:1010d00060418000714180000200200003e0230095
:1010e000a4040700604188007141880060418000cd
:1010f00071418000b0548800c15488008041800054
:10110000914180000200200003e0230099040700c1
:101110008041880091418800804180009141800099
:1011200030538800415388006000b8009055880013
:10113000a1558800b0558800c1558800d055880059
:10114000e1558800f055880001568800004188006c
:1011500011418800804188009141880060418800e9
:10116000714188004d68ef00861b07004ec8bf0024
:10117000e14f500001003c004e68ec006808ab00f5
:1011800007003200eccabf000048a3000400320090
:10119000eccabf000068a30001003a00321a070041
:1011a0006808ab0009003200eccabf000048a30089
:1011b00006003200eccabf000068a30003003a003a
:1011c0004e48e20001003400501c07006808ab00e4
:1011d00007003200eccabf000048a3000400320040
:1011e000eccabf000068a30001003a00e91907003b
:1011f0004e48e2000f003400b0548000c15480001b
:1012000032538000435380005a040700f90d070051
:101210000004be0010538000215380000801be006e
:101220002b0207000000e00002003d001853880078
:101230002953880058548000695480000800be007b
:10124000ec0d0700f226210033b023002202070034
:101250000000e0001100340012052a001381230071
:101260000800be00430407000004be00604f800079
:10127000714f80000801be007a020700604f8800ad
:10128000714f8800824f8000934f80000800be009d
:1012900074020700804f8800914f8800f9cbbf008f
:1012a00000404000f9ebb700f9cbbf00e84f500019
:1012b0000800340010c0b300f9ebb700ebcabf0060
:1012c0000018a30002003200eb2aa9000100370039
:1012d000eb2aa800c81307004f0778004f06be008e
:1012e0004f05be004f04be004f03be004f02be00bc
:1012f0004f01be004f00be003600f900004006005e
:101300003600f800809fbe00829fbe00849fbe0012
:10131000869fbe00889fbe008560a900dc82a80071
:1013200010002000800e0700441d07004fc8bf00ba
:10133000e14f500069003c00eccabf000038a30038
:101340005100320000148000a8408000b9408000a5
:101350008000eb00210207000801be0041020700e7
:10136000a0408800b140880010148000c840800070
:10137000d94080008000eb00180207000801be0081
:1013800038020700c0408800d14088003014800037
:1013900048418000594180008000eb000f020700a7
:1013a0000801be002f02070040418800514188001b
:1013b0004041800051418000204188003141880037
:1013c00098568000a9568000401480008000eb00f1
:1013d000020207000001be000800be002102070053
:1013e00090568800a1568800b8568000c9568000e3
:1013f000501480008000eb00f80107000001be00df
:101400000800be0017020700b0568800c1568800c9
:10141000d8568000e9568000601480008000eb0000
:10142000ee0107000001be000800be000d0207002b
:10143000d0568800e1568800f85680000957800091
:10144000701480008000eb00e40107000001be0082
:101450000800be0003020700f0568800015788000c
:1014600080148000e8408000f94080008000eb009c
:10147000da0107000801be00fa010700e040880019
:10148000f1408800130037006000b800a0408800d9
:10149000b1408800c0408800d140880020418800c9
:1014a00031418800404188005141880090568800b1
:1014b000a1568800b0568800c1568800d0568800d2
:1014c000e1568800f056880001578800e040880007
:1014d000f14088004f68ec001c003700eccabf00e8
:1014e0000038a30007003200004280001142800053
:1014f0006011b800bb0107000000e00001003200ed
:101500002a0c07004f68ef006808ab0001003200aa
:10151000e31d070059c8bf00e24f500009003c001e
:10152000eccabf000038a30006003200f60be20050
:1015300004003a00a1e2a900dc82a900ec6aa9003b
:1015400001003700ec6aa800cb0d070059c8bf00a6
:10155000e34f500005003c00f60be20008003400a9
:1015600059c8bf00e34f5000050032006808ab00c7
:101570000300320010c0b300ea1007001300370068
:101580006808ab0006003a00ebcabf000008a300e1
:1015900003003a0040c0b300e21007000b00370020
:1015a00059c8bf00e14f50000600320059c8bf00c3
:1015b000e34f50000300320020c0b300d9100700f1
:1015c000020037000040eb00d61007004f04be00b9
:1015d0004f03be004f02be004f01be004f00be00d1
:1015e0003600f900004006003600f800809fbe007b
:1015f000829fbe00849fbe00869fbe00889fbe0063
:101600008a9fbe008c9fbe008e1f7800e487470033
:101610008460a90010002000c30d0700e849800085
:10162000f94980002d4b80006168b900680107000e
:101630000001be000800be004e03070040408800c5
:1016400051408800ba548000cb548000804a80000a
:10165000914a8000a24a8000b34a800045030700f7
:101660000200200003f42300420307000001be0033
:101670000a00be00180107000000e000020034006c
:10168000eaeaa80001003700eaeaa9000007eb0037
:101690000d00e000380034000e067800fcbf9f000b
:1016a0000a0020008b2c24002eac20004260dd00bc
:1016b000000047001000be000a01be000401070040
:1016c0000000e00004003d004260dd000000470033
:1016d0001005be00fcbf9f000c06e8008d0f5600f1
:1016e000f2ff3a000005eb000a0778002cac20005e
:1016f0004250dd00000046001001be000800be00a0
:10170000f30007000000e00018003c00ebcabf0037
:101710000008a30015003a00ffb89700810f55009c
:1017200012003200e10f55000b00320003003c00b4
:101730000a00e000060032000c003700e20f5500fe
:1017400007003200e30f550008003a00060037009a
:101750000e00a000050037000e10a00003003700a7
:101760000e20a000010037000e30a0000a05e8009e
:101770008d0f5500deff3a008e407800c0862000b5
:10178000014878000ec2bf000018a3000b00320011
:101790008000eb00d0022000c81207000ec2bf007c
:1017a0000008a30004003200901080000ec2bf00a9
:1017b0000008a300fcff3a000e22a90018c2bf00d7
:1017c0000018a3000b0032008000eb00e0022000b4
:1017d000ba12070018c2bf000008a30004003200bc
:1017e000e010800018c2bf000008a300fcff3a0010
:1017f0001822a900a9190700b21e0700ae1b070096
:1018000059c8bf00e24f500003003c001000200008
:1018100020488800eccaa900604f8000714f80000a
:10182000740c0700404f8800514f8800eacabf007f
:101830000058a3001600320058c8bf00e34f500004
:1018400013003a00884f8000994f80006011b80063
:101850000800be009e0007000000e00003003d00fd
:10186000f029ef00f229ef00090037002a4f80002d
:101870003b4f80000a01be000800be009600070032
:101880000000e000020034008a4f88009b4f88006f
:10189000204f8000314f80006011b8008c0007009d
:1018a0000000e00004003a0070712b00204f880017
:1018b000108d2300304f88002a4f80003b4f80005e
:1018c000804f8000914f80000a01be00ca010700ce
:1018d00002002000832c2400a6020700b0528800da
:1018e000c1528800b8548000c9548000f2282c00ee
:1018f00053c723000800be00770007000000e00087
:1019000032003400eacabf000038a3002f003200c2
:10191000ac4f8000bd4f8000020020001356240011
:101920000800be00b40107000001be000c00be00ac
:10193000cc0007000001be00a04f8800b14f880016
:101940000a00be00620007000000e0001f003c002b
:10195000f429ef00f629ef00c04f8000e10f4000ae
:10196000020032000000e800c04f8800404b8000b9
:101970006500b900cf80de00950007000004be00be
:101980006011b800520007000000e00002003a00b9
:101990000800200009f823000801be000000200014
:1019a00001f82300940107000001be0000002000a0
:1019b00001f82300a20007000001be000a00be00db
:1019c0006c020700204f8800314f8800bd0c0700d3
:1019d0000000e000060032005b48e2000400340032
:1019e000eacabf000038a30001003a005b68ed00be
:1019f0004f00b1004f0778004f06be004f05be00f4
:101a00004f04be004f03be004f02be004f01be0098
:101a10004f00be003600f900004006003600f80016
:101a2000809fbe00829fbe00849fbe00869fbe0036
:101a30008700a90018c2bf000008a30002003200fe
:101a400010002000601f070010002000b60c0700e7
:101a5000a0c0b3005be8b7005d0a07004f03be00fb
:101a60004f02be004f01be004f00be003600f9001d
:101a7000004006003600f800809fbe00829fbe0036
:101a8000849fbe00869fbe008520a9000ec2bf00b5
:101a90000008a300020032000000eb004a1f07000c
:101aa00010002000a00c0700a0c0b3005be8b70046
:101ab000470a07004f03be004f02be004f01be00a1
:101ac0004f00be003600f90000400600000005008f
:101ad00014002000af033700f4ff2f00ad033700e0
:101ae0000001be00410007000470a70003f0a10040
:101af0006509b100160032000d0035006828e100cc
:101b000006003500f0ff2f00f1ff27000300e00082
:101b100013003b0001002800000005000000400009
:101b2000818048008502e900fcff3a000800370088
:101b3000f88f420002003c008000eb00000005002e
:101b40008100d1000080d3008502e800fcff3a004c
:101b50000300e00002003b0060001000e08018007d
:101b6000000006000001be00200007000470a7006e
:101b700003f0a10003f8a30013003a006509b100c7
:101b800010003200090035006928e100020035002c
:101b9000010028000000050000004000818048008e
:101ba0008502e900fcff3a0000000600f88f4200c1
:101bb000050035008100d1000080d3008502e800d7
:101bc000fcff3a00000006008000eb00000005006a
:101bd0004f89de0082017800890337006011b80068
:101be00097033700040020006a033700c70ade00ad
:101bf000f107b200f50fb20008003200e1cf420059
:101c0000020032000170a00024000500810f700066
:101c1000010032000408050044000500810f700037
:101c200002003a00140005008502e90000004000af
:101c300081c04800fcff3b000170a00024000500ab
:101c400007f82700078361000638e10004003a0026
:101c5000f7072000878361008703710001003a00c5
:101c600003f0a200889fbe008a9fbe008c9fbe002a
:101c7000470ade000480a100c71ade000580a1002b
:101c8000070028000785600087856100f70f2000a6
:101c90000720e1009e0032000728e1009c0032008e
:101ca000010678000400e000b4003200f7072000cd
:101cb000878060000170a0000500e000c0003200d5
:101cc000f7072000878161000370a000050652001d
:101cd0000f003a000b50e1000b0032000308e10056
:101ce00002003a000200e1007e00320002045000cf
:101cf00083845800040031000001fd008101fd00d3
:101d00008402fd008a05fd006044b8002100370010
:101d10000520e10005003d000001fd008101fd00fe
:101d20008402fd008a05fd00050652007a60e1008c
:101d3000050035000170a1004722dd00848070009d
:101d40008a807000630037006044b800ef026600cc
:101d500007ff2f00070666000500e00006003400bc
:101d6000f08312008714dd000511de00071bdd0083
:101d7000060171008519de007060e1000500350084
:101d80000904780082047800030178008001eb00e8
:101d9000700656000b50e10003003a0002004000bc
:101da000838048000400370060041400e0841c00b5
:101db00002005800838058000188a300060032000a
:101dc0008100d1000080d3008984d3000884d3002f
:101dd0000402e800270037000178a30025003a003c
:101de0000100e000030032008186cf0069865600c2
:101df0000a0037008c0020000000e00004003a00d8
:101e000009007800880478000004eb00700252009a
:101e10008086cf000d0646000c06e9007060e100e8
:101e200006003500800078000900780088047800fa
:101e30000004eb0070065600700252000c00e00037
:101e40000c0034008c08dd00f00316000703de00f0
:101e5000868070000c00dd00074bde00060070007d
:101e60008c4cdd000743de00868474000c44dd00ea
:101e70000c0252006120e100200035006101600089
:101e80000700280087816400f7ff2700878364002c
:101e9000070374000300e0000600320082037300b1
:101ea000040032000000e800e08048000188a30040
:101eb0000e003a00f70f20000720e1004a003d0025
:101ec0000170a1004722dd00810072008a8070004d
:101ed0000000be004f06be004f05be004f04be000e
:101ee000000006006000b800faff37008100d10052
:101ef0000080d3000402e800eeff37000401780000
:101f000089017400a10107008a807000f1ff370089
:101f1000f7010700070278000001fd008101fd00c4
:101f2000f301070087027800850372000778a30099
:101f3000040032000001fd008101fd0006020700df
:101f4000e4ff3700850362000768a3000800320041
:101f50000b50e10003003200f0ff2f00f1ff2700db
:101f6000dcff37000001fd008101fd00d9ff3700d3
:101f70000468a300d7ff3200faff3700f8ff2700fc
:101f8000888360000b003a000000e00009003a007e
:101f90008303640082837300020032000200be00eb
:101fa000ccff37000b50e100ceff3a000200be002c
:101fb000c8ff370014002000810064003eff370096
:101fc000f8ff27008883610004003a000200e00067
:101fd00002003a008c007800beff37001500200098
:101fe0008301640039ff370001f82700000020005a
:101ff00081007500b7ff3700889fbe008a9fbe0032
:102000008c9fbe001b0020000202be0005866800f7
:1020100006002800060666004709de00f20fb2003f
:10202000820032000243e80080003200c729de004f
:10203000f30fb2007d0032000343e8007b00320062
:10204000f107b2000170a000f507b2000570a00012
:10205000c708dd004903de00868070004700dd0010
:10206000c72add004923de00868272004722dd0098
:10207000030551000403500085835800030031001c
:1020800000004000818048000a05e9008c1f7800ac
:102090008a9fbe0004005000858058000402420060
:1020a00085824a0000004000818048000005eb0066
:1020b0000004be006033b8000406be000d48e10015
:1020c00056003100110009004dccd8000c01b800b9
:1020d0000d02b8008481410060824a00828353006f
:1020e00003045c0084845c0060055d000a00e0007d
:1020f00025003a00800578000d40e10049003100dc
:102100008800780007007800110009004d88d80089
:102110000c01b8000d02b8008481410060824a00c1
:102120006003110083835b0004045c00e0845c00b6
:102130000900e00021003a004f01be000300e0006a
:102140002b003200e3016000070673008c817100f0
:1021500001003200640070004200de004e5edd00cf
:102160000c007000c258de0001e0a00083010700ef
:10217000cf017800818071004f06be004f05be0080
:102180004f04be00000006008c8343000d044c0089
:10219000e0844c0060054d000000e9000a00e0000a
:1021a000d4ff32008c8343000d044c00e0844c00cb
:1021b00060054d000000e900ceff37000c0343002e
:1021c0008d834b0060044c00e0844c000000e9006b
:1021d0000900e000d8ff32000c0343008d834b0060
:1021e00060044c00e0844c000000e900d2ff37009e
:1021f0004200de004e5edd000c007000c258de00c2
:1022000001e0a000cf0178000300e000daff320017
:1022100060001000e0801800d7ff3700f0ff2f00ab
:10222000aaff3700f0ff2f00b9ff37000404be00fb
:102230002f010700870678000004fd008104fd00df
:102240002b010700078366000678a3000300320015
:102250000960a7000800be002c0037000d78a3001d
:10226000020032000800be00280037000778a300f3
:1022700026003a0001f0a10009f0a1000668a300c1
:1022800003003200f1ff2700f0ff2f00baff3700f4
:102290000d68a300030032000800be008c807000af
:1022a000b5ff37000768a30007003a000648a300ff
:1022b00003003200f1ff2700f0ff2f00aeff3700d0
:1022c0000d48a300030032006000b8008c8070004d
:1022d000a9ff37000748a3000400320001f82700d7
:1022e000000020008c807000a3ff370076010700fb
:1022f0000004fd008104fd00020578007201070062
:102300000802be008a01780059ff37000160a00072
:10231000120220003260880097ff37000100e000c1
:10232000120032000500e00010003200889fbe005d
:102330008a9fbe008c9fbe000006eb0001f8a30040
:102340000300320060001000e08018000cf0a000d4
:1023500005f8a3000300320060021200e0821a00b8
:102360000cf0a2008005eb0041ff37006000b800d0
:1023700002000500038368000700280007036300cc
:10238000470ade000480a100c71ade000580a10014
:10239000f70f20000720e100420032000728e1008b
:1023a00040003200889fbe008a9fbe008c1f7800cc
:1023b000f107b200f307b2000400e000640032004d
:1023c0000170a0000500e000680032000370a0006a
:1023d00085054200eb07b1000204b8000302b80013
:1023e0008484440060854a00020ab8008484440062
:1023f0000a854a00030ab8000405450004003300ba
:102400000804d0008984d2000a85d2008b05e90037
:102410006158e1003d003500021020000901610013
:102420000308200089816100f7072000878364008a
:1024300008867300c84cde00c853dd008784740032
:102440004855de000300e0000600320082037600fb
:10245000040032008904e80060054d000a88a300ea
:102460000c003a00f70f20000758e10044003d003f
:102470000a70a100c75ddd000a8575008a0073003f
:10248000090078004f0678004f05be004f04be00db
:10249000000006000a05d1008984d3008b05e800fe
:1024a000f0ff3700881f78000604780090000700ce
:1024b000070278000001fd008101fd008c0007008b
:1024c00087027800850372000778a30005003200b8
:1024d0000001fd008101fd009f0007004f0478000e
:1024e00000000600850372000748a30003003200c5
:1024f000f0ff2f00f1ff2700f8ff37000000200059
:1025000001f8270088807000f4ff37008801780008
:102510004848dd00808171004848de00c850dd0079
:1025200001007000c850de00060478000b0178003e
:102530001600070088807000d2ff37000500e00019
:1025400005003200170020003a0007009dff370009
:1025500081037000f9ff3a00860078004f0678008a
:102560004f05be004f04be0000000500830371004c
:10257000f9ff3200270020002e00070094ff3700eb
:1025800001f8270086807000f4ff37000100e000aa
:1025900026003200610111007810e10023003c00a8
:1025a0006022b8007010e10004003500800278005d
:1025b000010078008000eb00700151000200e00093
:1025c0000900340070031100062add00822ade00b3
:1025d0008603dd00878272000200de00860bdd00cc
:1025e000070070008208de0084817100f4ff27007c
:1025f00004826200848171000400280084826200e9
:102600006102600005f0a60000000600048271006f
:10261000070032000000e800e080480000000600eb
:102620000002be006000b800efff37006000b80095
:1026300000000600889fbe000004eb006138e10046
:1026400016003a000100e00008003a00c800de0071
:102650004800dd00880020000100e00003003a008f
:10266000c800de004800dd00680444008184cf001b
:10267000e9845400060034008908dd00f08314006a
:102680008703de00878070000900dd000904440034
:10269000610214004f04be00000006000300e000c9
:1026a00008003a00c811de004811dd008800200053
:1026b0000300e00003003a00c811de004811dd000d
:1026c000680444008384cf00e98454000600340089
:1026d0008919dd00f08314008713de008781710003
:1026e0000911dd0009044400e1021400e9ff37008c
:1026f0002700200001f0a70017002000470bde0094
:10270000f60fb200040032000643e8000a0032006f
:102710004702b3000000060001037800f607b2008c
:102720000603700002003a000703b3000000060031
:102730008702b3000000060001037800f607b2002c
:1027400006037000020032000770a00000000600bf
:102750000760a000000006000478a3000400320017
:102760000578a300030032000168a30001003a00cd
:102770000200be000160a0000000060081017000a0
:10278000270032008002eb0001f8a30003003200b2
:1027900060001000e080180015002000f407200001
:1027a0000202420020003400f7032000870360008b
:1027b00006042000000363000208200000016100fd
:1027c0004700de00c909dd0000807100c708de0097
:1027d0000600e000080032008703710006003200a6
:1027e0001000b0000180b0000188a3000200320098
:1027f000c108de000402e800f107b200f30f200078
:102800000320e10003003d004722dd00810072004b
:102810002900370001f827000000eb0026003700f0
:102820006000b80000000600680212007f20e1008e
:10283000020034006000b8001f0037006011b800cb
:102840007020e1000400350080017800010078006c
:102850008000eb00700252000400e0000900340028
:10286000f00312000719dd008419de000703dd0004
:10287000868171000400de00070bdd000600700099
:102880008408de00f7ff270083836300870371005d
:102890000600280003036300070032000700e00081
:1028a00003003a00610160000281730002003200ff
:1028b0001000b0000180b0000500a6000000060076
:1028c00001f0a000000006004f0ade004709de000c
:1028d000f107b200f20fb2000b003200f207b100b4
:1028e0000170a000c708dd00c901de008380700010
:1028f0004700dd000400a600000006006000100094
:10290000e080180000000600810f700001003a000e
:10291000000006008182cf000500e00010003e00ac
:102920008082cf00ee8242007028e100040039006e
:1029300007003e00800078000000eb000e0037002a
:10294000708312008600de000500dd000a003700fb
:10295000708352008600dd000000eb0006003700a7
:10296000e28252008508dd00708312000603de005b
:10297000868070000500dd007507b0000501ea00e3
:102980000400a6000000060060001000e0801800af
:1029900000000600889fbe008a9fbe00841f78004a
:1029a0007c0007004f00780011003300f0ff2f007b
:1029b000838f6c0006003b00040565000a00a70039
:1029c0000800370009f0a6001000200008003700ba
:1029d000820f5400838f5c00030039001000200038
:1029e00001003e000000200009f0a7000000ea00fe
:1029f0004f05be004f04be000000e00000000600ce
:102a0000881f7800030478000300e00007003d0001
:102a100060001000e080180060011900e0811900da
:102a200002003b0001f02d00030037000400070006
:102a300008f0a70001f0a0004f0478000000060095
:102a4000889fbe008a9fbe00008270000402710051
:102a500004827100260032000004be000200be00a5
:102a60006011b8006b092000950220000182cf00a0
:102a70000a0039000541b1000082cf00070039008b
:102a80000541b1000982cf00040039000541b100c1
:102a90000882cf00010039000541b1000542520013
:102aa000120032000a003b00828171006101640063
:102ab0008100d1000080d3008984d3000884d30032
:102ac0008b05e8000442e800f7ff3a0007003700f2
:102ad0000804440089844c000000480081804800bc
:102ae0008b05e9000442e900f9ff3a000300070002
:102af0004f05be004f04be0000000600810020000c
:102b0000618055000b003d000b00200061fe2f008e
:102b10000100e1001d003400828171006101640048
:102b20008904d1000884d3000000e800faff3a00cd
:102b3000710020006100640003007000020060006a
:102b40000900320061044400e0844c000988a500bb
:102b5000050032008b05e8006808e10002003a0039
:102b60008904d1000884d300f20f20000258e1004c
:102b700005003d00c75ddd00f907b20089807500e2
:102b800008007800000006000bf827008b00780092
:102b9000000005000004be0014fc07000003be0096
:102ba0000405be000200be0010fc0700844f750043
:042bb000000006001b
:020000040000fa
:102bb400556e0000616200006c6500003a20000060
:102bc4005365000074740000696e000067730000b0
:102bd400204c00006f6300006b650000642e000051
:102be4000a0d0000000a00000d0000002000000093
:102bf4002020000000530000797300007465000079
:102c04006d2000005365000074740000696e0000bc
:102c1400677300003a3a00000a0d0000003100001a
:102c24003a2000007c520000317c0000202000008b
:102c340020200000202000007c520000327c000094
:102c44002020000020200000207c000053310000e0
:102c5400437c000020200000202000007c53000062
:102c6400324300007c2000002020000020200000cf
:102c74007c530000334300007c200000202000002f
:102c8400207c000053340000437c00000a0d000047
:102c9400003200003a2000007c500000437c000019
:102ca4002020000020200000202000007c4d000097
:102cb400425600007c20000020200000207c000000
:102cc40042520000567c000020200000202000001a
:102cd4007c440000567c00002020000020200000de
:102ce400202000007c4c0000565300007c20000093
:102cf40020200000207c000044430000527c00009f
:102d04000a0d0000003300003a2000007c4c000053
:102d1400437c000020200000202000002020000030
:102d24007c430000435200007c200000202000006f
:102d3400207c000041480000527c0000202000005c
:102d4400202000007c4f0000435300007c20000042
:102d540020200000207c0000414d0000437c000046
:102d64000a0d0000003400003a2000007c430000fb
:102d740054380000307c0000202000002020000097
:102d8400202000007c4300006d5400007c200000e3
:102d940020200000207c0000435200004c7c0000f6
:102da40020200000202000007c4300004d5800003b
:102db400547c000020200000202000007c43000000
:102dc400524800007c20000020200000207c0000ed
:102dd40043540000547c00000a0d0000003500003c
:102de4003a2000007c4400006d5400007c20000068
:102df40020200000207c0000445200004c7c000095
:102e040020200000202000007c4400004d580000d9
:102e1400547c000020200000202000007c4400009e
:102e2400524800007c20000020200000207c00008c
:102e340044540000547c00000a0d000000360000d9
:102e44003a2000007c420000535400007c20000023
:102e540020200000207c000043530000547c00002c
:102e640020200000202000007c4d00004854000079
:102e74007c20000020200000207c0000504f000037
:102e8400417c00000a0d0000000a00000d2a000029
:102e94002a2a00002a2a00002a2a00002a2a0000de
:102ea4002a2a00000a0d0000004400006973000093
:102eb400706c0000617900003a3a00000a0d0000cd
:102ec400003100003a2000007c420000257c000014
:102ed4002020000020200000202000007c50000062
:102ee400567c00002020000020200000207c0000f0
:102ef400545600007c20000020200000207c0000ac
:102f0400505700007c2000002020000020200000fa
:102f14007c410000567c00000a0d000000320000d5
:102f24003a2000007c430000567c00002020000072
:102f340020200000202000007c430000417c000091
:102f44000a0d0000003300003a2000007c5300000a
:102f5400317c000020200000202000007c53000071
:102f6400327c00002020000020200000207c000093
:102f7400533300007c20000020200000207c00004f
:102f8400533400007c0a00000d000000343a0000b5
:102f9400207c0000577c000020200000202000003e
:102fa400202000007c430000577c0000202000000b
:102fb40020200000207c0000417c00002020000034
:102fc400202000007c430000427c00000a0d000029
:102fd400003500003a2000007c4300004d7c0000d6
:102fe4002020000020200000202000007c41000060
:102ff400417c00002020000020200000207c0000f4
:103004004f430000567c00002020000020200000d8
:103014007c4d0000437c00000a0d0000000a000003
:103024000d2000004261000074740000657200000d
:10303400792000004375000072720000656e000084
:1030440074200000436f00006d700000656e000086
:1030540073610000746900006f6e00003a20000084
:10306400000a00000d2000004368000061720000a7
:103074006765000072200000437500007272000052
:10308400656e000074200000436f00006d70000046
:10309400656e000073610000746900006f6e0000cb
:1030a4003a200000000a00000d20000043650000e3
:1030b4006c6c0000204300006f6e00006669000025
:1030c400673a0000200000000a0d000020410000c3
:1030d4006820000052610000746900006e670000ff
:1030e4003a200000000a00000d20000043610000a7
:1030f4007061000063690000747900003a200000e8
:10310400000a00000d200000526500006d610000ff
:10311400696e0000696e0000673a0000200000003c
:103124000a0d00002043000068610000726700007f
:103134006520000043790000636c000065730000a3
:103144003a200000000a00000d52000065610000f2
:10315400646900006e67000020460000617500008d
:103164006c740000732e00000a0d0000004600007d
:10317400617500006c740000204c00006f67000053
:1031840020460000756c00006c2e00000a0d000043
:10319400004e00006f20000066610000756c0000a6
:1031a40074200000636f000064650000732e00004b
:1031b4000a0d0000004300006f640000653a00003f
:1031c40020000000203a00003a2000004174000072
:1031d400747200006962000075740000653a0000b2
:1031e40020000000202d00003e20000000460000ca
:1031f4006c610000677300003a3a00007c530000e1
:1032040065740000732000004c4b00007c7c0000bf
:103214004261000074740000204f0000567c0000de
:103224007c420000617400007420000048560000d5
:103234007c0000007c4200006174000074200000e7
:10324400555600007c7c000042610000747400004c
:10325400204f0000547c00007c5300007973000070
:10326400204f0000547c00000a0d000000200000e4
:10327400202000002020000020200000200000006a
:1032840053450000542000002020000020200000ae
:1032940020000000436c0000656100007220000003
:1032a4002020000020000000436800006563000047
:1032b4006b6900006e6700003a20000000530000b4
:1032c400313a000020000000533200003a20000090
:1032d40000530000333a0000200000005334000083
:1032e4003a20000000430000483a0000200000009b
:1032f400766f00006c7400006167000065200000b8
:10330400696e0000707500007428000073290000c5
:1033140020630000616c00002e0a00000d00000014
:103324004e6f000074680000696e000067200000a2
:10333400636100006c210000205600006f6c0000e7
:103344007461000067650000206f00007574000060
:10335400206f000066200000726100006e670000ac
:10336400652e00000a0d000000560000203a0000ff
:103374003a20000000410000000a00000d55000042
:10338400534200002d500000442000006d6f0000e7
:10339400646500007320000061760000616900002c
:1033a4006c610000626c0000652000007769000019
:1033b4007468000020740000686900007320000035
:1033c400636800006172000067650000723a0000e3
:1033d400200a00000d0000000a0d00004e6f0000de
:1033e4002050000044200000736f0000757200003c
:1033f40063650000732e0000000a00000d500000f9
:1034040044200000736f00007572000063650000c3
:1034140020650000727200006f7200002e00000030
:103424004000000021000000202d00003e43000069
:1034340072450000213c00002d0000000a0d000030
:1034440020530000657400002068000069670000d4
:103454006865000073740000207700006174000048
:1034640074610000676500002050000044200000e3
:10347400737500006363000065730000732e000021
:103484000a0d0000000a00000d2000005365000032
:10349400742000006869000067680000657300001c
:1034a40074200000776100007474000061670000fc
:1034b40065200000504400002046000041490000ff
:1034c4004c450000442e000020500000442d000014
:1034d4005374000061740000757300003a2000000a
:1034e400000a00000d200000436100006e27000068
:1034f40074200000746100006c6b000020770000f1
:10350400697400006820000050440000206300003b
:103514006f6e0000747200006f6c00006c65000038
:10352400722e0000000a00000d2000005365000008
:10353400742000006c6f0000776500007374000055
:10354400207600006f6c0000746100006765000065
:1035540020500000442000007375000063630000e5
:1035640065730000732e00000a0d0000000a0000bd
:103574000d20000053650000742000006c6f0000f3
:103584007765000073740000207600006f6c000003
:1035940074610000676500002050000044200000b2
:1035a40046410000494c0000454400002e20000024
:1035b400504400002d530000746100007475000035
:1035c400733a0000200000000a0d00005052000071
:1035d400473a00000a0d0000537400006f720000a7
:1035e400656400003a0000000a0d00004361000019
:1035f4006c6300003a200000200000004d650000cc
:103604006d2000004275000073790000000a00007c
:103614000d4e0000564d00003a0a00000d53000004
:10362400746f000072650000643a0000000a000034
:103634000d5300006574000073200000616e0000eb
:1036440064200000566100007273000020530000e3
:1036540061760000656400002e0a00000d00000081
:10366400502000004f6e00000a0d000000500000c2
:10367400204f0000666600000a0d0000000a0000ea
:103684000d48000055440000204f00006e0a000061
:103694000d0000000a0d0000485500004420000001
:1036a4004f660000660a00000d0000005469000027
:1036b4006d650000206c000065660000743a00002f
:1036c40020000000206d0000696e00007574000089
:1036d40065730000206100006e640000200000009b
:1036e40020730000656300006f6e000064730000c7
:1036f4002e0a00000d0000000a0d000046610000c3
:10370400756c000074730000204300006c650000b9
:1037140061720000656400002e0a00000d000000c4
:103724000a0d0000563100002e3000005f32000008
:10373400532d0000345300000a0d00000053000014
:103744006574000073200000556e00004c4b0000af
:10375400442e00000a0d00000055000073610000b3
:10376400676500003a200000276c00002059000023
:1037740027200000746f0000207500006e6c0000ac
:103784006f6300006b2e00000a0d0000005700005c
:1037940061690000742e00002e2e0000005300000a
:1037a40065740000732000004c4b0000442e0000a0
:1037b4000a0d0000000a00000d5000006f770000a1
:1037c40065720000204f000075740000204f000057
:1037d4006e2e0000000a00000d4300006861000026
:1037e4007267000065200000476f00002e00000093
:1037f4000a0d0000524c0000200000000a0d0000d9
:103804004348000020000000556e00006b6e00006d
:103814006f7700006e200000436f00006d6d0000a4
:10382400616e0000642e00000a0d000000490000d3
:103834006e690000742e0000200a00000d000000d4
:10384400200000002500000056000000545600002f
:1038540000500000570000004156000000430000e3
:103864005600000043410000003a000053310000bc
:10387400003a000053320000003a000053330000c5
:10388400003a0000533400000057000000430000d9
:1038940057000000410000004342000000430000c4
:1038a4004d00000041410000004f0000435600005d
:1038b400004d0000430000000a0d0000000000005d
:1038c400229c0000249c0000269c0000289c0000f0
:1038d4002b9c00002e9c0000319c0000349c0000b6
:1038e400379c00003b9c00003f9c0000439c000070
:1038f400479c0000499c00004c9c00004e9c00002a
:10390400519c0000549c0000579c00005b9c0000ec
:103914005e9c000048650000617400006572000050
:10392400207400006f6f0000207300006d610000c0
:103934006c6c0000206600006f72000020740000b0
:103944006865000020770000617400007473000053
:10395400207900006f75000020770000616e000080
:10396400742e0000004e00006f2000006865000007
:10397400617400006572000020640000657400003a
:103984006563000074650000642e000000480000b8
:10399400656100007465000072200000746f00000f
:1039a4006f2000006c610000726700006520000059
:1039b4006f72000020730000686f000072740000d2
:1039c40020630000697200006375000069740000e0
:1039d40020640000657400006563000074650000e5
:1039e400642e0000004c00006f77000020420000ad
:1039f4006174000074200000566f00006c740000b5
:103a040061670000650000004261000074740000fa
:103a1400204f00007665000072200000437500000e
:103a240072720000656e00007400000042610000c4
:103a34007474000020430000686100007267000095
:103a4400652000004f7600006572000020430000ee
:103a540075720000726500006e740000005300006f
:103a64006f6600007477000061720000652000003a
:103a740042610000747400002048000056200000d9
:103a84004465000074650000637400000042000097
:103a940061740000742000004f760000657200001d
:103aa40020540000656d000070000000422d0000ed
:103ab400466c0000616700002873000029200000a4
:103ac40053650000743a000020530000797300002d
:103ad400746500006d2000006c6f0000636b0000d3
:103ae40065640000206f0000757400002e00000063
:103af400536500006c660000204f000076650000ee
:103b040072200000546500006d7000000053000036
:103b1400797300002053000068750000746400008d
:103b24006f7700006e000000505700004d20000029
:103b34006578000063650000700000004f730000aa
:103b440063200000657800006365000070000000d9
:103b54004164000064720000206500007863000086
:103b64006570000000530000544b00002065000005
:103b74007863000065700000004d000054480000a8
:103b840020650000786300006570000000520000aa
:103b9400657300003720000065780000636500004d
:103ba4007000000045720000726f00007220000077
:103bb400436f000064650000204e00006f74000035
:103bc4002055000073650000642e0000004d0000c5
:103bd4004355000020420000726f0000776e000021
:103be4004f7500007400000057440000542000008a
:103bf4007273000074000000756e00002d680000f0
:103c0400616e0000646c00006564000020650000c3
:103c14007863000065700000746900006f6e000036
:103c24002072000073740000004f000070630000f5
:103c34006f640000652000007273000074000000cf
:103c44004d4300004c5200002072000073740000c9
:103c5400004900006c6c000065670000616c0000a6
:103c6400204900006e7300007400000053790000c6
:103c7400732000005273000074000000496e0000bd
:103c8400766100006c20000073650000726900001a
:103c9400616c0000207000006f720000740000006e
:103ca4005553000042200000436800007267000082
:103cb40020460000617500006c7400000050000094
:103cc4004368000067200000736500007420000052
:103cd4003e20000031300000302500003a20000072
:103ce400436c0000616d0000706900006e670000a5
:103cf4002e000000564800002043000068720000b7
:103d0400675600006c740000005600004c20000050
:103d14004368000072670000566c000074000000e5
:103d2400564800002043000068720000674300000a
:103d3400726e000074000000564c00002043000026
:103d44006872000067430000726e00007400000097
:103d540056480000204200007472000079540000ac
:103d64006d700000005600004c20000042740000fa
:103d740072790000546d0000700000005648000085
:103d8400204200007472000079430000726e00004b
:103d940074000000564c00002042000074720000c1
:103da40079430000726e0000740000005648000061
:103db4002053000079730000546d0000700000006f
:103dc400564c00002053000079730000546d00002d
:103dd40070000000504f00005254000031200000d9
:103de4004253000059200000657200007200000078
:103df400504f000052540000322000004253000093
:103e04005920000065720000720000005067000035
:103e14006d200000436800006b730000756d0000a6
:103e24002045000072720000004e0000564d000054
:103e340020430000686b0000737500006d200000d3
:103e440045720000720000005365000074730000a6
:103e540020430000686b0000737500006d200000b3
:103e640045720000720000004e560000532000000e
:103e7400436800006b730000756d0000204500006e
:103e840072720000005000004f52000054310000d4
:103e94002045000052520000005000004f52000024
:103ea400543200002045000052520000005300002c
:103eb4006f660000742000004f76000065720000f9
:103ec4002043000075720000726500006e740000eb
:103ed400005600004820000053310000566c0000da
:103ee40074000000564c00002053000031560000be
:103ef4006c7400000056000048200000533200009b
:103f0400566c000074000000564c00002053000062
:103f1400325600006c740000005600004820000077
:103f240053330000566c000074000000564c00002f
:103f340020530000335600006c740000005600004b
:103f44004820000053340000566c00007400000048
:103f5400564c000020530000345600006c740000de
:103f64000043000068610000726700006572000091
:103f7400206900006e70000075740000204f00007e
:103f84007665000072200000566f00006c7400001b
:103f94000048000061720000647700006172000054
:103fa400652000004f760000657200004372000037
:103fb4006e740000205300006875000074640000f3
:103fc4006f7700006e3a0000205500006e7000000c
:103fd4006c75000067200000736f000075720000ac
:103fe400636500002c20000026200000747500008a
:103ff400726e0000207000006f7700006572000090
:10400400206f000066660000206600006f720000ea
:10401400203200003020000073650000636f000050
:104024006e64000073200000746f000020720000b2
:1040340065730000657400002e00000048610000f4
:10404400726400007761000072650000204f000078
:1040540076650000725600006f6c0000742000004a
:104064005368000075740000646f0000776e0000f0
:104074003a20000042610000747400006572000080
:104084007920000053610000666500007479000027
:104094002046000075730000652000005472000083
:1040a4006970000070650000642e00002055000057
:1040b4006e690000742000006d75000073740000c8
:1040c4002062000065200000736500007276000025
:1040d40069630000656400002e0000004261000076
:1040e400747400006572000079200000556e0000b1
:1040f4006465000072200000566f00006c740000bc
:1041040061670000652000004c6f0000636b0000d5
:104114006f750000740000004368000061720000c5
:104124006765000072200000706f00007765000072
:1041340072200000686100007320000063790000b1
:10414400636c000065640000207400006f6f000061
:10415400206d0000616e0000792000007469000089
:104164006d650000732e000020410000626f0000a6
:1041740072740000696e000067200000666f000022
:10418400722000006e6f0000772e000000530000c4
:104194007973000020530000616600006520000070
:1041a4004d6f0000646500002e2000004d69000082
:1041b4006e6900006d7500006d200000446500000c
:1041c4006275000067200000467500006e63000001
:1041d400746900006f6e0000616c00006974000077
:1041e400792e0000005000006f720000742000005f
:1041f400536100006e6900007479000020450000de
:10420400727200006f720000004900003243000027
:104214002053000065710000756500006e630000a6
:104224006520000045720000726f000072000000fb
:104234004932000043200000546900006d6500000d
:104244006f75000074000000493200004320000034
:1042540062750000732000006e6f0000742000007f
:10426400696400006c6500000049000032430000ee
:104274002062000075730000206300006f6c000072
:104284006c690000736900006f6e00000049000053
:104294003243000020410000434b00002045000051
:1042a400727200006f720000005500006e6b000017
:1042b4006e6f0000776e0000000000008c9c000010
:1042c400b59c0000c99c0000f59c0000069d000000
:1042d400189d0000319d0000499d0000589d00007c
:1042e4007a9d0000899d0000969d0000a09d00001d
:1042f400aa9d0000b59d0000bf9d0000c99d00005f
:10430400d49d0000e99d0000f69d0000fe9d000084
:10431400179e0000229e00002b9e0000389e000085
:10432400409e0000529e0000619e00007c9e0000a2
:10433400879e0000929e00009e9e0000aa9e0000a0
:10434400b59e0000c09e0000cc9e0000d89e0000d8
:10435400e29e0000ec9e0000fa9e0000089f000010
:10436400179f0000269f0000369f0000459f000015
:104374004f9f0000599f00006b9f0000749f000036
:104384007d9f0000869f00008f9f0000989f000083
:10439400a19f0000aa9f0000b39f0000cb9f0000d4
:1043a40020a0000070a000008ea00000c9a00000a2
:1043b400f5a0000007a100001aa1000026a100003a
:0c43c40037a1000049a1000057a1000033
:020000040000fa
:1043d0008449ed0052e8b700b0c3b300fbebb7006f
:1043e0000000060060bb200042bd20008040eb00c2
:1043f00001687800820f5000fdff3a0000000600bf
:10440000889fbe00aa48e2002f003a009485200051
:1044100014427800e14f52002b0034000410800059
:104420000622ef000822ef00f41f2000241088006d
:10443000ebaaa90026c0b300a58a2000864a78000e
:1044400007e2a80080804000414588003045880090
:1044500082407800408a20000148780003437800b9
:10446000558a2000864a780000012000f05f88000d
:1044700085c0a800505380006153800002002000d6
:104480000304240092f507000000e00008003d004e
:104490000c00370050538000615380000801be00bb
:1044a0008bf507000000e00003003d000500370029
:1044b00008002000090424000140fe00aa48e20090
:1044c000f4ff3a00c7ff07004f04be0000000600db
:1044d000889fbe008a1f780000047800814478001d
:1044e00002457800aa48e2002d003a0059c8bf00f2
:1044f000e14f50002a00340000108000b7ebb700f5
:104500000622ef000822ef00f01f20002010880094
:10451000b4ff0700ebaaa80020c0b300aae8b700c8
:1045200007e2a80048458800a628ef0089407800e7
:10453000408a2000014878008a407800508a200094
:104540000148780000012000f05f880085c0a800c5
:1045500050538000615380000200200003042400b7
:104560005bf507000000e00008003d000c0037008c
:1045700050538000615380000801be0054f50700cd
:104580000000e00003003d000500370008002000a7
:10459000090424000140fe00aa48e200f4ff3a00aa
:1045a0004f0578004f04be0000000600f287470068
:1045b000889fbe008a9fbe008c9fbe008e1f780021
:1045c000c0408000d14080000200200003f02300a2
:1045d00068f70700c0408800d1408800c0408000d4
:1045e000d1408000020020000370240094f50700f1
:1045f000c0408800d1408800c0408000d140800089
:1046000002002000038023005af70700c040880002
:10461000d1408800c0408000d1408000e24180004d
:10462000f341800053f70700c0408800d140880064
:10463000c0408000d1408000684080007940800008
:1046400002002000831424004af707000801be007e
:1046500084f5070050548800615488006055b80004
:10466000ca408800db408800e0408000f1408000c4
:104670000200200003f023003ef70700e04088001e
:10468000f1408800e0408000f140800002002000fe
:10469000037024006af50700e0408800f1408800bc
:1046a000e0408000f14080000200200003802300f1
:1046b00030f70700e0408800f1408800e0408000cb
:1046c000f1408000e2418000f341800029f70700bb
:1046d000e0408800f1408800e0408000f140800028
:1046e000884080009940800002002000831424004c
:1046f00020f707000801be005af507007053880034
:1047000081538800ea408800fb4088007e8757007c
:104710000004eb002aad20002b9120006066b80059
:10472000c244dd00890445001900be000242800039
:104730001342800030f60700808cbe00ebcabf0039
:104740000008a300080032004240dd0000004500e0
:104750001000be00224080003340800026f6070093
:10476000008fbe000c003700c244dd000900450088
:104770001000be0022408000334080001ef607007b
:10478000ee84440089844500190178009901900065
:1047900034f50700008fbe004240dd0000004500f8
:1047a0000c88be000804e80064074700e40f5400ca
:1047b000dbff3a00ebcabf000008a3001100320083
:1047c0001fb09700afb0970090538800a1538800a6
:1047d0003fb09700cfb09700b0538800c153880016
:1047e0005fb09700efb09700d0538800e153880086
:1047f0007fb097008fb89700f0538800015488006d
:10480000170037001fb19700afb19700925388008f
:10481000a35388003fb49700cfb497000800be00b0
:1048200007f50700b0538800c15388005fb59700b3
:10483000efb597000801be000a00be0000f50700b2
:10484000d0538800e15388000a01be007fb0970072
:104850008fb89700faf40700f053880001548800dd
:10486000294b80006000b8000900e0000b00340014
:104870000004eb000aa520004242dd002402b00043
:10488000040245001401780094019000f5f407003b
:104890000804e800890f5400f7ff3a00d05288005e
:1048a000e1528800a0408000b140800002428000b8
:1048b00013428000d0f50700a0408800b140880076
:1048c000ebcabf000008a30008003200a04080002f
:1048d000b14080002240800033408000c6f50700d0
:1048e00050538800615388000a003700a0408000c0
:1048f000b14080002240800033408000bef50700b8
:104900008249800093498000d6f407005053880004
:10491000615388006044b800a8408800b94088000e
:10492000204180003141800002428000134280001b
:10493000b1f5070020418800314188002041800006
:1049400031418000f2282c0053ef2300bcf4070013
:1049500020418800314188002041800031418000a1
:1049600042722900f3c72300a3f5070070548800a2
:1049700081548800284188003941880040418000e6
:104980005141800002428000134280009af50700e6
:1049900040418800514188004041800051418000e1
:1049a000f2282c0053ef2300a5f4070040418800b3
:1049b00051418800404180005141800042722900ed
:1049c000f3c723008cf5070090548800a154880099
:1049d0004841880059418800ec8aa8004f077800b8
:1049e0004f06be004f05be004f04be002f01b100b0
:1049f00000000600889fbe000004be006011b800e1
:104a000033f407000000e00001003d0009f0a200bf
:104a10000800be004f04be0000000600889fbe00d4
:104a20000004be000001be0052f607000801be00ef
:104a300050f607004f04be0000000600889fbe002d
:104a40008a9fbe000200200003f023007cf40700d0
:104a50000004be00f1ff07000001be0081f4070062
:104a60000005be000200200003f023000800be0085
:104a700040f607000001be000a00be0079f40700fe
:104a80000200200003f0230076f407004f05be006b
:104a90004f04be0000000600e4874700889fbe0068
:104aa0008a9fbe008c9fbe008e1f7800d05280006f
:104ab000e1528000d0548800e15488000a4a800006
:104ac0001b4a8000e0498000f14980000a01be00d5
:104ad0005bf407000006be006011b800fcf307009d
:104ae0000000e00002003a00cc5a2c007d72230046
:104af000204b800080bf9f000000e0001d003400bc
:104b00000007eb004270dd0021ac20000080400077
:104b10001000be000a01be0049f407000004be00f8
:104b20006011b800eaf307000000e00001003d005a
:104b30006044b8000c01be000800be002ef507005e
:104b4000beff070002002000832c240009f60700a6
:104b50000001be00c270dd0020aa200081004000dc
:104b60008288be000e07e8008fb89700810f5700bb
:104b7000e4ff3a004f0778004f06be004f05be0025
:104b80004f04be004f00b10000000600889fbe0029
:104b90008a9fbe008c9fbe002c4b80008006eb00dd
:104ba0000c00e000130034000d0578000800200020
:104bb000893424008a0678002baa20004250dd00a8
:104bc000008045001000be000801be00c0f30700d1
:104bd0000000e00004003d004250dd000080450080
:104be0001004be008a0678000a05e8008c0f550004
:104bf000f2ff3a00c26edd0020aa20008d064000c0
:104c00001d00be00284f8000394f800002002000a8
:104c1000832c2400f8f407000001be000800be0049
:104c2000d4f507000004be00804f8000914f800043
:104c30000801be00a8f307000000e00003003400f4
:104c4000884f8800994f8800070037006011b8002e
:104c50000800be009ef307000000e00002003d00d7
:104c6000f029ef00f229ef004f06be004f05be000d
:104c70004f04be00000006005053800061538000c6
:104c8000020020000306240093f307000000e00068
:104c9000050034000de2a8000f42a800e0fb2f0041
:104ca000f0168800060037000de2a9000f42a900a7
:104cb00007e2a90020fb2f00f016880007e2a900f8
:104cc0000000060081212000914078000000eb00e8
:104cd0000148a30013003200e12020009140780039
:104ce0000148a3000f00320091212000914078007c
:104cf0000108a3000b003200f12020009140780051
:104d00000108a300070032008121200091407800b3
:104d10000108a30003003a000ec2bf00610060005a
:104d20000000a20000000600b1ae20009140780013
:104d30000148a30055003a005b48e20053003a00e6
:104d4000a1ae2000914078000138a3004f003a0046
:104d50000000e0004d003a00b1ae20009140780024
:104d60000138a30049003200d6ff07000000e00030
:104d70008e003200ff3ffc0080072000a1092000c8
:104d80003274200000497800014978000049780019
:104d90003274200000497800014978000149780008
:104da0007200200033742000804978008149780027
:104db00082497800600420007105200022742000e0
:104dc00000497800014978000049780022742000e9
:104dd0000049780001497800014978001208200054
:104de0002374200080497800814978008249780046
:104df000eb6aa9004110200091407800f0ccb3008c
:104e000080c060000154a000814178004210200061
:104e100003497800a2832300120888000021ef00d4
:104e2000011120009140780080c060000144a00082
:104e30008142780004112000054a780041072700cc
:104e4000610888000621ef00e311200093417800fb
:104e500080c161000354a00083427800e411200067
:104e6000054a78001421ef00d208880002122000c1
:104e700012417800004061000044a00020e1b7002a
:104e8000e10888001821ef003c003700e10f5000d6
:104e900046003a00ebcabf000038a30043003a00c6
:104ea000eb6aa800ff3ffc0003c3b3000340780097
:104eb0000461b700a20e2e001208880010c1bf00c6
:104ec000f1ccb300014060000054a00010e1b70035
:104ed000a483230064088800034078001e61b700a3
:104ee000d20888000212200012417800814061003f
:104ef0000154a0008141780002122000034978008b
:104f0000e408880080072000a109200032742000f6
:104f10000049780001497800004978003274200087
:104f200000497800014978000149780072002000aa
:104f300033742000804978008149780082497800e4
:104f400060042000710520002274200000497800d0
:104f50000149780000497800227420000049780057
:104f600001497800014978001200200023742000d4
:104f700080497800814978008249780042c7bf00a3
:104f80000008a3000500320000000000000000003f
:104f900042c7bf000008a300fbff3a00ebcabf00f6
:104fa0000028a300010032005220ef00000006009c
:104fb0006f006000e90f500002003c000043b000a9
:104fc000010037007043b00000000600f287470080
:104fd000889fbe008a9fbe008c9fbe008e1f7800f7
:104fe000c0b79f004408dd004fb1970002004000a9
:104ff00052bd200062407800d0c2b2000080fb00a9
:105000000000e9004f00de00e0b79f00cfb197003d
:10501000e9814100d3b79f004fb09700830f500044
:1050200064003d00ef0f500064003c000007780072
:105030000001eb00a2b79f00dccc2c00cddc2300ec
:105040006044b8008001e80093b79f00c408dd0009
:10505000b1b79f000a0020000b1224006fb0970028
:105060000000e00004003200cfb09700810f57002d
:1050700001003a001fb797003fb197000e004100b2
:1050800051bd2000e1407800e1ef9f000104e00005
:105090000f00320003c2b30083cf50000c00320077
:1050a000eacf50000a003200f0c2b30080cf5000b7
:1050b0000300340092c3b30082cf500009003400d3
:1050c000efe99700e0c2b30080cf51002d0032001d
:1050d000efb097000100e0003d00320009f0a200af
:1050e0003b0037006fe99700e3c2b300834f5100e4
:1050f000270032002fb097000000e00013003200bc
:105100000200fb000003b100cf80de00b0f2070018
:105110000c01be0097f40700f0b79f0081bf9f000d
:10512000d2cc2c00c3dc23000c00be0091f407009d
:105130000006be007fb197008fb997000800be003f
:10514000c8f207000004be00130037000a01be00c9
:105150000800be0087f407000004be00efe99700d6
:105160000300fb000003b100cf80de0098f20700cf
:105170000001be000800be00baf207000004be0035
:105180000500370010002000a0b79f000200370084
:1051900011002000a1b79f000e07e8005fb1970043
:1051a000820f570006003d00ef0f5700abff3400a1
:1051b000030037006044b800010037006044b800c5
:1051c000efb197000300e0000100320009f0a200f7
:1051d0000800be004f0778004f06be004f05be0016
:1051e0004f04be002f01b10000000600889fbe00e2
:1051f0008a9fbe000005be000204be00ebcabf00cd
:105200000038a30005003a000200200003d8230064
:105210000800be0057f407000004be006011b8008b
:105220000a00be002af207000000e00002003a0077
:105230000a0020006b6124000240220043972400f2
:105240000800be004bf407000a01be006af3070025
:105250000200200003d8230046f4070002002000cb
:1052600003f8230076f207003ef207004f05be0068
:105270004f04be0000000600881f7800ec4aa90019
:105280006000b800105388002153880070548800d3
:105290008154880090548800a1548800d05288001e
:1052a000e1528800224b80000200e0000900340037
:1052b0000000eb0023aa20006022b800c200dd003d
:1052c000818041008488be000000e800820f500009
:1052d000faff3a008a2aef008c2aef00c020ef0084
:1052e000c220ef00c420ef00c620ef00f0ff210035
:1052f00060168800d022ef00ce22ef0010ff2f00b2
:1053000090168800d622ef00d422ef00a0fe2f00d6
:10531000c0168800dc22ef00da22ef00c021ef0087
:10532000c221ef0040062000200e8800c621ef00b9
:1053300008072000480e8800ca21ef00cc21ef00aa
:10534000d021ef0000a02200a00e8800d621ef009f
:10535000d821ef00da21ef000e22ef000fe2a900c2
:105360000c22ef000d42a800a2702d00b3162400fd
:1053700000002000616124009cff0700a01088004d
:105380001822ef0019e2a9001622ef00a2702d00ea
:10539000b3162400000020006161240093ff070081
:1053a000f01088000622ef00f01f20002010880077
:1053b000412e20000115880041422000111588006f
:1053c0000198200021158800a622ef0001e02f009f
:1053d0004115880050158800084078009960b70092
:1053e000410920009140780080cfb30080c0600068
:1053f0006140b300814178004209200003497800f0
:10540000c10920009140780080c060006140b30075
:1054100001417800c4092000024a78007109200087
:105420009140780080c060006140b3000142780084
:105430007309200084497800b10920009140780068
:1054400080c060005140b30081417800b209200063
:10545000034978005209200012417800f1c8b300d6
:10546000014161000264a0008241780054092000db
:10547000034a7800a209200012417800014161002e
:105480000264a00082417800a4092000034a780049
:105490009209200012417800004161003240b300bf
:1054a0008241780094092000034a7800020a200013
:1054b00012417800014161000243b300824178004b
:1054c000040a2000034a7800820920001241780073
:1054d000014161000254a00082417800840920004b
:1054e000034a7800020a200012417800004161005e
:1054f0000214a00082417800040a2000034a7800c8
:10550000f209200012417800004061000014a00060
:105510009fe0b7009ec0bf00014060000044a000b3
:105520009ee0b7009fc0bf00814060000144a00022
:10553000014078009fe0b7004f04780000000600ab
:10554000889fbe00e0fe200000018800e84880003f
:10555000f9488000c0488000d14880000801be00a2
:10556000c0f107000001be000800be00a2f2070063
:10557000204088003140880060662600e0418800b5
:1055800060fd2300f041880000562d000042880095
:105590008071240010428800ec0aa90081e0a90073
:1055a0008420ef008620ef008820ef00ff3ffc0002
:1055b0008c20ef008e20ef009020ef008dc0a8001f
:1055c0008da0a8008c60a8008d20a8008d40a800a8
:1055d0008f00a8008f20a8008c00a8008e00a800d3
:1055e0008ee0a9008cc0a8008ea0a8008ec0a800e4
:1055f0008d60a8008200a9008240a9005220ef001f
:10560000a1e2a800c1e1a80011e1a80005e1a800fd
:105610001fe1a80021e1a80097fd070017e2a800fc
:105620001942a800ecaaa8004f04be000000060022
:1056300011ff0700ff3ffc008420ef008620ef00f1
:105640008820ef008c20ef008e20ef009020ef00ec
:105650008d20a8008d40a8008f00a8008f20a800f2
:105660008ea0a8005220ef00eb4aa800c1e1a900db
:1056700011e1a90005e1a90013e1a90021e1a900b8
:105680007dfd070017e2a8001942a80000000600ef
:10569000b1fe2f00c1168800d2a2ef00dc42a900a3
:1056a00061416000c12d2000914078000104a100fb
:1056b00082c0700081417800c22d2000034978002b
:1056c0000000fb008000d100e1c0600001c140008b
:1056d000612d2000914078000114a10082c070006b
:1056e00081417800622d2000034978004201de00ec
:1056f000614161004211dd00612d20009140780080
:105700000124a10082c0700081417800622d200038
:1057100003497800c300de00e1c06000c308dd007b
:10572000d6c2bf000034a10001407000d6e2b7002d
:10573000a0fe2f00c016880010ff2f0090168800d2
:1057400000000600b1fe2f00c1168800d2a2ef00b3
:10575000dc42a8000000fb00610160000204a2001e
:10576000c12d2000914078000104a100814071000a
:1057700081417800c22d200003497800e2006000da
:105780008100e900cf08de0001c14000612d20004a
:10579000914078000114a10082c07000814178001e
:1057a000622d200003497800640160000201e900d5
:1057b0004f11de004211dd00612d20009140780084
:1057c0000124a10082c0700081417800622d200078
:1057d00003497800e80060008100e900cf08de009e
:1057e000c308dd00d6c2bf000034a1000140700034
:1057f000d6e2b700a0fe2f00c016880010ff2f00d1
:105800009016880000000600889fbe000004be00bd
:1058100002002000432b2400aff007000000e0004e
:1058200003003400eacabf000038a30009003200b8
:1058300002002000632c24000800be00a6f0070030
:105840000000e00006003400eacabf000038a300f0
:1058500003003200f0c0b300baff07002f0037008a
:1058600002002000432924000800be009af007002f
:105870000000e0000300340070c0b300b1ff070077
:105880002600370002002000432424000800be0048
:1058900091f007000000e0000300340030c0b300c6
:1058a000a8ff07001d00370002002000031c240091
:1058b0000800be0088f007000000e000030035008b
:1058c00010c0b3009fff0700140037000200200043
:1058d000031c24000800be007df007000000e0006b
:1058e0000c003d00edcabf000038a30009003a00db
:1058f0006ac8bf000028a3000300320010c0b30034
:1059000090ff0700050037000040eb008dff070007
:10591000020037000040eb008aff07004f04be0082
:10592000000006000004e00053003400e34f500084
:1059300003003a0060c0b30082ff07005000370048
:10594000e44f500009003a00ebcabf000018a30062
:1059500003003200f9cbbf004dff070048003700bd
:10596000f9cbbf0077ff070045003700b186200064
:1059700091407800e9cf500038003400e14f5000ea
:1059800036003a006b68ef00edcabf000028a300a4
:10599000090032006ac8bf000048a30003003200bb
:1059a00020c0b30067ff0700350037000040eb0060
:1059b00064ff070032003700eacabf000038a300c6
:1059c000220032006ac8bf000008a3000c003200a9
:1059d000f8cbbf00e54f500002003c00ea4ae2006d
:1059e00007003d00b0528000c1528000020020003c
:1059f000831c24009bf0070083ff07002000370072
:105a00006ac8bf000018a3000c003200f8cbbf002a
:105a1000e54f500009003c00ea4ae200070035006b
:105a2000b0528000c152800002002000831c24007c
:105a30008cf0070074ff070011003700b05280009f
:105a4000c152800070ff07000d003700b052800087
:105a5000c15280006cff0700090037006bc8bf000f
:105a6000e94f500001003c006b68ec006cc8bf00bf
:105a700007ff0700020037000040eb0004ff0700ab
:105a80000000060011002000f21f2000820f5000cd
:105a90001b003c00ff3ffc00811f7800000040001d
:105aa00001c02f0001004000f1072000213b8800c9
:105ab000103b880041042400013b88005105200070
:105ac000313b8800a10a2000313b880061e7a80033
:105ad0000000000000000000cf0078008000eb0014
:105ae00004003700ebcabf000028a3000100320009
:105af000910288006147e200faff35008000eb0068
:105b00000100780000000600889fbe000004be006f
:105b100008007800dbff070010002000f11f2000c4
:105b2000810f540021003c00ff3ffc00801f7800e3
:105b3000811f7800821f78000804440000c02f00f5
:105b400000044400f0c7b30032e0b7002900880029
:105b5000080088000208bb0041002400013b8800c7
:105b600051052000313b8800a10a2000313b88000c
:105b700061e7a80000000000000000004f0178006d
:105b8000cf0078004f0078008000eb000400370061
:105b9000ebcabf000028a300010032009102880078
:105ba0006147e200faff35000000eb004f04be0041
:105bb00000000600dae8b700e1468800841f78009c
