:020000040000fa
:080000000001040000000000f3
:020000040000fa
:04000c005c0500008f
:020000040000fa
:040010002a050000bd
:020000040000fa
:04001400f0040000f4
:020000040000fa
:04001800c004000020
:020000040000fa
:040024009204000042
:020000040000fa
:04002800da050000f5
:020000040000fa
:04003400fe050000c5
:020000040000fa
:040040004c0300006d
:020000040000fa
:04004c00840200002a
:020000040000fa
:040050001c0200008e
:020000040000fa
:04005400540800004c
:020000040000fa
:04006800b8050000d7
:020000040000fa
:04007c00a0020000de
:020000040000fa
:04008000c8010000b3
:020000040000fa
:04008800680200000a
:020000040000fa
:04008c00cc010000a3
:020000040000fa
:0400d400960500008d
:020000040000fa
:10020000efae20000ebf20000e01880000000000ad
:10021000000020000000e000020032000001200089
:100220002002880014000700340407000000e000ea
:1002300003003a0000832300010020000200370081
:100240000000200001002000810f7000010032003a
:1002500014000700000020000000e000020032004f
:100260000000020000000000dc3702000000000077
:100270000040da000000fe004440a900205c20009d
:100280000000e0000300320000002000a001880010
:100290004440a800000006008a1f78008b1f7800e9
:1002a0000000060091018800800478000000eb0047
:1002b0001a003700e284440032a0b4009905ba0065
:1002c000e284440032a0b4009906ba00e2844400fb
:1002d00032a0b4000006eb00476fde00fd07b2005d
:1002e000636ce10003003a00ebff07000000eb0045
:1002f0000a003700606ce10004003a00005deb008a
:100300008b05e900fdff3e00040037006168e10055
:10031000010032000086eb000b00070019c7ba008d
:100320001905ba000e04e00003003a000a00e000dc
:10033000e0ff3a0000000600fe07b2009e018800c0
:100340008a047800f5ff3700395dba008b05e900b3
:100350000c003200295dba008b05e900080032006c
:100360000c00e00003003a00e284440032a0b40034
:10037000f5ff370019ddba008b05e900faff3a00f6
:100380008904e800e184440032a0b40000000600c3
:1003900086c0a900004006003600f800809fbe001d
:1003a000829fbe00849fbe00869fbe0019c2bf0010
:1003b0000018a30017003a00b1508000c0032000cd
:1003c0000100400062a32000624078000004e000c9
:1003d000100032005d48e2000e00320022a720002b
:1003e000028140000000fb00d01088008100e8007e
:1003f00019c2bf000018a30005003a00524078005f
:100400000004e000f7ff3a00b15088000100370017
:10041000b150880010002000600b07008720a90061
:100420004f03be004f02be004f01be004f00be0092
:100430003600f900004006003600f800809fbe003c
:10044000829fbe00849fbe00869fbe000fc2bf0079
:100450000018a30015003a00a150800060a32000fe
:1004600060c078000004e000100032005c48e20048
:100470000e00320062a32000028140000000fb0059
:10048000801088008100e8000fc2bf000018a300a0
:1004900005003a00524078000004e000f7ff3a00ff
:1004a000a150880001003700a15088000000eb0037
:1004b0003a0b07008540a9004f03be004f02be0063
:1004c0004f01be004f00be003600f900004006009c
:1004d0003600f800809fbe00829fbe00849fbe0051
:1004e000869fbe00100020008b1307008700a90024
:1004f0004f03be004f02be004f01be004f00be00c2
:100500003600f900004006003600f800809fbe006b
:10051000829fbe00849fbe00869fbe000000eb004d
:100520007d1307008520a9004f03be004f02be00c7
:100530004f01be004f00be003600f900004006002b
:100540003600f800809fbe00829fbe00849fbe00e0
:10055000869fbe006050800067006000e20f500080
:100560000e0034000fcabf000038a30004003200a0
:100570003968ef0030c1b300eaeab700160037006f
:10058000618f20009140780090832000014878001e
:10059000b0c3b300eaeab7000f003700eacabf00f1
:1005a0004240a9000a003c00b0c3b300eaeab70029
:1005b00039c8bf004240a90002003c000e2aa80032
:1005c000050037000040e90039e8b70002003700b5
:1005d0000040e900eaeab700f80f07000000e00079
:1005e0000f0032006050800067006000e10f500093
:1005f0000b0034004e160700f0438000e40f50005b
:100600000500340080ff2f000c0ab6000000a00097
:1006100060508800020037000000e800f0438800c6
:10062000e043800081702000810f50000d003a00ef
:1006300061508000e7806000e18f500009003400c5
:100640009b0f07000000e0000400320080ff2f0035
:100650000c0ab6000000a000605088007c28ef0063
:100660000600370061508000e7806000e18f500095
:10067000020034000000e800e043880086a0a900e2
:100680004f03be004f02be004f01be004f00be0030
:100690003600f900004006003600f800809fbe00da
:1006a000829fbe00849fbe00869fbe00889fbe00c2
:1006b0008a9fbe004c68ec000ccabf000038a30043
:1006c0000500320033c8bf00e14f500002003c007b
:1006d0000040e80033e8b700604e8000714e8000b3
:1006e000290a0700024f8000134f8000060307000d
:1006f0000000e0000700340032c8bf00e84f50009f
:10070000090034000c6aa900f0022000d80e07008e
:100710000eaaa800c8458000d94580000005eb005e
:100720002b992000030037000040e80032e8b700b2
:10073000f8ff37004251dd002202b000028145007f
:1007400012007800920090000801be00ec02070041
:100750000000e00001003d000c6aa9000a05e80065
:10076000e40f5500f3ff3a00c04e8000d14e8000e8
:10077000424d8000534d800008050700204e880040
:10078000314e8800e8cabf004240a900040034008e
:10079000e34f5000020032000040e900e8eab700f1
:1007a0005883200018447800e74f540019003400a3
:1007b0000200200003e02300f0408000014180009f
:1007c000f6040700c04e8800d14e880002002000c9
:1007d00003e023001041800021418000ef04070066
:1007e000404d8800514d88006000b80010418800dd
:1007f00021418800f0408800014188003568ef0001
:100800000fcabf000028a300140032009216070090
:1008100012003700624e8000734e8000f04080006e
:100820000141800019030700f04088000141880061
:10083000e24c8000f34c8000104180002141800098
:100840001203070010418800214188000844e80095
:10085000884078005083200001487800c04e800016
:10086000d14e8000424d8000534d8000cb040700e4
:10087000c50907000004be00204d8000314d8000f6
:100880000801be009e0207000000e00002003d00db
:10089000284d8800394d8800684e8000794e8000d0
:1008a0000800be00b8090700f226210033b023007b
:1008b000950207000000e0001100340012052a0034
:1008c000138123000800be00b40407000004be002a
:1008d000504b8000614b80000801be00eb02070016
:1008e000504b8800614b8800724b8000834b800026
:1008f0000800be00e5020700704b8800814b8800ad
:1009000084c0a9004f05be004f04be004f03be00c7
:100910004f02be004f01be004f00be003600f9007e
:10092000004006003600f800809fbe00829fbe0097
:10093000849fbe00869fbe00f41307000eaaa80085
:10094000100120004a0e070080ff2f000c0ab6009d
:100950000000a000605088008420ef008620ef0097
:100960008820ef006a1507004f03be004f02be004b
:100970004f01be004f00be003600f90000400600e7
:100980003600f800809fbe00829fbe00849fbe009c
:10099000869fbe00dd1307000eaaa80000012000fc
:1009a000330e070080ff2f000c0ab6000000a000e5
:1009b000605088008420ef008620ef008820ef0040
:1009c000531507008080a9004f03be004f02be00f0
:1009d0004f01be004f00be003600f9000040060087
:1009e0003600f800809fbe00829fbe00849fbe003c
:1009f000869fbe00e0bf200000018800c3130700ef
:100a00000eaaa800f0002000190e070080ff2f009a
:100a100062508000820060000100a00061508800e8
:100a20008420ef008620ef008820ef008040a9009e
:100a30000c0ab6000000a000605088004f03be0002
:100a40004f02be004f01be004f00be003600f9004d
:100a5000004006003600f800809fbe00829fbe0066
:100a6000849fbe00869fbe00e0bf2000000188007a
:100a7000a61307000eaaa800e0002000fc0d070046
:100a800080ff2f000c0ab6000000a0006050880014
:100a90008420ef008620ef008820ef008060a9000e
:100aa0004f03be004f02be004f01be004f00be000c
:100ab0003600f900004006003600f800809fbe00b6
:100ac000829fbe00849fbe00869fbe0042c7bf00bb
:100ad0000058a30005003a000ecabf000068a3003a
:100ae00002003a0020012000e10d070087130700f3
:100af0000eaaa8000ecabf000068a30002003200c0
:100b0000d0002000da0d07000ecaa800820c0700f2
:100b10008020a9004f03be004f02be004f01be005f
:100b20004f00be003600f900004006003600f80015
:100b3000809fbe00829fbe00849fbe00869fbe0035
:100b4000721307000eaaa800c0002000c80d0700fd
:100b5000710c07008960a9004f03be004f02be0060
:100b60004f01be004f00be003600f90000400600f5
:100b70003600f800809fbe00829fbe00849fbe00aa
:100b8000869fbe00611307000eaaa80090032000f4
:100b9000b70d0700600c07008600a9004f03be00d8
:100ba0004f02be004f01be004f00be003600f900ec
:100bb000004006003600f800809fbe00829fbe0005
:100bc000849fbe00869fbe00501307000eaaa80097
:100bd000a0032000a60d0700100aa8004e0c070075
:100be0008400a9004f03be004f02be004f01be00ab
:100bf0004f00be003600f900004006003600f80045
:100c0000809fbe00829fbe00849fbe00869fbe0064
:100c1000889fbe008a9fbe008c9fbe008e1f7800fa
:100c2000a1e2a800c84e8000d94e80004046800056
:100c3000514680006246800073468000d70307005b
:100c40000200200003f42300d40307000001be00cb
:100c50000800be00ac0107000000e0000200340004
:100c60000d2aa800010037000d2aa800a845800021
:100c7000b94580001c0020000007eb002b992000e4
:100c8000010037000c06e8000c05e9004251dd00c8
:100c90002202b0000281450012007800920090000c
:100ca0000801be00980107000000e00013003500b5
:100cb000e10f55000b00320003003c000a00e00089
:100cc000060032000d003700e20f55000700320029
:100cd000e30f550009003a00060037000e00a0009f
:100ce000e8ff37000e10a000e6ff37000e20a0003e
:100cf000e4ff37000e30a00002003700e30f56007b
:100d0000e0ff34008e407800e08420000148780045
:100d10000ec2bf000018a3000a003200d00220005b
:100d2000530d07000ec2bf000008a30004003200ec
:100d3000901080000ec2bf000008a300fcff3a0024
:100d40000e22a90018c2bf000018a3000a0032003a
:100d5000e0022000460d070018c2bf000008a300f3
:100d600004003200e010800018c2bf000008a30099
:100d7000fcff3a001822a900f6140700ae15070080
:100d80001e1707006050800067006000e20f5000ef
:100d900003003c0010002000104488000eaaa900a7
:100da000504b8000614b8000770807000006be00b2
:100db000b04a8800c14a88000e9e20000a00200028
:100dc0008b2c24005e04be000a01be000800be0099
:100dd0004b0107000000e00001003d000805be00d7
:100de000009f2000800f5700f6ff3a00020020000d
:100df000632c24000a00be00430107000000e0004d
:100e00000c003400e9cabf00e44f50000900320072
:100e1000904a8000a14a8000704b8800814b880076
:100e200040c0b300e9eab7006a29ef006c29ef007f
:100e30002900370002002000c32424000a00be005d
:100e40002f0107000000e00013003d000200200019
:100e5000432424000a00be002b0107000000e0002c
:100e60000d003400e9cabf00e44f50000200320018
:100e70000004e00008003a000c01be000c00be00b7
:100e800082010700904a8800a14a880020c0b30070
:100e9000e9eab700100037000200200003f8230041
:100ea0000a00be00160107000000e0000a003d0035
:100eb000e94ae200080032009c4a8800ad4a8800f6
:100ec0006000b800704b8800814b8800e96aef0031
:100ed000504b8800614b8800704b8000814b800034
:100ee0006011b800060107000000e00002003d00ac
:100ef0006e29ef007029ef00984a8000a94a80000f
:100f0000704b8000814b80000801be00fe0007008e
:100f10000000e00002003400784b8800894b880014
:100f20000e4ae20019003d006a4580007b458000c2
:100f30000a01be000800be00180307000004be003e
:100f4000704b8000814b80000801be00ee0007005e
:100f50000000e0000d0034004c4d80005d4d80002d
:100f6000a2458000b34580000a00be000b030700c5
:100f70000001be000c00be00e10007000000e00020
:100f800002003c00784b8800894b88009a4a800018
:100f9000ab4a8000704b8000814b80000a01be008c
:100fa0001f02070002002000832c2400fb02070020
:100fb000c04c8800d14c8800c84e8000d94e8000bb
:100fc000f2282c0053c723000800be00ce00070003
:100fd0000000e000280034009c4b8000ad4b8000f6
:100fe00002002000135624000800be000c02070077
:100ff0000001be000c00be00240107000001be007d
:10100000904b8800a14b88000a00be00bc0007007e
:101010000000e00018003c007229ef007429ef0086
:10102000b04b8000e10f4000020032000000e800f9
:10103000b04b8800d04680006500b900cf80de004c
:10104000ef0007000001be000000200001f82300af
:10105000f30107000001be000000200001f823009a
:10106000010107000001be000a00be00cb0207001c
:10107000904a8800a14a8800f90b07008460a90003
:101080004f0778004f06be004f05be004f04be005c
:101090004f03be004f02be004f01be004f00be0016
:1010a0003600f900004006003600f800809fbe00c0
:1010b000829fbe00849fbe00869fbe0036c8bf00d0
:1010c000e74f50006b003c000ecabf000038a30081
:1010d00053003200001480008000eb00cb000700ba
:1010e0000001be005040800061408000e700070022
:1010f0005040880061408800101480008000eb00a0
:10110000c20007000001be007040800081408000e6
:10111000de000700704088008140880020148000b5
:101120008000eb00b90007000001be00b040800065
:10113000c1408000d5000700b0408800c140880051
:10114000301480008000eb00b00007000001be00fa
:10115000d0408000e1408000cc000700d0408800f3
:10116000e1408800401480008000eb00a7000700e9
:101170000001be00e04f8000f14f8000c300070077
:10118000e04f8800f14f8800501480008000eb0091
:101190009e0007000001be0000508000115080003a
:1011a000ba000700005088001150880060148000c9
:1011b0008000eb00950007000001be002050800079
:1011c00031508000b1000700205088003150880065
:1011d000701480008000eb008c0007000001be004e
:1011e0004050800051508000a80007004050880007
:1011f00051508800801480008000eb0083000700bd
:101200000001be0090408000a14080009f000700c8
:1012100090408800a1408800cd12070013003700dd
:101220006000b8005040880061408800704088002d
:1012300081408800b0408800c1408800d0408800cc
:10124000e1408800e04f8800f14f8800005088009e
:10125000115088002050880031508800405088008c
:101260005150880090408800a14088003668ec000a
:101270001b003700e31107000ecabf000038a300af
:1012800001003200520707003668ef000ecabf00a7
:101290000038a300040032000ecabf000058a300ab
:1012a00001003a0020140700171707006050800063
:1012b00067006000e20f500006003c000ecabf004d
:1012c0000038a30003003200a1e2a9000e6aa900c1
:1012d000010037000e6aa80010c0b30060090700c3
:1012e0008560a9004f03be004f02be004f01be0043
:1012f0004f00be003600f900004006000000050067
:1013000014002000ad033700f4ff2f00ab033700bb
:101310000001be003f0007000470a70003f0a10019
:101320006509b100160032000d0035006828e100a3
:1013300006003500f0ff2f00f1ff27000300e0005a
:1013400013003b00010028000000050000004000e1
:10135000818048008502e900fcff3a000800370060
:10136000f88f420002003c008000eb000000050006
:101370008100d1000080d3008502e800fcff3a0024
:101380000300e00002003b0060001000e080180055
:10139000000006000001be001e0007000470a70048
:1013a00003f0a10003f8a30013003a006509b1009f
:1013b00010003200090035006928e1000200350004
:1013c0000100280000000500000040008180480066
:1013d0008502e900fcff3a0000000600f88f420099
:1013e000050035008100d1000080d3008502e800af
:1013f000fcff3a00000006008000eb000000050042
:101400004f89de0082017800870337006011b80041
:1014100095033700c70ade00f107b200f50fb200ee
:1014200008003200e1cf4200020032000170a0004b
:1014300024000500810f700001003200040805003f
:1014400044000500810f700002003a0014000500fe
:101450008502e9000000400081c04800fcff3b001d
:101460000170a0002400050007f827000783610031
:101470000638e10004003a00f70720008783610086
:101480008703710001003a0003f0a200889fbe00ac
:101490008a9fbe008c9fbe00470ade000480a10028
:1014a000c71ade000580a10007002800078560003c
:1014b00087856100f70f20000720e1009e003200c1
:1014c0000728e1009c003200010678000400e000db
:1014d000b4003200f7072000878060000170a00090
:1014e0000500e000c0003200f7072000878161009e
:1014f0000370a000050652000f003a000b50e100f7
:101500000b0032000308e10002003a000200e10093
:101510007e00320002045000838458000400310031
:101520000001fd008101fd008402fd008a05fd002f
:101530006044b800210037000520e10005003d00af
:101540000001fd008101fd008402fd008a05fd000f
:10155000050652007a60e100050035000170a10027
:101560004722dd00848070008a80700063003700ad
:101570006044b800ef02660007ff2f000706660010
:101580000500e00006003400f08312008714dd003f
:101590000511de00071bdd00060171008519de0064
:1015a0007060e100050035000904780082047800cd
:1015b000030178008001eb00700656000b50e1003b
:1015c00003003a0002004000838048000400370016
:1015d00060041400e0841c0002005800838058005e
:1015e0000188a300060032008100d1000080d300f2
:1015f0008984d3000884d3000402e8002700370060
:101600000178a30025003a000100e0000300320049
:101610008186cf00698656000a0037008c002000c2
:101620000000e00004003a00090078008804780017
:101630000004eb00700252008086cf000d064600c9
:101640000c06e9007060e1000600350080007800bb
:1016500009007800880478000004eb00700656004a
:10166000700252000c00e0000c0034008c08dd0019
:10167000f00316000703de00868070000c00dd001a
:10168000074bde00060070008c4cdd000743de00d7
:10169000868474000c44dd000c0252006120e100dd
:1016a0002000350061016000070028008781640088
:1016b000f7ff270087836400070374000300e0003e
:1016c0000600320082037300040032000000e800cc
:1016d000e08048000188a3000e003a00f70f2000c8
:1016e0000720e1004a003d000170a1004722dd0013
:1016f000810072008a8070000000be004f06be00ac
:101700004f05be004f04be00000006006000b80098
:10171000faff37008100d1000080d3000402e80006
:10172000eeff37000401780089017400a101070071
:101730008a807000f1ff3700f70107000702780088
:101740000001fd008101fd00f30107008702780020
:10175000850372000778a300040032000001fd0039
:101760008101fd0006020700e4ff370085036200e7
:101770000768a300080032000b50e10003003200ac
:10178000f0ff2f00f1ff2700dcff37000001fd0014
:101790008101fd00d9ff37000468a300d7ff3200a4
:1017a000faff3700f8ff2700888360000b003a003b
:1017b0000000e00009003a008303640082837300a4
:1017c000020032000200be00ccff37000b50e100e7
:1017d000ceff3a000200be00c8ff37001400200010
:1017e000810064003eff3700f8ff27008883610016
:1017f00004003a000200e00002003a008c00780089
:10180000beff3700150020008301640039ff370058
:1018100001f827000000200081007500b7ff3700a5
:10182000889fbe008a9fbe008c9fbe001b002000c8
:101830000202be0005866800060028000606660053
:101840004709de00f20fb200820032000243e800d6
:1018500080003200c729de00f30fb2007d003200a5
:101860000343e8007b003200f107b2000170a000e2
:10187000f507b2000570a000c708dd004903de00cf
:10188000868070004700dd00c72add004923de00a6
:10189000868272004722dd000305510004035000d8
:1018a000858358000300310000004000818048001b
:1018b0000a05e9008c1f78008a9fbe0004005000d2
:1018c000858058000402420085824a0000004000e2
:1018d000818048000005eb000004be006033b800c2
:1018e0000406be000d48e100560031001100090059
:1018f0004dccd8000c01b8000d02b8008481410025
:1019000060824a008283530003045c0084845c008c
:1019100060055d000a00e00025003a0080057800bf
:101920000d40e10049003100880078000700780090
:10193000110009004d88d8000c01b8000d02b80054
:101940008481410060824a006003110083835b0050
:1019500004045c00e0845c000900e00021003a001f
:101960004f01be000300e0002b003200e3016000e5
:10197000070673008c817100010032006400700062
:101980004200de004e5edd000c007000c258de003a
:1019900001e0a00083010700cf0178008180710081
:1019a0004f06be004f05be004f04be0000000600fb
:1019b0008c8343000d044c00e0844c0060054d0016
:1019c0000000e9000a00e000d4ff32008c834300ed
:1019d0000d044c00e0844c0060054d000000e9005f
:1019e000ceff37000c0343008d834b0060044c0096
:1019f000e0844c000000e9000900e000d8ff32005c
:101a00000c0343008d834b0060044c00e0844c00c9
:101a10000000e900d2ff37004200de004e5edd002c
:101a20000c007000c258de0001e0a000cf01780079
:101a30000300e000daff320060001000e0801800d0
:101a4000d7ff3700f0ff2f00aaff3700f0ff2f006d
:101a5000b9ff37000404be002f0107008706780095
:101a60000004fd008104fd002b01070007836600d0
:101a70000678a300030032000960a7000800be003a
:101a80002c0037000d78a300020032000800be00d1
:101a9000280037000778a30026003a0001f0a100d3
:101aa00009f0a1000668a30003003200f1ff27003f
:101ab000f0ff2f00baff37000d68a30003003200cb
:101ac0000800be008c807000b5ff37000768a300d7
:101ad00007003a000648a30003003200f1ff270088
:101ae000f0ff2f00aeff37000d48a30003003200c7
:101af0006000b8008c807000a9ff37000748a30081
:101b00000400320001f82700000020008c807000e3
:101b1000a3ff3700760107000004fd008104fd00eb
:101b200002057800720107000802be008a017800f1
:101b300059ff37000160a0001202200062578800a0
:101b400097ff37000100e000120032000500e000be
:101b500010003200889fbe008a9fbe008c9fbe008e
:101b60000006eb0001f8a300030032006000100043
:101b7000e08018000cf0a00005f8a300030032007c
:101b800060021200e0821a000cf0a2008005eb0057
:101b900041ff37006000b8000200050003836800c1
:101ba0000700280007036300470ade000480a10045
:101bb000c71ade000580a100f70f20000720e10012
:101bc000420032000728e10040003200889fbe003a
:101bd0008a9fbe008c1f7800f107b200f307b200a5
:101be0000400e000640032000170a0000500e00085
:101bf000680032000370a00085054200eb07b100c9
:101c00000204b8000302b8008484440060854a00de
:101c1000020ab800848444000a854a00030ab80016
:101c200004054500040033000804d0008984d20074
:101c30000a85d2008b05e9006158e1003d003500be
:101c40000210200009016100030820008981610061
:101c5000f70720008783640008867300c84cde0005
:101c6000c853dd00878474004855de000300e0009f
:101c70000600320082037600040032008904e80086
:101c800060054d000a88a3000c003a00f70f200001
:101c90000758e10044003d000a70a100c75ddd0067
:101ca0000a8575008a007300090078004f067800e5
:101cb0004f05be004f04be00000006000a05d1001b
:101cc0008984d3008b05e800f0ff3700881f780077
:101cd0000604780090000700070278000001fd006c
:101ce0008101fd008c0007008702780085037200e7
:101cf0000778a300050032000001fd008101fd000e
:101d00009f0007004f047800000006008503720062
:101d10000748a30003003200f0ff2f00f1ff270067
:101d2000f8ff37000000200001f8270088807000cd
:101d3000f4ff3700880178004848dd008081710099
:101d40004848de00c850dd0001007000c850de00c9
:101d5000060478000b0178001600070088807000e8
:101d6000d2ff37000500e000050032001700200018
:101d70003a0007009dff370081037000f9ff3a0029
:101d8000860078004f0678004f05be004f04be0065
:101d90000000050083037100f9ff320027002000d6
:101da0002e00070094ff370001f82700868070009e
:101db000f4ff37000100e00026003200610111004d
:101dc0007810e10023003c006022b8007010e100b0
:101dd0000400350080027800010078008000eb00ec
:101de000700151000200e00009003400700311008e
:101df000062add00822ade008603dd00878272006b
:101e00000200de00860bdd00070070008208de00a5
:101e100084817100f4ff27000482620084817100d4
:101e200004002800848262006102600005f0a600c0
:101e30000000060004827100070032000000e80084
:101e4000e0804800000006000002be006000b8000c
:101e5000efff37006000b80000000600889fbe005a
:101e60000004eb006138e10016003a000100e000d8
:101e700008003a00c800de004800dd0088002000ad
:101e80000100e00003003a00c800de004800dd0069
:101e9000680444008184cf00e984540006003400c3
:101ea0008908dd00f08314008703de00878070005e
:101eb0000900dd0009044400610214004f04be0063
:101ec000000006000300e00008003a00c811de0030
:101ed0004811dd00880020000300e00003003a0004
:101ee000c811de004811dd00680444008384cf007f
:101ef000e9845400060034008919dd00f0831400e1
:101f00008713de00878171000911dd000904440098
:101f1000e1021400e9ff37002700200001f0a700cc
:101f200017002000470bde00f60fb200040032005d
:101f30000643e8000a0032004702b3000000060032
:101f400001037800f607b2000603700002003a00b1
:101f50000703b300000006008702b300000006007c
:101f600001037800f607b200060370000200320099
:101f70000770a000000006000760a0000000060037
:101f80000478a300040032000578a30003003200a7
:101f90000168a30001003a000200be000160a00039
:101fa0000000060081017000270032008002eb0073
:101fb00001f8a3000300320060001000e080180068
:101fc00015002000f4072000020242002000340027
:101fd000f70320008703600006042000000363006d
:101fe00002082000000161004700de00c909dd0091
:101ff00000807100c708de000600e0000800320023
:1020000087037100060032001000b0000180b000ac
:102010000188a30002003200c108de000402e800cb
:10202000f107b200f30f20000320e10003003d00a0
:102030004722dd00810072002900370001f82700e7
:102040000000eb00260037006000b800000006002a
:10205000680212007f20e100020034006000b80036
:102060001f0037006011b8007020e1000400350047
:1020700080017800010078008000eb0070025200bf
:102080000400e00009003400f00312000719dd002d
:102090008419de000703dd00868171000400de0084
:1020a000070bdd00060070008408de00f7ff270044
:1020b0008383630087037100060028000303630025
:1020c000070032000700e00003003a0061016000f1
:1020d00002817300020032001000b0000180b000e5
:1020e0000500a6000000060001f0a00000000600a8
:1020f0004f0ade004709de00f107b200f20fb2001e
:102100000b003200f207b1000170a000c708dd002b
:10211000c901de00838070004700dd000400a600d6
:102120000000060060001000e080180000000600bb
:10213000810f700001003a00000006008182cf008c
:102140000500e00010003e008082cf00ee824200d9
:102150007028e1000400390007003e00800078008c
:102160000000eb000e003700708312008600de00d6
:102170000500dd000a003700708352008600dd0094
:102180000000eb0006003700e28252008508dd0007
:10219000708312000603de00868070000500dd00fb
:1021a0007507b0000501ea000400a6000000060063
:1021b00060001000e080180000000600889fbe004c
:1021c0008a9fbe00841f78007c0007004f007800c3
:1021d00011003300f0ff2f00838f6c0006003b00de
:1021e000040565000a00a7000800370009f0a600f2
:1021f0001000200008003700820f5400838f5c001d
:10220000030039001000200001003e000000200003
:1022100009f0a7000000ea004f05be004f04be0011
:102220000000e00000000600881f7800030478002a
:102230000300e00007003d0060001000e08018008f
:1022400060011900e081190002003b0001f02d003f
:10225000030037000400070008f0a70001f0a00009
:102260004f04780000000600889fbe008a9fbe00d1
:1022700000827000040271000482710026003200a6
:102280000004be000200be006011b8006b0920000f
:10229000950220000182cf000a0039000541b100fb
:1022a0000082cf00070039000541b1000982cf004c
:1022b000040039000541b1000882cf000100390057
:1022c0000541b10005425200120032000a003b00f5
:1022d00082817100610164008100d1000080d3001f
:1022e0008984d3000884d3008b05e8000442e80009
:1022f000f7ff3a00070037000804440089844c00c7
:1023000000004800818048008b05e9000442e90094
:10231000f9ff3a00030007004f05be004f04be005e
:102320000000060081002000618055000b003d0088
:102330000b00200061fe2f000100e1001d003400b1
:1023400082817100610164008904d1000884d30096
:102350000000e800faff3a0071002000610064000c
:1023600003007000020060000900320061044400b4
:10237000e0844c000988a500050032008b05e800c8
:102380006808e10002003a008904d1000884d30003
:10239000f20f20000258e10005003d00c75ddd009e
:1023a000f907b20089807500080078000000060077
:1023b0000bf827008b007800000005000004be0029
:1023c00014fc07000003be000405be000200be00ae
:0c23d00010fc0700844f750000000600a0
:020000040000fa
:1023dc002000000020200000000a00000d0000007a
:1023ec0050720000696e0000746900006e67000096
:1023fc002053000079730000746500006d2000000c
:10240c005365000074740000696e0000677300006f
:10241c002e0a00000d000000313a0000207c000064
:10242c00523100007c200000202000002020000001
:10243c00207c0000523200007c2000002020000094
:10244c00202000007c530000314300007c20000061
:10245c0020200000207c000053320000437c000050
:10246c002020000020200000207c000053330000be
:10247c00437c000020200000202000007c53000042
:10248c00344300007c0a00000d000000323a0000ca
:10249c00207c0000504300007c2000002020000025
:1024ac0020200000207c00004d420000567c0000e3
:1024bc0020200000202000007c420000525600002a
:1024cc007c20000020200000207c000044560000ee
:1024dc007c2000002020000020200000207c000038
:1024ec004c560000537c00002020000020200000ef
:1024fc007c440000435200007c0a00000d000000e8
:10250c00333a0000207c00004c4300007c2000008b
:10251c002020000020200000207c0000434300000d
:10252c00527c000020200000202000007c41000094
:10253c00485200007c20000020200000207c00007d
:10254c004f430000537c000020200000202000009e
:10255c007c4100004d4300007c0a00000d0000008f
:10256c00343a0000207c0000435400003830000056
:10257c007c2000002020000020200000207c000097
:10258c00436d0000547c000020200000202000003f
:10259c007c430000524c00007c20000020200000f6
:1025ac00207c0000434d0000585400007c200000ab
:1025bc0020200000207c000043520000487c0000da
:1025cc0020200000202000007c4300005454000018
:1025dc007c0a00000d000000353a0000207c000051
:1025ec00446d0000547c00002020000020200000de
:1025fc007c440000524c00007c2000002020000095
:10260c00207c0000444d0000585400007c20000049
:10261c0020200000207c000044520000487c000078
:10262c0020200000202000007c44000054540000b6
:10263c007c0a00000d000000363a0000207c0000ef
:10264c0042530000547c0000202000002020000099
:10265c007c430000535400007c200000202000002c
:10266c00207c00004d480000547c0000202000001d
:10267c00202000007c5000004f4100007c0a00002c
:10268c000d0000000a0d000052650000616400009e
:10269c00696e00006720000046610000756c000048
:1026ac00747300002e0a00000d000000466100004b
:1026bc00756c0000742000004c6f00006720000057
:1026cc00467500006c6c00002e0a00000d00000026
:1026dc004e6f000020660000617500006c740000f5
:1026ec00206300006f640000657300002e0a000078
:1026fc000d000000436f0000646500003a200000ec
:10270c00002000002d3e000020000000466c000060
:10271c0061670000733a00003a2000007c42000020
:10272c0061740000742000004f5600007c200000f3
:10273c007c420000617400007420000048560000c8
:10274c007c2000007c4200006174000074200000ba
:10275c00555600007c2000007c4200006174000093
:10276c00742000004f5400007c2000007c530000bb
:10277c0079730000204f0000547c0000200a0000f8
:10278c000d00000020200000202000002020000070
:10279c0020200000200000005345000054200000c1
:1027ac00202000002020000020200000004300001a
:1027bc006c650000617200002020000020200000e9
:1027cc00200000004000000020430000686500006d
:1027dc00636b000020460000617500006c74000003
:1027ec0073210000002000002d3e00004372000009
:1027fc006974000069630000616c000020450000f2
:10280c00727200006f720000213c00002d0000006d
:10281c000a0d000050520000473a00000a0d00005b
:10282c00537400006f720000656400003a000000f1
:10283c000a0d0000436100006c6300003a200000a8
:10284c00200000000a0d00004e5600004d3a00001a
:10285c000a0d0000537400006f72000065640000e4
:10286c003a0000000a0d000053650000747400006b
:10287c00696e000067730000206100006e64000048
:10288c0020560000617200007320000053610000ac
:10289c0076650000642e00000a0d00000050000058
:1028ac00204f00006e0a00000d00000050200000b8
:1028bc004f660000660a00000d0000000a0d0000c3
:1028cc0048550000442000004f6e00000a0d000027
:1028dc00000a00000d48000055440000204f000085
:1028ec00666600000a0d0000000a00000d4600009c
:1028fc00617500006c74000073200000436c0000d4
:10290c006561000072650000642e00000a0d000075
:10291c00000a00000d560000312e0000305f000050
:10292c00325300002d340000530a00000d0000004b
:10293c00556e00006b6e00006f7700006e2000007b
:10294c00436f00006d6d0000616e0000642e00008e
:10295c000a0d0000004900006e6900007469000057
:10296c00616c0000697a0000656400002e20000094
:10297c000a0d000000200000002500000056000099
:10298c0000540000560000005057000000410000a9
:10299c0056000000435600000043000041000000b8
:1029ac00533100000053000032000000533300008c
:1029bc000053000034000000570000004357000093
:1029cc00004100000043000042000000434d0000a5
:1029dc0000410000410000004f4300005600000081
:1029ec004d430000000a00000d000000c1940000df
:1029fc00c3940000c5940000c7940000ca94000062
:102a0c00cd940000d0940000d3940000d694000024
:102a1c00d9940000dc940000df940000e2940000e4
:102a2c00e4940000e7940000e9940000ec940000aa
:102a3c00ef940000f2940000f6940000f99400006a
:102a4c00486500006174000065720000207400008d
:102a5c006f6f0000207300006d6100006c6c000053
:102a6c00004e00006f2000006865000061740000db
:102a7c00657200002064000065740000656300004e
:102a8c00746500006400000048650000617400007b
:102a9c0065720000207400006f6f0000206c000055
:102aac006172000067650000004c00006f77000049
:102abc0020420000617400007400000048610000b6
:102acc0072640000204f00004300000043680000c7
:102adc0072670000204f00004300000042610000bc
:102aec0074740000204f000056000000426100008a
:102afc0074740000204f0000540000005552000078
:102b0c00462000005365000074000000536500006f
:102b1c006c660000204f0000540000005379000048
:102b2c00732000005368000075740000646f00008f
:102b3c00776e000000500000574d0000204500004b
:102b4c0072720000004f000073630000204600000a
:102b5c00616900006c0000004164000064720000b8
:102b6c00204500007272000000530000544b00001e
:102b7c002045000072720000004d00005448000017
:102b8c0020450000727200000052000065730000c6
:102b9c0020370000005000004c4c00002055000075
:102bac004c000000427200006e4f00007574000073
:102bbc0000570000445400002072000073740000a1
:102bcc0000540000524100005020000072730000bd
:102bdc00740000004f700000636f0000646500001b
:102bec002072000073740000004d0000434c000084
:102bfc00522000007273000074000000496c000049
:102c0c006c650000676100006c200000496e0000dc
:102c1c007374000000530000797300002052000010
:102c2c0073740000004900006e760000616c0000b7
:102c3c002070000072740000005500005342000028
:102c4c002043000068200000466c00007400000067
:102c5c005043000068670000203e00002031000057
:102c6c0030300000250000005648000020430000d2
:102c7c0068560000005600004c200000436800001d
:102c8c005600000056480000204300006843000036
:102c9c00005600004c200000436800004300000078
:102cac005648000020420000546d000070000000e7
:102cbc00564c000020420000546d000070000000d3
:102ccc00564800002042000043000000564c000013
:102cdc002042000043000000564800002053000032
:102cec004d000000564c0000205300004d00000029
:102cfc00504f00005254000031200000425300009d
:102d0c00592000006572000072000000504f000056
:102d1c0052540000322000004253000059200000a1
:102d2c006572000072000000506700006d2000000a
:102d3c00436800006b200000457200007200000028
:102d4c004e5600004d200000436800006b20000030
:102d5c00457200007200000053650000747300009f
:102d6c0020430000686b00002045000072720000d8
:102d7c00004e00005653000020430000686b00001a
:102d8c002045000072720000005000004f520000fd
:102d9c005431000020450000525200000050000049
:102dac004f520000543200002045000052520000e7
:102dbc00005300006f660000742000004f430000b9
:102dcc00005600004820000053310000005600005f
:102ddc004c20000053310000005600004820000039
:102dec0053320000005600004c200000533200000b
:102dfc00005600004820000053330000005600002d
:102e0c004c20000053330000005600004820000006
:102e1c0053340000005600004c20000053340000d6
:102e2c00004300006872000067720000204f000031
:102e3c00560000004f430000204600006175000062
:102e4c006c740000004f000056200000466100002a
:102e5c00756c000074000000556e00006b6e000075
:102e6c006f7700006e00000026950000379500007b
:102e7c004a9500005b950000649500006c9500007d
:102e8c00749500007c950000849500008c950000e2
:102e9c0094950000a1950000a9950000b295000042
:102eac00bb950000c3950000cb950000d1950000a8
:102ebc00d8950000df950000e7950000f095000024
:102ecc00fb95000004960000119600001996000076
:102edc00239600002e9600003a96000041960000c2
:102eec00489600004f960000569600005e96000033
:102efc00669600006c9600007296000078960000b2
:102f0c007e9600008c9600009a960000a696000013
:102f1c00b2960000bf960000cb960000d59600003c
:102f2c00df960000e7960000ed960000f396000097
:102f3c00f9960000ff960000059700000b97000023
:102f4c0011970000179700002097000029970000a8
:042f5c0032970000a8
:020000040000fa
:102f6000c1852000e14078000104e0000500320046
:102f70000140fe00c1852000e14078000104e0002e
:102f8000fbff3a0000000600889fbe000004be0060
:102f90006011b800daf807000000e00001003d0011
:102fa00009f0a2000800be004f04be0000000600a9
:102fb000889fbe000004be000001be00f7fa0700b3
:102fc0000801be00f5fa07004f04be00000006002d
:102fd000ec874700889fbe008a9fbe008c9fbe0082
:102fe0008e1f7800604e8000714e8000e6ff070063
:102ff000a2702d0033da2300c1f807000000e000c2
:1030000040003d000ccabf000048a3003d003a004c
:103010000ecabf000038a3003a003200e04c800026
:10302000f14c8000e04e8800f14e8800c0458000e1
:10303000e0b79f00d2458000f2b79f00a045800016
:10304000b14580006fb19700ffb1970006f9070006
:10305000c0b79f00d1b79f00039e200083bf9f0091
:103060000007eb000a0020000bf023004271dd0096
:103070002202b000209920000201400012007800d6
:10308000920090006fb19700ffb19700f6f807002b
:103090004fb19700dfb19700e1f907000a01be00c8
:1030a000f1f807000004be00c1ff07000001be00e8
:1030b000f6f807000006be000a01be000800be00c8
:1030c000b6fa07000001be000c00be00eff80700d2
:1030d0000a01be00edf8070002002000832c240046
:1030e000aefa07000fb9970000a9be0082bf9f008b
:1030f0000e07e800e40f5700dcff3a000ccaa800f6
:1031000020003700c8458000d9458000ea4c800087
:10311000fb4c8000a2702d0033c223000800be00cb
:10312000daf807000001be000a00be0074f80700cc
:103130000000e00013003c006000b800204f880051
:10314000314f8800404f8800514f8800604f880001
:10315000714f8800804f8800914f88000200200046
:10316000030824000800be008cfa0700a2702d009e
:1031700033c22300c5f80700e04e8800f14e8800f6
:103180000ccaa8004f0778004f06be004f05be00ce
:103190004f04be00cf00b10000000600c2032000b3
:1031a0000281b9008000400044a12000810042005b
:1031b0009100410062a32000e2c078000104e00019
:1031c00007003a008000400042a1200001014100b8
:1031d0008000eb0001097800c285200001717800b1
:1031e000000006006f006000e90f500002003c0084
:1031f0000043b000010037007043b000000006003b
:10320000c1852000e14078000104e00012003a008e
:1032100012c0b300c1852000827078008000400099
:1032200042a1200081004100c20320000281b900b8
:103230001101410063a32000028141000049eb001d
:103240008008eb000000e000020032008720a800a8
:10325000010037008540a800000006000001400082
:1032600041a12000e1007900c40320000482b900dc
:10327000848140006702b900c6a12000020143001a
:103280001202420085a2200062a32000e5427a00db
:1032900005f17900a2032000828f500004003e0057
:1032a0000000400042a12000000041000108e800a9
:1032b00000000600889fbe000004be000200be00a1
:1032c000024022004397240034fa07000801be00a0
:1032d00053f907000200200003d823002ffa07004b
:1032e0000200200003f823005ff8070029f8070018
:1032f0004f04be0000000600881f78000e4aa90097
:103300006000b800204d8800314d8800804e880054
:10331000914e8800a04e8800b14e8800e04c880095
:10332000f14c8800204f8800314f8800404f8800c2
:10333000514f8800604f8800714f8800804f88008f
:10334000914f8800604e8800714e880043c7bf00cf
:1033500088cfb300084060000004a00043e7b70036
:103360004207a8004227a900c020ef00c220ef00ba
:10337000c420ef00c620ef00f0ff21006016880097
:10338000d022ef00ce22ef00e0f82f00f0168800e8
:10339000e222ef00e022ef00a0ff2f00c01688001d
:1033a000dc22ef00da22ef0040002000000e88004f
:1033b000c221ef0010032000200e8800c621ef007c
:1033c00000ff2000400e8800ca21ef00cc21ef0052
:1033d000d021ef0000a02a00a00e8800d621ef0027
:1033e000d821ef00da21ef000e22ef000fe2a90052
:1033f0000c22ef000d42a800a2702d00b31624008d
:103400000000200061612400aaff0700a0108800ce
:103410001822ef0019e2a9001622ef00f010880030
:10342000a30e2e00130888000021ef000421ef00f6
:1034300001c3b300014078000461b700a2832300f8
:10344000620888000621ef001021ef00041120001f
:1034500014427800f7ccb300074262000454a00085
:103460000443780005112000864a7800d3088800bc
:103470001421ef001e21ef001e61b700e208880052
:103480001821ef002021ef000212200012417800e5
:10349000074061000054a00020e1b700c02a2100cd
:1034a00070418800008c23008041880000c7b30071
:1034b0009960b70097c0bf00084060006040b3004b
:1034c00097e0b7009cc0bf00084060005040b300c8
:1034d0009ce0b7005209200012417800f0c8b30008
:1034e000004161000264a0000242780053092000fc
:1034f00084497800f20920001241780008416100f7
:103500000224a00002437800f5092000864a7800d2
:103510009209200012417800084161003240b30056
:10352000024278009309200084497800020a2000b2
:103530001241780000416100814071000143780030
:10354000050a2000864a7800810920009140780011
:1035500080c060000154a0008141780082092000f1
:1035600003497800010a20009140780088c060007b
:103570000114a00081427800040a2000054a780066
:10358000410920009140780008c460000804a000b0
:103590008840780046092000014b7800e1092000ae
:1035a0009140780080c060000144a0008141780013
:1035b000e209200003497800f109200091407800d9
:1035c00000c060000044a0009fe0b7004f047800f6
:1035d00000000600889fbe0010be20000001880089
:1035e000c8448000d9448000a0448000b1448000d9
:1035f0000801be00a5f707000001be000800be00dc
:1036000087f8070030408800414088000e8aa800f3
:103610000e0aa90038ff070081e0a9008420ef000e
:103620008620ef008820ef00ff3ffc008c20ef0099
:103630008e20ef009020ef008c60a8008d20a80065
:103640008d40a8008f00a8008f20a8008c00a80043
:103650008e00a8008ee0a9008cc0a8008ea0a80053
:103660008ec0a8008d60a8008200a9008240a90039
:103670005220ef00a1e2a800c1e1a80011e1a800da
:1036800005e1a8001fe1a80021e1a8000de2a800c3
:103690000f42a80017e2a8001942a80080ff2f00df
:1036a0000c0ab6000010a000605088004f04be0055
:1036b0000000060010ff0700ff3ffc008420ef0021
:1036c0008620ef008820ef008c20ef008e20ef0096
:1036d0009020ef008d20a8008d40a8008f00a8004a
:1036e0008f20a8008ea0a8005220ef00a1e2a90020
:1036f000c1e1a90011e1a90005e1a90013e1a900b8
:103700001fe1a90021e1a9000de2a8000f42a800d5
:1037100017e2a8001942a80000000600dc42a90038
:10372000e1406000dcc2bf000004a1000140700065
:10373000dce2b700d622a900d642a900d662a900d1
:1037400000000600dc42a80080407800f1c0b20012
:10375000e1c06000dcc2bf000004a10001407000b5
:10376000dce2b700d622a900d642a900d662a900a1
:1037700000000600889fbe000004be00020020007a
:10378000e32b2400e0f607000000e0000300340013
:10379000f0c0b300ebff07002f003700020020004d
:1037a000632924000800be00d7f607000000e000ef
:1037b0000300340070c0b300e2ff070026003700aa
:1037c00002002000832424000800be00cef607007b
:1037d0000000e0000300340030c0b300d9ff070050
:1037e0001d00370002002000831c24000800be00da
:1037f000c5f607000000e0000300350010c0b3006c
:10380000d0ff07001400370002002000831c2400b2
:103810000800be00baf607000000e0000c003d0002
:103820000fcabf000028a30009003a0012cabf0057
:103830000028a3000300320010c0b300c1ff07003e
:10384000050037000040eb00beff07000200370014
:103850000040eb00bbff07004f04be000000060065
:103860000004e0004a003400e34f500003003a0037
:1038700060c0b300b3ff070047003700d1842000c9
:1038800091407800e2cf50003a003400e14f500000
:103890003c003a004d68ef000fcabf000018a300bb
:1038a0000900320012cabf000038a3000300320032
:1038b00020c0b300a3ff0700370037000040eb0033
:1038c000a0ff0700340037000fcabf000028a30084
:1038d0002400320012cabf000008a3000d0032000d
:1038e00034c8bf00e64f5000030032000dcabf00cd
:1038f0000018a30007003200c04c8000d14c8000ab
:1039000002002000831c2400e0f6070099ff070056
:103910002100370012cabf000018a3000d003200ba
:1039200034c8bf00e64f50000a0032000dcabf0085
:103930000018a30007003a00c04c8000d14c800062
:1039400002002000831c2400d0f6070089ff070036
:1039500011003700c04c8000d14c800085ff07006b
:103960000d003700c04c8000d14c800081ff070063
:10397000090037008140e80001417800d084200030
:10398000024878004ec8bf0064ff070002003700fd
:103990000040eb0061ff070000000600110020005e
:1039a000f21f2000820f500022003c00ff3ffc006d
:1039b0009209200012417800f1c8b30081406100f3
:1039c000814178009209200003497800811f780026
:1039d0000000400001c02f0001004000f10720005e
:1039e000213b8800103b880041042400013b8800f3
:1039f00051052000313b8800a10a2000313b88009e
:103a000061e7a8000000000000000000cf0078007f
:103a10006147e20004003d000000eb0090028800d6
:103a20006147e200fdff350000c7b3009960b700b1
:103a30008000eb000100780000000600889fbe00b7
:103a40000004be0008007800d4ff0700100020002a
:103a5000f11f2000810f540026003c00ff3ffc00b6
:103a60009109200091407800f0c8b30000c06000c8
:103a700099e0b700801f7800811f7800821f7800ce
:103a80000804440000c02f0000044400f0c7b30045
:103a900032e0b70029008800080088000208bb0057
:103aa00041002400013b880051052000313b880083
:103ab000a10a2000313b880061e7a8000000000057
:103ac000000000004f017800cf0078004f00780020
:103ad0006147e20004003d000000eb009002880016
:103ae0006147e200fdff350000c7b3009960b700f1
:103af0000000eb004f04be00000006006ee8b700b7
:103b000081438800ff3ffc0091092000914078002c
:103b1000f0c8b30000c0600099e0b700841f7800cf
:103b2000801f7800e186200091407800200320006b
:103b30000148780081438000010088001082ba00ab
:103b400000000000000000004000800040438800aa
:103b5000e186200091407800200320000148780091
:103b600081438000010088001002ba0000000000bc
:103b70000000000040008000604388004f00780093
:103b80004f02780000c7b3009960b7005220ef00e1
:103b90006043800000000600800078000000eb0019
:103ba000f21f2000828f500005003c0000e027003b
:103bb0008080400081804000f0c7b300cfff070045
:103bc00000000600889fbe008a9fbe007228ef009a
:103bd0000004eb00fa0f2000ebff230088007800c0
:103be0000040eb00c5ff07008004780088007800e3
:103bf0000040eb00c1ff0700800078008a84640069
:103c00009043800000804400c808de006808b400cb
:103c100081004000914388000884e8008b0f540025
:103c2000eeff3a00890f2000fb0f20001300370041
:103c30008800780009407800b0ff07000005780090
:103c40008800780009407800acff07000b0565008c
:103c500091438000010545004800de000005450055
:103c60009a4388000884e800e20f4400f0ff3a001d
:103c70008904e8008b8f5400020032000004eb003e
:103c8000ebff37004a1ab0009a4388004f05be0088
:103c90004f04be0000000600caff070090438000ea
:103ca000c047880000000600889fbe008a1f780079
:103cb0007428ef000004eb00fa0f200008007800e1
:103cc000b5ff07008004780008007800b2ff070005
:103cd0008a846400a1438000818444004800de009f
:103ce00080844400a94388000804e800e01f200005
:103cf000800f5400f1ff3a004f0578004f04be00da
:103d000000000600e8ff0700a1438000f01f20002c
:103d10004aff070000000600881f78003b48e200c9
:103d20000d0034000004eb0008004400c1942000a2
:103d3000e10078003ac8bf000000fb00000044002a
:103d40003eff07000804e8003bc8bf000000fb007e
:103d5000880f5000f4ff3c003ac8bf000000fb0091
:103d60004165270035ff0700b183200091407800ae
:103d70008100fb003ac8bf000000fb00008040004b
:103d8000514280002dff0700deff07000ceaa9006a
:103d90004f047800000006000040eb00b0fe070072
:103da000204f8000314f8000d04a8800e14a8800cf
:103db000404f8000514f8000f04a8800014b88003e
:103dc000604f8000714f8000104b8800214b8800ad
:103dd000804f8000914f8000304b8800414b88001d
:103de000cdff0700e202a90000000600881f78004e
:103df0003a48e2000b0034000004eb0008004400e5
:103e0000e1882000e1007800080078000bff07003f
:103e10000804e8003ac8bf000000fb00880f50000b
:103e2000f6ff3c00715624000000eb0003ff070082
:103e3000b4ff07004f04780000000600889fbe0012
:103e40008a1f78007628ef003a48e200120034001a
:103e50000004eb00fa0f2000080078004eff070076
:103e600080047800080078004bff07008a84640013
:103e7000b1438000818444004800de008084440017
:103e8000b94388000804e8003ac8bf000000fb00fe
:103e9000880f5000f0ff3c004f0578004f04be0033
:103ea000000006007828ef00a2832000124178006d
:103eb0000204e0000f0034008000eb0001007800f5
:103ec000f60f20008202fb0080014000e488200001
:103ed0006481790086016100818041004811de0023
:103ee000828040000000e800808f5200f6ff3c0016
:103ef000c143880000000600eaff0700c0438000bd
:103f0000d0438800000006009428ef00802c240095
:103f1000b04488009828ef0000122400d0448800a4
:103f20006000b800e0448800f14488000045880043
:103f300011458800204588003145880040458800ab
:103f400051458800606626006045880060f62300c1
:103f500070458800305c2f00804588008008240070
:103f60009045880060662600a0458800600824000f
:103f7000b0458800d0cc2c00c0458800c004240087
:103f8000d0458800a0992900e045880090012400d0
:103f9000f0458800c028ef0000002400104688008b
:103fa000c428ef0000f8230030468800c828ef003e
:103fb00000f02300504688006066260060468800b6
:103fc0006002240070468800d028ef000010240012
:103fd00090468800d428ef0080102400b046880066
:103fe000007d2000d0468800a0002000e046880028
:103ff000f1002000f146880082022000024788007c
:1040000032022000124788009201200022478800d7
:10401000e628ef00404788007203200052478800de
:10402000220320006247880071478800c1032000f6
:10403000814788000105200091478800a04788003b
:1040400080072000b0478800fa68ef00fb68ef00a7
:1040500060c4b30091e9b700a7ff070000000600a5
:10406000e6874700889fbe008a9fbe008c9fbe00e7
:104070008e1f78003ec8bf000b003a003748e200b0
:1040800009003a0010c0b30037e8b70081ff2f00e5
:1040900062508000828060003100b300615088006f
:1040a0003ee8b7006c003700718320009140780033
:1040b000e5cf500005003a00e14f500003003c00fe
:1040c0000040e8003ee8b70063003700e24f5000d0
:1040d00061003a000ccabf000068a3005e00320015
:1040e0003ac8bf000000fb000000e800aafe07007d
:1040f00041652700810f500043003a009c4a800030
:10410000ad4a80000200200003f823000c00be002e
:104110007df407000000e0003b003400009e20001a
:1041200080bf9f000007eb000a0020008b2c2400ba
:1041300042002000f2b79f000fb897005004be0065
:1041400080bf9f000a01be000800be006cf407009b
:104150000000e00002003d000805be00feb79f0021
:104160000e07e800e40f5700f3ff3a007fb0970016
:104170004201dd00a3952000830141001300780077
:1041800093009000439e2000028141001201be0076
:10419000b5f4070002002000832c2400a0f50700de
:1041a0000001be000c00be007cf6070058f40700ba
:1041b000cf80de0092f407000004be00704b800048
:1041c000814b80000801be00a7f40700704b8800f7
:1041d000814b8800b04a8000c14a80000801be00bf
:1041e000a1f40700b04a8800c14a8800504b800003
:1041f000614b80000801be009bf40700504b880013
:10420000614b88000e0037006846800079468000c8
:10421000984a8800a94a880002002000832c2400c4
:10422000a04f8000b14f80007df507000001be0067
:104230000800be0059f60700704b8800814b8800cb
:1042400030c0b3003ee8b70080ff2f000c0ab60074
:104250000010a000605088004f0778004f06be0095
:104260004f05be004f04be006f00b1000000060005
:104270000f2aa800664c80000600e0001200320001
:10428000060278008000eb008042eb0017c0b3000c
:104290007681400002014100c3942000630179004f
:1042a000820f500001003a00874278008100e80048
:1042b000848f5000f6ff3a00e90f53000c003e00d7
:1042c0000504e00011003a0061072000810f500052
:1042d0000e003e00f600430081804000c2942000a2
:1042e00000b178000603e800664c8800070037003c
:1042f0000504e00005003a0061072000810f50002e
:1043000002003e00b0002000604c88000000060063
:1043100040c7bf000018a300030032004027a900d7
:1043200030012000d2ff070040c7bf000048a300b3
:10433000030032004087a90040012000ccff0700a5
:104340004147e20003003d0041e7a9005001200081
:10435000c7ff070041c7bf000068a3000300320089
:1043600041c7a90060012000c1ff07004047e200eb
:1043700003003d0040e7a90070012000bcff0700da
:1043800040c7bf000068a3000300320040c7a90077
:1043900080012000b6ff070090012000b4ff070055
:1043a0000c4ae20001003d005bfe07000000060031
:1043b00050a52a00e60ae30001003a00d4ff0700f6
:1043c00050a52a00305788000000060036fe07007e
:1043d000f01f2000f0fd0700800078000000eb00d7
:1043e000a2438000810f510008003200a00220008b
:1043f0009fff07000eaaa80080ff2f000c0ab6003e
:104400000000a0006050880010002000000006009e
:10441000889fbe00edff0700800078000000eb00e1
:104420000100e00018003a003bc8bf000000fb009c
:104430004240a9000d0034000004eb00c9942000a4
:104440003ac8bf000000fb0000004400d2fd070096
:104450008800440080b478000804e8003bc8bf002e
:104460000000fb00880f5000f5ff3c00a1832000f6
:10447000914078008100fb0001004000c6fd07006c
:1044800050428800100020004f04be0000000600cb
:104490003ac8bf000000fb00bffd070041652700d0
:1044a000810f500001003a00d9ff0700000006000c
:1044b000d1a02000914078000000eb000108a3008b
:1044c00011003a000d0aa800befd070090438000cd
:1044d000f808e3000a0032009002200064ff0700a1
:1044e0000eaaa8000d0aa90080ff2f000c0ab60032
:1044f0000000a0006050880010002000020037007b
:104500000d0aa9000000eb000000060065fe070090
:104510004afe07000000eb00b1438000c243800068
:10452000810f510008003200c002200050ff070038
:104530000eaaa80080ff2f000c0ab6000000a00001
:10454000605088001000200000000600889fbe0018
:104550009eff0700800078000000eb000100e000f3
:1045600014003a003a48e2000b00340000047800de
:10457000e98820000800780087fd070088004400d3
:1045800080b478000804e8003ac8bf000000fb00cf
:10459000880f5000f7ff3c00dcff07008000780028
:1045a0000000eb000100e00002003a0052fe0700ac
:1045b000100020004f04be000000060039fe070076
:1045c0000000eb00d1438000c2438000810f510006
:1045d00003003200b002200025ff07001000200079
:1045e00000000600881f780000047800e10f5400e6
:1045f00007003400a00120001dff0700080444004c
:10460000c0a1200008044000000ceb000b003700a4
:10461000c085200060407c000004e00007003200fc
:104620000800e000030032008002200010ff0700b5
:1046300002003700700220000dff07004f047800d1
:1046400000000600ec874700889fbe008a9fbe00de
:104650008c9fbe008e1f78000005be0082bf9f00a9
:1046600002004100c1a12000808040000000eb005a
:1046700080087800c210dd00028520008100410022
:104680006011b8008288be00a18520000fba970093
:1046900080707a006720b90005c2b30084a22000b0
:1046a000057278000a00be0015f307000000e00064
:1046b00006003d000bf0a2000fb997006710b9008b
:1046c000d3c2b30082a2200003717800f2ff23005e
:1046d000c36124000a00be000bf307000000e000e5
:1046e0009c0034000fba97006720b900f3c3b300f1
:1046f00082a22000037178004220dd0001852000a5
:1047000000804000f2ff2f00f31124000288be0059
:104710000400420012002000c1a120008230780075
:10472000faff2300cb61240098003700e50f570003
:1047300004003a00e1c2b3006fb09700014878006e
:104740006e0020000800be00f1f20700004578006e
:104750007fb197000e00410084a2200000004200bb
:1047600001c3b300014845000e07e8000a00fb0042
:10477000cf80de0022f307000001be000800be006b
:1047800039f307000c01be0004f507000004be0069
:10479000e80f5700e5ff36000a4678004fb597004e
:1047a000dfb597000fb997004210dd0001852000aa
:1047b000008040000888be00a08520000c707900b1
:1047c00002004100c1a12000008040000008eb0071
:1047d0000200780083ff070011c0b300e0852000cd
:1047e0000fba970001707a0004004200cea12000a9
:1047f000000747006720b9008006780009c3b300ae
:104800002e0037000804e80050467800894f560013
:1048100002003200080f780003003700e20f540056
:10482000f8ff3600080f7800008620008fb8970048
:1048300060c078000004e0000e00320000c2b30047
:10484000804f560005003200d0c2b300804f5600a2
:1048500003003a000100780080fa07001e0fe8000c
:104860008040eb00008620000fb9970001707900ae
:10487000030037000fb8970078fa07001e0fe80012
:104880001e80460081a2200061407800894f5000c0
:104890000a003200d1c2b300814f5000070032003d
:1048a00001c2b300814f5000040032008040eb0091
:1048b000808520000fba970001707a001e047800ee
:1048c000e80f540017003e000880460081a2200037
:1048d00061467800894f5600d3ff3a00808520005a
:1048e0008fb8970060c078000004e000ceff3a0067
:1048f000e20f5400ccff3e0002002000a34724003a
:104900000a00be007ef207000000e000c6ff3d0086
:104910008800e8008180460070a2200000804000ee
:10492000b8ff37000040eb00818520000fb99700e9
:1049300080707900e1852000807079004f07780051
:104940004f06be004f05be004f04be00cf00b100b1
:10495000000006000fba97004220dd000885200005
:104960000004440002002000a34724000a00be0007
:10497000abf30700008cbe008fb8970001804000a9
:1049800012002000c1a12000823078000fb99700ea
:1049900002004100c1a12000610778004210dd0043
:1049a00001852000008040001004be006710b9009f
:1049b00000027800f4b79f000c0020000d122400c4
:1049c000d0a2200000004200e0b79f00cab79f00bd
:1049d000dbb79f005bff3700889fbe008a1f78000f
:1049e000800478000104780008007800fdfe0700cc
:1049f00011c0b300e085200001707c000800440075
:104a000081a12000008040000008eb0019407800e0
:104a10000004e000220032008800440042a120008f
:104a2000e2807800c203200002c1b9000281400088
:104a300063a3200080717900a0032000808f5000c4
:104a400017003e008000eb000800440043a1200056
:104a50008081410085a12000808242006aa320005d
:104a6000c703200007c3b90086037800a60320000f
:104a7000040037000082430002757a00860f500060
:104a800007003e001300e800800978008100e8007c
:104a9000810a7800594178000204e000f5ff3a00ed
:104aa0008040eb00e085200001707c004f0578001d
:104ab0004f04be0000000600889fbe008a9fbe0013
:104ac0008c1f7800010478000801440063ad2000c9
:104ad000828141008000eb0081097800e3ac200076
:104ae00002814100010978006601b9007842b900ed
:104af00082054200880444002aad200009054500d3
:104b00004ca1200009064600818045006108b000e4
:104b1000e088200060c078000080fb00000d780075
:104b2000ea0f500003003e0012c0b30001862000cf
:104b300082707c00eb0f500004003a0012c0b300fa
:104b40008185200082707c00270037000000e00093
:104b50004c003200b10f2000810f500022003600bf
:104b6000d10f2000810f50001000320004003e00e1
:104b7000c10f2000810f500017003a0007003700d6
:104b8000e10f2000810f50000c003200f10f2000d7
:104b9000810f500010003a000c00370088007800a8
:104ba000c08f20008cff07000b00370088007800c2
:104bb0002090200088ff0700070037008800780059
:104bc0008090200084ff07000300370088007800f1
:104bd000e090200080ff07001100200060ad200061
:104be00001b07c0021003700f50f50001f003e008f
:104bf000f40f5000070032004200dd004199200010
:104c00000101400012007800920090000801780035
:104c10008cfe07009c80e900010e78001a007800e5
:104c2000e10f500002003200eb0f500001003a008b
:104c3000018ee90000004000c14f290061007800aa
:104c40008800780064ff0700000120009a0f100020
:104c50000300320088007800e01e29005eff070094
:104c60001100200060ad200001b07c00e0ac20000d
:104c7000090040009000e80001087800e58f50002e
:104c8000a1ff36000800440061ad200061007800fb
:104c90000000e000020032000800780058f9070028
:104ca0004f0678004f05be004f04be00000006000e
:104cb000889fbe0080047800c006200009004000e4
:104cc000e1882000614078000004e00036003200f6
:104cd000c085200060c07c000004e00032003a0083
:104ce0000ccabf0067406000e54f50002e003a003c
:104cf000a0ad200060c07c000004e00027003a0066
:104d000009804400a8ac2000000444008900780019
:104d10001800780068ff070018007800c248dd001e
:104d200080804000610bb000e2882000e2c0780083
:104d30008140e900a2ad200001f17c0003003b00ae
:104d40000041eb00a1ad200082f07c00e30f500099
:104d50000d003e006601b900784ab90082004200a9
:104d60006108b000e2882000e2c078000104e000a1
:104d70000500320089844400a1ac200089804000f5
:104d80008008e8000800370089844400a0ac2000b7
:104d9000090040000008eb00030037000040e90074
:104da000a1ad200080f07c004f04be000000060092
:104db000881f7800010478008800780006ff07004b
:104dc000080078000ef907000800780064f8070072
:104dd0004f04780000000600889fbe008a9fbe0036
:104de0008c1f7800800478000104780002067800a7
:104df000030578008a007800001f2900ecff0700f7
:104e00008c0f54000d003c008805e900c25ddd00f8
:104e10008b854400091f29000a0178005b00be0051
:104e200008fe07008a00780009007800eafe070003
:104e30000804e800880f5600f7ff3d008a0078005c
:104e4000301f2900daff07004f0678004f05be002b
:104e50004f04be0000000600889fbe008a9fbe006f
:104e60008c1f780000067800010478008205780025
:104e70008304780089007800001f2900ccff070018
:104e80008b0f54000f003c000805e9000a0545009f
:104e90000a0546000c1f29005a007800cf80de006a
:104ea00057f1070009017800e6fd07008900780046
:104eb0000c007800c8fe07000804e800888f550041
:104ec000f5ff3d0089007800301f2900b8ff07007a
:104ed0004f0678004f05be004f04be0000000600dc
:104ee000881f78000004780088007800301f2900af
:104ef000afff070088007800601f2900acff0700a3
:104f00008800780020212900a9ff07008801780087
:104f1000620020001100200000892000aeff070081
:104f200088007800301f2900a1ff07008800780062
:104f3000c02429009eff070088017800c2002000dd
:104f40007100200000892000a3ff0700880078007e
:104f5000301f290096ff070088007800602829008c
:104f600093ff07008801780012012000d100200083
:104f70000089200098ff070088007800301f290072
:104f80008bff070088007800602b290088ff07004e
:104f9000880178006200200011002000808d200030
:104fa000adff070088007800301f290080ff070050
:104fb00088007800202f29007dff070088017800f5
:104fc000b200200071002000808d2000a2ff0700a9
:104fd00088007800301f290075ff070088007800de
:104fe0002032290072ff070088017800f2002000bb
:104ff000c1002000808d200097ff07008800780006
:10500000301f29006aff07004f04780000000600e7
:10501000889fbe008a9fbe008c9fbe008e1f7800b6
:105020008004780001047800080078006dfd070016
:105030004240dd004c49de0001a220008270780071
:1050400011a220000100400001f0200081806400d6
:10505000c888de00014878004240dd0021a220001f
:105060000080400089007800010fb200c488de0093
:1050700001487800c240dd0030a2200000804000de
:105080006fc8640011c0b300e085200001707c008f
:105090000800440041a1200061007800c203200004
:1050a00002c1b9008200400003c3b30062a3200024
:1050b00003f17800a1032000810f500004003e009e
:1050c0008800440042a12000810041008008e800df
:1050d0000800440041a1200061007800c2032000c4
:1050e00002c1b9008200400083c7b30062a3200060
:1050f00003f17800a1032000810f500004003e005e
:105100008800440042a12000810041008008e8009e
:105110004240dd00faa120000a0540003ca2200028
:1051200000064600080044004ba120008085450091
:105130006da32000c003200000c0b9000007780064
:105140009b0478005a00fb0026f8070089004700fe
:1051500080f67800a0032000808f540001003e00fc
:10516000890de8008c0f5500f5ff3a008040eb00f8
:10517000e085200001707c004f0778004f06be00dc
:105180004f05be004f04be0000000600889fbe0011
:105190008a9fbe008c9fbe00000578008a007800c0
:1051a0008034290002ff0700604c8000ea0f5000a5
:1051b000030036008a007800c0352900fcfe070095
:1051c0008c09e20004003a008a007800e0362900e9
:1051d000f7fe07002f0037000a00450061ac2000f1
:1051e000008040000008eb000b3829000a00450051
:1051f00068ac2000000444005c072000ad73290067
:105200000a00780056f707008a0078000b00780043
:10521000f1fd070098007800768040000000400013
:10522000c9942000690078008a00780078ff0700a0
:105230008a00780070382900e7fd070098007800a0
:105240007680400000004000690078008c0f50001c
:1052500006003e000000e900000040006d007800fc
:105260008a007800dcfd0700030037008a00780020
:1052700020732900d8fd07008a007800301f29001c
:10528000cbfe07001800e800000c78008c09e30052
:10529000dbff3e000a00780031f707008a00780043
:1052a000301f2900c2fe07008a007800c03829009c
:1052b000bffe07008a007800803c2900bcfe070082
:1052c0008005eb00d83d2900293d29004a88ab0024
:1052d000040032008a00780009007800befd070053
:1052e000030037008a00780008007800bafd070044
:1052f0008b05e800e58f5500f4ff3a008a0078003e
:10530000301f2900aafe07004f06be004f05be0051
:105310004f04be0000000600889fbe008a1f780070
:105320000004780008004400e9aa200080844400ba
:105330002aab200000054500250037000800e000ea
:1053400008003200e01080006641b9009900410079
:1053500062ab200000f178000000fb00d010880054
:10536000060037009010800062ab2000715580006d
:1053700000f178000000fb00801088001900780020
:105380006641b9008200400062ab2000e2c07800b4
:10539000edcf500002003200eacf500009003a0081
:1053a00088007800301f29008bfd0700190d780058
:1053b000800ceb0011c0b3002086200001707c003f
:1053c00003003700e30f500001003e00800ce800ae
:1053d0000800e00004003a000ec2bf000008a3006d
:1053e00006003a000a003700e10f540008003a00b6
:1053f00018c2bf000008a30005003200208620006c
:1054000060407c000004e000ccff32000400370064
:105410002086200060407c000004e000260132006d
:1054200088007800803e29006bfd07008c09e200af
:105430000300320088007800a03e290066fd0700c6
:105440000ccabf0067406000e14f500003003a0003
:1054500088007800903f29005ffd07006640b90092
:105460000801440023ac20000281410012004000ea
:1054700061ab2000614078000000fb00cf80de00bf
:105480006a005000e080580042072000820f500060
:10549000e08f5800fb003e0000600100fc00370078
:1054a000f8003700f7003700f9003700f500370043
:1054b000f4003700f3003700f2003700f100370046
:1054c000f0003700ef003700ee003700ed00370046
:1054d000ec003700eb003700ea003700e900370046
:1054e000e8003700e7003700e6003700e500370046
:1054f000e4003700e30037008c003700e10037009c
:105500005b0037005c0037006c003700c0003700dc
:10551000dc003700db003700da003700d20037004c
:10552000d8003700d7003700d6003700d500370045
:10553000d4003700d3003700d2003700d100370045
:10554000d0003700cf003700ce003700cd00370045
:10555000cc003700cb003700ca003700c900370045
:10556000c8003700c7003700c6003700c500370045
:10557000c4003700c3003700c2003700c100370045
:1055800097003700bf003700be00370076003700b5
:10559000bc0037006b003700ba003700b900370095
:1055a000b8003700b7003700b6003700b500370045
:1055b0007b0037006f003700b2003700b1003700c2
:1055c00067003700af003700ae003700ad0037008e
:1055d000ac003700ab003700aa0037009500370059
:1055e000a8003700a7003700a600370045003700a5
:1055f000a4003700a3003700a2003700a100370045
:10560000a00037009f0037009e0037009d00370044
:105610009c0037004e003700970037009900370094
:105620009800370097003700960037009500370044
:1056300063003700540037009200370091003700b4
:10564000900037008f0037008e0037008d00370044
:105650008c0037008b0037008a0037008900370044
:105660008800370087003700860037002b0037009e
:105670000000fe008600370088007800e040290026
:10568000d5fc070088007800c047800060fe070056
:1056900088007800e0412900cffc070084fb070068
:1056a000880078009043800059fe07008800780049
:1056b000301f2900c8fc07007500370088007800fb
:1056c00080422900c4fc0700f01f200032f90700c7
:1056d000880078004efe070088007800e04129002d
:1056e000bdfc070039fb070088007800a04380005c
:1056f00047fe070088007800301f2900b6fc07002d
:10570000630037008800780080432900b2fc07005e
:10571000b6f9070080f907005d003700faf90700c5
:10572000b2f9070077f90700590037003ac8bf00ff
:105730000000fb0099f8070072f907000000fe0066
:105740005300370010c0b30090e9b7005000370095
:1057500050c0b30090e9b7006ff907004c00370064
:105760000e2aa8004a0037000800780087fe0700cc
:1057700047003700880078005045290096fc070054
:105780000c6aa8004200370088007800c045290054
:1057900091fc07003d68ef000c6aa9003c0037004f
:1057a00088007800404629008bfc070011c0b30038
:1057b000a08f200001707c00cff907003400370073
:1057c00088007800f046290083fc07008040eb0049
:1057d000a08f200001707c00c7f907002c00370063
:1057e0008c29ef000eaaa90090c9bf00e54f500018
:1057f000010032009069ef000ecaa90046f90700c7
:1058000088007800b047290073fc070020003700ab
:105810000ccabf0067406000e14f50001c003a0016
:1058200080ff2f000c0ab6000010a0006050880016
:10583000170037000eeaa900a0458000b14580009e
:10584000004d8800114d8800dbc2bf000008a30096
:10585000020032008e29ef000d003700a00020006a
:10586000704c88000a00370088007800f048290052
:1058700059fc0700060037000800780098fd070073
:105880000300370088007800e049290052fc070037
:1058900088004400e2aa2000010141000000eb0062
:1058a000000978002286200000717c0022ac2000d4
:1058b00081004100800878000800780050f6070059
:1058c0004f0578004f04be0000000600d621ef000f
:1058d0004428ef0030c0b300e8eab700dc2aef004c
:1058e00090c9bf00e54f50000200320040c0b30035
:1058f00090e9b70080ff2f000c0ab6000010a0004e
:1059000060508800d1e2a90000000600da21ef0013
:10591000d821ef00d621ef00e2c2a900d1e2a90010
:105920004428ef0000000600f8ff07000eaaa800b8
:10593000b00020004efa070000000600889fbe005d
:10594000684e8000794e80006011b8000800be00eb
:105950006bee07006011b8000000e00002003d009f
:105960000801be0003f0a20080468000914680003e
:1059700063ee07000000e00009003d0000448000e5
:10598000e50f500004003400e7ff07008028ef0017
:105990005000200036fa07008028ec000500370090
:1059a000004480000000e000020034000000e90034
:1059b00000448800684e8000794e80004046800098
:1059c00051468000624680007346800073f00700f5
:1059d0000001be000800be004bee07000000e00022
:1059e00003003400d0ff07006000200020fa070009
:1059f0000c4ae20001003d00c7f807004f04be005a
:105a0000000006000800fa00889fbe008a9fbe00c2
:105a10008c9fbe000200200003e023007040800045
:105a2000814080005df00700020020000370240028
:105a30008dee0700020020000380230057f00700ce
:105a40003233230033fd230054f00700020020000e
:105a50008314240051f00700a24f8000b34f800050
:105a60008aee0700604e8800714e88006000b80022
:105a700070408800814088000200200003e023007d
:105a800090408000a140800044f007000200200008
:105a90000370240074ee070002002000038023003e
:105aa0003ef007003233230033fd23003bf00700b4
:105ab000020020008314240038f00700c24f800049
:105ac000d34f800071ee0700804d8800914d880013
:105ad0006011b80092408800a340880097ff07003b
:105ae000384080004940800002c02c00c37c240064
:105af000e04f8000f14f800049ef07000801be0031
:105b000047ef07000005be006000b800e04f8800c6
:105b1000f14f880002c02c00c37c2400005080009c
:105b2000115080003eef07000801be003cef070067
:105b300080bf9f0091bf9f006000b80000508800a8
:105b40001150880002c02c00c37c2400205080002b
:105b50003150800032ef07000801be0030ef07002f
:105b60000006be006011b800225088003350880043
:105b700002c02c00c37c24004050800051508000a3
:105b800027ef07000801be0025ef0700e0b79f00e0
:105b9000f1b79f006000b800405088005150880065
:105ba0000fb997009fb997000c00be0037ee0700b1
:105bb0000a01be0035ee07000001be006fb097007d
:105bc000ffb0970028ee0700e2448000f344800015
:105bd0002eee0700a04d8800b14d88000a01be00de
