:020000040000fa
:080000000001040000000000f3
:020000040000fa
:04000c008405000067
:020000040000fa
:040010005605000091
:020000040000fa
:0400140028050000bb
:020000040000fa
:04001800fa040000e6
:020000040000fa
:04002400ce04000006
:020000040000fa
:04002800fe050000d1
:020000040000fa
:0400340022060000a0
:020000040000fa
:040040002603000093
:020000040000fa
:04004c00b2040000fa
:020000040000fa
:040050001802000092
:020000040000fa
:040054002c08000074
:020000040000fa
:04006800dc050000b3
:020000040000fa
:04007c0084020000fa
:020000040000fa
:040080006402000016
:020000040000fa
:0400880096040000da
:020000040000fa
:04008c00c8010000a7
:020000040000fa
:0400d400ba05000069
:020000040000fa
:10020000cfaf20000ebf20000e01880000000000cc
:10021000000020000000e000020032000001200089
:1002200020028800140007003b0407000000e000e3
:1002300003003a0040e023000100200002003700e4
:100240000000200001002000810f7000010032003a
:1002500014000700000020000000e000020032004f
:100260000000020000000000aa3d020000000000a3
:100270000040da000000fe004440a900a07a2000ff
:100280000000e0000300320000002000a001880010
:100290004440a800000006008a1f78008b1f7800e9
:1002a0000000060091018800800478000000eb0047
:1002b0001a003700e284440032a0b4009905ba0065
:1002c000e284440032a0b4009906ba00e2844400fb
:1002d00032a0b4000006eb00476fde00fd07b2005d
:1002e000636ce10003003a00ebff07000000eb0045
:1002f0000a003700606ce10004003a00005deb008a
:100300008b05e900fdff3e00040037006168e10055
:10031000010032000086eb000b00070019c7ba008d
:100320001905ba000e04e00003003a000a00e000dc
:10033000e0ff3a0000000600fe07b2009e018800c0
:100340008a047800f5ff3700395dba008b05e900b3
:100350000c003200295dba008b05e900080032006c
:100360000c00e00003003a00e284440032a0b40034
:10037000f5ff370019ddba008b05e900faff3a00f6
:100380008904e800e184440032a0b40000000600c3
:100390003600f800809fbe00829fbe00849fbe0092
:1003a000869fbe0019c2bf000018a30017003a00c4
:1003b00021518000c00320000100400042a4200021
:1003c000624078000004e000100032006348e20060
:1003d0000e00320002a82000028140000000fb0055
:1003e000d01088008100e80019c2bf000018a300e7
:1003f00005003a00524078000004e000f7ff3a00a0
:100400002151880001003700215188001000200090
:10041000850c07008720a9004f03be004f02be00d5
:100420004f01be004f00be003600f900004006003c
:100430003600f800809fbe00829fbe00849fbe00f1
:10044000869fbe000fc2bf000018a30015003a002f
:100450001151800040a4200060c078000004e0003a
:10046000100032006248e2000e00320042a4200078
:10047000028140000000fb00801088008100e8003d
:100480000fc2bf000018a30005003a0052407800d8
:100490000004e000f7ff3a00115188000100370026
:1004a000115188000000eb005f0c07008540a90097
:1004b0004f03be004f02be004f01be004f00be0002
:1004c0003600f900004006003600f800809fbe00ac
:1004d000829fbe00849fbe00869fbe000000eb008e
:1004e00034130700100020003213070086c0a90053
:1004f0004f03be004f02be004f01be004f00be00c2
:100500003600f900004006003600f800809fbe006b
:10051000829fbe00849fbe00869fbe0044c8bf006d
:10052000e24f50000e00340021cabf000048a30073
:10053000040032003e68ef0030c1b300f9eab700b2
:10054000120037000190200091407800e0832000e5
:1005500001487800b0c3b300f9eab7000b003700d8
:10056000f94ae20008003c00b0c3b300f9eab70062
:100570003e48e20002003c00202aa80003003700a9
:100580003e68ed0001003700f96aed00104480007c
:1005900081702000810f50000b003a004184200040
:1005a00091407800e1cf500007003400f7100700b9
:1005b000e10f500002003a0010c0b30044e8b70059
:1005c0008228ef0006003700418420009140780027
:1005d000e1cf5000020034000000e8001044880021
:1005e00044c8bf00e34f50001100320044c8bf00b0
:1005f000e14f50000e0034008208e2000c0032008f
:10060000181107000000e00009003200ac160700d6
:1006100020448000e40f50000300340010c0b300f9
:1006200044e8b700020037000000e80020448800da
:1006300086a0a9004f03be004f02be004f01be00be
:100640004f00be003600f900004006003600f800fa
:10065000809fbe00829fbe00849fbe00869fbe001a
:10066000889fbe008a1f78005268ec001ecabf0037
:100670000008a3000400320039c8bf00e14f500059
:1006800001003c003968ec00584f8000694f800041
:100690006011b8000800be00220307000000e0005f
:1006a000160034001ecabf000008a3001300320069
:1006b000b04e8000c14e80002e0b07000001be002e
:1006c0000800be00150307000000e0000b003d001d
:1006d0005008ab000900320038c8bf00e84f500096
:1006e000050034001e0aa900f002200021100700b6
:1006f00020caa800010037003868ec000004eb00b5
:10070000c99920004a0020004241dd002202b000c9
:10071000028144001200780092009000324680006e
:1007200043468000fd0207000000e00006003d0097
:100730005008ab00040032001e0aa9000a0078002d
:100740000c10070020caa8000804e800e40f5400b9
:10075000edff3a00104f8000214f8000924d800045
:10076000a34d800014050700704e8800814e88005c
:100770003ac8bf00e74f500010003c00e240800044
:10078000f3408000b04e8000c14e80004603070059
:10079000e0408800f1408800024180001341800061
:1007a000304d8000414d80003f030700004188002c
:1007b000114188003a68ec001d003700e0408000dd
:1007c000f14080000200200003e02300fa0407004b
:1007d000e0408800f1408800e0408000f140800067
:1007e000104f8800214f8800004180001141800097
:1007f0000200200003e02300ef040700004188000e
:10080000114188000041800011418000904d880016
:10081000a14d88006000b8000041880011418800a7
:10082000e0408800f14088003a68ef00d8160700e1
:10083000104f8000214f8000924d8000a34d80001a
:10084000dd040700cb0a07000004be00704d8000e5
:10085000814d80000801be00b00207000000e000ea
:1008600002003d00784d8800894d8800b84e800018
:10087000c94e80000800be00be0a0700f226210013
:1008800033b02300a70207000000e000110034008d
:1008900012052a00138123000800be00c6040700c9
:1008a0000004be00a04b8000b14b80000801be00d8
:1008b000fd020700a04b8800b14b8800c24b8000ae
:1008c000d34b80000800be00f7020700c04b880031
:1008d000d14b8800f7cabf0000404000f7eab700dc
:1008e000f7cabf00e84f50000700340010c0b30043
:1008f000f7eab7001e4ae20002003d001eeaa90026
:10090000010037001eeaa80084c0a9004f05780046
:100910004f04be004f03be004f02be004f01be0099
:100920004f00be003600f900004006003600f80017
:10093000809fbe00829fbe00849fbe00869fbe0037
:10094000100020003e1707008700a9004f03be00db
:100950004f02be004f01be004f00be003600f9003e
:10096000004006003600f800809fbe00829fbe0057
:10097000849fbe00869fbe000000eb00301707007a
:100980008520a9004f03be004f02be004f01be00ec
:100990004f00be003600f900004006003600f800a7
:1009a000809fbe00829fbe00849fbe00869fbe00c7
:1009b000f913070020caa800100120006d0f0700de
:1009c000510e070010c0b30044e8b7008420ef00c8
:1009d0008620ef008820ef00b31507004f03be000c
:1009e0004f02be004f01be004f00be003600f900ae
:1009f000004006003600f800809fbe00829fbe00c7
:100a0000849fbe00869fbe00e313070020caa80093
:100a100000012000570f07003b0e070010c0b30075
:100a200044e8b7008420ef008620ef008820ef0024
:100a30009d1507008080a9004f03be004f02be0035
:100a40004f01be004f00be003600f9000040060016
:100a50003600f800809fbe00829fbe00849fbe00cb
:100a6000869fbe00e0bf200000018800ca13070077
:100a700010c0b30044e8b70020caa800f00020006e
:100a80003c0f07008420ef008620ef008820ef0055
:100a90008040a9004f03be004f02be004f01be00c0
:100aa0004f00be003600f900004006003600f80096
:100ab000809fbe00829fbe00849fbe00869fbe00b6
:100ac000e0bf200000018800b313070010c0b3008e
:100ad00044e8b70020caa800e0002000250f070066
:100ae0008420ef008620ef008820ef008060a900be
:100af0004f03be004f02be004f01be004f00be00bc
:100b00003600f900004006003600f800809fbe0065
:100b1000829fbe00849fbe00869fbe0042c7bf006a
:100b20000058a30004003a00204ae2000200350009
:100b3000200120000f0f07009713070020caa8000c
:100b4000204ae20002003d00d0002000090f07000b
:100b500020eaa800ec0d07008020a9004f03be008a
:100b60004f02be004f01be004f00be003600f9002c
:100b7000004006003600f800809fbe00829fbe0045
:100b8000849fbe00869fbe008313070020caa80072
:100b9000c0002000f70e0700db0d07008960a900e8
:100ba0004f03be004f02be004f01be004f00be000b
:100bb0003600f900004006003600f800809fbe00b5
:100bc000829fbe00849fbe00869fbe0072130700f6
:100bd00020caa80090032000e60e0700ca0d0700f7
:100be0008600a9004f03be004f02be004f01be00a9
:100bf0004f00be003600f900004006003600f80045
:100c0000809fbe00829fbe00849fbe00869fbe0064
:100c10006113070020caa800a0032000d50e07001a
:100c20005028a800b80d07008400a9004f03be009b
:100c30004f02be004f01be004f00be003600f9005b
:100c4000004006003600f800809fbe00829fbe0074
:100c5000849fbe00869fbe00889fbe008a9fbe0004
:100c60008c9fbe00a1e2a800184f8000294f800091
:100c700090468000a1468000b2468000c3468000b6
:100c8000cd0307000200200003f42300ca0307007d
:100c90000001be000800be00a20107000000e00045
:100ca000020034001eaaa800010037001eaaa800f6
:100cb000f8458000094680001c0020008005eb00fc
:100cc000cd992000010037000c06e8000c05e90072
:100cd0004251dd002202b00002814600120078007d
:100ce000920090000801be008e0107000000e000a5
:100cf00013003500e10f55000b00320003003c00eb
:100d00000a00e000060032000d003700e20f550037
:100d100007003200e30f550009003a0006003700d3
:100d20000b00a000e8ff37000b10a000e6ff370023
:100d30000b20a000e4ff37000b30a00002003700ba
:100d4000e30f5600e0ff34008b4078004085200020
:100d5000014878000ec2bf000018a3000a0032004c
:100d6000d0022000830e07000ec2bf000008a300bf
:100d700004003200901080000ec2bf000008a300e3
:100d8000fcff3a000e22a90018c2bf000018a30001
:100d90000a003200e0022000760e070018c2bf00f1
:100da0000008a30004003200e010800018c2bf0059
:100db0000008a300fcff3a001822a9003a1507001a
:100dc00066180700001a070044c8bf00e24f500031
:100dd00003003c00100020004044880020caa90005
:100de000a04b8000b14b8000620907000004be00e8
:100df000004b8800114b88001ecabf000038a300ba
:100e00004c00320043c8bf00e34f500049003a0095
:100e10000006eb000a0020008b2c2400ed9e200031
:100e20004260dd00008046001000be000a01be00e6
:100e30003a0107000000e00003003d004260dd00d1
:100e4000008046001005be000c06e800e40f5600c6
:100e5000f3ff3a0002002000632c24000a00be00c9
:100e6000300107000000e0000c003400f8cabf00a9
:100e7000e24f500009003200e04a8000f14a800051
:100e8000c04b8800d14b880020c0b300f8eab700ff
:100e90007429ef007629ef001300370002002000cc
:100ea00003f823000a00be001c0107000000e00058
:100eb0000d003d00f8cabf00e24f50000a003a00a2
:100ec000e84a8800f94a88006000b800c04b8800f2
:100ed000d14b880014c0b30083af20008449780050
:100ee000a04b8800b14b8800c04b8000d14b8000e4
:100ef0006011b800090107000000e00002003d0099
:100f00007829ef007a29ef00e84a8000f94a80004a
:100f1000c04b8000d14b80000801be0001010700da
:100f20000000e00002003400c84b8800d94b880064
:100f30001e6aa900ea4a8000fb4a8000c04b80007c
:100f4000d14b80000a01be003c02070002002000d5
:100f5000832c240018030700104d8800214d8800c1
:100f6000184f8000294f8000f2282c0053c723001f
:100f70000800be00eb0007000000e0002b0034007a
:100f80001ecabf000018a30028003200ec4b8000ee
:100f9000fd4b800002002000135624000800be0014
:100fa000260207000001be000c00be003e01070043
:100fb0000001be00e04b8800f14b88000a00be0033
:100fc000d60007000000e00018003c007c29ef007c
:100fd0007e29ef00004c8000e10f4000020032004b
:100fe0000000e800004c8800204780006500b90040
:100ff000cf80de00090107000001be0000002000d4
:1010000001f823000d0207000001be0000002000cf
:1010100001f823001b0107000001be000a00be000a
:10102000e5020700e04a8800f14a8800a90d0700a0
:101030008460a9004f06be004f05be004f04be00ed
:101040004f03be004f02be004f01be004f00be0066
:101050003600f900004006003600f800809fbe0010
:10106000829fbe00849fbe00869fbe00889fbe00f8
:101070003bc8bf00e74f500071003c0020cabf00d2
:101080000038a3005900320000148000484080005e
:10109000594080008000eb00e30007000801be001b
:1010a0000101070040408800514088001014800072
:1010b00068408000794080008000eb00da00070083
:1010c0000801be00f80007006040880071408800f9
:1010d00020148000a8408000b94080008000eb0010
:1010e000d10007000801be00ef000700a040880003
:1010f000b140880030148000c8408000d940800092
:101100008000eb00c80007000801be00e6000700f1
:10111000c0408800d140880038508000495080008d
:10112000401480008000eb00bf0007000001be00fb
:101130000800be00dc0007003050880041508800e5
:101140005850800069508000501480008000eb00ef
:10115000b50007000001be000800be00d200070075
:10116000505088006150880078508000895080007d
:10117000601480008000eb00ab0007000001be009f
:101180000800be00c8000700705088008150880029
:1011900098508000a9508000701480008000eb00ff
:1011a000a10007000001be000800be00be0007004d
:1011b00090508800a15088008014800088408000f2
:1011c000994080008000eb00970007000801be00f6
:1011d000b500070080408800914088005008ab00af
:1011e0001500320043130700130037006000b800f9
:1011f000404088005140880060408800714088006d
:10120000a0408800b1408800c0408800d1408800dc
:10121000305088004150880050508800615088004c
:10122000705088008150880090508800a15088003c
:1012300080408800914088003b68ec001f00370028
:1012400020cabf000038a300010032000e120700c0
:1012500020cabf000038a300010032009c0807002c
:101260003b68ef005008ab000700320020cabf0007
:101270000038a3000400320020cabf000068a300a9
:1012800001003a00ca1607005008ab000100320006
:10129000051a070044c8bf00e24f500006003c009a
:1012a00020cabf000038a30003003200a1e2a90059
:1012b000206aa90001003700206aa80044c8bf00c6
:1012c000e34f5000050034005008ab00030032002b
:1012d00010c0b300ea0a0700070037005008ab004f
:1012e00003003a0040c0b300e50a070002003700df
:1012f00020c0b300e20a07008560a9004f04be00c9
:101300004f03be004f02be004f01be004f00be00a3
:101310003600f9000040060000000500140020001f
:10132000ad033700f4ff2f00ab0337000001be0010
:101330003f0007000470a70003f0a1006509b10099
:10134000160032000d0035006828e1000600350067
:10135000f0ff2f00f1ff27000300e00013003b0027
:1013600001002800000005000000400081804800c6
:101370008502e900fcff3a0008003700f88f4200c0
:1013800002003c008000eb00000005008100d1005d
:101390000080d3008502e800fcff3a000300e00073
:1013a00002003b0060001000e08018000000060012
:1013b0000001be001e0007000470a70003f0a1009a
:1013c00003f8a30013003a006509b10010003200d1
:1013d000090035006928e1000200350001002800fd
:1013e0000000050000004000818048008502e900ff
:1013f000fcff3a0000000600f88f420005003500af
:101400008100d1000080d3008502e800fcff3a0093
:10141000000006008000eb00000005004f89de00a0
:1014200082017800870337006011b8009503370008
:10143000c70ade00f107b200f50fb2000800320063
:10144000e1cf4200020032000170a000240005003c
:10145000810f7000010032000408050044000500ff
:10146000810f700002003a00140005008502e900b7
:101470000000400081c04800fcff3b000170a0005c
:101480002400050007f82700078361000638e10003
:1014900004003a00f707200087836100870371008a
:1014a00001003a0003f0a200889fbe008a9fbe00a0
:1014b0008c9fbe00470ade000480a100c71ade0030
:1014c0000580a1000700280007856000878561006e
:1014d000f70f20000720e1009e0032000728e100fe
:1014e0009c003200010678000400e000b4003200e5
:1014f000f7072000878060000170a0000500e00071
:10150000c0003200f7072000878161000370a0004f
:10151000050652000f003a000b50e1000b003200ac
:101520000308e10002003a000200e1007e00320000
:101530000204500083845800040031000001fd00c3
:101540008101fd008402fd008a05fd006044b800b1
:10155000210037000520e10005003d000001fd00ed
:101560008101fd008402fd008a05fd000506520090
:101570007a60e100050035000170a1004722dd001e
:10158000848070008a807000630037006044b80077
:10159000ef02660007ff2f00070666000500e00067
:1015a00006003400f08312008714dd000511de0010
:1015b000071bdd00060171008519de007060e10087
:1015c00005003500090478008204780003017800e2
:1015d0008001eb00700656000b50e10003003a005a
:1015e00002004000838048000400370060041400bb
:1015f000e0841c0002005800838058000188a3008a
:10160000060032008100d1000080d3008984d3001d
:101610000884d3000402e800270037000178a30003
:1016200025003a000100e000030032008186cf006f
:10163000698656000a0037008c0020000000e00098
:1016400004003a0009007800880478000004eb00e8
:10165000700252008086cf000d0646000c06e9009d
:101660007060e10006003500800078000900780015
:10167000880478000004eb007006560070025200e7
:101680000c00e0000c0034008c08dd00f0031600b4
:101690000703de00868070000c00dd00074bde00d3
:1016a000060070008c4cdd000743de008684740069
:1016b0000c44dd000c0252006120e10020003500e6
:1016c000610160000700280087816400f7ff2700a0
:1016d00087836400070374000300e0000600320003
:1016e00082037300040032000000e800e08048003c
:1016f0000188a3000e003a00f70f20000720e10048
:101700004a003d000170a1004722dd008100720007
:101710008a8070000000be004f06be004f05be006c
:101720004f04be00000006006000b800faff37005a
:101730008100d1000080d3000402e800eeff3700f2
:101740000401780089017400a10107008a807000fb
:10175000f1ff3700f7010700070278000001fd00e4
:101760008101fd00f3010700870278008503720004
:101770000778a300040032000001fd008101fd0094
:1017800006020700e4ff3700850362000768a30034
:10179000080032000b50e10003003200f0ff2f0080
:1017a000f1ff2700dcff37000001fd008101fd0093
:1017b000d9ff37000468a300d7ff3200faff3700d3
:1017c000f8ff2700888360000b003a000000e0006b
:1017d00009003a0083036400828373000200320030
:1017e0000200be00ccff37000b50e100ceff3a00f4
:1017f0000200be00c8ff3700140020008100640012
:101800003eff3700f8ff27008883610004003a009c
:101810000200e00002003a008c007800beff3700b2
:10182000150020008301640039ff370001f827000c
:101830000000200081007500b7ff3700889fbe00c0
:101840008a9fbe008c9fbe001b0020000202be00cb
:101850000586680006002800060666004709de00c7
:10186000f20fb200820032000243e8008000320032
:10187000c729de00f30fb2007d0032000343e80009
:101880007b003200f107b2000170a000f507b20042
:101890000570a000c708dd004903de0086807000e7
:1018a0004700dd00c72add004923de008682720082
:1018b0004722dd00030551000403500085835800d2
:1018c0000300310000004000818048000a05e90063
:1018d0008c1f78008a9fbe0004005000858058004d
:1018e0000402420085824a000000400081804800d6
:1018f0000005eb000004be006033b8000406be0023
:101900000d48e10056003100110009004dccd8000f
:101910000c01b8000d02b8008481410060824a00c9
:101920008283530003045c0084845c0060055d00d6
:101930000a00e00025003a00800578000d40e10033
:101940004900310088007800070078001100090084
:101950004d88d8000c01b8000d02b8008481410008
:1019600060824a006003110083835b0004045c0012
:10197000e0845c000900e00021003a004f01be0055
:101980000300e0002b003200e30160000706730053
:101990008c81710001003200640070004200de00a2
:1019a0004e5edd000c007000c258de0001e0a000b9
:1019b00083010700cf017800818071004f06be00cf
:1019c0004f05be004f04be00000006008c8343009c
:1019d0000d044c00e0844c0060054d000000e9005f
:1019e0000a00e000d4ff32008c8343000d044c0059
:1019f000e0844c0060054d000000e900ceff370098
:101a00000c0343008d834b0060044c00e0844c00c9
:101a10000000e9000900e000d8ff32000c03430099
:101a20008d834b0060044c00e0844c000000e90012
:101a3000d2ff37004200de004e5edd000c00700079
:101a4000c258de0001e0a000cf0178000300e000f2
:101a5000daff320060001000e0801800d7ff370086
:101a6000f0ff2f00aaff3700f0ff2f00b9ff37006b
:101a70000404be002f010700870678000004fd0063
:101a80008104fd002b010700078366000678a30090
:101a9000030032000960a7000800be002c003700d8
:101aa0000d78a300020032000800be0028003700b5
:101ab0000778a30026003a0001f0a10009f0a10078
:101ac0000668a30003003200f1ff2700f0ff2f009b
:101ad000baff37000d68a300030032000800be0003
:101ae0008c807000b5ff37000768a30007003a003c
:101af0000648a30003003200f1ff2700f0ff2f008b
:101b0000aeff37000d48a300030032006000b800ac
:101b10008c807000a9ff37000748a3000400320042
:101b200001f82700000020008c807000a3ff370020
:101b3000760107000004fd008104fd000205780025
:101b4000720107000802be008a01780059ff3700c1
:101b50000160a00012022000d257880097ff3700d2
:101b60000100e000120032000500e0001000320029
:101b7000889fbe008a9fbe008c9fbe000006eb00bf
:101b800001f8a3000300320060001000e08018009c
:101b90000cf0a00005f8a300030032006002120060
:101ba000e0821a000cf0a2008005eb0041ff370034
:101bb0006000b800020005000383680007002800e9
:101bc00007036300470ade000480a100c71ade0095
:101bd0000580a100f70f20000720e100420032003d
:101be0000728e10040003200889fbe008a9fbe00a7
:101bf0008c1f7800f107b200f307b2000400e00088
:101c0000640032000170a0000500e00068003200ae
:101c10000370a00085054200eb07b1000204b80084
:101c20000302b8008484440060854a00020ab800b8
:101c3000848444000a854a00030ab800040545006c
:101c4000040033000804d0008984d2000a85d20041
:101c50008b05e9006158e1003d00350002102000cd
:101c6000090161000308200089816100f707200055
:101c70008783640008867300c84cde00c853dd000b
:101c8000878474004855de000300e000060032003f
:101c900082037600040032008904e80060054d00ec
:101ca0000a88a3000c003a00f70f20000758e10053
:101cb00044003d000a70a100c75ddd000a85750083
:101cc0008a007300090078004f0678004f05be00b7
:101cd0004f04be00000006000a05d1008984d3002d
:101ce0008b05e800f0ff3700881f780006047800b5
:101cf00090000700070278000001fd008101fd004f
:101d00008c00070087027800850372000778a30023
:101d1000050032000001fd008101fd009f00070069
:101d20004f04780000000600850372000748a300f6
:101d300003003200f0ff2f00f1ff2700f8ff37000b
:101d40000000200001f8270088807000f4ff3700b1
:101d5000880178004848dd00808171004848de0035
:101d6000c850dd0001007000c850de000604780095
:101d70000b0178001600070088807000d2ff370042
:101d80000500e00005003200170020003a000700bf
:101d90009dff370081037000f9ff3a00860078004c
:101da0004f0678004f05be004f04be00000005003e
:101db00083037100f9ff3200270020002e00070086
:101dc00094ff370001f8270086807000f4ff370089
:101dd0000100e00026003200610111007810e100ee
:101de00023003c006022b8007010e10004003500c0
:101df00080027800010078008000eb007001510043
:101e00000200e0000900340070031100062add0022
:101e1000822ade008603dd00878272000200de0077
:101e2000860bdd00070070008208de0084817100ef
:101e3000f4ff2700048262008481710004002800fe
:101e4000848262006102600005f0a60000000600c6
:101e500004827100070032000000e800e0804800c2
:101e6000000006000002be006000b800efff37006f
:101e70006000b80000000600889fbe000004eb0070
:101e80006138e10016003a000100e00008003a0065
:101e9000c800de004800dd00880020000100e000ee
:101ea00003003a00c800de004800dd00680444007a
:101eb0008184cf00e9845400060034008908dd00e5
:101ec000f08314008703de00878070000900dd00c6
:101ed00009044400610214004f04be000000060023
:101ee0000300e00008003a00c811de004811dd00e0
:101ef000880020000300e00003003a00c811de0063
:101f00004811dd00680444008384cf00e984540054
:101f1000060034008919dd00f08314008713de0009
:101f2000878171000911dd0009044400e1021400f9
:101f3000e9ff37002700200001f0a700170020006c
:101f4000470bde00f60fb200040032000643e80043
:101f50000a0032004702b3000000060001037800c7
:101f6000f607b2000603700002003a000703b30050
:101f7000000006008702b30000000600010378009d
:101f8000f607b20006037000020032000770a000de
:101f9000000006000760a000000006000478a3000f
:101fa000040032000578a300030032000168a3009a
:101fb00001003a000200be000160a000000006001f
:101fc00081017000270032008002eb0001f8a300bd
:101fd0000300320060001000e080180015002000af
:101fe000f40720000202420020003400f703200022
:101ff000870360000604200000036300020820003d
:10200000000161004700de00c909dd0000807100a9
:10201000c708de000600e0000800320087037100f8
:10202000060032001000b0000180b0000188a3005b
:1020300002003200c108de000402e800f107b2002d
:10204000f30f20000320e10003003d004722dd00e4
:10205000810072002900370001f827000000eb0022
:10206000260037006000b800000006006802120079
:102070007f20e100020034006000b8001f0037003c
:102080006011b8007020e100040035008001780084
:10209000010078008000eb00700252000400e000b4
:1020a00009003400f00312000719dd008419de0076
:1020b0000703dd00868171000400de00070bdd00f0
:1020c000060070008408de00f7ff270083836300aa
:1020d0008703710006002800030363000700320035
:1020e0000700e00003003a00610160000281730014
:1020f000020032001000b0000180b0000500a60010
:102100000000060001f0a000000006004f0ade00fb
:102110004709de00f107b200f20fb2000b003200f7
:10212000f207b1000170a000c708dd00c901de00a0
:10213000838070004700dd000400a6000000060058
:1021400060001000e080180000000600810f7000a1
:1021500001003a00000006008182cf000500e00087
:1021600010003e008082cf00ee8242007028e10025
:102170000400390007003e00800078000000eb00fa
:102180000e003700708312008600de000500dd00bf
:102190000a003700708352008600dd000000eb006b
:1021a00006003700e28252008508dd0070831200cd
:1021b0000603de00868070000500dd007507b000b4
:1021c0000501ea000400a6000000060060001000ff
:1021d000e080180000000600889fbe008a9fbe00b5
:1021e000841f78007c0007004f0078001100330046
:1021f000f0ff2f00838f6c0006003b000405650094
:102200000a00a7000800370009f0a600100020000f
:1022100008003700820f5400838f5c0003003900f0
:102220001000200001003e000000200009f0a7007f
:102230000000ea004f05be004f04be000000e000b1
:1022400000000600881f7800030478000300e00007
:1022500007003d0060001000e080180060011900d8
:10226000e081190002003b0001f02d00030037005f
:102270000400070008f0a70001f0a0004f04780058
:1022800000000600889fbe008a9fbe00008270008a
:102290000402710004827100260032000004be00b6
:1022a0000200be006011b8006b09200095022000fa
:1022b0000182cf000a0039000541b1000082cf0041
:1022c000070039000541b1000982cf000400390040
:1022d0000541b1000882cf00010039000541b1007d
:1022e00005425200120032000a003b008281710058
:1022f000610164008100d1000080d3008984d30093
:102300000884d3008b05e8000442e800f7ff3a0098
:10231000070037000804440089844c00000048008e
:10232000818048008b05e9000442e900f9ff3a008a
:10233000030007004f05be004f04be00000006006a
:1023400081002000618055000b003d000b00200043
:1023500061fe2f000100e1001d0034008281710048
:10236000610164008904d1000884d3000000e80002
:10237000faff3a0071002000610064000300700061
:10238000020060000900320061044400e0844c0057
:102390000988a500050032008b05e8006808e10007
:1023a00002003a008904d1000884d300f20f200013
:1023b0000258e10005003d00c75ddd00f907b200ed
:1023c0008980750008007800000006000bf82700df
:1023d0008b007800000005000004be0014fc07001c
:1023e0000003be000405be000200be0010fc070092
:0823f000844f75000000060097
:020000040000fa
:1023f800556e0000616200006c6500003a20000024
:102408005365000074740000696e00006773000073
:10241800204c00006f6300006b650000642e000014
:102428000a0d0000000a00000d0000002000000056
:10243800202000000053000079730000746500003c
:102448006d2000005365000074740000696e000080
:10245800677300003a3a00000a0d000000310000de
:102468003a2000007c520000317c0000202000004f
:1024780020200000202000007c520000327c000058
:102488002020000020200000207c000053310000a4
:10249800437c000020200000202000007c53000026
:1024a800324300007c200000202000002020000093
:1024b8007c530000334300007c20000020200000f3
:1024c800207c000053340000437c00000a0d00000b
:1024d800003200003a2000007c500000437c0000dd
:1024e8002020000020200000202000007c4d00005b
:1024f800425600007c20000020200000207c0000c4
:1025080042520000567c00002020000020200000dd
:102518007c440000567c00002020000020200000a1
:10252800202000007c4c0000565300007c20000056
:1025380020200000207c000044430000527c000062
:102548000a0d0000003300003a2000007c4c000017
:10255800437c0000202000002020000020200000f4
:102568007c430000435200007c2000002020000033
:10257800207c000041480000527c00002020000020
:10258800202000007c4f0000435300007c20000006
:1025980020200000207c0000414d0000437c00000a
:1025a8000a0d0000003400003a2000007c430000bf
:1025b80054380000307c000020200000202000005b
:1025c800202000007c4300006d5400007c200000a7
:1025d80020200000207c0000435200004c7c0000ba
:1025e80020200000202000007c4300004d580000ff
:1025f800547c000020200000202000007c430000c4
:10260800524800007c20000020200000207c0000b0
:1026180043540000547c00000a0d000000350000ff
:102628003a2000007c4400006d5400007c2000002b
:1026380020200000207c0000445200004c7c000058
:1026480020200000202000007c4400004d5800009d
:10265800547c000020200000202000007c44000062
:10266800524800007c20000020200000207c000050
:1026780044540000547c00000a0d0000003600009d
:102688003a2000007c420000535400007c200000e7
:1026980020200000207c000043530000547c0000f0
:1026a80020200000202000007c4d0000485400003d
:1026b8007c20000020200000207c0000504f0000fb
:1026c800417c00000a0d0000000a00000d2a0000ed
:1026d8002a2a00002a2a00002a2a00002a2a0000a2
:1026e8002a2a00000a0d0000004400006973000057
:1026f800706c0000617900003a3a00000a0d000091
:10270800003100003a2000007c420000257c0000d7
:102718002020000020200000202000007c50000025
:10272800567c00002020000020200000207c0000b3
:10273800545600007c20000020200000207c00006f
:10274800505700007c2000002020000020200000be
:102758007c410000567c00000a0d00000032000099
:102768003a2000007c430000567c00002020000036
:1027780020200000202000007c430000417c000055
:102788002020000020200000207c000053310000a1
:102798007c20000020200000207c00005332000034
:1027a8007c20000020200000202000007c53000036
:1027b800337c000020200000202000007c53000013
:1027c800347c00000a0d0000003300003a200000ad
:1027d8007c5700007c200000202000002020000002
:1027e800207c0000435700007c20000020200000cf
:1027f800202000007c4100007c20000020200000f8
:10280800207c0000434200007c0a00000d0000000c
:10281800343a0000207c0000434d00007c2000007a
:102828002020000020200000207c00004141000002
:102838007c20000020200000202000007c4f0000a9
:10284800435600007c20000020200000207c00006f
:102858004d4300007c0a00000d0000000a0d000036
:1028680020410000682000005261000074690000e7
:102878006e6700003a200000000a00000d200000ea
:102888004361000070610000636900007479000012
:102898003a200000000a00000d20000052650000e8
:1028a8006d610000696e0000696e0000673a000003
:1028b800200000000a0d00002043000068610000ad
:1028c800726700006520000043790000636c000017
:1028d800657300003a200000000a00000d52000055
:1028e80065610000646900006e6700002046000012
:1028f800617500006c740000732e00000a0d000062
:1029080000460000617500006c740000204c000057
:102918006f67000020460000756c00006c2e0000f8
:102928000a0d0000004e00006f20000066610000e4
:10293800756c000074200000636f0000646500007f
:10294800732e00000a0d0000004300006f640000b1
:10295800653a000020000000202d00003e20000005
:10296800004600006c610000677300003a3a0000fe
:102978007c53000065740000732000004c4b00007d
:102988007c7c00004261000074740000204f00004d
:10299800567c00007c420000617400007420000036
:1029a800485600007c0000007c4200006174000072
:1029b80074200000555600007c7c00004261000035
:1029c80074740000204f0000547c00007c53000009
:1029d80079730000204f0000547c00000a0d0000ad
:1029e80000200000202000002020000020200000ff
:1029f8002000000053450000542000002020000063
:102a08002020000020000000436c000065610000e9
:102a18007220000020200000200000005331000038
:102a28003a20000000530000323a00002000000065
:102a3800533300003a20000000530000343a0000ed
:102a480020000000434800003a2000000076000003
:102a58006f6c000074610000676500002069000069
:102a68006e700000757400002873000029200000b3
:102a7800636100006c2e00000a0d0000004e00008b
:102a88006f740000686900006e6700002063000032
:102a9800616c000021200000566f00006c7400007b
:102aa8006167000065730000206f00007574000006
:102ab800206f000066200000726100006e67000051
:102ac800652e00000a0d00000040000000200000f4
:102ad8004346000021000000202d00003e43000076
:102ae80072450000213c00002d0000000a0d000086
:102af80050520000473a00000a0d000053740000cd
:102b08006f720000656400003a0000000a0d0000c2
:102b1800436100006c6300003a20000020000000c0
:102b28004d6500006d2000004275000073790000bb
:102b3800000a00000d4e0000564d00003a0a000041
:102b48000d530000746f000072650000643a0000c5
:102b5800000a00000d530000657400007320000097
:102b6800616e00006420000056610000727300006e
:102b78002053000061760000656400002e0a000002
:102b88000d000000502000004f6e00000a0d0000ec
:102b980000500000204f0000666600000a0d00008b
:102ba800000a00000d48000055440000204f0000b6
:102bb8006e0a00000d0000000a0d000048550000d4
:102bc800442000004f660000660a00000d00000067
:102bd8000a0d000046610000756c00007473000067
:102be800204300006c65000061720000656400000d
:102bf8002e0a00000d0000000a0d000056310000ea
:102c08002e3000005f320000532d000034530000c6
:102c18000a0d0000005300006574000073200000d6
:102c2800556e00004c4b0000442e00000a0d0000b9
:102c38000057000061690000742e00002e2e00006d
:102c48000053000065740000732000004c4b000026
:102c5800442e00000a0d0000005000006f770000ad
:102c680065720000204f000075740000204f0000be
:102c78006e2e00000a0d000000430000686100008d
:102c88007267000065200000476f00002e0a0000f0
:102c98000d000000524c0000200000000a0d00004a
:102ca8004348000020000000556e00006b6e0000d5
:102cb8006f7700006e200000436f00006d6d00000c
:102cc800616e0000642e00000a0d0000004900003b
:102cd8006e69000074690000616c0000697a000088
:102ce800656400002e2000000a0d0000002000008e
:102cf80000250000005600000054000056000000a7
:102d080050570000004100005600000043560000e4
:102d180000430000410000003a5300003100000069
:102d28003a530000320000003a530000330000001c
:102d38003a530000340000005700000043570000d9
:102d4800004100000043000042000000434d000025
:102d580000410000410000004f4300005600000001
:102d68004d430000000a00000d0000007b960000a3
:102d78007d9600007f9600008196000084960000f2
:102d8800879600008a9600008d96000090960000b5
:102d980094960000989600009c960000a09600006b
:102da800a2960000a5960000a7960000aa9600002b
:102db800ad960000b0960000b4960000b7960000eb
:102dc800486500006174000065720000207400000e
:102dd8006f6f0000207300006d6100006c6c0000d4
:102de800004e00006f20000068650000617400005c
:102df80065720000206400006574000065630000cf
:102e080074650000640000004865000061740000fb
:102e180065720000207400006f6f0000206c0000d5
:102e28006172000067650000004c00006f770000c9
:102e38002042000061740000742000005600000069
:102e48004261000074740000204f0000430000003d
:102e58004368000072670000204f00004300000034
:102e68004261000074740000204f0000560000000a
:102e78004261000074740000204f000054000000fc
:102e88005552000046200000536500007400000001
:102e9800536500006c660000204f000054000000dd
:102ea8005379000073200000536800007574000017
:102eb800646f0000776e000000500000574d00005e
:102ec8002045000072720000004f0000736300008c
:102ed80020460000616900006c00000041640000a9
:102ee8006472000020450000727200000053000068
:102ef800544b00002045000072720000004d000095
:102f08005448000020450000727200000052000082
:102f18006573000020370000005000004c4c000092
:102f2800205500004c000000427200006e4f000067
:102f3800757400000057000044540000207200001f
:102f4800737400000054000052410000502000003b
:102f580072730000740000004f700000636f00007f
:102f6800646500002072000073740000004d0000ca
:102f7800434c0000522000007273000074000000ef
:102f8800496c00006c650000676100006c2000005f
:102f9800496e00007374000000530000797300004c
:102fa8002052000073740000004900006e76000093
:102fb800616c000020700000727400000055000071
:102fc800534200002043000068200000466c0000c7
:102fd800740000005043000068670000203e0000b5
:102fe8002031000030300000250000005648000065
:102ff8002043000068560000005600004c200000e6
:1030080043680000560000005648000020430000b6
:1030180068430000005600004c2000004368000090
:10302800430000005648000020420000546d000094
:1030380070000000564c000020420000546d000053
:1030480070000000564800002042000043000000c5
:10305800564c000020420000430000005648000083
:10306800205300004d000000564c00002053000083
:103078004d000000504f0000525400003120000065
:1030880042530000592000006572000072000000e1
:10309800504f0000525400003220000042530000fc
:1030a800592000006572000072000000506700009f
:1030b8006d200000436800006b200000457200008e
:1030c800720000004e5600004d20000043680000ca
:1030d8006b2000004572000072000000536500007c
:1030e8007473000020430000686b00002045000056
:1030f80072720000004e000056530000204300008a
:10310800686b00002045000072720000005000004b
:103118004f52000054310000204500005252000078
:10312800005000004f5200005432000020450000bb
:1031380052520000005300006f6600007420000027
:103148004f430000005600004820000053310000a3
:10315800005600004c2000005331000000560000cb
:103168004820000053320000005600004c200000a8
:10317800533200000056000048200000533300007e
:10318800005600004c200000533300000056000099
:103198004820000053340000005600004c20000076
:1031a80053340000004300006872000067200000ec
:1031b800696e0000204f00005600000045580000ce
:1031c800204f0000433a0000205000006c650000ca
:1031d80061730000652000005265000073650000ff
:1031e8007400000045580000204f0000563a0000c7
:1031f8002042000061740000742000004675000041
:1032080073650000205400007269000070700000af
:103218006564000000420000617400007420000032
:103228005556000000430000482000006379000064
:10323800632d00006c6900006d69000074000000d7
:10324800556e00006b6e00006f7700006e00000086
:10325800e4960000f5960000089700001997000012
:10326800249700002c970000349700003c9700003a
:10327800449700004c9700005497000061970000a5
:1032880069970000729700007b9700008397000001
:103298008b97000091970000989700009f97000077
:1032a800a7970000b0970000bb970000c4970000e4
:1032b800d1970000d9970000e3970000ee9700002f
:1032c800fa97000001980000089800000f98000085
:1032d800169800001e980000269800002c98000000
:1032e80032980000389800003e9800004c98000082
:1032f8005a98000066980000729800007f980000b5
:103308008b980000959800009f980000a7980000ef
:10331800ad980000b3980000b9980000bf9800006d
:10332800c5980000cb980000d1980000d7980000fd
:10333800e2980000f69800000f9900001799000025
:0433480024990000c4
:020000040000fa
:10334c0021862000e14078000104e00005003200f5
:10335c000140fe0021862000e14078000104e000dd
:10336c00fbff3a0000000600889fbe000004be0070
:10337c006011b800e6f707000000e00001003d0016
:10338c0009f0a2000800be004f04be0000000600b9
:10339c00889fbe000004be000001be0003fa0700b7
:1033ac000801be0001fa07004f04be000000060031
:1033bc00889fbe008a9fbe008c1f78000005eb0022
:1033cc0008002000892c24000a067800eb9e2000bf
:1033dc004250dd00008045001000be000801be0018
:1033ec00cbf707000000e00004003d004250dd0078
:1033fc00008045001004be000a0678000a05e800ab
:10340c00e40f5500f2ff3a004260dd00e19e20001f
:10341c00008040001000be0002002000832c24001d
:10342c00bdf707000000e000070034004260dd003b
:10343c00e19e20000080400002002000832c24002c
:10344c000288be000d0037004260dd00e19e2000c6
:10345c00008040001000be006011b800acf70700ff
:10346c000000e00005003d004260dd00e19e200010
:10347c00008040006011b8000288be004266dd008a
:10348c00e09e20000c0640001c00be00e84a8000b4
:10349c00f94a800002002000832c2400e4f8070085
:1034ac000001be000800be00c0f90700c04b880038
:1034bc00d14b88004f0678004f05be004f04be006c
:1034cc0000000600ea874700889fbe008a9fbe0066
:1034dc008c9fbe008e1f7800b04e8000c14e8000c5
:1034ec00a1ff0700d2cc2c00c3d4230088f707001f
:1034fc000000e00043003d0020cabf000038a300dc
:10350c0040003200304d8000414d8000304f88002b
:10351c00414f880010468000f0b79f002246800083
:10352c0082bf9f00f0458000014680007fb197006c
:10353c008fb99700d0f70700d0b79f00e1b79f0075
:10354c000007eb000a0020000bf023004271dd00a5
:10355c002202b000c39920000281410012007800c1
:10356c00920090007fb197008fb99700c2f70700c7
:10357c000004be006011b80065f707000000e00011
:10358c0001003d006044b8005fb19700efb19700b7
:10359c000800be00a6f807000a01be00b6f7070037
:1035ac000004be007aff07000001be00bbf7070055
:1035bc000006be000a01be000800be007bf9070031
:1035cc000001be000c00be00b4f707000a01be00eb
:1035dc00b2f7070002002000832c240073f90700c7
:1035ec000001be00c270dd00e09e200081004000a2
:1035fc008288be000e07e800e40f5700d3ff3a00a4
:10360c001e6aa8004f0778004f06be004f05be008b
:10361c004f04be00af00b10000000600c203200042
:10362c000281b9008000400024a2200081004200e9
:10363c009100410042a42000e2c078000104e000a7
:10364c0007003a008000400022a220000101410046
:10365c008000eb00010978002286200001717800bf
:10366c00000006006f006000e90f500002003c00f3
:10367c000043b000010037007043b00000000600aa
:10368c0021862000e14078000104e00012003a009d
:10369c0012c0b300218620008270780080004000a8
:1036ac0022a2200081004100c20320000281b90047
:1036bc001101410043a42000028141000049eb00ac
:1036cc008008eb000000e000020032008720a80018
:1036dc00010037008540a8000000060000014000f2
:1036ec0021a22000e1007900c40320000482b9006b
:1036fc00848140006702b900a6a2200002014300a9
:10370c001202420065a3200042a42000e5427a0088
:10371c0005f17900a2032000828f500004003e00c6
:10372c000000400022a22000000041000108e80037
:10373c0000000600889fbe000004be000200be0010
:10374c00024022004397240018f907000801be002c
:10375c0037f807000200200003d8230013f90700f4
:10376c000200200003f8230043f707000df70700c1
:10377c004f04be0000000600889fbe00204aa9002e
:10378c006000b800704d8800814d8800d04e8800d4
:10379c00e14e8800f04e8800014f8800304d8800c3
:1037ac00414d8800704f8800814f8800904f8800f1
:1037bc00a14f8800b04f8800c14f8800d04f8800bf
:1037cc00e14f8800b04e8800c14e880043c7bf004f
:1037dc0088cfb300084060000004a00043e7b700a6
:1037ec004207a8004227a900c020ef00c220ef002a
:1037fc00c420ef00c620ef00f0ff21006016880007
:10380c00d022ef00ce22ef00e0f82f00f016880057
:10381c00e222ef00e022ef00a0ff2f00c01688008c
:10382c00dc22ef00da22ef00c021ef00c221ef0012
:10383c0020062000200e8800c621ef00090720007a
:10384c00490e8800ca21ef00cc21ef00d021ef00f7
:10385c0000a02200a00e8800d621ef00d821ef0096
:10386c00da21ef000e22ef000fe2a9000c22ef008c
:10387c000d42a800a2702d00b316240000002000f9
:10388c0061612400abff0700a01088001822ef0034
:10389c0019e2a9001622ef00f0108800a30e2e00ea
:1038ac00130888000021ef000421ef0001c3b300ce
:1038bc00014078000461b700a283230062088800ed
:1038cc000621ef001021ef000411200014427800b3
:1038dc00f7ccb300074262000454a0000443780004
:1038ec0005112000864a7800d30888001421ef00c7
:1038fc001e21ef001e61b700e20888001821ef00be
:10390c002021ef00021220001241780007406100d4
:10391c000054a00020e1b700c02a210060418800bb
:10392c00008c230070418800402e20000015880078
:10393c004042200010158800f0f02000201588006f
:10394c00a622ef0000e02f0040158800f01f200099
:10395c0050158800094078009960b70097c0bf00e7
:10396c00084060006040b30097e0b7009cc0bf0007
:10397c00084060005040b3009ce0b70094c0bf000a
:10398c00084060005040b30094e0b700520920009a
:10399c0012417800f0c8b300004161000264a0003d
:1039ac00024278005309200084497800f209200073
:1039bc0012417800084161000224a0000243780003
:1039cc00f5092000864a78009209200012417800ff
:1039dc00084161003240b300024278009309200094
:1039ec0084497800020a20001241780000416100ed
:1039fc008140710001437800050a2000864a780056
:103a0c00810920009140780080c060000154a00022
:103a1c00814178008209200003497800010a2000c6
:103a2c009140780008c460000814a0008842780017
:103a3c00040a2000054a78007109200091407800a2
:103a4c0080c060000154a00001417800760920007c
:103a5c00024b7800e10920009140780080c06000a2
:103a6c000144a00001427800e30920008449780059
:103a7c00f10920009140780000c060000044a000d3
:103a8c009fe0b7004f04be0000000600889fbe00f8
:103a9c0000bf200000018800f84480000945800028
:103aac00d0448000e14480000801be007bf6070092
:103abc000001be000800be005df707002040880032
:103acc0031408800d0a320008041880070fd230085
:103adc0090418800e00e2600a041880080812400df
:103aec00b0418800200aa90023ff070081e0a9004b
:103afc008420ef008620ef008820ef00ff3ffc00c1
:103b0c008c20ef008e20ef009020ef008c60a8003e
:103b1c008d20a8008d40a8008f00a8008f20a80041
:103b2c008c00a8008e00a8008ee0a9008cc0a80014
:103b3c008ce0a9008ea0a9008ec0a8008d60a80002
:103b4c008200a9008240a9005220ef00a1e2a80047
:103b5c00c1e1a80011e1a80005e1a80021e1a8003d
:103b6c000de2a8000f42a80017e2a8001942a80015
:103b7c0020aaa8004f04be0000000600fefe0700ad
:103b8c00ff3ffc008420ef008620ef008820ef0030
:103b9c008c20ef008e20ef009020ef008d20a800ed
:103bac008d40a8008f00a8008f20a8008ea0a80030
:103bbc005220ef00c1e1a90011e1a90005e1a90023
:103bcc0013e1a9001fe1a90021e1a9000de2a80061
:103bdc000f42a80017e2a8001942a8000000060036
:103bec00b1ff2f00c1168800d2a2ef00dc42a90061
:103bfc0061416000c12d2000914078000104a100ba
:103c0c0082c0700081417800c22d200003497800e9
:103c1c000000fb008000d100e1c0600001c1400049
:103c2c00612d2000914078000114a10082c0700029
:103c3c0081417800622d2000034978004201de00aa
:103c4c00614161004211dd00612d2000914078003e
:103c5c000124a10082c0700081417800622d2000f7
:103c6c0003497800c300de00e1c06000c308dd003a
:103c7c00d6c2bf000034a10001407000d6e2b700ec
:103c8c00a0ff2f00c016880010ff2f009016880090
:103c9c0000000600b1ff2f00c1168800d2a2ef0071
:103cac00dc42a8000000fb00610160000204a200dd
:103cbc00c12d2000914078000104a10081407100c9
:103ccc0081417800c22d200003497800e200600099
:103cdc008100e900cf08de0001c14000612d200009
:103cec00914078000114a10082c0700081417800dd
:103cfc00622d200003497800640160000201e90094
:103d0c004f11de004211dd00612d20009140780042
:103d1c000124a10082c0700081417800622d200036
:103d2c0003497800e80060008100e900cf08de005c
:103d3c00c308dd00d6c2bf000034a10001407000f2
:103d4c00d6e2b700a0ff2f00c016880010ff2f008e
:103d5c009016880000000600889fbe000004be007c
:103d6c0002002000432b24006bf507000000e0004c
:103d7c00030034001ecabf000018a3000900320063
:103d8c0002002000832c24000800be0062f507000e
:103d9c000000e000060034001ecabf000018a3009b
:103dac0003003200f0c0b300baff07002f00370049
:103dbc0002002000632924000800be0056f507000d
:103dcc000000e0000300340070c0b300b1ff070036
:103ddc002600370002002000832424000800be00c7
:103dec004df507000000e0000300340030c0b300c4
:103dfc00a8ff07001d00370002002000831c2400d0
:103e0c000800be0044f507000000e0000300350088
:103e1c0010c0b3009fff0700140037000200200001
:103e2c00831c24000800be0039f507000000e000e8
:103e3c000c003d0021cabf000038a30009003a0065
:103e4c0052c8bf000028a3000300320010c0b3000a
:103e5c0090ff0700050037000040eb008dff0700c6
:103e6c00020037000040eb008aff07004f04be0041
:103e7c00000006000004e00054003400e34f500042
:103e8c0003003a0060c0b30082ff07005100370006
:103e9c00e44f500008003a001e4ae20003003d00c7
:103eac00f7cabf004eff07004a003700f7cabf0031
:103ebc0078ff0700470037003185200091407800db
:103ecc00e9cf50003a003400e14f500038003a007e
:103edc005368ef0021cabf000028a300090032007c
:103eec0052c8bf000048a3000300320020c0b3003a
:103efc0068ff0700370037000040eb0065ff070044
:103f0c00340037001ecabf000018a3002400320082
:103f1c0052c8bf000008a3000d003200f6cabf0053
:103f2c00e74f5000030032001ecabf000058a30028
:103f3c0007003200104d8000214d8000020020004f
:103f4c00831c240055f5070083ff07002100370070
:103f5c0052c8bf000018a3000d003200f6cabf0003
:103f6c00e74f50000a0032001ecabf000058a300e1
:103f7c0007003a00104d8000214d80000200200007
:103f8c00831c240045f5070073ff07001100370060
:103f9c00104d8000214d80006fff07000d00370091
:103fac00104d8000214d80006bff07000900370089
:103fbc0053c8bf00e94f500001003c005368ec00af
:103fcc0054c8bf0006ff0700020037000040eb009a
:103fdc0003ff07000000060011002000f21f200064
:103fec00820f50001a003c00ff3ffc00811f78003c
:103ffc000000400001c02f0001004000f10720002c
:10400c00213b8800103b880041042400013b8800c0
:10401c0051052000313b8800a10a2000313b88006b
:10402c0061e7a8000000000000000000cf0078004d
:10403c008000eb006147e20005003d0001007800c4
:10404c00900288006147e200fdff35008000eb0024
:10405c000100780000000600889fbe000004be002e
:10406c0008007800dcff070010002000f11f200082
:10407c00810f54001f003c00ff3ffc00801f7800a4
:10408c00811f7800821f78000804440000c02f00b4
:10409c0000044400f0c7b30032e0b70029008800e8
:1040ac00080088000208bb0041002400013b880086
:1040bc0051052000313b8800a10a2000313b8800cb
:1040cc0061e7a80000000000000000004f0178002c
:1040dc00cf0078004f0078000000eb006147e20051
:1040ec0004003d00900288006147e200fdff3500ae
:1040fc000000eb004f04be000000060074e8b7009f
:10410c00b1438800ff3ffc00841f7800801f7800bb
:10411c00418720009140780020032000014878005e
:10412c00b1438000010088001082ba00000000003a
:10413c000000000040008000704388004187200090
:10414c00914078002003200001487800b1438000a2
:10415c00010088001002ba000000000000000000fe
:10416c0040008000904388004f0078004f02780098
:10417c005220ef0090438000000006008000780081
:10418c000000eb00f21f2000828f500005003c0065
:10419c0000e027008080400081804000f0c7b30021
:1041ac00d6ff070000000600889fbe008a9fbe0055
:1041bc007828ef000004eb00fa0f2000ebff23003f
:1041cc00880078000040eb00ccff070080047800ea
:1041dc00880078000040eb00c8ff070080007800e2
:1041ec008a846400c043800000804400c808de005c
:1041fc006e08b40081004000c14388000884e800c8
:10420c008b0f5400eeff3a00890f2000fb0f2000ab
:10421c00130037008800780009407800b7ff0700ca
:10422c00000578008800780009407800b3ff07008b
:10423c000b056500c1438000010545004800de0008
:10424c0000054500ca4388000884e800e20f4400da
:10425c00f0ff3a008904e8008b8f54000200320012
:10426c000004eb00ebff37007a1ab000ca43880059
:10427c004f05be004f04be0000000600caff070039
:10428c00c04380001048880000000600889fbe00d4
:10429c008a1f78007a28ef000004eb00fa0f200048
:1042ac0008007800b5ff070080047800080078004b
:1042bc00b2ff07008a846400d143800081844400eb
:1042cc004800de0080844400d94388000804e800dc
:1042dc00e01f2000800f5400f1ff3a004f057800da
:1042ec004f04be0000000600e8ff0700d143800029
:1042fc00f01f200058ff070000000600881f780000
:10430c004048e2000d0034000004eb003fc8bf0041
:10431c008800440062952000e28078000000fb00d9
:10432c00000044004cff07000804e80040c8bf0030
:10433c000000fb00880f5000f4ff3c003fc8bf009a
:10434c000000fb004165270043ff0700814280000d
:10435c003fc8bf0002842000124178000201fb001c
:10436c000000fb00000041003bff0700deff0700e0
:10437c001e8aa9004f047800000006000040eb00e4
:10438c00bcfe0700704f8000814f8000204b8800de
:10439c00314b8800904f8000a14f8000404b88002b
:1043ac00514b8800b04f8000c14f8000604b88009b
:1043bc00714b8800d04f8000e14f8000804b88000b
:1043cc00914b8800cdff0700e202a9000000060017
:1043dc00881f78003f48e2000b0034000004eb001b
:1043ec000800440041892000e100780008007800b2
:1043fc0019ff07000804e8003fc8bf000000fb00dd
:10440c00880f5000f6ff3c00715624000000eb00b2
:10441c0011ff0700b4ff07004f04780000000600ee
:10442c00889fbe008a1f78007c28ef003f48e2007e
:10443c00120034000004eb00fa0f20000800780092
:10444c004eff070080047800080078004bff07003f
:10445c008a846400e1438000818444004800de00cb
:10446c0080844400e94388000804e8003fc8bf008a
:10447c000000fb00880f5000f0ff3c004f05780057
:10448c004f04be00000006007e28ef003f48e2000b
:10449c00110034008000eb0001007800f40f2000c4
:1044ac000001400043892000630179008401610010
:1044bc00818041004811de00828040000000e8004d
:1044cc00f2832000124178000201fb00800f5100a2
:1044dc00f3ff3c00f143880000000600eaff0700f0
:1044ec00f04380000044880000000600881f78001c
:1044fc009a28ef0000122400e044880002002000fb
:10450c0003f82300f2448800034588006000b800db
:10451c0010458800214588003045880041458800b9
:10452c0050458800614588007045880081458800a9
:10453c0090458800a145880061662600b145880039
:10454c0061f62300c1458800305c2f00d0458800ff
:10455c0080082400e045880061662600f14588004b
:10456c006108240001468800d0cc2c00104688003d
:10457c00c004240020468800a199290031468800f7
:10458c009101240041468800ca28ef000000240055
:10459c00604688007246880083468800d228ef0067
:1045ac0001f02300a146880060662600b046880012
:1045bc0060022400c0468800da28ef0001102400b5
:1045cc00e1468800de28ef008010240000478800b8
:1045dc00007d200020478800a80020003847880074
:1045ec00f0002000404788008102200051478800dd
:1045fc00310220006147880091012000714788003a
:10460c00f028ef009847880071032000a14788002c
:10461c0021032000b1478800c0478800c003200058
:10462c00d047880000052000e0478800f847880044
:10463c0080072000004888000469ef000569ef003e
:10464c0060c4b3009be9b700a4ff070050c0b300df
:10465c009ae9b7000000eb00b0508800c050880009
:10466c00d0508800e050880010c0b3001ee9b7009d
:10467c0080c0b3001fe9b70090c0b30020e9b700b9
:10468c000840780021e9b700b0c0b30022e9b700b8
:10469c00c0c0b30023e9b70040c1b30024e9b700a0
:1046ac002569ef004e69ef0040c0b3004fe9b70039
:1046bc005069ef005169ef000469ef000569ef00e4
:1046cc004f047800000006004348e20008003a005e
:1046dc005008ab000600320030c0b30044e8b7000d
:1046ec0010c0b3003ce8b70043e8b7001d0037002a
:1046fc003cc8bf00e34f500005003a0043c8bf0060
:10470c00e14f500002003c004368ec0015003700fc
:10471c0043c8bf00e24f500012003a001ecabf004f
:10472c000038a3000f0032003fc8bf000000fb00a0
:10473c000000e80091fe070041652700810f500042
:10474c00010032001afb070030c0b30043e8b70089
:10475c009ac9bf00e54f500002003a0020c0b300d8
:10476c0044e8b70000000600214aa800b64c8000bf
:10477c000600e00012003200060278008000eb0018
:10478c008042eb0017c0b30076814000020141006b
:10479c006395200063017900820f500001003a00fc
:1047ac00874278008100e800848f5000f6ff3a00c1
:1047bc00e90f53000c003e000504e00011003a0024
:1047cc00a1072000810f50000e003e00f6004300b0
:1047dc00818040006295200000b178000603e8005b
:1047ec00b64c8800070037000504e00005003a00cd
:1047fc00a1072000810f500002003e00b0002000f5
:10480c00b04c88000000060040c7bf000018a30091
:10481c00030032004027a90030012000d2ff07001e
:10482c0040c7bf000048a300030032004087a90026
:10483c0040012000ccff07004147e20003003d008f
:10484c0041e7a90050012000c7ff070041c7bf0086
:10485c000068a3000300320041c7a90060012000da
:10486c00c1ff07004047e20003003d0040e7a900fc
:10487c0070012000bcff070040c7bf000068a30008
:10488c000300320040c7a90090012000b6ff0700ca
:10489c0000000600dcff070050a52a00a057880086
:1048ac000000060079fe0700f01f200033fe070011
:1048bc00800078000000eb00d2438000810f510093
:1048cc0006003200a0022000a7ff070020caa800a3
:1048dc0010c0b30044e8b700100020000000060030
:1048ec00889fbe00efff0700800078000000eb00ff
:1048fc000100e00018003a004048e2000d003400ce
:10490c0000047800699520003fc8bf000000fb0040
:10491c000000440019fe07008800440080b47800b1
:10492c000804e80040c8bf000000fb00880f5000de
:10493c00f5ff3c0040c8bf00f18320009140780097
:10494c008100fb000000fb00008040000bfe070014
:10495c0080428800100020004f04be0000000600ba
:10496c003fc8bf000000fb0004fe070041652700a4
:10497c00810f500001003a00d9ff0700000006002b
:10498c0009fe07000000eb00c143800012488000c4
:10499c00810f5100060032009002200072ff0700c8
:1049ac0020caa80010c0b30044e8b70010002000d3
:1049bc0000000600b4fe070099fe07000000eb00a3
:1049cc00e1438000f2438000810f51000600320069
:1049dc00c002200064ff070020caa80010c0b3006a
:1049ec0044e8b7001000200000000600889fbe00bd
:1049fc00acff0700800078000000eb000100e00035
:104a0c0013003a003f48e2000b0034000004780029
:104a1c004989200008007800d8fd07008800440070
:104a2c0080b478000804e8003fc8bf000000fb0019
:104a3c00880f5000f7ff3c00a8fe0700ddff0700c1
:104a4c0000f0a7000000ea000000e9004f00de00c3
:104a5c004f04be00000006008bfe07000000eb00b8
:104a6c0001448000f2438000810f510005003200a8
:104a7c00b00220003cff070010c0b30044e8b700b0
:104a8c001000200000000600881f78000004780049
:104a9c00e10f540007003400a001200032ff070092
:104aac0008044400a0a2200008044000000ceb0005
:104abc000b0037002086200060407c000004e000e2
:104acc00070032000800e0000300320080022000e2
:104adc0025ff0700020037007002200022ff0700ac
:104aec004f047800000006000e00fa00889fbe00fc
:104afc008a9fbe008c9fbe000005be006207980016
:104b0c0002004100a1a22000808040000000eb00c8
:104b1c0080087800c210dd00628520008100410011
:104b2c006011b8008288be00018620006e029000e1
:104b3c0080707a006720b90005c2b30064a320001e
:104b4c00057278000a00be00f1f107000000e000d9
:104b5c0006003d000bf0a2006e0190006710b9003a
:104b6c00d3c2b30062a3200003717800f2ff2300cc
:104b7c00c36124000a00be00e7f107000000e0005a
:104b8c00080034006e0290006720b900f3c3b30034
:104b9c0062a3200003717800faff2300cb6124008c
:104bac000d003700f226210033a823000a00be00b6
:104bbc00d7f107000000e00007003d006e019000f7
:104bcc006710b900c3c3b30062a32000037178005f
:104bdc00fa2621003ba823006e0290004220dd0043
:104bec00688520000004440002002000a347240034
:104bfc000a00be000ef30700008cbe00ee00900011
:104c0c0001804000a1a22000008040001001e800bb
:104c1c004207980002087800e80f51003e003e0061
:104c2c006e0290004220dd00618520000080400073
:104c3c001004be0002007800200798006720b9001d
:104c4c000001780052079800b0a32000000041003a
:104c5c00300798000c0020000d1224000a8fbe00b3
:104c6c004e05900084007800410798000100370041
:104c7c002a079800e50f550005003a00e1c2b30081
:104c8c003e00900001487800620020002207980046
:104c9c000800be00a2f10700804578005e0290007b
:104cac00ae0090000100420062a320000000410011
:104cbc0004c3b30004c845000105e8000b00fb0069
:104ccc00cf80de00d2f107000001be000800be005c
:104cdc00e9f107000c01be00b4f307000004be00ac
:104cec00e80f5500e2ff36000b4678001e05be00ab
:104cfc004e00900060079800800078004208dd00ac
:104d0c0061852000008040000888be0000862000dd
:104d1c006e0190000c7079006e029000040042004d
:104d2c00a1a22000008040000008eb0004007800e5
:104d3c0055ff070011c0b300408620006e019000a3
:104d4c000170790002004100ada22000808646006f
:104d5c006710b900000278005407980009c3b3002b
:104d6c002f0037000804e80050467800894f5600a1
:104d7c0002003200880e780003003700e20f540066
:104d8c00f8ff3600880e780060862000ee00900058
:104d9c0060c078000004e0000e00320000c2b300d6
:104dac00804f560005003200d0c2b300804f560031
:104dbc0003003a000100780048fa07009d0ee80055
:104dcc008040eb00608620006e019000017079003d
:104ddc00030037006e00900040fa07009d0ee800bb
:104dec005e0290001d00420061a32000614078002b
:104dfc00894f50000a003200d1c2b300814f5000dd
:104e0c000700320001c2b300814f50000400320091
:104e1c008040eb00e08520006e019000017079006d
:104e2c001d047800e80f540019003e005e0290004b
:104e3c000800420061a3200061467800894f5600ab
:104e4c00d1ff3a00e0852000ee00900060c07800b1
:104e5c000004e000ccff3a00e20f5400caff3e0011
:104e6c0002002000a34724000a00be0028f107001e
:104e7c000000e000c4ff3d008800e8005e019000e7
:104e8c008100410050a3200000804000b5ff370096
:104e9c006e0290000040eb00e185200080707a00eb
:104eac004186200080707a004f06be004f05be0080
:104ebc004f04be000080fa0000000600889fbe0070
:104ecc008a1f7800800478000104780008007800bc
:104edc00edfe070011c0b3004086200001707c007d
:104eec000800440061a22000008040000008eb0094
:104efc00194078000004e0002200320088004400d1
:104f0c0022a22000e2807800c203200002c1b90076
:104f1c000281400043a4200080717900a00320008e
:104f2c00808f500017003e008000eb00080044000a
:104f3c0023a220008081410065a2200080824200d3
:104f4c004aa42000c703200007c3b90086037800d9
:104f5c00a6032000040037000082430002757a008b
:104f6c00860f500007003e001300e800800978000f
:104f7c008100e800810a7800594178000204e000c1
:104f8c00f5ff3a008040eb004086200001707c0069
:104f9c004f0578004f04be0000000600800078002a
:104fac00c01f2900c5ff070000000600889fbe0037
:104fbc008a9fbe008c1f7800010478000801440011
:104fcc0043ae2000828141008000eb008109780013
:104fdc00c3ad200002814100010978006601b900cf
:104fec007842b90082054200880444000aae2000d1
:104ffc00090545002ca220000906460081804500c9
:10500c00a108b0004089200060c078000080fb003f
:10501c00000d7800eb0f500003003e0012c0b300ef
:10502c006186200082707c00ec0f500004003a0076
:10503c0012c0b300e185200082707c00270037008d
:10504c000000e0004d003200b10f2000810f500035
:10505c0022003600d10f2000810f500010003200ca
:10506c0004003e00c10f2000810f500017003a00d1
:10507c0007003700e10f2000810f50000c003200b8
:10508c00f10f2000810f500010003a000c00370087
:10509c00880078006090200088ff07000b00370024
:1050ac0088007800c090200084ff070007003700bc
:1050bc00880078002091200080ff07000300370053
:1050cc0088007800809120007cff070011002000f0
:1050dc0040ae200001b07c0022003700f40f5000dd
:1050ec0007003a00880078007021290073ff070040
:1050fc001100200040ae200001b07c0019003700e8
:10510c00f40f500017003e004200dd00e199200032
:10511c00010140001200780092009000a2702d0056
:10512c0033c22300ddf00700080178006efe070093
:10513c001c8ee9001a00780000004000a16b2900c9
:10514c0061007800880078005cff07008800780018
:10515c00a021290059ff07001100200040ae2000bb
:10516c0001b07c00c0ad2000090040009000e800b8
:10517c0001087800e58f5000a0ff360008004400bd
:10518c0041ae2000610078000000e0000200320017
:10519c00080078003af907004f0678004f05be006a
:1051ac004f04be0000000600889fbe0080047800fb
:1051bc000007200009004000418920006140780070
:1051cc000004e000350032002086200060c07c0026
:1051dc000004e00031003a0044c8bf00e54f500025
:1051ec002e003a0080ae200060c07c000004e0007d
:1051fc0027003a000980440088ad200000044400d8
:10520c00890078001800780068ff07001800780003
:10521c00c248dd0080804000a10bb0004289200014
:10522c00e2c078008140e90082ae200001f17c00f0
:10523c0003003b000041eb0081ae200082f07c00bb
:10524c00e30f50000d003e006601b900784ab9002a
:10525c0082004200a108b00042892000e2c0780020
:10526c000104e000050032008984440081ad200077
:10527c00898040008008e8000800370089844400d9
:10528c0080ad2000090040000008eb00030037004f
:10529c000040e90081ae200080f07c004f04be008d
:1052ac0000000600881f7800010478008800780050
:1052bc0002ff070008007800f1f8070008007800ea
:1052cc001ff807004f04780000000600889fbe00fe
:1052dc008a9fbe008c1f780080047800010478003f
:1052ec0002067800030578008a007800c0212900a6
:1052fc00ecff07008c0f54000d003c008805e90002
:10530c00c25ddd008b854400c92129000a017800ab
:10531c005b00be00f4fd07008a00780009007800ed
:10532c00e6fe07000804e800880f5600f7ff3d0072
:10533c008a00780070212900daff07004f067800f8
:10534c004f05be004f04be0000000600889fbe0043
:10535c008a9fbe008c1f780000067800010478003c
:10536c00820578008304780089007800c021290028
:10537c00ccff07008b0f54000f003c000805e90020
:10538c000a0545000a054600cc2129005a00780080
:10539c00cf80de001ef0070009017800d2fd070067
:1053ac00890078000c007800c4fe07000804e800af
:1053bc00888f5500f5ff3d00890078007021290089
:1053cc00b8ff07004f0678004f05be004f04be0023
:1053dc0000000600881f7800000478008800780020
:1053ec0070212900afff070088007800f021290008
:1053fc00acff07008800780030232900a9ff0700c4
:10540c0088017800620020001100200060892000d3
:10541c00aeff07008800780070212900a1ff07006b
:10542c0088007800d02629009eff070088017800ac
:10543c00c20020007100200060892000a3ff07003b
:10544c00880078007021290096ff070088007800fa
:10545c00702a290093ff07008801780012012000b0
:10546c00d10020006089200098ff07008800780098
:10547c00702129008bff070088007800702d29000f
:10548c0088ff0700880178006200200011002000ce
:10549c00208e2000adff07008800780070212900c5
:1054ac0080ff070088007800303129007dff07005d
:1054bc0088017800b200200071002000208e2000ae
:1054cc00a2ff0700880078007021290075ff0700f3
:1054dc00880078003034290072ff070088017800ba
:1054ec00f2002000c1002000208e200097ff070052
:1054fc0088007800903629006aff07008800780041
:10550c009037290067ff0700880078005038290081
:10551c0064ff070088017800520020001100200071
:10552c00e099200069ff07008800780070212900ad
:10553c005cff070088007800303b290059ff07000a
:10554c0088017800b200200061002000e099200062
:10555c005eff0700880078007021290051ff0700ca
:10556c0088007800903e29004eff070088017800e3
:10557c00f2002000c1002000e099200053ff07003a
:10558c00880078007021290046ff07008800780009
:10559c00c040290043ff0700880178003201200039
:1055ac0001012000e099200048ff070088007800e6
:1055bc00204329003bff0700b0468000c146800015
:1055cc000801780048fd0700880078001044290085
:1055dc0034ff0700e04a8000f14a8000080178009f
:1055ec0041fd070088007800f04429002dff0700da
:1055fc00c04b8000d14b8000080178003afd0700b9
:10560c0088007800e045290026ff0700004c800048
:10561c008000eb0081ef07000801780032fd0700e5
:10562c0088007800702129001eff07004f047800c5
:10563c0000000600889fbe008a9fbe008c9fbe00a3
:10564c008e1f780080047800010478000800780030
:10565c000dfd07004240dd004c49de00e1a22000b8
:10566c0082707800f1a220000100400001f02000bf
:10567c0081806400c888de00014878004240dd006b
:10568c0001a320000080400089007800010fb200c7
:10569c00c488de0001487800c240dd0010a3200061
:1056ac00008040006fc8640011c0b3004086200029
:1056bc0001707c000800440021a2200061007800e9
:1056cc00c203200002c1b9008200400003c3b30032
:1056dc0042a4200003f17800a1032000810f5000a8
:1056ec0004003e008800440022a2200081004100fa
:1056fc008008e8000800440021a220006100780026
:10570c00c203200002c1b9008200400083c7b3006d
:10571c0042a4200003f17800a1032000810f500067
:10572c0004003e008800440022a2200081004100b9
:10573c008008e8004240dd00daa220000a054000a3
:10574c001ca3200000064600080044002ba22000e9
:10575c00808545004da42000c003200000c0b90086
:10576c00000778009b0478005a00fb00bdf7070087
:10577c008900470080f67800a0032000808f540039
:10578c0001003e00890de8008c0f5500f5ff3a0032
:10579c008040eb004086200001707c004f077800b1
:1057ac004f06be004f05be004f04be0000000600b1
:1057bc00889fbe008a9fbe008c9fbe0000047800ac
:1057cc008800780010472900b6fe0700b04c800016
:1057dc00ea0f50000300360088007800504829007a
:1057ec00b0fe07009609e20004003a008800780039
:1057fc0070492900abfe07002f0037000800440059
:10580c0041ad2000008040000008eb009b4a2900bd
:10581c000800440049ad2000808444009c0720000f
:10582c00cd92290008007800c5f6070088007800a2
:10583c000b007800a1fd07009900780076804000ed
:10584c00000040006a9520006a007800880078000b
:10585c0078ff070088007800004b290097fd0700af
:10586c009900780076804000000040006a007800c3
:10587c008c0f500006003e000000e90000004000c4
:10588c006d007800880078008cfd0700030037005d
:10589c00880078004092290088fd07008800780075
:1058ac00702129007ffe07001900e800800c7800a9
:1058bc009609e300dbff3e0008007800a0f6070025
:1058cc00880078007021290076fe07008800780097
:1058dc00504b290073fe070088007800804d29008a
:1058ec0070fe070088007800504f29006dfe0700fd
:1058fc000005eb0019c0b3008b502900ec4f2900b8
:10590c000980fb005008b6000400320088007800c3
:10591c000c00780069fd0700030037008800780050
:10592c000b00780065fd07000a05e800e60f55003e
:10593c000200320089c44400f1ff3700880078006f
:10594c007021290057fe07004f06be004f05be0010
:10595c004f04be0000000600d621ef004a28ef00dd
:10596c00ea2aef00a199200091407800e5cf500081
:10597c000300320043c0b300a29920000349780011
:10598c0044e8b700d1e2a90000000600da21ef00dc
:10599c00d821ef00d621ef00e2c2a900d1e2a90084
:1059ac004a28ef00f86aef0000000600f7ff070036
:1059bc0020caa800b00020006bfb07000000060006
:1059cc00889fbe00b84e8000c94e80006011b800a0
:1059dc000800be004eee07006011b8000000e000a9
:1059ec0002003d000801be0003f0a200d04680007a
:1059fc00e146800046ee07000000e00009003d0093
:105a0c0030448000e50f50000400340050002000aa
:105a1c0055fb0700e5ff07008628ef008628ec0001
:105a2c0005003700304480000000e0000200340024
:105a3c000000e90030448800b84e8000c94e800058
:105a4c0090468000a1468000b2468000c34680008c
:105a5c0056f007000001be000800be002eee070045
:105a6c000000e00003003400600020003efb070053
:105a7c00ceff07004f04be0000000600f28747006f
:105a8c00889fbe008a9fbe008c1f78008e1f7800f6
:105a9c0060408000714080000200200003e0230081
:105aac0042f0070060408800714088006040800030
:105abc007140800002002000037024006eee07008d
:105acc006040880071408800604080007140800018
:105adc00020020000380230034f00700604088009f
:105aec0071408800604080007140800082418000dd
:105afc00934180002df007006040880071408800c1
:105b0c006040800071408000f84f80000950800098
:105b1c00020020008314240024f007000801be00ba
:105b2c005eee0700b04e8800c14e88006055b8008c
:105b3c006a4088007b408800804080009140800053
:105b4c000200200003e0230018f0070080408800ca
:105b5c00914088008040800091408000020020002d
:105b6c000370240044ee07008040880091408800b8
:105b7c0080408000914080000200200003802300c0
:105b8c000af0070080408800914088008040800027
:105b9c0091408000824180009341800003f0070017
:105bac0080408800914088008040800091408000b7
:105bbc00185080002950800002002000831424001b
:105bcc00faef07000801be0034ee0700d04d880044
