:020000040000fa
:080000000001040000000000f3
:020000040000fa
:04000c006802000086
:020000040000fa
:040010007802000072
:020000040000fa
:040014007002000076
:020000040000fa
:040018008002000062
:020000040000fa
:040024009002000046
:020000040000fa
:0400280014070000b9
:020000040000fa
:04003400d40b0000e9
:020000040000fa
:040040003a0700007b
:020000040000fa
:04004c00860f00001b
:020000040000fa
:04005000c8010000e3
:020000040000fa
:04005400640a00003a
:020000040000fa
:04005c00640200003a
:020000040000fa
:04006000b8020000e2
:020000040000fa
:04006800f00600009e
:020000040000fa
:04007c006c04000010
:020000040000fa
:0400800096020000e4
:020000040000fa
:04008800620f000003
:020000040000fa
:04008c00140200005a
:020000040000fa
:0400d400880200009e
:020000040000fa
:100200002fc120000eff20000e018800000000001a
:10021000000020000000e000020032000001200089
:1002200020028800140007004a0707000000e000d1
:1002300003003a0060e225000100200002003700c0
:100240000000200001002000810f7000010032003a
:1002500014000700000020000000e000020032004f
:100260000000020000000000ae5d0200000000007f
:100270000040da000000fe004440a900c02c21002c
:100280000000e0000300320000002000a001880010
:100290004440a800000006008a1f78008b1f7800e9
:1002a0000000060091018800800478000000eb0047
:1002b0001a003700e284440032a0b4009905ba0065
:1002c000e284440032a0b4009906ba00e2844400fb
:1002d00032a0b4000006eb00476fde00fd07b2005d
:1002e000636ce10003003a00ebff07000000eb0045
:1002f0000a003700606ce10004003a00005deb008a
:100300008b05e900fdff3e00040037006168e10055
:10031000010032000086eb000b00070019c7ba008d
:100320001905ba000e04e00003003a000a00e000dc
:10033000e0ff3a0000000600fe07b2009e018800c0
:100340008a047800f5ff3700395dba008b05e900b3
:100350000c003200295dba008b05e900080032006c
:100360000c00e00003003a00e284440032a0b40034
:10037000f5ff370019ddba008b05e900faff3a00f6
:100380008904e800e184440032a0b40000000600c3
:100390003600f800809fbe00829fbe00849fbe0092
:1003a000869fbe008540a9000fc2bf000018a300b1
:1003b00015003a00d1438000b0af200060c0780043
:1003c0000004e00010003200aa48e2000e003200f3
:1003d000b2af2000028140000000fb0080108800c6
:1003e0008100e8000fc2bf000018a30005003a001a
:1003f000524078000004e000f7ff3a00d143880043
:1004000001003700d14388000000eb00761407009c
:100410004f03be004f02be004f01be004f00be00a2
:100420003600f900004006003600f800809fbe004c
:10043000829fbe00849fbe00869fbe008720a900c9
:1004400019c2bf000018a30017003a00e143800062
:100450004006200001004000b2af2000624078005a
:100460000004e00010003200ab48e2000e00320051
:10047000f2b52000028140000000fb00d01088008f
:100480008100e80019c2bf000018a30005003a006f
:10049000524078000004e000f7ff3a00e143880092
:1004a00001003700e1438800100020004e140700cf
:1004b0004f03be004f02be004f01be004f00be0002
:1004c0003600f9000040060085a0a90000400600a3
:1004d000fa0aa8008020a9000000fe0000400600e3
:1004e000fa2aa8008040a9000000fe000040060093
:1004f000fa4aa8008060a9000000fe000040060043
:10050000fa6aa8008080a9000000fe0000400600f2
:10051000fa8aa8008960a9000000fe0000400600d9
:10052000faaaa8000000fe00004006003600f8000d
:10053000809fbe00829fbe00849fbe00869fbe003b
:1005400086c0a9006a68ec000000eb00341f0700b9
:1005500010002000321f07004f03be004f02be00f4
:100560004f01be004f00be003600f90000400600fb
:100570003600f800809fbe00829fbe00849fbe00b0
:10058000869fbe0085c0a900a00020000140fe009b
:100590000000e900fdff3a000842e20009003d00ca
:1005a000618b2000914078008180fb0010042000c6
:1005b000c61b070008e2a900b668ef000642a800c3
:1005c000bf003700b6c8bf000080fb008000eb0012
:1005d00062005000e0805800ea0f5000e08f5800a1
:1005e000b4003e00006001000a0037001f00370021
:1005f00027003700300037003c0037004500370047
:10060000490037005a0037006b0037009d00370063
:10061000a600370006c2bf000008a30006003a008b
:100620000602a80030c0b300b6e8b7000001200001
:1006300040608800a200370008c2bf000038a30055
:1006400005003200110f2000f00320009f1b07005f
:10065000b668ef009a00370021002000f003200068
:100660009a1b0700b668ef0095003700b0c8bf00be
:100670000080fb00000040001010880040c0b30064
:10068000b6e8b70000012000406088008c00370009
:100690000942e20006003d00410020003004200035
:1006a0008a1b0700b668ef0008acef008400370033
:1006b00050c0b300b6e8b700b1c8bf000080fb006f
:1006c000101088000001200040608800f7cabf00b9
:1006d0000038a30003003a0090c0b300b6e8b700aa
:1006e00077003700b668ec00750037000942e20079
:1006f00006003d006100200030042000731b07004d
:10070000b668ef0008acef006d00370070c0b300b2
:10071000b6e8b7000622a800b668ec000001200089
:100720004060880066003700f7cabf000038a300a9
:1007300005003a00b0c8bf000080fb000000400088
:100740001010880005003700b0c8bf000080fb0013
:10075000000040000000a0001010880090c0b3000e
:10076000b6e8b70000012000406088005400370060
:100770000942e20006003d00910020003004200004
:10078000521b0700b668ef0008acef004c003700c2
:10079000a0c0b300b6e8b7000001200040608800a8
:1007a000f7cabf000038a300030032000662a800a9
:1007b000f78aa80042003700f7cabf000038a3003c
:1007c0001c00320090458000a1458000810f500040
:1007d00018003100fd0f500016003e0072af2000df
:1007e000124178000248a3000f003200031080007d
:1007f00032bc2000037178008100e900810f5000b5
:1008000004003a0006a2a800c0c0b300b6e8b700d2
:100810000100370006a2a9000682a800f78aa900f5
:10082000b228ec0026003700f78aa8000662a8006c
:1008300023003700f7cabf000038a3000e003a00bb
:1008400091458000a0458000810f50000a003600cd
:10085000fd8f500008003e0030bc200060c07800d2
:100860000080fb0010108800b668ed008100e800f1
:100870009145880012003700b668ec0000012000a6
:10088000406088000942e20008003d00618b2000c2
:10089000914078008180fb00300420000b1b070092
:1008a000b668ef0008acef000500370006a2a9000b
:1008b0000642a800b668ef0008acef0007e2a90006
:1008c0004f03be004f02be004f01be004f00be00ee
:1008d0003600f900004006003600f800809fbe0098
:1008e000829fbe00849fbe00869fbe00889fbe0080
:1008f0008a9fbe008c9fbe000800fa0086a0a90057
:100900005d48e200840034001853800029538000c1
:10091000a2992900732c24000800be00900507004e
:100920000000e0000f003400f7cabf000058a30029
:100930000c003a0010c0b300931a07000001eb004e
:1009400061462a000080eb00741e070012002000a0
:1009500061462a000080eb00701e0700f60aa8001e
:100960006d00370002002000031c24000800be00b8
:10097000790507000000e0001e003d00f7cabf0037
:100980000058a3001b003200f6cabf000008a300f5
:1009900018003a000040eb007b1a07000001eb0052
:1009a00041442a000080eb005c1e0700120020007a
:1009b00041442a000080eb00581e0700f60aa900f7
:1009c0005d68ed005d48e20008003a000001eb00c0
:1009d000914d2a000080eb00501e070012002000fd
:1009e000914d2a000080eb004c1e0700711a070091
:1009f0004900370002002000831c24000800be00cc
:100a0000570507000000e00016003400f7cabf00d9
:100a10000058a30013003200f6cabf000008a3006c
:100a200010003a000040eb00571a07000001eb00ed
:100a3000a1482a000080eb00381e070012002000a9
:100a4000a1482a000080eb00341e0700f60aa90026
:100a50008000eb00400420009c1a07005d68ef0056
:100a60002d003700f7cabf000058a30003003a006a
:100a7000f6cabf000008a30007003a00b053800088
:100a8000c153800002002000030424003205070047
:100a90000000e00020003d000040eb003a1a070093
:100aa0000001eb00a1482a000080eb001b1e07009c
:100ab00012002000a1482a000080eb00171e07004a
:100ac000f60aa900f7cabf000058a30007003a00c1
:100ad000f6cabf000008a300040032001100200085
:100ae00050042000791a07000a003700b053800034
:100af000c1538000020020000304240016050700f3
:100b00000000e00003003d00210020005004200010
:100b10006e1a07005d68ef005ac8bf00e44f50002e
:100b200009003400f9cabf000048a30004003200e5
:100b30005368ef0050c0b30006ecb7000f00370059
:100b4000a41207000d0037009009e2000b003500e9
:100b5000064ce20008003c00b0c3b30006ecb7004e
:100b60005348e20002003c00f82aa80003003700c6
:100b70005368ed0001003700066ced00d85380008b
:100b8000e95380006011b8000800be00f4040700bb
:100b90000000e00001003c006044b800b054800058
:100ba000e0bf9f00c1548000f1bf9f003c53800014
:100bb0004d538000b0538000c0bf9f00c1538000e0
:100bc000d1bf9f00f6cabf000008a3002600320074
:100bd0006a4b80007b4b80000200200003f82b0052
:100be0000a00be00de0407000000e0001e00340022
:100bf0000c01be006fb89700ffb89700ff06070012
:100c00000006be000801be004fb89700dfb897008d
:100c1000fa0607000001be000c00be002a0507000e
:100c20000001be0003f0a2000a00be00cc040700d1
:100c30000000e0000c003400074ce20008003c001b
:100c40005448e20003003c00f60aa900f64aa80056
:100c5000030037005468ed00b0c3b30007ecb700e1
:100c6000076ced00040037009249ed0054e8b7002e
:100c7000b0c3b30007ecb700a0478000817020002c
:100c8000810f50000b003a00a185200091407800b0
:100c9000e1cf500007003400ca1a0700e10f5000ee
:100ca00002003a0010c0b3005ae8b700f428ef0081
:100cb00006003700a185200091407800e1cf500068
:100cc000020034000000e800a04788005ac8bf00b6
:100cd000e34f5000110032005ac8bf00e14f5000ee
:100ce0000e003400f408e2000c003200e91a07009c
:100cf0000000e000090032005f210700b0478000db
:100d0000e40f50000300340010c0b3005ae8b700ed
:100d1000020037000000e800b04788005ac8bf0052
:100d2000e34f500024003a00904b8000e10f500048
:100d300021003c00f7cabf000008a3001e003a00d3
:100d40004e48e2001c00340090568000a1568000fe
:100d50000200200003f02300810407000000e000ef
:100d60000200340020002000904b8800b056800024
:100d7000c15680000200200003f023007804070021
:100d80000000e0000200340030002000904b88009a
:100d9000d0568000e15680000200200003f02300be
:100da0006f0407000000e000020034004000200053
:100db000904b8800bc1807000080fa004f06be0068
:100dc0004f05be004f04be004f03be004f02be00e1
:100dd0004f01be004f00be003600f9000040060083
:100de0003600f800809fbe00829fbe00849fbe0038
:100df000869fbe0055200700f8caa8008000eb00bf
:100e000090032000b11907004c1807008600a900c4
:100e10004f03be004f02be004f01be004f00be0098
:100e20003600f900004006003600f800809fbe0042
:100e3000829fbe00849fbe00869fbe0043200700a5
:100e4000f8caa8008000eb00a00320009f1907004b
:100e50006828a800391807008400a9004f03be00c5
:100e60004f02be004f01be004f00be003600f90029
:100e7000004006003600f800809fbe00829fbe0042
:100e8000849fbe00869fbe00889fbe008a9fbe00d2
:100e90008c9fbe008e1f780084c0a900a1e2a8002c
:100ea000406080000000e000030034000000e90022
:100eb000406088000a0037000000e00008003a00a7
:100ec000618b2000914078008180fb0000042000ad
:100ed0007e19070008acef00b668ef0007e2a90032
:100ee000e0c2bf000018a30003003a004006200043
:100ef0001060880006003700020ce2000400340095
:100f00005ac8bf00e34f500001003200022ced0030
:100f1000b04c8000e10f50001f00320003003c0085
:100f20000000e0000600320051003700e20f5000e0
:100f300024003200e30f50004d003a003700370024
:100f4000e0c2bf000018a30011003a005cc8bf0057
:100f5000f04f500009003a00f6cabf000008a30095
:100f600002003200f60aa90001003700f60aa800c4
:100f700010c1b3005ce8b7003d0037005cc8bf009b
:100f8000ef4f50003a003c005c68ec00380037003e
:100f90005c68ef0036003700e0c2bf000018a30015
:100fa00005003a00f6cabf000028a30002003a007c
:100fb000f60aa8002e003700f60aa900f64aa90092
:100fc0002b003700b8538000c95380000200200076
:100fd000030824000800be00e10307000000e00051
:100fe00005003400f6cabf000028a30002003a0042
:100ff000f60aa8001e0037000200200003f82300b4
:101000000800be00d40307000000e00018003d0007
:10101000f60aa900f64aa90015003700b853800067
:10102000c95380000200200003f823000800be001e
:10103000c90307000000e00005003d00f6cabf003c
:101040000028a30002003a00f60aa80008003700b2
:1010500002002000030824000800be00c0030700af
:101060000000e00002003400f60aa900f64aa900d8
:10107000f6cabf000008a300040032004cc8bf003d
:10108000e14f500001003c004c68ec0058558000d6
:10109000695580006011b8000800be00b003070069
:1010a0000000e00017003400f6cabf000008a300eb
:1010b00014003200b0548000c1548000e0120700d8
:1010c0000001be000800be00a30307000000e0000e
:1010d0000c003d006808ab000a0032004bc8bf009e
:1010e000e84f500006003400f60aa9008000eb002b
:1010f000f0022000f5180700f8caa8000100370028
:101100004b68ec009b4b80000b00e00013003400a8
:10111000684a8000794a80000005eb00cca52000d9
:101120004251dd002202b0000201460012007800a8
:10113000920090000801be00870307000000e00055
:1011400003003d006808ab0001003200f60aa90068
:101150000a05e8008b0f5500f1ff3500105580009f
:101160002155800092538000a3538000a3050700ff
:101170007054880081548800f8cabf000048a3005a
:10118000700032004dc8bf000005eb00e74f500073
:1011900026003c000a047800ebab2000cca5200020
:1011a0004242dd00048545001a00be002402b00062
:1011b000040246001401780094019000cb0307005c
:1011c000008dbe000804e800e40f5400f4ff3a006c
:1011d000e2408000f3408000d0538000e153800063
:1011e000c2030700e0408800f140880042418000cf
:1011f00053418000b0548000c1548000bb030700fd
:101200004041880051418800624180007341800064
:101210003053800041538000b403070060418800d0
:10122000714188004d68ec0046003700edab2000ae
:101230000800200009e02300eeac20004256dd004b
:101240008c8546001b00be000801be006b05070030
:10125000808dbe000c0647003b1e78002b167800e0
:101260000a05e800e40f5500f4ff3a00e040800072
:10127000f14080000200200003e023005f0507002a
:10128000e0408800f1408800e0408000f1408000ac
:10129000c0408800d140880040418000514180001a
:1012a0000200200003e023005405070040418800ad
:1012b0005141880040418000514180001055880014
:1012c00021558800604180007141800002002000ab
:1012d00003e0230049050700604188007141880050
:1012e000604180007141800090538800a1538800c4
:1012f0006000b800f055880001568800105688003c
:101300002156880030568800415688005056880083
:1013100061568800e0408800f14088006041880004
:101320007141880040418800514188004d68ef00bc
:101330008c2007004ec8bf00e14f500001003c0068
:101340004e68ec006808ab0007003200f8cabf0026
:101350000048a30004003200f8cabf000068a300e0
:1013600001003a003e1f07006808ab000900320088
:10137000f8cabf000048a30006003200f8cabf0048
:101380000068a30003003a004e48e2000100340068
:101390005f2107006808ab0007003200f8cabf00f1
:1013a0000048a30004003200f8cabf000068a30090
:1013b00001003a00f51e07004e48e2000f0034001d
:1013c000105580002155800092538000a353800067
:1013d0000a0507001a1207000004be0070538000bf
:1013e000815380000801be00db0207000000e0001e
:1013f00002003d007853880089538800b85480006b
:10140000c95480000800be000d12070072712b0045
:1014100013952300d20207000000e0001100340001
:1014200012052a00138123000800be00f304070000
:101430000004be00c04f8000d14f80000801be00f4
:101440002a030700c04f8800d14f8800e24f800078
:10145000f34f80000800be0024030700e04f88001f
:10146000f14f880005ccbf000040400005ecb700fc
:1014700005ccbf00e84f50000800340010c0b30096
:1014800005ecb700f7cabf000018a3000200320045
:10149000f72aa90001003700f72aa800da17070089
:1014a0004f0778004f06be004f05be004f04be0038
:1014b0004f03be004f02be004f01be004f00be00f2
:1014c0003600f900004006003600f800809fbe009c
:1014d000829fbe00849fbe00869fbe00889fbe0084
:1014e0008560a900dc82a800552207004fc8bf0014
:1014f000e14f500069003c00f8cabf000038a3006b
:101500005100320000148000884080009940800023
:101510008000eb00d30207000801be00f3020700c1
:10152000804088009140880010148000a84080000e
:10153000b94080008000eb00ca0207000801be002d
:10154000ea020700a0408800b14088003014800003
:1015500028418000394180008000eb00c102070073
:101560000801be00e10207002041880031418800e7
:1015700020418000314180000041880011418800f5
:10158000f856800009578000401480008000eb006e
:10159000b40207000001be000800be00d30207002d
:1015a000f05688000157880018578000295780009e
:1015b000501480008000eb00aa0207000001be006a
:1015c0000800be00c9020700105788002157880094
:1015d0003857800049578000601480008000eb007d
:1015e000a00207000001be000800be00bf02070005
:1015f000305788004157880058578000695780004d
:10160000701480008000eb00960207000001be000d
:101610000800be00b50207005057880061578800d7
:1016200080148000c8408000d94080008000eb001a
:101630008c0207000801be00ac020700c040880011
:10164000d1408800130037006000b8008040880057
:1016500091408800a0408800b14088000041880087
:10166000114188002041880031418800f0568800ef
:10167000015788001057880021578800305788008c
:10168000415788005057880061578800c040880043
:10169000d14088004f68ec001c003700f8cabf003a
:1016a0000038a30007003200e0418000f1418000d3
:1016b0006011b8006d0207000000e0000100320078
:1016c0004d1007004f68ef006808ab0001003200c2
:1016d000ea2207005ac8bf00e24f500009003c0050
:1016e000f8cabf000038a30006003200020ce20076
:1016f00004003a00a1e2a900dc82a900f86aa9006e
:1017000001003700f86aa800ee1107005ac8bf00b0
:10171000e34f500005003c00020ce20008003400da
:101720005ac8bf00e34f5000050032006808ab0004
:101730000300320010c0b300de14070013003700ae
:101740006808ab0006003a00f7cabf000008a30013
:1017500003003a0040c0b300d61407000b00370066
:101760005ac8bf00e14f5000060032005ac8bf00ff
:10177000e34f50000300320020c0b300cd14070037
:10178000020037000040eb00ca1407004f04be00ff
:101790004f03be004f02be004f01be004f00be000f
:1017a0003600f900004006003600f800809fbe00b9
:1017b000829fbe00849fbe00869fbe00889fbe00a1
:1017c0008a9fbe008c9fbe008e1f7800ee87470068
:1017d0008460a9001855800029558000e04a8000e7
:1017e000f14a8000024b8000134b80000304070085
:1017f0000200200003f42300000407000001be00e3
:101800000800be00d60107000000e000020034001e
:10181000f6eaa80001003700f6eaa9009d4b800017
:101820000d00e0004a0034000004eb00e8bf9f0018
:101830000a0020008b2c2400ecac20000807780064
:101840004240dd00000046001000be000a01be005c
:10185000c10107000000e00004003d004240dd003f
:10186000000046001005be00080778000804e800e4
:101870008d0f5400f2ff3a000e007800e0bf9f0089
:10188000404a8000514a8000a2702d0033ba2300e4
:10189000160207000004be000006eb00ccbf9f004c
:1018a000eeac20004260dd00000047001000be00ea
:1018b0000801be00aa0107000000e000200035007a
:1018c000f7cabf000008a3001d003a00efb8970058
:1018d0008c8f50001a003200e10f56000d003200cc
:1018e00003003c000c00e00006003200140037004a
:1018f000e20f56000b003200e30f560010003a00d2
:101900000c0037004fb997000200a000c2bf9f0033
:101910000b003700cfb997000310a000c3bf9f0092
:10192000070037004fb897000020a000c0bf9f00fd
:1019300003003700cfb897000130a000c1bf9f005f
:101940000c06e8008d0f5600d6ff3a000400370061
:101950000a0020008b2c24000001eb00c2bf9f0076
:101960000ff897006ce8b7000ec2bf000018a30084
:101970000b0032008000eb00d0022000d3160700dd
:101980000ec2bf000008a3000400320090108000c7
:101990000ec2bf000008a300fcff3a000e22a900ff
:1019a00018c2bf000018a3000b0032008000eb003b
:1019b000e0022000c516070018c2bf000008a300ff
:1019c00004003200e010800018c2bf000008a3002d
:1019d000fcff3a001822a900ad1e0700b82307003b
:1019e000b62007005ac8bf00e24f500003003c0079
:1019f0001000200080488800f8caa9009e4b800093
:101a00000e00e000120034000006eb000800200089
:101a1000892c2400edac20004260dd0000804600ef
:101a20001000be000801be004b0107000000e000ee
:101a300003003d004260dd00008046001004be004f
:101a40000c06e8008e0f5600f3ff3a000200370044
:101a500008002000892c2400404a8000514a800060
:101a60000200200003082400640307009253800052
:101a7000a353800094010700711007000006be0008
:101a800010558000215580006d100700e0bf9f00b9
:101a9000f1bf9f00e04a8000f14a8000024b8000c5
:101aa000134b8000550307000001be006fb897007c
:101ab000ffb8970072020700e0bf9f00f1bf9f00d0
:101ac000d0548000e154800002002000831c2400d8
:101ad0007d0107005a100700a0bf9f00b1bf9f0003
:101ae00052c8bf00e14f50001e003200f6cabf00ce
:101af0000038a3001b00320013538000c3bf9f00b7
:101b000020538000d0bf9f0002002000831c2400cf
:101b10004fb89700dfb897000f0107000000e00002
:101b200010003d0002002000031224002fb897008f
:101b3000bfb89700080107000000e00009003d0061
:101b400010c0b30052e8b700f829ef00fa29ef00ff
:101b50004fb99700dfb997002242880033428800ce
:101b60003400370052c8bf00e14f500031003a0046
:101b7000f9cabf000068a3002e003200d2cc2c00ae
:101b8000c3d423000c00be00f30007000000e000f7
:101b900054003d00a2702d0033c223006fb897009f
:101ba000ffb89700ec0007000000e00021003d00b6
:101bb00002002000031224002fb89700bfb897003e
:101bc000e50007000000e0001a003d0020c0b3005f
:101bd00052e8b7002242800033428000cc4f8000a0
:101be000dd4f800000002000812c2400360107001a
:101bf0000001be0000002000812c2400200207000c
:101c00000001be000c00be00fc0207000006be0082
:101c1000804f8000914f80000c01be00d000070073
:101c20000000e000100034008c4f88009d4f8800b9
:101c30000d003700d2cc2c00c3d423000c00be0012
:101c4000c50007000000e00026003d00a2702d0046
:101c500033c223006fb89700ffb89700be0007009b
:101c60000000e0001f003d000200200003122400dd
:101c70002fb89700bfb89700b70007000000e0003a
:101c800018003d000a01be000800be000e0107005a
:101c90000004be00d2cc2c00c3d42300ae00070049
:101ca0000000e00002003d00f9caa800090037006a
:101cb000d2cc2c00c3dc23000800be00a800070023
:101cc0000000e00003003400f9caa90020c0b300fe
:101cd00052e8b700804f8000914f8000e04f8800ad
:101ce000f14f8800c04f8000d14f8000d40f070013
:101cf000a04f8800b14f8800f6cabf000058a3006b
:101d00001600320059c8bf00e34f500013003a00dc
:101d1000e84f8000f94f80006011b8000800be0055
:101d20008d0007000000e00003003d00fc29ef00eb
:101d3000fe29ef00090037008a4f80009b4f80008a
:101d40000a01be000800be00850007000000e00098
:101d500002003400ea4f8800fb4f8800804f80006b
:101d6000914f80006011b8007b0007000000e00088
:101d700004003a0073712b00834f8800138d2300f9
:101d8000934f88008a4f80009b4f8000e04f800077
:101d9000f14f80000a01be00b901070002002000d7
:101da000832c2400950207001053880021538800db
:101db0001855800029558000f2282c0053c72300b5
:101dc0000800be00660007000000e000320034009a
:101dd000f6cabf000038a3002f0032000c5080006c
:101de0001d50800002002000135624000800be0091
:101df000a30107000001be000c00be00bb000700ed
:101e00000001be0000508800115088000a00be008a
:101e1000510007000000e0001f003c00002aef0016
:101e2000022aef0020508000e10f40000200320043
:101e30000000e80020508800a04b80006500b90039
:101e4000cf80de00840007000004be006011b800ef
:101e5000410007000000e00002003a0008002000f6
:101e600009f823000801be000000200001f823004b
:101e7000830107000001be000000200001f82300dc
:101e8000910007000001be000a00be005b020700cf
:101e9000804f8800914f8800ef00b1004f07780015
:101ea0004f06be004f05be004f04be004f03be00ec
:101eb0004f02be004f01be004f00be003600f900c9
:101ec000004006003600f800809fbe00829fbe00e2
:101ed000849fbe00869fbe008700a90018c2bf0075
:101ee0000008a3000200320010002000c3230700f6
:101ef000b80d07004f03be004f02be004f01be00e9
:101f00004f00be003600f900004006003600f80021
:101f1000809fbe00829fbe00849fbe00869fbe0041
:101f20008520a9000ec2bf000008a30002003200f5
:101f30000000eb00b1230700a60d07004f03be0011
:101f40004f02be004f01be004f00be003600f90038
:101f5000004006000000050014002000af03370019
:101f6000f4ff2f00ad0337000001be004100070061
:101f70000470a70003f0a1006509b100160032004b
:101f80000d0035006828e10006003500f0ff2f0045
:101f9000f1ff27000300e00013003b0001002800d0
:101fa0000000050000004000818048008502e90033
:101fb000fcff3a0008003700f88f420002003c00a6
:101fc0008000eb00000005008100d1000080d300fc
:101fd0008502e800fcff3a000300e00002003b003d
:101fe00060001000e0801800000006000001be0044
:101ff000200007000470a70003f0a10003f8a3006d
:1020000013003a006509b1001000320009003500e4
:102010006928e100020035000100280000000500e9
:1020200000004000818048008502e900fcff3a0082
:1020300000000600f88f4200050035008100d10045
:102040000080d3008502e800fcff3a000000060093
:102050008000eb00000005004f89de00820178005f
:10206000890337006011b80097033700040020008f
:102070006a033700c70ade00f107b200f50fb200ad
:1020800008003200e1cf4200020032000170a000df
:1020900024000500810f70000100320004080500d3
:1020a00044000500810f700002003a001400050092
:1020b0008502e9000000400081c04800fcff3b00b1
:1020c0000170a0002400050007f8270007836100c5
:1020d0000638e10004003a00f7072000878361001a
:1020e0008703710001003a0003f0a200889fbe0040
:1020f0008a9fbe008c9fbe00470ade000480a100bc
:10210000c71ade000580a1000700280007856000cf
:1021100087856100f70f20000720e1009e00320054
:102120000728e1009c003200010678000400e0006e
:10213000b4003200f7072000878060000170a00023
:102140000500e000c0003200f70720008781610031
:102150000370a000050652000f003a000b50e1008a
:102160000b0032000308e10002003a000200e10027
:102170007e003200020450008384580004003100c5
:102180000001fd008101fd008402fd008a05fd00c3
:102190006044b800210037000520e10005003d0043
:1021a0000001fd008101fd008402fd008a05fd00a3
:1021b000050652007a60e100050035000170a100bb
:1021c0004722dd00848070008a8070006300370041
:1021d0006044b800ef02660007ff2f0007066600a4
:1021e0000500e00006003400f08312008714dd00d3
:1021f0000511de00071bdd00060171008519de00f8
:102200007060e10005003500090478008204780060
:10221000030178008001eb00700656000b50e100ce
:1022200003003a00020040008380480004003700a9
:1022300060041400e0841c000200580083805800f1
:102240000188a300060032008100d1000080d30085
:102250008984d3000884d3000402e80027003700f3
:102260000178a30025003a000100e00003003200dd
:102270008186cf00698656000a0037008c00200056
:102280000000e00004003a000900780088047800ab
:102290000004eb00700252008086cf000d0646005d
:1022a0000c06e9007060e10006003500800078004f
:1022b00009007800880478000004eb0070065600de
:1022c000700252000c00e0000c0034008c08dd00ad
:1022d000f00316000703de00868070000c00dd00ae
:1022e000074bde00060070008c4cdd000743de006b
:1022f000868474000c44dd000c0252006120e10071
:10230000200035006101600007002800878164001b
:10231000f7ff270087836400070374000300e000d1
:102320000600320082037300040032000000e8005f
:10233000e08048000188a3000e003a00f70f20005b
:102340000720e1004a003d000170a1004722dd00a6
:10235000810072008a8070000000be004f06be003f
:102360004f05be004f04be00000006006000b8002c
:10237000faff37008100d1000080d3000402e8009a
:10238000eeff37000401780089017400a101070005
:102390008a807000f1ff3700f7010700070278001c
:1023a0000001fd008101fd00f301070087027800b4
:1023b000850372000778a300040032000001fd00cd
:1023c0008101fd0006020700e4ff3700850362007b
:1023d0000768a300080032000b50e1000300320040
:1023e000f0ff2f00f1ff2700dcff37000001fd00a8
:1023f0008101fd00d9ff37000468a300d7ff320038
:10240000faff3700f8ff2700888360000b003a00ce
:102410000000e00009003a00830364008283730037
:10242000020032000200be00ccff37000b50e1007a
:10243000ceff3a000200be00c8ff370014002000a3
:10244000810064003eff3700f8ff270088836100a9
:1024500004003a000200e00002003a008c0078001c
:10246000beff3700150020008301640039ff3700ec
:1024700001f827000000200081007500b7ff370039
:10248000889fbe008a9fbe008c9fbe001b0020005c
:102490000202be00058668000600280006066600e7
:1024a0004709de00f20fb200820032000243e8006a
:1024b00080003200c729de00f30fb2007d00320039
:1024c0000343e8007b003200f107b2000170a00076
:1024d000f507b2000570a000c708dd004903de0063
:1024e000868070004700dd00c72add004923de003a
:1024f000868272004722dd0003055100040350006c
:1025000085835800030031000000400081804800ae
:102510000a05e9008c1f78008a9fbe000400500065
:10252000858058000402420085824a000000400075
:10253000818048000005eb000004be006033b80055
:102540000406be000d48e1005600310011000900ec
:102550004dccd8000c01b8000d02b80084814100b8
:1025600060824a008283530003045c0084845c0020
:1025700060055d000a00e00025003a008005780053
:102580000d40e10049003100880078000700780024
:10259000110009004d88d8000c01b8000d02b800e8
:1025a0008481410060824a006003110083835b00e4
:1025b00004045c00e0845c000900e00021003a00b3
:1025c0004f01be000300e0002b003200e301600079
:1025d000070673008c8171000100320064007000f6
:1025e0004200de004e5edd000c007000c258de00ce
:1025f00001e0a00083010700cf0178008180710015
:102600004f06be004f05be004f04be00000006008e
:102610008c8343000d044c00e0844c0060054d00a9
:102620000000e9000a00e000d4ff32008c83430080
:102630000d044c00e0844c0060054d000000e900f2
:10264000ceff37000c0343008d834b0060044c0029
:10265000e0844c000000e9000900e000d8ff3200ef
:102660000c0343008d834b0060044c00e0844c005d
:102670000000e900d2ff37004200de004e5edd00c0
:102680000c007000c258de0001e0a000cf0178000d
:102690000300e000daff320060001000e080180064
:1026a000d7ff3700f0ff2f00aaff3700f0ff2f0001
:1026b000b9ff37000404be002f0107008706780029
:1026c0000004fd008104fd002b0107000783660064
:1026d0000678a300030032000960a7000800be00ce
:1026e0002c0037000d78a300020032000800be0065
:1026f000280037000778a30026003a0001f0a10067
:1027000009f0a1000668a30003003200f1ff2700d2
:10271000f0ff2f00baff37000d68a300030032005e
:102720000800be008c807000b5ff37000768a3006a
:1027300007003a000648a30003003200f1ff27001b
:10274000f0ff2f00aeff37000d48a300030032005a
:102750006000b8008c807000a9ff37000748a30014
:102760000400320001f82700000020008c80700077
:10277000a3ff3700760107000004fd008104fd007f
:1027800002057800720107000802be008a01780085
:1027900059ff37000160a00012022000826088000b
:1027a00097ff37000100e000120032000500e00052
:1027b00010003200889fbe008a9fbe008c9fbe0022
:1027c0000006eb0001f8a3000300320060001000d7
:1027d000e08018000cf0a00005f8a3000300320010
:1027e00060021200e0821a000cf0a2008005eb00eb
:1027f00041ff37006000b800020005000383680055
:102800000700280007036300470ade000480a100d8
:10281000c71ade000580a100f70f20000720e100a5
:10282000420032000728e10040003200889fbe00cd
:102830008a9fbe008c1f7800f107b200f307b20038
:102840000400e000640032000170a0000500e00018
:10285000680032000370a00085054200eb07b1005c
:102860000204b8000302b8008484440060854a0072
:10287000020ab800848444000a854a00030ab800aa
:1028800004054500040033000804d0008984d20008
:102890000a85d2008b05e9006158e1003d00350052
:1028a00002102000090161000308200089816100f5
:1028b000f70720008783640008867300c84cde0099
:1028c000c853dd00878474004855de000300e00033
:1028d0000600320082037600040032008904e8001a
:1028e00060054d000a88a3000c003a00f70f200095
:1028f0000758e10044003d000a70a100c75ddd00fb
:102900000a8575008a007300090078004f06780078
:102910004f05be004f04be00000006000a05d100ae
:102920008984d3008b05e800f0ff3700881f78000a
:102930000604780090000700070278000001fd00ff
:102940008101fd008c00070087027800850372007a
:102950000778a300050032000001fd008101fd00a1
:102960009f0007004f0478000000060085037200f6
:102970000748a30003003200f0ff2f00f1ff2700fb
:10298000f8ff37000000200001f827008880700061
:10299000f4ff3700880178004848dd00808171002d
:1029a0004848de00c850dd0001007000c850de005d
:1029b000060478000b01780016000700888070007c
:1029c000d2ff37000500e0000500320017002000ac
:1029d0003a0007009dff370081037000f9ff3a00bd
:1029e000860078004f0678004f05be004f04be00f9
:1029f0000000050083037100f9ff3200270020006a
:102a00002e00070094ff370001f827008680700031
:102a1000f4ff37000100e0002600320061011100e0
:102a20007810e10023003c006022b8007010e10043
:102a30000400350080027800010078008000eb007f
:102a4000700151000200e000090034007003110021
:102a5000062add00822ade008603dd0087827200fe
:102a60000200de00860bdd00070070008208de0039
:102a700084817100f4ff2700048262008481710068
:102a800004002800848262006102600005f0a60054
:102a90000000060004827100070032000000e80018
:102aa000e0804800000006000002be006000b800a0
:102ab000efff37006000b80000000600889fbe00ee
:102ac0000004eb006138e10016003a000100e0006c
:102ad00008003a00c800de004800dd008800200041
:102ae0000100e00003003a00c800de004800dd00fd
:102af000680444008184cf00e98454000600340057
:102b00008908dd00f08314008703de0087807000f1
:102b10000900dd0009044400610214004f04be00f6
:102b2000000006000300e00008003a00c811de00c3
:102b30004811dd00880020000300e00003003a0097
:102b4000c811de004811dd00680444008384cf0012
:102b5000e9845400060034008919dd00f083140074
:102b60008713de00878171000911dd00090444002c
:102b7000e1021400e9ff37002700200001f0a70060
:102b800017002000470bde00f60fb20004003200f1
:102b90000643e8000a0032004702b30000000600c6
:102ba00001037800f607b2000603700002003a0045
:102bb0000703b300000006008702b3000000060010
:102bc00001037800f607b20006037000020032002d
:102bd0000770a000000006000760a00000000600cb
:102be0000478a300040032000578a300030032003b
:102bf0000168a30001003a000200be000160a000cd
:102c00000000060081017000270032008002eb0006
:102c100001f8a3000300320060001000e0801800fb
:102c200015002000f40720000202420020003400ba
:102c3000f703200087036000060420000003630000
:102c400002082000000161004700de00c909dd0024
:102c500000807100c708de000600e00008003200b6
:102c600087037100060032001000b0000180b00040
:102c70000188a30002003200c108de000402e8005f
:102c8000f107b200f30f20000320e10003003d0034
:102c90004722dd00810072002900370001f827007b
:102ca0000000eb00260037006000b80000000600be
:102cb000680212007f20e100020034006000b800ca
:102cc0001f0037006011b8007020e10004003500db
:102cd00080017800010078008000eb007002520053
:102ce0000400e00009003400f00312000719dd00c1
:102cf0008419de000703dd00868171000400de0018
:102d0000070bdd00060070008408de00f7ff2700d7
:102d100083836300870371000600280003036300b8
:102d2000070032000700e00003003a006101600084
:102d300002817300020032001000b0000180b00078
:102d40000500a6000000060001f0a000000006003b
:102d50004f0ade004709de00f107b200f20fb200b1
:102d60000b003200f207b1000170a000c708dd00bf
:102d7000c901de00838070004700dd000400a6006a
:102d80000000060060001000e0801800000006004f
:102d9000810f700001003a00000006008182cf0020
:102da0000500e00010003e008082cf00ee8242006d
:102db0007028e1000400390007003e008000780020
:102dc0000000eb000e003700708312008600de006a
:102dd0000500dd000a003700708352008600dd0028
:102de0000000eb0006003700e28252008508dd009b
:102df000708312000603de00868070000500dd008f
:102e00007507b0000501ea000400a60000000600f6
:102e100060001000e080180000000600889fbe00df
:102e20008a9fbe00841f78007c0007004f00780056
:102e300011003300f0ff2f00838f6c0006003b0071
:102e4000040565000a00a7000800370009f0a60085
:102e50001000200008003700820f5400838f5c00b0
:102e6000030039001000200001003e000000200097
:102e700009f0a7000000ea004f05be004f04be00a5
:102e80000000e00000000600881f780003047800be
:102e90000300e00007003d0060001000e080180023
:102ea00060011900e081190002003b0001f02d00d3
:102eb000030037000400070008f0a70001f0a0009d
:102ec0004f04780000000600889fbe008a9fbe0065
:102ed000008270000402710004827100260032003a
:102ee0000004be000200be006011b8006b092000a3
:102ef000950220000182cf000a0039000541b1008f
:102f00000082cf00070039000541b1000982cf00df
:102f1000040039000541b1000882cf0001003900ea
:102f20000541b10005425200120032000a003b0088
:102f300082817100610164008100d1000080d300b2
:102f40008984d3000884d3008b05e8000442e8009c
:102f5000f7ff3a00070037000804440089844c005a
:102f600000004800818048008b05e9000442e90028
:102f7000f9ff3a00030007004f05be004f04be00f2
:102f80000000060081002000618055000b003d001c
:102f90000b00200061fe2f000100e1001d00340045
:102fa00082817100610164008904d1000884d3002a
:102fb0000000e800faff3a007100200061006400a0
:102fc0000300700002006000090032006104440048
:102fd000e0844c000988a500050032008b05e8005c
:102fe0006808e10002003a008904d1000884d30097
:102ff000f20f20000258e10005003d00c75ddd0032
:10300000f907b2008980750008007800000006000a
:103010000bf827008b007800000005000004be00bc
:1030200014fc07000003be000405be000200be0041
:0c30300010fc0700844f75000000060033
:020000040000fa
:10303c00556e0000616200006c6500003a200000d3
:10304c005365000074740000696e00006773000023
:10305c00204e00006565000064200000546f0000e5
:10306c0020420000652000004c6f0000636b0000e4
:10307c00656400002e0a00000d000000556e000073
:10308c00616200006c6500003a200000536500008e
:10309c0074740000696e000067730000204c00001f
:1030ac006f6300006b650000642e00000a0d0000c9
:1030bc0000200000002d00002d2d00002d2d000003
:1030cc002d2d00002d2d00002d2d00002d2d00008c
:1030dc002d2d00002d2d00002d2d00003a3a000062
:1030ec00007e00007e7e00007e7e00007e7e000062
:1030fc007e7e00007e7e00007e7e00007e7e0000d4
:10310c007e7e00007e7e00003a3a0000000a00003d
:10311c000d0000000a0d0000496e000064780000ec
:10312c003a2000005365000074740000696e0000c2
:10313c00673a000020200000202000002020000022
:10314c002020000020200000202000002020000073
:10315c00202000002020000020200000205600002d
:10316c00616c0000756500003a20000045640000a9
:10317c0069740000616200006c6500003a0a00008e
:10318c000d000000204c00004f4300004b45000098
:10319c0044000000205500004e4c00004f4300003e
:1031ac004b450000440000000a0d0000496e000071
:1031bc00766100006c6900006420000073650000fb
:1031cc0074740000696e000067200000696e0000d6
:1031dc0064650000782e0000204e00006f74000023
:1031ec00686900006e6700002063000068610000e1
:1031fc006e670000656400002e0000000a0d0000e0
:10320c004c6900006d6900007420000069730000b7
:10321c00206e00006f200000006d00006f72000037
:10322c006520000074680000616e00003a00000028
:10323c006c6500007373000020740000686100006e
:10324c006e3a0000000a00000d430000616e0000a1
:10325c006e6f00007420000063680000616e000057
:10326c00676500002e200000536500007474000098
:10327c00696e0000672000004c4f0000434b0000bb
:10328c0045440000000a00000d4f00007665000068
:10329c00722000007361000066650000206c000065
:1032ac00696d0000697400002e200000416200006e
:1032bc006f720000742e0000000a00000d55000013
:1032cc006e640000657200002073000061660000ef
:1032dc00652000006c6900006d690000742e000010
:1032ec0020410000626f0000727400002e0000008c
:1032fc000a0d00005365000074740000696e000034
:10330c006720000077610000733a0000000a00009b
:10331c000d2d00002d3e000049730000206e0000b2
:10332c006f7700003a0000000a0d0000496e0000a3
:10333c00647800003a2000005661000072690000b9
:10334c00616200006c6500003a2000002020000043
:10335c002020000020200000202000002020000061
:10336c002020000020200000202000002020000051
:10337c0020560000616c0000756500003a0a0000e0
:10338c000d0000000a0d0000526500006164000091
:10339c00696e00006720000046610000756c00003b
:1033ac00747300002e0a00000d000000466100003e
:1033bc00756c0000742000004c6f0000672000004a
:1033cc00467500006c6c00002e0a00000d00000019
:1033dc004e6f000020660000617500006c740000e8
:1033ec00206300006f640000657300002e0a00006b
:1033fc000d000000436f0000646500003a200000df
:10340c00002000003a3a00002041000074740000d3
:10341c007269000062750000746500003a200000bb
:10342c00002000002d3e000020000000466c000033
:10343c0061670000733a00003a7c0000536500009d
:10344c0074730000204c00004b7c00007c42000098
:10345c0061740000742000004f5600007c7c00005a
:10346c00426100007474000020480000567c00008b
:10347c00007c0000426100007474000020550000c4
:10348c00567c00007c420000617400007420000037
:10349c004f5400007c7c0000537900007320000026
:1034ac004f5400007c0a00000d000000202000009a
:1034bc0020200000202000002020000000530000ed
:1034cc004554000020200000202000002020000097
:1034dc00004300006c6500006172000020200000b9
:1034ec00202000000043000068650000636b0000b2
:1034fc00696e0000673a00002000000053310000a4
:10350c003a20000000530000323a00002000000076
:10351c00533300003a20000000530000343a0000fe
:10352c0020000000434800003a2000000076000014
:10353c006f6c00007461000067650000206900007a
:10354c006e700000757400002873000029200000c4
:10355c00636100006c2e00000a0d0000004e00009c
:10356c006f740000686900006e6700002063000043
:10357c00616c000021200000566f00006c7400008c
:10358c0061670000652000006f750000742000006a
:10359c006f66000020720000616e0000676500001d
:1035ac002e0a00000d000000562000003a3a0000e0
:1035bc0020000000410000000a0d000055530000df
:1035cc00422d000050440000206d00006f6400008c
:1035dc00657300002061000076610000696c0000da
:1035ec00616200006c6500002077000069740000c7
:1035fc0068200000746800006973000020630000fc
:10360c006861000072670000657200003a200000db
:10361c000a0d0000000a00000d4e00006f20000093
:10362c0050440000207300006f75000072630000ae
:10363c00657300002e0000000a0d000050440000cd
:10364c00207300006f75000072630000652000009d
:10365c0065720000726f0000722e000000080000fe
:10366c002008000000070000000a00000d200000e8
:10367c005365000074200000686900006768000052
:10368c006573000074200000776100007474000002
:10369c0061670000652000005044000020730000aa
:1036ac007563000063650000737300002e0a000050
:1036bc000d0000000a0d000020530000657400008e
:1036cc0020680000696700006865000073740000e2
:1036dc0020770000617400007461000067650000d1
:1036ec00205000004420000046410000494c0000de
:1036fc00454400002e200000504400002d530000d3
:10370c007461000074750000733a00002000000022
:10371c000a0d000020430000616e000027740000b9
:10372c0020740000616c00006b20000077690000c1
:10373c00746800002050000044200000636f0000fb
:10374c006e740000726f00006c6c000065720000fb
:10375c002e0000000a0d00002053000065740000cc
:10376c00206c00006f77000065730000742000006f
:10377c00766f00006c74000061670000652000002b
:10378c005044000020730000756300006365000066
:10379c00737300002e0a00000d0000000a0d0000db
:1037ac002053000065740000206c00006f7700004f
:1037bc006573000074200000766f00006c740000cc
:1037cc0061670000652000005044000020460000a6
:1037dc00414900004c450000442e000020500000e0
:1037ec00442d0000537400006174000075730000d8
:1037fc003a200000000a00000d5000005247000063
:10380c003a0a00000d530000746f0000726500004e
:10381c00643a0000000a00000d430000616c0000d7
:10382c00633a000020200000004d0000656d000090
:10383c002042000075730000790000000a0d0000a2
:10384c004e5600004d3a00000a0d00005374000063
:10385c006f720000656400003a0000005020000008
:10386c004f6e000000500000204f00006666000004
:10387c00000a00000d48000055440000204f0000d5
:10388c006e0000000a0d00004855000044200000a6
:10389c004f66000066000000546900006d65000072
:1038ac00206c000065660000743a000020000000e7
:1038bc00206d0000696e00007574000065730000d7
:1038cc00206100006e6400002000000020730000e6
:1038dc00656300006f6e0000647300002e00000032
:1038ec000a0d000046610000756c00007473000046
:1038fc00204300006c6500006172000065640000ec
:10390c002e0000000a0d0000446f0000696e0000dc
:10391c006720000061200000667500006c6c0000e0
:10392c0020630000686100007267000065200000e1
:10393c007265000067610000726400006c65000035
:10394c0073730000206f0000662000007365000098
:10395c0074740000696e0000677300002e00000094
:10396c000a0d000046690000726d000077610000ce
:10397c00726500003a200000563000002e31000025
:10398c000a0d0000325300002d34000053200000bb
:10399c00436f00006d7000006174000069620000ec
:1039ac006c65000020430000656c00006c2000007a
:1039bc00436f00006e66000069670000732e000004
:1039cc000a0d000028430000292000004861000077
:1039dc007074000069630000205300006f6c0000dd
:1039ec0075740000696f00006e73000020490000c0
:1039fc006e6300002e2000002832000030320000e0
:103a0c00342900000a0d000000410000757400000c
:103a1c006f6d00006174000069630000206200009b
:103a2c00617400007465000072790000206500006c
:103a3c00766100006c75000061740000696f000015
:103a4c006e200000416200006f720000746500007f
:103a5c00642e00000a0d000000500000204f0000f2
:103a6c00666600000a0d000000410000757400003d
:103a7c006f6d00006174000069630000206200003b
:103a8c00617400007465000072790000206500000c
:103a9c00766100006c75000061740000696f0000b5
:103aac006e200000737400006172000074650000e9
:103abc00642e0000204d0000616b00006573000057
:103acc00207300007572000065200000612000006a
:103adc00736d0000616c00006c2000006c6f0000c6
:103aec00616400002069000073200000636f000017
:103afc006e6e0000656300007465000064200000b9
:103b0c00746f0000206f0000757400007075000069
:103b1c00742e00000a0d0000000a00000d53000076
:103b2c00796e00007461000078200000657200005e
:103b3c00726f0000723a000020550000736500009f
:103b4c0020270000452000006e6e0000207600004b
:103b5c00762e000076760000767600002720000096
:103b6c0041700000706500006e64000020270000aa
:103b7c0071270000206600006f72000020710000a9
:103b8c007569000074650000206d00006f64000012
:103b9c00652e0000005300006574000073200000c7
:103bac00556e00004c4b0000442e00000a0d000026
:103bbc000055000073610000676500003a200000aa
:103bcc00276c00002059000027200000746f0000b3
:103bdc00207500006e6c00006f6300006b2e0000ff
:103bec000057000061690000742e00002e2e0000aa
:103bfc000053000065740000732000004c4b000063
:103c0c00442e0000000a00000d5000006f770000e9
:103c1c0065720000204f000075740000204f0000fa
:103c2c006e2e0000000a00000d43000068610000c9
:103c3c007267000065200000476f00002e00000036
:103c4c000a0d0000524c0000200000000a0d00007c
:103c5c004348000020000000556e00006b6e000011
:103c6c006f7700006e200000436f00006d6d000048
:103c7c00616e0000642e0000000a00000d40000080
:103c8c0000210000002000002d3e000043720000c7
:103c9c00452100003c2d0000004900006e69000029
:103cac00742e0000200a00000d000000200000000f
:103cbc002500000056000000545600000050000083
:103ccc005700000041560000004300005600000061
:103cdc0043410000003a000053310000003a00005c
:103cec0053320000003a000053330000003a000049
:103cfc005334000000570000004300005700000040
:103d0c004100000043420000004300004d00000051
:103d1c0041410000004f000043560000004d0000e0
:103d2c00430000000a0d0000000000005c9e000033
:103d3c005e9e0000609e0000629e0000659e00007a
:103d4c00689e00006b9e00006e9e0000719e00003d
:103d5c00759e0000799e00007d9e0000819e0000f3
:103d6c00839e0000869e0000889e00008b9e0000b3
:103d7c008e9e0000919e0000959e0000989e000073
:103d8c004144000043200000562d0000496e000005
:103d9c0070750000742000005231000000410000da
:103dac0044430000205600002d4900006e700000b6
:103dbc0075740000205200003200000041440000e5
:103dcc0043200000565f0000436f00006d70000040
:103ddc002031000000410000444300002056000048
:103dec005f4300006f6d0000702000003200000087
:103dfc004144000043200000565f0000436f000068
:103e0c006d700000203300000041000044430000ae
:103e1c00205600005f4300006f6d00007020000012
:103e2c0034000000414400004320000043480000df
:103e3c005f4300006f6d00007000000050610000d7
:103e4c0072740000696100006c200000436800007f
:103e5c006172000067650000202500002031000021
:103e6c0030300000580000004d6100007820000048
:103e7c00436500006c6c0000205600006f6c000065
:103e8c00747300000052000061740000656400004f
:103e9c0020430000656c00006c200000566f000091
:103eac006c740000730000004d6900006e2000006f
:103ebc00436500006c6c0000205600006f6c000025
:103ecc0074730000004c00006f7700002d5600004a
:103edc0020430000656c00006c200000536800005b
:103eec0075740000646f0000776e000000440000e1
:103efc006973000063680000617200006765000070
:103f0c0020430000004c0000696d00007020000090
:103f1c004375000072720000656e000074000000b2
:103f2c0043680000617200006765000020430000d8
:103f3c0000500000616300006b200000414800004d
:103f4c002052000061740000696e000067000000e0
:103f5c004f7600006572000020430000757200006f
:103f6c00726500006e74000020530000687500003c
:103f7c00746400006f7700006e0000004162000066
:103f8c00736f00006c75000074650000204d00001c
:103f9c0061780000204100006d700000730000008b
:103fac0041750000746f00002d4f00006666000024
:103fbc00204d0000696e0000205700006174000065
:103fcc0074730000005300002d4300006f6e00005e
:103fdc00666900006700000043790000636c000014
:103fec0065730000207400006f2000003830000062
:103ffc00252000004361000070610000636900002f
:10400c0074790000004300006861000072670000d2
:10401c00652000004d6900006e2d00005465000005
:10402c006d700000004300006861000072670000c2
:10403c006520000052650000647500006365000097
:10404c00204c00006f7700002d540000656d0000bf
:10405c00700000004368000061720000676500009a
:10406c00204d0000617800002d540000656d0000ab
:10407c00700000004368000061720000676500007a
:10408c00205200006564000075630000652000008c
:10409c0048690000676800002d540000656d000041
:1040ac00700000004368000061720000676500004a
:1040bc00205400006172000067650000742000004d
:1040cc00546500006d70000000440000697300002e
:1040dc0063680000204d0000696e00002d54000044
:1040ec00656d0000700000004469000073630000ff
:1040fc0068200000526500006475000063650000d4
:10410c00204c00006f7700002d540000656d0000fe
:10411c007000000044690000736300006820000018
:10412c004d610000782d0000546500006d7000009a
:10413c000044000069730000636800002052000016
:10414c00656400007563000065200000486900008c
:10415c00676800002d540000656d000070000000c1
:10416c004469000073630000682000005461000083
:10417c00726700006574000020540000656d00003b
:10418c007000000050610000636b000020530000c1
:10419c0068750000746400006f7700006e200000ea
:1041ac00546500006d700000004300006f6e00004d
:1041bc00747200006f6c00006c65000072200000cf
:1041cc005368000075740000646f0000776e000087
:1041dc0020540000656d0000700000004865000070
:1041ec00617400006572000020520000756e0000c2
:1041fc006e6900006e6700002057000061740000bb
:10420c00747300000044000065650000702000001d
:10421c00536c0000656500007020000054690000bc
:10422c006d650000204d0000696e00007574000083
:10423c0065730000005000006f770000657200008d
:10424c00204f00006666000020540000696d0000dd
:10425c00652000004d6900006e750000746500005b
:10426c0073000000506f00007765000072200000a2
:10427c00537700006974000063680000204d000053
:10428c006f6400006500000041750000746f000051
:10429c002d44000069730000706c0000617900000f
:1042ac00005500006e6b00006e6f0000776e000012
:1042bc00205600006172000069610000626c000011
:1042cc0065000000c69e0000d59e0000e49e000024
:1042dc00f19e0000fe9e00000b9f0000189f000046
:1042ec00249f00003a9f0000499f00005a9f000045
:1042fc00699f00007d9f0000899f0000969f000031
:10430c009f9f0000ae9f0000c49f0000d69f00003e
:10431c00e99f0000f29f000009a0000019a0000016
:10432c0030a0000040a0000058a000006ba00000ce
:10433c007aa0000090a000009fa00000b6a0000092
:10434c00c8a00000dba00000f4a0000009a1000040
:10435c0021a1000038a100004aa1000057a10000d3
:10436c000100000002000000030000000400000037
:10437c000500000006000000070000000800000017
:10438c00090000000a0000000b0000000c000000f7
:10439c000d0000000e0000000f00000010000000d7
:1043ac0011000000120000001300000001000000ca
:1043bc0002000000030000000400000005000000e3
:1043cc0006000000070000000800000009000000c3
:1043dc000a0000000b0000000c0000000d000000a3
:1043ec000e0000000f000000100000001100000083
:1043fc00130000001400000000000000000000008a
:10440c0000000000000000000000000000000000a0
:10441c000000000000000000000000000000000090
:10442c000000000000000000000000000000000080
:10443c0000000000803f0000c3f500008840000031
:10444c000000000088400000cdcc00000cc0000033
:10445c000000000000c00000000000000000000090
:10446c000000000000000000000000000000000040
:10447c0000000000000000000000000010410000df
:10448c0000000000184100000000000000000000c7
:10449c000000000080400000003c00001c460000b2
:1044ac0000000000a0c0000000000000a0c0000040
:1044bc0000000000704200000000000048420000b4
:1044cc0000000000000000000000000000000000e0
:1044dc0000000000a0c00000000000008c420000a2
:1044ec00000000007042000000000000000000000e
:1044fc0000000000a042000000000000b4420000d8
:10450c00000000002041000000000000000000003e
:10451c00000000000000000000000000000000008f
:10452c0000000000000000004261000074740000f4
:10453c006572000079200000250000005061000029
:10454c00636b0000205600006f6c0000746100006b
:10455c006765000000500000616300006b200000e4
:10456c005461000072670000657400002056000062
:10457c006f6c000074610000676500000050000063
:10458c00656100006b20000057610000747400002e
:10459c007300000050610000636b000020410000bc
:1045ac00766500007261000067650000205600000f
:1045bc006f6c000074610000676500000043000030
:1045cc00686100007267000065200000566f0000f3
:1045dc006c74000061670000650000004368000017
:1045ec0061720000676500002043000075720000d6
:1045fc00726500006e740000005300003120000052
:10460c00566f00006c7400006167000065000000cc
:10461c0053320000205600006f6c000074610000e3
:10462c00676500000053000033200000566f000047
:10463c006c740000616700006500000053340000da
:10464c00205600006f6c000074610000676500006c
:10465c000042000061740000746500007279000073
:10466c0020570000617400007473000000430000c8
:10467c00686100007267000065200000576100004f
:10468c007474000073000000426100007474000038
:10469c006572000079200000437500007272000002
:1046ac00656e00007400000042610000747400002c
:1046bc006572000079200000546500006d700000e8
:1046cc00004300006f6e0000747200006f6c0000fd
:1046dc006c65000072200000546500006d700000d5
:1046ec00004200006174000074200000417600005c
:1046fc0065720000616700006520000043520000f5
:10470c004e540000004f0000706500006e20000049
:10471c00436900007263000075690000742000009a
:10472c00566f00006c7400006167000065000000ab
:10473c004d6100007820000042610000747400009c
:10474c006572000079200000437500007272000051
:10475c00656e00007400000050720000656400007b
:10476c00696300007465000064200000416800006b
:10477c002043000061700000616300006974000058
:10478c00790000004168000020520000656d0000b7
:10479c00616900006e6900006e6700000054000043
:1047ac006f740000616c0000204300006861000021
:1047bc00726700006520000043790000636c000004
:1047cc0065730000000000009aa20000a4a2000083
:1047dc00b1a20000c5a20000d0a20000e5a200001a
:1047ec00f4a2000003a300000ea3000019a3000014
:1047fc0024a300002fa300003da300004aa3000047
:10480c005aa3000067a3000077a3000089a300004f
:10481c009ea30000b2a30000c8a30000d5a3000013
:10482c0057a100000100000002000000030000007e
:10483c000400000005000000060000000700000056
:10484c0008000000090000000a0000000b00000036
:10485c000c0000000d0000000e0000000f00000016
:10486c0010000000110000001200000013000000f6
:10487c0001000000040000000d00000050200000aa
:10488c004f660000662c00002043000068610000a9
:10489c0072670000696e0000672e00002050000057
:1048ac006c6500006173000065200000576100001a
:1048bc00697400002e2e00002e0a00000d0000006e
:1048cc00502000004f6e00002c2000006469000096
:1048dc00736300006861000072670000696e00007d
:1048ec00672e0000205000006c6500006173000012
:1048fc006520000057610000697400002e2e000036
:10490c002e0a00000d000000536f00006d650000c2
:10491c0074680000696e0000672000007765000075
:10492c006e74000020770000726f00006e6700004c
:10493c0020770000697400006820000062610000ac
:10494c007474000065720000792000006576000028
:10495c00616c000075610000746900006f6e0000ee
:10496c002e200000416200006f720000746900008c
:10497c006e6700002e200000506c00006561000086
:10498c00736500002063000068650000636b000025
:10499c0020660000617500006c740000732e00002e
:1049ac000a0d0000004200006174000074650000f4
:1049bc007279000020450000766100006c750000e3
:1049cc0061740000696f00006e200000436f0000ee
:1049dc006d7000006c650000746500002e200000f6
:1049ec003a440000205000006c6500006173000028
:1049fc0065200000776100006974000020660000eb
:104a0c006f72000020720000656300006861000096
:104a1c0072670000652e00002e2e00000a0d0000ab
:104a2c000048000065610000746500007220000001
:104a3c00746f00006f200000736d0000616c00004b
:104a4c006c200000666f000072200000746800008b
:104a5c006520000077610000747400007320000072
:104a6c00796f000075200000776100006e74000003
:104a7c002e0000004e6f00002068000065610000f1
:104a8c00746500007220000064650000746500000d
:104a9c0063740000656400002e000000486500008f
:104aac006174000065720000207400006f6f0000dc
:104abc00206c00006172000067650000206f000030
:104acc0072200000736800006f72000074200000f8
:104adc0063690000726300007569000074200000b7
:104aec006465000074650000637400006564000078
:104afc002e0000004c6f0000772000004261000087
:104b0c0074740000205600006f6c0000746100008b
:104b1c006765000000420000617400007420000012
:104b2c004f76000065720000204300007572000093
:104b3c00726500006e740000004200006174000099
:104b4c00742000004368000061720000676500007b
:104b5c00204f0000766500007220000043750000b5
:104b6c0072720000656e000074000000536f00004c
:104b7c00667400007761000072650000204200003e
:104b8c0061740000742000004856000020440000ae
:104b9c006574000065630000740000004261000051
:104bac0074740000204f0000766500007220000035
:104bbc00546500006d700000004200002d4600009e
:104bcc006c6100006728000073290000205300006e
:104bdc00657400003a2000005379000073740000e3
:104bec00656d0000206c00006f6300006b650000b9
:104bfc00642000006f750000742e0000005300004c
:104c0c00656c0000662000004f76000065720000a5
:104c1c0020540000656d0000700000005379000006
:104c2c00732000005368000075740000646f00006e
:104c3c00776e000000500000574d0000206500000a
:104c4c007863000065700000004f00007363000083
:104c5c0020650000786300006570000000410000d2
:104c6c006464000072200000657800006365000039
:104c7c0070000000535400004b20000065780000c9
:104c8c0063650000700000004d54000048200000d7
:104c9c00657800006365000070000000526500003c
:104cac007337000020650000786300006570000019
:104cbc000044000069730000702000004275000081
:104ccc0066660000657200002045000072720000ec
:104cdc00004d00004355000020420000726f0000a0
:104cec00776e00004f750000740000005744000000
:104cfc00542000007273000074000000756e0000f8
:104d0c002d680000616e0000646c0000656400009a
:104d1c002065000078630000657000007469000075
:104d2c006f6e00002072000073740000004f0000d2
:104d3c00706300006f640000652000007273000057
:104d4c00740000004d4300004c5200002072000023
:104d5c0073740000004900006c6c00006567000073
:104d6c00616c0000204900006e73000074000000ac
:104d7c00537900007320000052730000740000008f
:104d8c00496e0000766100006c2000007365000025
:104d9c0072690000616c0000207000006f720000ee
:104dac0074000000555300004220000043680000ce
:104dbc007267000020460000617500006c740000f2
:104dcc00005000004368000067200000736500007d
:104ddc00742000003e20000031300000302500001f
:104dec003a200000436c0000616d00007069000007
:104dfc006e6700002e0000005648000020430000a3
:104e0c0068720000675600006c74000000560000c9
:104e1c004c2000004368000072670000566c0000d4
:104e2c007400000056480000204300006872000027
:104e3c0067430000726e000074000000564c0000c6
:104e4c00204300006872000067430000726e00008f
:104e5c0074000000564800002042000074720000ec
:104e6c00795400006d700000005600004c200000ca
:104e7c004274000072790000546d00007000000054
:104e8c005648000020420000747200007943000074
:104e9c00726e000074000000564c000020420000ae
:104eac007472000079430000726e00007400000000
:104ebc00564800002053000079730000546d000028
:104ecc0070000000564c0000205300007973000065
:104edc00546d000070000000504f00005254000050
:104eec003120000042530000592000006572000080
:104efc0072000000504f000052540000322000009d
:104f0c00425300005920000065720000720000003e
:104f1c00506700006d200000436800006b730000b8
:104f2c00756d00002045000072720000004e0000fc
:104f3c00564d000020430000686b000073750000a4
:104f4c006d200000457200007200000053650000e7
:104f5c007473000020430000686b00007375000040
:104f6c006d20000045720000720000004e560000db
:104f7c0053200000436800006b730000756d000047
:104f8c002045000072720000005000004f520000db
:104f9c005431000020450000525200000050000027
:104fac004f520000543200002045000052520000c5
:104fbc00005300006f660000742000004f76000064
:104fcc0065720000204300007572000072650000dd
:104fdc006e740000005600004820000053310000a1
:104fec00566c000074000000564c0000205300006a
:104ffc00315600006c740000005600004820000080
:10500c0053320000566c000074000000564c000037
:10501c0020530000325600006c7400000056000053
:10502c004820000053330000566c00007400000050
:10503c00564c000020530000335600006c740000e6
:10504c00005600004820000053340000566c00004d
:10505c0074000000564c0000205300003456000031
:10506c006c7400000043000068610000726700006f
:10507c0065720000206900006e70000075740000fd
:10508c00204f00007665000072200000566f000073
:10509c006c7400000048000061720000647700002e
:1050ac0061720000652000004f7600006572000000
:1050bc00437200006e7400002053000068750000fd
:1050cc00746400006f7700006e3a000020550000f9
:1050dc006e7000006c75000067200000736f00009c
:1050ec0075720000636500002c2000002620000073
:1050fc0074750000726e0000207000006f77000065
:10510c0065720000206f00006666000020660000db
:10511c006f72000020320000302000007365000028
:10512c00636f00006e64000073200000746f000059
:10513c002072000065730000657400002e000000f2
:10514c004861000072640000776100007265000025
:10515c00204f000076650000725600006f6c000056
:10516c00742000005368000075740000646f000028
:10517c00776e00003a200000426100007474000059
:10518c006572000079200000536100006665000024
:10519c007479000020460000757300006520000043
:1051ac00547200006970000070650000642e0000ed
:1051bc00205500006e690000742000006d75000021
:1051cc00737400002062000065200000736500000d
:1051dc007276000069630000656400002e00000018
:1051ec0042610000747400006572000079200000b8
:1051fc00556e00006465000072200000566f0000c0
:10520c006c74000061670000652000004c6f0000aa
:10521c00636b00006f7500007400000043680000b1
:10522c00617200006765000072200000706f000062
:10523c007765000072200000686100007320000098
:10524c0063790000636c000065640000207400004a
:10525c006f6f0000206d0000616e0000792000006f
:10526c00746900006d650000732e00002041000081
:10527c00626f000072740000696e0000672000000d
:10528c00666f0000722000006e6f0000772e000029
:10529c000053000079730000205300006166000089
:1052ac00652000004d6f0000646500002e2000009a
:1052bc004d6900006e6900006d7500006d200000e6
:1052cc004465000062750000672000004675000010
:1052dc006e630000746900006f6e0000616c00006a
:1052ec0069740000792e0000005000006f720000fd
:1052fc0074200000536100006e6900007479000096
:10530c0020450000727200006f720000004900001e
:10531c0032430000205300006571000075650000e9
:10532c006e6300006520000045720000726f000083
:10533c007200000049320000432000005469000054
:10534c006d6500006f7500007400000049320000ac
:10535c004320000062750000732000006e6f000097
:10536c0074200000696400006c65000000490000b6
:10537c0032430000206200007573000020630000bf
:10538c006f6c00006c690000736900006f6e0000a8
:10539c00004900003243000020410000434b000054
:1053ac0020450000727200006f720000004c00007b
:1053bc006f610000642000007368000075740000c9
:1053cc00646f0000776e00002062000065660000cc
:1053dc006f7200006520000063790000636c0000b0
:1053ec0065200000636f00006d7000006c650000ac
:1053fc00746500002e200000416200006f720000f6
:10540c00746900006e6700002045000076610000a2
:10541c006c75000061740000696f00006e2e000056
:10542c000050000061720000616d000065740000a6
:10543c0065720000732000006e6f00007420000085
:10544c00726900006768000074200000666f00003d
:10545c007220000061750000746f00002065000070
:10546c00766100006c75000061740000696f0000cb
:10547c006e2e000020410000626f0000727400006c
:10548c00696e00006720000045760000616c00002a
:10549c0075610000746900006f6e00002e00000042
:1054ac00556e00006b6e00006f7700006e00000000
:1054bc0017a5000040a5000054a5000080a5000021
:1054cc0091a50000a3a50000bca50000d4a5000078
:1054dc00e3a5000005a6000014a6000021a600000c
:1054ec002ba6000035a6000040a600004aa600002e
:1054fc0054a600005fa600006fa600007ca600006a
:10550c0084a600009da60000a8a60000b1a600007d
:10551c00bea60000c6a60000d8a60000e7a60000a4
:10552c0002a700000da7000018a7000024a7000088
:10553c0030a700003ba7000046a7000052a70000c0
:10554c005ea7000068a7000072a7000080a70000fb
:10555c008ea700009da70000aca70000bca7000010
:10556c00cba70000d5a70000dfa70000f1a7000023
:10557c00faa7000003a800000ca8000015a8000062
:10558c001ea8000027a8000030a8000039a80000c1
:10559c0051a80000a6a80000f6a8000014a900005d
:1055ac004fa900007ba900008da90000a0a9000054
:1055bc00aca90000bda90000cfa90000dda9000026
:0855cc0017aa000056aa000016
:020000040000fa
:1055d4009049ed0053e8b700b0c3b30006ecb70040
:1055e40000000600420620000281b900800040004d
:1055f400a48720008100420091004100b2af200046
:10560400e2c078000104e00007003a008000400096
:10561400a2872000010141008000eb00010978000d
:10562400a28a2000017178000000060020bc20003e
:1056340002be20008040eb0001687800820f500019
:10564400fdff3a0000000600889fbe00b648e20055
:105654002f003a00a485200014427800e14f520044
:105664002b003400041080000622ef000822ef0013
:10567400f41f200024108800f76aa90026c0b30094
:10568400658b2000864a780007e2a80080804000ed
:10569400a14588009045880082407800008b200056
:1056a4000148780003437800158b2000864a78006f
:1056b400000120004060880085c0a800b05380002d
:1056c400c1538000020020000304240021f20700db
:1056d4000000e00008003d000c003700b0538000db
:1056e400c15380000801be001af207000000e00068
:1056f40003003d00050037000800200009042400d1
:105704000140fe00b648e200f4ff3a00c7ff07007c
:105714004f04be0000000600889fbe008a1f780068
:10572400000478008144780002457800b648e2001d
:105734002d003a005ac8bf00e14f50002a0034003f
:1057440000108000c3ebb7000622ef000822ef0030
:10575400f01f200020108800b4ff0700f76aa8009b
:1057640020c0b300b6e8b70007e2a800a845880047
:10577400b228ef0089407800008b200001487800af
:105784008a407800108b2000014878000001200036
:105794004060880085c0a800b0538000c1538000d9
:1057a4000200200003042400eaf107000000e000e6
:1057b40008003d000c003700b0538000c153800046
:1057c4000801be00e3f107000000e00003003d0013
:1057d4000500370008002000090424000140fe00f1
:1057e400b648e200f4ff3a004f0578004f04be00cb
:1057f40000000600f2874700889fbe008a9fbe0013
:105804008c9fbe008e1f7800a0408000b1408000b5
:105814000200200003f02300f7f30700a0408800f3
:10582400b1408800a0408000b14080000200200008
:105834000370240023f20700a0408800b1408800d0
:10584400a0408000b14080000200200003802300bb
:10585400e9f30700a0408800b1408800a040800020
:10586400b1408000c2418000d3418000e2f30700d0
:10587400a0408800b1408800a0408000b140800072
:105884004840800059408000020020008314240016
:10589400d9f307000801be0013f20700b0548800d2
:1058a400c15488006055b800aa408800bb408800f5
:1058b400c0408000d14080000200200003f023009b
:1058c400cdf30700c0408800d1408800c04080006c
:1058d400d14080000200200003702400f9f1070089
:1058e400c0408800d1408800c0408000d140800082
:1058f4000200200003802300bff30700c04088009b
:10590400d1408800c0408000d1408000c241800066
:10591400d3418000b8f30700c0408800d14088001c
:10592400c0408000d1408000684080007940800001
:105934000200200083142400aff307000801be0016
:10594400e9f10700d0538800e1538800ca40880079
:10595400db4088007e8757000004eb00eaad20009e
:10596400eb9120006066b800c244dd008904450064
:105974001900be00e2418000f3418000bff207003d
:10598400808cbe00f7cabf000008a30008003200e4
:105994004240dd00000045001000be0022408000af
:1059a40033408000b5f20700008fbe000c003700c2
:1059b400c244dd00090045001000be002240800002
:1059c40033408000adf20700ee8444008984450032
:1059d4001901780099019000c3f10700008fbe00ff
:1059e4004240dd00000045000c88be000804e800c9
:1059f40064074700e40f5400dbff3a00f7cabf0016
:105a04000008a300110032001fb09700afb0970048
:105a1400f0538800015488003fb09700cfb097003e
:105a240010548800215488005fb09700efb09700ad
:105a340030548800415488007fb097008fb8970095
:105a44005054880061548800170037001fb1970034
:105a5400afb19700f2538800035488003fb4970015
:105a6400cfb497000800be0096f1070010548800d8
:105a7400215488005fb59700efb597000801be0078
:105a84000a00be008ff1070030548800415488009a
:105a94000a01be007fb097008fb8970089f1070014
:105aa4005054880061548800994b80006000b8000d
:105ab4000900e0000b0034000004eb00caa520003c
:105ac4004242dd002402b0000402450014017800c3
:105ad4009401900084f107000804e800890f540041
:105ae400f7ff3a003053880041538800804080001b
:105af40091408000e2418000f34180005ff20700a2
:105b04008040880091408800f7cabf000008a300c5
:105b140008003200804080009140800022408000d4
:105b24003340800055f20700b0538800c153880009
:105b34000a003700804080009140800022408000ad
:105b4400334080004df20700e2498000f3498000b1
:105b540065f10700b0538800c15388006044b80061
:105b640088408800994088000041800011418000ed
:105b7400e2418000f341800040f2070000418800c8
:105b8400114188000041800011418000f2282c005e
:105b940053ef23004bf107000041880011418800b6
:105ba400004180001141800042722900f3c72300a4
:105bb40032f20700d0548800e1548800084188007c
