:020000040000fa
:080000000001040000000000f3
:020000040000fa
:04000c00c801000027
:020000040000fa
:04001000d801000013
:020000040000fa
:04001400d001000017
:020000040000fa
:04001800e001000003
:020000040000fa
:04002400f0010000e7
:020000040000fa
:040028005605000079
:020000040000fa
:040034007e05000045
:020000040000fa
:040040006803000051
:020000040000fa
:04004c0006050000a5
:020000040000fa
:040050004c0200005e
:020000040000fa
:04005400be070000e3
:020000040000fa
:04006800300500005f
:020000040000fa
:04007c00c2020000bc
:020000040000fa
:040080009e020000dc
:020000040000fa
:04008800dc04000094
:020000040000fa
:04008c00f601000079
:020000040000fa
:0400d400e80100003f
:020000040000fa
:10020000afaf20000ebf20000e01880000000000ec
:10021000000020000000e000020032000001200089
:100220002002880014000700180407000000e00006
:1002300003003a0080d823000100200002003700ac
:100240000000200001002000810f7000010032003a
:1002500014000700000020000000e000020032004f
:100260000000020000000000063d02000000000047
:100270000040da000000fe004440a900a07d2000fc
:100280000000e0000300320000002000a001880010
:100290004440a800000006008a1f78008b1f7800e9
:1002a0000000060091018800800478000000eb0047
:1002b0001a003700e284440032a0b4009905ba0065
:1002c000e284440032a0b4009906ba00e2844400fb
:1002d00032a0b4000006eb00476fde00fd07b2005d
:1002e000636ce10003003a00ebff07000000eb0045
:1002f0000a003700606ce10004003a00005deb008a
:100300008b05e900fdff3e00040037006168e10055
:10031000010032000086eb000b00070019c7ba008d
:100320001905ba000e04e00003003a000a00e000dc
:10033000e0ff3a0000000600fe07b2009e018800c0
:100340008a047800f5ff3700395dba008b05e900b3
:100350000c003200295dba008b05e900080032006c
:100360000c00e00003003a00e284440032a0b40034
:10037000f5ff370019ddba008b05e900faff3a00f6
:100380008904e800e184440032a0b40000000600c3
:100390006e0aa8008020a9000000fe0000400600b0
:1003a0006e2aa8008040a9000000fe000040060060
:1003b0006e4aa8008060a9000000fe000040060010
:1003c0006e6aa8008080a9000000fe0000400600c0
:1003d0006e8aa8008960a9000000fe0000400600a7
:1003e0006eaaa8000000fe00004006003600f800db
:1003f000809fbe00829fbe00849fbe00869fbe007d
:10040000100020009c0c07006b4aa80019c2bf0016
:100410000018a30017003a00f1428000c00320003a
:1004200001004000f2a62000624078000004e000d5
:10043000100032008348e2000e003200b2aa200011
:10044000028140000000fb00d01088008100e8001d
:1004500019c2bf000018a30005003a0052407800fe
:100460000004e000f7ff3a00f14288000100370085
:10047000f142880010002000210d07008720a9000c
:100480004f03be004f02be004f01be004f00be0032
:100490003600f900004006003600f800809fbe00dc
:1004a000829fbe00849fbe00869fbe001000200079
:1004b000710c07006b4aa8000fc2bf000018a30010
:1004c00015003a00e1428000f0a6200060c07800ec
:1004d0000004e000100032008248e2000e0032000a
:1004e000f2a62000028140000000fb00801088007e
:1004f0008100e8000fc2bf000018a30005003a0009
:10050000524078000004e000f7ff3a00e142880022
:1005100001003700e14288000000eb00f80c070002
:100520008540a9004f03be004f02be004f01be0030
:100530004f00be003600f900004006003600f8000b
:10054000809fbe00829fbe00849fbe00869fbe002b
:1005500010002000480c07000000eb00a20f07006d
:1005600010002000a00f070086c0a9004f03be00a6
:100570004f02be004f01be004f00be003600f90022
:10058000004006003600f800809fbe00829fbe003b
:10059000849fbe00869fbe0010002000360c07001e
:1005a00040c8bf00e24f50000e0034006dcabf00cb
:1005b0000048a300040032003a68ef0030c1b300e5
:1005c000f3eab70012003700c19420009140780090
:1005d000a083200001487800b0c3b300f3eab7005d
:1005e0000b003700f34ae20008003c00b0c3b30040
:1005f000f3eab7003a48e20002003c006c2aa80087
:10060000030037003a68ed0001003700f36aed009f
:100610002046800081702000810f50000b003a00be
:100620000184200091407800e1cf500007003400a1
:1006300068140700e10f500002003a0010c0b30038
:1006400040e8b700c428ef0006003700018420000e
:1006500091407800e1cf5000020034000000e80033
:100660002046880040c8bf00e34f50001100320010
:1006700040c8bf00e14f50000e003400c408e20043
:100680000c003200851407000000e0000900320071
:100690007316070030468000e40f5000030034005a
:1006a00010c0b30040e8b700020037000000e800c7
:1006b0003046880086a0a9004f03be004f02be004e
:1006c0004f01be004f00be003600f900004006009a
:1006d0003600f800809fbe00829fbe00849fbe004f
:1006e000869fbe00889fbe008a1f780010002000f1
:1006f000e10b07005068ec006acabf000008a300c5
:100700000400320035c8bf00e14f500001003c003a
:100710003568ec00b8518000c95180006011b80004
:100720000800be00dc0207000000e00016003400f4
:100730006acabf000008a3001300320010518000f5
:1007400021518000fe0a07000001be000800be0023
:10075000cf0207000000e0000b003d004e08ab0098
:100760000900320034c8bf00e84f500005003400d3
:100770006a0aa900f0022000611307006ccaa800f1
:10078000010037003468ec000004eb00899e200073
:100790004a0020004241dd002202b00002814400f4
:1007a000120078009200900092488000a3488000d8
:1007b000b70207000000e00006003d004e08ab0055
:1007c000040032006a0aa9000a0078004c130700ee
:1007d0006ccaa8000804e800e40f5400edff3a00da
:1007e0007051800081518000f24f800003508000e2
:1007f000d0040700d0508800e150880036c8bf0000
:10080000e74f500010003c00e2408000f3408000c1
:10081000105180002151800002030700e040880051
:10082000f14088000241800013418000904f800019
:10083000a14f8000fb0207000041880011418800a1
:100840003668ec001d003700e0408000f140800079
:100850000200200003e02300b6040700e040880007
:10086000f1408800e0408000f14080007051880035
:100870008151880000418000114180000200200069
:1008800003e02300ab040700004188001141880009
:100890000041800011418000f04f88000150880025
:1008a0006000b8000041880011418800e0408800e5
:1008b000f14088003668ef009d16070070518000f7
:1008c00081518000f24f800003508000990407009e
:1008d0009b0a07000004be00d04f8000e14f80005b
:1008e0000801be006a0207000000e00002003d00af
:1008f000d84f8800e94f88001851800029518000a6
:100900000800be008e0a0700f226210033b0230043
:10091000610207000000e0001100340012052a0007
:10092000138123000800be00820407000004be00fb
:10093000004e8000114e80000801be00b902070081
:10094000004e8800114e8800224e8000334e8000f9
:100950000800be00b3020700204e8800314e880018
:10096000f1cabf0000404000f1eab700f1cabf0081
:10097000e84f50000700340010c0b300f1eab700a0
:100980006a4ae20002003d006aeaa900010037005d
:100990006aeaa80084c0a9004f0578004f04be0091
:1009a0004f03be004f02be004f01be004f00be000d
:1009b0003600f900004006003600f800809fbe00b7
:1009c000829fbe00849fbe00869fbe0018c2bf00eb
:1009d0000008a3000200320010002000ef160700fc
:1009e00010002000240b0700a0c0b30042e8b700ad
:1009f0008700a9004f03be004f02be004f01be009a
:100a00004f00be003600f900004006003600f80036
:100a1000809fbe00829fbe00849fbe00869fbe0056
:100a20000ec2bf000008a300020032000000eb006d
:100a3000da160700100020000f0b0700a0c0b3005b
:100a400042e8b7008520a9004f03be004f02be0058
:100a50004f01be004f00be003600f9000040060006
:100a60003600f800809fbe00829fbe00849fbe00bb
:100a7000869fbe0010002000ff0a07009e1307009b
:100a80006ccaa800900320009d1207008611070081
:100a90008600a9004f03be004f02be004f01be00fa
:100aa0004f00be003600f900004006003600f80096
:100ab000809fbe00829fbe00849fbe00869fbe00b6
:100ac00010002000ec0a07008b1307006ccaa80076
:100ad000a00320008a1207004e28a8007211070008
:100ae0008400a9004f03be004f02be004f01be00ac
:100af0004f00be003600f900004006003600f80046
:100b0000809fbe00829fbe00849fbe00869fbe0065
:100b1000889fbe008a9fbe008c9fbe0010002000f0
:100b2000d50a0700a1e2a800785180008951800011
:100b3000f04880000149800012498000234980006c
:100b4000fc0307000200200003f42300f903070060
:100b50000001be000800be00cf0107000000e00059
:100b6000020034006aaaa800010037006aaaa8009f
:100b700058488000694880001c0020008005eb0078
:100b80008d9e2000010037000c06e8000c05e900ee
:100b90004251dd002202b0000281460012007800be
:100ba000920090000801be00bb0107000000e000b9
:100bb00013003500e10f55000b00320003003c002c
:100bc0000a00e000060032000d003700e20f550079
:100bd00007003200e30f550009003a000600370015
:100be0000b00a000e8ff37000b10a000e6ff370065
:100bf0000b20a000e4ff37000b30a00002003700fc
:100c0000e30f5600e0ff34008b4078002085200081
:100c1000014878000ec2bf000018a3000a0032008d
:100c2000d0022000361207000ec2bf000008a30049
:100c300004003200901080000ec2bf000008a30024
:100c4000fcff3a000e22a90018c2bf000018a30042
:100c50000a003200e00220002912070018c2bf007b
:100c60000008a30004003200e010800018c2bf009a
:100c70000008a300fcff3a001822a9007215070023
:100c800062180700fe19070040c8bf00e24f50007d
:100c900003003c0010002000604688006ccaa900d8
:100ca000004e8000114e8000a50907000004be0020
:100cb000604d8800714d88006acabf000038a300eb
:100cc0004c0032003fc8bf00e34f500049003a00db
:100cd0000006eb000a0020008b2c2400ada32000ae
:100ce0004260dd00008046001000be000a01be0028
:100cf000670107000000e00003003d004260dd00e6
:100d0000008046001005be000c06e800e40f560007
:100d1000f3ff3a0002002000632c24000a00be000a
:100d20005d0107000000e0000c003400f2cabf00c3
:100d3000e24f500009003200404d8000514d8000cc
:100d4000204e8800314e880020c0b300f2eab70080
:100d5000c029ef00c229ef00130037000200200075
:100d600003f823000a00be00490107000000e0006c
:100d70000d003d00f2cabf00e24f50000a003a00e9
:100d8000484d8800594d88006000b800204e88000a
:100d9000314e880014c0b30023af2000844978008e
:100da000004e8800114e8800204e8000314e800099
:100db0006011b800360107000000e00002003d00ad
:100dc000c429ef00c629ef00484d8000594d80002e
:100dd000204e8000314e80000801be002e01070029
:100de0000000e00002003400284e8800394e8800e0
:100df0006a6aa900404d8000514d80006011b80022
:100e0000230107000000e00003003a00a829ef00da
:100e100000f82300504d88004a4d80005b4d800053
:100e2000204e8000314e80000a01be0062020700a1
:100e300002002000832c24003e030700704f88002e
:100e4000814f88007851800089518000f2282c0061
:100e500053c723000800be000f0107000000e00098
:100e6000320034006acabf000018a3002f0032000d
:100e70004c4e80005d4e800002002000135624007e
:100e80000800be004c0207000001be000c00be00be
:100e9000640107000001be00404e8800514e8800ea
:100ea0000a00be00fa0007000000e0001f003c003e
:100eb000c829ef00ca29ef00604e8000e10f400012
:100ec000020032000000e800604e88008049800087
:100ed0006500b900cf80de002d0107000004be00d0
:100ee0006011b800ea0007000000e00002003a00cc
:100ef0000800200009f823000801be0000002000bf
:100f000001f823002c0207000001be0000002000b1
:100f100001f823003a0107000001be000a00be00ec
:100f200004030700404d8800514d8800451107001b
:100f3000b80907000000e000060032004248e20065
:100f4000040034006acabf000018a30001003a0080
:100f50004268ed008460a9004f06be004f05be0048
:100f60004f04be004f03be004f02be004f01be0043
:100f70004f00be003600f900004006003600f800c1
:100f8000809fbe00829fbe00849fbe00869fbe00e1
:100f9000889fbe0010002000b709070037c8bf00b7
:100fa000e74f500071003c006ccabf000038a3003e
:100fb00059003200001480004840800059408000f1
:100fc0008000eb00f50007000801be0015010700d6
:100fd0004040880051408800101480006840800024
:100fe000794080008000eb00ec0007000801be00a3
:100ff0000c010700604088007140880020148000c8
:10100000a8408000b94080008000eb00e3000700aa
:101010000801be0003010700a0408800b14088001d
:1010200030148000c8408000d94080008000eb0070
:10103000da0007000801be00fa000700c04088007f
:10104000d140880098528000a9528000401480004e
:101050008000eb00d10007000001be000800be00c8
:10106000f000070090528800a1528800b85280001a
:10107000c9528000501480008000eb00c7000700b8
:101080000001be000800be00e6000700b052880064
:10109000c1528800d8528000e9528000601480005c
:1010a0008000eb00bd0007000001be000800be008c
:1010b000dc000700d0528800e1528800f85280001e
:1010c00009538000701480008000eb00b30007001b
:1010d0000001be000800be00d2000700f0528800e8
:1010e000015388008014800088408000994080006f
:1010f0008000eb00a90007000801be00c90007003e
:1011000080408800914088004e08ab0015003200f6
:1011100059130700130037006000b80040408800f2
:10112000514088006040880071408800a0408800dd
:10113000b1408800c0408800d140880090528800ab
:10114000a1528800b0528800c1528800d052880055
:10115000e1528800f05288000153880080408800e6
:10116000914088003768ec00250037006ccabf004a
:101170000038a300070032008041800091418000c8
:101180006011b800870007000000e0000100320095
:10119000151207006ccabf000038a300010032001e
:1011a000be0807003768ef004e08ab0007003200aa
:1011b0006ccabf000038a300040032006ccabf0034
:1011c0000068a30001003a00a51607004e08ab0016
:1011d00001003200e219070040c8bf00e24f500092
:1011e00006003c006ccabf000038a30003003200b8
:1011f000a1e2a9006c6aa900010037006c6aa8008e
:1012000040c8bf00e34f5000050034004e08ab005b
:101210000300320010c0b3007b0e0700130037003c
:101220004e08ab0006003a006acabf000068a3007f
:1012300003003a0040c0b300730e07000b003700f4
:1012400040c8bf00e14f50000600320040c8bf0058
:10125000e34f50000300320020c0b3006a0e0700c5
:10126000020037000040eb00670e07008560a90010
:101270004f04be004f03be004f02be004f01be0030
:101280004f00be003600f9000040060000000500d7
:1012900014002000af033700f4ff2f00ad03370028
:1012a0000001be00410007000470a70003f0a10088
:1012b0006509b100160032000d0035006828e10014
:1012c00006003500f0ff2f00f1ff27000300e000cb
:1012d00013003b0001002800000005000000400052
:1012e000818048008502e900fcff3a0008003700d1
:1012f000f88f420002003c008000eb000000050077
:101300008100d1000080d3008502e800fcff3a0094
:101310000300e00002003b0060001000e0801800c5
:10132000000006000001be00200007000470a700b6
:1013300003f0a10003f8a30013003a006509b1000f
:1013400010003200090035006928e1000200350074
:1013500001002800000005000000400081804800d6
:101360008502e900fcff3a0000000600f88f420009
:10137000050035008100d1000080d3008502e8001f
:10138000fcff3a00000006008000eb0000000500b2
:101390004f89de0082017800890337006011b800b0
:1013a00097033700040020006a033700c70ade00f5
:1013b000f107b200f50fb20008003200e1cf4200a1
:1013c000020032000170a00024000500810f7000af
:1013d000010032000408050044000500810f700080
:1013e00002003a00140005008502e90000004000f8
:1013f00081c04800fcff3b000170a00024000500f4
:1014000007f82700078361000638e10004003a006e
:10141000f7072000878361008703710001003a000d
:1014200003f0a200889fbe008a9fbe008c9fbe0072
:10143000470ade000480a100c71ade000580a10073
:10144000070028000785600087856100f70f2000ee
:101450000720e1009e0032000728e1009c003200d6
:10146000010678000400e000b4003200f707200015
:10147000878060000170a0000500e000c00032001d
:10148000f7072000878161000370a0000506520065
:101490000f003a000b50e1000b0032000308e1009e
:1014a00002003a000200e1007e0032000204500017
:1014b00083845800040031000001fd008101fd001b
:1014c0008402fd008a05fd006044b8002100370059
:1014d0000520e10005003d000001fd008101fd0047
:1014e0008402fd008a05fd00050652007a60e100d5
:1014f000050035000170a1004722dd0084807000e6
:101500008a807000630037006044b800ef02660014
:1015100007ff2f00070666000500e0000600340004
:10152000f08312008714dd000511de00071bdd00cb
:10153000060171008519de007060e10005003500cc
:101540000904780082047800030178008001eb0030
:10155000700656000b50e10003003a000200400004
:10156000838048000400370060041400e0841c00fd
:1015700002005800838058000188a3000600320052
:101580008100d1000080d3008984d3000884d30077
:101590000402e800270037000178a30025003a0084
:1015a0000100e000030032008186cf00698656000a
:1015b0000a0037008c0020000000e00004003a0020
:1015c00009007800880478000004eb0070025200e3
:1015d0008086cf000d0646000c06e9007060e10031
:1015e0000600350080007800090078008804780043
:1015f0000004eb0070065600700252000c00e00080
:101600000c0034008c08dd00f00316000703de0038
:10161000868070000c00dd00074bde0006007000c5
:101620008c4cdd000743de00868474000c44dd0032
:101630000c0252006120e1002000350061016000d1
:101640000700280087816400f7ff27008783640074
:10165000070374000300e0000600320082037300f9
:10166000040032000000e800e08048000188a30088
:101670000e003a00f70f20000720e1004a003d006d
:101680000170a1004722dd00810072008a80700095
:101690000000be004f06be004f05be004f04be0056
:1016a000000006006000b800faff37008100d1009a
:1016b0000080d3000402e800eeff37000401780048
:1016c00089017400a10107008a807000f1ff3700d2
:1016d000f7010700070278000001fd008101fd000d
:1016e000f301070087027800850372000778a300e2
:1016f000040032000001fd008101fd000602070028
:10170000e4ff3700850362000768a3000800320089
:101710000b50e10003003200f0ff2f00f1ff270023
:10172000dcff37000001fd008101fd00d9ff37001b
:101730000468a300d7ff3200faff3700f8ff270044
:10174000888360000b003a000000e00009003a00c6
:101750008303640082837300020032000200be0033
:10176000ccff37000b50e100ceff3a000200be0074
:10177000c8ff370014002000810064003eff3700de
:10178000f8ff27008883610004003a000200e000af
:1017900002003a008c007800beff370015002000e0
:1017a0008301640039ff370001f8270000002000a2
:1017b00081007500b7ff3700889fbe008a9fbe007a
:1017c0008c9fbe001b0020000202be000586680040
:1017d00006002800060666004709de00f20fb20088
:1017e000820032000243e80080003200c729de0098
:1017f000f30fb2007d0032000343e8007b003200ab
:10180000f107b2000170a000f507b2000570a0005a
:10181000c708dd004903de00868070004700dd0058
:10182000c72add004923de00868272004722dd00e0
:101830000305510004035000858358000300310064
:1018400000004000818048000a05e9008c1f7800f4
:101850008a9fbe00040050008580580004024200a8
:1018600085824a0000004000818048000005eb00ae
:101870000004be006033b8000406be000d48e1005d
:1018800056003100110009004dccd8000c01b80001
:101890000d02b8008481410060824a0082835300b7
:1018a00003045c0084845c0060055d000a00e000c5
:1018b00025003a00800578000d40e1004900310024
:1018c0008800780007007800110009004d88d800d2
:1018d0000c01b8000d02b8008481410060824a000a
:1018e0006003110083835b0004045c00e0845c00ff
:1018f0000900e00021003a004f01be000300e000b3
:101900002b003200e3016000070673008c81710038
:1019100001003200640070004200de004e5edd0017
:101920000c007000c258de0001e0a0008301070037
:10193000cf017800818071004f06be004f05be00c8
:101940004f04be00000006008c8343000d044c00d1
:10195000e0844c0060054d000000e9000a00e00052
:10196000d4ff32008c8343000d044c00e0844c0013
:1019700060054d000000e900ceff37000c03430076
:101980008d834b0060044c00e0844c000000e900b3
:101990000900e000d8ff32000c0343008d834b00a8
:1019a00060044c00e0844c000000e900d2ff3700e6
:1019b0004200de004e5edd000c007000c258de000a
:1019c00001e0a000cf0178000300e000daff320060
:1019d00060001000e0801800d7ff3700f0ff2f00f4
:1019e000aaff3700f0ff2f00b9ff37000404be0044
:1019f0002f010700870678000004fd008104fd0028
:101a00002b010700078366000678a300030032005d
:101a10000960a7000800be002c0037000d78a30065
:101a2000020032000800be00280037000778a3003b
:101a300026003a0001f0a10009f0a1000668a30009
:101a400003003200f1ff2700f0ff2f00baff37003c
:101a50000d68a300030032000800be008c807000f7
:101a6000b5ff37000768a30007003a000648a30047
:101a700003003200f1ff2700f0ff2f00aeff370018
:101a80000d48a300030032006000b8008c80700095
:101a9000a9ff37000748a3000400320001f827001f
:101aa000000020008c807000a3ff37007601070043
:101ab0000004fd008104fd000205780072010700aa
:101ac0000802be008a01780059ff37000160a000bb
:101ad00012022000c257880097ff37000100e00083
:101ae000120032000500e00010003200889fbe00a6
:101af0008a9fbe008c9fbe000006eb0001f8a30089
:101b00000300320060001000e08018000cf0a0001c
:101b100005f8a3000300320060021200e0821a0000
:101b20000cf0a2008005eb0041ff37006000b80018
:101b30000200050003836800070028000703630014
:101b4000470ade000480a100c71ade000580a1005c
:101b5000f70f20000720e100420032000728e100d3
:101b600040003200889fbe008a9fbe008c1f780014
:101b7000f107b200f307b2000400e0006400320095
:101b80000170a0000500e000680032000370a000b2
:101b900085054200eb07b1000204b8000302b8005b
:101ba0008484440060854a00020ab80084844400aa
:101bb0000a854a00030ab800040545000400330002
:101bc0000804d0008984d2000a85d2008b05e90080
:101bd0006158e1003d00350002102000090161005c
:101be0000308200089816100f707200087836400d3
:101bf00008867300c84cde00c853dd00878474007b
:101c00004855de000300e000060032008203760043
:101c1000040032008904e80060054d000a88a30032
:101c20000c003a00f70f20000758e10044003d0087
:101c30000a70a100c75ddd000a8575008a00730087
:101c4000090078004f0678004f05be004f04be0023
:101c5000000006000a05d1008984d3008b05e80046
:101c6000f0ff3700881f7800060478009000070016
:101c7000070278000001fd008101fd008c000700d3
:101c800087027800850372000778a3000500320000
:101c90000001fd008101fd009f0007004f04780056
:101ca00000000600850372000748a300030032000d
:101cb000f0ff2f00f1ff2700f8ff370000002000a1
:101cc00001f8270088807000f4ff37008801780051
:101cd0004848dd00808171004848de00c850dd00c2
:101ce00001007000c850de00060478000b01780087
:101cf0001600070088807000d2ff37000500e00062
:101d000005003200170020003a0007009dff370051
:101d100081037000f9ff3a00860078004f067800d2
:101d20004f05be004f04be00000005008303710094
:101d3000f9ff3200270020002e00070094ff370033
:101d400001f8270086807000f4ff37000100e000f2
:101d500026003200610111007810e10023003c00f0
:101d60006022b8007010e1000400350080027800a5
:101d7000010078008000eb00700151000200e000db
:101d80000900340070031100062add00822ade00fb
:101d90008603dd00878272000200de00860bdd0014
:101da000070070008208de0084817100f4ff2700c4
:101db0000482620084817100040028008482620031
:101dc0006102600005f0a6000000060004827100b8
:101dd000070032000000e800e08048000000060034
:101de0000002be006000b800efff37006000b800de
:101df00000000600889fbe000004eb006138e1008f
:101e000016003a000100e00008003a00c800de00b9
:101e10004800dd00880020000100e00003003a00d7
:101e2000c800de004800dd00680444008184cf0063
:101e3000e9845400060034008908dd00f0831400b2
:101e40008703de00878070000900dd00090444007c
:101e5000610214004f04be00000006000300e00011
:101e600008003a00c811de004811dd00880020009b
:101e70000300e00003003a00c811de004811dd0055
:101e8000680444008384cf00e984540006003400d1
:101e90008919dd00f08314008713de00878171004b
:101ea0000911dd0009044400e1021400e9ff3700d4
:101eb0002700200001f0a70017002000470bde00dc
:101ec000f60fb200040032000643e8000a003200b8
:101ed0004702b3000000060001037800f607b200d5
:101ee0000603700002003a000703b300000006007a
:101ef0008702b3000000060001037800f607b20075
:101f000006037000020032000770a0000000060007
:101f10000760a000000006000478a300040032005f
:101f20000578a300030032000168a30001003a0015
:101f30000200be000160a0000000060081017000e8
:101f4000270032008002eb0001f8a30003003200fa
:101f500060001000e080180015002000f407200049
:101f60000202420020003400f703200087036000d3
:101f70000604200000036300020820000001610045
:101f80004700de00c909dd0000807100c708de00df
:101f90000600e000080032008703710006003200ee
:101fa0001000b0000180b0000188a30002003200e0
:101fb000c108de000402e800f107b200f30f2000c0
:101fc0000320e10003003d004722dd008100720094
:101fd0002900370001f827000000eb002600370039
:101fe0006000b80000000600680212007f20e100d7
:101ff000020034006000b8001f0037006011b80014
:102000007020e100040035008001780001007800b4
:102010008000eb00700252000400e0000900340070
:10202000f00312000719dd008419de000703dd004c
:10203000868171000400de00070bdd0006007000e1
:102040008408de00f7ff27008383630087037100a5
:102050000600280003036300070032000700e000c9
:1020600003003a0061016000028173000200320047
:102070001000b0000180b0000500a60000000600be
:1020800001f0a000000006004f0ade004709de0054
:10209000f107b200f20fb2000b003200f207b100fc
:1020a0000170a000c708dd00c901de008380700058
:1020b0004700dd000400a6000000060060001000dc
:1020c000e080180000000600810f700001003a0057
:1020d000000006008182cf000500e00010003e00f5
:1020e0008082cf00ee8242007028e10004003900b7
:1020f00007003e00800078000000eb000e00370073
:10210000708312008600de000500dd000a00370043
:10211000708352008600dd000000eb0006003700ef
:10212000e28252008508dd00708312000603de00a3
:10213000868070000500dd007507b0000501ea002b
:102140000400a6000000060060001000e0801800f7
:1021500000000600889fbe008a9fbe00841f780092
:102160007c0007004f00780011003300f0ff2f00c3
:10217000838f6c0006003b00040565000a00a70081
:102180000800370009f0a600100020000800370002
:10219000820f5400838f5c00030039001000200080
:1021a00001003e000000200009f0a7000000ea0046
:1021b0004f05be004f04be000000e0000000060016
:1021c000881f7800030478000300e00007003d004a
:1021d00060001000e080180060011900e081190023
:1021e00002003b0001f02d0003003700040007004f
:1021f00008f0a70001f0a0004f04780000000600de
:10220000889fbe008a9fbe00008270000402710099
:1022100004827100260032000004be000200be00ed
:102220006011b8006b092000950220000182cf00e8
:102230000a0039000541b1000082cf0007003900d3
:102240000541b1000982cf00040039000541b10009
:102250000882cf00010039000541b100054252005b
:10226000120032000a003b008281710061016400ab
:102270008100d1000080d3008984d3000884d3007a
:102280008b05e8000442e800f7ff3a00070037003a
:102290000804440089844c00000048008180480004
:1022a0008b05e9000442e900f9ff3a00030007004a
:1022b0004f05be004f04be00000006008100200054
:1022c000618055000b003d000b00200061fe2f00d7
:1022d0000100e1001d003400828171006101640091
:1022e0008904d1000884d3000000e800faff3a0016
:1022f00071002000610064000300700002006000b3
:102300000900320061044400e0844c000988a50003
:10231000050032008b05e8006808e10002003a0081
:102320008904d1000884d300f20f20000258e10094
:1023300005003d00c75ddd00f907b200898075002a
:1023400008007800000006000bf827008b007800da
:10235000000005000004be0014fc07000003be00de
:102360000405be000200be0010fc0700844f75008b
:042370000000060063
:020000040000fa
:102374000a0d000000200000000a00000d520000b9
:1023840065610000646900006e670000204600007b
:10239400617500006c740000732e00000a0d0000cb
:1023a40000460000617500006c740000204c0000c1
:1023b4006f67000020460000756c00006c2e000062
:1023c4000a0d0000004e00006f200000666100004e
:1023d400756c000074200000636f000064650000e9
:1023e400732e00000a0d0000004300006f6400001b
:1023f400653a000020000000202d00003e2000006f
:10240400004600006c610000677300003a3a000067
:102414007c53000065740000732000004c4b0000e6
:102424007c7c00004261000074740000204f0000b6
:10243400567c00007c42000061740000742000009f
:10244400485600007c0000007c42000061740000db
:1024540074200000555600007c7c0000426100009e
:1024640074740000204f0000547c00007c53000072
:1024740079730000204f0000547c00000a0d000016
:102484000020000020200000202000002020000068
:1024940020000000534500005420000020200000cc
:1024a4002020000020000000436c00006561000053
:1024b40072200000202000002000000020200000e6
:1024c4000053000079730000746500006d20000063
:1024d4005365000074740000696e000067730000a7
:1024e4003a3a00000a0d0000003100003a200000d2
:1024f4007c520000317c00002020000020200000dd
:10250400202000007c520000327c000020200000cb
:1025140020200000207c000053310000437c000098
:1025240020200000202000007c53000032430000e3
:102534007c20000020200000202000007c530000ac
:10254400334300007c20000020200000207c000099
:1025540053340000437c00000a0d000000320000e8
:102564003a2000007c500000437c00002020000042
:1025740020200000202000007c4d00004256000076
:102584007c20000020200000207c0000425200003b
:10259400567c000020200000202000007c44000025
:1025a400567c000020200000202000002020000095
:1025b4007c4c0000565300007c20000020200000ca
:1025c400207c000044430000527c00000a0d0000ff
:1025d400003300003a2000007c4c0000437c0000e3
:1025e4002020000020200000202000007c43000068
:1025f400435200007c20000020200000207c0000ca
:1026040041480000527c00002020000020200000ef
:102614007c4f0000435300007c2000002020000079
:10262400207c0000414d0000437c00000a0d0000a6
:10263400003400003a2000007c43000054380000bd
:10264400307c00002020000020200000202000001a
:102654007c4300006d5400007c200000202000001a
:10266400207c0000435200004c7c0000202000002d
:10267400202000007c4300004d580000547c0000e2
:1026840020200000202000007c430000524800006d
:102694007c20000020200000207c00004354000027
:1026a400547c00000a0d0000003500003a200000b0
:1026b4007c4400006d5400007c20000020200000b9
:1026c400207c0000445200004c7c000020200000cc
:1026d400202000007c4400004d580000547c000081
:1026e40020200000202000007c440000524800000c
:1026f4007c20000020200000207c000044540000c6
:10270400547c00000a0d0000003600003a2000004e
:102714007c420000535400007c2000002020000074
:10272400207c000043530000547c00002020000063
:10273400202000007c4d0000485400007c20000054
:1027440020200000207c0000504f0000417c00004d
:102754000a0d0000000a00000d2a00002a2a0000c9
:102764002a2a00002a2a00002a2a00002a2a000015
:102774000a0d00000044000069730000706c000042
:10278400617900003a3a00000a0d000000310000af
:102794003a2000007c420000257c0000202000003c
:1027a40020200000202000007c500000567c000007
:1027b4002020000020200000207c0000545600004f
:1027c4007c20000020200000207c000050570000e6
:1027d4007c20000020200000202000007c4100001c
:1027e400567c00000a0d0000003200003a20000070
:1027f4007c430000567c00002020000020200000c4
:10280400202000007c430000417c000020200000c8
:1028140020200000207c0000533100007c200000b8
:1028240020200000207c0000533200007c200000a7
:1028340020200000202000007c530000337c000096
:1028440020200000202000007c530000347c000085
:102854000a0d0000003300003a2000007c570000fd
:102864007c2000002020000020200000207c0000ac
:10287400435700007c20000020200000202000009e
:102884007c4100007c20000020200000207c00000f
:10289400434200007c0a00000d000000343a0000ae
:1028a400207c0000434d00007c200000202000001c
:1028b40020200000207c0000414100007c2000001a
:1028c40020200000202000007c4f00004356000020
:1028d4007c20000020200000207c00004d430000ec
:1028e4007c0a00000d0000000a0d000020410000d9
:1028f4006820000052610000746900006e670000e7
:102904003a200000000a00000d200000436100008e
:102914007061000063690000747900003a200000cf
:10292400000a00000d200000526500006d610000e7
:10293400696e0000696e0000673a00002000000024
:102944000a0d000020430000686100007267000067
:102954006520000043790000636c0000657300008b
:102964003a200000005500006e610000626c000017
:10297400653a00002053000065740000746900008b
:102984006e670000732000004c6f0000636b000052
:10299400656400002e0a00000d00000053310000a1
:1029a4003a20000000530000323a000020000000ea
:1029b400533300003a20000000530000343a000072
:1029c40020000000434800003a2000000076000088
:1029d4006f6c0000746100006765000020690000ee
:1029e4006e70000075740000287300002920000038
:1029f400636100006c2e00000a0d0000004e000010
:102a04006f740000686900006e67000020630000b6
:102a1400616c000021200000566f00006c740000ff
:102a24006167000065730000206f0000757400008a
:102a3400206f000066200000726100006e670000d5
:102a4400652e00000a0d0000004000000020000078
:102a54004346000021000000202d00003e430000fa
:102a640072450000213c00002d0000000a0d00000a
:102a740050520000473a00000a0d00005374000051
:102a84006f720000656400003a0000000a0d000047
:102a9400436100006c6300003a2000002000000045
:102aa4004d6500006d200000427500007379000040
:102ab400000a00000d4e0000564d00003a0a0000c6
:102ac4000d530000746f000072650000643a00004a
:102ad400000a00000d53000065740000732000001c
:102ae400616e0000642000005661000072730000f3
:102af4002053000061760000656400002e0a000087
:102b04000d000000502000004f6e00000a0d000070
:102b140000500000204f0000666600000a0d00000f
:102b2400000a00000d48000055440000204f00003a
:102b34006e0a00000d0000000a0d00004855000058
:102b4400442000004f660000660a00000d000000eb
:102b54000a0d000046610000756c000074730000eb
:102b6400204300006c650000617200006564000091
:102b74002e0a00000d0000000a0d0000563100006e
:102b84002e3000005f320000532d0000345300004b
:102b94000a0d00000053000065740000732000005b
:102ba400556e00004c4b0000442e00000a0d00003e
:102bb4000057000061690000742e00002e2e0000f2
:102bc4000053000065740000732000004c4b0000ab
:102bd400442e00000a0d0000005000006f77000032
:102be40065720000204f000075740000204f000043
:102bf4006e2e00000a0d0000004300006861000012
:102c04007267000065200000476f00002e0a000074
:102c14000d000000524c0000200000000a0d0000ce
:102c24004348000020000000556e00006b6e000059
:102c34006f7700006e200000436f00006d6d000090
:102c4400616e0000642e00000a0d000000490000bf
:102c54006e690000742e0000200a00000d000000c0
:102c6400200000002500000056000000545600001b
:102c740000500000570000004156000000430000cf
:102c84005600000043410000003a000053310000a8
:102c9400003a000053320000003a000053330000b1
:102ca400003a0000533400000057000000430000c5
:102cb40057000000410000004342000000430000b0
:102cc4004d00000041410000004f00004356000049
:102cd400004d0000430000000a0d00000000000049
:102ce40032960000349600003696000038960000b4
:102cf4003b9600003e96000041960000449600007a
:102d0400479600004b9600004f9600005396000033
:102d140057960000599600005c9600005e960000ed
:102d24006196000064960000679600006b960000b0
:102d34006e96000048650000617400006572000032
:102d4400207400006f6f0000207300006d610000ac
:102d54006c6c0000004e00006f20000068650000ed
:102d64006174000065720000206400006574000056
:102d7400656300007465000064000000486500009d
:102d84006174000065720000207400006f6f000021
:102d9400206c00006172000067650000004c0000b8
:102da4006f7700002042000061740000742000006e
:102db400560000004261000074740000204f0000bf
:102dc400430000004368000072670000204f0000c9
:102dd400430000004261000074740000204f0000b2
:102de400560000004261000074740000204f00008f
:102df40054000000422d0000466c00006167000092
:102e040028730000292000005365000074000000ae
:102e1400536500006c660000204f00005400000061
:102e2400537900007320000053680000757400009b
:102e3400646f0000776e000000500000574d0000e2
:102e4400206500007863000065700000004f0000fa
:102e54007363000020650000786300006570000063
:102e640000410000646400007220000065780000e6
:102e74006365000070000000535400004b20000004
:102e84006578000063650000700000004d54000088
:102e940048200000657800006365000070000000b1
:102ea400526500007337000020650000786300005d
:102eb40065700000006200006c6100006e6b000031
:102ec40000420000726e00004f75000074000000a4
:102ed4005744000054200000727300007400000086
:102ee400756e00002d680000616e0000646c0000c7
:102ef40065640000206500007863000065700000d0
:102f0400746900006f6e000020720000737400008a
:102f1400004f0000706300006f6400006520000033
:102f240072730000740000004d4300004c52000016
:102f34002072000073740000004900006c6c0000f3
:102f440065670000616c0000204900006e7300009a
:102f540074000000537900007320000052730000d5
:102f640074000000496e0000766100006c200000cf
:102f740070720000740000005553000042200000ed
:102f840043680000204600006c74000000500000fc
:102f940043680000672000003e200000313000003c
:102fa400302500000056000048200000436800005f
:102fb40056000000564c00002043000068560000f4
:102fc4000056000048200000436800004300000051
:102fd400564c0000204300006843000000560000e7
:102fe40048200000425400006d70000000560000ac
:102ff4004c200000425400006d7000000056000098
:103004004820000042430000005600004c2000000d
:10301400424300000056000048200000534d0000c9
:10302400005600004c200000534d000000500000ea
:103034004f52000054310000204200005359000058
:103044002065000072720000005000004f52000022
:103054005432000020420000535900002065000053
:103064007272000000500000676d000020430000f1
:10307400686b00002045000072720000004e0000e2
:10308400564d000020430000686b000020450000fe
:103094007272000000530000657400007320000089
:1030a400436800006b2000004572000072000000bd
:1030b4004e56000053200000436800006b200000bf
:1030c4004572000072000000504f0000525400008e
:1030d400312000004552000052000000504f000013
:1030e40052540000322000004552000052000000fb
:1030f400536f000066740000204f0000430000007e
:10310400564800002053000031000000564c0000d7
:1031140020530000310000005648000020530000f6
:1031240032000000564c0000205300003200000022
:10313400564800002053000033000000564c0000a5
:1031440020530000330000005648000020530000c4
:1031540034000000564c00002053000034000000ee
:103164004368000072670000206900006e200000c0
:103174004f5600000045000058540000204f000046
:10318400433a0000205000006c65000061730000a9
:1031940065200000526500007365000074000000a3
:1031a40045580000542000004f5600003a2000000b
:1031b4004261000074740000204600007573000032
:1031c4006520000054720000697000007065000002
:1031d4006400000042610000747400002055000087
:1031e400560000004348000020630000796300009b
:1031f4002d6c0000696d000069740000005300002c
:10320400797300002053000061660000652000000f
:103214004d6f000064650000005500006e6b0000f7
:103224006e6f0000776e0000000000009c960000a6
:10323400ad960000c0960000d1960000dc96000018
:10324400e4960000ec960000f4960000fc96000062
:103254000a970000129700001f97000029970000aa
:10326400339700003e9700004897000052970000f3
:103274005d970000639700006a9700007297000052
:103284008b970000969700009f970000ac97000072
:10329400b4970000be970000c9970000d5970000be
:1032a400dc970000e3970000ea970000f197000024
:1032b400f997000001980000079800000d9800009d
:1032c4001398000019980000279800003598000012
:1032d400419800004d9800005a980000669800003c
:1032e400709800007a980000829800008898000086
:1032f4008e980000949800009a980000a09800000e
:10330400a6980000ac980000b2980000bd98000098
:10331400d2980000ec980000f49800000199000095
:043324000f990000fd
:020000040000fa
:103328008248e200030032000140fe008248e200c9
:10333800fdff3a0000000600889fbe000004be00a2
:103348006011b800d0f707000000e00001003d0060
:1033580009f0a2000800be004f04be0000000600ed
:10336800889fbe000004be000001be00eff9070000
:103378000801be00edf907004f04be00000006007a
:10338800889fbe008a9fbe008c1f78000005eb0056
:1033980008002000892c24000a067800aba320002e
:1033a8004250dd00008045001000be000801be004c
:1033b800b5f707000000e00004003d004250dd00c2
:1033c800008045001004be000a0678000a05e800df
:1033d800e40f5500f2ff3a004260dd00a1a320008f
:1033e800008040001000be0002002000832c240052
:1033f800a7f707000000e000070034004260dd0086
:10340800a1a320000080400002002000832c24009b
:103418000288be000d0037004260dd00a1a3200035
:10342800008040001000be006011b80096f7070049
:103438000000e00005003d004260dd00a1a320007f
:10344800008040006011b8000288be004266dd00be
:10345800a0a320000c0640001c00be00484d8000c0
:10346800594d800002002000832c2400d0f807006a
:103478000001be000800be00acf90700204e88001d
:10348800314e88004f0678004f05be004f04be003d
:1034980000000600ea874700889fbe008a9fbe009a
:1034a8008c9fbe008e1f7800105180002151800033
:1034b800a1ff0700d2cc2c00c3d4230072f7070069
:1034c8000000e0004b003d006ccabf000038a300bc
:1034d80048003200904f8000a14f80009051880032
:1034e800a151880070488000f0b79f008148800093
:1034f80081bf9f0050488000614880007fb19700dd
:103508008fb99700bcf70700d0b79f00e1b79f00bd
:103518006011b8005cf707000000e00004003a0002
:103528000000200001f82300d0b79f00e1b79f00fa
:103538000007eb000a0020000bf023004271dd00b9
:103548002202b000819e2000028140001200780013
:10355800920090007fb197008fb99700a6f70700f7
:103568000004be006011b80047f707000000e00043
:1035780001003d006044b8005fb19700efb19700cb
:103588000800be008af807000a01be009af7070083
:103598000004be0072ff07000001be009ff707008d
:1035a8000006be000a01be000800be005ff9070061
:1035b8000001be000c00be0098f707000a01be001b
:1035c80096f7070002002000832c240057f9070013
:1035d8000001be00c270dd00a0a3200081004000f1
:1035e8008288be000e07e800e40f5700d3ff3a00b8
:1035f8006a6aa8004f0778004f06be004f05be0054
:103608004f04be00af00b100000006008121200079
:10361800914078000000eb000148a300130032003d
:10362800e1202000914078000148a3000f003200fb
:1036380091212000914078000108a3000b0032007e
:10364800f1202000914078000108a3000700320013
:1036580081212000914078000108a30003003a006e
:103668000ec2bf00610060000000a200000006005a
:10367800b1a62000914078000128a30055003a0027
:103688004248e20053003a00a1a620009140780089
:103698000118a3004f003a000000e0004d003a0076
:1036a800b1a62000914078000118a300490032001b
:1036b800d6ff07000000e0008e003200ff3ffc004c
:1036c80080072000a10920003274200000497800fa
:1036d80001497800004978003274200000497800d8
:1036e80001497800014978007200200033742000f5
:1036f8008049780081497800824978006004200078
:1037080071052000227420000049780001497800e2
:1037180000497800227420000049780001497800a7
:10372800014978001208200023742000804978009d
:1037380081497800824978006b2aa900411020004d
:1037480091407800f0ccb30080c060000154a00024
:10375800814178004210200003497800a2832300a9
:10376800120888000021ef00011120009140780024
:1037780080c060000144a00081427800041120004c
:10378800054a780041072700610888000621ef00f4
:10379800e31120009341780080c161000354a00028
:1037a80083427800e4112000054a78001421ef00d4
:1037b800d2088800021220001241780000406100ff
:1037c8000044a00020e1b700e10888001821ef00bc
:1037d8003c003700e10f500046003a006bcabf00ba
:1037e8000018a30043003a006b2aa800ff3ffc0022
:1037f80003c3b300034078000461b700a20e2e0093
:103808001208880010c1bf00f1ccb300014060006d
:103818000054a00010e1b700a483230064088800c6
:10382800034078001e61b700d20888000212200009
:1038380012417800814061000154a0008141780064
:103848000212200003497800e4088800800720005d
:10385800a10920003274200000497800014978004d
:103868000049780032742000004978000149780046
:1038780001497800720020003374200080497800e4
:103888008149780082497800600420007105200091
:103898002274200000497800014978000049780026
:1038a8002274200000497800014978000149780015
:1038b8001200200023742000804978008149780094
:1038c8008249780042c7bf000008a3000500320003
:1038d800000000000000000042c7bf000008a3006d
:1038e800fbff3a006bcabf000008a30001003200ca
:1038f8005220ef0000000600f1a62000e042800000
:10390800614078000004e00002003a005c28ef0003
:103918008268ef005c08e20003003a005e08e200fb
:1039280001003a006b4aa90000000600b00320001d
:103938005c08e300010036005c28ef000000060088
:103948006f006000e90f500002003c000043b00027
:10395800010037007043b0000000060000000600b8
:10396800889fbe008a9fbe00000478000000eb001c
:10397800eeff07004c40de0068e8b70000f02000ca
:10398800000064004880de0069e8b700080078009d
:10399800000fb2004480de006ae8b7006f4464009c
:1039a80088407800b086200001487800e042800016
:1039b80002c3b300f1a6200082707800a1032000a2
:1039c800810f500002003e000000e800e04288003d
:1039d800e042800082c7b300f1a620008270780020
:1039e800a1032000810f500002003e000000e80003
:1039f800e0428800e842800089862000ca862000cc
:103a0800ab0320003900fb00cdff0700f1a6200022
:103a180080707c008b0f540001003e000804e80011
:103a28008a8f5400f7ff3a00e84288008468ef0064
:103a38004f05be004f04be00000006000000eb006a
:103a4800baff07008248e20008003a0010c0b3003d
:103a580082e8b7000041eb00f1a62000e0428000b8
:103a6800827078005c28ef008540a80000000600fe
:103a7800881f7800000478000000eb00abff070007
:103a880010c0b30084e8b7006028ef001840780041
:103a98000004e00014003200e1428000f2a6200099
:103aa80000f17800a0032000808f50000e003e0037
:103ab8008000eb000002780004003700f3a6200025
:103ac80082717800840f500007003e005c08ec000b
:103ad800e04288008100e8000143880058417800ee
:103ae8000204e000f5ff3a008468ef004f04780014
:103af800000006008000eb00ddff07000000eb007f
:103b0800ceff07000000eb0005fe070000000600de
:103b18000000eb0085ff0700e042800003872000db
:103b280022438000f1a62000e341790083707800e9
:103b3800a1032000810f500002003e000000e800b1
:103b4800e042880000000600e6874700889fbe0024
:103b58008a9fbe008c9fbe008e1f78000005be00a5
:103b68006428ef008068ef0000c2b30070e8b70077
:103b78006011b8000a00be00c3f507000000e000ad
:103b880003003d000bf0a200d0c2b30070e8b700fc
:103b9800f2ff2300c36124000a00be00bcf5070041
:103ba8000000e00005003400f0c3b30070e8b7007f
:103bb800faff2300cb6124000a003700f226210017
:103bc80033a823000a00be00aff507000000e0009c
:103bd80004003d00c0c3b30070e8b700fa26210016
:103be8003ba8230002002000a34724000a00be00cf
:103bf800eff60700a0428800b14288002e438000fb
:103c08000e07e800e80f570028003e00a842800091
:103c1800b94280008ebf9f000c0020000d122400c6
:103c2800010037008ebf9f00e50f570004003a00df
:103c3800e0c2b30075e8b7006000200080bf9f00b5
:103c48000800be0094f5070000417800e2ef9f00ed
:103c5800824078000143b000008720000fb9970028
:103c6800017079000207e8006fe997000200fb0085
:103c7800cf80de00c4f507000001be000800be00ca
:103c8800ddf507000c01be00a8f707000004be0020
:103c9800e80f5700e3ff3600a0428800b1428800d1
:103ca800efe8970000882000014878006428ef00ba
:103cb80010c0b30084e8b70009c3b300250037007b
:103cc8000804e80050467800894f56000200320088
:103cd8002843880003003700e20f5400f8ff36003d
:103ce800284388008648e2000b00320000c2b30077
:103cf800804f560005003200d0c2b300804f5600f6
:103d080003003a000000eb0081ff07006428ec0084
:103d18008668ef00030037000000eb007cff070017
:103d28006428ec000187200020438000614078006f
:103d3800894f500007003200d1c2b300814f5000b4
:103d48000400320001c2b300814f5000010032006c
:103d58007e68ef0028438000e80f540011003e0001
:103d68000087200060467c00894f5600ddff3a003e
:103d78007e48e200dbff3a00e20f5400d9ff3e0024
:103d880002002000a34724000a00be003ef50700f9
:103d98000000e000d3ff3d00008720000000440041
:103da800c7ff37007e68ef008468ef004f07780090
:103db8004f06be004f05be004f04be006f00b100a5
:103dc80000000600889fbe008a9fbe000005be0056
:103dd8000204be006bcabf000018a30005003a0029
:103de8000200200003d823000800be004ff7070098
:103df8000004be006011b8000a00be0022f50700ea
:103e08000000e00002003a000a0020006b61240074
:103e180002402200439724000800be0043f7070031
:103e28000a01be0062f607000200200003d8230042
:103e38003ef707000200200003f823006ef5070094
:103e480036f507004f05be004f04be00000006000f
:103e5800881f78006c4aa9006000b800d04f88001d
:103e6800e14f880030518800415188005051880046
:103e780061518800904f8800a14f8800d051880078
:103e8800e1518800f05188000152880010528800e2
:103e98002152880030528800415288001051880011
:103ea80021518800c020ef00c220ef00c420ef009d
:103eb800c620ef00f0ff210060168800d022ef0036
:103ec800ce22ef00e0f82f00f0168800e222ef0083
:103ed800e022ef00a0ff2f00c0168800dc22ef00d0
:103ee800da22ef00c021ef00c221ef0020062000f7
:103ef800200e8800c621ef0008072000480e880021
:103f0800ca21ef00cc21ef00d021ef0000a0220051
:103f1800a00e8800d621ef00d821ef00da21ef00ab
:103f28000e22ef000fe2a9000c22ef000d42a800bc
:103f38000ce2a8001822ef0019e2a9001622ef00ef
:103f480016e2a800a2702d00b3162400000020007d
:103f5800616124009bff0700a0108800a2702d005b
:103f6800b3162400000020006161240095ff0700bb
:103f7800f0108800402e20000015880040422000e4
:103f8800101588000098200020158800a622ef0050
:103f980000e02f0040158800f01f20005015880011
:103fa800084078009960b70097c0bf0081cfb30080
:103fb800014060006040b30097e0b7009cc0bf00bc
:103fc800014060005040b3009ce0b70094c0bf00bf
:103fd800014060005040b30094e0b700520920004f
:103fe80012417800f0c8b300004161000264a000eb
:103ff800024278005309200084497800f209200021
:1040080012417800014161000224a00002427800b8
:10401800f3092000844978009209200012417800b1
:10402800014161003240b300024278009309200048
:1040380084497800020a200012417800004161009a
:104048000243b30002427800030a20008449780042
:104058008209200012417800004161000254a0004a
:10406800024278008309200084497800020a20006f
:1040780012417800814061000114a000814178005c
:10408800020a200003497800710920009140780055
:1040980080c060000154a00001417800740920002c
:1040a800024a7800e10920009140780080c0600051
:1040b8000144a00001427800e30920008449780007
:1040c800f10920009140780000c060000044a00081
:1040d8009fe0b7004f04780000000600889fbe00ec
:1040e800d0bf200000018800584780006947800041
:1040f80030478000414780000801be00c7f4070030
:104108000001be000800be00a9f507002040880095
:1041180031408800d0a320006041880070fd230052
:1041280070418800e00e26008041880080812400cc
:10413800904188006c0aa90081e0a9008420ef0062
:104148008620ef008820ef00ff3ffc008c20ef0066
:104158008e20ef009020ef008c60a8008d20a80032
:104168008d40a8008f00a8008f20a8008c00a80010
:104178008e00a8008ee0a9008cc0a8008ce0a900e1
:104188008ea0a9008ec0a8008d60a8008200a9009a
:104198008240a9005220ef00a1e2a800c1e1a800d6
:1041a80011e1a80005e1a80021e1a8000de2a8009e
:1041b8000f42a80017e2a8001942a8006caaa8009c
:1041c8004f04be000000060021ff0700ff3ffc006f
:1041d8008420ef008620ef008820ef008c20ef007d
:1041e8008e20ef009020ef008d20a8008d40a800c1
:1041f8008f00a8008f20a8008ea0a8005220ef00f2
:104208006b0aa800c1e1a90011e1a90005e1a90014
:1042180013e1a9001fe1a90021e1a9000de2a8000e
:104228000f42a80017e2a8001942a80000000600e3
:1042380040448000e30f5000010036008828ef005a
:1042480000000600889fbe00aa28ef00a228ef0001
:104258008000eb006604b90029672900810044004a
:10426800a108b000008e200060c078000080fb002c
:1042780030458800eb0f500003003e0013c0b30028
:104288006288200003497800ec0f500004003a00cf
:1042980013c0b300e28720000349780026003700e6
:1042a8000000e00048003200b10f2000810f5000ec
:1042b80021003600d10f2000810f5000100032007d
:1042c80004003e00c10f2000810f500017003a0083
:1042d80007003700e10f2000810f50000c0032006a
:1042e800f10f2000810f500010003a000c00370039
:1042f8008000eb0020952000ddfd07000b00370053
:104308008000eb0080952000d9fd070007003700ea
:104318008000eb00e0952000d5fd07000300370082
:104328008000eb0040962000d1fd0700100020001f
:10433800504588001f003700f40f500006003a006f
:104348008000eb00a01b2900c9fd07001000200019
:104358005045880017003700f40f500015003e0044
:104368004200dd00a19e20000101400012007800fb
:1043780092009000a2702d0033c2230027f407009a
:104388000001eb00f0fd07005ca8ed00304580005f
:1043980000004000690078008000eb00b4fd0700d1
:1043a8008000eb00d01b2900b1fd070010002000a1
:1043b80050458800114580008100e80011458800bb
:1043c800e58f5000a5ff3600aa08e200020032007f
:1043d8000000eb0099fd07004f04be000000060036
:1043e8005049e200250032008248e20023003a00ea
:1043f80040c8bf00e54f500020003a00aec8bf00db
:104408001c003a008000eb00f04480008dff07009c
:10441800f0448000a10b200080804000028e200024
:10442800e2c078008140e900e28a20000149780072
:104438000104e00001003d00ae68ef00e30f50000a
:104448000a003e006601b900a108200082804000f1
:10445800028e2000e2c078000104e0000300320070
:104468000000e800f0448800040037009e28ef00b0
:10447800020037000040e900aee8b700000006007f
:10448800889fbe008a9fbe008000eb00f01b2900b9
:1044980098fd0700104f8000ea0f50000300360017
:1044a8008000eb00301d290092fd0700e209e200c0
:1044b80004003a008000eb00501e29008dfd070023
:1044c800280037009a28ef00b90720008a912900b0
:1044d8000000eb0092fb07008000eb00701f290032
:1044e80063fd0700d04480007600400000004000d3
:1044f800289a2000680078008000eb0018fd07006b
:104508008000eb00e01f290059fd0700d04480001f
:10451800760040000000400068007800890f5000d5
:1045280006003e000000e900000040006a00780034
:104538008000eb004efd0700030037008000eb0011
:10454800f09029004afd07008000eb00a01b29001d
:1045580068fd07009a08ec00d0448800e209e300ef
:10456800dbff3e000000eb006dfb07008000eb0066
:10457800a01b29005ffd07008000eb003020290008
:104588005cfd07008000eb006022290059fd070050
:104598008000eb003024290056fd07008004eb0062
:1045a80018c0b3006a252900cb2429000880fb0025
:1045b8004e08b600040032008000eb000b007800c3
:1045c8002bfd0700030037008000eb000a0078008d
:1045d80027fd07008904e800e68f54000200320036
:1045e80008444400f1ff37008000eb00a01b2900bd
:1045f80040fd07004f05be004f04be000000060046
:10460800889fbe008a9fbe008c1f78000005780036
:1046180001047800820578008000eb00002629005c
:1046280034fd07008b0f540010003c008804e9009b
:1046380089844400890445000005eb000c26290004
:1046480059007800cf80de004ff307000a01780098
:104658003dfd07008a0078000c00780004fd070083
:104668000804e800888f5500f5ff3d008000eb0046
:10467800a01b29001ffd07004f0678004f05be004c
:104688004f04be0000000600889fbe008a9fbe003f
:104698008c1f780000047800010578000206780075
:1046a8008000eb000026290012fd07008c0f550042
:1046b8000e003c008a05e900c25ddd008b05440060
:1046c8000004eb0009262900080178005b00be0001
:1046d8001dfd07008800780009007800e4fc070049
:1046e8000a05e8008a0f5600f7ff3d008000eb003e
:1046f800a01b2900fffc07004f0678004f05be00ed
:104708004f04be00000006008000eb00a01b29003b
:10471800f8fc07008000eb0030262900f5fc0700b4
:104728008000eb0070272900f2fc07008001eb00f5
:104738006200200011002000208e2000d2ff070018
:104748008000eb00a01b2900eafc07008000eb00ba
:10475800102b2900e7fc07008001eb00c2002000b5
:1047680071002000208e2000c7ff07008000eb00aa
:10477800a01b2900dffc07008000eb00b02e2900f9
:10478800dcfc07008001eb0012012000d1002000b2
:10479800208e2000bcff07008000eb00a01b290032
:1047a800d4fc07008000eb00b0312900d1fc0700e1
:1047b8008001eb006200200011002000e092200040
:1047c8008fff07008000eb00a01b2900c9fc070031
:1047d8008000eb0070352900c6fc07008001eb0063
:1047e800b200200071002000e092200084ff070042
:1047f8008000eb00a01b2900befc07008000eb0036
:1048080070382900bbfc07008001eb00f200200093
:10481800c1002000e092200079ff07008000eb0033
:10482800d03a2900b3fc07008000eb00d03b2900f8
:10483800b0fc07008000eb00903c2900adfc0700ad
:104848008001eb005200200011002000a09e2000f3
:104858008dff07008000eb00a01b2900a5fc0700c6
:104868008000eb00703f2900a2fc07008001eb00ec
:10487800b200200061002000a09e200082ff0700f7
:104888008000eb00a01b29009afc07008000eb00c9
:10489800d042290097fc07008001eb00f2002000bd
:1048a800c1002000a09e200077ff07008000eb00d9
:1048b800a01b29008ffc07008000eb0000452900a1
:1048c8008cfc07008001eb00320120000101200070
:1048d800a09e20006cff07008000eb0060472900c5
:1048e80084fc070010498000214980000001eb008a
:1048f80095fc07008000eb00504829007dfc07006c
:10490800404d8000514d80000001eb008efc0700f7
:104918008000eb003049290076fc0700204e80001b
:10492800314e80000001eb0087fc07008000eb009f
:10493800204a29006ffc0700604e80008000eb00d1
:1049480094f207000001eb007ffc07008000eb00f9
:10495800a01b290067fc0700000006008000eb0090
:10496800504b290042fc070000000600b1ff2f0051
:10497800c1168800d2a2ef00dc42a90061416000a4
:10498800c12d2000914078000104a10082c0700070
:1049980081417800c22d2000034978000000fb0007
:1049a8008000d100e1c0600001c14000612d2000fd
:1049b800914078000114a10082c070008141780004
:1049c800622d2000034978004201de006141610048
:1049d8004211dd00612d2000914078000124a100e2
:1049e80082c0700081417800622d20000349780060
:1049f800c300de00e1c06000c308dd00d6c2bf000e
:104a08000034a10001407000d6e2b700a0ff2f00db
:104a1800c016880010ff2f009016880000000600be
:104a2800b1ff2f00c1168800d2a2ef00dc42a80017
:104a38000000fb00610160000204a200c12d2000fb
:104a4800914078000104a100814071008141780003
:104a5800c22d200003497800e20060008100e900cf
:104a6800cf08de0001c14000612d20009140780090
:104a78000114a10082c0700081417800622d2000dd
:104a880003497800640160000201e9004f11de006b
:104a98004211dd00612d2000914078000124a10021
:104aa80082c0700081417800622d2000034978009f
:104ab800e80060008100e900cf08de00c308dd00df
:104ac800d6c2bf000034a10001407000d6e2b70092
:104ad800a0ff2f00c016880010ff2f009016880036
:104ae80000000600889fbe000004be0002002000ef
:104af800432b2400e6f107000000e0000300340027
:104b08006acabf000018a300090032000200200092
:104b1800832c24000800be00ddf107000000e0003f
:104b2800060034006acabf000018a3000300320060
:104b3800f0c0b300baff07002f00370002002000c2
:104b4800632924000800be00d1f107000000e0003e
:104b58000300340070c0b300b1ff0700260037001f
:104b680002002000832424000800be00c8f10700ca
:104b78000000e0000300340030c0b300a8ff0700c5
:104b88001d00370002002000831c24000800be001e
:104b9800bff107000000e0000300350010c0b300bb
:104ba8009fff07001400370002002000831c240028
:104bb8000800be00b4f107000000e0000c003d0052
:104bc8006dcabf000038a30009003a0050c8bf00f2
:104bd8000028a3000300320010c0b30090ff0700b4
:104be800050037000040eb008dff0700020037008a
:104bf8000040eb008aff07004f04be0000000600db
:104c08000004e00054003400e34f500003003a0071
:104c180060c0b30082ff070051003700e44f500026
:104c280008003a006a4ae20003003d00f1cabf00ea
:104c38004eff07004a003700f1cabf0078ff07009f
:104c4800470037001185200091407800e9cf5000d7
:104c58003a003400e14f500038003a005168ef0044
:104c68006dcabf000028a3000900320050c8bf0069
:104c78000048a3000300320020c0b30068ff07000b
:104c8800370037000040eb0065ff070034003700ad
:104c98006acabf000018a3002400320050c8bf0031
:104ca8000008a3000d003200f0cabf00e74f500013
:104cb800030032006acabf000058a3000700320090
:104cc800704f8000814f800002002000831c240068
:104cd800d2f1070083ff07002100370050c8bf004a
:104ce8000018a3000d003200f0cabf00e74f5000c3
:104cf8000a0032006acabf000058a30007003a0041
:104d0800704f8000814f800002002000831c240027
:104d1800c2f1070073ff070011003700704f8000d1
:104d2800814f80006fff07000d003700704f800033
:104d3800814f80006bff07000900370051c8bf0092
:104d4800e94f500001003c005168ec0052c8bf0018
:104d580006ff0700020037000040eb0003ff0700d2
:104d68000000060011002000f21f2000820f5000f2
:104d78001b003c00ff3ffc00811f78000000400042
:104d880001c02f0001004000f1072000213b8800ee
:104d9800103b880041042400013b88005105200095
:104da800313b8800a10a2000313b880061e7a80058
:104db8000000000000000000cf0078008000eb0039
:104dc800040037006bcabf000008a30001003200ce
:104dd800910288006147e200faff35008000eb008d
:104de8000100780000000600889fbe000004be0095
:104df80008007800dbff070010002000f11f2000ea
:104e0800810f540021003c00ff3ffc00801f780008
:104e1800811f7800821f78000804440000c02f001a
:104e280000044400f0c7b30032e0b700290088004e
:104e3800080088000208bb0041002400013b8800ec
:104e480051052000313b8800a10a2000313b880031
:104e580061e7a80000000000000000004f01780092
:104e6800cf0078004f0078008000eb000400370086
:104e78006bcabf000008a30001003200910288003d
:104e88006147e200faff35000000eb004f04be0066
:104e980000000600b6e8b700c1458800ff3ffc00e7
:104ea800841f7800801f7800618b20009140780073
:104eb8002003200001487800c145800001008800d7
:104ec8001082ba00000000000000000040008000ce
:104ed80080458800618b20009140780020032000e5
:104ee80001487800c1458000010088001002ba001e
:104ef800000000000000000040008000a04588007d
:104f08004f0078004f0278006bcabf000008a3006a
:104f1800010032005220ef00a0458000000006008a
:104f2800800078000000eb00f21f2000828f500004
:104f380005003c0000e027008080400081804000a0
:104f4800f0c7b300d3ff070000000600889fbe002b
:104f58008a9fbe00ba28ef000004eb00fa0f200079
:104f6800ebff2300880078000040eb00c9ff070032
:104f780080047800880078000040eb00c5ff070037
:104f8800800078008a846400d04580000080440056
:104f9800c808de00b008b40081004000d145880090
:104fa8000884e8008b0f5400eeff3a00890f2000b8
:104fb800fb0f2000130037008800780009407800b4
:104fc800b4ff0700000578008800780009407800e1
:104fd800b0ff07000b056500d145800001054500bd
:104fe8004800de0000054500da4588000884e8002e
:104ff800e20f4400f0ff3a008904e8008b8f540068
:10500800020032000004eb00ebff37007a1ab00010
:10501800da4588004f05be004f04be0000000600b8
:10502800caff0700d0458000704a880000000600cb
:10503800889fbe008a1f7800bc28ef000004eb00a0
:10504800fa0f200008007800b5ff070080047800f8
:1050580008007800b2ff07008a846400e1458000f8
:10506800818444004800de0080844400e9458800cb
:105078000804e800e01f2000800f5400f1ff3a0008
:105088004f0578004f04be0000000600e8ff070047
:10509800e1458000f01f200053ff070000000600d4
:1050a800881f78003c48e2000d0034000004eb0043
:1050b8003bc8bf0088004400229a2000e2807800a4
:1050c8000000fb000000440047ff07000804e80058
:1050d8003cc8bf000000fb00880f5000f4ff3c00f4
:1050e8003bc8bf000000fb00416527003eff0700ea
:1050f800714280003bc8bf00c28320001241780083
:105108000201fb000000fb000000410036ff070021
:10511800deff07006a8aa9004f0478000000060035
:105128000040eb00b6fe0700d0518000e15180003e
:10513800804d8800914d8800f05180000152800018
:10514800a04d8800b14d8800105280002152800087
:10515800c04d8800d14d88003052800041528000f7
:10516800e04d8800f14d8800cdff0700e202a9005c
:1051780000000600881f78003b48e2000b0034005e
:105188000004eb0008004400018e2000e1007800d4
:105198000800780014ff07000804e8003bc8bf00b7
:1051a8000000fb00880f5000f6ff3c0071562400f9
:1051b8000000eb000cff0700b4ff07004f04780065
:1051c80000000600889fbe008a1f7800be28ef00f6
:1051d8003b48e200120034000004eb00fa0f200004
:1051e800080078004eff0700800478000800780067
:1051f8004bff07008a846400f145800081844400e5
:105208004800de0080844400f94588000804e8006e
:105218003bc8bf000000fb00880f5000f0ff3c00b7
:105228004f0578004f04be0000000600c028ef00bc
:105238003b48e200110034008000eb0001007800d8
:10524800f40f200000014000038e20006301790064
:1052580084016100818041004811de0082804000a5
:105268000000e800b2832000124178000201fb0030
:10527800800f5100f3ff3c00014688000000060043
:10528800eaff07000046800010468800000006007c
:10529800e628ef00001224004047880000002000a4
:1052a80001f823005047880061478800626626009d
:1052b8001248880062f6230022488800335c2f00d9
:1052c8003348880083082400434888006266260023
:1052d8005248880062082400624888000e29ef00be
:1052e8000304240083488800a29929009248880072
:1052f80092012400a24888001629ef000300240028
:10530800c3488800d0488800e14888001e29ef007b
:1053180000f02300004988006266260012498800d0
:1053280062022400224988002629ef000310240085
:10533800434988002a29ef0080102400604988002a
:10534800007d200080498800a00020009049880046
:10535800f1002000a149880082022000b24988009b
:1053680032022000c249880092012000d2498800f8
:105378003c29ef00f049880072032000024a8800a7
:1053880022032000124a8800214a8800c103200015
:10539800314a880001052000414a8800504a8800a7
:1053a80081072000614a88005069ef005169ef00c9
:1053b80063c4b300729e20000349780053c0b30051
:1053c800629e2000034978008000eb00115388009a
:1053d80021538800315388004153880013c0b3001b
:1053e800a29620000349780083c0b300b29620003b
:1053f8000349780093c0b300c2962000034978009f
:105408006de9b700b0c0b3006ee9b700c0c0b30023
:105418006fe9b70040c1b30070e9b7007169ef00e8
:105428009a69ef0040c0b3009be9b7009c69ef00a0
:105438009d69ef0092ff0700000006003f48e20068
:1054480008003a004e08ab000600320030c0b30036
:1054580040e8b70010c0b30038e8b7003fe8b7002d
:105468001d00370038c8bf00e34f500005003a0060
:105478003fc8bf00e14f500002003c003f68ec000d
:10548800150037003fc8bf00e24f500012003a0035
:105498006acabf000038a3000f0032003bc8bf0033
:1054a8000000fb000000e8009dfe070041652700a2
:1054b800810f500001003200b1f7070030c0b3007f
:1054c8003fe8b700e6c9bf00e54f500002003a00c8
:1054d80020c0b30040e8b700000006004027a9003c
:1054e8004087a90041e7a90041c7a90040e7a900f2
:1054f80040c7a900000006006d4aa800154f8000ab
:10550800e98f520003003600e229ef008002eb0029
:10551800120037000500e000100032000502780094
:105528008000eb000043eb0017c0b3007681400019
:1055380002014100239a200063017900820f500084
:1055480001003a00074378008100e800848f50008a
:10555800f6ff3a000604e00009003a00c1072000ff
:10556800810f500006003e00f68042008180400016
:10557800229a200000b178008502e800154f8800c3
:10558800000006006ecabf000008a30003003a002e
:1055980080c0bf000018a30002003200d000200025
:1055a800d5ff07006ecabf000018a30003003a0029
:1055b80080c0bf000028a30002003200f0002000d5
:1055c800cdff07006ecabf000028a30003003a0001
:1055d80080c0bf000038a30002003200e0002000b5
:1055e800c5ff07006ecabf000038a30003003a00d9
:1055f80080c0bf000048a300020032000001200064
:10560800bdff07006ecabf000048a30003003a00b0
:1056180089c0bf000038a30002003200c00020008b
:10562800b5ff07006ecabf000058a3000200320091
:1056380010012000b0ff0700f60ae2000200320065
:1056480010c0b30040e8b700f62aef0000f02f00c2
:105658008020b6008960a9000000060040c7bf008e
:105668000018a3000200320030012000a2ff07004a
:1056780040c7bf000048a3000200320040012000dc
:105688009dff07004147e20002003d005001200055
:1056980099ff070041c7bf000068a300020032005d
:1056a8006001200094ff07004047e20002003d002f
:1056b8007001200090ff070040c7bf000068a300ea
:1056c80002003200900120008bff070083ff0700d3
:1056d8000000060050a52a00f40ae30001003a0081
:1056e800deff070050a52a00a0578800f62aef0021
:1056f8007aff0700000006004dfe0700f01f20009b
:1057080007fe0700800078000000eb00e2458000fb
:10571800810f510004003200a002200076ff07002c
:105728006ccaa8001000200000000600889fbe0078
:10573800f1ff0700800078000000eb000100e000a6
:1057480018003a003c48e2000d00340000047800dc
:10575800299a20003bc8bf000000fb00000044005d
:10576800effd07008800440080b478000804e800d2
:105778003cc8bf000000fb00880f5000f5ff3c004c
:105788003cc8bf00b1832000914078008100fb0035
:105798000000fb0000804000e1fd07007042880027
:1057a800100020004f04be00000006003bc8bf00e8
:1057b8000000fb00dafd070041652700810f50005b
:1057c80001003a00d9ff070000000600dffd0700ce
:1057d8000000eb00d1458000724a8000810f510023
:1057e800040032009002200043ff07006ccaa800a2
:1057f80010002000000006008cfe070071fe070064
:105808000000eb00f145800002468000810f510046
:1058180004003200c002200037ff07006ccaa8004d
:105828001000200000000600889fbe00b2ff07009d
:10583800800078000000eb000100e00013003a004f
:105848003b48e2000b00340000047800098e200079
:1058580008007800b2fd07008800440080b4780092
:105868000804e8003bc8bf000000fb00880f500098
:10587800f7ff3c0082fe0700dfff070000f0a700eb
:105888000000ea000000e9004f00de004f04be00ff
:105898000000060065fe07000000eb0011468000ce
:1058a80002468000810f510003003200b002200040
:1058b80011ff07001000200000000600d621ef00ad
:1058c8004828ef00c828ef00619e2000914078002a
:1058d800e5cf50000300320043c0b300629e2000b1
:1058e8000349780040e8b700d1e2a90000000600ab
:1058f800da21ef00d821ef00d621ef00e2c2a9009b
:10590800d1e2a9004828ef00f26aef000000060083
:10591800f7ff07006ccaa800b0002000f6fe0700d9
:1059280000000600889fbe001851800029518000a1
:105938006011b8000800be0053ee07006011b800ff
:105948000000e00002003d000801be0003f0a200d4
:1059580030498000414980004bee07000000e0001c
:1059680009003d0050468000e50f50000400340057
:1059780050002000e0fe0700e5ff0700ca28ef00fe
:10598800ca28ec0005003700504680000000e000ff
:10599800020034000000e9005046880018518000d9
:1059a80029518000f0488000014980001249800098
:1059b800234980005df007000001be000800be001a
:1059c80033ee07000000e000030034006000200010
:1059d800c9fe0700ceff07004f04be000000060006
:1059e800f2874700889fbe008a9fbe008e1f7800fe
:1059f80060408000714080000200200003e0230026
:105a08004af00700604088007140880060408000cc
:105a180071408000020020000370240076ee070029
:105a280060408800714088006040800071408000bc
:105a380002002000038023003cf00700604088003b
:105a480071408800604080007140800062418000a1
:105a58007341800035f0070060408800714088007d
:105a68006040800071408000585280006952800078
:105a780002002000831424002cf007000801be0057
:105a880066ee070010518800215188006055b80063
:105a98006a4088007b4088008040800091408000f8
:105aa8000200200003e0230020f007008040880067
:105ab80091408800804080009140800002002000d2
:105ac800037024004cee0700804088009140880055
:105ad8008040800091408000020020000380230065
:105ae80012f00700804088009140880080408000c4
:105af8009140800062418000734180000bf00700f4
:105b0800804088009140880080408000914080005b
:105b180078528000895280000200200083142400fb
:105b280002f007000801be003cee07003050880074
:105b3800415088008a4088009b4088004e08ab008e
:105b48000100320077ff07007a8757000004eb0056
:105b580029a520000b8e20004245dd000a8544005f
:105b68001a00be00824180009341800010ef0700b8
:105b7800008dbe006acabf000068a300080032009a
:105b88004240dd00008044001000be00224080003a
:105b98003340800006ef0700008fbe000c0037007e
:105ba8004245dd000a8044001000be00224080000b
:105bb80033408000feee07006e0545000a8545006b
:105bc8001a0178009a01900014ee0700008fbe00b9
