:020000040000fa
:080000000001040000000000f3
:020000040000fa
:04000c005c0500008f
:020000040000fa
:040010002a050000bd
:020000040000fa
:04001400f0040000f4
:020000040000fa
:04001800c004000020
:020000040000fa
:040024009204000042
:020000040000fa
:04002800da050000f5
:020000040000fa
:04003400fe050000c5
:020000040000fa
:040040004c0300006d
:020000040000fa
:04004c00840200002a
:020000040000fa
:040050001c0200008e
:020000040000fa
:040054005808000048
:020000040000fa
:04006800b8050000d7
:020000040000fa
:04007c00a0020000de
:020000040000fa
:04008000c8010000b3
:020000040000fa
:04008800680200000a
:020000040000fa
:04008c00cc010000a3
:020000040000fa
:0400d400960500008d
:020000040000fa
:100200004fae20000ebf20000e018800000000004d
:10021000000020000000e000020032000001200089
:100220002002880014000700360407000000e000e8
:1002300003003a00c05a23000100200002003700ea
:100240000000200001002000810f7000010032003a
:1002500014000700000020000000e000020032004f
:1002600000000200000000005835020000000000fd
:100270000040da000000fe004440a900e0462000f3
:100280000000e0000300320000002000a001880010
:100290004440a800000006008a1f78008b1f7800e9
:1002a0000000060091018800800478000000eb0047
:1002b0001a003700e284440032a0b4009905ba0065
:1002c000e284440032a0b4009906ba00e2844400fb
:1002d00032a0b4000006eb00476fde00fd07b2005d
:1002e000636ce10003003a00ebff07000000eb0045
:1002f0000a003700606ce10004003a00005deb008a
:100300008b05e900fdff3e00040037006168e10055
:10031000010032000086eb000b00070019c7ba008d
:100320001905ba000e04e00003003a000a00e000dc
:10033000e0ff3a0000000600fe07b2009e018800c0
:100340008a047800f5ff3700395dba008b05e900b3
:100350000c003200295dba008b05e900080032006c
:100360000c00e00003003a00e284440032a0b40034
:10037000f5ff370019ddba008b05e900faff3a00f6
:100380008904e800e184440032a0b40000000600c3
:1003900086c0a900004006003600f800809fbe001d
:1003a000829fbe00849fbe00869fbe0019c2bf0010
:1003b0000018a30017003a0061508000c00320001d
:1003c00001004000c2a22000624078000004e0006a
:1003d000100032005d48e2000e00320082a62000cc
:1003e000028140000000fb00d01088008100e8007e
:1003f00019c2bf000018a30005003a00524078005f
:100400000004e000f7ff3a00615088000100370067
:100410006150880010002000ae0a07008720a90064
:100420004f03be004f02be004f01be004f00be0092
:100430003600f900004006003600f800809fbe003c
:10044000829fbe00849fbe00869fbe000fc2bf0079
:100450000018a30015003a0051508000c0a22000ef
:1004600060c078000004e000100032005c48e20048
:100470000e003200c2a22000028140000000fb00fa
:10048000801088008100e8000fc2bf000018a300a0
:1004900005003a00524078000004e000f7ff3a00ff
:1004a0005150880001003700515088000000eb00d7
:1004b000880a07008540a9004f03be004f02be0016
:1004c0004f01be004f00be003600f900004006009c
:1004d0003600f800809fbe00829fbe00849fbe0051
:1004e000869fbe0010002000501207008700a90060
:1004f0004f03be004f02be004f01be004f00be00c2
:100500003600f900004006003600f800809fbe006b
:10051000829fbe00849fbe00869fbe000000eb004d
:10052000421207008520a9004f03be004f02be0003
:100530004f01be004f00be003600f900004006002b
:100540003600f800809fbe00829fbe00849fbe00e0
:10055000869fbe001050800067006000e20f5000d0
:100560000e00340005cabf000038a30004003200aa
:100570003968ef0030c1b300e0eab7001600370079
:10058000e18e20009140780090832000014878009f
:10059000b0c3b300e0eab7000f003700e0cabf0005
:1005a0004240a9000a003c00b0c3b300e0eab70033
:1005b00039c8bf004240a90002003c00042aa8003c
:1005c000050037000040e90039e8b70002003700b5
:1005d0000040e900e0eab7004f0f07000000e0002c
:1005e0000f0032001050800067006000e10f5000e3
:1005f0000b00340010150700f0438000e40f50009a
:100600000500340080ff2f00020ab6000000a000a1
:1006100010508800020037000000e800f043880016
:10062000e043800081702000810f50000d003a00ef
:1006300011508000e7806000e18f50000900340015
:10064000f20e07000000e0000400320080ff2f00df
:10065000020ab6000000a000105088007c28ef00bd
:100660000600370011508000e7806000e18f5000e5
:10067000020034000000e800e043880086a0a900e2
:100680004f03be004f02be004f01be004f00be0030
:100690003600f900004006003600f800809fbe00da
:1006a000829fbe00849fbe00869fbe00889fbe00c2
:1006b0008a9fbe004c68ec0002cabf000038a3004d
:1006c0000500320033c8bf00e14f500002003c007b
:1006d0000040e80033e8b700104e8000214e800053
:1006e00077090700b24e8000c34e80000803070060
:1006f0000000e0000700340032c8bf00e84f50009f
:1007000009003400026aa900f00220002f0e070041
:1007100004aaa80098458000a94580000005eb00c8
:100720008b982000030037000040e80032e8b70053
:10073000f8ff37004251dd002202b000028145007f
:1007400012007800920090000801be00ee0207003f
:100750000000e00001003d00026aa9000a05e8006f
:10076000e40f5500f3ff3a00704e8000814e800088
:10077000f24c8000034d80000a050700d04d880030
:10078000e14d8800decabf004240a90004003400e9
:10079000e34f5000020032000040e900deeab700fb
:1007a0005883200018447800e74f540019003400a3
:1007b0000200200003e02300f0408000014180009f
:1007c000f8040700704e8800814e88000200200067
:1007d00003e023001041800021418000f104070064
:1007e000f04c8800014d88006000b800104188007e
:1007f00021418800f0408800014188003568ef0001
:1008000005cabf000028a3001400320054150700d9
:1008100012003700124e8000234e8000f04080000e
:10082000014180001b030700f0408800014188005f
:10083000924c8000a34c8000104180002141800038
:100840001403070010418800214188000844e80093
:10085000884078005083200001487800704e800066
:10086000814e8000f24c8000034d8000cd040700d3
:10087000130907000004be00d04c8000e14c80004a
:100880000801be00a00207000000e00002003d00d9
:10089000d84c8800e94c8800184e8000294e800012
:1008a0000800be0006090700f226210033b023002d
:1008b000970207000000e0001100340012052a0032
:1008c000138123000800be00b60407000004be0028
:1008d000004b8000114b80000801be00ed020700b4
:1008e000004b8800114b8800224b8000334b800066
:1008f0000800be00e7020700204b8800314b88004b
:1009000084c0a9004f05be004f04be004f03be00c7
:100910004f02be004f01be004f00be003600f9007e
:10092000004006003600f800809fbe00829fbe0097
:10093000849fbe00869fbe00b612070004aaa800ce
:1009400010012000a10d070080ff2f00020ab60051
:100950000000a000105088008420ef008620ef00e7
:100960008820ef002c1407004f03be004f02be008a
:100970004f01be004f00be003600f90000400600e7
:100980003600f800809fbe00829fbe00849fbe009c
:10099000869fbe009f12070004aaa8000001200045
:1009a0008a0d070080ff2f00020ab6000000a00099
:1009b000105088008420ef008620ef008820ef0090
:1009c000151407008080a9004f03be004f02be002f
:1009d0004f01be004f00be003600f9000040060087
:1009e0003600f800809fbe00829fbe00849fbe003c
:1009f000869fbe00e0bf200000018800851207002e
:100a000004aaa800f0002000700d070080ff2f004e
:100a100012508000820060000100a0001150880088
:100a20008420ef008620ef008820ef008040a9009e
:100a3000020ab6000000a000105088004f03be005c
:100a40004f02be004f01be004f00be003600f9004d
:100a5000004006003600f800809fbe00829fbe0066
:100a6000849fbe00869fbe00e0bf2000000188007a
:100a70006812070004aaa800e0002000530d070038
:100a800080ff2f00020ab6000000a000105088006e
:100a90008420ef008620ef008820ef008060a9000e
:100aa0004f03be004f02be004f01be004f00be000c
:100ab0003600f900004006003600f800809fbe00b6
:100ac000829fbe00849fbe00869fbe0042c7bf00bb
:100ad0000058a30005003a0004cabf000068a30044
:100ae00002003a0020012000380d070049120700db
:100af00004aaa80004cabf000068a30002003200d4
:100b0000d0002000310d070004caa800da0b07004e
:100b10008020a9004f03be004f02be004f01be005f
:100b20004f00be003600f900004006003600f80015
:100b3000809fbe00829fbe00849fbe00869fbe0035
:100b40003412070004aaa800c00020001f0d0700ef
:100b5000c90b07008960a9004f03be004f02be0009
:100b60004f01be004f00be003600f90000400600f5
:100b70003600f800809fbe00829fbe00849fbe00aa
:100b8000869fbe002312070004aaa800900320003d
:100b90000e0d0700b80b07008600a9004f03be002a
:100ba0004f02be004f01be004f00be003600f900ec
:100bb000004006003600f800809fbe00829fbe0005
:100bc000849fbe00869fbe001212070004aaa800e0
:100bd000a0032000fd0c0700060aa800a60b0700d2
:100be0008400a9004f03be004f02be004f01be00ab
:100bf0004f00be003600f900004006003600f80045
:100c0000809fbe00829fbe00849fbe00869fbe0064
:100c1000889fbe008a9fbe008c9fbe008e1f7800fa
:100c2000a1e2a800784e8000894e80001046800026
:100c3000214680003246800043468000d9030700e9
:100c40000200200003f42300d60307000001be00c9
:100c50000800be00ae0107000000e0000200340002
:100c6000032aa80001003700032aa8007845800065
:100c7000894580001c0020000007eb008b982000b5
:100c8000010037000c06e8000c05e9004251dd00c8
:100c90002202b0000281450012007800920090000c
:100ca0000801be009a0107000000e00013003500b3
:100cb000e10f55000b00320003003c000a00e00089
:100cc000060032000d003700e20f55000700320029
:100cd000e30f550009003a00060037000e00a0009f
:100ce000e8ff37000e10a000e6ff37000e20a0003e
:100cf000e4ff37000e30a00002003700e30f56007b
:100d0000e0ff34008e407800e08420000148780045
:100d10000ec2bf000018a3000a003200d00220005b
:100d2000aa0c07000ec2bf000008a3000400320096
:100d3000901080000ec2bf000008a300fcff3a0024
:100d40000e22a90018c2bf000018a3000a0032003a
:100d5000e00220009d0c070018c2bf000008a3009d
:100d600004003200e010800018c2bf000008a30099
:100d7000fcff3a001822a900b813070070140700fe
:100d8000dc1507001050800067006000e20f500083
:100d900003003c00100020001044880004aaa900b1
:100da000004b8000114b8000c50707000006be0005
:100db000604a8800714a88006e9d20000a00200069
:100dc0008b2c24005e04be000a01be000800be0099
:100dd0004d0107000000e00001003d000805be00d5
:100de000609e2000800f5700f6ff3a0002002000ae
:100df000632c24000a00be00450107000000e0004b
:100e00000c003400dfcabf00e44f5000090032007c
:100e1000404a8000514a8000204b8800314b8800b6
:100e200040c0b300dfeab7006029ef006229ef009d
:100e30002900370002002000c32424000a00be005d
:100e4000310107000000e00013003d000200200017
:100e5000432424000a00be002d0107000000e0002a
:100e60000d003400dfcabf00e44f50000200320022
:100e70000004e00008003a000c01be000c00be00b7
:100e800084010700404a8800514a880020c0b3000e
:100e9000dfeab700100037000200200003f823004b
:100ea0000a00be00180107000000e0000a003d0033
:100eb000df4ae200080032004c4a88005d4a8800a0
:100ec0006000b800204b8800314b8800df6aef00db
:100ed000004b8800114b8800204b8000314b800074
:100ee0006011b800080107000000e00002003d00aa
:100ef0006429ef006629ef00484a8000594a8000c3
:100f0000204b8000314b80000801be00000107002b
:100f10000000e00002003400284b8800394b8800b4
:100f2000044ae2001b003d0040458000cf80de0007
:100f3000350107000005be000001be000800be002c
:100f4000180307000004be00204b8000314b8000d6
:100f50000801be00ee0007000000e0000d003400b4
:100f6000fc4c80000d4d8000724580008345800060
:100f70000a00be000b0307000001be000c00be000b
:100f8000e10007000000e00002003c00284b880060
:100f9000394b88004a4a80005b4a8000204b800021
:100fa000314b80000a01be001f0207000200200032
:100fb000832c2400fb020700704c8800814c8800c1
:100fc000784e8000894e8000f2282c0053c7230001
:100fd0000800be00ce0007000000e000280034003a
:100fe0004c4b80005d4b8000020020001356240013
:100ff0000800be000c0207000001be000c00be008d
:10100000240107000001be00404b8800514b8800be
:101010000a00be00bc0007000000e00018003c0011
:101020006829ef006a29ef00604b8000e10f400063
:10103000020032000000e800604b8800904680000b
:101040006500b9008000eb00f20007000001be005f
:101050000000200001f82300f30107000001be009a
:101060000000200001f82300010107000001be007c
:101070000a00be00cb020700404a8800514a88009f
:101080004e0b07008460a9004f0778004f06be0092
:101090004f05be004f04be004f03be004f02be000e
:1010a0004f01be004f00be003600f90000400600b0
:1010b0003600f800809fbe00829fbe00849fbe0065
:1010c000869fbe0036c8bf00e74f50006b003c0053
:1010d00004cabf000038a30053003200001480008f
:1010e0008000eb00cb0007000001be0050408000f4
:1010f00061408000e70007005040880061408800a0
:10110000101480008000eb00c20007000001be0048
:101110007040800081408000de0007007040880041
:1011200081408800201480008000eb00b900070097
:101130000001be00b0408000c1408000d500070023
:10114000b0408800c1408800301480008000eb006f
:10115000b00007000001be00d0408000e1408000e8
:10116000cc000700d0408800e14088004014800097
:101170008000eb00a70007000001be00904f800038
:10118000a14f8000c3000700904f8800a14f880046
:10119000501480008000eb009e0007000001be009c
:1011a000b04f8000c14f8000ba000700b04f8800e8
:1011b000c14f8800601480008000eb00950007009c
:1011c0000001be00d04f8000e14f8000b100070059
:1011d000d04f8800e14f8800701480008000eb0041
:1011e0008c0007000001be00f04f8000015080001d
:1011f000a8000700f04f880001508800801480008c
:101200008000eb00830007000001be0090408000da
:10121000a14080009f00070090408800a140880006
:101220008d110700130037006000b800504088009f
:10123000614088007040880081408800b04088008c
:10124000c1408800d0408800e1408800904f88006d
:10125000a14f8800b04f8800c14f8800d04f880050
:10126000e14f8800f04f88000150880090408800ce
:10127000a14088003668ec001b003700a31007006f
:1012800004cabf000038a300010032009e06070018
:101290003668ef0004cabf000038a3000400320023
:1012a00004cabf000058a30001003a00e012070082
:1012b000d31507001050800067006000e20f500057
:1012c00006003c0004cabf000038a300030032003f
:1012d000a1e2a900046aa90001003700046aa8007d
:1012e00010c0b300b60807008560a9004f03be0018
:1012f0004f02be004f01be004f00be003600f90095
:10130000004006000000050014002000ad03370077
:10131000f4ff2f00ab0337000001be003f000700c1
:101320000470a70003f0a1006509b10016003200a7
:101330000d0035006828e10006003500f0ff2f00a1
:10134000f1ff27000300e00013003b00010028002c
:101350000000050000004000818048008502e9008f
:10136000fcff3a0008003700f88f420002003c0002
:101370008000eb00000005008100d1000080d30058
:101380008502e800fcff3a000300e00002003b0099
:1013900060001000e0801800000006000001be00a0
:1013a0001e0007000470a70003f0a10003f8a300cb
:1013b00013003a006509b100100032000900350041
:1013c0006928e10002003500010028000000050046
:1013d00000004000818048008502e900fcff3a00df
:1013e00000000600f88f4200050035008100d100a2
:1013f0000080d3008502e800fcff3a0000000600f0
:101400008000eb00000005004f89de0082017800bb
:10141000870337006011b80095033700c70ade0064
:10142000f107b200f50fb20008003200e1cf420030
:10143000020032000170a00024000500810f70003e
:10144000010032000408050044000500810f70000f
:1014500002003a00140005008502e9000000400087
:1014600081c04800fcff3b000170a0002400050083
:1014700007f82700078361000638e10004003a00fe
:10148000f7072000878361008703710001003a009d
:1014900003f0a200889fbe008a9fbe008c9fbe0002
:1014a000470ade000480a100c71ade000580a10003
:1014b000070028000785600087856100f70f20007e
:1014c0000720e1009e0032000728e1009c00320066
:1014d000010678000400e000b4003200f7072000a5
:1014e000878060000170a0000500e000c0003200ad
:1014f000f7072000878161000370a00005065200f5
:101500000f003a000b50e1000b0032000308e1002d
:1015100002003a000200e1007e00320002045000a6
:1015200083845800040031000001fd008101fd00aa
:101530008402fd008a05fd006044b80021003700e8
:101540000520e10005003d000001fd008101fd00d6
:101550008402fd008a05fd00050652007a60e10064
:10156000050035000170a1004722dd008480700075
:101570008a807000630037006044b800ef026600a4
:1015800007ff2f00070666000500e0000600340094
:10159000f08312008714dd000511de00071bdd005b
:1015a000060171008519de007060e100050035005c
:1015b0000904780082047800030178008001eb00c0
:1015c000700656000b50e10003003a000200400094
:1015d000838048000400370060041400e0841c008d
:1015e00002005800838058000188a30006003200e2
:1015f0008100d1000080d3008984d3000884d30007
:101600000402e800270037000178a30025003a0013
:101610000100e000030032008186cf006986560099
:101620000a0037008c0020000000e00004003a00af
:1016300009007800880478000004eb007002520072
:101640008086cf000d0646000c06e9007060e100c0
:1016500006003500800078000900780088047800d2
:101660000004eb0070065600700252000c00e0000f
:101670000c0034008c08dd00f00316000703de00c8
:10168000868070000c00dd00074bde000600700055
:101690008c4cdd000743de00868474000c44dd00c2
:1016a0000c0252006120e100200035006101600061
:1016b0000700280087816400f7ff27008783640004
:1016c000070374000300e000060032008203730089
:1016d000040032000000e800e08048000188a30018
:1016e0000e003a00f70f20000720e1004a003d00fd
:1016f0000170a1004722dd00810072008a80700025
:101700000000be004f06be004f05be004f04be00e5
:10171000000006006000b800faff37008100d10029
:101720000080d3000402e800eeff370004017800d7
:1017300089017400a10107008a807000f1ff370061
:10174000f7010700070278000001fd008101fd009c
:10175000f301070087027800850372000778a30071
:10176000040032000001fd008101fd0006020700b7
:10177000e4ff3700850362000768a3000800320019
:101780000b50e10003003200f0ff2f00f1ff2700b3
:10179000dcff37000001fd008101fd00d9ff3700ab
:1017a0000468a300d7ff3200faff3700f8ff2700d4
:1017b000888360000b003a000000e00009003a0056
:1017c0008303640082837300020032000200be00c3
:1017d000ccff37000b50e100ceff3a000200be0004
:1017e000c8ff370014002000810064003eff37006e
:1017f000f8ff27008883610004003a000200e0003f
:1018000002003a008c007800beff3700150020006f
:101810008301640039ff370001f827000000200031
:1018200081007500b7ff3700889fbe008a9fbe0009
:101830008c9fbe001b0020000202be0005866800cf
:1018400006002800060666004709de00f20fb20017
:10185000820032000243e80080003200c729de0027
:10186000f30fb2007d0032000343e8007b0032003a
:10187000f107b2000170a000f507b2000570a000ea
:10188000c708dd004903de00868070004700dd00e8
:10189000c72add004923de00868272004722dd0070
:1018a00003055100040350008583580003003100f4
:1018b00000004000818048000a05e9008c1f780084
:1018c0008a9fbe0004005000858058000402420038
:1018d00085824a0000004000818048000005eb003e
:1018e0000004be006033b8000406be000d48e100ed
:1018f00056003100110009004dccd8000c01b80091
:101900000d02b8008481410060824a008283530046
:1019100003045c0084845c0060055d000a00e00054
:1019200025003a00800578000d40e10049003100b3
:101930008800780007007800110009004d88d80061
:101940000c01b8000d02b8008481410060824a0099
:101950006003110083835b0004045c00e0845c008e
:101960000900e00021003a004f01be000300e00042
:101970002b003200e3016000070673008c817100c8
:1019800001003200640070004200de004e5edd00a7
:101990000c007000c258de0001e0a00083010700c7
:1019a000cf017800818071004f06be004f05be0058
:1019b0004f04be00000006008c8343000d044c0061
:1019c000e0844c0060054d000000e9000a00e000e2
:1019d000d4ff32008c8343000d044c00e0844c00a3
:1019e00060054d000000e900ceff37000c03430006
:1019f0008d834b0060044c00e0844c000000e90043
:101a00000900e000d8ff32000c0343008d834b0037
:101a100060044c00e0844c000000e900d2ff370075
:101a20004200de004e5edd000c007000c258de0099
:101a300001e0a000cf0178000300e000daff3200ef
:101a400060001000e0801800d7ff3700f0ff2f0083
:101a5000aaff3700f0ff2f00b9ff37000404be00d3
:101a60002f010700870678000004fd008104fd00b7
:101a70002b010700078366000678a30003003200ed
:101a80000960a7000800be002c0037000d78a300f5
:101a9000020032000800be00280037000778a300cb
:101aa00026003a0001f0a10009f0a1000668a30099
:101ab00003003200f1ff2700f0ff2f00baff3700cc
:101ac0000d68a300030032000800be008c80700087
:101ad000b5ff37000768a30007003a000648a300d7
:101ae00003003200f1ff2700f0ff2f00aeff3700a8
:101af0000d48a300030032006000b8008c80700025
:101b0000a9ff37000748a3000400320001f82700ae
:101b1000000020008c807000a3ff370076010700d2
:101b20000004fd008104fd00020578007201070039
:101b30000802be008a01780059ff37000160a0004a
:101b4000120220001257880097ff37000100e000c2
:101b5000120032000500e00010003200889fbe0035
:101b60008a9fbe008c9fbe000006eb0001f8a30018
:101b70000300320060001000e08018000cf0a000ac
:101b800005f8a3000300320060021200e0821a0090
:101b90000cf0a2008005eb0041ff37006000b800a8
:101ba00002000500038368000700280007036300a4
:101bb000470ade000480a100c71ade000580a100ec
:101bc000f70f20000720e100420032000728e10063
:101bd00040003200889fbe008a9fbe008c1f7800a4
:101be000f107b200f307b2000400e0006400320025
:101bf0000170a0000500e000680032000370a00042
:101c000085054200eb07b1000204b8000302b800ea
:101c10008484440060854a00020ab8008484440039
:101c20000a854a00030ab800040545000400330091
:101c30000804d0008984d2000a85d2008b05e9000f
:101c40006158e1003d0035000210200009016100eb
:101c50000308200089816100f70720008783640062
:101c600008867300c84cde00c853dd00878474000a
:101c70004855de000300e0000600320082037600d3
:101c8000040032008904e80060054d000a88a300c2
:101c90000c003a00f70f20000758e10044003d0017
:101ca0000a70a100c75ddd000a8575008a00730017
:101cb000090078004f0678004f05be004f04be00b3
:101cc000000006000a05d1008984d3008b05e800d6
:101cd000f0ff3700881f78000604780090000700a6
:101ce000070278000001fd008101fd008c00070063
:101cf00087027800850372000778a3000500320090
:101d00000001fd008101fd009f0007004f047800e5
:101d100000000600850372000748a300030032009c
:101d2000f0ff2f00f1ff2700f8ff37000000200030
:101d300001f8270088807000f4ff370088017800e0
:101d40004848dd00808171004848de00c850dd0051
:101d500001007000c850de00060478000b01780016
:101d60001600070088807000d2ff37000500e000f1
:101d700005003200170020003a0007009dff3700e1
:101d800081037000f9ff3a00860078004f06780062
:101d90004f05be004f04be00000005008303710024
:101da000f9ff3200270020002e00070094ff3700c3
:101db00001f8270086807000f4ff37000100e00082
:101dc00026003200610111007810e10023003c0080
:101dd0006022b8007010e100040035008002780035
:101de000010078008000eb00700151000200e0006b
:101df0000900340070031100062add00822ade008b
:101e00008603dd00878272000200de00860bdd00a3
:101e1000070070008208de0084817100f4ff270053
:101e200004826200848171000400280084826200c0
:101e30006102600005f0a600000006000482710047
:101e4000070032000000e800e080480000000600c3
:101e50000002be006000b800efff37006000b8006d
:101e600000000600889fbe000004eb006138e1001e
:101e700016003a000100e00008003a00c800de0049
:101e80004800dd00880020000100e00003003a0067
:101e9000c800de004800dd00680444008184cf00f3
:101ea000e9845400060034008908dd00f083140042
:101eb0008703de00878070000900dd00090444000c
:101ec000610214004f04be00000006000300e000a1
:101ed00008003a00c811de004811dd00880020002b
:101ee0000300e00003003a00c811de004811dd00e5
:101ef000680444008384cf00e98454000600340061
:101f00008919dd00f08314008713de0087817100da
:101f10000911dd0009044400e1021400e9ff370063
:101f20002700200001f0a70017002000470bde006b
:101f3000f60fb200040032000643e8000a00320047
:101f40004702b3000000060001037800f607b20064
:101f50000603700002003a000703b3000000060009
:101f60008702b3000000060001037800f607b20004
:101f700006037000020032000770a0000000060097
:101f80000760a000000006000478a30004003200ef
:101f90000578a300030032000168a30001003a00a5
:101fa0000200be000160a000000006008101700078
:101fb000270032008002eb0001f8a300030032008a
:101fc00060001000e080180015002000f4072000d9
:101fd0000202420020003400f70320008703600063
:101fe00006042000000363000208200000016100d5
:101ff0004700de00c909dd0000807100c708de006f
:102000000600e0000800320087037100060032007d
:102010001000b0000180b0000188a300020032006f
:10202000c108de000402e800f107b200f30f20004f
:102030000320e10003003d004722dd008100720023
:102040002900370001f827000000eb0026003700c8
:102050006000b80000000600680212007f20e10066
:10206000020034006000b8001f0037006011b800a3
:102070007020e10004003500800178000100780044
:102080008000eb00700252000400e0000900340000
:10209000f00312000719dd008419de000703dd00dc
:1020a000868171000400de00070bdd000600700071
:1020b0008408de00f7ff2700838363008703710035
:1020c0000600280003036300070032000700e00059
:1020d00003003a00610160000281730002003200d7
:1020e0001000b0000180b0000500a600000006004e
:1020f00001f0a000000006004f0ade004709de00e4
:10210000f107b200f20fb2000b003200f207b1008b
:102110000170a000c708dd00c901de0083807000e7
:102120004700dd000400a60000000600600010006b
:10213000e080180000000600810f700001003a00e6
:10214000000006008182cf000500e00010003e0084
:102150008082cf00ee8242007028e1000400390046
:1021600007003e00800078000000eb000e00370002
:10217000708312008600de000500dd000a003700d3
:10218000708352008600dd000000eb00060037007f
:10219000e28252008508dd00708312000603de0033
:1021a000868070000500dd007507b0000501ea00bb
:1021b0000400a6000000060060001000e080180087
:1021c00000000600889fbe008a9fbe00841f780022
:1021d0007c0007004f00780011003300f0ff2f0053
:1021e000838f6c0006003b00040565000a00a70011
:1021f0000800370009f0a600100020000800370092
:10220000820f5400838f5c0003003900100020000f
:1022100001003e000000200009f0a7000000ea00d5
:102220004f05be004f04be000000e00000000600a5
:10223000881f7800030478000300e00007003d00d9
:1022400060001000e080180060011900e0811900b2
:1022500002003b0001f02d000300370004000700de
:1022600008f0a70001f0a0004f047800000006006d
:10227000889fbe008a9fbe00008270000402710029
:1022800004827100260032000004be000200be007d
:102290006011b8006b092000950220000182cf0078
:1022a0000a0039000541b1000082cf000700390063
:1022b0000541b1000982cf00040039000541b10099
:1022c0000882cf00010039000541b10005425200eb
:1022d000120032000a003b0082817100610164003b
:1022e0008100d1000080d3008984d3000884d3000a
:1022f0008b05e8000442e800f7ff3a0007003700ca
:102300000804440089844c00000048008180480093
:102310008b05e9000442e900f9ff3a0003000700d9
:102320004f05be004f04be000000060081002000e3
:10233000618055000b003d000b00200061fe2f0066
:102340000100e1001d003400828171006101640020
:102350008904d1000884d3000000e800faff3a00a5
:102360007100200061006400030070000200600042
:102370000900320061044400e0844c000988a50093
:10238000050032008b05e8006808e10002003a0011
:102390008904d1000884d300f20f20000258e10024
:1023a00005003d00c75ddd00f907b20089807500ba
:1023b00008007800000006000bf827008b0078006a
:1023c000000005000004be0014fc07000003be006e
:1023d0000405be000200be0010fc0700844f75001b
:0423e00000000600f3
:020000040000fa
:1023e400200000000a0d0000526500006164000036
:1023f400696e00006720000046610000756c0000f3
:10240400747300002e0a00000d00000046610000f5
:10241400756c0000742000004c6f00006720000001
:10242400467500006c6c00002e0a00000d000000d0
:102434004e6f000020660000617500006c7400009f
:10244400206300006f640000657300002e0a000022
:102454000d000000436f0000646500003a20000096
:10246400002000002d3e0000200000000a0d0000a6
:10247400004600006c610000677300003a3a0000f7
:10248400207c00004261000074740000204f0000b2
:10249400567c0000207c000042610000747400003f
:1024a40020480000567c0000207c000042610000af
:1024b4007474000020550000567c0000207c00004d
:1024c4004261000074740000204f0000547c00003e
:1024d400207c000053790000732000004f5400005a
:1024e4007c2000000a0d00000020000020200000d5
:1024f40020200000202000002020000000530000c5
:10250400455400002020000020200000202000006e
:1025140020000000436c0000656100007220000090
:1025240020200000202000000040000000200000c7
:1025340043680000656300006b20000046610000f2
:10254400756c00007473000021000000202d000051
:102554003e4300007269000074690000636100007a
:102564006c20000045720000726f000072210000b0
:102574003c2d0000000a00000d50000052470000ee
:102584003a0a00000d530000746f000072650000e9
:10259400643a0000000a00000d430000616c000072
:1025a400633a000020200000000a00000d4e0000e5
:1025b400564d00003a0a00000d530000746f0000ed
:1025c40072650000643a0000000a00000d53000028
:1025d40065740000746900006e67000073200000d9
:1025e400616e0000642000005661000072730000f8
:1025f4002053000061760000656400002e0a00008c
:102604000d000000502000004f6e00000a0d000075
:1026140000500000204f0000666600000a0d000014
:10262400000a00000d48000055440000204f00003f
:102634006e0a00000d0000000a0d0000485500005d
:10264400442000004f660000660a00000d000000f0
:102654000a0d000046610000756c000074730000f0
:10266400204300006c650000617200006564000096
:102674002e0a00000d0000000a0d00005631000073
:102684002e3000005f320000532d00003453000050
:102694000a0d0000005500006e6b00006e6f000014
:1026a400776e0000204300006f6d00006d61000034
:1026b4006e6400002e0a00000d000000496e000048
:1026c40069740000696100006c6900007a650000ab
:1026d400642e0000200a00000d000000200000000d
:1026e4002500000056000000545600000050000071
:1026f400570000004156000000430000560000004f
:102704004341000000530000310000005332000038
:102714000053000033000000533400000057000051
:102724000043000057000000410000004342000045
:10273400004300004d00000041410000004f000034
:1027440043560000004d0000430000000a0d000045
:102754000000000070930000729300007493000066
:1027640076930000799300007c9300007f9300002f
:102774008293000085930000889300008b930000ef
:102784008e930000919300009393000096930000b1
:10279400989300009b9300009e930000a193000077
:1027a400a5930000a8930000486500006174000030
:1027b40065720000207400006f6f00002073000039
:1027c4006d6100006c6c0000004e00006f20000082
:1027d40068650000617400006572000020640000f8
:1027e4006574000065630000746500006400000007
:1027f40048650000617400006572000020740000e8
:102804006f6f0000206c00006172000067650000bb
:10281400004c00006f77000020420000617400004b
:10282400740000004861000072640000204f000042
:10283400430000004368000072670000204f00005e
:10284400430000004261000074740000204f000047
:10285400560000004261000074740000204f000024
:10286400540000005552000046200000536500004b
:1028740074000000536500006c660000204f0000e7
:1028840054000000537900007320000053680000d6
:1028940075740000646f0000776e00000050000043
:1028a400574d00002045000072720000004f0000e8
:1028b4007363000020460000616900006c000000a2
:1028c4004164000064720000204500007272000040
:1028d40000530000544b00002045000072720000b9
:1028e400004d0000544800002045000072720000b2
:1028f4000052000065730000203700000050000003
:102904004c4c0000205500004c00000042720000b6
:102914006e4f00007574000000570000445400001e
:102924002072000073740000005400005241000043
:102934005020000072730000740000004f7000000b
:10294400636f00006465000020720000737400006f
:10295400004d0000434c0000522000007273000040
:1029640074000000496c00006c65000067610000a1
:102974006c200000496e00007374000000530000d6
:1029840079730000205200007374000000490000b5
:102994006e760000616c000020700000727400000c
:1029a400005500005342000020430000682000004e
:1029b400466c00007400000050430000686700008b
:1029c400203e0000203100003030000025000000cf
:1029d40056480000204300006856000000560000de
:1029e4004c200000436800005600000056480000d8
:1029f4002043000068430000005600004c20000003
:102a040043680000430000005648000020420000d4
:102a1400546d000070000000564c0000204200007d
:102a2400546d000070000000564800002042000071
:102a340043000000564c0000204200004300000008
:102a440056480000205300004d000000564c000082
:102a5400205300004d000000504f0000525400006d
:102a6400312000004253000059200000657200002c
:102a740072000000504f0000525400003220000049
:102a840042530000592000006572000072000000eb
:102a9400506700006d200000436800006b200000b8
:102aa40045720000720000004e5600004d200000e8
:102ab400436800006b2000004572000072000000b3
:102ac400536500007473000020430000686b00002d
:102ad4002045000072720000004e000056530000b2
:102ae40020430000686b0000204500007272000063
:102af400005000004f5200005431000020450000f7
:102b040052520000005000004f52000054320000a6
:102b14002045000052520000005300006f66000080
:102b2400742000004f4300000056000048200000bd
:102b340053310000005600004c20000053310000c7
:102b440000560000482000005332000000560000e8
:102b54004c200000533200000056000048200000c2
:102b640053330000005600004c2000005333000093
:102b740000560000482000005334000000560000b6
:102b84004c20000053340000004300006872000031
:102b940067720000204f0000560000004f43000001
:102ba40020460000617500006c740000004f0000b6
:102bb4005620000046610000756c0000740000009f
:102bc400556e00006b6e00006f7700006e00000011
:102bd400d6930000e7930000fa9300000b940000e2
:102be400149400001c940000249400002c94000011
:102bf400349400003c94000044940000519400007c
:102c040059940000629400006b94000073940000d7
:102c14007b94000081940000889400008f9400004d
:102c240097940000a0940000ab940000b4940000ba
:102c3400c1940000c9940000d3940000de94000005
:102c4400ea940000f1940000f8940000ff9400005e
:102c5400069500000e950000169500001c950000d6
:102c640022950000289500002e9500003c95000058
:102c74004a95000056950000629500006f9500008b
:102c84007b950000859500008f95000097950000c6
:102c94009d950000a3950000a9950000af95000044
:102ca400b5950000bb950000c1950000c7950000d4
:0c2cb400d0950000d9950000e2950000ca
:020000040000fa
:102cc000889fbe000004be006011b8008ef90700a6
:102cd0000000e00001003d0009f0a2000800be0075
:102ce0004f04be0000000600889fbe000004be0026
:102cf0000001be00abfb07000801be00a9fb0700f6
:102d00004f04be0000000600ec874700889fbe000d
:102d10008a9fbe008c9fbe008e1f7800104e8000e0
:102d2000214e8000e6ff0700a2702d0033da230059
:102d300075f907000000e00040003d0002cabf0036
:102d40000048a3003d003a0004cabf000038a300b9
:102d50003a003200904c8000a14c8000904e8800d8
:102d6000a14e880090458000e0b79f00a2458000fa
:102d7000f2b79f0070458000814580006fb19700d9
:102d8000ffb19700baf90700c0b79f00d1b79f0005
:102d9000639d200083bf9f000007eb000a00200016
:102da0000bf023004271dd002202b0008098200069
:102db0000201400012007800920090006fb197006d
:102dc000ffb19700aaf907004fb19700dfb1970054
:102dd00095fa07000a01be00a5f907000004be002d
:102de000c1ff07000001be00aaf907000006be00ef
:102df0000a01be000800be006afb07000001be0019
:102e00000c00be00a3f907000a01be00a1f90700eb
:102e100002002000832c240062fb07000fb99700fa
:102e200000a9be0082bf9f000e07e800e40f570014
:102e3000dcff3a0002caa800200037009845800055
:102e4000a94580009a4c8000ab4c8000a2702d00f8
:102e500033c223000800be008ef907000001be0047
:102e60000a00be0028f907000000e00013003c0043
:102e70006000b800d04e8800e14e8800f04e880017
:102e8000014f8800104f8800214f8800304f880084
:102e9000414f880002002000030824000800be0003
:102ea00040fb0700a2702d0033c2230079f9070010
:102eb000904e8800a14e880002caa8004f077800f3
:102ec0004f06be004f05be004f04be00cf00b1004c
:102ed00000000600c20320000281b900800040000b
:102ee000a4a020008100420091004100c2a2200065
:102ef000e2c078000104e00007003a0080004000d2
:102f0000a2a02000010141008000eb00010978002f
:102f1000c285200001717800000006006f0060008b
:102f2000e90f500002003c000043b00001003700f0
:102f30007043b00000000600c1852000e140780029
:102f40000104e00012003a0012c0b300c185200065
:102f50008270780080004000a2a020008100410023
:102f6000c20320000281b90011014100c3a2200068
:102f7000028141000049eb008008eb000000e00006
:102f8000020032008720a800010037008540a80019
:102f90000000060000014000a1a02000e10079002f
:102fa000c40320000482b900848140006702b90094
:102fb00026a120000201430012024200e5a12000e8
:102fc000c2a22000e5427a0005f17900a2032000a8
:102fd000828f500004003e0000004000a2a02000ac
:102fe000000041000108e80000000600889fbe00c4
:102ff0000004be000200be000240220043972400ed
:10300000e8fa07000801be0007fa070002002000e6
:1030100003d82300e3fa07000200200003f823008e
:1030200013f90700ddf807004f04be00000006009a
:10303000881f7800044aa9006000b800d04c8800be
:10304000e14c8800304e8800414e8800504e880088
:10305000614e8800904c8800a14c8800d04e8800ba
:10306000e14e8800f04e8800014f8800104f880024
:10307000214f8800304f8800414f8800104e880053
:10308000214e880043c7bf0088cfb30008406000ce
:103090000004a00043e7b7004207a8004227a900a8
:1030a000c020ef00c220ef00c420ef00c620ef00d8
:1030b000f0ff210060168800d022ef00ce22ef0042
:1030c000e0f82f00f0168800e222ef00e022ef0087
:1030d000a0ff2f00c0168800dc22ef00da22ef00ec
:1030e00040002000000e8800c221ef0010032000e5
:1030f000200e8800c621ef0000ff2000400e88004f
:10310000ca21ef00cc21ef00d021ef0000a02a005f
:10311000a00e8800d621ef00d821ef00da21ef00c1
:103120000e22ef000fe2a9000c22ef000d42a800d2
:10313000a2702d00b316240000002000616124005d
:10314000aaff0700a01088001822ef0019e2a900ca
:103150001622ef00f0108800a30e2e00130888003e
:103160000021ef000421ef0001c3b300014078000b
:103170000461b700a2832300620888000621ef00e3
:103180001021ef000411200014427800f7ccb300a6
:10319000074262000454a000044378000511200097
:1031a000864a7800d30888001421ef001e21ef0022
:1031b0001e61b700e20888001821ef002021ef000f
:1031c0000212200012417800074061000054a00064
:1031d00020e1b700c02a210070418800008c230044
:1031e0008041880000c7b3009960b70097c0bf0056
:1031f000084060006040b30097e0b7009cc0bf008b
:10320000084060005040b3009ce0b7005209200025
:1032100012417800f0c8b300004161000264a000d0
:10322000024278005309200084497800f209200006
:1032300012417800084161000224a0000243780096
:10324000f5092000864a7800920920001241780092
:10325000084161003240b300024278009309200027
:1032600084497800020a2000124178000041610080
:103270008140710001437800050a2000864a7800e9
:10328000810920009140780080c060000154a000b6
:10329000814178008209200003497800010a20005a
:1032a0009140780088c060000114a000814278003d
:1032b000040a2000054a7800410920009140780066
:1032c00008c460000804a000884078004609200077
:1032d000014b7800e10920009140780080c0600037
:1032e0000144a00081417800e209200003497800f0
:1032f000f10920009140780000c060000044a00067
:103300009fe0b7004f04780000000600889fbe00d1
:1033100010be200000018800a8448000b94480004d
:1033200080448000914480000801be0059f80700e5
:103330000001be000800be003bf9070030408800d5
:1033400041408800048aa800040aa90038ff070049
:1033500081e0a9008420ef008620ef008820ef00a4
:10336000ff3ffc008c20ef008e20ef009020ef004c
:103370008c60a8008d20a8008d40a8008f00a800b8
:103380008f20a8008c00a8008e00a8008ee0a90065
:103390008cc0a8008ea0a8008ec0a8008d60a800d8
:1033a0008200a9008240a9005220ef00a1e2a800fb
:1033b000c1e1a80011e1a80005e1a8001fe1a800f3
:1033c00021e1a8000de2a8000f42a80017e2a80022
:1033d0001942a80080ff2f00020ab6000010a000ca
:1033e000105088004f04be000000060010ff0700c8
:1033f000ff3ffc008420ef008620ef008820ef00d4
:103400008c20ef008e20ef009020ef008d20a80090
:103410008d40a8008f00a8008f20a8008ea0a800d3
:103420005220ef00a1e2a900c1e1a90011e1a90029
:1034300005e1a90013e1a9001fe1a90021e1a9000c
:103440000de2a8000f42a80017e2a8001942a80048
:1034500000000600c1852000e14078000104e00082
:10346000050032000140fe00c1852000e1407800e7
:103470000104e000fbff3a0000000600dc42a90066
:10348000e1406000dcc2bf000004a1000140700008
:10349000dce2b700d622a900d642a900d662a90074
:1034a00000000600dc42a80080407800f1c0b200b5
:1034b000e1c06000dcc2bf000004a1000140700058
:1034c000dce2b700d622a900d642a900d662a90044
:1034d00000000600889fbe000004be00020020001d
:1034e000e32b24008af707000000e000030034000b
:1034f000f0c0b300ebff07002f00370002002000f0
:10350000632924000800be0081f707000000e000e6
:103510000300340070c0b300e2ff0700260037004c
:1035200002002000832424000800be0078f7070072
:103530000000e0000300340030c0b300d9ff0700f2
:103540001d00370002002000831c24000800be007c
:103550006ff707000000e0000300350010c0b30063
:10356000d0ff07001400370002002000831c240055
:103570000800be0064f707000000e0000c003d00fa
:1035800005cabf000028a30009003a0008cabf000e
:103590000028a3000300320010c0b300c1ff0700e1
:1035a000050037000040eb00beff070002003700b7
:1035b0000040eb00bbff07004f04be000000060008
:1035c0000004e0004a003400e34f500003003a00da
:1035d00060c0b300b3ff070047003700d18420006c
:1035e00091407800e2cf50003a003400e14f5000a3
:1035f0003c003a004d68ef0005cabf000018a30068
:103600000900320008cabf000038a30003003200de
:1036100020c0b300a3ff0700370037000040eb00d5
:10362000a0ff07003400370005cabf000028a30030
:103630002400320008cabf000008a3000d003200b9
:1036400034c8bf00e64f50000300320003cabf0079
:103650000018a30007003200704c8000814c8000ed
:1036600002002000831c24008af7070099ff07004e
:103670002100370008cabf000018a3000d00320067
:1036800034c8bf00e64f50000a00320003cabf0032
:103690000018a30007003a00704c8000814c8000a5
:1036a00002002000831c24007af7070089ff07002e
:1036b00011003700704c8000814c800085ff0700ae
:1036c0000d003700704c8000814c800081ff0700a6
:1036d000090037008140e80001417800d0842000d3
:1036e000024878004ec8bf0064ff070002003700a0
:1036f0000040eb0061ff0700000006001100200001
:10370000f21f2000820f500022003c00ff3ffc000f
:103710009209200012417800f1c8b3008140610095
:10372000814178009209200003497800811f7800c8
:103730000000400001c02f0001004000f107200000
:10374000213b8800103b880041042400013b880095
:1037500051052000313b8800a10a2000313b880040
:1037600061e7a8000000000000000000cf00780022
:103770006147e20004003d000000eb009002880079
:103780006147e200fdff350000c7b3009960b70054
:103790008000eb000100780000000600889fbe005a
:1037a0000004be0008007800d4ff070010002000cd
:1037b000f11f2000810f540026003c00ff3ffc0059
:1037c0009109200091407800f0c8b30000c060006b
:1037d00099e0b700801f7800811f7800821f780071
:1037e0000804440000c02f0000044400f0c7b300e8
:1037f00032e0b70029008800080088000208bb00fa
:1038000041002400013b880051052000313b880025
:10381000a10a2000313b880061e7a80000000000f9
:10382000000000004f017800cf0078004f007800c2
:103830006147e20004003d000000eb0090028800b8
:103840006147e200fdff350000c7b3009960b70093
:103850000000eb004f04be00000006006ee8b70059
:1038600081438800ff3ffc009109200091407800cf
:10387000f0c8b30000c0600099e0b700841f780072
:10388000801f7800e186200091407800200320000e
:103890000148780081438000010088001082ba004e
:1038a000000000000000000040008000404388004d
:1038b000e186200091407800200320000148780034
:1038c00081438000010088001002ba00000000005f
:1038d0000000000040008000604388004f00780036
:1038e0004f02780000c7b3009960b7005220ef0084
:1038f0006043800000000600800078000000eb00bc
:10390000f21f2000828f500005003c0000e02700dd
:103910008080400081804000f0c7b300cfff0700e7
:1039200000000600889fbe008a9fbe007228ef003c
:103930000004eb00fa0f2000ebff23008800780062
:103940000040eb00c5ff0700800478008800780085
:103950000040eb00c1ff0700800078008a8464000b
:103960009043800000804400c808de006808b4006e
:1039700081004000914388000884e8008b0f5400c8
:10398000eeff3a00890f2000fb0f200013003700e4
:103990008800780009407800b0ff07000005780033
:1039a0008800780009407800acff07000b0565002f
:1039b00091438000010545004800de0000054500f8
:1039c0009a4388000884e800e20f4400f0ff3a00c0
:1039d0008904e8008b8f5400020032000004eb00e1
:1039e000ebff37004a1ab0009a4388004f05be002b
:1039f0004f04be0000000600caff0700904380008d
:103a00008047880000000600889fbe008a1f78005b
:103a10007428ef000004eb00fa0f20000800780083
:103a2000b5ff07008004780008007800b2ff0700a7
:103a30008a846400a1438000818444004800de0041
:103a400080844400a94388000804e800e01f2000a7
:103a5000800f5400f1ff3a004f0578004f04be007c
:103a600000000600e8ff0700a1438000f01f2000cf
:103a70004aff070000000600881f78003b48e2006c
:103a80000d0034000004eb000800440061942000a5
:103a9000e10078003ac8bf000000fb0000004400cd
:103aa0003eff07000804e8003bc8bf000000fb0021
:103ab000880f5000f4ff3c003ac8bf000000fb0034
:103ac0004165270035ff0700b18320009140780051
:103ad0008100fb003ac8bf000000fb0000804000ee
:103ae000514280002dff0700deff070002eaa90017
:103af0004f047800000006000040eb00b0fe070015
:103b0000d04e8000e14e8000804a8800914a8800b3
:103b1000f04e8000014f8000a04a8800b14a880022
:103b2000104f8000214f8000c04a8800d14a880091
:103b3000304f8000414f8000e04a8800f14a880001
:103b4000cdff0700e202a90000000600881f7800f0
:103b50003a48e2000b0034000004eb000800440087
:103b6000e1882000e1007800080078000bff0700e2
:103b70000804e8003ac8bf000000fb00880f5000ae
:103b8000f6ff3c00715624000000eb0003ff070025
:103b9000b4ff07004f04780000000600889fbe00b5
:103ba0008a1f78007628ef003a48e20012003400bd
:103bb0000004eb00fa0f2000080078004eff070019
:103bc00080047800080078004bff07008a846400b6
:103bd000b1438000818444004800de0080844400ba
:103be000b94388000804e8003ac8bf000000fb00a1
:103bf000880f5000f0ff3c004f0578004f04be00d6
:103c0000000006007828ef00a2832000124178000f
:103c10000204e0000f0034008000eb000100780097
:103c2000f60f20008202fb0080014000e4882000a3
:103c30006481790086016100818041004811de00c5
:103c4000828040000000e800808f5200f6ff3c00b8
:103c5000c143880000000600eaff0700c04380005f
:103c6000d0438800000006009028ef00802c24003c
:103c7000904488009428ef0000122400b04488008b
:103c80006000b800c0448800d1448800e044880047
:103c9000f1448800004588001145880020458800cf
:103ca00031458800a828ef00305c2f00504588007f
:103cb0008008240060458800606626007045880002
:103cc0006008240080458800d0cc2c0090458800f6
:103cd000c0042400a0458800a0992900b0458800b0
:103ce00090012400c0458800ba28ef00000024009d
:103cf000e0458800be28ef0000f823000046880059
:103d0000c228ef0000f023002046880060662600ed
:103d1000304688006002240040468800ca28ef0030
:103d20000010240060468800ce28ef008010240098
:103d300080468800007d200090468800a00020007a
:103d4000a0468800f1002000b146880082022000d1
:103d5000c246880032022000d2468800920120002c
:103d6000e2468800de28ef0000478800720320004a
:103d7000124788002203200022478800314788002c
:103d8000c1032000414788000105200051478800f9
:103d9000604788008007200070478800f268ef00c5
:103da000f368ef0050332300204a880060c4b3005a
:103db00087e9b700a8ff070000000600e687470074
:103dc000889fbe008a9fbe008c9fbe008e1f780019
:103dd0003ec8bf000b003a003748e20009003a0035
:103de00010c0b30037e8b70081ff2f0012508000e9
:103df000828060003100b300115088003ee8b700b7
:103e00006c0037007183200091407800e5cf5000ae
:103e100005003a00e14f500003003c000040e8007c
:103e20003ee8b70063003700e24f500061003a00ff
:103e300002cabf000068a3005e0032003ac8bf009b
:103e40000000fb000000e800abfe07004165270012
:103e5000810f500043003a004c4a80005d4a8000c8
:103e60000200200003f823000c00be0028f5070024
:103e70000000e0003b003400609d200080bf9f00f8
:103e80000007eb000a0020008b2c240042002000d9
:103e9000f2b79f000fb897005004be0080bf9f008c
:103ea0000a01be000800be0017f507000000e00090
:103eb00002003d000805be00feb79f000e07e800a7
:103ec000e40f5700f3ff3a007fb097004201dd0096
:103ed00003952000830141001300780093009000b7
:103ee000a39d2000028141001201be0060f5070081
:103ef00002002000832c24004bf607000001be00c6
:103f00000c00be0027f7070003f50700cf80de0096
:103f10003df507000004be00204b8000314b8000bf
:103f20000801be0052f50700204b8800314b880085
:103f3000604a8000714a80000801be004cf507000d
:103f4000604a8800714a8800004b8000114b800055
:103f50000801be0046f50700004b8800114b8800a1
:103f60000e0037003846800049468000484a8800e5
:103f7000594a880002002000832c2400504f800002
:103f8000614f800028f607000001be000800be0057
:103f900004f70700204b8800314b880030c0b30085
:103fa0003ee8b70080ff2f00020ab6000010a00014
:103fb000105088004f0778004f06be004f05be0026
:103fc0004f04be006f00b10000000600052aa800e3
:103fd000164c80000600e000120032000602780055
:103fe0008000eb008042eb0017c0b30074814000fa
:103ff000020141006394200063017900820f5000a8
:1040000001003a00874278008100e800848f500068
:10401000f6ff3a00e90f53000c003e000504e000f3
:1040200011003a0061072000810f50000e003e0091
:10403000f4004300818040006294200000b17800c9
:104040000603e800164c8800070037000504e0006e
:1040500005003a0061072000810f500002003e0079
:10406000b0002000104c88000000060040c7bf00d0
:104070000018a300030032004027a90030012000ef
:10408000d2ff070040c7bf000048a3000300320072
:104090004087a90040012000ccff07004147e20013
:1040a00003003d0041e7a90050012000c7ff0700c1
:1040b00041c7bf000068a3000300320041c7a90048
:1040c00060012000c1ff07004047e20003003d00ff
:1040d00040e7a90070012000bcff070040c7bf00f7
:1040e0000068a3000300320040c7a900800120003f
:1040f000b6ff070090012000b4ff0700024ae2006b
:1041000001003d005cfe07000000060050a52a00eb
:10411000dc0ae30001003a00d4ff070050a52a00a2
:10412000e05688000000060037fe0700f01f200060
:10413000f1fd0700800078000000eb00a243800042
:10414000810f510008003200a00220009fff0700ed
:1041500004aaa80080ff2f00020ab6000000a000f9
:10416000105088001000200000000600889fbe004c
:10417000edff0700800078000000eb000100e00088
:1041800018003a003bc8bf000000fb004240a900f5
:104190000d0034000004eb00699420003ac8bf0011
:1041a0000000fb0000004400d3fd0700880044002d
:1041b00080b478000804e8003bc8bf000000fb00a2
:1041c000880f5000f5ff3c00a1832000914078004b
:1041d0008100fb0001004000c7fd0700504288003d
:1041e000100020004f04be00000006003ac8bf00c7
:1041f0000000fb00c0fd070041652700810f500053
:1042000001003a00d9ff07000000060031a020009d
:10421000914078000000eb000108a30011003a0073
:10422000030aa800bffd070090438000f008e300e8
:104230000a0032009002200064ff070004aaa800d0
:10424000030aa90080ff2f00020ab6000000a000a8
:10425000105088001000200002003700030aa90057
:104260000000eb000000060066fe07004bfe0700a2
:104270000000eb00b1438000c2438000810f510079
:1042800008003200c002200050ff070004aaa80066
:1042900080ff2f00020ab6000000a0001050880026
:1042a0001000200000000600889fbe009eff07004f
:1042b000800078000000eb000100e00014003a00ec
:1042c0003a48e2000b00340000047800e98820003e
:1042d0000800780088fd07008800440080b478005a
:1042e0000804e8003ac8bf000000fb00880f500037
:1042f000f7ff3c00dcff0700800078000000eb00c7
:104300000100e00002003a0053fe07001000200008
:104310004f04be00000006003afe07000000eb005c
:10432000d1438000c2438000810f5100030032005e
:10433000b002200025ff070010002000000006004a
:10434000881f780000047800e10f54000700340053
:10435000a00120001dff07000804440020a1200048
:1043600008044000000ceb000b003700c085200063
:1043700060407c000004e000070032000800e0001c
:10438000030032008002200010ff07000200370007
:10439000700220000dff07004f04780000000600a7
:1043a000e6874700889fbe008a9fbe008c9fbe00a4
:1043b0008e1f78000004be00820678000d80460043
:1043c00021a12000808040000000eb0080087800e0
:1043d000c268dd0002852000810041006011b80044
:1043e0008288be00a185200080f07e006768b90049
:1043f00005c2b300e4a12000057278000800be00e9
:10440000c1f307000000e00005003d0009f0a20034
:104410006768b900d3c2b300e2a12000037178003d
:10442000f2ff2300c36124000800be00b8f30700b8
:104430000000e000890034006768b900f3c3b300ee
:10444000e2a12000037178004268dd0001852000b0
:1044500000804000f2ff2f00f31124000288be000c
:104460000d8046001200200021a12000823078003b
:1044700086003700e50f560004003a00e1c2b300a1
:104480007fb09700014878006c0020000800be0053
:10449000a1f30700004778000fb997000c00410016
:1044a000e1a120000080400002c3b30002484700a1
:1044b0000c06e8000e00fb00cf80de00d2f3070000
:1044c0000001be000800be00e9f307000a01be00bb
:1044d000b4f507000004be00e80f5600e5ff360003
:1044e0004268dd0001852000008040000888be0091
:1044f000a08520000ef07e000d80460021a1200046
:10450000008040000008eb000d0078008cff0700e1
:1045100011c0b300e085200001f07e000d80460050
:104520002aa12000000545006768b9000006780050
:1045300008c3b3002b0037000000e800d240780029
:1045400088cf500002003200000d780003003700d1
:10455000e20f5000f8ff3600000d780000862000c2
:1045600060c07e000004e0000d00320000c2b30015
:1045700080cf500005003200d0c2b30080cf500081
:1045800003003a000d00780082fa07001a0de800d7
:104590008040eb000086200001f07e000300370021
:1045a0000d0078007bfa07001a0de8001a0046009b
:1045b000e1a1200061407800884f500009003200de
:1045c000d1c2b300814f50000600320001c2b300d7
:1045d000814f5000030032008040eb0080852000b6
:1045e00001f07e001a007800e80f500010003e0035
:1045f00080004600e2a12000e2c0780088cf500091
:10460000d6ff3a008285200062c17e000204e000ed
:10461000d2ff3a00e20f5000d0ff3e000001e80058
:1046200002014600d1a1200001014100c2ff370074
:104630000040eb008185200080f07e00e1852000b5
:1046400080f07e004f0778004f06be004f05be0089
:104650004f04be006f00b100000006004268dd009c
:104660000a8520000005450002002000a347240021
:104670000800be006cf40700008dbe000d804600ef
:104680001200200021a12000823078000d80460019
:1046900021a12000610678004268dd00018520002c
:1046a000008040001004be006768b9000001780077
:1046b00082bf9f000a0020000b12240030a22000bd
:1046c00000004100f0b79f0070ff3700889fbe00d8
:1046d0008a1f7800800478000104780008007800c0
:1046e00017ff070011c0b300e085200001707c00b7
:1046f00008004400e1a02000008040000008eb001a
:10470000194078000004e0002200320088004400d4
:10471000a2a02000e2807800c203200002c1b900fc
:1047200002814000c3a2200080717900a003200014
:10473000808f500017003e008000eb00080044000e
:10474000a3a0200080814100e5a0200080824200db
:10475000caa22000c703200007c3b900860378005f
:10476000a6032000040037000082430002757a008f
:10477000860f500007003e001300e8008009780013
:104780008100e800810a7800594178000204e000c5
:10479000f5ff3a008040eb00e085200001707c00ce
:1047a0004f0578004f04be0000000600889fbe0041
:1047b0008a9fbe008c1f7800010478000801440025
:1047c000c3ac2000828141008000eb0081097800a9
:1047d00043ac200002814100010978006601b90064
:1047e0007842b90082054200880444008aac200067
:1047f00009054500aca0200009064600818045005f
:10480000e107b000e088200060c078000080fb0075
:10481000000d7800ea0f500003003e0012c0b30004
:104820000186200082707c00eb0f500004003a00eb
:1048300012c0b3008185200082707c002700370001
:104840000000e0004c003200b10f2000810f50004a
:1048500022003600d10f2000810f500010003200de
:1048600004003e00c10f2000810f500017003a00e5
:1048700007003700e10f2000810f50000c003200cc
:10488000f10f2000810f500010003a000c0037009b
:1048900088007800408f20008cff07000b00370055
:1048a00088007800a08f200088ff070007003700ed
:1048b000880078000090200084ff07000300370084
:1048c000880078006090200080ff07001100200021
:1048d000c0ac200001b07c0021003700f50f500073
:1048e0001f003e00f40f5000070032004200dd00c0
:1048f000a198200001014000120078009200900071
:1049000008017800a6fe07009c80e900010e7800ef
:104910001a007800e10f500002003200eb0f500047
:1049200001003a00018ee90000004000c13a290070
:10493000610078008800780064ff07000001200013
:104940009a0f10000300320088007800201f290011
:104950005eff070011002000c0ac200001b07c0009
:1049600040ac2000090040009000e80001087800f9
:10497000e58f5000a1ff360008004400c1ac2000c4
:10498000610078000000e0000200320008007800ba
:1049900069f907004f0678004f05be004f04be00be
:1049a00000000600889fbe008004780040062000ba
:1049b00009004000e1882000614078000004e00028
:1049c00036003200c085200060c07c000004e0009a
:1049d00032003a0002cabf0067406000e54f500055
:1049e0002e003a0000ad200060c07c000004e00012
:1049f00027003a000980440008ac2000000444006d
:104a0000890078001800780068ff07001800780017
:104a1000c248dd0080804000e10ab000e28820004a
:104a2000e2c078008140e90002ad200001f17c0085
:104a300003003b000041eb0001ad200082f07c0050
:104a4000e30f50000d003e006601b900784ab9003e
:104a500082004200e107b000e2882000e2c0780056
:104a60000104e000050032008984440001ac20000c
:104a7000898040008008e8000800370089844400ed
:104a800000ac2000090040000008eb0003003700e4
:104a90000040e90001ad200080f07c004f04be0022
:104aa00000000600881f7800010478008800780064
:104ab00006ff0700080078001ff907004f04780080
:104ac00000000600889fbe008a9fbe008c9fbe002b
:104ad0008e1f7800800478000104780008007800b8
:104ae00017fe07004240dd004c49de0061a12000b6
:104af0008270780071a120000100400001f02000c8
:104b000081806400c888de00014878004240dd00f2
:104b100081a120000080400089007800010fb200d0
:104b2000c488de0001487800c240dd0090a120006a
:104b3000008040006fc8640011c0b300e085200011
:104b400001707c0008004400a1a0200061007800f2
:104b5000c203200002c1b9008200400003c3b300b9
:104b6000c2a2200003f17800a1032000810f5000b1
:104b700004003e0088004400a2a020008100410003
:104b80008008e80008004400a1a02000610078002f
:104b9000c203200002c1b9008200400083c7b300f5
:104ba000c2a2200003f17800a1032000810f500071
:104bb00004003e0088004400a2a0200081004100c3
:104bc0008008e8004240dd005aa120000a054000ac
:104bd0009ca120000006460008004400aba0200075
:104be00080854500cda22000c003200000c0b90090
:104bf000000778009b0478005a00fb00c7f8070004
:104c00008900470080f67800a0032000808f5400c0
:104c100001003e00890de8008c0f5500f5ff3a00b9
:104c20008040eb00e085200001707c004f07780099
:104c30004f06be004f05be004f04be000000060038
:104c4000889fbe008a9fbe008c9fbe000005780032
:104c50008a007800401f29009cfe07000a007800a7
:104c6000b5f807000a007800faf90700104c800038
:104c7000ea0f5000050036008a00780080202900e5
:104c800092fe07000a007800abf807008209e200f4
:104c900006003a008a007800a02129008bfe070058
:104ca0000a007800a4f80700310037000a00450028
:104cb000c1ab2000008040000008eb00cb2229009f
:104cc0000a004500c8ab2000000444005c07200037
:104cd000ad5e29000a007800def907008a0078003e
:104ce0000b00780079fe070098007800748040007f
:104cf0000000400069942000690078008a00780074
:104d000070ff07008a007800302329006ffe07003b
:104d1000980078007480400000004000690078002e
:104d20008c0f500006003e000000e900000040002b
:104d30006d0078008a00780064fe070003003700e9
:104d40008a007800205e290060fe07008a00780053
:104d5000802329005dfe07000a00780076f807002e
:104d60001800e800000c78008209e300d9ff3e003b
:104d70000a007800b7f907008a007800802329002c
:104d800052fe07000a0078006bf807000a0078005e
:104d9000b0f907008a007800b02329004bfe070015
:104da0000a00780064f807000a007800a9f90700f3
:104db0008a0078007027290044fe07000a00780066
:104dc0005df807000a007800a2f907008005eb00f3
:104dd000c8282900192829004a88ab00040032009d
:104de0008a0078000900780038fe070003003700c9
:104df0008a0078000800780034fe07008b05e80080
:104e0000e58f5500f4ff3a008a00780080232900de
:104e10002efe07000a00780047f807004f06be0084
:104e20004f05be004f04be0000000600889fbe0074
:104e30008a1f7800000478000800440049aa200076
:104e4000808444008aaa2000000545002500370020
:104e50000800e00008003200e01080006641b90060
:104e600099004100c2aa200000f178000000fb0078
:104e7000d01088000600370090108000c2aa2000e1
:104e80002155800000f178000000fb0080108800b0
:104e9000190078006641b90082004000c2aa2000d3
:104ea000e2c07800edcf500002003200eacf50009f
:104eb00009003a00880078008023290003fe0700db
:104ec000190d7800800ceb0011c0b3002086200083
:104ed00001707c0003003700e30f500001003e002a
:104ee000800ce8000800e00004003a000ec2bf0099
:104ef0000008a30006003a000a003700e10f540042
:104f000008003a0018c2bf000008a30005003200e4
:104f10002086200060407c000004e000ccff3200ce
:104f2000040037002086200060407c000004e00080
:104f3000230132008800780070292900e3fd070072
:104f40008209e200030032008800780090292900dd
:104f5000defd070002cabf0067406000e14f50005d
:104f600003003a0088007800802a2900d7fd070056
:104f70006640b9000801440083ab20000281410073
:104f800012004000c1aa2000614078000000fb0030
:104f9000cf80de006a005000e08058004207200009
:104fa000820f5000e08f5800f8003e0000600100c2
:104fb000f9003700f5003700f4003700f60037003d
:104fc000f2003700f1003700f0003700ef00370043
:104fd000ee003700ed003700ec003700eb00370043
:104fe000ea003700e9003700e8003700e700370043
:104ff000e6003700e5003700e4003700e300370043
:10500000e2003700e1003700e00037008c00370095
:10501000de0037005b0037005c0037006c003700b3
:10502000c0003700d9003700d8003700d70037005c
:10503000d2003700d5003700d4003700d300370046
:10504000d2003700d1003700d0003700cf00370042
:10505000ce003700cd003700cc003700cb00370042
:10506000ca003700c9003700c8003700c700370042
:10507000c6003700c5003700c4003700c300370042
:10508000c2003700c1003700c0003700bf00370042
:10509000be00370097003700bc003700bb00370068
:1050a00076003700b90037006b003700b7003700d3
:1050b000b6003700b5003700b4003700b300370042
:1050c000b20037007b0037006f003700af003700b9
:1050d000ae00370067003700ac003700ab00370088
:1050e000aa003700a9003700a8003700a700370042
:1050f00095003700a5003700a4003700a300370053
:1051000045003700a1003700a00037009f0037009e
:105110009e0037009d0037009c0037009b00370041
:105120009a003700990037004e003700970037008b
:105130009600370095003700940037009300370041
:105140009200370063003700540037008f003700ab
:105150008e0037008d0037008c0037008b00370041
:105160008a00370089003700880037008700370041
:105170008600370085003700840037008300370041
:105180002b0037000000fe00830037008800780005
:10519000d02b29004dfd0700880078008047800053
:1051a00048fe070088007800d02c290047fd070042
:1051b00016fc0700880078009043800041fe07003d
:1051c000880078008023290040fd07007200370026
:1051d00088007800702d29003cfd0700f01f20009a
:1051e000c5f907008800780036fe070088007800bf
:1051f000d02c290035fd0700cbfb07008800780084
:10520000a04380002ffe070088007800802329003b
:105210002efd07006000370088007800702e2900fe
:105220002afd070049fa070013fa07005a00370061
:105230008dfa070045fa07000afa07005600370002
:105240003ac8bf000000fb002cf9070005fa070070
:105250000000fe005000370010c0b30086e9b70020
:105260004d00370050c0b30086e9b70002fa0700ce
:1052700049003700042aa8004700370008007800da
:105280006ffe070044003700880078004030290096
:105290000efd0700026aa8003f0037008800780072
:1052a000b030290009fd07003d68ef00026aa9003f
:1052b00039003700880078003031290003fd0700ed
:1052c00011c0b300208f200001707c0062fa07003b
:1052d0003100370088007800e0312900fbfc07002e
:1052e0008040eb00208f200001707c005afa0700fc
:1052f000290037008229ef0004aaa90086c9bf004f
:10530000e54f5000010032008669ef0004caa90091
:10531000d9f9070088007800a0322900ebfc0700cb
:105320001d00370002cabf0067406000e14f500017
:1053300019003a0080ff2f00020ab6000010a000fa
:10534000105088001400370004eaa900704580005e
:1053500081458000b04c8800c14c8800dbc2bf0092
:105360000008a300020032008429ef000a00370081
:10537000a0002000204c880007003700880078003b
:10538000e0332900d1fc07000300370088007800d3
:10539000d0342900cdfc07008800440042aa200038
:1053a000010141000000eb00000978002286200086
:1053b00000717c0082ab20008100410080087800f1
:1053c00008007800dcf607004f0578004f04be00a7
:1053d00000000600d621ef004428ef0030c0b300e3
:1053e000deeab700d22aef0086c9bf00e54f5000c1
:1053f0000200320040c0b30086e9b70080ff2f00f2
:10540000020ab6000010a00010508800d1e2a900e6
:1054100000000600da21ef00d821ef00d621ef00ce
:10542000e2c2a900d1e2a9004428ef000000060072
:10543000f8ff070004aaa800b0002000e3fa070064
:1054400000000600889fbe00184e8000294e800094
:105450006011b8000800be00abef07006011b80093
:105460000000e00002003d000801be0003f0a200c1
:105470005046800061468000a3ef07000000e00076
:1054800009003d0000448000e50f50000400340096
:10549000e7ff07008028ef0050002000cbfa07004c
:1054a0008028ec0005003700004480000000e00088
:1054b000020034000000e90000448800184e80001b
:1054c000294e800010468000214680003246800030
:1054d00043468000b3f107000001be000800be0093
:1054e0008bef07000000e00003003400d0ff07004e
:1054f00060002000b5fa0700024ae20001003d000a
:105500005df907004f04be00000006000800fa0025
:10551000889fbe008a9fbe008c9fbe0002002000b4
:1055200003e0230070408000814080009df107006f
:105530000200200003702400cdef070002002000cd
:105540000380230097f107003233230033fd23004b
:1055500094f10700020020008314240091f1070059
:10556000524f8000634f8000caef0700104e880042
:10557000214e88006000b80070408800814088009b
:105580000200200003e0230090408000a140800042
:1055900084f107000200200003702400b4ef07002c
:1055a00002002000038023007ef107003233230035
:1055b00033fd23007bf10700020020008314240048
:1055c00078f10700724f8000834f8000b1ef070031
:1055d000304d8800414d88006011b800924088002d
:1055e000a340880097ff07003840800049408000b2
:1055f00002c02c00c37c2400904f8000a14f80008b
:1056000089f007000801be0087f007000005be0012
:105610006000b800904f8800a14f880002c02c00a5
:10562000c37c2400b04f8000c14f80007ef0070093
:105630000801be007cf0070080bf9f0091bf9f0063
:105640006000b800b04f8800c14f880002c02c0035
:10565000c37c2400d04f8000e14f800072f007002f
:105660000801be0070f007000006be006011b8001f
:10567000d24f8800e34f880002c02c00c37c240076
:10568000f04f80000150800067f007000801be0065
:1056900065f00700e0b79f00f1b79f006000b80019
:1056a000f04f8800015088000fb997009fb997000c
:1056b0000c00be0077ef07000a01be0075ef07007f
:1056c0000001be006fb09700ffb0970068ef0700c1
:1056d000c2448000d34480006eef0700504d880024
:1056e000614d88000a01be000fb897009fb897006f
:1056f00068ef07000001be000c00be005cef070071
:10570000e2448000f344800062ef0700704d88009f
:10571000814d88000a01be000fb897009fb897001e
:1057200053ef0700024580001345800059ef070042
:10573000904d8800a14d88002045800031458000b3
:105740000a01be0053ef07000005be00b04d8800ff
:10575000c14d8800504d8000614d80006011b8003f
:105760004cef0700724d8000834d800049ef070029
:105770000001be00904d8000a14d800045ef070064
:105780000001be000a00be0042ef0700904c8800f6
:10579000a14c880002c02c00c37c24005040800033
:1057a0006140800020f007000801be001ef00700e5
:1057b000104d8800214d88006011b80052408800cb
:1057c0006340880002c02c00c37c2400b0408000ed
:1057d000c140800014f00700f2282c0053ef230092
:1057e00023ef070042722900f3c723000ef00700e1
:1057f000304e8800414e88006000b800b0408800fc
:10580000c140880002c02c00c37c2400d04080002e
:10581000e140800004f00700f2282c0053ef230041
:1058200013ef070042722900f3c72300feef0700c1
:10583000504e8800614e88006011b800d240880048
:10584000e34088004f06be004f05be004f04be0077
:105850000080fa000000060000148000e30f400002
:1058600003003600d0012000d8f90700f0fe070041
:1058700000148000e10f500003003e00e001200012
:10588000d2f90700eafe070080148000e30f400011
:1058900003003600f0012000ccf90700e4fe070009
:1058a00080148000e10f500003003e000002200041
:1058b000c6f90700defe070040148000e30f400039
:1058c0000300360000032000c0f90700d8fe0700df
:1058d00040148000e10f500003003e001003200040
:1058e000baf90700d2fe070050148000e30f400011
:1058f0000300360020032000b4f90700ccfe0700a7
:1059000050148000e10f500003003e0030032000df
:10591000aef90700c6fe070060148000e30f4000e8
:105920000300360040032000a8f90700c0fe07006e
:1059300060148000e10f500003003e00500320007f
:10594000a2f90700bafe070070148000e30f4000c0
:1059500003003600600320009cf90700b4fe070036
:1059600070148000e10f500003003e00700320001f
:1059700096f90700aefe070010148000e30f400008
:10598000030036003002200090f90700a8fe07004f
:1059900010148000e10f500003003e004002200080
:1059a0008af90700a2fe070020148000e30f4000e0
:1059b000040036001002200084f9070050c0b30034
:1059c00086e9b70020148000e10f500004003e007b
:1059d000200220007df9070050c0b30086e9b7001f
:1059e00030148000e30f4000020036005002200017
:1059f00076f9070030148000e10f500002003e00ed
:105a00006002200071f90700024ae20001003d0037
:105a100019f807000000060000408000f000880030
:105a200083fe070071f6070030c0b300e4f60700fc
:105a30000140fe00feff3700881f78000000eb00e9
:105a4000adf7070071562400810f500009003a009d
:105a50000004eb0014fa07000000e0000c003a001c
:105a6000e40f540001003400ebff07000804e800d5
:105a7000f8ff37000000eb009ff70700e10f400040
:105a800003003a00dcf7070077f807002ff807005b
:105a90004f04780000000600889fbe0086c9bf0042
:105aa000e24f500049003a0002cabf006740600060
:105ab000e34f500045003a00904c8000a14c80001c
:105ac000124e8000234e800036f007000004be0016
:105ad00009f0a20060478000cf80de004aee070098
:105ae0000801be000aee07000000e0002d003400af
:105af000d1e2a800de4ae20024003a00d20aec001b
:105b000090568800b00e8800f1052000810f5000eb
:105b100003003400100020002cf907002dfe0700c0
:105b200020032000d20ae300090034000200200014
:105b3000030024000800be00f3ed07000000e000b1
:105b400003003d002000200020f9070021fe07008f
:105b500090568000e40f500009003c000200200035
:105b6000031224000800be00e9ed07000000e00079
:105b7000030034003000200014f9070015fe070070
:105b8000024ae20001003d00bbf70700decabf0089
:105b9000e34f50000d003a0020c0b300deeab7002a
:105ba0000a00370030c0b30086e9b700d621ef0005
:105bb00081ff2f0012508000828060000110a00041
:105bc00011508800d1e2a900deeab70086c9bf0003
:105bd000e14f50000d003a00d621ef00cbf5070051
