:020000040000fa
:080000000001040000000000f3
:020000040000fa
:04000c00d00100001f
:020000040000fa
:04001000e00100000b
:020000040000fa
:04001400d80100000f
:020000040000fa
:04001800e8010000fb
:020000040000fa
:04002400f8010000df
:020000040000fa
:040028004807000085
:020000040000fa
:040034007007000051
:020000040000fa
:04004000f8030000c1
:020000040000fa
:04004c00f0060000ba
:020000040000fa
:040050005402000056
:020000040000fa
:04005400b0090000ef
:020000040000fa
:04005c00cc010000d3
:020000040000fa
:04006000c8010000d3
:020000040000fa
:04006800220700006b
:020000040000fa
:04007c00ca020000b4
:020000040000fa
:04008000a6020000d4
:020000040000fa
:04008800be060000b0
:020000040000fa
:04008c00fe01000071
:020000040000fa
:0400d400f001000037
:020000040000fa
:100200006fb920000eff20000e01880000000000e2
:10021000000020000000e000020032000001200089
:100220002002880014000700140507000000e00009
:1002300003003a00a0502400010020000200370013
:100240000000200001002000810f7000010032003a
:1002500014000700000020000000e000020032004f
:1002600000000200000000007c44020000000000ca
:100270000040da000000fe004440a900e0812000b8
:100280000000e0000300320000002000a001880010
:100290004440a800000006008a1f78008b1f7800e9
:1002a0000000060091018800800478000000eb0047
:1002b0001a003700e284440032a0b4009905ba0065
:1002c000e284440032a0b4009906ba00e2844400fb
:1002d00032a0b4000006eb00476fde00fd07b2005d
:1002e000636ce10003003a00ebff07000000eb0045
:1002f0000a003700606ce10004003a00005deb008a
:100300008b05e900fdff3e00040037006168e10055
:10031000010032000086eb000b00070019c7ba008d
:100320001905ba000e04e00003003a000a00e000dc
:10033000e0ff3a0000000600fe07b2009e018800c0
:100340008a047800f5ff3700395dba008b05e900b3
:100350000c003200295dba008b05e900080032006c
:100360000c00e00003003a00e284440032a0b40034
:10037000f5ff370019ddba008b05e900faff3a00f6
:100380008904e800e184440032a0b40000000600c3
:1003900085c0a9000040060085a0a9000040060015
:1003a0009e0aa8008020a9000000fe000040060070
:1003b0009e2aa8008040a9000000fe000040060020
:1003c0009e4aa8008060a9000000fe0000400600d0
:1003d0009e6aa8008080a9000000fe000040060080
:1003e0009e8aa8008960a9000000fe000040060067
:1003f0009eaaa8000000fe00004006003600f8009b
:10040000809fbe00829fbe00849fbe00869fbe006c
:1004100010002000b50d07009b6aa80019c2bf009c
:100420000018a30017003a00614380004006200036
:1004300001004000f2a92000624078000004e000c2
:10044000100032009348e2000e00320032b020006b
:10045000028140000000fb00d01088008100e8000d
:1004600019c2bf000018a30005003a0052407800ee
:100470000004e000f7ff3a00614388000100370004
:1004800061438800100020004e1407008720a90057
:100490004f03be004f02be004f01be004f00be0022
:1004a0003600f900004006003600f800809fbe00cc
:1004b000829fbe00849fbe00869fbe001000200069
:1004c0008a0d07009b6aa8000fc2bf000018a30096
:1004d00015003a0051438000f0a9200060c0780068
:1004e0000004e000100032009248e2000e003200ea
:1004f000f2a92000028140000000fb00801088006b
:100500008100e8000fc2bf000018a30005003a00f8
:10051000524078000004e000f7ff3a0051438800a1
:1005200001003700514388000000eb00251407004c
:100530008540a9004f03be004f02be004f01be0020
:100540004f00be003600f900004006003600f800fb
:10055000809fbe00829fbe00849fbe00869fbe001b
:1005600010002000610d07000000eb0030160700ae
:10057000100020002e16070086c0a9004f03be0001
:100580004f02be004f01be004f00be003600f90012
:10059000004006003600f800809fbe00829fbe002b
:1005a000849fbe00869fbe00889fbe008a9fbe00bb
:1005b0008c9fbe000800fa00100020004b0d0700c1
:1005c0004ec8bf00e44f5000090034009dcabf0070
:1005d0000048a300040032004768ef0050c0b30099
:1005e0008debb7000f0037006d0c07000d003700d2
:1005f0006009e2000b0035008d4be20008003c0072
:10060000b0c3b3008debb7004748e20002003c00e6
:100610009c2aa800030037004768ed00010037005e
:100620008d6bed00f8508000095180006011b8001a
:100630000800be00140407000000e00001003c00b8
:100640006044b800d0518000e0bf9f00e1518000bd
:10065000f1bf9f005c5080006d508000d050800042
:10066000c0bf9f00e1508000d1bf9f009acabf0069
:100670000008a30026003200fa4980000b4a8000df
:100680000200200003f82b000a00be00fe03070052
:100690000000e0001e0034000c01be006fb897009f
:1006a000ffb897001f0607000006be000801be0045
:1006b0004fb89700dfb897001a0607000001be0088
:1006c0000c00be004a0407000001be0003f0a200b7
:1006d0000a00be00ec0307000000e0000c0034003c
:1006e0008e4be20008003c004848e20003003c005a
:1006f0009a0aa9009a2aa800030037004868ed006a
:10070000b0c3b3008eebb7008e6bed000400370072
:100710006249ed0048e8b700b0c3b3008eebb70004
:10072000a046800081702000810f50000b003a002d
:10073000e184200091407800e1cf500007003400b0
:10074000fc120700e10f500002003a0010c0b30095
:100750004ee8b700d428ef0006003700e1842000ff
:1007600091407800e1cf5000020034000000e80022
:10077000a04688004ec8bf00e34f50001100320071
:100780004ec8bf00e14f50000e003400d408e20014
:100790000c003200191307000000e00009003200cd
:1007a00078190700b0468000e40f500003003400c1
:1007b00010c0b3004ee8b700020037000000e800a8
:1007c000b046880086a0a9000080fa004f06be004f
:1007d0004f05be004f04be004f03be004f02be00d7
:1007e0004f01be004f00be003600f9000040060079
:1007f0003600f800809fbe00829fbe00849fbe002e
:10080000869fbe00889fbe008a9fbe008c9fbe0050
:100810008e1f780010002000b40c07005e68ec000a
:10082000e0c2bf000018a30003003a004006200009
:10083000405c880006003700880be20004003400aa
:100840004ec8bf00e34f500001003200882bed007e
:1008500066c9bf00e14f50001f00320003003c009a
:100860000004e0000600320051003700e24f500063
:1008700024003200e34f50004d003a0037003700ab
:10088000e0c2bf000018a30011003a0051c8bf0029
:10089000f04f500009003a009acabf000008a300b8
:1008a000020032009a0aa900010037009a0aa80043
:1008b00010c1b30051e8b7003d00370051c8bf0078
:1008c000ef4f50003a003c005168ec003800370010
:1008d0005168ef0036003700e0c2bf000018a300e7
:1008e00005003a009acabf000018a30002003a00af
:1008f0009a0aa8002e0037009a0aa9009a2aa9008d
:100900002b003700d8508000e95080000200200002
:10091000030824000800be005b0307000000e0009d
:10092000050034009acabf000018a30002003a0074
:100930009a0aa8001e0037000200200003f82300d6
:100940000800be004e0307000000e00018003d0054
:100950009a0aa9009a2aa90015003700d8508000e9
:10096000e95080000200200003f823000800be00c8
:10097000430307000000e00005003d009acabf00e5
:100980000018a30002003a009a0aa80008003700e5
:1009900002002000030824000800be003a030700fc
:1009a0000000e000020034009a0aa9009a2aa90077
:1009b0009acabf000008a3000400320041c8bf006b
:1009c000e14f500001003c004168ec00785280008b
:1009d000895280006011b8000800be002a03070099
:1009e0000000e000160034009acabf000008a3000f
:1009f00013003200d0518000e15180006d0b0700e0
:100a00000001be000800be001d0307000000e0005a
:100a10000b003d005c08ab000900320040c8bf007d
:100a2000e84f5000050034009a0aa900f0022000a7
:100a3000991107009ccaa800010037004068ec002b
:100a40000004eb000aa020004b0020004241dd0022
:100a50002202b000020145001200780092009000ce
:100a60001249800023498000050307000000e000d0
:100a700006003d005c08ab00040032009a0aa900a1
:100a80000b007800841107009ccaa8000804e80045
:100a9000e40f5400edff3a003052800041528000d4
:100aa000b2508000c35080001e050700905188009e
:100ab000a151880042c8bf000005eb00e74f50007d
:100ac00026003c000a0478002ba620000ca0200081
:100ad0004242dd00048545001a00be002402b00039
:100ae00004024600140178009401900049030700b5
:100af000008dbe000804e800e40f5400f4ff3a0043
:100b0000e2408000f3408000f050800001518000fe
:100b100040030700e0408800f14088004241800027
:100b200053418000d0518000e1518000390307001b
:100b3000404188005141880062418000734180003b
:100b400050508000615080003203070060418800ef
:100b5000714188004268ec00460037002da6200055
:100b60000800200009e023002ea720004256dd00e7
:100b70008c8546001b00be000801be00e90407008a
:100b8000808dbe000c0647003b1e78002b167800b7
:100b90000a05e800e40f5500f4ff3a00e040800049
:100ba000f14080000200200003e02300dd04070084
:100bb000e0408800f1408800e0408000f140800083
:100bc000c0408800d14088004041800051418000f1
:100bd0000200200003e02300d20407004041880007
:100be00051418800404180005141800030528800ce
:100bf0004152880060418000714180000200200065
:100c000003e02300c70407006041880071418800a9
:100c10006041800071418000b0508800c150880060
:100c20006000b800105388002153880030538800ba
:100c300041538800505388006153880070538800e6
:100c400081538800e0408800f140880060418800be
:100c50007141880040418800514188004268ef009e
:100c60000619070043c8bf00e44f500001003c00d4
:100c70004368ec003052800041528000b250800046
:100c8000c3508000a7040700ca0a07000004be0082
:100c900090508000a15080000801be00780207003b
:100ca0000000e00002003d0098508800a950880034
:100cb000d8518000e95180000800be00bd0a07003d
:100cc000f226210033b023006f0207000000e0008d
:100cd0001100340012052a00138123000800be0011
:100ce000900407000004be00c04e8000d14e80007a
:100cf0000801be00c7020700c04e8800d14e880020
:100d0000e24e8000f34e80000800be00c1020700e2
:100d1000e04e8800f14e88008bcbbf0000404000c1
:100d20008bebb7008bcbbf00e84f500008003400be
:100d300010c0b3008bebb7009bcabf000008a30034
:100d4000020032009b0aa900010037009b0aa8009c
:100d500084c0a9004f0778004f06be004f05be00b3
:100d60004f04be004f03be004f02be004f01be0045
:100d70004f00be003600f900004006003600f800c3
:100d8000809fbe00829fbe00849fbe00869fbe00e3
:100d900018c2bf000008a3000200320010002000ab
:100da0008919070010002000500b0700a0c0b300f5
:100db00050e8b7004ec8bf00e34f500001003a00b2
:100dc000770a07008700a9004f03be004f02be004c
:100dd0004f01be004f00be003600f9000040060083
:100de0003600f800809fbe00829fbe00849fbe0038
:100df000869fbe000ec2bf000008a30002003200a2
:100e00000000eb007019070010002000370b0700ee
:100e1000a0c0b30050e8b7004ec8bf00e34f500079
:100e200001003a005e0a07008520a9004f03be00ba
:100e30004f02be004f01be004f00be003600f90059
:100e4000004006003600f800809fbe00829fbe0072
:100e5000849fbe00869fbe0010002000230b070069
:100e6000051607009ccaa800900320008a100700fe
:100e70004f0f07008600a9004f03be004f02be00bf
:100e80004f01be004f00be003600f90000400600d2
:100e90003600f800809fbe00829fbe00849fbe0087
:100ea000869fbe0010002000100b0700f2150700ff
:100eb0009ccaa800a0032000771007005c28a800a7
:100ec0003b0f07008400a9004f03be004f02be0085
:100ed0004f01be004f00be003600f9000040060082
:100ee0003600f800809fbe00829fbe00849fbe0037
:100ef000869fbe00889fbe008a9fbe008c9fbe005a
:100f000010002000f90a0700a1e2a8003852800072
:100f100049528000704980008149800092498000d8
:100f2000a3498000ff0307000200200003f4230010
:100f3000fc0307000001be000800be00d20107004c
:100f40000000e000020034009acaa8000100370047
:100f50009acaa800d8488000e94880001c002000f8
:100f60008005eb000da02000010037000c06e80012
:100f70000c05e9004251dd002202b000028146006a
:100f800012007800920090000801be00be01070028
:100f90000000e00013003500e10f55000b003200a7
:100fa00003003c000a00e000060032000d0037009c
:100fb000e20f550007003200e30f550009003a0028
:100fc000060037000b00a000e8ff37000b10a00060
:100fd000e6ff37000b20a000e4ff37000b30a00035
:100fe00002003700e30f5600e0ff34008b4078002a
:100ff00000862000014878000ec2bf000018a30040
:101000000a003200d0022000231007000ec2bf00e9
:101010000008a30004003200901080000ec2bf0040
:101020000008a300fcff3a000e22a90018c2bf006e
:101030000018a3000a003200e0022000161007008a
:1010400018c2bf000008a30004003200e0108000b6
:1010500018c2bf000008a300fcff3a001822a90034
:10106000cc1707003d1b0700b51c07004ec8bf008a
:10107000e24f500003003c0010002000e0468800d2
:101080009ccaa900c04e8000d14e8000c90907004b
:101090000004be00204e8800314e88009acabf006e
:1010a0000048a3004c0032004dc8bf00e34f500081
:1010b00049003a000006eb000a0020008b2c2400b7
:1010c0002da520004260dd00008046001000be001b
:1010d0000a01be006a0107000000e00003003d00b5
:1010e0004260dd00008046001005be000c06e800ee
:1010f000e40f5600f3ff3a0002002000632c2400a6
:101100000a00be00600107000000e0000c0034008f
:101110008ccbbf00e24f500009003200004e80002f
:10112000114e8000e04e8800f14e880020c0b300d0
:101130008cebb700d829ef00da29ef001300370055
:101140000200200003f823000a00be004c01070043
:101150000000e0000d003d008ccbbf00e24f5000ce
:101160000a003a00084e8800194e88006000b80056
:10117000e04e8800f14e880014c0b300c3b82000d0
:1011800084497800c04e8800d14e8800e04e80002f
:10119000f14e80006011b800390107000000e00046
:1011a00002003d00dc29ef00de29ef00084e800040
:1011b000194e8000e04e8000f14e80000801be0014
:1011c000310107000000e00002003400e84e880012
:1011d000f94e88009a8aa900004e8000114e8000c6
:1011e0006011b800260107000000e00003003a008b
:1011f000c029ef0000f82300104e88000a4e80003e
:101200001b4e8000e04e8000f14e80000a01be00bf
:101210006502070002002000832c24004103070020
:101220003050880041508800385280004952800078
:10123000f2282c0053c723000800be00120107004b
:101240000000e000320034009acabf000028a3006a
:101250002f0032000c4f80001d4f80000200200044
:10126000135624000800be004f0207000001be0014
:101270000c00be00670107000001be00004f88009f
:10128000114f88000a00be00fd0007000000e000ca
:101290001f003c00e029ef00e229ef00204f800012
:1012a000e10f4000020032000000e800204f8800fb
:1012b000204a80006500b900cf80de0030010700c1
:1012c0000004be006011b800ed0007000000e0005f
:1012d00002003a000800200009f823000801be00bf
:1012e0000000200001f823002f0207000001be00cb
:1012f0000000200001f823003d0107000001be00ae
:101300000a00be0007030700004e8800114e880047
:10131000320f0700dc0907000000e0000600320081
:101320005048e200040034009acabf000028a3001d
:1013300001003a005068ed008460a9004f06be002d
:101340004f05be004f04be004f03be004f02be005b
:101350004f01be004f00be003600f90000400600fd
:101360003600f800809fbe00829fbe00849fbe00b2
:10137000869fbe00889fbe00dc82a800100020006f
:10138000da09070044c8bf00e74f50006c003c007a
:101390009ccabf000038a300540032000014800033
:1013a00088408000994080008000eb00f700070033
:1013b0000801be00170107008040880091408800a6
:1013c00010148000a8408000b94080008000eb002d
:1013d000ee0007000801be000e010700a0408800d3
:1013e000b1408800301480002841800039418000dd
:1013f0008000eb00e50007000801be0005010700c2
:101400002041880031418800204180003141800026
:101410000041880011418800185480002954800040
:10142000401480008000eb00d80007000001be00df
:101430000800be00f70007001054880021548800ff
:101440003854800049548000501480008000eb0024
:10145000ce0007000001be000800be00ed0007003e
:1014600030548800415488005854800069548000ea
:10147000601480008000eb00c40007000001be0083
:101480000800be00e3000700505488006154880043
:101490007854800089548000701480008000eb0034
:1014a000ba0007000001be000800be00d900070016
:1014b000705488008154880080148000c8408000e7
:1014c000d94080008000eb00b00007000801be009a
:1014d000d0000700c0408800d14088005c08ab0005
:1014e00015003200b3150700130037006000b80084
:1014f0008040880091408800a0408800b14088006a
:101500000041880011418800204188003141880055
:1015100010548800215488003054880041548800b9
:1015200050548800615488007054880081548800a9
:10153000c0408800d14088004468ec002800370093
:101540009ccabf000038a30007003200e0418000c1
:10155000f14180006011b8008e0007000000e0003b
:1015600001003200821407009ccabf000038a300ab
:1015700001003200e60807004468ef005c08ab0099
:10158000070032009ccabf000038a30004003200ec
:101590009ccabf000068a30001003a00841907003c
:1015a0005c08ab0001003200a81c07004ec8bf0059
:1015b000e24f500009003c009ccabf000038a30065
:1015c00006003200880be20004003a00a1e2a90004
:1015d000dc82a9009c6aa900010037009c6aa8006f
:1015e0004ec8bf00e34f500005003c00880be200ee
:1015f000080034004ec8bf00e34f50000500320021
:101600005c08ab000300320010c0b3003f0c0700c1
:10161000120037005c08ab0005003a009a4ae2006d
:101620000300350040c0b300380c07000b00370042
:101630004ec8bf00e14f5000060032004ec8bf0048
:10164000e34f50000300320020c0b3002f0c07000e
:10165000020037000040eb002c0c07008560a90059
:101660004f04be004f03be004f02be004f01be003c
:101670004f00be003600f9000040060000000500e3
:1016800014002000af033700f4ff2f00ad03370034
:101690000001be00410007000470a70003f0a10094
:1016a0006509b100160032000d0035006828e10020
:1016b00006003500f0ff2f00f1ff27000300e000d7
:1016c00013003b000100280000000500000040005e
:1016d000818048008502e900fcff3a0008003700dd
:1016e000f88f420002003c008000eb000000050083
:1016f0008100d1000080d3008502e800fcff3a00a1
:101700000300e00002003b0060001000e0801800d1
:10171000000006000001be00200007000470a700c2
:1017200003f0a10003f8a30013003a006509b1001b
:1017300010003200090035006928e1000200350080
:1017400001002800000005000000400081804800e2
:101750008502e900fcff3a0000000600f88f420015
:10176000050035008100d1000080d3008502e8002b
:10177000fcff3a00000006008000eb0000000500be
:101780004f89de0082017800890337006011b800bc
:1017900097033700040020006a033700c70ade0001
:1017a000f107b200f50fb20008003200e1cf4200ad
:1017b000020032000170a00024000500810f7000bb
:1017c000010032000408050044000500810f70008c
:1017d00002003a00140005008502e9000000400004
:1017e00081c04800fcff3b000170a0002400050000
:1017f00007f82700078361000638e10004003a007b
:10180000f7072000878361008703710001003a0019
:1018100003f0a200889fbe008a9fbe008c9fbe007e
:10182000470ade000480a100c71ade000580a1007f
:10183000070028000785600087856100f70f2000fa
:101840000720e1009e0032000728e1009c003200e2
:10185000010678000400e000b4003200f707200021
:10186000878060000170a0000500e000c000320029
:10187000f7072000878161000370a0000506520071
:101880000f003a000b50e1000b0032000308e100aa
:1018900002003a000200e1007e0032000204500023
:1018a00083845800040031000001fd008101fd0027
:1018b0008402fd008a05fd006044b8002100370065
:1018c0000520e10005003d000001fd008101fd0053
:1018d0008402fd008a05fd00050652007a60e100e1
:1018e000050035000170a1004722dd0084807000f2
:1018f0008a807000630037006044b800ef02660021
:1019000007ff2f00070666000500e0000600340010
:10191000f08312008714dd000511de00071bdd00d7
:10192000060171008519de007060e10005003500d8
:101930000904780082047800030178008001eb003c
:10194000700656000b50e10003003a000200400010
:10195000838048000400370060041400e0841c0009
:1019600002005800838058000188a300060032005e
:101970008100d1000080d3008984d3000884d30083
:101980000402e800270037000178a30025003a0090
:101990000100e000030032008186cf006986560016
:1019a0000a0037008c0020000000e00004003a002c
:1019b00009007800880478000004eb0070025200ef
:1019c0008086cf000d0646000c06e9007060e1003d
:1019d000060035008000780009007800880478004f
:1019e0000004eb0070065600700252000c00e0008c
:1019f0000c0034008c08dd00f00316000703de0045
:101a0000868070000c00dd00074bde0006007000d1
:101a10008c4cdd000743de00868474000c44dd003e
:101a20000c0252006120e1002000350061016000dd
:101a30000700280087816400f7ff27008783640080
:101a4000070374000300e000060032008203730005
:101a5000040032000000e800e08048000188a30094
:101a60000e003a00f70f20000720e1004a003d0079
:101a70000170a1004722dd00810072008a807000a1
:101a80000000be004f06be004f05be004f04be0062
:101a9000000006006000b800faff37008100d100a6
:101aa0000080d3000402e800eeff37000401780054
:101ab00089017400a10107008a807000f1ff3700de
:101ac000f7010700070278000001fd008101fd0019
:101ad000f301070087027800850372000778a300ee
:101ae000040032000001fd008101fd000602070034
:101af000e4ff3700850362000768a3000800320096
:101b00000b50e10003003200f0ff2f00f1ff27002f
:101b1000dcff37000001fd008101fd00d9ff370027
:101b20000468a300d7ff3200faff3700f8ff270050
:101b3000888360000b003a000000e00009003a00d2
:101b40008303640082837300020032000200be003f
:101b5000ccff37000b50e100ceff3a000200be0080
:101b6000c8ff370014002000810064003eff3700ea
:101b7000f8ff27008883610004003a000200e000bb
:101b800002003a008c007800beff370015002000ec
:101b90008301640039ff370001f8270000002000ae
:101ba00081007500b7ff3700889fbe008a9fbe0086
:101bb0008c9fbe001b0020000202be00058668004c
:101bc00006002800060666004709de00f20fb20094
:101bd000820032000243e80080003200c729de00a4
:101be000f30fb2007d0032000343e8007b003200b7
:101bf000f107b2000170a000f507b2000570a00067
:101c0000c708dd004903de00868070004700dd0064
:101c1000c72add004923de00868272004722dd00ec
:101c20000305510004035000858358000300310070
:101c300000004000818048000a05e9008c1f780000
:101c40008a9fbe00040050008580580004024200b4
:101c500085824a0000004000818048000005eb00ba
:101c60000004be006033b8000406be000d48e10069
:101c700056003100110009004dccd8000c01b8000d
:101c80000d02b8008481410060824a0082835300c3
:101c900003045c0084845c0060055d000a00e000d1
:101ca00025003a00800578000d40e1004900310030
:101cb0008800780007007800110009004d88d800de
:101cc0000c01b8000d02b8008481410060824a0016
:101cd0006003110083835b0004045c00e0845c000b
:101ce0000900e00021003a004f01be000300e000bf
:101cf0002b003200e3016000070673008c81710045
:101d000001003200640070004200de004e5edd0023
:101d10000c007000c258de0001e0a0008301070043
:101d2000cf017800818071004f06be004f05be00d4
:101d30004f04be00000006008c8343000d044c00dd
:101d4000e0844c0060054d000000e9000a00e0005e
:101d5000d4ff32008c8343000d044c00e0844c001f
:101d600060054d000000e900ceff37000c03430082
:101d70008d834b0060044c00e0844c000000e900bf
:101d80000900e000d8ff32000c0343008d834b00b4
:101d900060044c00e0844c000000e900d2ff3700f2
:101da0004200de004e5edd000c007000c258de0016
:101db00001e0a000cf0178000300e000daff32006c
:101dc00060001000e0801800d7ff3700f0ff2f0000
:101dd000aaff3700f0ff2f00b9ff37000404be0050
:101de0002f010700870678000004fd008104fd0034
:101df0002b010700078366000678a300030032006a
:101e00000960a7000800be002c0037000d78a30071
:101e1000020032000800be00280037000778a30047
:101e200026003a0001f0a10009f0a1000668a30015
:101e300003003200f1ff2700f0ff2f00baff370048
:101e40000d68a300030032000800be008c80700003
:101e5000b5ff37000768a30007003a000648a30053
:101e600003003200f1ff2700f0ff2f00aeff370024
:101e70000d48a300030032006000b8008c807000a1
:101e8000a9ff37000748a3000400320001f827002b
:101e9000000020008c807000a3ff3700760107004f
:101ea0000004fd008104fd000205780072010700b6
:101eb0000802be008a01780059ff37000160a000c7
:101ec00012022000a25c880097ff37000100e000aa
:101ed000120032000500e00010003200889fbe00b2
:101ee0008a9fbe008c9fbe000006eb0001f8a30095
:101ef0000300320060001000e08018000cf0a00029
:101f000005f8a3000300320060021200e0821a000c
:101f10000cf0a2008005eb0041ff37006000b80024
:101f20000200050003836800070028000703630020
:101f3000470ade000480a100c71ade000580a10068
:101f4000f70f20000720e100420032000728e100df
:101f500040003200889fbe008a9fbe008c1f780020
:101f6000f107b200f307b2000400e00064003200a1
:101f70000170a0000500e000680032000370a000be
:101f800085054200eb07b1000204b8000302b80067
:101f90008484440060854a00020ab80084844400b6
:101fa0000a854a00030ab80004054500040033000e
:101fb0000804d0008984d2000a85d2008b05e9008c
:101fc0006158e1003d003500021020000901610068
:101fd0000308200089816100f707200087836400df
:101fe00008867300c84cde00c853dd008784740087
:101ff0004855de000300e000060032008203760050
:10200000040032008904e80060054d000a88a3003e
:102010000c003a00f70f20000758e10044003d0093
:102020000a70a100c75ddd000a8575008a00730093
:10203000090078004f0678004f05be004f04be002f
:10204000000006000a05d1008984d3008b05e80052
:10205000f0ff3700881f7800060478009000070022
:10206000070278000001fd008101fd008c000700df
:1020700087027800850372000778a300050032000c
:102080000001fd008101fd009f0007004f04780062
:1020900000000600850372000748a3000300320019
:1020a000f0ff2f00f1ff2700f8ff370000002000ad
:1020b00001f8270088807000f4ff3700880178005d
:1020c0004848dd00808171004848de00c850dd00ce
:1020d00001007000c850de00060478000b01780093
:1020e0001600070088807000d2ff37000500e0006e
:1020f00005003200170020003a0007009dff37005e
:1021000081037000f9ff3a00860078004f067800de
:102110004f05be004f04be000000050083037100a0
:10212000f9ff3200270020002e00070094ff37003f
:1021300001f8270086807000f4ff37000100e000fe
:1021400026003200610111007810e10023003c00fc
:102150006022b8007010e1000400350080027800b1
:10216000010078008000eb00700151000200e000e7
:102170000900340070031100062add00822ade0007
:102180008603dd00878272000200de00860bdd0020
:10219000070070008208de0084817100f4ff2700d0
:1021a000048262008481710004002800848262003d
:1021b0006102600005f0a6000000060004827100c4
:1021c000070032000000e800e08048000000060040
:1021d0000002be006000b800efff37006000b800ea
:1021e00000000600889fbe000004eb006138e1009b
:1021f00016003a000100e00008003a00c800de00c6
:102200004800dd00880020000100e00003003a00e3
:10221000c800de004800dd00680444008184cf006f
:10222000e9845400060034008908dd00f0831400be
:102230008703de00878070000900dd000904440088
:10224000610214004f04be00000006000300e0001d
:1022500008003a00c811de004811dd0088002000a7
:102260000300e00003003a00c811de004811dd0061
:10227000680444008384cf00e984540006003400dd
:102280008919dd00f08314008713de008781710057
:102290000911dd0009044400e1021400e9ff3700e0
:1022a0002700200001f0a70017002000470bde00e8
:1022b000f60fb200040032000643e8000a003200c4
:1022c0004702b3000000060001037800f607b200e1
:1022d0000603700002003a000703b3000000060086
:1022e0008702b3000000060001037800f607b20081
:1022f00006037000020032000770a0000000060014
:102300000760a000000006000478a300040032006b
:102310000578a300030032000168a30001003a0021
:102320000200be000160a0000000060081017000f4
:10233000270032008002eb0001f8a3000300320006
:1023400060001000e080180015002000f407200055
:102350000202420020003400f703200087036000df
:102360000604200000036300020820000001610051
:102370004700de00c909dd0000807100c708de00eb
:102380000600e000080032008703710006003200fa
:102390001000b0000180b0000188a30002003200ec
:1023a000c108de000402e800f107b200f30f2000cc
:1023b0000320e10003003d004722dd0081007200a0
:1023c0002900370001f827000000eb002600370045
:1023d0006000b80000000600680212007f20e100e3
:1023e000020034006000b8001f0037006011b80020
:1023f0007020e100040035008001780001007800c1
:102400008000eb00700252000400e000090034007c
:10241000f00312000719dd008419de000703dd0058
:10242000868171000400de00070bdd0006007000ed
:102430008408de00f7ff27008383630087037100b1
:102440000600280003036300070032000700e000d5
:1024500003003a0061016000028173000200320053
:102460001000b0000180b0000500a60000000600ca
:1024700001f0a000000006004f0ade004709de0060
:10248000f107b200f20fb2000b003200f207b10008
:102490000170a000c708dd00c901de008380700064
:1024a0004700dd000400a6000000060060001000e8
:1024b000e080180000000600810f700001003a0063
:1024c000000006008182cf000500e00010003e0001
:1024d0008082cf00ee8242007028e10004003900c3
:1024e00007003e00800078000000eb000e0037007f
:1024f000708312008600de000500dd000a00370050
:10250000708352008600dd000000eb0006003700fb
:10251000e28252008508dd00708312000603de00af
:10252000868070000500dd007507b0000501ea0037
:102530000400a6000000060060001000e080180003
:1025400000000600889fbe008a9fbe00841f78009e
:102550007c0007004f00780011003300f0ff2f00cf
:10256000838f6c0006003b00040565000a00a7008d
:102570000800370009f0a60010002000080037000e
:10258000820f5400838f5c0003003900100020008c
:1025900001003e000000200009f0a7000000ea0052
:1025a0004f05be004f04be000000e0000000060022
:1025b000881f7800030478000300e00007003d0056
:1025c00060001000e080180060011900e08119002f
:1025d00002003b0001f02d0003003700040007005b
:1025e00008f0a70001f0a0004f04780000000600ea
:1025f000889fbe008a9fbe000082700004027100a6
:1026000004827100260032000004be000200be00f9
:102610006011b8006b092000950220000182cf00f4
:102620000a0039000541b1000082cf0007003900df
:102630000541b1000982cf00040039000541b10015
:102640000882cf00010039000541b1000542520067
:10265000120032000a003b008281710061016400b7
:102660008100d1000080d3008984d3000884d30086
:102670008b05e8000442e800f7ff3a000700370046
:102680000804440089844c00000048008180480010
:102690008b05e9000442e900f9ff3a000300070056
:1026a0004f05be004f04be00000006008100200060
:1026b000618055000b003d000b00200061fe2f00e3
:1026c0000100e1001d00340082817100610164009d
:1026d0008904d1000884d3000000e800faff3a0022
:1026e00071002000610064000300700002006000bf
:1026f0000900320061044400e0844c000988a50010
:10270000050032008b05e8006808e10002003a008d
:102710008904d1000884d300f20f20000258e100a0
:1027200005003d00c75ddd00f907b2008980750036
:1027300008007800000006000bf827008b007800e6
:10274000000005000004be0014fc07000003be00ea
:102750000405be000200be0010fc0700844f750097
:04276000000006006f
:020000040000fa
:10276400556e0000616200006c6500003a200000b4
:102774005365000074740000696e00006773000004
:10278400204c00006f6300006b650000642e0000a5
:102794000a0d0000000a00000d00000020000000e7
:1027a40020200000005300007973000074650000cd
:1027b4006d2000005365000074740000696e000011
:1027c400677300003a3a00000a0d0000003100006f
:1027d4003a2000007c520000317c000020200000e0
:1027e40020200000202000007c520000327c0000e9
:1027f4002020000020200000207c00005331000035
:10280400437c000020200000202000007c530000b6
:10281400324300007c200000202000002020000023
:102824007c530000334300007c2000002020000083
:10283400207c000053340000437c00000a0d00009b
:10284400003200003a2000007c500000437c00006d
:102854002020000020200000202000007c4d0000eb
:10286400425600007c20000020200000207c000054
:1028740042520000567c000020200000202000006e
:102884007c440000567c0000202000002020000032
:10289400202000007c4c0000565300007c200000e7
:1028a40020200000207c000044430000527c0000f3
:1028b4000a0d0000003300003a2000007c4c0000a8
:1028c400437c000020200000202000002020000085
:1028d4007c430000435200007c20000020200000c4
:1028e400207c000041480000527c000020200000b1
:1028f400202000007c4f0000435300007c20000097
:1029040020200000207c0000414d0000437c00009a
:102914000a0d0000003400003a2000007c4300004f
:1029240054380000307c00002020000020200000eb
:10293400202000007c4300006d5400007c20000037
:1029440020200000207c0000435200004c7c00004a
:1029540020200000202000007c4300004d5800008f
:10296400547c000020200000202000007c43000054
:10297400524800007c20000020200000207c000041
:1029840043540000547c00000a0d00000035000090
:102994003a2000007c4400006d5400007c200000bc
:1029a40020200000207c0000445200004c7c0000e9
:1029b40020200000202000007c4400004d5800002e
:1029c400547c000020200000202000007c440000f3
:1029d400524800007c20000020200000207c0000e1
:1029e40044540000547c00000a0d0000003600002e
:1029f4003a2000007c420000535400007c20000078
:102a040020200000207c000043530000547c000080
:102a140020200000202000007c4d000048540000cd
:102a24007c20000020200000207c0000504f00008b
:102a3400417c00000a0d0000000a00000d2a00007d
:102a44002a2a00002a2a00002a2a00002a2a000032
:102a54002a2a00000a0d00000044000069730000e7
:102a6400706c0000617900003a3a00000a0d000021
:102a7400003100003a2000007c420000257c000068
:102a84002020000020200000202000007c500000b6
:102a9400567c00002020000020200000207c000044
:102aa400545600007c20000020200000207c000000
:102ab400505700007c20000020200000202000004f
:102ac4007c410000567c00000a0d0000003200002a
:102ad4003a2000007c430000567c000020200000c7
:102ae40020200000202000007c430000417c0000e6
:102af4000a0d0000003300003a2000007c5300005f
:102b0400317c000020200000202000007c530000c5
:102b1400327c00002020000020200000207c0000e7
:102b2400533300007c20000020200000207c0000a3
:102b3400533400007c0a00000d000000343a000009
:102b4400207c0000577c0000202000002020000092
:102b5400202000007c430000577c0000202000005f
:102b640020200000207c0000417c00002020000088
:102b7400202000007c430000427c00000a0d00007d
:102b8400003500003a2000007c4300004d7c00002a
:102b94002020000020200000202000007c410000b4
:102ba400417c00002020000020200000207c000048
:102bb4004f430000567c000020200000202000002d
:102bc4007c4d0000437c00000a0d0000000a000058
:102bd4000d200000416800002052000061740000d4
:102be400696e0000673a0000200000000a0d000032
:102bf40020430000617000006163000069740000fc
:102c0400793a0000200000000a0d00002052000064
:102c1400656d0000616900006e6900006e67000068
:102c24003a200000000a00000d2000004368000064
:102c340061720000676500002043000079630000b2
:102c44006c650000733a0000200000000a0d0000cb
:102c54005265000061640000696e00006720000096
:102c640046610000756c0000747300002e0a0000b9
:102c74000d00000046610000756c00007420000027
:102c84004c6f000067200000467500006c6c00006b
:102c94002e0a00000d0000004e6f000020660000a8
:102ca400617500006c740000206300006f64000014
:102cb400657300002e0a00000d000000436f000041
:102cc400646500003a200000002000002d3e000052
:102cd40020000000466c000061670000733a0000a9
:102ce4003a7c00005365000074730000204c00001f
:102cf4004b7c00007c4200006174000074200000e2
:102d04004f5600007c7c0000426100007474000097
:102d140020480000567c0000007c00004261000056
:102d24007474000020550000567c00007c420000b2
:102d340061740000742000004f5400007c7c00008b
:102d440053790000732000004f5400007c0a0000f7
:102d54000d000000202000002020000020200000a2
:102d640020200000005300004554000020200000f3
:102d74002020000020200000004300006c650000bb
:102d840061720000202000002020000000430000a9
:102d940068650000636b0000696e0000673a00001c
:102da40020000000533100003a20000000530000ce
:102db400323a000020000000533300003a200000a3
:102dc40000530000343a0000200000004348000093
:102dd4003a200000007600006f6c0000746100006f
:102de40067650000206900006e70000075740000c3
:102df4002873000029200000636100006c2e00008d
:102e04000a0d0000004e00006f74000068690000a5
:102e14006e67000020630000616c00002120000048
:102e2400566f00006c7400006167000065200000ac
:102e34006f750000742000006f66000020720000af
:102e4400616e0000676500002e0a00000d0000009e
:102e54004000000021000000202d00003e4300003f
:102e640072450000213c00002d0000000a0d000006
:102e740050520000473a00000a0d0000537400004d
:102e84006f720000656400003a0000000a0d000043
:102e9400436100006c6300003a2000002000000041
:102ea4004d6500006d20000042750000737900003c
:102eb400000a00000d4e0000564d00003a0a0000c2
:102ec4000d530000746f000072650000643a000046
:102ed400000a00000d530000657400007320000018
:102ee400616e0000642000005661000072730000ef
:102ef4002053000061760000656400002e0a000083
:102f04000d000000502000004f6e00000a0d00006c
:102f140000500000204f0000666600000a0d00000b
:102f2400000a00000d48000055440000204f000036
:102f34006e0a00000d0000000a0d00004855000054
:102f4400442000004f660000660a00000d000000e7
:102f5400546900006d650000206c00006566000087
:102f6400743a000020000000206d0000696e00002b
:102f74007574000065730000206100006e64000039
:102f84002000000020730000656300006f6e0000e5
:102f9400647300002e0a00000d0000000a0d0000fa
:102fa40046610000756c000074730000204300004b
:102fb4006c65000061720000656400002e0a000068
:102fc4000d0000000a0d0000563100002e300000f4
:102fd4005f320000532d0000345300000a0d00003e
:102fe400005300006574000073200000556e00005b
:102ff4004c4b0000442e00000a0d00000057000056
:1030040061690000742e00002e2e000000530000a1
:1030140065740000732000004c4b0000442e000037
:103024000a0d0000000a00000d5000006f77000038
:1030340065720000204f000075740000204f0000ee
:103044006e2e0000000a00000d43000068610000bd
:103054007267000065200000476f00002e0000002a
:103064000a0d0000524c0000200000000a0d000070
:103074004348000020000000556e00006b6e000005
:103084006f7700006e200000436f00006d6d00003c
:10309400616e0000642e00000a0d0000004900006b
:1030a4006e690000742e0000200a00000d0000006c
:1030b40020000000250000005600000054560000c7
:1030c400005000005700000041560000004300007b
:1030d4005600000043410000003a00005331000054
:1030e400003a000053320000003a0000533300005d
:1030f400003a000053340000005700000043000071
:10310400570000004100000043420000004300005b
:103114004d00000041410000004f000043560000f4
:10312400004d0000430000000a0d000000000000f4
:103134005a9800005c9800005e98000060980000b7
:103144006398000066980000699800006c9800007d
:103154006f98000073980000779800007b98000037
:103164007f980000819800008498000086980000f1
:10317400899800008c9800008f98000093980000b4
:1031840096980000486500006174000065720000b4
:10319400207400006f6f0000207300006d61000058
:1031a4006c6c0000004e00006f2000006865000099
:1031b4006174000065720000206400006574000002
:1031c4006563000074650000640000004865000049
:1031d4006174000065720000207400006f6f0000cd
:1031e400206c00006172000067650000004c000064
:1031f4006f7700002042000061740000742000001a
:10320400560000004261000074740000204f00006a
:10321400430000004368000072670000204f000074
:10322400430000004261000074740000204f00005d
:10323400560000004261000074740000204f00003a
:1032440054000000422d0000466c0000616700003d
:10325400287300002920000053650000740000005a
:10326400536500006c660000204f0000540000000d
:103274005379000073200000536800007574000047
:10328400646f0000776e000000500000574d00008e
:10329400206500007863000065700000004f0000a6
:1032a400736300002065000078630000657000000f
:1032b4000041000064640000722000006578000092
:1032c4006365000070000000535400004b200000b0
:1032d4006578000063650000700000004d54000034
:1032e400482000006578000063650000700000005d
:1032f4005265000073370000206500007863000009
:1033040065700000006200006c6100006e6b0000dc
:1033140000420000726e00004f750000740000004f
:103324005744000054200000727300007400000031
:10333400756e00002d680000616e0000646c000072
:10334400656400002065000078630000657000007b
:10335400746900006f6e0000207200007374000036
:10336400004f0000706300006f64000065200000df
:1033740072730000740000004d4300004c520000c2
:103384002072000073740000004900006c6c00009f
:1033940065670000616c0000204900006e73000046
:1033a4007400000053790000732000005273000081
:1033b40074000000496e0000766100006c2000007b
:1033c4007072000074000000555300004220000099
:1033d40043680000204600006c74000000500000a8
:1033e40043680000672000003e20000031300000e8
:1033f400302500000056000048200000436800000b
:1034040056000000564c000020430000685600009f
:1034140000560000482000004368000043000000fc
:10342400564c000020430000684300000056000092
:1034340048200000425400006d7000000056000057
:103444004c200000425400006d7000000056000043
:103454004820000042430000005600004c200000b9
:10346400424300000056000048200000534d000075
:10347400005600004c200000534d00000050000096
:103484004f52000054310000204200005359000004
:103494002065000072720000005000004f520000ce
:1034a40054320000204200005359000020650000ff
:1034b4007272000000500000676d0000204300009d
:1034c400686b00002045000072720000004e00008e
:1034d400564d000020430000686b000020450000aa
:1034e4007272000000530000657400007320000035
:1034f400436800006b200000457200007200000069
:103504004e56000053200000436800006b2000006a
:103514004572000072000000504f00005254000039
:10352400312000004552000052000000504f0000be
:1035340052540000322000004552000052000000a6
:10354400536f000066740000204f00004300000029
:10355400564800002053000031000000564c000083
:1035640020530000310000005648000020530000a2
:1035740032000000564c00002053000032000000ce
:10358400564800002053000033000000564c000051
:103594002053000033000000564800002053000070
:1035a40034000000564c000020530000340000009a
:1035b4004368000072670000206900006e2000006c
:1035c4004f5600000045000058540000204f0000f2
:1035d400433a0000205000006c6500006173000055
:1035e400652000005265000073650000740000004f
:1035f40045580000542000004f5600003a200000b7
:1036040042610000747400002046000075730000dd
:1036140065200000547200006970000070650000ad
:103624006400000042610000747400002055000032
:103634005600000043480000206300007963000046
:103644002d6c0000696d00006974000000530000d7
:1036540079730000205300006166000065200000bb
:103664004d6f000064650000005000006f720000a0
:1036740074200000536100006e690000747900003a
:1036840020450000727200006f72000000550000b7
:103694006e6b00006e6f0000776e0000000000008b
:1036a400c4980000d5980000e8980000f99800003c
:1036b400049900000c990000149900001c99000062
:1036c40024990000329900003a99000047990000bb
:1036d400519900005b990000669900007099000000
:1036e4007a990000859900008b9900009299000056
:1036f4009a990000b3990000be990000c799000090
:10370400d4990000dc990000e6990000f1990000ca
:10371400fd990000049a00000b9a0000129a000020
:10372400199a0000219a0000299a00002f9a00009b
:10373400359a00003b9a0000419a00004f9a00001d
:103744005d9a0000699a0000759a0000829a000050
:103754008e9a0000989a0000a29a0000aa9a00008b
:10376400b09a0000b69a0000bc9a0000c29a000009
:10377400c89a0000ce9a0000d49a0000da9a000099
:10378400e59a0000fa9a0000149b00001c9b0000bc
:0c379400299b0000379b0000499b0000af
:020000040000fa
:1037a0006049ed0047e8b700b0c3b3008debb70048
:1037b00000000600889fbe000004be006011b80033
:1037c000aff707000000e00001003d0009f0a20093
:1037d0000800be004f04be0000000600889fbe0027
:1037e0000004be000001be00cef907000801be00c3
:1037f000ccf907004f04be0000000600889fbe0001
:103800008a9fbe008c1f78000005eb000800200096
:10381000892c24000a0678002ba520004250dd00e8
:10382000008045001000be000801be0094f70700ac
:103830000000e00004003d004250dd000080450033
:103840001004be000a0678000a05e800e40f5500df
:10385000f2ff3a004260dd0021a520000080400018
:103860001000be0002002000832c240086f7070011
:103870000000e000070034004260dd0021a52000c8
:103880000080400002002000832c24000288be003b
:103890000d0037004260dd0021a5200000804000bf
:1038a0001000be006011b80075f707000000e000ce
:1038b00005003d004260dd0021a5200000804000a1
:1038c0006011b8000288be004266dd0020a520001d
:1038d0000c0640001c00be00084e8000194e8000ff
:1038e00002002000832c2400aff807000001be0076
:1038f0000800be008bf90700e04e8800f14e8800fa
:103900004f0678004f05be004f04be0000000600c1
:10391000ea874700889fbe008a9fbe008c9fbe003a
:103920008e1f7800d0518000e1518000a1ff070078
:10393000d2cc2c00c3d4230051f707000000e000d4
:103940004b003d009ccabf000038a3004800320075
:1039500050508000615080005052880061528800b1
:10396000f0488000f0b79f000149800081bf9f00b0
:10397000d0488000e14880007fb197008fb9970060
:103980009bf70700d0b79f00e1b79f006011b80018
:103990003bf707000000e00004003a0000002000b0
:1039a00001f82300d0b79f00e1b79f000007eb00ac
:1039b0000a0020000bf023004271dd002202b0005b
:1039c00001a02000028140001200780092009000c7
:1039d0007fb197008fb9970085f707000004be00fc
:1039e0006011b80026f707000000e00001003d006c
:1039f0006044b8005fb19700efb197000800be00c7
:103a000069f807000a01be0079f707000004be004c
:103a100072ff07000001be007ef707000006be002f
:103a20000a01be000800be003ef907000001be000a
:103a30000c00be0077f707000a01be0075f707000b
:103a400002002000832c240036f907000001be008c
:103a5000c270dd0020a52000810040008288be00e9
:103a60000e07e800e40f5700d3ff3a009a8aa80037
:103a70004f0778004f06be004f05be004f04be0042
:103a8000af00b100000006008121200091407800c5
:103a90000000eb000148a30013003200e1202000e9
:103aa000914078000148a3000f00320091212000ce
:103ab000914078000108a3000b003200f1202000a3
:103ac000914078000108a300070032008121200006
:103ad000914078000108a30003003a000ec2bf0025
:103ae000610060000000a20000000600b1a92000f3
:103af000914078000138a30055003a005048e20098
:103b000053003a00a1a92000914078000128a300a9
:103b10004f003a000000e0004d003a00b1a920003b
:103b2000914078000128a30049003200d6ff070029
:103b30000000e0008e003200ff3ffc008007200004
:103b4000a109200032742000004978000149780062
:103b5000004978003274200000497800014978005b
:103b600001497800720020003374200080497800f9
:103b700081497800824978006004200071052000a6
:103b8000227420000049780001497800004978003b
:103b9000227420000049780001497800014978002a
:103ba00012082000237420008049780081497800a1
:103bb000824978009b4aa90041102000914078007a
:103bc000f0ccb30080c060000154a00081417800b7
:103bd0004210200003497800a283230012088800c5
:103be0000021ef00011120009140780080c06000aa
:103bf0000144a0008142780004112000054a7800a9
:103c000041072700610888000621ef00e31120002a
:103c10009341780080c161000354a0008342780082
:103c2000e4112000054a78001421ef00d208880032
:103c30000212200012417800004061000044a00000
:103c400020e1b700e10888001821ef003c003700b0
:103c5000e10f500046003a009bcabf000028a300b5
:103c600043003a009b4aa800ff3ffc0003c3b30097
:103c7000034078000461b700a20e2e0012088800ed
:103c800010c1bf00f1ccb300014060000054a0009f
:103c900010e1b700a4832300640888000340780083
:103ca0001e61b700d208880002122000124178007d
:103cb000814061000154a00081417800021220007f
:103cc00003497800e408880080072000a10920004b
:103cd00032742000004978000149780000497800da
:103ce00032742000004978000149780001497800c9
:103cf00072002000337420008049780081497800e8
:103d000082497800600420007105200022742000a0
:103d100000497800014978000049780022742000a9
:103d2000004978000149780001497800120020001c
:103d30002374200080497800814978008249780006
:103d400042c7bf000008a3000500320000000000c9
:103d50000000000042c7bf000008a300fbff3a00bc
:103d60009bcabf000018a300010032005220ef00e0
:103d700000000600d0508000e150800002002000ca
:103d80000306240040f607000000e00004003400b1
:103d90000de2a8000f42a80007e2a80003003700c8
:103da0000de2a9000f42a90007e2a90000000600e9
:103db0006f006000e90f500002003c000043b000bb
:103dc000010037007043b00000000600f287470092
:103dd000889fbe008a9fbe008c9fbe008e1f780009
:103de000c0b79f004408dd004fb1970002004000bb
:103df00072b6200062407800d0c2b2000080fb00a2
:103e00000000e9004f00de00e0b79f00cfb197004f
:103e1000e9814100d3b79f004fb09700830f500056
:103e200064003d00ef0f500064003c000007780084
:103e30000001eb00a2b79f00dccc2c00cddc2300fe
:103e40006044b8008001e80093b79f00c408dd001b
:103e5000b1b79f000a0020000b1224006fb097003a
:103e60000000e00004003200cfb09700810f57003f
:103e700001003a001fb797003fb197000e004100c4
:103e800071b62000e1407800e1ef9f000104e000fe
:103e90000f00320003c2b30083cf50000c00320089
:103ea000eacf50000a003200f0c2b30080cf5000c9
:103eb0000300340092c3b30082cf500009003400e5
:103ec000efe99700e0c2b30080cf51002d0032002f
:103ed000efb097000100e0003d00320009f0a200c1
:103ee0003b0037006fe99700e3c2b300834f5100f6
:103ef000270032002fb097000000e00013003200ce
:103f00000200fb000003b100cf80de001cf60700ba
:103f10000c01be0003f80700f0b79f0081bf9f00af
:103f2000d2cc2c00c3dc23000c00be00fdf7070040
:103f30000006be007fb197008fb997000800be0051
:103f400034f607000004be00130037000a01be006b
:103f50000800be00f3f707000004be00efe9970079
:103f60000300fb000003b100cf80de0004f6070071
:103f70000001be000800be0026f607000004be00d7
:103f80000500370010002000a0b79f000200370096
:103f900011002000a1b79f000e07e8005fb1970055
:103fa000820f570006003d00ef0f5700abff3400b3
:103fb000030037006044b800010037006044b800d7
:103fc000efb197000300e0000100320009f0a20009
:103fd0000800be004f0778004f06be004f05be0028
:103fe0004f04be002f01b10000000600889fbe00f4
:103ff0008a9fbe000005be000204be009bcabf002f
:104000000028a30005003a000200200003d8230086
:104010000800be00c3f707000004be006011b8002e
:104020000a00be0096f507000000e00002003a001a
:104030000a0020006b612400024022004397240004
:104040000800be00b7f707000a01be00d6f6070059
:104050000200200003d82300b2f70700020020006e
:1040600003f82300e2f50700aaf507004f05be009c
:104070004f04be00000006009c4aa9006000b80082
:1040800090508800a1508800f051880001528800ab
:1040900010528800215288005050880061508800da
:1040a00090528800a1528800b0528800c152880006
:1040b000d0528800e1528800f052880001538800f5
:1040c000d0518800e1518800c020ef00c220ef00ed
:1040d000c420ef00c620ef00f0ff2100601688002a
:1040e000d022ef00ce22ef0020fb2f00f016880038
:1040f000e222ef00e022ef00a0fe2f00c0168800b1
:10410000dc22ef00da22ef00c021ef00c221ef0035
:1041100040062000200e8800c621ef000007200086
:10412000400e8800ca21ef00cc21ef00d021ef0023
:1041300000a02200a00e8800d621ef00d821ef00b9
:10414000da21ef000e22ef000fe2a9000c22ef00af
:104150000d42a800a2702d00b3162400000020001c
:1041600061612400a1ff0700a01088001822ef0061
:1041700019e2a9001622ef00a2702d00b316240048
:10418000000020006161240098ff0700f010880003
:104190000622ef00500b200020108800402e200047
:1041a000001588004042200010158800009820006b
:1041b00020158800a622ef0000e02f00401588009f
:1041c000f01f20005015880070c0b3009460b70045
:1041d0009c60b7009109200091407800f0c8b300be
:1041e00080c060000146b300814178009209200040
:1041f00003497800720920001241780081cfb30092
:10420000014161005240b3008241780074092000ee
:10421000034a7800520920001241780000416100f1
:104220000264a0008241780054092000034a78000b
:10423000b209200012417800014161000224a0006f
:1042400082417800b4092000034a7800a2092000c6
:1042500012417800004161000264a00082417800b0
:10426000a4092000034a7800920920001241780036
:10427000014161003240b30082417800940920007e
:10428000034a7800020a20001241780000416100d0
:104290000243b30082417800040a2000034a7800f8
:1042a0008209200012417800004161000254a00000
:1042b0008241780084092000034a7800020a200025
:1042c00012417800014161000214a000824178008f
:1042d000040a2000034a7800f20920001241780005
:1042e000814061000114a00001417800f409200020
:1042f000024a7800e10920009140780080c0600007
:104300000144a00001427800e309200084497800bc
:10431000f10920009140780000c060000044a00036
:104320009fe0b70000000600889fbe00e0fe20006e
:1043300000018800d8478000e9478000b04780002e
:10434000c14780000801be0032f507000001be0031
:104350000800be0014f607002040880031408800a5
:1043600060662600c041880060fd2300d0418800bf
:1043700000562d00e041880080812400f041880033
:104380009c0aa90081e0a9008420ef008620ef00ac
:104390008820ef00ff3ffc008c20ef008e20ef0014
:1043a0009020ef008dc0a8008da0a8008c60a80010
:1043b0008d20a8008d40a8008f00a8008f20a800a5
:1043c0008c00a8008e00a8008ee0a9008cc0a80078
:1043d0008ea0a8008ec0a8008d60a8008200a90051
:1043e0008240a9005220ef00a1e2a800c1e1a8008c
:1043f00011e1a80005e1a8001fe1a80021e1a80043
:104400005cfe070017e2a8001942a8009caaa800b9
:104410004f04be000000060017ff0700ff3ffc002e
:104420008420ef008620ef008820ef008c20ef0032
:104430008e20ef009020ef008d20a8008d40a80076
:104440008f00a8008f20a8008ea0a8005220ef00a7
:104450009b2aa800c1e1a90011e1a90005e1a9007a
:1044600013e1a90021e1a90042fe070017e2a8001c
:104470001942a80000000600b1fe2f00c1168800f6
:10448000d2a2ef00dc42a90061416000c12d2000f2
:10449000914078000104a10082c070008141780041
:1044a000c22d2000034978000000fb008000d100ed
:1044b000e1c0600001c14000612d20009140780002
:1044c0000114a10082c0700081417800622d20009b
:1044d000034978004201de00614161004211dd00c4
:1044e000612d2000914078000124a10082c070005d
:1044f00081417800622d200003497800c300de006e
:10450000e1c06000c308dd00d6c2bf000034a100d6
:1045100001407000d6e2b700a0fe2f00c016880050
:1045200010ff2f009016880000000600b1fe2f003b
:10453000c1168800d2a2ef00dc42a8000000fb00f8
:10454000610160000204a200c12d200091407800aa
:104550000104a1008140710081417800c22d20003a
:1045600003497800e20060008100e900cf08de0026
:1045700001c14000612d2000914078000114a1008c
:1045800082c0700081417800622d200003497800cc
:10459000640160000201e9004f11de004211dd00fc
:1045a000612d2000914078000124a10082c070009c
:1045b00081417800622d200003497800e800600006
:1045c0008100e900cf08de00c308dd00d6c2bf00cd
:1045d0000034a10001407000d6e2b700a0fe2f0019
:1045e000c016880010ff2f009016880000000600fb
:1045f000889fbe000004be0002002000432b240060
:1046000021f407000000e000030034009acabf0054
:104610000028a3000900320002002000832c24009f
:104620000800be0018f407000000e0000600340097
:104630009acabf000028a30003003200f0c0b300f4
:10464000baff07002f003700020020006329240072
:104650000800be000cf407000000e0000300340076
:1046600070c0b300b1ff0700260037000200200031
:10467000832424000800be0003f407000000e000cb
:104680000300340030c0b300a8ff07001d0037004e
:1046900002002000831c24000800be00faf307007b
:1046a0000000e0000300350010c0b3009fff0700ca
:1046b0001400370002002000831c24000800be0004
:1046c000eff307000000e0000c003d009dcabf00b2
:1046d0000038a30009003a005ec8bf000028a3000c
:1046e0000300320010c0b30090ff07000500370040
:1046f0000040eb008dff0700020037000040eb0098
:104700008aff07004f04be00000006000004e0001e
:1047100055003400e34f500003003a0060c0b3007e
:1047200082ff070052003700e44f500009003a00b2
:104730009bcabf000008a300030032008bcbbf0060
:104740004dff07004a0037008bcbbf0077ff070003
:1047500047003700f185200091407800e9cf5000f4
:104760003a003400e14f500038003a005f68ef0033
:104770009dcabf000028a300090032005ec8bf0028
:104780000048a3000300320020c0b30067ff070009
:10479000370037000040eb0064ff070034003700ab
:1047a0009acabf000028a300240032005ec8bf00e0
:1047b0000008a3000d0032008acbbf00e74f500075
:1047c000030032009acabf000068a300070032004d
:1047d000305080004150800002002000831c2400e3
:1047e0000cf4070082ff0700210037005ec8bf00fd
:1047f0000018a3000d0032008acbbf00e74f500025
:104800000a0032009acabf000068a30007003a00fd
:10481000305080004150800002002000831c2400a2
:10482000fcf3070072ff07001100370030508000d2
:10483000415080006eff07000d00370030508000af
:10484000415080006aff0700090037005fc8bf00c1
:10485000e94f500001003c005f68ec0060c8bf00f9
:1048600005ff0700020037000040eb0002ff0700d1
:104870000000060011002000f21f2000820f5000ef
:104880001b003c00ff3ffc00811f7800000040003f
:1048900001c02f0001004000f1072000213b8800eb
:1048a000103b880041042400013b88005105200092
:1048b000313b8800a10a2000313b880061e7a80055
:1048c0000000000000000000cf0078008000eb0036
:1048d000040037009bcabf000018a300010032008b
:1048e000910288006147e200faff35008000eb008a
:1048f0000100780000000600889fbe000004be0092
:1049000008007800dbff070010002000f11f2000e6
:10491000810f540021003c00ff3ffc00801f780005
:10492000811f7800821f78000804440000c02f0017
:1049300000044400f0c7b30032e0b700290088004b
:10494000080088000208bb0041002400013b8800e9
:1049500051052000313b8800a10a2000313b88002e
:1049600061e7a80000000000000000004f0178008f
:10497000cf0078004f0078008000eb000400370083
:104980009bcabf000018a3000100320091028800fa
:104990006147e200faff35000000eb004f04be0063
:1049a00000000600c6e8b70041468800ff3ffc0053
:1049b000841f7800801f7800618c2000914078006f
:1049c0002003200001487800414680000100880053
:1049d0001082ba00000000000000000040008000cb
:1049e00000468800618c2000914078002003200060
:1049f0000148780041468000010088001002ba009a
:104a000000000000000000004000800020468800f8
:104a10004f0078004f0278009bcabf000018a30027
:104a2000010032005220ef00204680000000060006
:104a3000800078000000eb00f21f2000828f500001
:104a400005003c0000e0270080804000818040009d
:104a5000f0c7b300d3ff070000000600889fbe0028
:104a60008a9fbe00ca28ef000004eb00fa0f200066
:104a7000ebff2700880078000040eb00c9ff07002b
:104a800080047800880078000040eb00c5ff070034
:104a9000800078008a8464005046800000804400d2
:104aa000c808de00c008b4008100400051468800fc
:104ab0000884e8008b0f5400eeff3a00890f2000b5
:104ac000fb0f2000130037008800780009407800b1
:104ad000b4ff0700000578008800780009407800de
:104ae000b0ff07000b056500514680000105450039
:104af0004800de00000545005a4688000884e800aa
:104b0000e20f4400f0ff3a008904e8008b8f540064
:104b1000020032000004eb00ebff37009a19b000ee
:104b20005a4688004f05be004f04be000000060034
:104b3000caff070050468000204b88000000060096
:104b4000889fbe008a1f7800cc28ef000004eb008d
:104b5000fa0f200008007800b5ff070080047800f5
:104b600008007800b2ff07008a8464006146800074
:104b7000818444004800de00808444006946880047
:104b80000804e800e01f2000800f5400f1ff3a0005
:104b90004f0578004f04be0000000600e8ff070044
:104ba00061468000f01f200053ff07000000060050
:104bb000881f78004a48e2000d0034000004eb0032
:104bc00049c8bf0088004400a29b2000e280780012
:104bd0000000fb000000440047ff07000804e80055
:104be0004ac8bf000000fb00880f5000f4ff3c00e3
:104bf00049c8bf000000fb00416527003eff0700d9
:104c0000e142800049c8bf00a28420001241780020
:104c10000201fb000000fb000000410036ff07001e
:104c2000deff07009aaaa9004f04780000000600e2
:104c30000040eb00b5fe070090528000a1528000ba
:104c4000404e8800514e8800b0528000c152800012
:104c5000604e8800714e8800d0528000e152800082
:104c6000804e8800914e8800f052800001538000f1
:104c7000a04e8800b14e8800cdff0700e202a900d7
:104c800000000600881f78004948e2000b0034004d
:104c90000004eb0008004400018f2000e1007800d0
:104ca0000800780014ff07000804e80049c8bf00a6
:104cb0000000fb00880f5000f6ff3c0071562400f6
:104cc0000000eb000cff0700b4ff07004f04780062
:104cd00000000600889fbe008a1f7800ce28ef00e3
:104ce0004948e200120034000004eb00fa0f2000f3
:104cf000080078004eff0700800478000800780064
:104d00004bff07008a846400714680008184440060
:104d10004800de0080844400794688000804e800ea
:104d200049c8bf000000fb00880f5000f0ff3c00a6
:104d30004f0578004f04be0000000600d028ef00a9
:104d40004948e200110034008000eb0001007800c7
:104d5000f40f200000014000038f20006301790060
:104d600084016100818041004811de0082804000a2
:104d70000000e80092842000124178000201fb004c
:104d8000800f5100f3ff3c008146880000000600c0
:104d9000eaff070080468000904688000000060079
:104da000889fbe00f628ef0000122400c04788004c
:104db0000000200001f82300d0478800e147880068
:104dc000626626009248880062f62300a2488800a6
:104dd000335c2f00b348880083082400c348880050
:104de00064662600d448880064082400e4488800eb
:104df0001e29ef000704240007498800a89929000c
:104e00001849880098012400284988002629ef00c5
:104e100009002400494988005049880061498800f8
:104e20000000200001f023007049880081498800bb
:104e3000626626009249880062022400a249880026
:104e40003629ef0003102400c34988003a29ef00f7
:104e500084102400e4498800f0498800014a880051
:104e6000007d2000204a8800a0002000304a8800f1
:104e7000f1002000414a880082022000524a880046
:104e800032022000624a880092012000724a8800a3
:104e90005029ef00904a880072032000a24a88003f
:104ea00022032000b24a8800c14a8800c1032000c2
:104eb000d14a880001052000e14a88003100200025
:104ec000f14a880011002000014b8800114b880036
:104ed0006669ef006769ef006869ef0068c4b300b6
:104ee000f79f2000884b780053c0b300e99f200053
:104ef000834c78000001eb0092548800a254880093
:104f0000b2548800c254880014982000014a7800e6
:104f100087c0b30028982000074c780096c0b300e3
:104f2000329820000649780084e9b700b5c0b30084
:104f300054982000054a7800c4c0b3006998200046
:104f4000844c780043c1b30078982000034c78006b
:104f50008869ef00b169ef0042c0b300289b2000d0
:104f6000024c7800b369ef00b469ef008144780027
:104f700098992000094c780007447800a1992000f6
:104f80008848780086407800b9992000814c7800e4
:104f90009ce9b70005447800d7992000884b780039
:104fa000044078009ee9b70003427800f1992000a0
:104fb00084487800a069ef00b569ef0002447800ea
:104fc000679b2000884b7800b769ef00b869ef0055
:104fd0006fff07004f04be00000006004d48e200ce
:104fe00008003a005c08ab000600320030c0b30095
:104ff0004ee8b70010c0b30045e8b7004de8b70071
:105000001d00370045c8bf00e34f500005003a00bf
:105010004dc8bf00e14f500002003c004d68ec005d
:10502000150037004dc8bf00e24f500012003a0093
:105030009acabf000048a3000f00320049c8bf0051
:105040000000fb000000e80079fe07004165270032
:10505000810f500001003200e8f9070030c0b300b2
:105060004de8b700fec9bf00e54f500002003a000e
:1050700020c0b3004ee8b700000006004027a9009a
:105080004087a90041e7a90041c7a90040e7a9005e
:1050900040c7a900000006009d4aa800d54f800027
:1050a000e98f520003003600fa29ef008002eb007e
:1050b000120037000500e000100032000502780001
:1050c0008000eb000043eb0017c0b3007681400086
:1050d00002014100a39b200063017900820f500070
:1050e00001003a00074378008100e800848f5000f7
:1050f000f6ff3a000604e00009003a00e10720004c
:10510000810f500006003e00f68042008180400082
:10511000a29b200000b178008502e800d54f8800ee
:10512000000006009ecabf000008a30003003a006a
:1051300080c0bf000018a30002003200d000200091
:10514000d5ff07009ecabf000018a30003003a0065
:1051500080c0bf000028a30002003200f000200041
:10516000cdff07009ecabf000028a30003003a003d
:1051700080c0bf000038a30002003200e000200021
:10518000c5ff07009ecabf000038a30003003a0015
:1051900080c0bf000048a3000200320000012000d0
:1051a000bdff07009ecabf000048a30003003a00ed
:1051b00089c0bf000038a30002003200c0002000f8
:1051c000b5ff07009ecabf000058a30002003200ce
:1051d00010012000b0ff0700920be2000200320035
:1051e00010c0b3004ee8b700922bef0000f02f0084
:1051f0008020b6008960a9000000060040c7bf00fb
:105200000048a3000200320040012000a2ff070076
:105210004147e20002003d00500120009eff0700d0
:1052200041c7bf000068a3000200320060012000f7
:1052300099ff070091ff07000000060050a52a0013
:10524000900be30001003a00ecff070050a52a0094
:10525000805c8800922bef0088ff070000000600aa
:1052600037fe0700f01f2000f1fd070080007800e6
:105270000000eb0062468000810f51000400320004
:10528000a002200084ff07009ccaa8001000200094
:1052900000000600889fbe00f1ff07008000780034
:1052a0000000eb000100e00018003a004a48e2006c
:1052b0000d00340000047800a99b200049c8bf00fd
:1052c0000000fb0000004400d9fd070088004400f6
:1052d00080b478000804e8004ac8bf000000fb0062
:1052e000880f5000f5ff3c004ac8bf0091842000a1
:1052f000914078008100fb000000fb00008040002e
:10530000cbfd0700e0428800100020004f04be00e3
:105310000000060049c8bf000000fb00c4fd0700f4
:1053200041652700810f500001003a00d9ff0700b6
:1053300000000600c9fd07000000eb005146800098
:10534000224b8000810f51000400320090022000a7
:1053500051ff07009ccaa8001000200000000600b2
:1053600076fe07005bfe07000000eb007146800040
:1053700082468000810f510004003200c0022000ec
:1053800045ff07009ccaa80010002000000006008e
:10539000889fbe00b2ff0700800078000000eb008d
:1053a0000100e00013003a004948e2000b0034001d
:1053b00000047800098f2000080078009cfd070099
:1053c0008800440080b478000804e80049c8bf00a1
:1053d0000000fb00880f5000f7ff3c006cfe070048
:1053e000dfff070000f0a7000000ea000000e9006e
:1053f0004f00de004f04be00000006004ffe070015
:105400000000eb009146800082468000810f510031
:1054100003003200b00220001fff07001000200030
:1054200000000600e10f500003003600e0032000fa
:1054300019ff07001000200000000600f9ff070018
:105440008000400082892000e2807800ef8f5000c9
:1054500004003600000040008189200000804000e8
:105460000008eb0000000600eeff07002189200085
:10547000e14078000104e000050032000140fe0038
:1054800021892000e14078000104e000fbff3a00a0
:1054900000000600e3ff070080004000a286200015
:1054a000e28078000100e00005003d0000004000bf
:1054b000a1862000008040000008eb0007003700b4
:1054c00032062000828f50000400340000004000ab
:1054d000a1862000008040000008eb0000000600cc
:1054e000881f7800cfff07000004780008007800cc
:1054f000e8ff070088004400a08620006080780054
:105500004206200002c1b90002014000c341dd0093
:10551000248720008100420091814100e48720001f
:10552000f1a9200064c2790084707900210620006e
:10553000810f500004003c0008044400a1862000b4
:1055400008844000000ce8004f04780000000600ca
:10555000881f7800b3ff0700000478000800780077
:10556000ccff07002089200060407c000004e000a0
:1055700012003a0011c0b3002089200001707c00a5
:1055800008004400a1862000008040004206200060
:1055900002c1b90090004100f2a920008100410041
:1055a0008048eb000008eb000800e0000200320039
:1055b0008720a800010037008540a8004f0478002c
:1055c0000000060097ff0700420620000281b90094
:1055d00080004000a486200081004200910041002c
:1055e000f2a92000e2c078000104e00007003a00c0
:1055f00080004000a2862000010141008000eb00f5
:105600000109780022892000017178006a08e2000f
:1056100003003a006c08e20001003a009b6aa9000e
:1056200000000600881f78007eff07000004780055
:10563000e10f540006003400a001200096fe070090
:10564000080444002087200008044000000ceb0000
:105650004f047800000006000e00fa00889fbe008c
:105660008a9fbe008c9fbe000005be00020078002d
:105670006cff0700000f7800800078000180400078
:1056800021872000808040000000eb008008780027
:105690001e017800c210dd0022862000810041003a
:1056a0006011b8008288be00018920001e027800c7
:1056b00080707a004320dd0004c2b300e18720003f
:1056c000847078000a00be00edef07000000e000e3
:1056d00006003d000bf0a2009e0078004308dd00ac
:1056e000d2c2b300e187200082707800f2ff23006d
:1056f000c36124000a00be00e3ef07000000e000e1
:10570000080034001e0178004310dd00f2c3b3002e
:10571000e187200082707800faff2300cb6124002b
:1057200012003700f226210033a823000a00be0031
:10573000d3ef07000000e0000c003d006011b8004e
:105740000a00be0013f007000000e000070032006e
:105750001e0278004320dd00c2c3b300e1872000b1
:1057600082707800fa2621003ba823009e00780072
:105770004208dd00288620000004440002002000ca
:10578000a34724000a00be0007f10700008cbe00fa
:105790001e017800020041002187200000804000a7
:1057a0001002e8004407980004087800e80f52004f
:1057b00038003c004210dd002186200000804000bf
:1057c0001004be00c310dd0051079800308820008f
:1057d00000804000300798000c0020000d122400cb
:1057e000640798001a0798002b07980004057800b2
:1057f000010037006a079800e50f550005003a00e0
:10580000e4c2b3003e01900004497800600020002b
:10581000600798000800be009def070080457800f3
:10582000de0090006e01900002804000e4872000be
:105830000000420001c3b30001c845000205e800b2
:105840000b00fb00cf80de00cdef07000001be00a3
:105850000800be00e6ef07000c01be00b1f1070032
:105860000004be00e80f5500e2ff34001e0178007e
:105870000b4678001e059000ae0590004210dd003a
:1058800021862000008040000888be00008920009a
:105890000c7079001e02780004004200218720006d
:1058a000008040000008eb00040078005dff070066
:1058b00011c0b300408920001e01780001707900fa
:1058c000020041002d872000808646004312dd0043
:1058d0005407980009c3b3002f0037000804e800fc
:1058e00050467800894f560002003200880e78003a
:1058f00003003700e20f5400f8ff3400880e7800f0
:10590000608920009e00780060c078000004e000fc
:105910000e00320000c2b300804f56000500320076
:10592000d0c2b300804f560003003a000100780057
:10593000ebfe07009d0ee8008040eb006089200030
:105940001e01780001707900030037001e00780006
:10595000e3fe07009d0ee8005e0290001d0042007d
:10596000e187200061407800894f50000a00320032
:10597000d1c2b300814f50000700320001c2b30012
:10598000814f5000040032008040eb00e08820008e
:105990001e017800017079001d047800e80f5400a2
:1059a00019003c005e02900008004200e1872000e0
:1059b00061467800894f5600d1ff3a00e088200008
:1059c0009e00780060c078000004e000ccff3a0040
:1059d000e20f5400caff3c0002002000a34724004d
:1059e0000a00be0026ef07000000e000c4ff3d00f3
:1059f0008800e8005e01900081004100d08720000f
:105a000000804000b5ff37001e0278000040eb0028
:105a1000e188200080707a004189200080707a003f
:105a20004f06be004f05be004f04be000080fa00c6
:105a300000000600889fbe008a1f7800800478005e
:105a40000100780077fe0700000478000800780065
:105a500090fe070008007800f2fe070011c0b300b6
:105a60004089200001707c0008004400e18620008d
:105a7000008040000008eb00194078000004e000be
:105a80002200320088004400a2862000e2807800d4
:105a90004206200002c1b90002814000f3a92000a3
:105aa0008071790020062000808f500017003c0094
:105ab0008000eb0008004400a386200080814100a4
:105ac000e586200080824200faa9200047062000d7
:105ad00007c3b900860378002606200004003700bb
:105ae0000082430002757a00860f500007003c00d8
:105af0001300e800800978008100e800810a78003e
:105b0000594178000204e000f5ff3a008040eb00c4
:105b10004089200001707c004f0578004f04be00d2
:105b200000000600889fbe008a1f7800800478006d
:105b3000010078003bfe07000004780008007800b0
:105b400054fe070008007800b6fe070011c0b3003d
:105b50004089200001707c0008004400e18620009c
:105b6000008040000008eb00194078000004e000cd
:105b70002200320088004400a2862000e2807800e3
:105b80004206200002c1b90002814000f3a92000b2
:105b90008071790020062000808f500017003c00a3
:105ba0008000eb0008004400a386200080814100b3
:105bb000e586200080824200faa9200047062000e6
