:020000040000fa
:080000000001040000000000f3
:020000040000fa
:04000800bc0900002f
:020000040000fa
:04000c00de0800000a
:020000040000fa
:0400100022090000c1
:020000040000fa
:040014004809000097
:020000040000fa
:040018007209000069
:020000040000fa
:04001c00bc0900001b
:020000040000fa
:04002000bc09000017
:020000040000fa
:040024009809000037
:020000040000fa
:04002800c80100000b
:020000040000fa
:04002c00bc0900000b
:020000040000fa
:04003000bc09000007
:020000040000fa
:04003400380300008d
:020000040000fa
:04003800bc090000ff
:020000040000fa
:04003c00bc090000fb
:020000040000fa
:04004000f6050000c1
:020000040000fa
:040044005807000059
:020000040000fa
:04004800bc090000ef
:020000040000fa
:04004c00d4070000d5
:020000040000fa
:040050001408000090
:020000040000fa
:04005400d0010000d7
:020000040000fa
:04005800bc090000df
:020000040000fa
:04005c00bc090000db
:020000040000fa
:04006000bc090000d7
:020000040000fa
:04006400bc090000d3
:020000040000fa
:04006800500700003d
:020000040000fa
:04006c00bc090000cb
:020000040000fa
:04007000bc090000c7
:020000040000fa
:04007400bc090000c3
:020000040000fa
:04007800bc090000bf
:020000040000fa
:04007c006c0700000d
:020000040000fa
:04008000b4070000c1
:020000040000fa
:04008400bc090000b3
:020000040000fa
:04008800f407000079
:020000040000fa
:04008c006208000006
:020000040000fa
:04009000bc090000a7
:020000040000fa
:04009400bc090000a3
:020000040000fa
:04009800bc0900009f
:020000040000fa
:04009c00bc0900009b
:020000040000fa
:0400a000bc09000097
:020000040000fa
:0400a400bc09000093
:020000040000fa
:0400a800bc0900008f
:020000040000fa
:0400ac00bc0900008b
:020000040000fa
:0400b000bc09000087
:020000040000fa
:0400b400bc09000083
:020000040000fa
:0400b800bc0900007f
:020000040000fa
:0400bc00bc0900007b
:020000040000fa
:0400c000bc09000077
:020000040000fa
:0400c400bc09000073
:020000040000fa
:0400c800bc0900006f
:020000040000fa
:0400cc00bc0900006b
:020000040000fa
:0400d000bc09000067
:020000040000fa
:0400d400b808000068
:020000040000fa
:0400d800bc0900005f
:020000040000fa
:04010800bc0900002e
:020000040000fa
:04010c00de08000009
:020000040000fa
:0401100022090000c0
:020000040000fa
:040114004809000096
:020000040000fa
:040118007209000068
:020000040000fa
:04011c00bc0900001a
:020000040000fa
:04012000bc09000016
:020000040000fa
:040124009809000036
:020000040000fa
:04012800c80100000a
:020000040000fa
:04012c00bc0900000a
:020000040000fa
:04013000bc09000006
:020000040000fa
:04013400380300008c
:020000040000fa
:04013800bc090000fe
:020000040000fa
:04013c00bc090000fa
:020000040000fa
:04014000f6050000c0
:020000040000fa
:040144005807000058
:020000040000fa
:04014800bc090000ee
:020000040000fa
:04014c00d4070000d4
:020000040000fa
:04015000140800008f
:020000040000fa
:04015400d0010000d6
:020000040000fa
:04015800bc090000de
:020000040000fa
:04015c00bc090000da
:020000040000fa
:04016000bc090000d6
:020000040000fa
:04016400bc090000d2
:020000040000fa
:04016800500700003c
:020000040000fa
:04016c00bc090000ca
:020000040000fa
:04017000bc090000c6
:020000040000fa
:04017400bc090000c2
:020000040000fa
:04017800bc090000be
:020000040000fa
:04017c006c0700000c
:020000040000fa
:04018000b4070000c0
:020000040000fa
:04018400bc090000b2
:020000040000fa
:04018800f407000078
:020000040000fa
:04018c006208000005
:020000040000fa
:04019000bc090000a6
:020000040000fa
:04019400bc090000a2
:020000040000fa
:04019800bc0900009e
:020000040000fa
:04019c00bc0900009a
:020000040000fa
:0401a000bc09000096
:020000040000fa
:0401a400bc09000092
:020000040000fa
:0401a800bc0900008e
:020000040000fa
:0401ac00bc0900008a
:020000040000fa
:0401b000bc09000086
:020000040000fa
:0401b400bc09000082
:020000040000fa
:0401b800bc0900007e
:020000040000fa
:0401bc00bc0900007a
:020000040000fa
:0401c000bc09000076
:020000040000fa
:0401c400bc09000072
:020000040000fa
:0401c800bc0900006e
:020000040000fa
:0401cc00bc0900006a
:020000040000fa
:0401d000bc09000066
:020000040000fa
:0401d400b808000067
:020000040000fa
:0401d800bc0900005e
:020000040000fa
:100200000fb320000ebf20000e0188000000000088
:10021000000020000000e000020032000001200089
:100220002002880014000700550407000000e000c9
:1002300003003a0060c823000100200002003700dc
:100240000000200001002000810f7000010032003a
:1002500014000700000020000000e000020032004f
:100260000000020000000000463c02000000000008
:100270000040da000000fe004440a900203f2000ba
:100280000000e0000300320000002000a001880010
:100290004440a800000006008a1f78008b1f7800e9
:1002a0000000060091018800800478000000eb0047
:1002b0001a003700e284440032a0b4009905ba0065
:1002c000e284440032a0b4009906ba00e2844400fb
:1002d00032a0b4000006eb00476fde00fd07b2005d
:1002e000636ce10003003a00ebff07000000eb0045
:1002f0000a003700606ce10004003a00005deb008a
:100300008b05e900fdff3e00040037006168e10055
:10031000010032000086eb000b00070019c7ba008d
:100320001905ba000e04e00003003a000a00e000dc
:10033000e0ff3a0000000600fe07b2009e018800c0
:100340008a047800f5ff3700395dba008b05e900b3
:100350000c003200295dba008b05e900080032006c
:100360000c00e00003003a00e284440032a0b40034
:10037000f5ff370019ddba008b05e900faff3a00f6
:100380008904e800e184440032a0b40000000600c3
:100390000000fa008400a9000080fa000040060076
:1003a0003600f800809fbe00829fbe00849fbe0082
:1003b000869fbe00889fbe000000fa00d5c9bf001e
:1003c000e74f500084003c00ecc9bf00684060006b
:1003d0000004e00061003200001480008000eb00a7
:1003e0002b0407000002be00404d8000514d8000ec
:1003f0000001be000400be0045040700404d880017
:10040000514d8800101480008000eb00200407008c
:100410000002be00e04d8000f14d80000001be00f2
:100420000400be003a040700e04d8800f14d88004a
:10043000201480008000eb00150407000002be00bd
:10044000204e8000314e80000001be000400be003e
:100450002f040700204e8800314e880030148000a1
:100460008000eb000a0407000002be00404e80003e
:10047000514e80000001be000400be0024040700ad
:10048000404e8800514e8800684d8000794d8000b4
:10049000401480008000eb00fd0307000001be0057
:1004a0000800be001a040700604d8800714d8800e6
:1004b000884d8000994d8000501480008000eb0032
:1004c000f30307000001be000800be00100407008f
:1004d000804d8800914d8800a84d8000b94d800066
:1004e000601480008000eb00e90307000001be00fb
:1004f0000800be0006040700a04d8800b14d88002a
:10050000c84d8000d94d8000701480008000eb0041
:10051000df0307000001be000800be00fc03070067
:10052000c04d8800d14d8800801480008000eb0011
:10053000d70307000002be00004e8000114e80006d
:100540000001be000400be00f1030700004e880059
:10055000114e8800e31807001b0037006000b80048
:10056000404d8800514d88006000b800e04d880083
:10057000f14d88006000b800204e8800314e8800a0
:100580006000b800404e8800514e88006000b800fe
:10059000604d8800714d88006000b800804d880073
:1005a000914d88006000b800a04d8800b14d8800d2
:1005b0006000b800c04d8800d14d88006000b800d0
:1005c000004e8800114e8800d5c9bf000040e800e9
:1005d000d5e9b7001d0037009a090700ecc9bf0034
:1005e000684060000004e00001003200390b0700a1
:1005f000d569ef00ecc9bf00684060000004e0006e
:1006000005003200ecc9bf000042b2000004e00067
:1006100001003a00f2190700c90a0700e8c9bf0043
:10062000684060000004e00007003a00ecc9bf0029
:10063000684060000004e00003003200a1e2a9006d
:10064000ec69a90001003700ec69a8008560a900e9
:100650000080fa004f04be004f03be004f02be00f0
:100660004f01be004f00be003600f90000400600fa
:100670003600f800809fbe00829fbe00849fbe00af
:10068000869fbe00889fbe008a1f78000200fa0085
:10069000a1e2a8000ec2bf00624060000004e000ba
:1006a0000a003200d00220003a1907000200370089
:1006b00090108000004f78000ec2bf0061406000c3
:1006c0000004e000faff3a000e22a90018c2bf00a1
:1006d000624060000004e0000a003200e0022000f6
:1006e0002c19070002003700e01080001047980026
:1006f00018c2bf00614060000004e000faff3a0049
:100700001822a9003c180700d9160700b91a0700db
:10071000e8c9bf00684060000004e0000600320045
:100720005044800000407800dae9b700b0c3b3005d
:1007300028ebb7001100370028cbbf000004e00011
:100740000b003c00b0c3b30028ebb700dac9bf0010
:100750000004e00002003c00ec29a800070037007c
:10076000dac9bf000040e900dae9b700030037004a
:1007700028cbbf000040e90028ebb70040578000bd
:100780000000e0000e003400f041800001428000d3
:10079000024d8000134d800018c0b300fb0207001b
:1007a0000000e00001003c000044eb000804e00011
:1007b00003003200405780000000e90040578800e5
:1007c000dbc2bf00614060000004e00002003a00ac
:1007d000e229ef00202bef00e8c9bf00684060006d
:1007e0000004e0001c003200244b8000354b8000e8
:1007f000d0438000e143800018c0b3000001be0078
:100800000400be00e10207000000e00001003c001f
:100810000044eb000804e0000d003a00444b800067
:10082000554b8000b0438000c143800018c0b30026
:100830000001be000400be00d40207000000e0007a
:1008400001003c000044eb000804e000020032001c
:10085000d642a80025003700e8c9bf006840600004
:100860000004e00020003200284b8000394b80005b
:10087000d0438000e143800002002000030a2400ee
:100880001a0307001ac0b3000001be000800be0032
:10089000bc0207000000e000010035000045eb004d
:1008a0000a04e00011003200484b8000594b8000e0
:1008b000b0438000c143800002002000030a2400ee
:1008c0000a0307001ac0b3000001be000800be0002
:1008d000ac0207000000e000010035000045eb001d
:1008e0000a04e00001003200d642a900e8c9bf00b6
:1008f000704060000004e00003003a001000200097
:1009000050578800eca9a900e8c9bf0070406000fa
:100910000004e0000c003200e8c9bf006140600044
:100920000004e00002003200e809a90007003700d7
:10093000e809a800c04880000000e0000300320081
:10094000ed29a80001003700ed29a900e04780004b
:10095000f14780004a0a0700404788005147880055
:100960008198200030062000808f50000d00360056
:1009700027cbbf00e44f50000a0032002047800020
:1009800031478000004888001148880040c0b3000b
:1009900027ebb7006000b800e0478800f147880007
:1009a0001a0037008198200020052000808f500019
:1009b00016003e008198200010052000808f500016
:1009c0001200360027cbbf00e44f50000300320076
:1009d00027cbbf000004e0000c003a004047800035
:1009e0005147800020478800314788002047800019
:1009f000314780000001be00c50207002047880083
:100a00003147880020c0b30027ebb70000488000c2
:100a10001148800018c0b3006011b80059020700e7
:100a20000000e000010035000044eb000804e00095
:100a3000030032006000b8000048880011488800b8
:100a4000044880001548800020478000314780001e
:100a500018c0b3000001be000400be004b02070036
:100a60000000e00001003c000044eb000804e0004e
:100a70000400320020478000314780000048880091
:100a800011488800c19e20009140780000c8b30042
:100a900000c060000004e0002d0032000848800023
:100aa000194880002447800035478000d0408000ee
:100ab000e14080000001be000400be0058040700b1
:100ac0001ac0b3000001be000800be002f020700dc
:100ad0000000e00001003c000045eb000a04e000db
:100ae0001b003200e8498000f94980001441800071
:100af00025418000d0408000e14080000001be0020
:100b00000400be00460407001ac0b3000001be0086
:100b10000800be001b0207000000e00001003400d6
:100b20000045eb000a04e000090032002447800081
:100b300035478000d0408000e14080000001be00c9
:100b40000400be00360407000048880011488800f1
:100b5000e8c9bf00684060000004e0000c003a00f3
:100b600008488000194880003044800041448000db
:100b70003284290013992300290407000001be00d4
:100b80000800be005902070000488800114888008c
:100b900004488000154880002047800031478000cd
:100ba0000001be000400be003e030700020020005a
:100bb000832c24001a04070040498800514988000a
:100bc000561607008460a9000080fa004f057800df
:100bd0004f04be004f03be004f02be004f01be00d7
:100be0004f00be003600f900004006003600f80055
:100bf000809fbe00829fbe00849fbe00869fbe0075
:100c0000889fbe000400fa00844b8000954b800052
:100c1000e0498000f14980000001be000400be00f0
:100c2000ff030700c04a8800d14a880026cbbf00d6
:100c30000004e0000600340026cbbf00e34f500064
:100c40000300320026cbbf000040e90026ebb700ce
:100c500025cbbf000004e0000600340025cbbf0018
:100c6000e34f50000300320025cbbf000040e900f5
:100c700025ebb70024cbbf000004e00006003400e1
:100c800024cbbf00e34f50000300320024cbbf0051
:100c90000040e90024ebb700d4c9bf00e74f500083
:100ca00023003400604e8000714e8000020020005e
:100cb00003102400fb020700604e8800714e88007c
:100cc000604e8000714e8000804b8800914b880000
:100cd000804e8000914e800002002000031024000e
:100ce000f0020700804e8800914e8800804e800000
:100cf000914e8000e0498800f14988006000b8000a
:100d0000804e8800914e88006000b800604e8800d8
:100d1000714e8800d469ef00edc9bf0064406000e7
:100d20000004e00013003200dc0907001100370066
:100d3000004b8000114b8000624e8000734e80009b
:100d4000f3010700604e8800714e88006049800002
:100d500071498000824e8000934e8000ec010700b4
:100d6000804e8800914e8800d4c9bf000040e80042
:100d7000d4e9b700844b8000954b8000e0498000a7
:100d8000f14980000001be000400be00a40307007a
:100d90003b090700008fbe00a0498000b1498000d8
:100da00018c0b3001e01be00760107000000e0007d
:100db000010035000044eb000804e0000b003200a5
:100dc0001e01be00a2498800b3498800e0498000a6
:100dd000f1498000c0498800d1498800804b8000db
:100de000914b8000604b8800714b8800004b800065
:100df000114b80002209070018c0b300f226210021
:100e000033b02300610107000000e00001003c0056
:100e10000044eb000804e00018003200e8478000be
:100e2000f9478000004b8000114b800012052a001a
:100e3000138123007a0307000001be000800be00f2
:100e4000b3010700e0478800f147880008488000a8
:100e500019488000004b8000114b800012052a00c9
:100e6000138123006e0307000001be000800be00ce
:100e7000a7010700004888001148880084c0a90025
:100e80000080fa004f04be004f03be004f02be00b8
:100e90004f01be004f00be003600f90000400600c2
:100ea0000000fa008600a9000080fa000040060059
:100eb000809fbe000000fa006000b8002049880052
:100ec00031498800e829a90084e0a9000080fa00df
:100ed0004f00be00004006003600f800809fbe00b4
:100ee000829fbe00849fbe00869fbe000000fa0065
:100ef000e51307000000e000090032009712070028
:100f000020578000e40f5000020034002a1607002a
:100f100003003700205780000000e80020578800b9
:100f20001157800080702000808f500003003a002d
:100f3000f1130700e22aef0003003700105780008a
:100f40000000e8001057880086a0a9000080fa0081
:100f50004f03be004f02be004f01be004f00be0057
:100f60003600f900004006003600f800809fbe0001
:100f7000829fbe00849fbe00869fbe000000fa00d4
:100f800010002000fd0e070086c0a9000080fa00b6
:100f90004f03be004f02be004f01be004f00be0017
:100fa0003600f900004006003600f800809fbe00c1
:100fb000829fbe00849fbe00869fbe000000fa0094
:100fc0000000eb001c1007008520a9000080fa003b
:100fd0004f03be004f02be004f01be004f00be00d7
:100fe0003600f900004006003600f800809fbe0081
:100ff000829fbe00849fbe00869fbe000000fa0054
:10100000100020000c1007008700a9000080fa00e3
:101010004f03be004f02be004f01be004f00be0096
:101020003600f900004006003600f800809fbe0040
:10103000829fbe00849fbe00869fbe000000fa0013
:1010400009003700b14f800080a1200000804000df
:10105000104078000000fb0080108800b04f800036
:101060000000e800b04f88000fc2bf00624060007f
:101070000004e00009003a00b14f800080a1200088
:1010800000804000104078000004e00003003200bf
:1010900094cabf000004e000eaff3a000000eb0041
:1010a0001d0907008540a9000080fa004f03be001b
:1010b0004f02be004f01be004f00be003600f900d7
:1010c000004006003600f800809fbe00829fbe00f0
:1010d000849fbe00869fbe000000fa000b00370010
:1010e000c04f8000c10320008080400080a120000c
:1010f00000804000104078000000fb00d010880005
:10110000c04f80000000e800c04f880019c2bf0037
:10111000624060000004e0000b003a00c04f800015
:10112000c10320008080400080a12000008040009a
:10113000104078000004e0000300320095cabf00b0
:101140000004e000e6ff3a0010002000f20807006b
:101150008720a9000080fa004f03be004f02be00a6
:101160004f01be004f00be003600f90000400600ef
:101170003600f800809fbe00829fbe00849fbe00a4
:10118000869fbe000000fa00ac170700eca9a8007b
:10119000c00020007f160700401207008960a900e8
:1011a0000080fa004f03be004f02be004f01be0098
:1011b0004f00be003600f900004006003600f8007f
:1011c000809fbe00829fbe00849fbe00869fbe009f
:1011d0000000fa0042c7bf000042b2000004e00075
:1011e00006003a00ecc9bf000044b2000004e00071
:1011f00002003a0020012000661607008f17070042
:10120000eca9a800ecc9bf000044b2000004e00053
:1012100002003200d00020005e160700ecc9a800d2
:101220001e1207008020a9000080fa004f03be00b4
:101230004f02be004f01be004f00be003600f90055
:10124000004006003600f800809fbe00829fbe006e
:10125000849fbe00869fbe000000fa00771707003b
:10126000eca9a800e00020004a1607000b120700b6
:101270008060a9000080fa004f03be004f02be004c
:101280004f01be004f00be003600f90000400600ce
:101290003600f800809fbe00829fbe00849fbe0083
:1012a000869fbe000000fa00f0bf20000001880009
:1012b00062170700eca9a800f0002000351607000f
:1012c000f61107008040a9000080fa004f03be001d
:1012d0004f02be004f01be004f00be003600f900b5
:1012e000004006003600f800809fbe00829fbe00ce
:1012f000849fbe00869fbe000000fa004f170700c3
:10130000eca9a8000001200022160700e311070045
:101310008080a9000080fa004f03be004f02be008b
:101320004f01be004f00be003600f900004006002d
:101330003600f800809fbe00829fbe00849fbe00e2
:10134000869fbe000000fa003c170700eca9a80029
:10135000100120000f160700d01107000080fa00ce
:101360004f03be004f02be004f01be004f00be0043
:101370003600f900004006000040da000000fe00e0
:101380000000050014002000ad033700f4ff2f001b
:10139000ab0337000001be003f0007000470a70048
:1013a00003f0a1006509b100160032000d00350000
:1013b0006828e10006003500f0ff2f00f1ff27004c
:1013c0000300e00013003b000100280000000500be
:1013d00000004000818048008502e900fcff3a00df
:1013e00008003700f88f420002003c008000eb004c
:1013f000000005008100d1000080d3008502e800d4
:10140000fcff3a000300e00002003b006000100017
:10141000e0801800000006000001be001e0007006a
:101420000470a70003f0a10003f8a30013003a0022
:101430006509b10010003200090035006928e1009b
:1014400002003500010028000000050000004000f7
:10145000818048008502e900fcff3a000000060098
:10146000f88f4200050035008100d1000080d300d4
:101470008502e800fcff3a00000006008000eb0057
:10148000000005004f89de008201780087033700e5
:101490006011b80095033700c70ade00f107b200fb
:1014a000f50fb20008003200e1cf42000200320026
:1014b0000170a00024000500810f700001003200bf
:1014c0000408050044000500810f700002003a0086
:1014d000140005008502e9000000400081c04800ba
:1014e000fcff3b000170a0002400050007f8270066
:1014f000078361000638e10004003a00f707200086
:10150000878361008703710001003a0003f0a200a5
:10151000889fbe008a9fbe008c9fbe00470ade00e7
:101520000480a100c71ade000580a1000700280082
:101530000785600087856100f70f20000720e10024
:101540009e0032000728e1009c003200010678006e
:101550000400e000b4003200f7072000878060003c
:101560000170a0000500e000c0003200f707200075
:10157000878161000370a000050652000f003a0049
:101580000b50e1000b0032000308e10002003a00ba
:101590000200e1007e003200020450008384580003
:1015a000040031000001fd008101fd008402fd0006
:1015b0008a05fd006044b800210037000520e100e5
:1015c00005003d000001fd008101fd008402fd00d9
:1015d0008a05fd00050652007a60e100050035002d
:1015e0000170a1004722dd00848070008a807000b5
:1015f000630037006044b800ef02660007ff2f0069
:10160000070666000500e00006003400f0831200c3
:101610008714dd000511de00071bdd0006017100e7
:101620008519de007060e1000500350009047800ce
:1016300082047800030178008001eb0070065600f8
:101640000b50e10003003a00020040008380480094
:101650000400370060041400e0841c0002005800fd
:10166000838058000188a300060032008100d10069
:101670000080d3008984d3000884d3000402e800ea
:10168000270037000178a30025003a000100e000a0
:10169000030032008186cf00698656000a003700b9
:1016a0008c0020000000e00004003a0009007800ef
:1016b000880478000004eb00700252008086cf009e
:1016c0000d0646000c06e9007060e10006003500da
:1016d0008000780009007800880478000004eb009e
:1016e00070065600700252000c00e0000c0034003e
:1016f0008c08dd00f00316000703de008680700012
:101700000c00dd00074bde00060070008c4cdd0095
:101710000743de00868474000c44dd000c02520096
:101720006120e10020003500610160000700280011
:1017300087816400f7ff2700878364000703740034
:101740000300e00006003200820373000400320050
:101750000000e800e08048000188a3000e003a0085
:10176000f70f20000720e1004a003d000170a100b2
:101770004722dd00810072008a8070000000be00f8
:101780004f06be004f05be004f04be00000006001d
:101790006000b800faff37008100d1000080d3005c
:1017a0000402e800eeff37000401780089017400ac
:1017b000a10107008a807000f1ff3700f7010700e0
:1017c000070278000001fd008101fd00f301070020
:1017d00087027800850372000778a30004003200b6
:1017e0000001fd008101fd0006020700e4ff370053
:1017f000850362000768a300080032000b50e10077
:1018000003003200f0ff2f00f1ff2700dcff37005c
:101810000001fd008101fd00d9ff37000468a3002d
:10182000d7ff3200faff3700f8ff270088836000f7
:101830000b003a000000e00009003a008303640056
:1018400082837300020032000200be00ccff37002a
:101850000b50e100ceff3a000200be00c8ff370087
:1018600014002000810064003eff3700f8ff2700cd
:101870008883610004003a000200e00002003a00a0
:101880008c007800beff3700150020008301640043
:1018900039ff370001f827000000200081007500a3
:1018a000b7ff3700889fbe008a9fbe008c9fbe0096
:1018b0001b0020000202be0005866800060028000a
:1018c000060666004709de00f20fb2008200320011
:1018d0000243e80080003200c729de00f30fb200a7
:1018e0007d0032000343e8007b003200f107b200c4
:1018f0000170a000f507b2000570a000c708dd0068
:101900004903de00868070004700dd00c72add0045
:101910004923de00868272004722dd000305510064
:10192000040350008583580003003100000040008c
:10193000818048000a05e9008c1f78008a9fbe005c
:1019400004005000858058000402420085824a004d
:1019500000004000818048000005eb000004be004c
:101960006033b8000406be000d48e10056003100a7
:10197000110009004dccd8000c01b8000d02b800d0
:101980008481410060824a008283530003045c002a
:1019900084845c0060055d000a00e00025003a00d8
:1019a000800578000d40e100490031008800780092
:1019b00007007800110009004d88d8000c01b8001c
:1019c0000d02b8008481410060824a00600311006a
:1019d00083835b0004045c00e0845c000900e00099
:1019e00021003a004f01be000300e0002b0032004e
:1019f000e3016000070673008c8171000100320072
:101a0000640070004200de004e5edd000c007000dd
:101a1000c258de0001e0a00083010700cf0178007a
:101a2000818071004f06be004f05be004f04be000e
:101a3000000006008c8343000d044c00e0844c0041
:101a400060054d000000e9000a00e000d4ff32000c
:101a50008c8343000d044c00e0844c0060054d0075
:101a60000000e900ceff37000c0343008d834b00dc
:101a700060044c00e0844c000000e9000900e00034
:101a8000d8ff32000c0343008d834b0060044c00f0
:101a9000e0844c000000e900d2ff37004200de0085
:101aa0004e5edd000c007000c258de0001e0a000b8
:101ab000cf0178000300e000daff32006000100080
:101ac000e0801800d7ff3700f0ff2f00aaff370093
:101ad000f0ff2f00b9ff37000404be002f010700fc
:101ae000870678000004fd008104fd002b0107003b
:101af000078366000678a300030032000960a70090
:101b00000800be002c0037000d78a3000200320050
:101b10000800be00280037000778a30026003a001e
:101b200001f0a10009f0a1000668a3000300320043
:101b3000f1ff2700f0ff2f00baff37000d68a30068
:101b4000030032000800be008c807000b5ff370033
:101b50000768a30007003a000648a300030032000c
:101b6000f1ff2700f0ff2f00aeff37000d48a30064
:101b7000030032006000b8008c807000a9ff3700bd
:101b80000748a3000400320001f8270000002000ed
:101b90008c807000a3ff3700760107000004fd0071
:101ba0008104fd0002057800720107000802be00f2
:101bb0008a01780059ff37000160a000120220005e
:101bc0007259880097ff37000100e00012003200d0
:101bd0000500e00010003200889fbe008a9fbe0012
:101be0008c9fbe000006eb0001f8a300030032004a
:101bf00060001000e08018000cf0a00005f8a300c1
:101c00000300320060021200e0821a000cf0a20011
:101c10008005eb0041ff37006000b80002000500be
:101c2000038368000700280007036300470ade00fb
:101c30000480a100c71ade000580a100f70f200074
:101c40000720e100420032000728e1004000320096
:101c5000889fbe008a9fbe008c1f7800f107b200eb
:101c6000f307b2000400e000640032000170a0003d
:101c70000500e000680032000370a0008505420006
:101c8000eb07b1000204b8000302b80084844400ea
:101c900060854a00020ab800848444000a854a002c
:101ca000030ab80004054500040033000804d0000e
:101cb0008984d2000a85d2008b05e9006158e100d1
:101cc0003d003500021020000901610003082000da
:101cd00089816100f707200087836400088673000c
:101ce000c84cde00c853dd00878474004855de0010
:101cf0000300e00006003200820376000400320098
:101d00008904e80060054d000a88a3000c003a0031
:101d1000f70f20000758e10044003d000a70a100c1
:101d2000c75ddd000a8575008a0073000900780030
:101d30004f0678004f05be004f04be0000000600ad
:101d40000a05d1008984d3008b05e800f0ff370035
:101d5000881f7800060478009000070007027800ca
:101d60000001fd008101fd008c0007008702780062
:101d7000850372000778a300050032000001fd0012
:101d80008101fd009f0007004f047800000006005d
:101d9000850372000748a30003003200f0ff2f0004
:101da000f1ff2700f8ff37000000200001f82700ae
:101db00088807000f4ff3700880178004848dd0013
:101dc000808171004848de00c850dd0001007000cd
:101dd000c850de00060478000b01780016000700ea
:101de00088807000d2ff37000500e0000500320057
:101df000170020003a0007009dff370081037000a4
:101e0000f9ff3a00860078004f0678004f05be00c3
:101e10004f04be000000050083037100f9ff32008b
:101e2000270020002e00070094ff370001f827004c
:101e300086807000f4ff37000100e00026003200c9
:101e4000610111007810e10023003c006022b8001d
:101e50007010e10004003500800278000100780075
:101e60008000eb00700151000200e0000900340026
:101e700070031100062add00822ade008603dd00e1
:101e8000878272000200de00860bdd000700700012
:101e90008208de0084817100f4ff27000482620062
:101ea0008481710004002800848262006102600065
:101eb00005f0a60000000600048271000700320051
:101ec0000000e800e0804800000006000002be00bc
:101ed0006000b800efff37006000b80000000600a7
:101ee000889fbe000004eb006138e10016003a0054
:101ef0000100e00008003a00c800de004800dd00f4
:101f0000880020000100e00003003a00c800de0065
:101f10004800dd00680444008184cf00e984540057
:101f2000060034008908dd00f08314008703de001a
:101f3000878070000900dd0009044400610214007c
:101f40004f04be00000006000300e00008003a0055
:101f5000c811de004811dd00880020000300e00009
:101f600003003a00c811de004811dd006804440097
:101f70008384cf00e9845400060034008919dd0011
:101f8000f08314008713de00878171000911dd00e2
:101f900009044400e1021400e9ff37002700200093
:101fa00001f0a70017002000470bde00f60fb2007b
:101fb000040032000643e8000a0032004702b30082
:101fc0000000060001037800f607b2000603700067
:101fd00002003a000703b300000006008702b300c6
:101fe0000000060001037800f607b2000603700047
:101ff000020032000770a000000006000760a00089
:10200000000006000478a300040032000578a30055
:10201000030032000168a30001003a000200be0084
:102020000160a0000000060081017000270032005e
:102030008002eb0001f8a3000300320060001000f2
:10204000e080180015002000f40720000202420082
:1020500020003400f70320008703600006042000fe
:102060000003630002082000000161004700de0059
:10207000c909dd0000807100c708de000600e0002d
:102080000800320087037100060032001000b00023
:102090000180b0000188a30002003200c108de0008
:1020a0000402e800f107b200f30f20000320e10072
:1020b00003003d004722dd00810072002900370047
:1020c00001f827000000eb00260037006000b80090
:1020d00000000600680212007f20e10002003400c8
:1020e0006000b8001f0037006011b8007020e100e8
:1020f0000400350080017800010078008000eb00ca
:10210000700252000400e00009003400f0031200e5
:102110000719dd008419de000703dd0086817100e8
:102120000400de00070bdd00060070008408de00fe
:10213000f7ff2700838363008703710006002800f0
:1021400003036300070032000700e00003003a00c9
:102150006101600002817300020032001000b000d3
:102160000180b0000500a6000000060001f0a000fc
:10217000000006004f0ade004709de00f107b2004a
:10218000f20fb2000b003200f207b1000170a000a4
:10219000c708dd00c901de00838070004700dd0054
:1021a0000400a6000000060060001000e080180097
:1021b00000000600810f700001003a0000000600d8
:1021c0008182cf000500e00010003e008082cf0039
:1021d000ee8242007028e1000400390007003e0052
:1021e000800078000000eb000e00370070831200c2
:1021f0008600de000500dd000a0037007083520013
:102200008600dd000000eb0006003700e28252008d
:102210008508dd00708312000603de0086807000f2
:102220000500dd007507b0000501ea000400a60006
:102230000000060060001000e080180000000600aa
:10224000889fbe008a9fbe00841f78007c00070024
:102250004f00780011003300f0ff2f00838f6c00d7
:1022600006003b00040565000a00a70008003700cf
:1022700009f0a6001000200008003700820f54006b
:10228000838f5c00030039001000200001003e0035
:102290000000200009f0a7000000ea004f05be0082
:1022a0004f04be000000e00000000600881f780018
:1022b000030478000300e00007003d006000100008
:1022c000e080180060011900e081190002003b0065
:1022d00001f02d00030037000400070008f0a700fc
:1022e00001f0a0004f04780000000600889fbe00a7
:1022f0008a9fbe0000827000040271000482710097
:10230000260032000004be000200be006011b800ca
:102310006b092000950220000182cf000a003900dd
:102320000541b1000082cf00070039000541b1002e
:102330000982cf00040039000541b1000882cf00b6
:10234000010039000541b10005425200120032007f
:102350000a003b0082817100610164008100d100ac
:102360000080d3008984d3000884d3008b05e80063
:102370000442e800f7ff3a00070037000804440071
:1023800089844c0000004800818048008b05e900ea
:102390000442e900f9ff3a00030007004f05be00c0
:1023a0004f04be000000060081002000618055003f
:1023b0000b003d000b00200061fe2f000100e1003a
:1023c0001d00340082817100610164008904d10024
:1023d0000884d3000000e800faff3a0071002000f2
:1023e0006100640003007000020060000900320018
:1023f00061044400e0844c000988a5000500320017
:102400008b05e8006808e10002003a008904d10069
:102410000884d300f20f20000258e10005003d00bf
:10242000c75ddd00f907b2008980750008007800fb
:10243000000006000bf827008b0078000000050064
:102440000004be0014fc07000003be000405be002b
:102450000200be0010fc0700844f7500000006005b
:020000040000fa
:10246000200000004d500000480000002500000042
:1024700056000000545600000050000057000000b5
:102480005057000056000000415600000043000075
:1024900056000000434100000053000031000000de
:1024a000533200000053000033000000533400009a
:1024b00000570000004300005700000041000000ea
:1024c00043420000004300004d0000005057000050
:1024d0004100000041410000004f00004356000051
:1024e000004d0000430000000a0d00000000000045
:1024f00030920000329200003692000038920000c4
:102500003a9200003d920000409200004492000088
:10251000479200004a9200004d9200005092000045
:102520005392000056920000599200005b92000006
:102530005e920000609200006392000066920000cc
:102540006a9200006d920000719200007492000087
:10255000486500006174000065720000207400008e
:102560006f6f0000207300006d6100006c6c000054
:10257000004e00006f2000006865000061740000dc
:10258000657200002064000065740000656300004f
:10259000746500006400000048650000617400007c
:1025a00065720000207400006f6f0000206c000056
:1025b0006172000067650000004c00006f7700004a
:1025c00020420000617400007400000044690000b3
:1025d0007363000068720000672000004f43000032
:1025e0000043000068720000672000004f430000b5
:1025f0000042000061740000742000004f5600008b
:102600000042000061740000742000004f5400007c
:10261000004d0000437400006c2000004f54000087
:1026200000530000656c0000662000004f5400005d
:10263000005300007973000020530000687500000b
:10264000746400006f7700006e00000050570000b7
:102650004d20000045720000720000004f73000022
:102660006320000046610000696c0000004100002a
:1026700064640000722000004572000072000000d7
:10268000535400004b20000045720000720000000f
:102690004d54000048200000457200007200000008
:1026a000526500007320000037000000504c00000d
:1026b0004c200000554c000000420000726e0000eb
:1026c0004f750000740000005744000054200000c3
:1026d000727300007400000054520000415000006a
:1026e0002072000073740000004f0000706300004f
:1026f0006f64000065200000727300007400000029
:102700004d4300004c520000207200007374000022
:10271000004900006c6c000065670000616c0000ff
:10272000204900006e7300007472000075630000a1
:10273000740000005379000073200000526500000f
:102740007365000074000000496e000076610000af
:102750006c69000064200000706f0000727400005b
:10276000004e00006f2000006368000072670000e8
:1027700020630000726e00007400000050430000ef
:1027800068670000203e000020310000303000006b
:102790002500000056480000204300006856000055
:1027a000005600004c200000436800005600000066
:1027b0005648000020430000684300000056000017
:1027c0004c20000043680000430000005648000011
:1027d00020420000546d000070000000564c0000c4
:1027e00020420000546d00007000000056480000b8
:1027f0002042000043000000564c00002042000030
:102800004300000056480000205300004d00000027
:10281000564c0000205300004d000000504f0000b7
:1028200052540000312000004253000059200000a3
:102830006572000072000000504f0000525400000a
:102840003220000042530000592000006572000051
:102850007200000050720000676d0000204300000d
:10286000686b0000737500006d2000004572000069
:10287000720000004e5600006d6500006d200000e3
:10288000436800006b730000756d00002045000078
:102890007272000000530000657400007320000095
:1028a000436800006b730000756d00002045000058
:1028b00072720000004e0000567300006574000044
:1028c00073200000436800006b730000756d00000a
:1028d000204d0000697300006d610000746300000a
:1028e00068000000504f00005254000031200000ea
:1028f0004552000052000000504f000052540000aa
:102900003220000045520000520000004f750000c8
:1029100074200000736f000066740000204f0000f8
:102920004300000056480000205300003100000022
:10293000564c0000205300003100000056480000b3
:102940002053000032000000564c000020530000cd
:102950003200000056480000205300003300000001
:10296000564c000020530000330000005648000081
:102970002053000034000000564c0000205300009b
:1029800034000000556e00006b6e00006f77000091
:102990006e000000a8920000b9920000cc920000e6
:1029a000dd920000e6920000f1920000f992000032
:1029b0000193000009930000119300001993000097
:1029c000269300002e9300003793000040930000f0
:1029d0004893000050930000569300005d93000060
:1029e000649300006c9300007593000080930000d6
:1029f000899300009a930000a4930000b193000013
:102a0000be930000ca930000d1930000d893000049
:102a1000df930000e6930000ee930000f6930000c1
:102a2000fc93000002940000089400000e94000043
:102a30001c9400002a9400003a9400004b9400007b
:102a40005b940000729400007c9400008694000067
:102a500092940000989400009e940000a4940000ba
:102a6000aa940000b0940000b6940000bc9400004a
:102a7000c294000020000000526500006164000064
:102a8000696e00006720000046610000756c000060
:102a9000747300002e0a00000d0000004661000063
:102aa000756c0000742000004c6f0000672000006f
:102ab000467500006c6c00002e0a00000d0000003e
:102ac0004e6f000020660000617500006c7400000d
:102ad000206300006f640000657300002e0a000090
:102ae0000d000000436f0000646500003a20000004
:102af000002000002d3e0000200000000a0d000014
:102b00000040000000210000000a00000d500000fd
:102b1000524700003a0a00000d530000746f000095
:102b200072650000643a0000000a00000d430000d6
:102b3000616c0000633a000020200000000a0000e1
:102b40000d4e0000564d00003a0a00000d530000e3
:102b5000746f000072650000643a0000000a000013
:102b60000d53000065740000746900006e6700007a
:102b700073200000616e00006420000056610000b8
:102b8000727300002053000061760000656400004d
:102b90002e0a00000d000000502000004f6e0000c3
:102ba0000a0d000000500000204f00006666000083
:102bb0000a0d00000048000055440000204f0000ae
:102bc0006e0a00000d00000048550000442000007f
:102bd0004f660000660a00000d000000466100001c
:102be000756c000074730000204300006c650000e9
:102bf00061720000656400002e0a00000d000000f4
:102c00000a0d0000563100002e3000005f32000037
:102c1000532d0000345300000a0d00000055000041
:102c20006e6b00006e6f0000776e000020430000a6
:102c30006f6d00006d6100006e6400002e0a0000e0
:042c40000d00000083
:020000040000fa
:102c44001600fa00e04d8000f14d800002002000e3
:102c54000310240012fb0700e04d8800f14d8800aa
:102c6400e04d8000f14d800002002000037024003c
:102c74001dfa0700e04d8800f14d8800e04d80000a
:102c8400f14d8000020020000370240004fb0700c3
:102c9400e04d8800f14d8800e04d8000f14d80004a
:102ca4003233230033fd2300dcfb0700e04d8800b2
:102cb400f14d8800e04d8000f14d800002002000bd
:102cc40083142400d5fb07000002be00c04c800022
:102cd400d14c80000001be000400be000bfa0700c6
:102ce400004b8800114b88008a1007006000b80070
:102cf400e04d8800f14d8800004e8000114e8000a8
:102d04000200200003102400e5fa0700004e8800aa
:102d1400114e8800004e8000114e800002002000f9
:102d240003702400f0f90700004e8800114e88005b
:102d3400004e8000114e8000020020000370240029
:102d4400d7fa0700004e8800114e8800004e80001c
:102d5400114e80003233230033fd2300affb070004
:102d6400004e8800114e8800004e8000114e8000f5
:102d74000200200083142400a8fb07000002be0008
:102d8400e04c8000f14c80000001be000400be0055
:102d9400def90700204a8800314a88005d100700e8
:102da4006000b800004e8800114e8800604d80001d
:102db400714d800002c02c00c37c2400b8fa0700c7
:102dc400604d8800714d8800644d8000754d800011
:102dd400004c8000114c80000001be000400be00c5
:102de400affa070030079800410798006000b80068
:102df400604d8800714d8800804d8000914d8000a9
:102e040002c02c00c37c2400a5fa0700804d880072
:102e1400914d8800844d8000954d8000004c8000c9
:102e2400114c80000001be000400be009cfa0700a3
:102e340050079800610798006000b800804d880032
:102e4400914d8800a04d8000b14d800002c02c003f
:102e5400c37c240092fa0700a04d8800b14d88007d
:102e6400a44d8000b54d8000004c8000114c8000c2
:102e74000001be000400be0089fa07007007980034
:102e8400010f98006000b800a04d8800b14d880083
:102e9400c04d8000d14d800002c02c00c37c2400b2
:102ea4007ffa0700c04d8800d14d8800c44d8000d2
:102eb400d54d8000004c8000114c80000001be0004
:102ec4000400be0076fa0700100f9800210f980046
:102ed4006000b800c04d8800d14d88005e019000ac
:102ee400ee0190007e0090008e08900087f90700a4
:102ef4003e019000ce01900084f907000001be005d
:102f04001e089000ae08900077f907000002be008a
:102f140050408000614080000001be000400be00fb
:102f24007af90700404a8800514a88003e0190001f
:102f3400ce0190005e009000ee00900073f907004f
:102f44000001be007e0090008e08900066f9070024
:102f54000002be0070408000814080000001be007d
:102f64000400be0069f90700604a8800714a8800bd
:102f74003e019000ce0190005e009000ee009000b3
:102f840059f907000002be0090408000a140800073
:102f94000001be000400be005cf90700804a8800fe
:102fa400914a8800b0408000c14080003e019000fa
:102fb400ce01900055f90700a04a8800b14a880064
:102fc4006000b800008fbe000000eb0020079800ee
:102fd4000f0037002e0090004200dd00a102200007
:102fe40080804000e09120000081400012007800c1
:102ff400920090000001be001e00be0043f90700cd
:10300400008fbe002e0090000000e800200798000a
:103014002e009000e30f5000eeff34001e01be00ae
:103024006249880073498800404d8000514d8000fa
:1030340002c02c00c37c240019fa0700404d88000c
:10304400514d8800444d8000554d8000004c800057
:10305400114c80000001be000400be0010fa0700fd
:10306400004a8800114a88006000b800404d88007a
:10307400514d8800204e8000314e800002c02c004b
:10308400c37c240006fa0700204e8800314e8800d5
:10309400204e8000314e8000f2282c0053ef230094
:1030a40011f90700204e8800314e8800204e800020
:1030b400314e800042722900f3c72300f8f907005b
:1030c400204b8800314b88006000b800204e8800f7
:1030d400314e8800404e8000514e800002c02c00ca
:1030e400c37c2400eef90700404e8800514e88004e
:1030f400404e8000514e8000f2282c0053ef2300f4
:10310400f9f80700404e8800514e8800404e800078
:10311400514e800042722900f3c72300e0f90700f2
:10312400404b8800514b88006000b800404e880036
:10313400514e88000080fa00000006000000fa00ea
:10314400ecc9bf00684060000004e00030003200b9
:10315400ecc9bf00624060000004e0002c003a00ab
:10316400ecc9bf000042b2000004e00028003a00ad
:103174001cc9bf00e54f500001003200a80e070033
:103184001cc9bf00e24f500003003c001cc9bf0033
:103194000004e00018003a00e8c9bf00684060007d
:1031a4000004e00014003200dfc9bf00e34f500008
:1031b40011003a006e100700b3100700ecc9bf00fd
:1031c4000042b2000004e000020032009a0f07003f
:1031d40007003700c841a800204f8000b00e8800c7
:1031e400104f8000c00e8800004f8000d00e880071
:1031f4000000000009003700e8c9bf006840600013
:103204000004e00004003a008b0f070003003700bd
:10321400890f070001003700000000000080fa0059
:10322400000006000200fa000000eb00000f780026
:103234000b0037001e007800c200dd0080982000db
:10324400008040001000be001e017800c211dd00a5
:10325400c28e2000028141000089be001e0fe800da
:103264001e007800e30f5000f2ff34000a0a070042
:10327400e202a9000080fa00000006000400fa003f
:10328400881f7800008fbe0018c0b3006011b8001a
:103294001e00be003af807000000e00001003500ff
:1032a4000044eb000804e000050032001e00be00ec
:1032b40001f0a200008fbe001e00be000100370016
:1032c4001e00be004f0478000080fa0000000600d3
:1032d4000400fa00889fbe008a1f7800004b80001b
:1032e400114b8000e5ff070018c0b300a2702d0049
:1032f40033da230022f807000000e0000100350063
:103304000044eb000804e00035003200e8c9bf00c7
:103314000044b2000004e00031003a00ecc9bf00f0
:10332400684060000004e0002d0032006049800025
:1033340071498000a04b8800b14b88000000eb006d
:10334400000f7800210037001e0078004200dd00e5
:10335400a102200080804000e09120000080400015
:1033640010027800900290003041800041418000ba
:103374000001be000400be005bf807000004be00ac
:10338400144180002541800030418000414180008b
:103394000001be000400be0053f807000001be0097
:1033a4000800be003ef9070002002000832c240020
:1033b4001afa07001e017800c211dd00829820006d
:1033c400028141000089be001e0fe8001e00780043
:1033d400e30f5000dcff3400e949a8002a0037005d
:1033e4006849800079498000304180004141800073
:1033f400a2702d0033c2230044f807001ac0b300a2
:103404000001be000800be00ddf707000000e00078
:10341400010034000045eb000a04e0001a00320009
:103424000000eb0010079800090037001e00900010
:10343400c200dd0080982000008140006000b800d8
:103444000089be001e0090000000e80010079800ec
:103454001e009000e30f5000f4ff34003041800060
:10346400414180000200200003082400ebf907001a
:10347400a2702d0033c2230024f80700a04b88005b
:10348400b14b8800e949a8004f0578004f04be00fd
:103494000080fa00000006000400fa00804b80005f
:1034a400914b800001f0a200008fbe00d6c9bf007e
:1034b400e44f50000b003a001e01be00c24c8800cd
:1034c400d34c880050c0b300d6e9b7001cc9bf0074
:1034d400e54f50000200320010c0b3001ce9b700f1
:1034e400e849a900d6c9bf00e14f500007003a00df
:1034f4006000b800c04c8800d14c8800ce0e070094
:1035040040c0b300d6e9b700e849a8000080fa003b
:10351400000006000200fa00000f78001e00780088
:1035240080004000609f200000804000100178006f
:103534009e007800c00320000088b90000007800d5
:103544008200400080a120000080400010407800ec
:103554000004e0000a003a001e00780080004000e9
:10356400609f2000008040008000eb00010878008c
:1035740040a920001e0040008040eb000148780074
:103584000080fa00000006000600fa0020079800f8
:103594000040eb00004f78000000eb00100798009b
:1035a4002e0090006f006000100798001e0090002d
:1035b400e90f500005003c001e0090000040780018
:1035c4000043b000004f7800040037001e00900054
:1035d400004078007043b000004f78001e4078002f
:1035e4000080fa00000006000200fa00000f7800d4
:1035f4001e007800e10f500009003400a0012000f3
:10360400630d07001e00780080004000e09f20004a
:10361400008040008000eb00010878000f003700b4
:1036240040a920001e004000104078000004e00083
:10363400090032001e0078000000e00003003200a0
:1036440080022000520d07000400370070022000a1
:103654004f0d070001003700000000000080fa0051
:10366400000006000600fa00881f78001007980082
:10367400210798002e009000dbff07009e009000b9
:1036840000002f00008060004c00de0080407800c5
:103694002e0090004201dd0020a020000000410027
:1036a400014878009e00900000f020000080600037
:1036b4000000e00001003d00f00fb0004880de0093
:1036c400804078002e0090004201dd0030a02000f0
:1036d40000004100014878009e009000000f200087
:1036e400008060000000e00001003d006f00400029
:1036f4004480de00804078002e0090004201dd000e
:1037040040a0200000004100014878001e00900005
:1037140000407800ef4060002e0090004201dd0080
:1037240050a020000000410001487800ae00900045
:1037340060a920000080400011c0b3000148780057
:103744002e00900080004000609f20000080400018
:1037540010017800ae009000c00320000088b9007a
:10376400000078008200400080a12000008040001a
:1037740001c3b300014878002e009000800040008f
:10378400609f20000080400090007800a00320008b
:10379400808f50000b003e002e00900080004000ff
:1037a400609f200000804000100078008000e80046
:1037b4002e00900000014000609f200000004100a6
:1037c400010878002e00900080004000609f2000d7
:1037d4000080400010017800ae009000c00320007b
:1037e4000088b900000078008200400080a1200019
:1037f4000080400081c7b300014878002e0090008b
:1038040080004000609f200000804000900078000d
:10381400a0032000808f50000b003e002e0090007b
:1038240080004000609f200000804000100078006d
:103834008000e8002e00900000014000609f2000fe
:1038440000004100010878000000eb00000f780040
:103854002a0037002e00900080004000609f200066
:1038640000804000100478002e0090004200dd002b
:103874009e00400020a020000080400010407800fe
:103884000000fb0040ff070000417800ae009000fc
:10389400c00320000088b9000000780088004000c0
:1038a40080a1200000804000024878002e00900093
:1038b40080004000609f200000804000900078005d
:1038c400a0032000808f50000b003e002e009000cb
:1038d40080004000609f20000080400010007800bd
:1038e4008000e8002e00900000014000609f20004e
:1038f40000004100010878001e0fe8001e00780057
:10390400e30f5000d3ff3400ae00900060a9200004
:10391400008040008040eb00014878004f047800ac
:103924000080fa00000006000200fa00000f780090
:1039340040a920001e004000104078000004e00070
:103944001f003a0040a920001e00400011c0b3002f
:10395400014878001e00780080004000609f20002d
:1039640000804000100178009e007800c003200011
:103974000088b900000078008200400080a1200087
:10398400008040008040eb00014878001e00780071
:1039940080004000609f2000008040008000eb0019
:1039a400010878001e0078000000e00002003200e8
:1039b4008720a800030037008540a80001003700d5
:1039c400000000000080fa00000006000400fa0075
:1039d400000f7800110798001e00900002ff0700f6
:1039e4009e00900060a920000080400011c0b30038
:1039f400014878001e00900080004000a09f200035
:103a0400008040008000eb0001087800320037009d
:103a14001e00900080004000609f20000080400055
:103a2400900178001e00900080004000a09f2000bc
:103a340000804000100078001e0040001041780013
:103a44009e009000c00320000088b90000007800a8
:103a54008300400080a120000080400002487800dc
:103a64001e00900080004000609f20000080400005
:103a740090007800a0032000808f50000b003e00cf
:103a84001e00900080004000609f200000804000e5
:103a9400100078008000e8001e0090000001400043
:103aa400609f200000004100010878001e00900083
:103ab40080004000a09f200000804000100078009b
:103ac4008000e8001e00900000014000a09f20003c
:103ad40000004100010878001e00900080004000b2
:103ae400a09f200000804000100078001e004000cd
:103af400104078000004e000c5ff3a009e009000ea
:103b040060a92000008040008040eb00014878005c
:103b14000080fa00000006000200fa00000f78009e
:103b24001e00780080004000609f2000008040005c
:103b3400900178001e00780080004000e09f200083
:103b440000804000100178001e0078006700b90072
:103b54000000780082004000a0a020000080400007
:103b6400104178009e007800c00320000088b9004e
:103b7400000078008300400080a120000080400005
:103b8400024878001e00780080004000609f2000fa
:103b94000080400090007800a0032000808f500037
:103ba4000b003e001e00780080004000609f200053
:103bb40000804000100078008000e8001e007800bb
:103bc40000014000609f20000000410001087800cf
:103bd4000080fa00000006000800fa00889fbe007a
:103be4001007980021079800320798003e009000c3
:103bf40080004000e09f2000008040008000eb0037
:103c040001087800e19e20003e0090004200dd00a3
:103c1400008140006000b8000089be00be00900032
:103c240020a92000008040008040eb00014878007b
:103c34000000eb00000f78003e0090006700b90020
:103c440080007800a0a020000080400001c2b300e2
:103c54000148780018c0b3006011b8001e0090003d
:103c6400ae009000c6f507000000e000010035003a
:103c74000044eb000804e0000e0032001e00900037
:103c8400ae00900001f0a2001007980021079800f0
:103c94003e0090006700b90080007800a0a02000da
:103ca40000804000d1c2b300014878001000200019
:103cb400000f780018c0b300f2ff2300c361240092
:103cc4001e009000ae009000aff507000000e00079
:103cd40001003c000044eb000804e0000d00320049
:103ce400f0ff2300c1612400100798002107980009
:103cf4003e0090006700b90080007800a0a020007a
:103d040000804000f1c3b300014878001000200097
:103d1400000f780002002000a34724001e0090003a
:103d2400ae009000def60700e39e20003e01900006
:103d34004211dd00028141000089be003e00900076
:103d440080004000e09f20000080400010007800c8
:103d54008000e8003e00900000014000e09f200049
:103d64000000410001087800580037003e00900030
:103d740080004000e09f2000008040001000780098
:103d8400e50f500012003a003e0090006700b900b1
:103d940080007800f0a0200000804000e1c2b30061
:103da400014878003e00900080004000e09f200021
:103db40000804000100078008000e8003e00900081
:103dc40000014000e09f200000004100010878004d
:103dd400e19e20003e0090004200dd000080400093
:103de4001000be006af50700804078003e01900094
:103df40020a9200000004100014878003e00900006
:103e040080004000e09f2000008040009001780086
:103e1400be00900020a920000080400010407800df
:103e24000043b000004178003e0090006700b900f4
:103e34000000780083004000a0a020000080400023
:103e4400024878003e00900080004000e09f20007f
:103e540000804000100078008000e8003e009000e0
:103e640000014000e09f20000000410001087800ac
:103e7400e19e20003e0090004200dd0000804000f2
:103e84001004be00be00900020a920000080400065
:103e9400104078000000fb00cf80de0078f50700ba
:103ea4000001be000800be008ff5070002002000dc
:103eb4000312240059f70700e39e20003e019000fe
:103ec4004211dd00028141000089be003e009000e5
:103ed40080004000e09f2000008040001000780037
:103ee400e80f5000a1ff36003e0090008000400023
:103ef400e09f2000008040008000eb000108780073
:103f04003e009000b8fd0700be00900060a92000ac
:103f14000080400011c0b3000148780095003700cc
:103f24003e00900080004000e09f200000804000a0
:103f3400100078008000e8003e009000000140007e
:103f4400e09f2000000041000108780001003700d4
:103f5400000000003e00900080004000e09f200030
:103f640000804000100178003e0090006700b90016
:103f74000000780082004000a0a0200000804000e3
:103f84009040780000c3b30080cf50000d003a0089
:103f9400be00900000a9200000804000104078007e
:103fa4000004e00007003a003e009000800040005a
:103fb400e09f20000080400010007800e20f5000d5
:103fc400d7ff3600be00900080a92000008040008a
:103fd400104078000004e000270032003e0090000a
:103fe40080004000e09f2000008040001001780025
:103ff4003e0090006700b900000078008200400095
:10400400a0a0200000804000104078000000fb00c9
:1040140001022000810f500005003200d10220006f
:10402400810f50000e003a003e009000bafe0700d7
:104034003e00900080004000e09f2000008040008f
:10404400100078008000e8003e009000000140006d
:10405400e09f2000000041000108780000000000fb
:10406400be00900080a92000008040008040eb004a
:10407400014878000d0037003e009000a6fe0700be
:104084003e00900080004000e09f2000008040003f
:10409400100078008000e8003e009000000140001d
:1040a400e09f200000004100010878003e009000dd
:1040b40080004000e09f2000008040001001780054
:1040c4003e0090006700b9000000780082004000c4
:1040d400a0a02000008040009040780000c3b300fe
:1040e40080cf5000230032003e009000800040004a
:1040f400e09f200000804000100178003e00900006
:104104006700b9000000780082004000a0a02000f1
:104114000080400090407800d0c2b30080cf5000af
:10412400140032003e00900080004000e09f200018
:1041340000804000100178003e0090006700b90044
:104144000000780082004000a0a020000080400011
:104154009040780000c2b30080cf500005003200c8
:10416400be00900000a92000008040008040eb00c9
:10417400014878003e00900080004000e09f20004d
:104184000080400010007800e80f500070ff3600f7
:10419400be00900000a92000008040008040eb0099
:1041a40001487800be00900060a920000080400013
:1041b4008040eb00014878004f04be000080fa0004
:1041c400000006001200fa005007980061079800ea
:1041d40072079800030f98000240220043972400be
:1041e4007e0090008e0890008cf60700008fbe00c1
:1041f4005e019000ee0190001e00be00a8f50700cd
:104204000200200003182400a5f507000200200086
:1042140003f82300b4f4070020079800310798003e
:104224002e009000be0090007af40700400798002a
:104234004e0090000080fa00000006000000fa0022
:1042440000002000812c24001040880021408800b8
:104254000000200001122400304088004140880002
:104264006000b80050408800614088006000b800d9
:1042740070408800814088006000b8009040880049
:10428400a14088006000b800b0408800c1408800a8
:104294006066260061f62300d0408800e140880073
:1042a4000000200081082400f040880001418800bb
:1042b40060662600610824001041880021418800be
:1042c4006066260061022400304188004141880074
:1042d4000000200001022400504188006141880050
:1042e4000000200001002400704188008141880002
:1042f4000000200001f8230090418800a1418800bb
:104304000000200001f02300b0418800c141880072
:104314006066260061022400d0418800e1418800e3
:104324000000200001102400f041880001428800b0
:1043340000002000811024001042880021428800df
:10434400000020000112240030428800414288000d
:1043540000002000011724005042880061428800b8
:10436400000020000122240070428800814288005d
:1043740000002000c120240090428800a14288004f
:1043840000002000811c2400b0428800c142880043
:104394006000b800d0428800e1428800000020009c
:1043a40001122400f042880001438800000020002c
:1043b400c125240010438800214388000000200008
:1043c40081242400304388004143880000002000f9
:1043d4000117240050438800614388000000200036
:1043e40001272400704388008143880000002000d6
:1043f400012a240090438800a14388000000200083
:1044040081242400b0438800c143880000002000b8
:10441400011f2400d0438800e143880000002000ed
:1044240001122400f04388000144880060ba290086
:1044340041c423001044880021448800200426003d
:1044440051c623003044880041448800800720007e
:104454005044880020c1b30090e8b700e0c0b30026
:1044640091e8b70060c1b30092e8b7009368ef0029
:10447400c0cfb300c0e8b70030c0b300c1e8b70094
:1044840080c0b300c2e8b700a0c0b300c3e8b7005f
:1044940000c1b300c4e8b70020c0b300c5e8b7004a
:1044a400f0c0b300c6e8b70040c0b300c7e8b70027
:1044b400c868ef00dc68ef0040c0b300dde8b70077
:1044c400de68ef00df68ef008e68ef0010c0b30015
:1044d4008fe8b700503323000047880060c4b3005e
:1044e4001de9b700530607000080fa00000006002b
:1044f4000200fa00ec49a9006000b800a049880055
:10450400b14988006000b800c0498800d1498800da
:104514006000b800604b8800714b88006000b800f0
:10452400204b8800314b88006000b800404b880065
:10453400514b88006000b8006049880071498800c8
:104544000000eb00000f78001e007800c200dd00c0
:1045540080982000008140006000b8000089be00ff
:104564001e0fe800f8ff37000000fa00889fbe0025
:1045740000bf2000000188003840800049408000ce
:10458400144080002540800030408000414080007d
:104594000001be000400be00dcf307000001be0001
:1045a4000800be00bef40700004c8800114c8800cf
:1045b400ec89a800ec09a900b4418000c541800041
:1045c400d0418000e14180000001be000400be0033
:1045d40092f50700a0588800b1588800c4ff07006e
:1045e40081e0a9008420ef008620ef008820ef00fe
:1045f400ff3ffc008c20ef008e20ef009020ef00a6
:104604008c60a8008d20a8008d40a8008f00a80011
:104614008f20a8008c00a800e929a8008e00a8001b
:104624008ee0a9008cc0a8008ea0a8008ec0a800af
:104634008d60a8008200a9008240a9005220ef00ea
:10464400a1e2a800c1e1a80011e1a80005e1a800c9
:104654001fe1a80021e1a8000de2a8000f42a80074
:1046640017e2a8001942a8004f04be000080fa0017
:10467400000006000000fa009dff0700ff3ffc0059
:104684008420ef008620ef008820ef008c20ef00cc
:104694008e20ef009020ef008d20a8008d40a80010
:1046a4008f00a8008f20a8005220ef00a1e2a900eb
:1046b400c1e1a90011e1a90005e1a90013e1a900e4
:1046c4001fe1a90021e1a9000de2a8000f42a80002
:1046d40017e2a8001942a8000080fa0000000600b2
:1046e4000000fa00540a0700a1e2a90011e1a900a0
:1046f40013e1a9001fe1a90021e1a9008e00a9008e
:104704008cc0a9008ce0a9008ea0a9008ec0a900cd
:104714008220a9008240a900007020001057880060
:10472400ec89a900ec09a8000080fa00000006004a
:104734000000fa00e8a9a900e849a900c1e1a9001c
:1047440005e1a9008420ef008620ef008820ef0017
:10475400ff3ffc008c60a9008d60a9008220a900a5
:104764008240a900deff0700ec29a8000080fa00bf
:10477400000006000400fa00000f780011079800fa
:104784001e0090008000400080ac200000804000ab
:104794008000eb00010878001e00900080004000bb
:1047a40000ac2000008040008000eb00010878008d
:1047b400dd0037001e0090008000400000ac2000a7
:1047c40000804000100178001e0078006600b900e7
:1047d400800178001e0090007800b9000000780085
:1047e4000080410002004000810a200080804000d7
:1047f4000080200000804000104078008000fb0012
:104804001e0090000001400040ac20000000410068
:10481400010878001e0090008000400040ac200099
:104824000080400090007800f00f2000808060003d
:104834001e0090000001400040ac20000000410038
:10484400010878001e0090008000400040ac200069
:104854000080400010007800ed0f500005003e007d
:104864009e00900080a920000080400011c0b30089
:10487400014878001e0090008000400040ac2000f9
:104884000080400010007800ee0f500005003a0050
:104894009e00900000a920000080400011c0b300d9
:1048a400014878001e0090008000400040ac2000c9
:1048b40000804000100078000000e000a2003200f8
:1048c4001e0090008000400040ac200000804000aa
:1048d40090007800b00f2000808f50002d0036002b
:1048e4001e0090008000400040ac2000008040008a
:1048f40010007800d10f2000810f50001200320008
:10490400d10f2000810f500004003e00c10f200091
:10491400810f50000800320017003700e10f20001b
:10492400810f50000c003200f10f2000810f500065
:104934000d003200100037009e0090000089200016
:1049440022fc07000c0037009e00900060892000c4
:104954001efc0700080037009e009000c08920005c
:104964001afc0700040037009e009000208a2000f3
:1049740016fc0700000000001e00900080004000ac
:1049840080ac200000804000110020000108780065
:104994005a0037001e0090008000400040ac200008
:1049a4000080400010007800f80f500053003e00d3
:1049b4001e0090008000400040ac200000804000b9
:1049c40010007800f70f50000d0032001e00900018
:1049d4008000400040ac20000080400010007800bf
:1049e4004200dd008080e800e0912000008140006a
:1049f40012007800920090001e01900076fc0700df
:104a04001e00900080004000609f20000080400055
:104a1400100078008080e9001e0090000001400032
:104a2400609f200000004100010878001e009000f3
:104a34008000400040ac200000804000100078005e
:104a4400e10f5000070032001e009000800040007b
:104a540040ac20000080400010007800ee0f5000b1
:104a64000b003a001e00900080004000609f200070
:104a740000804000100078008080e9001e00900053
:104a840000014000609f2000000041000108780000
:104a94001e0090008000400040ac200000804000d8
:104aa400100078008000400080272900008040002a
:104ab400100078009e009000c4fb07001e009000c8
:104ac4008000400040ac20000080400010007800ce
:104ad400f00f5000030032009e009000a053290004
:104ae400bafb07001e0090008000400080ac20004c
:104af4000080400011002000010878001e00900092
:104b04008000400000ac20000080400010007800cd
:104b14008000e8001e0090000001400000ac20006e
:104b240000004100010878001e0090008000400051
:104b340000ac20000080400010007800e50f500019
:104b44001cff360001003700000000001e0090002a
:104b54008000400080ac20000080400010007800fd
:104b64000000e000020032001e0090006efb07000f
:104b74000080fa00000006000200fa00000f78002e
:104b8400e20820009e0041000080200000804000d8
:104b9400104078000004e0006300320040a92000c7
:104ba4001e004000104078000004e0005e003a005f
:104bb400e8c9bf00684060000004e0005a00320009
:104bc400c0ac20001e004000104078000004e0004b
:104bd4004e003a001e00780080004000c0ab200068
:104be40000804000100078009e007800e1fe07007d
:104bf4001e00780080004000c0ab20000080400010
:104c0400100078009e007800c208dd00008040009b
:104c1400810d200080804000008020000080400042
:104c2400104078000040e90080407800c0ac2000cb
:104c34001e00400001487800c0ac20001e00400067
:104c4400104078000004e00004003d00c0ac2000e7
:104c54001e0040008040eb00014878001e007800f0
:104c640080004000c0ab20000080400010007800ad
:104c7400e30f50001e003e001e007800800040003c
:104c8400c0ab200000804000100078006600b9002e
:104c9400000178001e0078007800b9000000780058
:104ca40000004100810a2000808040000080200034
:104cb40000804000104078000004e0000c00320046
:104cc4001e00780080004000c0ab2000008040003f
:104cd400100078008000e8001e0078000001400009
:104ce400c0ab200000004100010878000e0037002e
:104cf4001e00780080004000c0ab2000008040000f
:104d04008000eb000108780007003700c0ac2000e9
:104d14001e004000104078008040e900c0ac200034
:104d24001e004000014878000080fa0000000600e0
:104d34000200fa00000f7800010037000140fe0075
:104d440040a920001e004000104078000004e0004c
:104d5400faff3a000080fa00000006000400fa009e
:104d6400100798009e009000c053290017fb07000d
:104d74001e009000ecfa07001e0090008000400026
:104d840080ab2000008040008000eb000108780028
:104d94001e009000e6ff0700c0488000ea0f5000a4
:104da400050036009e009000e054290007fb070030
:104db4001e009000dcfa0700c04880000000e000fc
:104dc40048003a009e00900000562900fffa0700b0
:104dd4001e009000d4fa07004b0037001e0090001c
:104de400d3ff07009e00900020572900f7fa070020
:104df4001e0090008000400080ab20000080400036
:104e0400100078007100400080004000208e2000d7
:104e140000804000100078009e00900011fa070006
:104e24009e00900090572900e8fa07001e009000a9
:104e34008000400080ab200000804000100078001b
:104e44007100400080004000208e2000008040005f
:104e540010007800000f78001e0078000000e000c9
:104e640004003200600320009e007800808f500010
:104e740008003c001e00e90080004000a04c29000e
:104e840000804000100078009e009000cffa0700d8
:104e9400030037009e009000204c2900cbfa070045
:104ea4009e009000e0572900c8fa07001e009000f9
:104eb4009dfa07001e0090008000400080ab200097
:104ec40000804000100078008000e8001e00900080
:104ed4000001400080ab2000000041000108780080
:104ee40001003700000000001e0090008000400018
:104ef40080ab20000080400090007800c048800013
:104f0400808f5000b5ff39000080fa0000000600d1
:104f14000600fa00200798000000eb00000f78005c
:104f24002e0090006600b900000078008000e800c0
:104f340020aa200000804000104078008000fb0080
:104f4400f00f20000080600010079800dbc9bf004c
:104f54008000fb001e009000808f5000060034008b
:104f64001e0090008000400000802000008040006f
:104f7400100f78002a003700dbc9bf008000fb0057
:104f8400dcc9bf000000fb00808040001e009000d0
:104f9400808f500009003400dbc9bf000000fb0013
:104fa4009e0090000080500080004000208e200071
:104fb40000804000100f780019003700dbc9bf00e3
:104fc4008000fb00dcc9bf000000fb0080804000c3
:104fd400ddc9bf000000fb00808040001e0090007f
:104fe400808f50000c003400dbc9bf008000fb0040
:104ff400dcc9bf000000fb00008040009e00900060
:105004000080500080004000e091200000804000bb
:10501400100f7800020037000080eb00000f7800ca
:10502400ae0090001e0078008ef907000080fa00a0
:10503400000006000400fa0010079800a5003700dd
:105044001e0090000000e0000f0032001e009000df
:1050540080004000a0a9200000804000900178005a
:10506400e0108000004178001e0090006600b90046
:10507400000078008300400020aa20000080400047
:10508400024878000e0037001e00900080004000a7
:10509400a0a92000008040009001780090108000ba
:1050a400004178001e0090006600b90000007800fe
:1050b4008300400020aa20000080400002487800bd
:1050c4009e00900090b220000080400010407800c4
:1050d4000004e0003c0032001e009000800040000c
:1050e400a0a9200000804000100178001e0090005c
:1050f4006600b900000078008200400020aa200069
:105104000080400010407800ed4f50000e003a003f
:105114001e00900080004000a0a9200000804000f4
:10512400100178001e0090006600b90000007800ad
:105134008200400020aa2000008040001040780037
:10514400ea4f5000200032001e0090000000e000f2
:105154000f0032001e00900080004000a0a9200033
:1051640000804000100178001e0090006600b90025
:10517400000078008200400020aa20000080400047
:10518400104078000000fb00d01088000e003700ab
:105194001e00900080004000a0a920000080400074
:1051a400100178001e0090006600b900000078002d
:1051b4008200400020aa20000080400010407800b7
:1051c4000000fb00801088001e009000800040005a
:1051d400a0a9200000804000100178001e0090006b
:1051e4006600b900000078008200400020aa200078
:1051f40000804000104f78001e407800ed4f5000b2
:10520400030032001e407800ea4f50001f003a00ad
:105214009e00900090b22000008040001040780072
:105224000004e000030032009e009000e0572900d3
:10523400e6f907001e00900080004000a0a92000ad
:1052440000804000900078001e00900000014000a3
:10525400e0a9200000004100010878001e00900031
:1052640080004000a0a92000008040008000eb00e6
:10527400010878009e009000e0aa20000080400011
:1052840011c0b30001487800120037001e009000de
:1052940080004000a0a92000008040001000780099
:1052a400e30f50000b003e001e0090008000400001
:1052b400a0a9200000804000100078008000e800d1
:1052c4001e00900000014000a0a920000000410041
:1052d400010878001e0090000000e00004003a007d
:1052e4000ec2bf00614060000004e00007003a0005
:1052f4001e009000e10f50000a003a0018c2bf00df
:10530400614060000004e000060032009e0090004e
:10531400e0aa200000804000104078000004e00073
:1053240047ff32009e009000e0aa20000080400069
:10533400104078000004e000790132009e009000e3
:1053440090b2200000804000104078000004e0008b
:10535400030032009e009000105829009bf90700ba
:10536400c04880000000e000090032009e00900068
:1053740090b2200000804000104078000004e0005b
:10538400030032009e009000305829008ff9070076
:105394001e0090008000400040ab200000804000d0
:1053a400100178001e0090006600b900000078002b
:1053b4008200400020aa20000080400010407800b5
:1053c4000000fb006101b90060ff2f00f1ff2f0016
:1053d40002004000838048004207200003002000b0
:1053e400820f5000838f58002d013e0000600100a1
:1053f400350137002a01370029013700320137000f
:105404002701370026013700250137002401370022
:105414002301370022013700210137002001370022
:105424001f0137001e0137001d0137001c01370022
:105434001b0137001a013700190137001801370022
:105444001701370016013700150137001101370025
:10545400130137005b00370067003700890037000d
:10546400760037000e0137000d0137000c013700bc
:10547400040137000a013700090137000801370029
:105484000701370006013700050137000401370022
:105494000301370002013700010137000001370022
:1054a400ff003700fe003700fd003700fc00370026
:1054b400fb003700fa003700f9003700f800370026
:1054c400f7003700f6003700f5003700f400370026
:1054d400f3003700cb003700f100370081003700bc
:1054e4008e003700ee00370077003700ec003700fd
:1054f400eb003700ea003700e9003700e800370026
:10550400e70037009f00370087003700e4003700ca
:10551400e30037007f003700e1003700e000370088
:10552400df003700de003700dd003700dc00370025
:10553400c6003700da003700d9003700d80037003a
:10554400d7003700d6003700d5003700d400370025
:10555400d3003700d2003700d1003700670037008e
:10556400cf003700ce0037005a003700cc00370098
:10557400cb003700ca003700c9003700c800370025
:10558400c70037008f00370072003700c4003700af
:10559400c3003700c2003700c1003700c000370025
:1055a400bf003700be003700bd003700bc00370025
:1055b400bb003700ba003700b9003700b800370025
:1055c4003c0037001e00900080004000a0a920008d
:1055d400008040008000eb00010878009e009000ed
:1055e400e0aa2000008040008040eb0001487800e1
:1055f4000000fe00b90037009e00900050582900ba
:10560400f2f80700604480009e00900015f807003f
:105614009e00900050592900ecf80700350207005d
:10562400c05680009e0090000ef807009e00900077
:10563400e0572900e5f80700a80037009e00900015
:10564400f0592900e1f80700f01f2000e8010700e5
:105654009e00900003f807009e0090005059290016
:10566400daf807003a020700d05680009e00900046
:10567400fcf707009e009000e0572900d3f80700cc
:10568400960037009e00900090b2200000804000f9
:10569400104078000004e000030032009e009000f7
:1056a400f05a2900c9f80700c5000700fa000700ee
:1056b4008a003700e1fa07000000eb002b01070025
:1056c400e80107008500370010c0b3001ce9b700eb
:1056d4008200370050c0b3001ce9b700ee00070099
:1056e4007e0037009e00900090b2200000804000b1
:1056f40011c0b30001487800780037009e00900084
:1057040090b22000008040008040eb000148780007
:1057140072003700ec29a800700037001e009000ca
:105724008efd07006d0037009e00900090b22000af
:1057340000804000104078000004e00003003200c4
:105744009e009000c05c2900a0f80700e8a9a8000a
