:020000040000fa
:080000000001040000000000f3
:020000040000fa
:04000c00720200007c
:020000040000fa
:040010008202000068
:020000040000fa
:040014007a0200006c
:020000040000fa
:040018008a02000058
:020000040000fa
:040024009a0200003c
:020000040000fa
:040028006c07000061
:020000040000fa
:04003400880c000034
:020000040000fa
:040040009207000023
:020000040000fa
:04004400cc010000eb
:020000040000fa
:04004c007c10000024
:020000040000fa
:04005000d2010000d9
:020000040000fa
:040054000e0b00008f
:020000040000fa
:04005c006e02000030
:020000040000fa
:04006000c0020000da
:020000040000fa
:040068004807000045
:020000040000fa
:04007c007404000008
:020000040000fa
:04008000a0020000da
:020000040000fa
:04008800581000000c
:020000040000fa
:04008c001e02000050
:020000040000fa
:0400d4009202000094
:020000040000fa
:100200004fc220000eff20000e01880000000000f9
:10021000000020000000e000020032000001200089
:100220002002880014000700c50707000000e00056
:1002300003003a00200f26000100200002003700d2
:100240000000200001002000810f7000010032003a
:1002500014000700000020000000e000020032004f
:1002600000000200000000007a60020000000000b0
:100270000040da000000fe004440a90020362100c2
:100280000000e0000300320000002000a001880010
:100290004440a800000006008a1f78008b1f7800e9
:1002a0000000060091018800800478000000eb0047
:1002b0001a003700e284440032a0b4009905ba0065
:1002c000e284440032a0b4009906ba00e2844400fb
:1002d00032a0b4000006eb00476fde00fd07b2005d
:1002e000636ce10003003a00ebff07000000eb0045
:1002f0000a003700606ce10004003a00005deb008a
:100300008b05e900fdff3e00040037006168e10055
:10031000010032000086eb000b00070019c7ba008d
:100320001905ba000e04e00003003a000a00e000dc
:10033000e0ff3a0000000600fe07b2009e018800c0
:100340008a047800f5ff3700395dba008b05e900b3
:100350000c003200295dba008b05e900080032006c
:100360000c00e00003003a00e284440032a0b40034
:10037000f5ff370019ddba008b05e900faff3a00f6
:100380008904e800e184440032a0b40000000600c3
:10039000000000000000000084e0a9007868ec0084
:1003a000004006003600f800809fbe00829fbe001d
:1003b000849fbe00869fbe008540a9000fc2bf007b
:1003c0000018a30015003a0041448000d0b020007e
:1003d00060c078000004e00010003200b848e2007d
:1003e0000e003200d2b02000028140000000fb006d
:1003f000801088008100e8000fc2bf000018a30031
:1004000005003a00524078000004e000f7ff3a008f
:100410004144880001003700414488000000eb009f
:100420003e1507004f03be004f02be004f01be0045
:100430004f00be003600f900004006003600f8000c
:10044000809fbe00829fbe00849fbe00869fbe002c
:100450008720a90019c2bf000018a30017003a00a6
:10046000514480004006200001004000d2b020002e
:10047000624078000004e00010003200b948e20059
:100480000e00320012b72000028140000000fb0085
:10049000d01088008100e80019c2bf000018a30036
:1004a00005003a00524078000004e000f7ff3a00ef
:1004b000514488000100370051448800100020009a
:1004c000161507004f03be004f02be004f01be00cd
:1004d0004f00be003600f9000040060085a0a900cc
:1004e000004006000c0ba8008020a9000000fe00c0
:1004f000004006000c2ba8008040a9000000fe0070
:10050000004006000c4ba8008060a9000000fe001f
:10051000004006000c6ba8008080a9000000fe00cf
:10052000004006000c8ba8008960a9000000fe00b6
:10053000004006000caba8000000fe0000400600d2
:100540003600f800809fbe00829fbe00849fbe00e0
:10055000869fbe0086c0a9000000eb003c2007007b
:10056000100020003a2007004f03be004f02be00db
:100570004f01be004f00be003600f90000400600eb
:100580003600f800809fbe00829fbe00849fbe00a0
:10059000869fbe0085c0a900a00020000140fe008b
:1005a0000000e900fdff3a000842e20009003d00ba
:1005b000418c2000914078008180fb0010042000d5
:1005c000c91c070008e2a900c468ef000642a800a1
:1005d000bf003700c4c8bf000080fb008000eb00f4
:1005e00062005000e0805800ea0f5000e08f580091
:1005f000b4003e00006001000a0037001f00370011
:1006000027003700300037003c0037004500370036
:10061000490037005a0037006b0037009d00370053
:10062000a600370006c2bf000008a30006003a007b
:100630000602a80030c0b300c4e8b70000012000e3
:10064000d0608800a200370008c2bf000038a300b5
:1006500005003200110f2000f0032000a21c07004b
:10066000c468ef009a00370021002000f00320004a
:100670009d1c0700c468ef0095003700bec8bf008e
:100680000080fb00000040001010880040c0b30054
:10069000c4e8b70000012000d06088008c0037005b
:1006a0000942e20006003d00410020003004200025
:1006b0008d1c0700c468ef001aacef0084003700ff
:1006c00050c0b300c4e8b700bfc8bf000080fb0043
:1006d0001010880000012000d060880009cbbf0006
:1006e0000038a30003003a0090c0b300c4e8b7008c
:1006f00077003700c468ec00750037000942e2005b
:1007000006003d006100200030042000761c070038
:10071000c468ef001aacef006d00370070c0b30082
:10072000c4e8b7000622a800c468ec00000120005d
:10073000d06088006600370009cbbf000038a300f6
:1007400005003a00bec8bf000080fb00000040006a
:100750001010880005003700bec8bf000080fb00f5
:10076000000040000000a0001010880090c0b300fe
:10077000c4e8b70000012000d060880054003700b2
:100780000942e20006003d009100200030042000f4
:10079000551c0700c468ef001aacef004c0037008e
:1007a000a0c0b300c4e8b70000012000d0608800fa
:1007b00009cbbf000038a300030032000662a80086
:1007c000098ba8004200370009cbbf000038a30006
:1007d0001c0032000046800011468000810f50004e
:1007e00018003100fd0f500016003e0092b02000ae
:1007f000124178000248a3000f003200031080006d
:1008000052bd2000037178008100e900810f500083
:1008100004003a0006a2a800c0c0b300c4e8b700b4
:100820000100370006a2a9000682a800098ba900d2
:10083000c028ec0026003700098ba8000662a8003b
:100840002300370009cbbf000038a3000e003a0098
:100850000146800010468000810f50000a003600db
:10086000fd8f500008003e0050bd200060c07800a1
:100870000080fb0010108800c468ed008100e800d3
:100880000146880012003700c468ec000001200017
:10089000d06088000942e20008003d00418c200041
:1008a000914078008180fb00300420000e1c07007e
:1008b000c468ef001aacef000500370006a2a900db
:1008c0000642a800c468ef001aacef0007e2a900d6
:1008d0004f03be004f02be004f01be004f00be00de
:1008e0003600f900004006003600f800809fbe0088
:1008f000829fbe00849fbe00869fbe00889fbe0070
:100900008a9fbe008c9fbe000800fa0086a0a90046
:100910006948e200a8003400a8538000b953800061
:10092000a2992900732c24000800be0007060700c6
:100930000000e0001800340009cbbf000058a300fd
:1009400015003a00c87124000001eb008080eb0024
:100950000200780008000100120020008080eb00f7
:100960000000eb00080001000001eb00215f2a00fd
:100970000080eb00751f070012002000215f2a0095
:100980000080eb00711f070010c0b300821b07003e
:10099000080ba800880037000200200083242400f0
:1009a0000800be00e70507000000e00027003d004a
:1009b00009cbbf000058a3002400320008cbbf00c1
:1009c0000008a30021003a00c87124000001eb00d8
:1009d0008080eb0002007800080001001200200077
:1009e0008080eb000000eb00080001000001eb003c
:1009f000015d2a000080eb00541f07001200200058
:100a0000015d2a000080eb00501f07000040eb0052
:100a1000611b0700080ba9006968ed006948e20046
:100a200008003a000001eb0051662a000080eb004c
:100a3000461f07001200200051662a000080eb00cc
:100a4000421f0700621b07005b0037000200200006
:100a5000831c24000800be00bc0507000000e00065
:100a60001f00340009cbbf000058a3001c00320057
:100a700008cbbf000008a30019003a00c871240089
:100a80000001eb008080eb0002007800080001000c
:100a9000120020008080eb000000eb000800010045
:100aa0000001eb0061612a000080eb00271f0700b6
:100ab0001200200061612a000080eb00231f070064
:100ac0000040eb00341b0700080ba9008000eb007e
:100ad00040042000841b07006968ef0036003700df
:100ae00009cbbf000058a30003003a0008cbbf00a9
:100af0000008a30007003a00c0418000d1418000f7
:100b000002002000030424008e0507000000e0001e
:100b100029003d0009cbbf000058a30007003a00a0
:100b200008cbbf000008a300040032001100200021
:100b3000500420006c1b07000a003700c0418000f1
:100b4000d141800002002000030424007d0507003d
:100b50000000e00003003d002100200050042000c0
:100b6000611b0700c87124000001eb008080eb00ce
:100b70000200780008000100120020008080eb00d5
:100b80000000eb00080001000001eb0061612a0099
:100b90000080eb00ed1e07001200200061612a00ba
:100ba0000080eb00e91e07000040eb00fa1a070086
:100bb000080ba9006968ef0066c8bf00e44f500049
:100bc000090034000bcbbf000048a3000400320032
:100bd0005f68ef0050c0b30018ecb7000f0037009b
:100be000491307000d003700a209e2000b00350091
:100bf000184ce20008003c00b0c3b30018ecb7008a
:100c00005f48e20002003c000a2ba8000300370006
:100c10005f68ed0001003700186ced006054800043
:100c2000715480006011b800480507000000e00022
:100c300005003400a0418000b1418000e0bf9f006a
:100c4000f1bf9f00030037006000b800e0bf9f00c5
:100c5000f1bf9f00ac558000bd5580002a54800034
:100c60003b548000c0418000d1418000c0bf9f0044
:100c7000d1bf9f0008cbbf000008a30026003200b0
:100c8000b84b8000c94b80000200200003f82b0005
:100c90000800be002d0507000000e0001e00340023
:100ca0000a01be000c00be004f0707000005be0091
:100cb0004fb99700dfb997006fb89700ffb897005a
:100cc000490707000001be000a00be0079050700c1
:100cd0000001be0003f0a2000800be001b050700d3
:100ce0000000e0000c003400194ce20008003c0059
:100cf0006048e20003003c00080ba900084ba80074
:100d0000030037006068ed00b0c3b30019ecb70012
:100d1000196ced0004003700a449ed0060e8b7004d
:100d2000b0c3b30019ecb7001048800081702000f8
:100d3000810f50000b003a0061862000914078003e
:100d4000e1cf500007003400a51b0700e10f500061
:100d500002003a0010c0b30066e8b7000229ef00b5
:100d6000060037006186200091407800e1cf5000f6
:100d7000020034000000e8001048880066c8bf0088
:100d8000e34f50001100320066c8bf00e14f500031
:100d90000e0034000209e2000c003200c41b070000
:100da0000000e000090032003e22070020488000d9
:100db000e40f50000300340010c0b30066e8b70031
:100dc000020037000000e8002048880066c8bf0025
:100dd000e34f500024003a00204c8000e10f500007
:100de00021003c0009cbbf000008a3001e003a0010
:100df0005a48e2001c003400a0578000b157800020
:100e00000200200003f02300d00407000000e000ef
:100e10000200340020002000204c8800c0578000d1
:100e2000d15780000200200003f02300c704070010
:100e30000000e0000200340030002000204c880058
:100e4000e0578000f15780000200200003f02300eb
:100e5000be0407000000e000020034004000200053
:100e6000204c88008d1907000080fa004f06be0054
:100e70004f05be004f04be004f03be004f02be0030
:100e80004f01be004f00be003600f90000400600d2
:100e90003600f800809fbe00829fbe00849fbe0087
:100ea000869fbe003d2107000acba8008000eb0012
:100eb000900320008c1a07001d1907008600a90066
:100ec0004f03be004f02be004f01be004f00be00e8
:100ed0003600f900004006003600f800809fbe0092
:100ee000829fbe00849fbe00869fbe002b2107000c
:100ef0000acba8008000eb00a00320007a1a0700ac
:100f00007628a8000a1907008400a9004f03be0034
:100f10004f02be004f01be004f00be003600f90078
:100f2000004006003600f800809fbe00829fbe0091
:100f3000849fbe00869fbe00889fbe008a9fbe0021
:100f40008c9fbe008e1f780084c0a900a1e2a8007b
:100f5000d06080000000e000030034000000e900e1
:100f6000d06088000a0037000000e00008003a0066
:100f7000418c2000914078008180fb00000420001b
:100f8000591a07001aacef00c468ef0007e2a90085
:100f9000e0c2bf000018a30003003a004006200092
:100fa000a060880006003700140ce2000400340042
:100fb00066c8bf00e34f500001003200142ced0062
:100fc000404d8000e10f50001f00320003003c0044
:100fd0000000e0000600320051003700e20f500030
:100fe00024003200e30f50004d003a003700370074
:100ff000e0c2bf000018a30011003a0068c8bf009b
:10100000f04f500009003a0008cbbf000008a300d1
:1010100002003200080ba90001003700080ba800ed
:1010200010c1b30068e8b7003d00370068c8bf00d2
:10103000ef4f50003a003c006868ec003800370081
:101040006868ef0036003700e0c2bf000018a30058
:1010500005003a0008cbbf000028a30002003a00b8
:10106000080ba8002e003700080ba900084ba900a8
:101070002b003700485480005954800002002000a3
:10108000030824000800be00300407000000e00050
:101090000500340008cbbf000028a30002003a007e
:1010a000080ba8001e0037000200200003f82300f0
:1010b0000800be00230407000000e00018003d0007
:1010c000080ba900084ba900150037004854800000
:1010d000595480000200200003f823000800be00dd
:1010e000180407000000e00005003d0008cbbf0029
:1010f0000028a30002003a00080ba80008003700ef
:1011000002002000030824000800be000f040700ae
:101110000000e00002003400080ba900084ba90001
:1011200008cbbf000008a3000400320058c8bf006d
:10113000e14f500001003c005868ec00e855800089
:10114000f95580006011b8000800be00ff030700d9
:101150000000e0001700340008cbbf000008a30027
:10116000140032004055800051558000a51307003f
:101170000001be000800be00f20307000000e0000e
:101180000c003d007608ab000a00320057c8bf00d3
:10119000e84f500006003400080ba9008000eb0067
:1011a000f0022000d01907000acba8000100370088
:1011b0005768ec0008cbbf000008a30021003200f4
:1011c000b84a8000c94a8000d24a8000e34a8000c1
:1011d0000800be00370407000200200003f02300cf
:1011e000010607000001be000800be003104070030
:1011f0000004be002b4c80000b00e0001100340006
:101200000005eb00eca620004251dd002202b000f8
:101210000201460012007800920090000801be0012
:10122000c80307000000e00003003d007608ab00a3
:1012300001003200080ba9000a05e8008b0f5500d9
:10124000f1ff3500a0558000b15580002254800088
:1012500033548000e40507000055880011558800cc
:101260000acbbf000048a3008b00320059c8bf0062
:101270000005eb00e74f50002d003c000a04780009
:101280000bad2000eca620004242dd0004854500a5
:101290001a00be002402b0000402460014017800c7
:1012a000940190000c040700008dbe000804e800c3
:1012b000e40f5400f4ff3a00824180009341800023
:1012c000405480005154800003040700804188008e
:1012d0009141880062418000734180006054800029
:1012e00071548000fc030700604188007141880050
:1012f00022418000334180004055800051558000dc
:10130000f5030700204188003141880042418000f8
:1013100053418000c0538000d1538000ee0307008a
:1013200040418800514188005968ec005a0037005c
:101330000dad20000800200009e023000eaf2000c2
:101340004256dd008c8546001b00be000801be0031
:10135000a5050700808dbe000c0647003b1e7800e7
:101360002b1678000a05e800e40f5500f4ff3a0058
:1013700080418000914180000200200003e02300b2
:1013800099050700804188009141880060418000f4
:10139000714180000200200003e023009205070055
:1013a0006041880071418800804180009141800047
:1013b000c0418800d14188006041800071418000b7
:1013c000a0418800b1418800204180003141800067
:1013d0000200200003e0230083050700204188006d
:1013e000314188002041800031418000a0558800b3
:1013f000b15588004041800051418000020020002a
:1014000003e023007805070040418800514188002f
:1014100040418000514180002054880031548800b0
:101420006000b8008056880091568800a056880059
:10143000b1568800c0568800d1568800e056880012
:10144000f156880080418800914188006041880001
:101450007141880040418800514188002041880046
:10146000314188005968ef00492107005ac8bf0080
:10147000e14f500001003c005a68ec00c041800080
:10148000d1418000a2418000b34180005605070091
:1014900020558800315588007608ab0007003200df
:1014a0000acbbf000048a300040032000acbbf00f3
:1014b0000068a30001003a00fd1f07007608ab009a
:1014c000090032000acbbf000048a300060032002a
:1014d0000acbbf000068a30003003a005a48e200ac
:1014e00001003400152207007608ab000700320027
:1014f0000acbbf000048a300040032000acbbf00a3
:101500000068a30001003a00b41f07005a48e20037
:101510000f003400a0558000b15580002254800097
:101520003354800030050700b61207000004be00e7
:1015300000548000115480000801be000103070020
:101540000000e00002003d000854880019548800a3
:1015500048558000595580000800be00a9120700b8
:1015600072712b0013952300f80207000000e000c1
:101570001100340012052a00138123000800be0068
:10158000190507000004be00505080006150800023
:101590000801be00500307005050880061508800c9
:1015a00072508000835080000800be004a0307008c
:1015b000705088008150880017ccbf000040400068
:1015c00017ecb70017ccbf00e84f500008003400fc
:1015d00010c0b30017ecb70009cbbf000018a30080
:1015e00002003200092ba90001003700092ba800d6
:1015f0008c1807004f0778004f06be004f05be004d
:101600004f04be004f03be004f02be004f01be009c
:101610004f00be003600f900004006003600f8001a
:10162000809fbe00829fbe00849fbe00869fbe003a
:10163000889fbe008560a900dc82a80037230700d0
:101640005bc8bf00e14f50006e003c000acbbf00fa
:101650000038a3005600320000148000884080004b
:10166000994080008000eb00f90207000801be00ed
:101670001903070080408800914088008014800092
:10168000c8408000d94080008000eb00f0020700d5
:101690000801be0010030700c0408800d140880048
:1016a00010148000a8408000b94080008000eb004a
:1016b000e70207000801be0007030700a0408800fa
:1016c000b140880020148000e8408000f94080008c
:1016d0008000eb00de0207000801be00fe020700ea
:1016e000e0408800f140880030148000084180000c
:1016f000194180008000eb00d50207000801be0000
:10170000f502070000418800114188000857800059
:1017100019578000401480008000eb00cc020700c5
:101720000001be000800be00eb0207000057880061
:1017300011578800285780003957800050148000c6
:101740008000eb00c20207000001be000800be00de
:10175000e102070020578800315788004857800071
:1017600059578000601480008000eb00b802070029
:101770000001be000800be00d702070040578800e5
:101780005157880068578000795780007014800096
:101790008000eb00ae0207000001be000800be00a2
:1017a000cd0207006057880071578800130037008a
:1017b0006000b8008040880091408800c0408800e8
:1017c000d1408800a0408800b1408800e0408800f7
:1017d000f1408800004188001141880000578800ce
:1017e00011578800205788003157880040578800db
:1017f0005157880060578800715788005b68ec007b
:101800001c0037000acbbf000038a30007003200dd
:1018100040428000514280006011b8008e020700f3
:101820000000e00001003200c01007005b68ef001c
:101830007608ab0001003200c823070066c8bf006d
:10184000e24f500009003c000acbbf000038a30063
:1018500006003200140ce20004003a00a1e2a900e4
:10186000dc82a9000a6ba900010037000a6ba800fe
:101870008512070066c8bf00e34f500005003c001a
:10188000140ce2000800340066c8bf00e34f5000ab
:10189000050032007608ab000300320010c0b30030
:1018a00081150700130037007608ab0006003a00e8
:1018b00009cbbf000008a30003003a0040c0b300fa
:1018c000791507000b00370066c8bf00e14f5000d4
:1018d0000600320066c8bf00e34f5000030032002c
:1018e00020c0b30070150700020037000040eb0075
:1018f0006d1507004f04be004f03be004f02be002f
:101900004f01be004f00be003600f9000040060047
:101910003600f800809fbe00829fbe00849fbe00fc
:10192000869fbe00889fbe008a9fbe008c9fbe001f
:101930008e1f7800f08747008460a9005a48e200b3
:10194000a5013400a0558000a0bf9f00b1558000c4
:10195000b1bf9f00304b8000414b8000524b800054
:10196000634b8000200407000006be000200200038
:1019700003f423001c0407000001be002fb89700e9
:10198000bfb89700f10107000000e000020034003a
:1019900008eba8000100370008eba900224c8000ea
:1019a000e2bf9f000200e000b10134000004eb0040
:1019b000c8bf9f000a0020008b2c24000eaf20001f
:1019c000820478004240dd00000047001000be00a5
:1019d0000a01be00db0107000000e00004003d003a
:1019e0004240dd00000047001005be00c8bf9f0058
:1019f0000804e800890f5400f2ff3a00904a800082
:101a0000a14a8000a2702d0033ba230032020700e1
:101a10000004be000007eb009ebf9f004270dd0087
:101a200001af2000008040001000be000801be0091
:101a3000c60107000000e0002000350009cbbf0010
:101a40000008a3001d003a004fb99700820f57000d
:101a50001a003200e10f57000d00320003003c0075
:101a60000e00e0000600320014003700e20f5700bd
:101a70000b003200e30f570010003a000c00370053
:101a80009fb997000300a00093bf9f000b00370091
:101a90001fb897000010a00090bf9f0007003700fc
:101aa0009fb897000120a00091bf9f00030037005e
:101ab0001fb997000230a00092bf9f000e07e800f8
:101ac000efb99700830f5700d4ff3a00aff09700ab
:101ad000a0872000014878000007eb0008002000e4
:101ae000892c2400cabf9f00dbbf9f006fbd9700f9
:101af0004270dd0003af2000008041001000be00f6
:101b00000801be008f0107000000e00004003d0056
:101b10004270dd0001af2000008040001004be00d4
:101b20000e07e8008a0f5700f1ff3a004fbd9700fb
:101b3000dfbd9700904a8000a14a8000020020008b
:101b400003082400a80307002254800033548000b7
:101b5000d80107002b110700e0bf9f00f1bf9f00d5
:101b60002fb89700bfb89700261107000c01be00e0
:101b7000be0207000006be0060558000715580005f
:101b800002002000831c2400ca0107001d11070069
:101b9000c0bf9f00d1bf9f005ec8bf00e14f500093
:101ba0001e00320008cbbf000038a3001b0032002b
:101bb000a3538000a3bf9f00b0538000b0bf9f001d
:101bc00002002000832424002fb89700bfb897009c
:101bd0005c0107000000e00010003d000200200052
:101be000031224004fb89700dfb897005501070093
:101bf0000000e00009003d0010c0b3005ee8b7003f
:101c00000a2aef000c2aef002fb99700bfb99700fe
:101c100082428800934288003a0037005ec8bf00c5
:101c2000e14f500037003a000bcbbf000068a30023
:101c300034003200d2cc2c00c3d423006fb89700fc
:101c4000ffb897003f0107000000e00063003d007f
:101c5000a2702d0033c223000c00be003901070022
:101c60000000e00027003d000200200003122400d5
:101c70004fb89700dfb89700320107000000e0007e
:101c800020003d0020c0b3005ee8b7008242800023
:101c90009342800050508000e0bf9f006150800060
:101ca000f1bf9f0000002000812c2400810107006b
:101cb0000001be0000002000812c24006b02070000
:101cc0000001be006fb89700ffb8970046030700f9
:101cd0000001be00e0bf9f00f1bf9f0010508000d8
:101ce00021508000190107000000e00012003400bc
:101cf0006fb89700ffb897001050880021508800f7
:101d00000d003700d2cc2c00c3d423006fb897004d
:101d1000ffb897000b0107000000e0002f003d0016
:101d2000a2702d0033c223000c00be000501070085
:101d30000000e0003b003d000200200003122400f0
:101d40004fb89700dfb89700fe0007000000e000e2
:101d500022003d000a01be000800be005501070038
:101d60000005be00d2cc2c00c3d42300f500070030
:101d70000000e00002003d000bcba8000900370086
:101d8000d2cc2c00c3dc23000a00be00ef00070009
:101d90000000e000030034000bcba90020c0b3001a
:101da0005ee8b700904a8000a14a8000d2cc2c00a7
:101db000c3d423003f0107000801be00e100070073
:101dc0000000e00017003c0010508000215080000f
:101dd000705088008150880012003700a2702d00da
:101de00033c223000c00be00d60007000000e00054
:101df0000c003d00b04a8000c14a8000d2cc2c00cb
:101e0000c3d42300340107000a01be00cf0007003d
:101e10000000e000030035000e2aef0001f8230067
:101e2000815088005050800061508000751007007c
:101e3000305088004150880008cbbf000058a300f4
:101e40001600320065c8bf00e34f500013003a008f
:101e500078508000895080006011b8000800be00f2
:101e6000b80007000000e00003003d000e2aef006c
:101e7000102aef00090037001a5080002b50800014
:101e80000a01be000800be00b00007000000e0002c
:101e9000020034007a5088008b5088001050800077
:101ea000215080006011b800a60007000000e0008b
:101eb00004003a0072712b0012508800128d23002a
:101ec000225088001a5080002b50800070508000f3
:101ed000815080000a01be00e401070002002000da
:101ee000832c2400c0020700a0538800b15388004f
:101ef000a8558000b9558000f2282c0053c7230054
:101f00000800be00910007000000e000320034002d
:101f100008cbbf000038a3002f0032009c50800087
:101f2000ad50800002002000135624000800be00bf
:101f3000ce0107000001be000c00be00e600070055
:101f40000001be0090508800a15088000a00be0029
:101f50007c0007000000e0001f003c00122aef0098
:101f6000142aef00b0508000e10f40000200320060
:101f70000000e800b0508800304c80006500b900d7
:101f8000cf80de00af0007000004be006011b80083
:101f90006c0007000000e00002003a00080020008a
:101fa00009f823000801be000000200001f823000a
:101fb000ae0107000001be000000200001f8230070
:101fc000bc0007000001be000a00be008602070038
:101fd00010508800215088000ec2bf000018a300d6
:101fe0000b0032008000eb00d00220003e160700fc
:101ff0000ec2bf000008a300040032009010800051
:102000000ec2bf000008a300fcff3a000e22a90088
:1020100018c2bf000018a3000b0032008000eb00c4
:10202000e00220003016070018c2bf000008a3001d
:1020300004003200e010800018c2bf000008a300b6
:10204000fcff3a001822a9001c1e070054230700b9
:102050004820070066c8bf00e24f500009003c005e
:1020600010002000d04888000acba90005003700e6
:102070007a68ef000a0020008b2c24000a04be00be
:10208000acfe37000f01b1004f0778004f06be00cd
:102090004f05be004f04be004f03be004f02be00fe
:1020a0004f01be004f00be003600f90000400600a0
:1020b0003600f800809fbe00829fbe00849fbe0055
:1020c000869fbe008700a90018c2bf000008a300b9
:1020d0000200320010002000822407000a0e0700d0
:1020e0004f03be004f02be004f01be004f00be00b6
:1020f0003600f900004006003600f800809fbe0060
:10210000829fbe00849fbe00869fbe008520a900de
:102110000ec2bf000008a300020032000000eb0066
:1021200070240700f80d07004f03be004f02be00e9
:102130004f01be004f00be003600f900004006000f
:102140000000050014002000af033700f4ff2f004b
:10215000ad0337000001be00410007000470a70076
:1021600003f0a1006509b100160032000d00350032
:102170006828e10006003500f0ff2f00f1ff27007e
:102180000300e00013003b000100280000000500f0
:1021900000004000818048008502e900fcff3a0011
:1021a00008003700f88f420002003c008000eb007e
:1021b000000005008100d1000080d3008502e80006
:1021c000fcff3a000300e00002003b00600010004a
:1021d000e0801800000006000001be00200007009b
:1021e0000470a70003f0a10003f8a30013003a0055
:1021f0006509b10010003200090035006928e100ce
:102200000200350001002800000005000000400029
:10221000818048008502e900fcff3a0000000600ca
:10222000f88f4200050035008100d1000080d30006
:102230008502e800fcff3a00000006008000eb0089
:10224000000005004f89de00820178008903370015
:102250006011b80097033700040020006a033700bc
:10226000c70ade00f107b200f50fb2000800320025
:10227000e1cf4200020032000170a00024000500fe
:10228000810f7000010032000408050044000500c1
:10229000810f700002003a00140005008502e90079
:1022a0000000400081c04800fcff3b000170a0001e
:1022b0002400050007f82700078361000638e100c5
:1022c00004003a00f707200087836100870371004c
:1022d00001003a0003f0a200889fbe008a9fbe0062
:1022e0008c9fbe00470ade000480a100c71ade00f2
:1022f0000580a10007002800078560008785610030
:10230000f70f20000720e1009e0032000728e100bf
:102310009c003200010678000400e000b4003200a6
:10232000f7072000878060000170a0000500e00032
:10233000c0003200f7072000878161000370a00011
:10234000050652000f003a000b50e1000b0032006e
:102350000308e10002003a000200e1007e003200c2
:102360000204500083845800040031000001fd0085
:102370008101fd008402fd008a05fd006044b80073
:10238000210037000520e10005003d000001fd00af
:102390008101fd008402fd008a05fd000506520052
:1023a0007a60e100050035000170a1004722dd00e0
:1023b000848070008a807000630037006044b80039
:1023c000ef02660007ff2f00070666000500e00029
:1023d00006003400f08312008714dd000511de00d2
:1023e000071bdd00060171008519de007060e10049
:1023f00005003500090478008204780003017800a4
:102400008001eb00700656000b50e10003003a001b
:10241000020040008380480004003700600414007c
:10242000e0841c0002005800838058000188a3004b
:10243000060032008100d1000080d3008984d300df
:102440000884d3000402e800270037000178a300c5
:1024500025003a000100e000030032008186cf0031
:10246000698656000a0037008c0020000000e0005a
:1024700004003a0009007800880478000004eb00aa
:10248000700252008086cf000d0646000c06e9005f
:102490007060e100060035008000780009007800d7
:1024a000880478000004eb007006560070025200a9
:1024b0000c00e0000c0034008c08dd00f003160076
:1024c0000703de00868070000c00dd00074bde0095
:1024d000060070008c4cdd000743de00868474002b
:1024e0000c44dd000c0252006120e10020003500a8
:1024f000610160000700280087816400f7ff270062
:1025000087836400070374000300e00006003200c4
:1025100082037300040032000000e800e0804800fd
:102520000188a3000e003a00f70f20000720e10009
:102530004a003d000170a1004722dd0081007200c9
:102540008a8070000000be004f06be004f05be002e
:102550004f04be00000006006000b800faff37001c
:102560008100d1000080d3000402e800eeff3700b4
:102570000401780089017400a10107008a807000bd
:10258000f1ff3700f7010700070278000001fd00a6
:102590008101fd00f30107008702780085037200c6
:1025a0000778a300040032000001fd008101fd0056
:1025b00006020700e4ff3700850362000768a300f6
:1025c000080032000b50e10003003200f0ff2f0042
:1025d000f1ff2700dcff37000001fd008101fd0055
:1025e000d9ff37000468a300d7ff3200faff370095
:1025f000f8ff2700888360000b003a000000e0002d
:1026000009003a00830364008283730002003200f1
:102610000200be00ccff37000b50e100ceff3a00b5
:102620000200be00c8ff37001400200081006400d3
:102630003eff3700f8ff27008883610004003a005e
:102640000200e00002003a008c007800beff370074
:10265000150020008301640039ff370001f82700ce
:102660000000200081007500b7ff3700889fbe0082
:102670008a9fbe008c9fbe001b0020000202be008d
:102680000586680006002800060666004709de0089
:10269000f20fb200820032000243e80080003200f4
:1026a000c729de00f30fb2007d0032000343e800cb
:1026b0007b003200f107b2000170a000f507b20004
:1026c0000570a000c708dd004903de0086807000a9
:1026d0004700dd00c72add004923de008682720044
:1026e0004722dd0003055100040350008583580094
:1026f0000300310000004000818048000a05e90025
:102700008c1f78008a9fbe0004005000858058000e
:102710000402420085824a00000040008180480097
:102720000005eb000004be006033b8000406be00e4
:102730000d48e10056003100110009004dccd800d1
:102740000c01b8000d02b8008481410060824a008b
:102750008283530003045c0084845c0060055d0098
:102760000a00e00025003a00800578000d40e100f5
:102770004900310088007800070078001100090046
:102780004d88d8000c01b8000d02b80084814100ca
:1027900060824a006003110083835b0004045c00d4
:1027a000e0845c000900e00021003a004f01be0017
:1027b0000300e0002b003200e30160000706730015
:1027c0008c81710001003200640070004200de0064
:1027d0004e5edd000c007000c258de0001e0a0007b
:1027e00083010700cf017800818071004f06be0091
:1027f0004f05be004f04be00000006008c8343005e
:102800000d044c00e0844c0060054d000000e90020
:102810000a00e000d4ff32008c8343000d044c001a
:10282000e0844c0060054d000000e900ceff370059
:102830000c0343008d834b0060044c00e0844c008b
:102840000000e9000900e000d8ff32000c0343005b
:102850008d834b0060044c00e0844c000000e900d4
:10286000d2ff37004200de004e5edd000c0070003b
:10287000c258de0001e0a000cf0178000300e000b4
:10288000daff320060001000e0801800d7ff370048
:10289000f0ff2f00aaff3700f0ff2f00b9ff37002d
:1028a0000404be002f010700870678000004fd0025
:1028b0008104fd002b010700078366000678a30052
:1028c000030032000960a7000800be002c0037009a
:1028d0000d78a300020032000800be002800370077
:1028e0000778a30026003a0001f0a10009f0a1003a
:1028f0000668a30003003200f1ff2700f0ff2f005d
:10290000baff37000d68a300030032000800be00c4
:102910008c807000b5ff37000768a30007003a00fd
:102920000648a30003003200f1ff2700f0ff2f004c
:10293000aeff37000d48a300030032006000b8006e
:102940008c807000a9ff37000748a3000400320004
:1029500001f82700000020008c807000a3ff3700e2
:10296000760107000004fd008104fd0002057800e7
:10297000720107000802be008a01780059ff370083
:102980000160a000120220001261880097ff37004a
:102990000100e000120032000500e00010003200eb
:1029a000889fbe008a9fbe008c9fbe000006eb0081
:1029b00001f8a3000300320060001000e08018005e
:1029c0000cf0a00005f8a300030032006002120022
:1029d000e0821a000cf0a2008005eb0041ff3700f6
:1029e0006000b800020005000383680007002800ab
:1029f00007036300470ade000480a100c71ade0057
:102a00000580a100f70f20000720e10042003200fe
:102a10000728e10040003200889fbe008a9fbe0068
:102a20008c1f7800f107b200f307b2000400e00049
:102a3000640032000170a0000500e0006800320070
:102a40000370a00085054200eb07b1000204b80046
:102a50000302b8008484440060854a00020ab8007a
:102a6000848444000a854a00030ab800040545002e
:102a7000040033000804d0008984d2000a85d20003
:102a80008b05e9006158e1003d003500021020008f
:102a9000090161000308200089816100f707200017
:102aa0008783640008867300c84cde00c853dd00cd
:102ab000878474004855de000300e0000600320001
:102ac00082037600040032008904e80060054d00ae
:102ad0000a88a3000c003a00f70f20000758e10015
:102ae00044003d000a70a100c75ddd000a85750045
:102af0008a007300090078004f0678004f05be0079
:102b00004f04be00000006000a05d1008984d300ee
:102b10008b05e800f0ff3700881f78000604780076
:102b200090000700070278000001fd008101fd0010
:102b30008c00070087027800850372000778a300e5
:102b4000050032000001fd008101fd009f0007002b
:102b50004f04780000000600850372000748a300b8
:102b600003003200f0ff2f00f1ff2700f8ff3700cd
:102b70000000200001f8270088807000f4ff370073
:102b8000880178004848dd00808171004848de00f7
:102b9000c850dd0001007000c850de000604780057
:102ba0000b0178001600070088807000d2ff370004
:102bb0000500e00005003200170020003a00070081
:102bc0009dff370081037000f9ff3a00860078000e
:102bd0004f0678004f05be004f04be000000050000
:102be00083037100f9ff3200270020002e00070048
:102bf00094ff370001f8270086807000f4ff37004b
:102c00000100e00026003200610111007810e100af
:102c100023003c006022b8007010e1000400350081
:102c200080027800010078008000eb007001510004
:102c30000200e0000900340070031100062add00e4
:102c4000822ade008603dd00878272000200de0039
:102c5000860bdd00070070008208de0084817100b1
:102c6000f4ff2700048262008481710004002800c0
:102c7000848262006102600005f0a6000000060088
:102c800004827100070032000000e800e080480084
:102c9000000006000002be006000b800efff370031
:102ca0006000b80000000600889fbe000004eb0032
:102cb0006138e10016003a000100e00008003a0027
:102cc000c800de004800dd00880020000100e000b0
:102cd00003003a00c800de004800dd00680444003c
:102ce0008184cf00e9845400060034008908dd00a7
:102cf000f08314008703de00878070000900dd0088
:102d000009044400610214004f04be0000000600e4
:102d10000300e00008003a00c811de004811dd00a1
:102d2000880020000300e00003003a00c811de0024
:102d30004811dd00680444008384cf00e984540016
:102d4000060034008919dd00f08314008713de00cb
:102d5000878171000911dd0009044400e1021400bb
:102d6000e9ff37002700200001f0a700170020002e
:102d7000470bde00f60fb200040032000643e80005
:102d80000a0032004702b300000006000103780089
:102d9000f607b2000603700002003a000703b30012
:102da000000006008702b30000000600010378005f
:102db000f607b20006037000020032000770a000a0
:102dc000000006000760a000000006000478a300d1
:102dd000040032000578a300030032000168a3005c
:102de00001003a000200be000160a00000000600e1
:102df00081017000270032008002eb0001f8a3007f
:102e00000300320060001000e08018001500200070
:102e1000f40720000202420020003400f7032000e3
:102e200087036000060420000003630002082000fe
:102e3000000161004700de00c909dd00008071006b
:102e4000c708de000600e0000800320087037100ba
:102e5000060032001000b0000180b0000188a3001d
:102e600002003200c108de000402e800f107b200ef
:102e7000f30f20000320e10003003d004722dd00a6
:102e8000810072002900370001f827000000eb00e4
:102e9000260037006000b80000000600680212003b
:102ea0007f20e100020034006000b8001f003700fe
:102eb0006011b8007020e100040035008001780046
:102ec000010078008000eb00700252000400e00076
:102ed00009003400f00312000719dd008419de0038
:102ee0000703dd00868171000400de00070bdd00b2
:102ef000060070008408de00f7ff2700838363006c
:102f000087037100060028000303630007003200f6
:102f10000700e00003003a006101600002817300d5
:102f2000020032001000b0000180b0000500a600d1
:102f30000000060001f0a000000006004f0ade00bd
:102f40004709de00f107b200f20fb2000b003200b9
:102f5000f207b1000170a000c708dd00c901de0062
:102f6000838070004700dd000400a600000006001a
:102f700060001000e080180000000600810f700063
:102f800001003a00000006008182cf000500e00049
:102f900010003e008082cf00ee8242007028e100e7
:102fa0000400390007003e00800078000000eb00bc
:102fb0000e003700708312008600de000500dd0081
:102fc0000a003700708352008600dd000000eb002d
:102fd00006003700e28252008508dd00708312008f
:102fe0000603de00868070000500dd007507b00076
:102ff0000501ea000400a6000000060060001000c1
:10300000e080180000000600889fbe008a9fbe0076
:10301000841f78007c0007004f0078001100330007
:10302000f0ff2f00838f6c0006003b000405650055
:103030000a00a7000800370009f0a60010002000d1
:1030400008003700820f5400838f5c0003003900b2
:103050001000200001003e000000200009f0a70041
:103060000000ea004f05be004f04be000000e00073
:1030700000000600881f7800030478000300e000c9
:1030800007003d0060001000e0801800600119009a
:10309000e081190002003b0001f02d000300370021
:1030a0000400070008f0a70001f0a0004f0478001a
:1030b00000000600889fbe008a9fbe00008270004c
:1030c0000402710004827100260032000004be0078
:1030d0000200be006011b8006b09200095022000bc
:1030e0000182cf000a0039000541b1000082cf0003
:1030f000070039000541b1000982cf000400390002
:103100000541b1000882cf00010039000541b1003e
:1031100005425200120032000a003b008281710019
:10312000610164008100d1000080d3008984d30054
:103130000884d3008b05e8000442e800f7ff3a005a
:10314000070037000804440089844c000000480050
:10315000818048008b05e9000442e900f9ff3a004c
:10316000030007004f05be004f04be00000006002c
:1031700081002000618055000b003d000b00200005
:1031800061fe2f000100e1001d003400828171000a
:10319000610164008904d1000884d3000000e800c4
:1031a000faff3a0071002000610064000300700023
:1031b000020060000900320061044400e0844c0019
:1031c0000988a500050032008b05e8006808e100c9
:1031d00002003a008904d1000884d300f20f2000d5
:1031e0000258e10005003d00c75ddd00f907b200af
:1031f0008980750008007800000006000bf82700a1
:103200008b007800000005000004be0014fc0700dd
:103210000003be000405be000200be0010fc070053
:08322000844f75000000060058
:020000040000fa
:103228000a0d0000556e0000616200006c65000028
:103238003a2000005365000074740000696e0000b5
:1032480067730000204e00006565000064200000e0
:10325800546f000020420000652000004c6f000001
:10326800636b0000656400002e0000000a0d00007a
:10327800556e0000616200006c6500003a20000095
:103288005365000074740000696e000067730000e5
:10329800204c00006f6300006b650000642e000086
:1032a80000200000002d00002d2d00002d2d000015
:1032b8002d2d00002d2d00002d2d00002d2d00009e
:1032c8002d2d00002d2d00002d2d00003a3a000074
:1032d800007e00007e7e00007e7e00007e7e000074
:1032e8007e7e00007e7e00007e7e00007e7e0000e6
:1032f8007e7e00007e7e00003a3a0000000a000050
:103308000d0000000a0d0000496e000064780000fe
:103318003a2000005365000074740000696e0000d4
:10332800673a000020200000202000002020000034
:103338002020000020200000202000002020000085
:10334800202000002020000020200000205600003f
:10335800616c0000756500003a20000045640000bb
:1033680069740000616200006c6500003a0a0000a0
:103378000d000000204c00004f4300004b450000aa
:1033880044000000205500004e4c00004f43000050
:103398004b450000440000000a0d0000496e000083
:1033a800766100006c69000064200000736500000d
:1033b80074740000696e000067200000696e0000e8
:1033c80064650000782e0000204e00006f74000035
:1033d800686900006e6700002063000068610000f3
:1033e8006e670000656400002e0000000a0d0000f2
:1033f8004c6900006d6900007420000069730000ca
:10340800206e00006f200000006d00006f72000049
:103418006520000074680000616e00003a0000003a
:103428006c65000073730000207400006861000080
:103438006e3a0000000a00000d430000616e0000b3
:103448006e6f00007420000063680000616e000069
:10345800676500002e2000005365000074740000aa
:10346800696e0000672000004c4f0000434b0000cd
:1034780045440000000a00000d4f0000766500007a
:10348800722000007361000066650000206c000077
:10349800696d0000697400002e2000004162000080
:1034a8006f720000742e0000000a00000d55000025
:1034b8006e64000065720000207300006166000001
:1034c800652000006c6900006d690000742e000022
:1034d80020410000626f0000727400002e0000009e
:1034e8000a0d00005365000074740000696e000046
:1034f8006720000077610000733a0000000a0000ae
:103508000d2d00002d3e000049730000206e0000c4
:103518006f7700003a0000000a0d0000496e0000b5
:10352800647800003a2000005661000072690000cb
:10353800616200006c6500003a2000002020000055
:103548002020000020200000202000002020000073
:103558002020000020200000202000002020000063
:1035680020560000616c0000756500003a0a0000f2
:103578000d0000002a2a00002a2a00002a2a00003a
:103588002a0000000a0d0000526500006164000076
:10359800696e00006720000046610000756c00003d
:1035a800747300002e0a00000d0000004661000040
:1035b800756c0000742000004c6f0000672000004c
:1035c800467500006c6c00002e0a00000d0000001b
:1035d8004e6f000020660000617500006c740000ea
:1035e800206300006f640000657300002e0a00006d
:1035f8000d000000436f0000646500003a200000e1
:10360800002000003a3a00002041000074740000d5
:103618007269000062750000746500003a200000bd
:10362800002000002d3e000020000000466c000035
:1036380061670000733a00003a7c0000536500009f
:1036480074730000204c00004b7c00007c4200009a
:1036580061740000742000004f5600007c7c00005c
:10366800426100007474000020480000567c00008d
:10367800007c0000426100007474000020550000c6
:10368800567c00007c420000617400007420000039
:103698004f5400007c7c0000537900007320000028
:1036a8004f5400007c0a00000d000000202000009c
:1036b80020200000202000002020000000530000ef
:1036c8004554000020200000202000002020000099
:1036d800004300006c6500006172000020200000bb
:1036e800202000000043000068650000636b0000b4
:1036f800696e0000673a00002000000053310000a6
:103708003a20000000530000323a00002000000078
:10371800533300003a20000000530000343a000000
:1037280020000000434800003a2000000076000016
:103738006f6c00007461000067650000206900007c
:103748006e700000757400002873000029200000c6
:10375800636100006c2e00000a0d0000004e00009e
:103768006f740000686900006e6700002063000045
:10377800616c000021200000566f00006c7400008e
:1037880061670000652000006f750000742000006c
:103798006f66000020720000616e0000676500001f
:1037a8002e0a00000d000000562000003a3a0000e2
:1037b80020000000410000000a0d000055530000e1
:1037c800422d000050440000206d00006f6400008e
:1037d800657300002061000076610000696c0000dc
:1037e800616200006c6500002077000069740000c9
:1037f80068200000746800006973000020630000fe
:103808006861000072670000657200003a200000dd
:103818000a0d0000000a00000d4e00006f20000095
:1038280050440000207300006f75000072630000b0
:10383800657300002e0000000a0d000050440000cf
:10384800207300006f75000072630000652000009f
:1038580065720000726f0000722e00000008000000
:103868002008000000070000000a00000d200000ea
:103878005365000074200000686900006768000054
:103888006573000074200000776100007474000004
:1038980061670000652000005044000020730000ac
:1038a8007563000063650000737300002e0a000052
:1038b8000d0000000a0d0000205300006574000090
:1038c80020680000696700006865000073740000e4
:1038d80020770000617400007461000067650000d3
:1038e800205000004420000046410000494c0000e0
:1038f800454400002e200000504400002d530000d5
:103908007461000074750000733a00002000000024
:103918000a0d000020430000616e000027740000bb
:1039280020740000616c00006b20000077690000c3
:10393800746800002050000044200000636f0000fd
:103948006e740000726f00006c6c000065720000fd
:103958002e0000000a0d00002053000065740000ce
:10396800206c00006f770000657300007420000071
:10397800766f00006c74000061670000652000002d
:103988005044000020730000756300006365000068
:10399800737300002e0a00000d0000000a0d0000dd
:1039a8002053000065740000206c00006f77000051
:1039b8006573000074200000766f00006c740000ce
:1039c80061670000652000005044000020460000a8
:1039d800414900004c450000442e000020500000e2
:1039e800442d0000537400006174000075730000da
:1039f8003a200000000a00000d430000616c00003e
:103a0800637500006c610000746900006e67000057
:103a180020700000726f000067720000616d000086
:103a28002063000068650000636b00007375000088
:103a38006d2c0000207000006c65000061730000b0
:103a48006520000077610000697400002e2e0000d8
:103a58002e0000000a0d000050520000473a0000f6
:103a68000a0d0000537400006f72000065640000c6
:103a78003a0000000a0d0000436100006c6300007a
:103a88003a200000200000004d6500006d20000075
:103a98004275000073790000000a00000d4e000016
:103aa800564d00003a0a00000d530000746f0000e4
:103ab80072650000643a000000500000204f0000ca
:103ac8006e000000502000004f66000066000000f5
:103ad8000a0d000048550000442000004f6e000009
:103ae800000a00000d48000055440000204f000067
:103af80066660000000a00000d540000696d0000b1
:103b0800652000006c650000667400003a20000023
:103b1800002000006d6900006e75000074650000eb
:103b280073200000616e0000642000000020000087
:103b380073650000636f00006e640000732e000060
:103b4800000a00000d460000617500006c7400005a
:103b580073200000436c000065610000726500007e
:103b6800642e0000000a00000d4400006f69000088
:103b78006e6700002061000020660000756c000080
:103b88006c20000063680000617200006765000037
:103b9800207200006567000061720000646c00001c
:103ba80065730000732000006f660000207300003a
:103bb80065740000746900006e670000732e0000d1
:103bc800000a00000d460000697200006d770000d1
:103bd80061720000653a000020560000302e000097
:103be800312d000044650000760a00000d32000007
:103bf800532d000034530000204300006f6d000077
:103c08007061000074690000626c000065200000ab
:103c1800436500006c6c0000204300006f6e0000dc
:103c280066690000677300002e0a00000d28000076
:103c380043290000204800006170000074690000fa
:103c480063200000536f00006c7500007469000069
:103c58006f6e000073200000496e0000632e0000a4
:103c6800202800003230000032340000290a000009
:103c78000d0000000a0d000041750000746f00007f
:103c88006d6100007469000063200000626100003b
:103c980074740000657200007920000065760000e9
:103ca800616c000075610000746900006f6e0000af
:103cb80020410000626f000072740000656400001b
:103cc8002e0a00000d000000502000004f66000082
:103cd800660a00000d0000000a0d00004175000092
:103ce800746f00006d6100007469000063200000bb
:103cf80062610000747400006572000079200000a1
:103d080065760000616c0000756100007469000050
:103d18006f6e000020730000746100007274000070
:103d2800656400002e2000004d6100006b650000f6
:103d380020730000757200006520000061200000fb
:103d4800736d0000616c00006c2000006c6f000057
:103d5800616400002069000073200000636f0000a8
:103d68006e6e00006563000074650000642000004a
:103d7800746f0000206f00007574000070750000fb
:103d8800742e00000a0d0000000a00000d53000008
:103d9800796e0000746100007820000065720000f0
:103da800726f0000723a0000205500007365000031
:103db80020270000452000006e6e000020760000dd
:103dc800762e000076760000767600002720000028
:103dd80041700000706500006e640000202700003c
:103de80071270000206600006f720000207100003b
:103df8007569000074650000206d00006f640000a4
:103e0800652e0000000a00000d53000065740000d4
:103e180073200000556e00004c4b0000442e00003b
:103e2800000a00000d55000073610000676500007e
:103e38003a200000276c00002059000027200000cd
:103e4800746f0000207500006e6c00006f63000046
:103e58006b2e0000000a00000d5700006169000089
:103e6800742e00002e2e0000005300006574000020
:103e7800732000004c4b0000442e0000000a000094
:103e88000d5000006f77000065720000204f0000a1
:103e980075740000204f00006e2e0000000a00001c
:103ea8000d43000068610000726700006520000093
:103eb800476f00002e0000000a0d0000524c000061
:103ec800200000000a0d0000434800002000000008
:103ed8000a0d000045630000686f0000204f0000d5
:103ee8004e2e0000000a00000d4500006368000027
:103ef8006f2000004f460000462e0000000a000018
:103f08000d5500006e6b00006e6f0000776e0000ac
:103f1800204300006f6d00006d6100006e640000ba
:103f28002e0000000a0d00004000000021000000e3
:103f3800202d00003e43000072450000213c000097
:103f48002d000000496e0000697400002e2000005a
:103f58000a0d0000002000000025000000560000a7
:103f680000540000560000005057000000410000b7
:103f780056000000435600000043000041000000c6
:103f88003a530000310000003a53000032000000ac
:103f98003a530000330000003a5300003400000098
:103fa8005700000043570000004100000043000094
:103fb80042000000434d00000041000041000000a5
:103fc8004f430000560000004d430000000a000067
:103fd8000d000000af9f0000b19f0000b39f0000dc
:103fe800b59f0000b89f0000bb9f0000be9f000067
:103ff800c19f0000c49f0000c89f0000cc9f000024
:10400800d09f0000d49f0000d69f0000d99f0000d9
:10401800db9f0000de9f0000e19f0000e49f00009e
:10402800e89f0000eb9f000041440000432000008f
:10403800562d0000496e00007075000074200000c5
:1040480052310000004100004443000020560000a7
:104058002d4900006e7000007574000020520000a9
:10406800320000004144000043200000565f000079
:10407800436f00006d700000203100000041000017
:1040880044430000205600005f4300006f6d0000ad
:10409800702000003200000041440000432000006e
:1040a800565f0000436f00006d7000002033000071
:1040b8000041000044430000205600005f43000018
:1040c8006f6d0000702000003400000041440000c3
:1040d80043200000434800005f4300006f6d00006c
:1040e80070000000506100007274000069610000f7
:1040f8006c200000436800006172000067650000e2
:104108002025000020310000303000005800000059
:104118004d61000078200000436500006c6c0000d1
:10412800205600006f6c00007473000000520000fd
:10413800617400006564000020430000656c0000a5
:104148006c200000566f00006c74000073000000c3
:104158004d6900006e200000436500006c6c000093
:10416800205600006f6c000074730000004c0000c3
:104178006f7700002d56000020430000656c00009a
:104188006c2000005368000075740000646f000024
:10419800776e000000440000697300006368000047
:1041a800617200006765000020430000004c0000b9
:1041b800696d0000702000004375000072720000f5
:1041c800656e000074000000436800006172000022
:1041d8006765000020430000005000006163000094
:1041e8006b2000004148000020520000617400006c
:1041f800696e0000670000004f76000065720000dd
:104208002043000075720000726500006e740000a3
:104218002053000068750000746400006f77000088
:104228006e00000041620000736f00006c750000b2
:1042380074650000204d00006178000020410000f6
:104248006d7000007300000041750000746f00007d
:104258002d4f000066660000204d0000696e0000ca
:1042680020570000617400007473000000420000d1
:10427800617400007420000054680000657200003a
:104288006d2000005265000073200000417400009a
:104298002032000035430000004200002054000096
:1042a80068650000726d0000204300006f65000023
:1042b8006666000069630000696500006e740000ae
:1042c800005300002d4300006f6e00006669000077
:1042d8006700000043790000636c0000657300000c
:1042e800207400006f2000003830000025200000f6
:1042f8004361000070610000636900007479000088
:10430800004300006861000072670000652000003b
:104318004d6900006e2d0000546500006d700000ae
:10432800004300006861000072670000652000001b
:10433800526500006475000063650000204c0000b1
:104348006f7700002d540000656d000070000000bc
:10435800436800006172000067650000204d00009e
:10436800617800002d540000656d000070000000a9
:104378004368000061720000676500002052000079
:10438800656400007563000065200000486900004e
:10439800676800002d540000656d00007000000083
:1043a8004368000061720000676500002054000047
:1043b8006172000067650000742000005465000009
:1043c8006d7000000044000069730000636800001d
:1043d800204d0000696e00002d540000656d00003e
:1043e800700000004469000073630000682000004a
:1043f800526500006475000063650000204c0000f1
:104408006f7700002d540000656d000070000000fb
:104418004469000073630000682000004d610000db
:10442800782d0000546500006d7000000044000005
:104438006973000063680000205200006564000092
:104448007563000065200000486900006768000087
:104458002d540000656d00007000000044690000e4
:104468007363000068200000546100007267000058
:104478006574000020540000656d000070000000a5
:1044880050610000636b0000205300006875000055
:10449800746400006f7700006e200000546500000f
:1044a8006d700000004300006f6e00007472000021
:1044b8006f6c00006c6500007220000053680000fb
:1044c80075740000646f0000776e000020540000cf
:1044d800656d000070000000486500006174000010
:1044e8006572000020520000756e00006e690000c1
:1044f8006e670000205700006174000074730000ac
:10450800004400006565000070200000536c000046
:104518006565000070200000546900006d650000aa
:10452800204d0000696e000075740000657300007e
:10453800005000006f77000065720000204f0000f7
:104548006666000020540000696d000065200000c8
:104558004d6900006e75000074650000730000006e
:10456800506f00007765000072200000537700004c
:104578006974000063680000204d00006f6400004b
:104588006500000041750000746f00002d440000b4
:1045980069730000706c000061790000005500002c
:1045a8006e6b00006e6f0000776e000020560000f2
:1045b8006172000069610000626c00006500000023
:1045c80018a0000027a0000036a0000043a00000ab
:1045d80050a000005da000006aa0000076a00000c6
:1045e8008ca000009ba00000aca00000bba00000b5
:1045f800cfa00000dba00000e8a00000f1a00000b0
:1046080000a1000016a1000028a100003ba10000a5
:1046180051a1000065a100006ea1000085a1000065
:1046280095a10000aca10000bca10000d4a100002d
:10463800e7a10000f6a100000ca200001ba20000e8
:1046480032a2000044a2000057a2000070a200009d
:1046580085a200009da20000b4a20000c6a200002e
:10466800d3a20000010000000200000003000000c7
:10467800040000000500000006000000070000001c
:1046880008000000090000000a0000000b000000fc
:104698000c0000000d0000000e0000000f000000dc
:1046a80010000000110000001200000013000000bc
:1046b80014000000150000000100000002000000c6
:1046c80003000000040000000500000006000000d0
:1046d8000700000008000000090000000a000000b0
:1046e8000b0000000c0000000d0000000e00000090
:1046f8000f0000001000000011000000130000006f
:10470800140000000000000000000000000000008d
:104718000000000000000000000000000000000091
:104728000000000000000000000000000000000081
:104738000000000000000000000000000000000071
:10474800803f0000c3f50000884000000000000022
:1047580088400000cdcc00000cc000000000000024
:1047680000c0000000000000000000000000000081
:104778000000000000000000000000000000000031
:1047880000000000000000001041000000000000d0
:1047980018410000000000000000000000000000b8
:1047a8000000000000000000000000000000000001
:1047b80080400000003c00001c4600000000000093
:1047c800a0c0000000000000a0c000000000000021
:1047d8007042000000000000484200000000000095
:1047e80000000000000000000000000000000000c1
:1047f800a0c00000000000008c4200000000000083
:1048080070420000000000000000000000000000ee
:10481800a042000000000000b442000000000000b8
:10482800204100000000000000000000000000001f
:104838000000000000000000000000000000000070
:1048480000000000426100007474000065720000fe
:10485800792000002520000000500000616300005e
:104868006b200000566f00006c7400006167000048
:104878006500000050610000636b000020540000d8
:10488800617200006765000074200000566f000028
:104898006c7400006167000065000000506500004e
:1048a800616b000020570000617400007473000001
:1048b80000500000616300006b200000417600009a
:1048c800657200006167000065200000566f0000f7
:1048d8006c74000061670000650000004368000018
:1048e8006172000067650000205600006f6c0000d0
:1048f8007461000067650000004300006861000003
:1049080072670000652000004375000072720000a5
:10491800656e00007400000053310000205600004e
:104928006f6c0000746100006765000000530000b0
:1049380032200000566f00006c74000061670000b0
:104948006500000053330000205600006f6c000023
:104958007461000067650000005300003420000007
:10496800566f00006c74000061670000650000006d
:104978004261000074740000657200007920000034
:104988005761000074740000730000004368000061
:104998006172000067650000205700006174000024
:1049a8007473000000420000617400007465000028
:1049b80072790000204300007572000072650000e3
:1049c8006e7400000042000061740000746500000d
:1049d8007279000020540000656d0000700000002e
:1049e800436f00006e740000726f00006c6c000072
:1049f8006572000020540000656d00007000000022
:104a080042610000747400002041000076650000d7
:104a1800726100006765000020430000524e0000ec
:104a2800540000004f700000656e00002043000035
:104a38006972000063750000697400002056000068
:104a48006f6c00007461000067650000004d000095
:104a58006178000020420000617400007465000065
:104a68007279000020430000757200007265000032
:104a78006e74000000500000726500006469000058
:104a88006374000065640000204100006820000095
:104a980043610000706100006369000074790000e0
:104aa8000041000068200000526500006d610000b0
:104ab800696e0000696e000067000000546f000016
:104ac800746100006c2000004368000061720000ff
:104ad8006765000020430000796300006c650000f2
:104ae8007300000026a4000031a400003ea40000ca
:104af80052a400005da4000072a4000081a400007c
:104b080090a400009ba40000a6a40000b1a400008b
:104b1800bca40000caa40000d7a40000e7a40000b9
:104b2800f4a4000004a5000016a500002ba50000b1
:104b38003fa5000055a5000062a50000d3a2000013
:104b48000100000002000000030000000400000053
:104b58000500000006000000070000000800000033
:104b6800090000000a0000000b0000000c00000013
:104b78000d0000000e0000000f00000010000000f3
:104b880011000000120000001300000001000000e6
:104b9800040000000d000000502000004f660000d7
:104ba800662c000020430000686100007267000066
:104bb800696e0000672e0000205000006c65000040
:104bc80061730000652000005761000069740000ef
:104bd8002e2e00002e0a00000d00000050200000bc
:104be8004f6e00002c200000646900007363000011
:104bf8006861000072670000696e0000672e00009f
:104c0800205000006c650000617300006520000002
:104c180057610000697400002e2e00002e0a000063
:104c28000d000000536f00006d65000074680000ff
:104c3800696e000067200000776500006e74000050
:104c480020770000726f00006e6700002077000078
:104c5800697400006820000062610000747400003c
:104c6800657200007920000065760000616c000024
:104c780075610000746900006f6e00002e2000004e
:104c8800416200006f720000746900006e670000e6
:104c98002e200000506c0000656100007365000064
:104ca8002063000068650000636b00002066000058
:104cb800617500006c740000732e00000a0d00007e
:104cc8000042000061740000746500007279000001
:104cd80020450000766100006c75000061740000da
:104ce800696f00006e200000436f00006d700000c7
:104cf8006c650000746500002e2000003a44000036
:104d0800205000006c650000617300006520000001
:104d18007761000069740000206600006f7200006f
:104d2800207200006563000068610000726700007f
:104d3800652e00002e2e00000a0d0000004800001d
:104d4800656100007465000072200000746f000047
:104d58006f200000736d0000616c00006c20000083
:104d6800666f000072200000746800006520000073
:104d7800776100007474000073200000796f0000f0
:104d880075200000776100006e7400002e0000009e
:104d98004e6f000020680000656100007465000027
:104da80072200000646500007465000063740000f0
:104db800656400002e000000486500006174000072
:104dc80065720000207400006f6f0000206c000006
:104dd8006172000067650000206f0000722000000b
:104de800736800006f72000074200000636900009f
:104df800726300007569000074200000646500009b
:104e08007465000063740000656400002e000000f3
:104e18004c6f0000772000004261000074740000ad
:104e2800205600006f6c0000746100006765000088
:104e38000042000061740000742000004f760000fa
:104e48006572000020430000757200007265000062
:104e58006e740000004200006174000074200000bd
:104e6800436800006172000067650000204f000081
:104e78007665000072200000437500007272000021
:104e8800656e000074000000536f00006674000037
:104e98007761000072650000204200006174000024
:104ea800742000004856000020440000657400008b
:104eb8006563000074000000426100007474000023
:104ec800204f000076650000722000005465000045
:104ed8006d700000004200002d4600006c6100006b
:104ee8006728000073290000205300006574000043
:104ef8003a2000005379000073740000656d0000cb
:104f0800206c00006f6300006b65000064200000e7
:104f18006f750000742e000000530000656c0000df
:104f2800662000004f7600006572000020540000e3
:104f3800656d0000700000005379000073200000c8
:104f48005368000075740000646f0000776e0000fd
:104f580000500000574d00002065000078630000f5
:104f680065700000004f00007363000020650000ba
:104f78007863000065700000004100006464000070
:104f88007220000065780000636500007000000072
:104f9800535400004b200000657800006365000052
:104fa800700000004d5400004820000065780000a3
:104fb8006365000070000000526500007337000050
:104fc8002065000078630000657000000044000060
:104fd80069730000702000004275000066660000da
:104fe800657200002045000072720000004d00004c
:104ff8004355000020420000726f0000776e0000e9
:105008004f75000074000000574400005420000051
:105018007273000074000000756e00002d680000b7
:10502800616e0000646c000065640000206500008b
:105038007863000065700000746900006f6e0000fe
:105048002072000073740000004f000070630000bd
:105058006f64000065200000727300007400000097
:105068004d4300004c520000207200007374000091
:10507800004900006c6c000065670000616c00006e
:10508800204900006e73000074000000537900008e
:10509800732000005273000074000000496e000085
:1050a800766100006c2000007365000072690000e2
:1050b800616c0000207000006f7200007400000036
:1050c800555300004220000043680000726700004a
:1050d80020460000617500006c740000005000005c
:1050e800436800006720000073650000742000001a
:1050f8003e20000031300000302500003a2000003a
:10510800436c0000616d0000706900006e6700006c
:105118002e0000005648000020430000687200007e
:10512800675600006c740000005600004c20000018
:105138004368000072670000566c000074000000ad
:1051480056480000204300006872000067430000d2
:10515800726e000074000000564c000020430000ee
:105168006872000067430000726e0000740000005f
:105178005648000020420000747200007954000074
:105188006d700000005600004c20000042740000c2
:1051980072790000546d000070000000564800004d
:1051a800204200007472000079430000726e000013
:1051b80074000000564c0000204200007472000089
:1051c80079430000726e0000740000005648000029
:1051d8002053000079730000546d00007000000037
:1051e800564c00002053000079730000546d0000f5
:1051f80070000000504f00005254000031200000a1
:10520800425300005920000065720000720000003f
:10521800504f00005254000032200000425300005a
:1052280059200000657200007200000050670000fd
:105238006d200000436800006b730000756d00006e
:105248002045000072720000004e0000564d00001c
:1052580020430000686b0000737500006d2000009b
:10526800457200007200000053650000747300006e
:1052780020430000686b0000737500006d2000007b
:1052880045720000720000004e56000053200000d6
:10529800436800006b730000756d00002045000036
:1052a80072720000005000004f520000543100009c
:1052b8002045000052520000005000004f520000ec
:1052c80054320000204500005252000000530000f4
:1052d8006f660000742000004f76000065720000c1
:1052e8002043000075720000726500006e740000b3
:1052f800005600004820000053310000566c0000a2
:1053080074000000564c0000205300003156000085
:105318006c74000000560000482000005332000062
:10532800566c000074000000564c0000205300002a
:10533800325600006c74000000560000482000003f
:1053480053330000566c000074000000564c0000f7
:1053580020530000335600006c7400000056000013
:105368004820000053340000566c00007400000010
:10537800564c000020530000345600006c740000a6
:105388000043000068610000726700006572000059
:10539800206900006e70000075740000204f000046
:1053a8007665000072200000566f00006c740000e3
:1053b800004800006172000064770000617200001c
:1053c800652000004f7600006572000043720000ff
:1053d8006e740000205300006875000074640000bb
:1053e8006f7700006e3a0000205500006e700000d4
:1053f8006c75000067200000736f00007572000074
:10540800636500002c200000262000007475000051
:10541800726e0000207000006f7700006572000057
:10542800206f000066660000206600006f720000b2
:10543800203200003020000073650000636f000018
:105448006e64000073200000746f0000207200007a
:1054580065730000657400002e00000048610000bc
:10546800726400007761000072650000204f000040
:1054780076650000725600006f6c00007420000012
:105488005368000075740000646f0000776e0000b8
:105498003a20000042610000747400006572000048
:1054a80079200000536100006665000074790000ef
:1054b800204600007573000065200000547200004b
:1054c8006970000070650000642e0000205500001f
:1054d8006e690000742000006d7500007374000090
:1054e80020620000652000007365000072760000ed
:1054f80069630000656400002e000000426100003e
:10550800747400006572000079200000556e000078
:105518006465000072200000566f00006c74000083
:1055280061670000652000004c6f0000636b00009d
:105538006f7500007400000043680000617200008d
:105548006765000072200000706f0000776500003a
:105558007220000068610000732000006379000079
:10556800636c000065640000207400006f6f000029
:10557800206d0000616e0000792000007469000051
:105588006d650000732e000020410000626f00006e
:1055980072740000696e000067200000666f0000ea
:1055a800722000006e6f0000772e0000005300008c
:1055b8007973000020530000616600006520000038
:1055c8004d6f0000646500002e2000004d6900004a
:1055d8006e6900006d7500006d20000044650000d4
:1055e8006275000067200000467500006e630000c9
:1055f800746900006f6e0000616c0000697400003f
:10560800792e0000005000006f7200007420000026
:10561800536100006e6900007479000020450000a5
:10562800727200006f7200000049000032430000ef
:105638002053000065710000756500006e6300006e
:105648006520000045720000726f000072000000c3
:105658004932000043200000546900006d650000d5
:105668006f750000740000004932000043200000fc
:1056780062750000732000006e6f00007420000047
:10568800696400006c6500000049000032430000b6
:105698002062000075730000206300006f6c00003a
:1056a8006c690000736900006f6e0000004900001b
:1056b8003243000020410000434b00002045000019
:1056c800727200006f720000004c00006f610000f1
:1056d800642000007368000075740000646f0000a7
:1056e800776e000020620000656600006f7200009f
:1056f8006520000063790000636c000065200000ed
:10570800636f00006d7000006c6500007465000038
:105718002e200000416200006f72000074690000d2
:105728006e67000020450000766100006c7500007f
:1057380061740000696f00006e2e000000500000c8
:1057480061720000616d0000657400006572000000
:10575800732000006e6f0000742000007269000062
:105768006768000074200000666f00007220000067
:1057780061750000746f000020650000766100000c
:105788006c75000061740000696f00006e2e0000e7
:1057980020410000626f000072740000696e000012
:1057a8006720000045760000616c0000756100000c
:1057b800746900006f6e00002e000000556e000036
:1057c8006b6e00006f7700006e000000a3a600005b
:1057d800cca60000e0a600000ca700001da7000052
:1057e8002fa7000048a7000060a700006fa70000cf
:1057f80091a70000a0a70000ada70000b7a7000070
:10580800c1a70000cca70000d6a70000e0a70000b1
:10581800eba70000fba7000008a8000010a80000e4
:1058280029a8000034a800003da800004aa80000ec
:1058380052a8000064a8000073a800008ea8000009
:1058480099a80000a4a80000b0a80000bca8000007
:10585800c7a80000d2a80000dea80000eaa800003f
:10586800f4a80000fea800000ca900001aa9000076
:1058780029a9000038a9000048a9000057a900007c
:1058880061a900006ba900007da9000086a900009d
:105898008fa9000098a90000a1a90000aaa90000ea
:1058a800b3a90000bca90000c5a90000dda900003b
:1058b80032aa000082aa0000a0aa0000dbaa000009
:1058c80007ab000019ab00002cab000038ab0000a0
:1058d80049ab00005bab000069ab0000a3ab000064
:0458e800e2ab00002f
:020000040000fa
:1058ec0000f02f008402e300030036000beba8004d
:1058fc0050c0b3006ceab70000000600a249ed00ee
:10590c005fe8b700b0c3b30018ecb70000000600a6
:10591c00420620000281b9008000400084882000eb
:10592c008100420091004100d2b02000e2c078001a
:10593c000104e00007003a0080004000828820004b
:10594c00010141008000eb0001097800828b2000ee
:10595c00017178000000060040bd200022bf20002d
:10596c008040eb0001687800820f5000fdff3a0088
:10597c0000000600889fbe00c448e2002f003a00d9
:10598c006486200014427800e14f52002b00340052
:10599c00041080000622ef000822ef00f41f200004
:1059ac0024108800096ba90026c0b300458c200088
:1059bc00864a780007e2a8008080400011468800e3
:1059cc000046880082407800e08b20000148780077
:1059dc0003437800f58b2000864a780000012000f4
:1059ec00d060880085c0a8004054800051548000cd
:1059fc000200200003042400cff107000000e000a7
:105a0c0008003d000c0037004054800051548000c9
:105a1c000801be00c8f107000000e00003003d00d3
:105a2c000500370008002000090424000140fe0096
:105a3c00c448e200f4ff3a00c7ff07004f04be0061
:105a4c0000000600889fbe008a1f780000047800c2
:105a5c008144780002457800c448e2002d003a00e9
:105a6c0066c8bf00e14f50002a00340000108000cf
:105a7c00d5ebb7000622ef000822ef00f01f200044
:105a8c0020108800b4ff0700096ba80020c0b300e9
:105a9c00c4e8b70007e2a80018468800c028ef0049
:105aac0089407800e08b2000014878008a4078001b
:105abc00f08b20000148780000012000d0608800a5
:105acc0085c0a80040548000515480000200200082
:105adc000304240098f107000000e00008003d00da
:105aec000c00370040548000515480000801be0067
:105afc0091f107000000e00003003d0005003700b5
:105b0c0008002000090424000140fe00c448e20003
:105b1c00f4ff3a004f0578004f04be000000060069
:105b2c00f2874700889fbe008a9fbe008c9fbe00f4
:105b3c008e1f7800a0408000b14080000200200041
:105b4c0003f02300a5f30700a0408800b1408800b3
:105b5c00a0408000b14080000200200003702400af
:105b6c00d1f10700a0408800b1408800a04080001f
:105b7c00b1408000020020000380230097f307004f
:105b8c00a0408800b1408800a0408000b140800057
:105b9c00224280003342800090f30700a04088002e
:105bac00b1408800a0408000b14080004840800097
